{
	"contracts/base/tableland/SusuWalletStorage.sol": {
		"SusuWalletStorage": {
			"abi": [
				{
					"inputs": [
						{
							"internalType": "uint256",
							"name": "chainid",
							"type": "uint256"
						}
					],
					"name": "ChainNotSupported",
					"type": "error"
				},
				{
					"inputs": [
						{
							"internalType": "uint256",
							"name": "value",
							"type": "uint256"
						},
						{
							"internalType": "uint256",
							"name": "length",
							"type": "uint256"
						}
					],
					"name": "StringsInsufficientHexLength",
					"type": "error"
				},
				{
					"inputs": [],
					"name": "createTable",
					"outputs": [],
					"stateMutability": "payable",
					"type": "function"
				},
				{
					"inputs": [
						{
							"internalType": "uint256",
							"name": "id",
							"type": "uint256"
						}
					],
					"name": "deleteFromTable",
					"outputs": [],
					"stateMutability": "nonpayable",
					"type": "function"
				},
				{
					"inputs": [
						{
							"internalType": "address",
							"name": "m",
							"type": "address"
						}
					],
					"name": "getAddressString",
					"outputs": [
						{
							"internalType": "string",
							"name": "",
							"type": "string"
						}
					],
					"stateMutability": "pure",
					"type": "function"
				},
				{
					"inputs": [],
					"name": "getTableId",
					"outputs": [
						{
							"internalType": "uint256",
							"name": "",
							"type": "uint256"
						}
					],
					"stateMutability": "view",
					"type": "function"
				},
				{
					"inputs": [],
					"name": "getTableName",
					"outputs": [
						{
							"internalType": "string",
							"name": "",
							"type": "string"
						}
					],
					"stateMutability": "view",
					"type": "function"
				},
				{
					"inputs": [
						{
							"internalType": "address",
							"name": "groupId",
							"type": "address"
						},
						{
							"internalType": "address",
							"name": "memberAddress",
							"type": "address"
						},
						{
							"internalType": "uint256",
							"name": "roundId",
							"type": "uint256"
						}
					],
					"name": "insertIntoTable",
					"outputs": [],
					"stateMutability": "nonpayable",
					"type": "function"
				},
				{
					"inputs": [
						{
							"internalType": "address",
							"name": "",
							"type": "address"
						},
						{
							"internalType": "address",
							"name": "",
							"type": "address"
						},
						{
							"internalType": "uint256",
							"name": "",
							"type": "uint256"
						},
						{
							"internalType": "bytes",
							"name": "",
							"type": "bytes"
						}
					],
					"name": "onERC721Received",
					"outputs": [
						{
							"internalType": "bytes4",
							"name": "",
							"type": "bytes4"
						}
					],
					"stateMutability": "nonpayable",
					"type": "function"
				},
				{
					"inputs": [
						{
							"internalType": "address",
							"name": "controller",
							"type": "address"
						}
					],
					"name": "setAccessControl",
					"outputs": [],
					"stateMutability": "nonpayable",
					"type": "function"
				},
				{
					"inputs": [
						{
							"internalType": "uint256",
							"name": "id",
							"type": "uint256"
						},
						{
							"internalType": "address",
							"name": "groupId",
							"type": "address"
						}
					],
					"name": "updateTable",
					"outputs": [],
					"stateMutability": "nonpayable",
					"type": "function"
				}
			],
			"devdoc": {
				"errors": {
					"StringsInsufficientHexLength(uint256,uint256)": [
						{
							"details": "The `value` string doesn't fit in the specified `length`."
						}
					]
				},
				"kind": "dev",
				"methods": {
					"onERC721Received(address,address,uint256,bytes)": {
						"details": "See {IERC721Receiver-onERC721Received}. Always returns `IERC721Receiver.onERC721Received.selector`."
					}
				},
				"version": 1
			},
			"evm": {
				"assembly": "    /* \"contracts/base/tableland/SusuWalletStorage.sol\":400:4021  contract SusuWalletStorage is ERC721Holder {... */\n  mstore(0x40, 0x80)\n    /* \"contracts/base/tableland/SusuWalletStorage.sol\":563:564  0 */\n  0x00\n    /* \"contracts/base/tableland/SusuWalletStorage.sol\":534:564  uint256 private primaryKey = 0 */\n  0x01\n  sstore\n    /* \"contracts/base/tableland/SusuWalletStorage.sol\":400:4021  contract SusuWalletStorage is ERC721Holder {... */\n  callvalue\n  dup1\n  iszero\n  tag_1\n  jumpi\n  0x00\n  dup1\n  revert\ntag_1:\n  pop\n  dataSize(sub_0)\n  dup1\n  dataOffset(sub_0)\n  0x00\n  codecopy\n  0x00\n  return\nstop\n\nsub_0: assembly {\n        /* \"contracts/base/tableland/SusuWalletStorage.sol\":400:4021  contract SusuWalletStorage is ERC721Holder {... */\n      mstore(0x40, 0x80)\n      jumpi(tag_1, lt(calldatasize, 0x04))\n      shr(0xe0, calldataload(0x00))\n      dup1\n      0x3e295859\n      gt\n      tag_11\n      jumpi\n      dup1\n      0x3e295859\n      eq\n      tag_6\n      jumpi\n      dup1\n      0x5d5a33a2\n      eq\n      tag_7\n      jumpi\n      dup1\n      0x88e4f1cb\n      eq\n      tag_8\n      jumpi\n      dup1\n      0xb2a4c897\n      eq\n      tag_9\n      jumpi\n      dup1\n      0xe86492b1\n      eq\n      tag_10\n      jumpi\n      jump(tag_1)\n    tag_11:\n      dup1\n      0x04bfc47f\n      eq\n      tag_2\n      jumpi\n      dup1\n      0x150b7a02\n      eq\n      tag_3\n      jumpi\n      dup1\n      0x19129e5a\n      eq\n      tag_4\n      jumpi\n      dup1\n      0x1e2dd199\n      eq\n      tag_5\n      jumpi\n    tag_1:\n      0x00\n      dup1\n      revert\n        /* \"contracts/base/tableland/SusuWalletStorage.sol\":2904:3331  function deleteFromTable(uint256 id) external {... */\n    tag_2:\n      callvalue\n      dup1\n      iszero\n      tag_12\n      jumpi\n      0x00\n      dup1\n      revert\n    tag_12:\n      pop\n      tag_13\n      0x04\n      dup1\n      calldatasize\n      sub\n      dup2\n      add\n      swap1\n      tag_14\n      swap2\n      swap1\n      tag_15\n      jump\t// in\n    tag_14:\n      tag_16\n      jump\t// in\n    tag_13:\n      stop\n        /* \"@openzeppelin/contracts/token/ERC721/utils/ERC721Holder.sol\":639:792  function onERC721Received(address, address, uint256, bytes memory) public virtual returns (bytes4) {... */\n    tag_3:\n      callvalue\n      dup1\n      iszero\n      tag_17\n      jumpi\n      0x00\n      dup1\n      revert\n    tag_17:\n      pop\n      tag_18\n      0x04\n      dup1\n      calldatasize\n      sub\n      dup2\n      add\n      swap1\n      tag_19\n      swap2\n      swap1\n      tag_20\n      jump\t// in\n    tag_19:\n      tag_21\n      jump\t// in\n    tag_18:\n      mload(0x40)\n      tag_22\n      swap2\n      swap1\n      tag_23\n      jump\t// in\n    tag_22:\n      mload(0x40)\n      dup1\n      swap2\n      sub\n      swap1\n      return\n        /* \"contracts/base/tableland/SusuWalletStorage.sol\":3419:3720  function setAccessControl(address controller) external {... */\n    tag_4:\n      callvalue\n      dup1\n      iszero\n      tag_24\n      jumpi\n      0x00\n      dup1\n      revert\n    tag_24:\n      pop\n      tag_25\n      0x04\n      dup1\n      calldatasize\n      sub\n      dup2\n      add\n      swap1\n      tag_26\n      swap2\n      swap1\n      tag_27\n      jump\t// in\n    tag_26:\n      tag_28\n      jump\t// in\n    tag_25:\n      stop\n        /* \"contracts/base/tableland/SusuWalletStorage.sol\":1308:2182  function insertIntoTable( address groupId, address memberAddress, uint256 roundId) external {... */\n    tag_5:\n      callvalue\n      dup1\n      iszero\n      tag_29\n      jumpi\n      0x00\n      dup1\n      revert\n    tag_29:\n      pop\n      tag_30\n      0x04\n      dup1\n      calldatasize\n      sub\n      dup2\n      add\n      swap1\n      tag_31\n      swap2\n      swap1\n      tag_32\n      jump\t// in\n    tag_31:\n      tag_33\n      jump\t// in\n    tag_30:\n      stop\n        /* \"contracts/base/tableland/SusuWalletStorage.sol\":1125:1259  function getAddressString(address m) external pure returns (string memory){... */\n    tag_6:\n      callvalue\n      dup1\n      iszero\n      tag_34\n      jumpi\n      0x00\n      dup1\n      revert\n    tag_34:\n      pop\n      tag_35\n      0x04\n      dup1\n      calldatasize\n      sub\n      dup2\n      add\n      swap1\n      tag_36\n      swap2\n      swap1\n      tag_27\n      jump\t// in\n    tag_36:\n      tag_37\n      jump\t// in\n    tag_35:\n      mload(0x40)\n      tag_38\n      swap2\n      swap1\n      tag_39\n      jump\t// in\n    tag_38:\n      mload(0x40)\n      dup1\n      swap2\n      sub\n      swap1\n      return\n        /* \"contracts/base/tableland/SusuWalletStorage.sol\":3882:4018  function getTableName() external view returns (string memory) {... */\n    tag_7:\n      callvalue\n      dup1\n      iszero\n      tag_40\n      jumpi\n      0x00\n      dup1\n      revert\n    tag_40:\n      pop\n      tag_41\n      tag_42\n      jump\t// in\n    tag_41:\n      mload(0x40)\n      tag_43\n      swap2\n      swap1\n      tag_39\n      jump\t// in\n    tag_43:\n      mload(0x40)\n      dup1\n      swap2\n      sub\n      swap1\n      return\n        /* \"contracts/base/tableland/SusuWalletStorage.sol\":3756:3844  function getTableId() external view returns (uint256) {... */\n    tag_8:\n      callvalue\n      dup1\n      iszero\n      tag_44\n      jumpi\n      0x00\n      dup1\n      revert\n    tag_44:\n      pop\n      tag_45\n      tag_46\n      jump\t// in\n    tag_45:\n      mload(0x40)\n      tag_47\n      swap2\n      swap1\n      tag_48\n      jump\t// in\n    tag_47:\n      mload(0x40)\n      dup1\n      swap2\n      sub\n      swap1\n      return\n        /* \"contracts/base/tableland/SusuWalletStorage.sol\":726:1117  function createTable() public payable {... */\n    tag_9:\n      tag_49\n      tag_50\n      jump\t// in\n    tag_49:\n      stop\n        /* \"contracts/base/tableland/SusuWalletStorage.sol\":2243:2854  function updateTable(uint256 id, address groupId) external {... */\n    tag_10:\n      callvalue\n      dup1\n      iszero\n      tag_51\n      jumpi\n      0x00\n      dup1\n      revert\n    tag_51:\n      pop\n      tag_52\n      0x04\n      dup1\n      calldatasize\n      sub\n      dup2\n      add\n      swap1\n      tag_53\n      swap2\n      swap1\n      tag_54\n      jump\t// in\n    tag_53:\n      tag_55\n      jump\t// in\n    tag_52:\n      stop\n        /* \"contracts/base/tableland/SusuWalletStorage.sol\":2904:3331  function deleteFromTable(uint256 id) external {... */\n    tag_16:\n        /* \"contracts/base/tableland/SusuWalletStorage.sol\":3013:3034  string memory filters */\n      0x00\n        /* \"contracts/base/tableland/SusuWalletStorage.sol\":3085:3105  Strings.toString(id) */\n      tag_57\n        /* \"contracts/base/tableland/SusuWalletStorage.sol\":3102:3104  id */\n      dup3\n        /* \"contracts/base/tableland/SusuWalletStorage.sol\":3085:3101  Strings.toString */\n      tag_58\n        /* \"contracts/base/tableland/SusuWalletStorage.sol\":3085:3105  Strings.toString(id) */\n      jump\t// in\n    tag_57:\n        /* \"contracts/base/tableland/SusuWalletStorage.sol\":3037:3116  string.concat(... */\n      add(0x20, mload(0x40))\n      tag_59\n      swap2\n      swap1\n      tag_60\n      jump\t// in\n    tag_59:\n      mload(0x40)\n      0x20\n      dup2\n      dup4\n      sub\n      sub\n      dup2\n      mstore\n      swap1\n      0x40\n      mstore\n        /* \"contracts/base/tableland/SusuWalletStorage.sol\":3013:3116  string memory filters = string.concat(... */\n      swap1\n      pop\n        /* \"contracts/base/tableland/SusuWalletStorage.sol\":3160:3186  TablelandDeployments.get() */\n      tag_61\n        /* \"contracts/base/tableland/SusuWalletStorage.sol\":3160:3184  TablelandDeployments.get */\n      tag_62\n        /* \"contracts/base/tableland/SusuWalletStorage.sol\":3160:3186  TablelandDeployments.get() */\n      jump\t// in\n    tag_61:\n        /* \"contracts/base/tableland/SusuWalletStorage.sol\":3160:3193  TablelandDeployments.get().mutate */\n      0xffffffffffffffffffffffffffffffffffffffff\n      and\n      0x377af0da\n        /* \"contracts/base/tableland/SusuWalletStorage.sol\":3216:3220  this */\n      address\n        /* \"contracts/base/tableland/SusuWalletStorage.sol\":3236:3244  _tableId */\n      sload(0x00)\n        /* \"contracts/base/tableland/SusuWalletStorage.sol\":3259:3312  SQLHelpers.toDelete(_TABLE_PREFIX, _tableId, filters) */\n      tag_63\n        /* \"contracts/base/tableland/SusuWalletStorage.sol\":3279:3292  _TABLE_PREFIX */\n      mload(0x40)\n      dup1\n      0x40\n      add\n      0x40\n      mstore\n      dup1\n      0x12\n      dup2\n      mstore\n      0x20\n      add\n      0x737573755f77616c6c6574735f7461626c650000000000000000000000000000\n      dup2\n      mstore\n      pop\n        /* \"contracts/base/tableland/SusuWalletStorage.sol\":3294:3302  _tableId */\n      sload(0x00)\n        /* \"contracts/base/tableland/SusuWalletStorage.sol\":3304:3311  filters */\n      dup8\n        /* \"contracts/base/tableland/SusuWalletStorage.sol\":3259:3278  SQLHelpers.toDelete */\n      tag_64\n        /* \"contracts/base/tableland/SusuWalletStorage.sol\":3259:3312  SQLHelpers.toDelete(_TABLE_PREFIX, _tableId, filters) */\n      jump\t// in\n    tag_63:\n        /* \"contracts/base/tableland/SusuWalletStorage.sol\":3160:3323  TablelandDeployments.get().mutate(... */\n      mload(0x40)\n      dup5\n      0xffffffff\n      and\n      0xe0\n      shl\n      dup2\n      mstore\n      0x04\n      add\n      tag_65\n      swap4\n      swap3\n      swap2\n      swap1\n      tag_66\n      jump\t// in\n    tag_65:\n      0x00\n      mload(0x40)\n      dup1\n      dup4\n      sub\n      dup2\n      0x00\n      dup8\n      dup1\n      extcodesize\n      iszero\n      dup1\n      iszero\n      tag_67\n      jumpi\n      0x00\n      dup1\n      revert\n    tag_67:\n      pop\n      gas\n      call\n      iszero\n      dup1\n      iszero\n      tag_69\n      jumpi\n      returndatasize\n      0x00\n      dup1\n      returndatacopy\n      revert(0x00, returndatasize)\n    tag_69:\n      pop\n      pop\n      pop\n      pop\n        /* \"contracts/base/tableland/SusuWalletStorage.sol\":2950:3331  {... */\n      pop\n        /* \"contracts/base/tableland/SusuWalletStorage.sol\":2904:3331  function deleteFromTable(uint256 id) external {... */\n      pop\n      jump\t// out\n        /* \"@openzeppelin/contracts/token/ERC721/utils/ERC721Holder.sol\":639:792  function onERC721Received(address, address, uint256, bytes memory) public virtual returns (bytes4) {... */\n    tag_21:\n        /* \"@openzeppelin/contracts/token/ERC721/utils/ERC721Holder.sol\":730:736  bytes4 */\n      0x00\n        /* \"@openzeppelin/contracts/token/ERC721/utils/ERC721Holder.sol\":755:785  this.onERC721Received.selector */\n      shl(0xe0, 0x150b7a02)\n        /* \"@openzeppelin/contracts/token/ERC721/utils/ERC721Holder.sol\":748:785  return this.onERC721Received.selector */\n      swap1\n      pop\n        /* \"@openzeppelin/contracts/token/ERC721/utils/ERC721Holder.sol\":639:792  function onERC721Received(address, address, uint256, bytes memory) public virtual returns (bytes4) {... */\n      swap5\n      swap4\n      pop\n      pop\n      pop\n      pop\n      jump\t// out\n        /* \"contracts/base/tableland/SusuWalletStorage.sol\":3419:3720  function setAccessControl(address controller) external {... */\n    tag_28:\n        /* \"contracts/base/tableland/SusuWalletStorage.sol\":3485:3511  TablelandDeployments.get() */\n      tag_72\n        /* \"contracts/base/tableland/SusuWalletStorage.sol\":3485:3509  TablelandDeployments.get */\n      tag_62\n        /* \"contracts/base/tableland/SusuWalletStorage.sol\":3485:3511  TablelandDeployments.get() */\n      jump\t// in\n    tag_72:\n        /* \"contracts/base/tableland/SusuWalletStorage.sol\":3485:3525  TablelandDeployments.get().setController */\n      0xffffffffffffffffffffffffffffffffffffffff\n      and\n      0x8bb0ab97\n        /* \"contracts/base/tableland/SusuWalletStorage.sol\":3548:3552  this */\n      address\n        /* \"contracts/base/tableland/SusuWalletStorage.sol\":3604:3612  _tableId */\n      sload(0x00)\n        /* \"contracts/base/tableland/SusuWalletStorage.sol\":3627:3637  controller */\n      dup5\n        /* \"contracts/base/tableland/SusuWalletStorage.sol\":3485:3712  TablelandDeployments.get().setController(... */\n      mload(0x40)\n      dup5\n      0xffffffff\n      and\n      0xe0\n      shl\n      dup2\n      mstore\n      0x04\n      add\n      tag_73\n      swap4\n      swap3\n      swap2\n      swap1\n      tag_74\n      jump\t// in\n    tag_73:\n      0x00\n      mload(0x40)\n      dup1\n      dup4\n      sub\n      dup2\n      0x00\n      dup8\n      dup1\n      extcodesize\n      iszero\n      dup1\n      iszero\n      tag_75\n      jumpi\n      0x00\n      dup1\n      revert\n    tag_75:\n      pop\n      gas\n      call\n      iszero\n      dup1\n      iszero\n      tag_77\n      jumpi\n      returndatasize\n      0x00\n      dup1\n      returndatacopy\n      revert(0x00, returndatasize)\n    tag_77:\n      pop\n      pop\n      pop\n      pop\n        /* \"contracts/base/tableland/SusuWalletStorage.sol\":3419:3720  function setAccessControl(address controller) external {... */\n      pop\n      jump\t// out\n        /* \"contracts/base/tableland/SusuWalletStorage.sol\":1308:2182  function insertIntoTable( address groupId, address memberAddress, uint256 roundId) external {... */\n    tag_33:\n        /* \"contracts/base/tableland/SusuWalletStorage.sol\":1411:1428  string memory adr */\n      0x00\n        /* \"contracts/base/tableland/SusuWalletStorage.sol\":1431:1465  Strings.toHexString(memberAddress) */\n      tag_79\n        /* \"contracts/base/tableland/SusuWalletStorage.sol\":1451:1464  memberAddress */\n      dup4\n        /* \"contracts/base/tableland/SusuWalletStorage.sol\":1431:1450  Strings.toHexString */\n      tag_80\n        /* \"contracts/base/tableland/SusuWalletStorage.sol\":1431:1465  Strings.toHexString(memberAddress) */\n      jump\t// in\n    tag_79:\n        /* \"contracts/base/tableland/SusuWalletStorage.sol\":1411:1465  string memory adr = Strings.toHexString(memberAddress) */\n      swap1\n      pop\n        /* \"contracts/base/tableland/SusuWalletStorage.sol\":1476:1497  string memory groupid */\n      0x00\n        /* \"contracts/base/tableland/SusuWalletStorage.sol\":1500:1528  Strings.toHexString(groupId) */\n      tag_81\n        /* \"contracts/base/tableland/SusuWalletStorage.sol\":1520:1527  groupId */\n      dup6\n        /* \"contracts/base/tableland/SusuWalletStorage.sol\":1500:1519  Strings.toHexString */\n      tag_80\n        /* \"contracts/base/tableland/SusuWalletStorage.sol\":1500:1528  Strings.toHexString(groupId) */\n      jump\t// in\n    tag_81:\n        /* \"contracts/base/tableland/SusuWalletStorage.sol\":1476:1528  string memory groupid = Strings.toHexString(groupId) */\n      swap1\n      pop\n        /* \"contracts/base/tableland/SusuWalletStorage.sol\":1539:1565  TablelandDeployments.get() */\n      tag_82\n        /* \"contracts/base/tableland/SusuWalletStorage.sol\":1539:1563  TablelandDeployments.get */\n      tag_62\n        /* \"contracts/base/tableland/SusuWalletStorage.sol\":1539:1565  TablelandDeployments.get() */\n      jump\t// in\n    tag_82:\n        /* \"contracts/base/tableland/SusuWalletStorage.sol\":1539:1572  TablelandDeployments.get().mutate */\n      0xffffffffffffffffffffffffffffffffffffffff\n      and\n      0x377af0da\n        /* \"contracts/base/tableland/SusuWalletStorage.sol\":1595:1599  this */\n      address\n        /* \"contracts/base/tableland/SusuWalletStorage.sol\":1651:1659  _tableId */\n      sload(0x00)\n        /* \"contracts/base/tableland/SusuWalletStorage.sol\":1674:2163  SQLHelpers.toInsert(... */\n      tag_83\n        /* \"contracts/base/tableland/SusuWalletStorage.sol\":1712:1725  _TABLE_PREFIX */\n      mload(0x40)\n      dup1\n      0x40\n      add\n      0x40\n      mstore\n      dup1\n      0x12\n      dup2\n      mstore\n      0x20\n      add\n      0x737573755f77616c6c6574735f7461626c650000000000000000000000000000\n      dup2\n      mstore\n      pop\n        /* \"contracts/base/tableland/SusuWalletStorage.sol\":1744:1752  _tableId */\n      sload(0x00)\n        /* \"contracts/base/tableland/SusuWalletStorage.sol\":1674:2163  SQLHelpers.toInsert(... */\n      mload(0x40)\n      dup1\n      0x40\n      add\n      0x40\n      mstore\n      dup1\n      0x1d\n      dup2\n      mstore\n      0x20\n      add\n      0x69642c2067726f757049642c20616464726573732c20726f756e644964000000\n      dup2\n      mstore\n      pop\n        /* \"contracts/base/tableland/SusuWalletStorage.sol\":1857:1887  Strings.toString(primaryKey++) */\n      tag_84\n        /* \"contracts/base/tableland/SusuWalletStorage.sol\":1874:1884  primaryKey */\n      0x01\n      0x00\n        /* \"contracts/base/tableland/SusuWalletStorage.sol\":1874:1886  primaryKey++ */\n      dup2\n      sload\n      dup1\n      swap3\n      swap2\n      swap1\n      tag_85\n      swap1\n      tag_86\n      jump\t// in\n    tag_85:\n      swap2\n      swap1\n      pop\n      sstore\n        /* \"contracts/base/tableland/SusuWalletStorage.sol\":1857:1873  Strings.toString */\n      tag_58\n        /* \"contracts/base/tableland/SusuWalletStorage.sol\":1857:1887  Strings.toString(primaryKey++) */\n      jump\t// in\n    tag_84:\n        /* \"contracts/base/tableland/SusuWalletStorage.sol\":1959:1984  SQLHelpers.quote(groupid) */\n      tag_87\n        /* \"contracts/base/tableland/SusuWalletStorage.sol\":1976:1983  groupid */\n      dup11\n        /* \"contracts/base/tableland/SusuWalletStorage.sol\":1959:1975  SQLHelpers.quote */\n      tag_88\n        /* \"contracts/base/tableland/SusuWalletStorage.sol\":1959:1984  SQLHelpers.quote(groupid) */\n      jump\t// in\n    tag_87:\n        /* \"contracts/base/tableland/SusuWalletStorage.sol\":2034:2055  SQLHelpers.quote(adr) */\n      tag_89\n        /* \"contracts/base/tableland/SusuWalletStorage.sol\":2051:2054  adr */\n      dup13\n        /* \"contracts/base/tableland/SusuWalletStorage.sol\":2034:2050  SQLHelpers.quote */\n      tag_88\n        /* \"contracts/base/tableland/SusuWalletStorage.sol\":2034:2055  SQLHelpers.quote(adr) */\n      jump\t// in\n    tag_89:\n        /* \"contracts/base/tableland/SusuWalletStorage.sol\":2104:2129  Strings.toString(roundId) */\n      tag_90\n        /* \"contracts/base/tableland/SusuWalletStorage.sol\":2121:2128  roundId */\n      dup15\n        /* \"contracts/base/tableland/SusuWalletStorage.sol\":2104:2120  Strings.toString */\n      tag_58\n        /* \"contracts/base/tableland/SusuWalletStorage.sol\":2104:2129  Strings.toString(roundId) */\n      jump\t// in\n    tag_90:\n        /* \"contracts/base/tableland/SusuWalletStorage.sol\":1821:2148  string.concat(... */\n      add(0x20, mload(0x40))\n      tag_91\n      swap5\n      swap4\n      swap3\n      swap2\n      swap1\n      tag_92\n      jump\t// in\n    tag_91:\n      mload(0x40)\n      0x20\n      dup2\n      dup4\n      sub\n      sub\n      dup2\n      mstore\n      swap1\n      0x40\n      mstore\n        /* \"contracts/base/tableland/SusuWalletStorage.sol\":1674:1693  SQLHelpers.toInsert */\n      tag_93\n        /* \"contracts/base/tableland/SusuWalletStorage.sol\":1674:2163  SQLHelpers.toInsert(... */\n      jump\t// in\n    tag_83:\n        /* \"contracts/base/tableland/SusuWalletStorage.sol\":1539:2174  TablelandDeployments.get().mutate(... */\n      mload(0x40)\n      dup5\n      0xffffffff\n      and\n      0xe0\n      shl\n      dup2\n      mstore\n      0x04\n      add\n      tag_94\n      swap4\n      swap3\n      swap2\n      swap1\n      tag_66\n      jump\t// in\n    tag_94:\n      0x00\n      mload(0x40)\n      dup1\n      dup4\n      sub\n      dup2\n      0x00\n      dup8\n      dup1\n      extcodesize\n      iszero\n      dup1\n      iszero\n      tag_95\n      jumpi\n      0x00\n      dup1\n      revert\n    tag_95:\n      pop\n      gas\n      call\n      iszero\n      dup1\n      iszero\n      tag_97\n      jumpi\n      returndatasize\n      0x00\n      dup1\n      returndatacopy\n      revert(0x00, returndatasize)\n    tag_97:\n      pop\n      pop\n      pop\n      pop\n        /* \"contracts/base/tableland/SusuWalletStorage.sol\":1400:2182  {... */\n      pop\n      pop\n        /* \"contracts/base/tableland/SusuWalletStorage.sol\":1308:2182  function insertIntoTable( address groupId, address memberAddress, uint256 roundId) external {... */\n      pop\n      pop\n      pop\n      jump\t// out\n        /* \"contracts/base/tableland/SusuWalletStorage.sol\":1125:1259  function getAddressString(address m) external pure returns (string memory){... */\n    tag_37:\n        /* \"contracts/base/tableland/SusuWalletStorage.sol\":1185:1198  string memory */\n      0x60\n        /* \"contracts/base/tableland/SusuWalletStorage.sol\":1217:1251  Strings.toHexString(uint160(m),20) */\n      tag_99\n        /* \"contracts/base/tableland/SusuWalletStorage.sol\":1245:1246  m */\n      dup3\n        /* \"contracts/base/tableland/SusuWalletStorage.sol\":1217:1251  Strings.toHexString(uint160(m),20) */\n      0xffffffffffffffffffffffffffffffffffffffff\n      and\n        /* \"contracts/base/tableland/SusuWalletStorage.sol\":1248:1250  20 */\n      0x14\n        /* \"contracts/base/tableland/SusuWalletStorage.sol\":1217:1236  Strings.toHexString */\n      tag_100\n        /* \"contracts/base/tableland/SusuWalletStorage.sol\":1217:1251  Strings.toHexString(uint160(m),20) */\n      jump\t// in\n    tag_99:\n        /* \"contracts/base/tableland/SusuWalletStorage.sol\":1210:1251  return Strings.toHexString(uint160(m),20) */\n      swap1\n      pop\n        /* \"contracts/base/tableland/SusuWalletStorage.sol\":1125:1259  function getAddressString(address m) external pure returns (string memory){... */\n      swap2\n      swap1\n      pop\n      jump\t// out\n        /* \"contracts/base/tableland/SusuWalletStorage.sol\":3882:4018  function getTableName() external view returns (string memory) {... */\n    tag_42:\n        /* \"contracts/base/tableland/SusuWalletStorage.sol\":3929:3942  string memory */\n      0x60\n        /* \"contracts/base/tableland/SusuWalletStorage.sol\":3962:4010  SQLHelpers.toNameFromId(_TABLE_PREFIX, _tableId) */\n      tag_102\n        /* \"contracts/base/tableland/SusuWalletStorage.sol\":3986:3999  _TABLE_PREFIX */\n      mload(0x40)\n      dup1\n      0x40\n      add\n      0x40\n      mstore\n      dup1\n      0x12\n      dup2\n      mstore\n      0x20\n      add\n      0x737573755f77616c6c6574735f7461626c650000000000000000000000000000\n      dup2\n      mstore\n      pop\n        /* \"contracts/base/tableland/SusuWalletStorage.sol\":4001:4009  _tableId */\n      sload(0x00)\n        /* \"contracts/base/tableland/SusuWalletStorage.sol\":3962:3985  SQLHelpers.toNameFromId */\n      tag_103\n        /* \"contracts/base/tableland/SusuWalletStorage.sol\":3962:4010  SQLHelpers.toNameFromId(_TABLE_PREFIX, _tableId) */\n      jump\t// in\n    tag_102:\n        /* \"contracts/base/tableland/SusuWalletStorage.sol\":3955:4010  return SQLHelpers.toNameFromId(_TABLE_PREFIX, _tableId) */\n      swap1\n      pop\n        /* \"contracts/base/tableland/SusuWalletStorage.sol\":3882:4018  function getTableName() external view returns (string memory) {... */\n      swap1\n      jump\t// out\n        /* \"contracts/base/tableland/SusuWalletStorage.sol\":3756:3844  function getTableId() external view returns (uint256) {... */\n    tag_46:\n        /* \"contracts/base/tableland/SusuWalletStorage.sol\":3801:3808  uint256 */\n      0x00\n        /* \"contracts/base/tableland/SusuWalletStorage.sol\":3828:3836  _tableId */\n      dup1\n      sload\n        /* \"contracts/base/tableland/SusuWalletStorage.sol\":3821:3836  return _tableId */\n      swap1\n      pop\n        /* \"contracts/base/tableland/SusuWalletStorage.sol\":3756:3844  function getTableId() external view returns (uint256) {... */\n      swap1\n      jump\t// out\n        /* \"contracts/base/tableland/SusuWalletStorage.sol\":726:1117  function createTable() public payable {... */\n    tag_50:\n        /* \"contracts/base/tableland/SusuWalletStorage.sol\":784:810  TablelandDeployments.get() */\n      tag_106\n        /* \"contracts/base/tableland/SusuWalletStorage.sol\":784:808  TablelandDeployments.get */\n      tag_62\n        /* \"contracts/base/tableland/SusuWalletStorage.sol\":784:810  TablelandDeployments.get() */\n      jump\t// in\n    tag_106:\n        /* \"contracts/base/tableland/SusuWalletStorage.sol\":784:817  TablelandDeployments.get().create */\n      0xffffffffffffffffffffffffffffffffffffffff\n      and\n      0xa15ab08d\n        /* \"contracts/base/tableland/SusuWalletStorage.sol\":840:844  this */\n      address\n        /* \"contracts/base/tableland/SusuWalletStorage.sol\":860:1098  SQLHelpers.toCreateFromSchema(... */\n      tag_107\n      mload(0x40)\n      dup1\n      0x60\n      add\n      0x40\n      mstore\n      dup1\n      0x3e\n      dup2\n      mstore\n      0x20\n      add\n      data_f58390e20d8c36fa8ca709a923eb4bfed4e6297f3e0854781abb2ace9419018b\n      0x3e\n      swap2\n      codecopy\n        /* \"contracts/base/tableland/SusuWalletStorage.sol\":1070:1083  _TABLE_PREFIX */\n      mload(0x40)\n      dup1\n      0x40\n      add\n      0x40\n      mstore\n      dup1\n      0x12\n      dup2\n      mstore\n      0x20\n      add\n      0x737573755f77616c6c6574735f7461626c650000000000000000000000000000\n      dup2\n      mstore\n      pop\n        /* \"contracts/base/tableland/SusuWalletStorage.sol\":860:889  SQLHelpers.toCreateFromSchema */\n      tag_108\n        /* \"contracts/base/tableland/SusuWalletStorage.sol\":860:1098  SQLHelpers.toCreateFromSchema(... */\n      jump\t// in\n    tag_107:\n        /* \"contracts/base/tableland/SusuWalletStorage.sol\":784:1109  TablelandDeployments.get().create(... */\n      mload(0x40)\n      dup4\n      0xffffffff\n      and\n      0xe0\n      shl\n      dup2\n      mstore\n      0x04\n      add\n      tag_109\n      swap3\n      swap2\n      swap1\n      tag_110\n      jump\t// in\n    tag_109:\n      0x20\n      mload(0x40)\n      dup1\n      dup4\n      sub\n      dup2\n      0x00\n      dup8\n      gas\n      call\n      iszero\n      dup1\n      iszero\n      tag_112\n      jumpi\n      returndatasize\n      0x00\n      dup1\n      returndatacopy\n      revert(0x00, returndatasize)\n    tag_112:\n      pop\n      pop\n      pop\n      pop\n      mload(0x40)\n      returndatasize\n      not(0x1f)\n      0x1f\n      dup3\n      add\n      and\n      dup3\n      add\n      dup1\n      0x40\n      mstore\n      pop\n      dup2\n      add\n      swap1\n      tag_113\n      swap2\n      swap1\n      tag_114\n      jump\t// in\n    tag_113:\n        /* \"contracts/base/tableland/SusuWalletStorage.sol\":773:781  _tableId */\n      0x00\n        /* \"contracts/base/tableland/SusuWalletStorage.sol\":773:1109  _tableId = TablelandDeployments.get().create(... */\n      dup2\n      swap1\n      sstore\n      pop\n        /* \"contracts/base/tableland/SusuWalletStorage.sol\":726:1117  function createTable() public payable {... */\n      jump\t// out\n        /* \"contracts/base/tableland/SusuWalletStorage.sol\":2243:2854  function updateTable(uint256 id, address groupId) external {... */\n    tag_55:\n        /* \"contracts/base/tableland/SusuWalletStorage.sol\":2350:2371  string memory setters */\n      0x00\n        /* \"contracts/base/tableland/SusuWalletStorage.sol\":2400:2446  SQLHelpers.quote(Strings.toHexString(groupId)) */\n      tag_116\n        /* \"contracts/base/tableland/SusuWalletStorage.sol\":2417:2445  Strings.toHexString(groupId) */\n      tag_117\n        /* \"contracts/base/tableland/SusuWalletStorage.sol\":2437:2444  groupId */\n      dup4\n        /* \"contracts/base/tableland/SusuWalletStorage.sol\":2417:2436  Strings.toHexString */\n      tag_80\n        /* \"contracts/base/tableland/SusuWalletStorage.sol\":2417:2445  Strings.toHexString(groupId) */\n      jump\t// in\n    tag_117:\n        /* \"contracts/base/tableland/SusuWalletStorage.sol\":2400:2416  SQLHelpers.quote */\n      tag_88\n        /* \"contracts/base/tableland/SusuWalletStorage.sol\":2400:2446  SQLHelpers.quote(Strings.toHexString(groupId)) */\n      jump\t// in\n    tag_116:\n        /* \"contracts/base/tableland/SusuWalletStorage.sol\":2374:2447  string.concat(\"groupId=\", SQLHelpers.quote(Strings.toHexString(groupId))) */\n      add(0x20, mload(0x40))\n      tag_118\n      swap2\n      swap1\n      tag_119\n      jump\t// in\n    tag_118:\n      mload(0x40)\n      0x20\n      dup2\n      dup4\n      sub\n      sub\n      dup2\n      mstore\n      swap1\n      0x40\n      mstore\n        /* \"contracts/base/tableland/SusuWalletStorage.sol\":2350:2447  string memory setters = string.concat(\"groupId=\", SQLHelpers.quote(Strings.toHexString(groupId))) */\n      swap1\n      pop\n        /* \"contracts/base/tableland/SusuWalletStorage.sol\":2510:2531  string memory filters */\n      0x00\n        /* \"contracts/base/tableland/SusuWalletStorage.sol\":2582:2602  Strings.toString(id) */\n      tag_120\n        /* \"contracts/base/tableland/SusuWalletStorage.sol\":2599:2601  id */\n      dup5\n        /* \"contracts/base/tableland/SusuWalletStorage.sol\":2582:2598  Strings.toString */\n      tag_58\n        /* \"contracts/base/tableland/SusuWalletStorage.sol\":2582:2602  Strings.toString(id) */\n      jump\t// in\n    tag_120:\n        /* \"contracts/base/tableland/SusuWalletStorage.sol\":2534:2613  string.concat(... */\n      add(0x20, mload(0x40))\n      tag_121\n      swap2\n      swap1\n      tag_60\n      jump\t// in\n    tag_121:\n      mload(0x40)\n      0x20\n      dup2\n      dup4\n      sub\n      sub\n      dup2\n      mstore\n      swap1\n      0x40\n      mstore\n        /* \"contracts/base/tableland/SusuWalletStorage.sol\":2510:2613  string memory filters = string.concat(... */\n      swap1\n      pop\n        /* \"contracts/base/tableland/SusuWalletStorage.sol\":2674:2700  TablelandDeployments.get() */\n      tag_122\n        /* \"contracts/base/tableland/SusuWalletStorage.sol\":2674:2698  TablelandDeployments.get */\n      tag_62\n        /* \"contracts/base/tableland/SusuWalletStorage.sol\":2674:2700  TablelandDeployments.get() */\n      jump\t// in\n    tag_122:\n        /* \"contracts/base/tableland/SusuWalletStorage.sol\":2674:2707  TablelandDeployments.get().mutate */\n      0xffffffffffffffffffffffffffffffffffffffff\n      and\n      0x377af0da\n        /* \"contracts/base/tableland/SusuWalletStorage.sol\":2730:2734  this */\n      address\n        /* \"contracts/base/tableland/SusuWalletStorage.sol\":2750:2758  _tableId */\n      sload(0x00)\n        /* \"contracts/base/tableland/SusuWalletStorage.sol\":2773:2835  SQLHelpers.toUpdate(_TABLE_PREFIX, _tableId, setters, filters) */\n      tag_123\n        /* \"contracts/base/tableland/SusuWalletStorage.sol\":2793:2806  _TABLE_PREFIX */\n      mload(0x40)\n      dup1\n      0x40\n      add\n      0x40\n      mstore\n      dup1\n      0x12\n      dup2\n      mstore\n      0x20\n      add\n      0x737573755f77616c6c6574735f7461626c650000000000000000000000000000\n      dup2\n      mstore\n      pop\n        /* \"contracts/base/tableland/SusuWalletStorage.sol\":2808:2816  _tableId */\n      sload(0x00)\n        /* \"contracts/base/tableland/SusuWalletStorage.sol\":2818:2825  setters */\n      dup9\n        /* \"contracts/base/tableland/SusuWalletStorage.sol\":2827:2834  filters */\n      dup9\n        /* \"contracts/base/tableland/SusuWalletStorage.sol\":2773:2792  SQLHelpers.toUpdate */\n      tag_124\n        /* \"contracts/base/tableland/SusuWalletStorage.sol\":2773:2835  SQLHelpers.toUpdate(_TABLE_PREFIX, _tableId, setters, filters) */\n      jump\t// in\n    tag_123:\n        /* \"contracts/base/tableland/SusuWalletStorage.sol\":2674:2846  TablelandDeployments.get().mutate(... */\n      mload(0x40)\n      dup5\n      0xffffffff\n      and\n      0xe0\n      shl\n      dup2\n      mstore\n      0x04\n      add\n      tag_125\n      swap4\n      swap3\n      swap2\n      swap1\n      tag_66\n      jump\t// in\n    tag_125:\n      0x00\n      mload(0x40)\n      dup1\n      dup4\n      sub\n      dup2\n      0x00\n      dup8\n      dup1\n      extcodesize\n      iszero\n      dup1\n      iszero\n      tag_126\n      jumpi\n      0x00\n      dup1\n      revert\n    tag_126:\n      pop\n      gas\n      call\n      iszero\n      dup1\n      iszero\n      tag_128\n      jumpi\n      returndatasize\n      0x00\n      dup1\n      returndatacopy\n      revert(0x00, returndatasize)\n    tag_128:\n      pop\n      pop\n      pop\n      pop\n        /* \"contracts/base/tableland/SusuWalletStorage.sol\":2302:2854  {... */\n      pop\n      pop\n        /* \"contracts/base/tableland/SusuWalletStorage.sol\":2243:2854  function updateTable(uint256 id, address groupId) external {... */\n      pop\n      pop\n      jump\t// out\n        /* \"@openzeppelin/contracts/utils/Strings.sol\":637:1335  function toString(uint256 value) internal pure returns (string memory) {... */\n    tag_58:\n        /* \"@openzeppelin/contracts/utils/Strings.sol\":693:706  string memory */\n      0x60\n        /* \"@openzeppelin/contracts/utils/Strings.sol\":742:756  uint256 length */\n      0x00\n        /* \"@openzeppelin/contracts/utils/Strings.sol\":779:780  1 */\n      0x01\n        /* \"@openzeppelin/contracts/utils/Strings.sol\":759:776  Math.log10(value) */\n      tag_130\n        /* \"@openzeppelin/contracts/utils/Strings.sol\":770:775  value */\n      dup5\n        /* \"@openzeppelin/contracts/utils/Strings.sol\":759:769  Math.log10 */\n      tag_131\n        /* \"@openzeppelin/contracts/utils/Strings.sol\":759:776  Math.log10(value) */\n      jump\t// in\n    tag_130:\n        /* \"@openzeppelin/contracts/utils/Strings.sol\":759:780  Math.log10(value) + 1 */\n      add\n        /* \"@openzeppelin/contracts/utils/Strings.sol\":742:780  uint256 length = Math.log10(value) + 1 */\n      swap1\n      pop\n        /* \"@openzeppelin/contracts/utils/Strings.sol\":794:814  string memory buffer */\n      0x00\n        /* \"@openzeppelin/contracts/utils/Strings.sol\":828:834  length */\n      dup2\n        /* \"@openzeppelin/contracts/utils/Strings.sol\":817:835  new string(length) */\n      0xffffffffffffffff\n      dup2\n      gt\n      iszero\n      tag_132\n      jumpi\n      tag_133\n      tag_134\n      jump\t// in\n    tag_133:\n    tag_132:\n      mload(0x40)\n      swap1\n      dup1\n      dup3\n      mstore\n      dup1\n      0x1f\n      add\n      not(0x1f)\n      and\n      0x20\n      add\n      dup3\n      add\n      0x40\n      mstore\n      dup1\n      iszero\n      tag_135\n      jumpi\n      dup2\n      0x20\n      add\n      0x01\n      dup3\n      mul\n      dup1\n      calldatasize\n      dup4\n      calldatacopy\n      dup1\n      dup3\n      add\n      swap2\n      pop\n      pop\n      swap1\n      pop\n    tag_135:\n      pop\n        /* \"@openzeppelin/contracts/utils/Strings.sol\":794:835  string memory buffer = new string(length) */\n      swap1\n      pop\n        /* \"@openzeppelin/contracts/utils/Strings.sol\":849:860  uint256 ptr */\n      0x00\n        /* \"@openzeppelin/contracts/utils/Strings.sol\":975:981  length */\n      dup3\n        /* \"@openzeppelin/contracts/utils/Strings.sol\":971:973  32 */\n      0x20\n        /* \"@openzeppelin/contracts/utils/Strings.sol\":967:982  add(32, length) */\n      add\n        /* \"@openzeppelin/contracts/utils/Strings.sol\":959:965  buffer */\n      dup3\n        /* \"@openzeppelin/contracts/utils/Strings.sol\":955:983  add(buffer, add(32, length)) */\n      add\n        /* \"@openzeppelin/contracts/utils/Strings.sol\":948:983  ptr := add(buffer, add(32, length)) */\n      swap1\n      pop\n        /* \"@openzeppelin/contracts/utils/Strings.sol\":1010:1292  while (true) {... */\n    tag_136:\n        /* \"@openzeppelin/contracts/utils/Strings.sol\":1017:1021  true */\n      0x01\n        /* \"@openzeppelin/contracts/utils/Strings.sol\":1010:1292  while (true) {... */\n      iszero\n      tag_137\n      jumpi\n        /* \"@openzeppelin/contracts/utils/Strings.sol\":1041:1046  ptr-- */\n      dup1\n      dup1\n      0x01\n      swap1\n      sub\n      swap2\n      pop\n      pop\n        /* \"@openzeppelin/contracts/utils/Strings.sol\":1180:1190  HEX_DIGITS */\n      0x3031323334353637383961626364656600000000000000000000000000000000\n        /* \"@openzeppelin/contracts/utils/Strings.sol\":1175:1177  10 */\n      0x0a\n        /* \"@openzeppelin/contracts/utils/Strings.sol\":1168:1173  value */\n      dup7\n        /* \"@openzeppelin/contracts/utils/Strings.sol\":1164:1178  mod(value, 10) */\n      mod\n        /* \"@openzeppelin/contracts/utils/Strings.sol\":1159:1191  byte(mod(value, 10), HEX_DIGITS) */\n      byte\n        /* \"@openzeppelin/contracts/utils/Strings.sol\":1154:1157  ptr */\n      dup2\n        /* \"@openzeppelin/contracts/utils/Strings.sol\":1146:1192  mstore8(ptr, byte(mod(value, 10), HEX_DIGITS)) */\n      mstore8\n        /* \"@openzeppelin/contracts/utils/Strings.sol\":1236:1238  10 */\n      0x0a\n        /* \"@openzeppelin/contracts/utils/Strings.sol\":1227:1238  value /= 10 */\n      dup6\n      dup2\n      tag_138\n      jumpi\n      tag_139\n      tag_140\n      jump\t// in\n    tag_139:\n    tag_138:\n      div\n      swap5\n      pop\n        /* \"@openzeppelin/contracts/utils/Strings.sol\":1269:1270  0 */\n      0x00\n        /* \"@openzeppelin/contracts/utils/Strings.sol\":1260:1265  value */\n      dup6\n        /* \"@openzeppelin/contracts/utils/Strings.sol\":1260:1270  value == 0 */\n      sub\n        /* \"@openzeppelin/contracts/utils/Strings.sol\":1010:1292  while (true) {... */\n      tag_136\n        /* \"@openzeppelin/contracts/utils/Strings.sol\":1256:1277  if (value == 0) break */\n      jumpi\n        /* \"@openzeppelin/contracts/utils/Strings.sol\":1010:1292  while (true) {... */\n    tag_137:\n        /* \"@openzeppelin/contracts/utils/Strings.sol\":1312:1318  buffer */\n      dup2\n        /* \"@openzeppelin/contracts/utils/Strings.sol\":1305:1318  return buffer */\n      swap4\n      pop\n      pop\n      pop\n      pop\n        /* \"@openzeppelin/contracts/utils/Strings.sol\":637:1335  function toString(uint256 value) internal pure returns (string memory) {... */\n      swap2\n      swap1\n      pop\n      jump\t// out\n        /* \"@tableland/evm/contracts/utils/TablelandDeployments.sol\":2908:4324  function get() internal view returns (TablelandTablesImpl) {... */\n    tag_62:\n        /* \"@tableland/evm/contracts/utils/TablelandDeployments.sol\":2946:2965  TablelandTablesImpl */\n      0x00\n        /* \"@tableland/evm/contracts/utils/TablelandDeployments.sol\":2998:2999  1 */\n      0x01\n        /* \"@tableland/evm/contracts/utils/TablelandDeployments.sol\":2981:2994  block.chainid */\n      chainid\n        /* \"@tableland/evm/contracts/utils/TablelandDeployments.sol\":2981:2999  block.chainid == 1 */\n      sub\n        /* \"@tableland/evm/contracts/utils/TablelandDeployments.sol\":2977:4318  if (block.chainid == 1) {... */\n      tag_143\n      jumpi\n        /* \"@tableland/evm/contracts/utils/TablelandDeployments.sol\":667:709  0x012969f7e3439a9B04025b5a049EB9BAD82A8C12 */\n      0x012969f7e3439a9b04025b5a049eb9bad82a8c12\n        /* \"@tableland/evm/contracts/utils/TablelandDeployments.sol\":3015:3050  return TablelandTablesImpl(MAINNET) */\n      swap1\n      pop\n      jump(tag_142)\n        /* \"@tableland/evm/contracts/utils/TablelandDeployments.sol\":2977:4318  if (block.chainid == 1) {... */\n    tag_143:\n        /* \"@tableland/evm/contracts/utils/TablelandDeployments.sol\":3088:3090  10 */\n      0x0a\n        /* \"@tableland/evm/contracts/utils/TablelandDeployments.sol\":3071:3084  block.chainid */\n      chainid\n        /* \"@tableland/evm/contracts/utils/TablelandDeployments.sol\":3071:3090  block.chainid == 10 */\n      sub\n        /* \"@tableland/evm/contracts/utils/TablelandDeployments.sol\":3067:4318  if (block.chainid == 10) {... */\n      tag_145\n      jumpi\n        /* \"@tableland/evm/contracts/utils/TablelandDeployments.sol\":899:941  0xfad44BF5B843dE943a09D4f3E84949A11d3aa3e6 */\n      0xfad44bf5b843de943a09d4f3e84949a11d3aa3e6\n        /* \"@tableland/evm/contracts/utils/TablelandDeployments.sol\":3106:3142  return TablelandTablesImpl(OPTIMISM) */\n      swap1\n      pop\n      jump(tag_142)\n        /* \"@tableland/evm/contracts/utils/TablelandDeployments.sol\":3067:4318  if (block.chainid == 10) {... */\n    tag_145:\n        /* \"@tableland/evm/contracts/utils/TablelandDeployments.sol\":3180:3185  42161 */\n      0xa4b1\n        /* \"@tableland/evm/contracts/utils/TablelandDeployments.sol\":3163:3176  block.chainid */\n      chainid\n        /* \"@tableland/evm/contracts/utils/TablelandDeployments.sol\":3163:3185  block.chainid == 42161 */\n      sub\n        /* \"@tableland/evm/contracts/utils/TablelandDeployments.sol\":3159:4318  if (block.chainid == 42161) {... */\n      tag_147\n      jumpi\n        /* \"@tableland/evm/contracts/utils/TablelandDeployments.sol\":1040:1082  0x9aBd75E8640871A5a20d3B4eE6330a04c962aFfd */\n      0x9abd75e8640871a5a20d3b4ee6330a04c962affd\n        /* \"@tableland/evm/contracts/utils/TablelandDeployments.sol\":3201:3237  return TablelandTablesImpl(ARBITRUM) */\n      swap1\n      pop\n      jump(tag_142)\n        /* \"@tableland/evm/contracts/utils/TablelandDeployments.sol\":3159:4318  if (block.chainid == 42161) {... */\n    tag_147:\n        /* \"@tableland/evm/contracts/utils/TablelandDeployments.sol\":3275:3280  42170 */\n      0xa4ba\n        /* \"@tableland/evm/contracts/utils/TablelandDeployments.sol\":3258:3271  block.chainid */\n      chainid\n        /* \"@tableland/evm/contracts/utils/TablelandDeployments.sol\":3258:3280  block.chainid == 42170 */\n      sub\n        /* \"@tableland/evm/contracts/utils/TablelandDeployments.sol\":3254:4318  if (block.chainid == 42170) {... */\n      tag_149\n      jumpi\n        /* \"@tableland/evm/contracts/utils/TablelandDeployments.sol\":1187:1229  0x1A22854c5b1642760a827f20137a67930AE108d2 */\n      0x1a22854c5b1642760a827f20137a67930ae108d2\n        /* \"@tableland/evm/contracts/utils/TablelandDeployments.sol\":3296:3337  return TablelandTablesImpl(ARBITRUM_NOVA) */\n      swap1\n      pop\n      jump(tag_142)\n        /* \"@tableland/evm/contracts/utils/TablelandDeployments.sol\":3254:4318  if (block.chainid == 42170) {... */\n    tag_149:\n        /* \"@tableland/evm/contracts/utils/TablelandDeployments.sol\":3375:3378  137 */\n      0x89\n        /* \"@tableland/evm/contracts/utils/TablelandDeployments.sol\":3358:3371  block.chainid */\n      chainid\n        /* \"@tableland/evm/contracts/utils/TablelandDeployments.sol\":3358:3378  block.chainid == 137 */\n      sub\n        /* \"@tableland/evm/contracts/utils/TablelandDeployments.sol\":3354:4318  if (block.chainid == 137) {... */\n      tag_151\n      jumpi\n        /* \"@tableland/evm/contracts/utils/TablelandDeployments.sol\":1322:1364  0x5c4e6A9e5C1e1BF445A062006faF19EA6c49aFeA */\n      0x5c4e6a9e5c1e1bf445a062006faf19ea6c49afea\n        /* \"@tableland/evm/contracts/utils/TablelandDeployments.sol\":3394:3429  return TablelandTablesImpl(POLYGON) */\n      swap1\n      pop\n      jump(tag_142)\n        /* \"@tableland/evm/contracts/utils/TablelandDeployments.sol\":3354:4318  if (block.chainid == 137) {... */\n    tag_151:\n        /* \"@tableland/evm/contracts/utils/TablelandDeployments.sol\":3467:3470  314 */\n      0x013a\n        /* \"@tableland/evm/contracts/utils/TablelandDeployments.sol\":3450:3463  block.chainid */\n      chainid\n        /* \"@tableland/evm/contracts/utils/TablelandDeployments.sol\":3450:3470  block.chainid == 314 */\n      sub\n        /* \"@tableland/evm/contracts/utils/TablelandDeployments.sol\":3446:4318  if (block.chainid == 314) {... */\n      tag_153\n      jumpi\n        /* \"@tableland/evm/contracts/utils/TablelandDeployments.sol\":1459:1501  0x59EF8Bf2d6c102B4c42AEf9189e1a9F0ABfD652d */\n      0x59ef8bf2d6c102b4c42aef9189e1a9f0abfd652d\n        /* \"@tableland/evm/contracts/utils/TablelandDeployments.sol\":3486:3522  return TablelandTablesImpl(FILECOIN) */\n      swap1\n      pop\n      jump(tag_142)\n        /* \"@tableland/evm/contracts/utils/TablelandDeployments.sol\":3446:4318  if (block.chainid == 314) {... */\n    tag_153:\n        /* \"@tableland/evm/contracts/utils/TablelandDeployments.sol\":3560:3568  11155111 */\n      0xaa36a7\n        /* \"@tableland/evm/contracts/utils/TablelandDeployments.sol\":3543:3556  block.chainid */\n      chainid\n        /* \"@tableland/evm/contracts/utils/TablelandDeployments.sol\":3543:3568  block.chainid == 11155111 */\n      sub\n        /* \"@tableland/evm/contracts/utils/TablelandDeployments.sol\":3539:4318  if (block.chainid == 11155111) {... */\n      tag_155\n      jumpi\n        /* \"@tableland/evm/contracts/utils/TablelandDeployments.sol\":1604:1646  0xc50C62498448ACc8dBdE43DA77f8D5D2E2c7597D */\n      0xc50c62498448acc8dbde43da77f8d5d2e2c7597d\n        /* \"@tableland/evm/contracts/utils/TablelandDeployments.sol\":3584:3619  return TablelandTablesImpl(SEPOLIA) */\n      swap1\n      pop\n      jump(tag_142)\n        /* \"@tableland/evm/contracts/utils/TablelandDeployments.sol\":3539:4318  if (block.chainid == 11155111) {... */\n    tag_155:\n        /* \"@tableland/evm/contracts/utils/TablelandDeployments.sol\":3657:3665  11155420 */\n      0xaa37dc\n        /* \"@tableland/evm/contracts/utils/TablelandDeployments.sol\":3640:3653  block.chainid */\n      chainid\n        /* \"@tableland/evm/contracts/utils/TablelandDeployments.sol\":3640:3665  block.chainid == 11155420 */\n      sub\n        /* \"@tableland/evm/contracts/utils/TablelandDeployments.sol\":3636:4318  if (block.chainid == 11155420) {... */\n      tag_157\n      jumpi\n        /* \"@tableland/evm/contracts/utils/TablelandDeployments.sol\":1757:1799  0x68A2f4423ad3bf5139Db563CF3bC80aA09ed7079 */\n      0x68a2f4423ad3bf5139db563cf3bc80aa09ed7079\n        /* \"@tableland/evm/contracts/utils/TablelandDeployments.sol\":3681:3725  return TablelandTablesImpl(OPTIMISM_SEPOLIA) */\n      swap1\n      pop\n      jump(tag_142)\n        /* \"@tableland/evm/contracts/utils/TablelandDeployments.sol\":3636:4318  if (block.chainid == 11155420) {... */\n    tag_157:\n        /* \"@tableland/evm/contracts/utils/TablelandDeployments.sol\":3763:3769  421614 */\n      0x066eee\n        /* \"@tableland/evm/contracts/utils/TablelandDeployments.sol\":3746:3759  block.chainid */\n      chainid\n        /* \"@tableland/evm/contracts/utils/TablelandDeployments.sol\":3746:3769  block.chainid == 421614 */\n      sub\n        /* \"@tableland/evm/contracts/utils/TablelandDeployments.sol\":3742:4318  if (block.chainid == 421614) {... */\n      tag_159\n      jumpi\n        /* \"@tableland/evm/contracts/utils/TablelandDeployments.sol\":1910:1952  0x223A74B8323914afDC3ff1e5005564dC17231d6e */\n      0x223a74b8323914afdc3ff1e5005564dc17231d6e\n        /* \"@tableland/evm/contracts/utils/TablelandDeployments.sol\":3785:3829  return TablelandTablesImpl(ARBITRUM_SEPOLIA) */\n      swap1\n      pop\n      jump(tag_142)\n        /* \"@tableland/evm/contracts/utils/TablelandDeployments.sol\":3742:4318  if (block.chainid == 421614) {... */\n    tag_159:\n        /* \"@tableland/evm/contracts/utils/TablelandDeployments.sol\":3867:3872  84532 */\n      0x014a34\n        /* \"@tableland/evm/contracts/utils/TablelandDeployments.sol\":3850:3863  block.chainid */\n      chainid\n        /* \"@tableland/evm/contracts/utils/TablelandDeployments.sol\":3850:3872  block.chainid == 84532 */\n      sub\n        /* \"@tableland/evm/contracts/utils/TablelandDeployments.sol\":3846:4318  if (block.chainid == 84532) {... */\n      tag_161\n      jumpi\n        /* \"@tableland/evm/contracts/utils/TablelandDeployments.sol\":2055:2097  0xA85aAE9f0Aec5F5638E5F13840797303Ab29c9f9 */\n      0xa85aae9f0aec5f5638e5f13840797303ab29c9f9\n        /* \"@tableland/evm/contracts/utils/TablelandDeployments.sol\":3888:3928  return TablelandTablesImpl(BASE_SEPOLIA) */\n      swap1\n      pop\n      jump(tag_142)\n        /* \"@tableland/evm/contracts/utils/TablelandDeployments.sol\":3846:4318  if (block.chainid == 84532) {... */\n    tag_161:\n        /* \"@tableland/evm/contracts/utils/TablelandDeployments.sol\":3966:3971  80002 */\n      0x013882\n        /* \"@tableland/evm/contracts/utils/TablelandDeployments.sol\":3949:3962  block.chainid */\n      chainid\n        /* \"@tableland/evm/contracts/utils/TablelandDeployments.sol\":3949:3971  block.chainid == 80002 */\n      sub\n        /* \"@tableland/evm/contracts/utils/TablelandDeployments.sol\":3945:4318  if (block.chainid == 80002) {... */\n      tag_163\n      jumpi\n        /* \"@tableland/evm/contracts/utils/TablelandDeployments.sol\":2200:2242  0x170fb206132b693e38adFc8727dCfa303546Cec1 */\n      0x170fb206132b693e38adfc8727dcfa303546cec1\n        /* \"@tableland/evm/contracts/utils/TablelandDeployments.sol\":3987:4027  return TablelandTablesImpl(POLYGON_AMOY) */\n      swap1\n      pop\n      jump(tag_142)\n        /* \"@tableland/evm/contracts/utils/TablelandDeployments.sol\":3945:4318  if (block.chainid == 80002) {... */\n    tag_163:\n        /* \"@tableland/evm/contracts/utils/TablelandDeployments.sol\":4065:4071  314159 */\n      0x04cb2f\n        /* \"@tableland/evm/contracts/utils/TablelandDeployments.sol\":4048:4061  block.chainid */\n      chainid\n        /* \"@tableland/evm/contracts/utils/TablelandDeployments.sol\":4048:4071  block.chainid == 314159 */\n      sub\n        /* \"@tableland/evm/contracts/utils/TablelandDeployments.sol\":4044:4318  if (block.chainid == 314159) {... */\n      tag_165\n      jumpi\n        /* \"@tableland/evm/contracts/utils/TablelandDeployments.sol\":2361:2403  0x030BCf3D50cad04c2e57391B12740982A9308621 */\n      0x030bcf3d50cad04c2e57391b12740982a9308621\n        /* \"@tableland/evm/contracts/utils/TablelandDeployments.sol\":4087:4135  return TablelandTablesImpl(FILECOIN_CALIBRATION) */\n      swap1\n      pop\n      jump(tag_142)\n        /* \"@tableland/evm/contracts/utils/TablelandDeployments.sol\":4044:4318  if (block.chainid == 314159) {... */\n    tag_165:\n        /* \"@tableland/evm/contracts/utils/TablelandDeployments.sol\":4173:4178  31337 */\n      0x7a69\n        /* \"@tableland/evm/contracts/utils/TablelandDeployments.sol\":4156:4169  block.chainid */\n      chainid\n        /* \"@tableland/evm/contracts/utils/TablelandDeployments.sol\":4156:4178  block.chainid == 31337 */\n      sub\n        /* \"@tableland/evm/contracts/utils/TablelandDeployments.sol\":4152:4318  if (block.chainid == 31337) {... */\n      tag_167\n      jumpi\n        /* \"@tableland/evm/contracts/utils/TablelandDeployments.sol\":2584:2626  0xe7f1725E7734CE288F8367e1Bb143E90bb3F0512 */\n      0xe7f1725e7734ce288f8367e1bb143e90bb3f0512\n        /* \"@tableland/evm/contracts/utils/TablelandDeployments.sol\":4194:4237  return TablelandTablesImpl(LOCAL_TABLELAND) */\n      swap1\n      pop\n      jump(tag_142)\n        /* \"@tableland/evm/contracts/utils/TablelandDeployments.sol\":4152:4318  if (block.chainid == 31337) {... */\n    tag_167:\n        /* \"@tableland/evm/contracts/utils/TablelandDeployments.sol\":4293:4306  block.chainid */\n      chainid\n        /* \"@tableland/evm/contracts/utils/TablelandDeployments.sol\":4275:4307  ChainNotSupported(block.chainid) */\n      mload(0x40)\n      0x264e42cf00000000000000000000000000000000000000000000000000000000\n      dup2\n      mstore\n      0x04\n      add\n      tag_169\n      swap2\n      swap1\n      tag_48\n      jump\t// in\n    tag_169:\n      mload(0x40)\n      dup1\n      swap2\n      sub\n      swap1\n      revert\n        /* \"@tableland/evm/contracts/utils/TablelandDeployments.sol\":2908:4324  function get() internal view returns (TablelandTablesImpl) {... */\n    tag_142:\n      swap1\n      jump\t// out\n        /* \"@tableland/evm/contracts/utils/SQLHelpers.sol\":5600:5910  function toDelete(... */\n    tag_64:\n        /* \"@tableland/evm/contracts/utils/SQLHelpers.sol\":5733:5746  string memory */\n      0x60\n        /* \"@tableland/evm/contracts/utils/SQLHelpers.sol\":5758:5776  string memory name */\n      0x00\n        /* \"@tableland/evm/contracts/utils/SQLHelpers.sol\":5779:5808  toNameFromId(prefix, tableId) */\n      tag_171\n        /* \"@tableland/evm/contracts/utils/SQLHelpers.sol\":5792:5798  prefix */\n      dup6\n        /* \"@tableland/evm/contracts/utils/SQLHelpers.sol\":5800:5807  tableId */\n      dup6\n        /* \"@tableland/evm/contracts/utils/SQLHelpers.sol\":5779:5791  toNameFromId */\n      tag_103\n        /* \"@tableland/evm/contracts/utils/SQLHelpers.sol\":5779:5808  toNameFromId(prefix, tableId) */\n      jump\t// in\n    tag_171:\n        /* \"@tableland/evm/contracts/utils/SQLHelpers.sol\":5758:5808  string memory name = toNameFromId(prefix, tableId) */\n      swap1\n      pop\n        /* \"@tableland/evm/contracts/utils/SQLHelpers.sol\":5877:5881  name */\n      dup1\n        /* \"@tableland/evm/contracts/utils/SQLHelpers.sol\":5894:5901  filters */\n      dup4\n        /* \"@tableland/evm/contracts/utils/SQLHelpers.sol\":5844:5902  abi.encodePacked(\"DELETE FROM \", name, \" WHERE \", filters) */\n      add(0x20, mload(0x40))\n      tag_172\n      swap3\n      swap2\n      swap1\n      tag_173\n      jump\t// in\n    tag_172:\n      mload(0x40)\n      0x20\n      dup2\n      dup4\n      sub\n      sub\n      dup2\n      mstore\n      swap1\n      0x40\n      mstore\n        /* \"@tableland/evm/contracts/utils/SQLHelpers.sol\":5818:5903  return... */\n      swap2\n      pop\n      pop\n        /* \"@tableland/evm/contracts/utils/SQLHelpers.sol\":5600:5910  function toDelete(... */\n      swap4\n      swap3\n      pop\n      pop\n      pop\n      jump\t// out\n        /* \"@openzeppelin/contracts/utils/Strings.sol\":2689:2837  function toHexString(address addr) internal pure returns (string memory) {... */\n    tag_80:\n        /* \"@openzeppelin/contracts/utils/Strings.sol\":2747:2760  string memory */\n      0x60\n        /* \"@openzeppelin/contracts/utils/Strings.sol\":2779:2830  toHexString(uint256(uint160(addr)), ADDRESS_LENGTH) */\n      tag_175\n        /* \"@openzeppelin/contracts/utils/Strings.sol\":2807:2811  addr */\n      dup3\n        /* \"@openzeppelin/contracts/utils/Strings.sol\":2791:2813  uint256(uint160(addr)) */\n      0xffffffffffffffffffffffffffffffffffffffff\n      and\n        /* \"@openzeppelin/contracts/utils/Strings.sol\":375:377  20 */\n      0x14\n        /* \"@openzeppelin/contracts/utils/Strings.sol\":2779:2830  toHexString(uint256(uint160(addr)), ADDRESS_LENGTH) */\n      0xff\n      and\n        /* \"@openzeppelin/contracts/utils/Strings.sol\":2779:2790  toHexString */\n      tag_100\n        /* \"@openzeppelin/contracts/utils/Strings.sol\":2779:2830  toHexString(uint256(uint160(addr)), ADDRESS_LENGTH) */\n      jump\t// in\n    tag_175:\n        /* \"@openzeppelin/contracts/utils/Strings.sol\":2772:2830  return toHexString(uint256(uint160(addr)), ADDRESS_LENGTH) */\n      swap1\n      pop\n        /* \"@openzeppelin/contracts/utils/Strings.sol\":2689:2837  function toHexString(address addr) internal pure returns (string memory) {... */\n      swap2\n      swap1\n      pop\n      jump\t// out\n        /* \"@tableland/evm/contracts/utils/SQLHelpers.sol\":6030:6169  function quote(string memory input) internal pure returns (string memory) {... */\n    tag_88:\n        /* \"@tableland/evm/contracts/utils/SQLHelpers.sol\":6089:6102  string memory */\n      0x60\n        /* \"@tableland/evm/contracts/utils/SQLHelpers.sol\":6150:6155  input */\n      dup2\n        /* \"@tableland/evm/contracts/utils/SQLHelpers.sol\":6128:6161  abi.encodePacked(\"'\", input, \"'\") */\n      add(0x20, mload(0x40))\n      tag_177\n      swap2\n      swap1\n      tag_178\n      jump\t// in\n    tag_177:\n      mload(0x40)\n      0x20\n      dup2\n      dup4\n      sub\n      sub\n      dup2\n      mstore\n      swap1\n      0x40\n      mstore\n        /* \"@tableland/evm/contracts/utils/SQLHelpers.sol\":6114:6162  return string(abi.encodePacked(\"'\", input, \"'\")) */\n      swap1\n      pop\n        /* \"@tableland/evm/contracts/utils/SQLHelpers.sol\":6030:6169  function quote(string memory input) internal pure returns (string memory) {... */\n      swap2\n      swap1\n      pop\n      jump\t// out\n        /* \"@tableland/evm/contracts/utils/SQLHelpers.sol\":2405:2952  function toInsert(... */\n    tag_93:\n        /* \"@tableland/evm/contracts/utils/SQLHelpers.sol\":2568:2581  string memory */\n      0x60\n        /* \"@tableland/evm/contracts/utils/SQLHelpers.sol\":2593:2611  string memory name */\n      0x00\n        /* \"@tableland/evm/contracts/utils/SQLHelpers.sol\":2614:2643  toNameFromId(prefix, tableId) */\n      tag_180\n        /* \"@tableland/evm/contracts/utils/SQLHelpers.sol\":2627:2633  prefix */\n      dup7\n        /* \"@tableland/evm/contracts/utils/SQLHelpers.sol\":2635:2642  tableId */\n      dup7\n        /* \"@tableland/evm/contracts/utils/SQLHelpers.sol\":2614:2626  toNameFromId */\n      tag_103\n        /* \"@tableland/evm/contracts/utils/SQLHelpers.sol\":2614:2643  toNameFromId(prefix, tableId) */\n      jump\t// in\n    tag_180:\n        /* \"@tableland/evm/contracts/utils/SQLHelpers.sol\":2593:2643  string memory name = toNameFromId(prefix, tableId) */\n      swap1\n      pop\n        /* \"@tableland/evm/contracts/utils/SQLHelpers.sol\":2770:2774  name */\n      dup1\n        /* \"@tableland/evm/contracts/utils/SQLHelpers.sol\":2821:2828  columns */\n      dup5\n        /* \"@tableland/evm/contracts/utils/SQLHelpers.sol\":2882:2888  values */\n      dup5\n        /* \"@tableland/evm/contracts/utils/SQLHelpers.sol\":2696:2931  abi.encodePacked(... */\n      add(0x20, mload(0x40))\n      tag_181\n      swap4\n      swap3\n      swap2\n      swap1\n      tag_182\n      jump\t// in\n    tag_181:\n      mload(0x40)\n      0x20\n      dup2\n      dup4\n      sub\n      sub\n      dup2\n      mstore\n      swap1\n      0x40\n      mstore\n        /* \"@tableland/evm/contracts/utils/SQLHelpers.sol\":2653:2945  return... */\n      swap2\n      pop\n      pop\n        /* \"@tableland/evm/contracts/utils/SQLHelpers.sol\":2405:2952  function toInsert(... */\n      swap5\n      swap4\n      pop\n      pop\n      pop\n      pop\n      jump\t// out\n        /* \"@openzeppelin/contracts/utils/Strings.sol\":2005:2530  function toHexString(uint256 value, uint256 length) internal pure returns (string memory) {... */\n    tag_100:\n        /* \"@openzeppelin/contracts/utils/Strings.sol\":2080:2093  string memory */\n      0x60\n        /* \"@openzeppelin/contracts/utils/Strings.sol\":2105:2123  uint256 localValue */\n      0x00\n        /* \"@openzeppelin/contracts/utils/Strings.sol\":2126:2131  value */\n      dup4\n        /* \"@openzeppelin/contracts/utils/Strings.sol\":2105:2131  uint256 localValue = value */\n      swap1\n      pop\n        /* \"@openzeppelin/contracts/utils/Strings.sol\":2141:2160  bytes memory buffer */\n      0x00\n        /* \"@openzeppelin/contracts/utils/Strings.sol\":2186:2187  2 */\n      0x02\n        /* \"@openzeppelin/contracts/utils/Strings.sol\":2177:2183  length */\n      dup5\n        /* \"@openzeppelin/contracts/utils/Strings.sol\":2173:2174  2 */\n      0x02\n        /* \"@openzeppelin/contracts/utils/Strings.sol\":2173:2183  2 * length */\n      tag_184\n      swap2\n      swap1\n      tag_185\n      jump\t// in\n    tag_184:\n        /* \"@openzeppelin/contracts/utils/Strings.sol\":2173:2187  2 * length + 2 */\n      tag_186\n      swap2\n      swap1\n      tag_187\n      jump\t// in\n    tag_186:\n        /* \"@openzeppelin/contracts/utils/Strings.sol\":2163:2188  new bytes(2 * length + 2) */\n      0xffffffffffffffff\n      dup2\n      gt\n      iszero\n      tag_188\n      jumpi\n      tag_189\n      tag_134\n      jump\t// in\n    tag_189:\n    tag_188:\n      mload(0x40)\n      swap1\n      dup1\n      dup3\n      mstore\n      dup1\n      0x1f\n      add\n      not(0x1f)\n      and\n      0x20\n      add\n      dup3\n      add\n      0x40\n      mstore\n      dup1\n      iszero\n      tag_190\n      jumpi\n      dup2\n      0x20\n      add\n      0x01\n      dup3\n      mul\n      dup1\n      calldatasize\n      dup4\n      calldatacopy\n      dup1\n      dup3\n      add\n      swap2\n      pop\n      pop\n      swap1\n      pop\n    tag_190:\n      pop\n        /* \"@openzeppelin/contracts/utils/Strings.sol\":2141:2188  bytes memory buffer = new bytes(2 * length + 2) */\n      swap1\n      pop\n        /* \"@openzeppelin/contracts/utils/Strings.sol\":2198:2213  buffer[0] = \"0\" */\n      0x3000000000000000000000000000000000000000000000000000000000000000\n        /* \"@openzeppelin/contracts/utils/Strings.sol\":2198:2204  buffer */\n      dup2\n        /* \"@openzeppelin/contracts/utils/Strings.sol\":2205:2206  0 */\n      0x00\n        /* \"@openzeppelin/contracts/utils/Strings.sol\":2198:2207  buffer[0] */\n      dup2\n      mload\n      dup2\n      lt\n      tag_191\n      jumpi\n      tag_192\n      tag_193\n      jump\t// in\n    tag_192:\n    tag_191:\n      0x20\n      add\n      add\n        /* \"@openzeppelin/contracts/utils/Strings.sol\":2198:2213  buffer[0] = \"0\" */\n      swap1\n      not(0xffffffffffffffffffffffffffffffffffffffffffffffffffffffffffffff)\n      and\n      swap1\n      dup2\n      0x00\n      byte\n      swap1\n      mstore8\n      pop\n        /* \"@openzeppelin/contracts/utils/Strings.sol\":2223:2238  buffer[1] = \"x\" */\n      0x7800000000000000000000000000000000000000000000000000000000000000\n        /* \"@openzeppelin/contracts/utils/Strings.sol\":2223:2229  buffer */\n      dup2\n        /* \"@openzeppelin/contracts/utils/Strings.sol\":2230:2231  1 */\n      0x01\n        /* \"@openzeppelin/contracts/utils/Strings.sol\":2223:2232  buffer[1] */\n      dup2\n      mload\n      dup2\n      lt\n      tag_194\n      jumpi\n      tag_195\n      tag_193\n      jump\t// in\n    tag_195:\n    tag_194:\n      0x20\n      add\n      add\n        /* \"@openzeppelin/contracts/utils/Strings.sol\":2223:2238  buffer[1] = \"x\" */\n      swap1\n      not(0xffffffffffffffffffffffffffffffffffffffffffffffffffffffffffffff)\n      and\n      swap1\n      dup2\n      0x00\n      byte\n      swap1\n      mstore8\n      pop\n        /* \"@openzeppelin/contracts/utils/Strings.sol\":2253:2262  uint256 i */\n      0x00\n        /* \"@openzeppelin/contracts/utils/Strings.sol\":2278:2279  1 */\n      0x01\n        /* \"@openzeppelin/contracts/utils/Strings.sol\":2269:2275  length */\n      dup6\n        /* \"@openzeppelin/contracts/utils/Strings.sol\":2265:2266  2 */\n      0x02\n        /* \"@openzeppelin/contracts/utils/Strings.sol\":2265:2275  2 * length */\n      tag_199\n      swap2\n      swap1\n      tag_185\n      jump\t// in\n    tag_199:\n        /* \"@openzeppelin/contracts/utils/Strings.sol\":2265:2279  2 * length + 1 */\n      tag_200\n      swap2\n      swap1\n      tag_187\n      jump\t// in\n    tag_200:\n        /* \"@openzeppelin/contracts/utils/Strings.sol\":2253:2279  uint256 i = 2 * length + 1 */\n      swap1\n      pop\n        /* \"@openzeppelin/contracts/utils/Strings.sol\":2248:2388  for (uint256 i = 2 * length + 1; i > 1; --i) {... */\n    tag_196:\n        /* \"@openzeppelin/contracts/utils/Strings.sol\":2285:2286  1 */\n      0x01\n        /* \"@openzeppelin/contracts/utils/Strings.sol\":2281:2282  i */\n      dup2\n        /* \"@openzeppelin/contracts/utils/Strings.sol\":2281:2286  i > 1 */\n      gt\n        /* \"@openzeppelin/contracts/utils/Strings.sol\":2248:2388  for (uint256 i = 2 * length + 1; i > 1; --i) {... */\n      iszero\n      tag_197\n      jumpi\n        /* \"@openzeppelin/contracts/utils/Strings.sol\":2319:2329  HEX_DIGITS */\n      0x3031323334353637383961626364656600000000000000000000000000000000\n        /* \"@openzeppelin/contracts/utils/Strings.sol\":2343:2346  0xf */\n      0x0f\n        /* \"@openzeppelin/contracts/utils/Strings.sol\":2330:2340  localValue */\n      dup5\n        /* \"@openzeppelin/contracts/utils/Strings.sol\":2330:2346  localValue & 0xf */\n      and\n        /* \"@openzeppelin/contracts/utils/Strings.sol\":2319:2347  HEX_DIGITS[localValue & 0xf] */\n      0x10\n      dup2\n      lt\n      tag_201\n      jumpi\n      tag_202\n      tag_193\n      jump\t// in\n    tag_202:\n    tag_201:\n      byte\n      0xf8\n      shl\n        /* \"@openzeppelin/contracts/utils/Strings.sol\":2307:2313  buffer */\n      dup3\n        /* \"@openzeppelin/contracts/utils/Strings.sol\":2314:2315  i */\n      dup3\n        /* \"@openzeppelin/contracts/utils/Strings.sol\":2307:2316  buffer[i] */\n      dup2\n      mload\n      dup2\n      lt\n      tag_203\n      jumpi\n      tag_204\n      tag_193\n      jump\t// in\n    tag_204:\n    tag_203:\n      0x20\n      add\n      add\n        /* \"@openzeppelin/contracts/utils/Strings.sol\":2307:2347  buffer[i] = HEX_DIGITS[localValue & 0xf] */\n      swap1\n      not(0xffffffffffffffffffffffffffffffffffffffffffffffffffffffffffffff)\n      and\n      swap1\n      dup2\n      0x00\n      byte\n      swap1\n      mstore8\n      pop\n        /* \"@openzeppelin/contracts/utils/Strings.sol\":2376:2377  4 */\n      0x04\n        /* \"@openzeppelin/contracts/utils/Strings.sol\":2361:2377  localValue >>= 4 */\n      dup4\n      swap1\n      shr\n      swap3\n      pop\n        /* \"@openzeppelin/contracts/utils/Strings.sol\":2288:2291  --i */\n      dup1\n      tag_205\n      swap1\n      tag_206\n      jump\t// in\n    tag_205:\n      swap1\n      pop\n        /* \"@openzeppelin/contracts/utils/Strings.sol\":2248:2388  for (uint256 i = 2 * length + 1; i > 1; --i) {... */\n      jump(tag_196)\n    tag_197:\n      pop\n        /* \"@openzeppelin/contracts/utils/Strings.sol\":2415:2416  0 */\n      0x00\n        /* \"@openzeppelin/contracts/utils/Strings.sol\":2401:2411  localValue */\n      dup3\n        /* \"@openzeppelin/contracts/utils/Strings.sol\":2401:2416  localValue != 0 */\n      eq\n        /* \"@openzeppelin/contracts/utils/Strings.sol\":2397:2493  if (localValue != 0) {... */\n      tag_207\n      jumpi\n        /* \"@openzeppelin/contracts/utils/Strings.sol\":2468:2473  value */\n      dup5\n        /* \"@openzeppelin/contracts/utils/Strings.sol\":2475:2481  length */\n      dup5\n        /* \"@openzeppelin/contracts/utils/Strings.sol\":2439:2482  StringsInsufficientHexLength(value, length) */\n      mload(0x40)\n      0xe22e27eb00000000000000000000000000000000000000000000000000000000\n      dup2\n      mstore\n      0x04\n      add\n      tag_208\n      swap3\n      swap2\n      swap1\n      tag_209\n      jump\t// in\n    tag_208:\n      mload(0x40)\n      dup1\n      swap2\n      sub\n      swap1\n      revert\n        /* \"@openzeppelin/contracts/utils/Strings.sol\":2397:2493  if (localValue != 0) {... */\n    tag_207:\n        /* \"@openzeppelin/contracts/utils/Strings.sol\":2516:2522  buffer */\n      dup1\n        /* \"@openzeppelin/contracts/utils/Strings.sol\":2502:2523  return string(buffer) */\n      swap3\n      pop\n      pop\n      pop\n        /* \"@openzeppelin/contracts/utils/Strings.sol\":2005:2530  function toHexString(uint256 value, uint256 length) internal pure returns (string memory) {... */\n      swap3\n      swap2\n      pop\n      pop\n      jump\t// out\n        /* \"@tableland/evm/contracts/utils/SQLHelpers.sol\":566:973  function toNameFromId(... */\n    tag_103:\n        /* \"@tableland/evm/contracts/utils/SQLHelpers.sol\":672:685  string memory */\n      0x60\n        /* \"@tableland/evm/contracts/utils/SQLHelpers.sol\":778:784  prefix */\n      dup3\n        /* \"@tableland/evm/contracts/utils/SQLHelpers.sol\":831:862  Strings.toString(block.chainid) */\n      tag_211\n        /* \"@tableland/evm/contracts/utils/SQLHelpers.sol\":848:861  block.chainid */\n      chainid\n        /* \"@tableland/evm/contracts/utils/SQLHelpers.sol\":831:847  Strings.toString */\n      tag_58\n        /* \"@tableland/evm/contracts/utils/SQLHelpers.sol\":831:862  Strings.toString(block.chainid) */\n      jump\t// in\n    tag_211:\n        /* \"@tableland/evm/contracts/utils/SQLHelpers.sol\":909:934  Strings.toString(tableId) */\n      tag_212\n        /* \"@tableland/evm/contracts/utils/SQLHelpers.sol\":926:933  tableId */\n      dup5\n        /* \"@tableland/evm/contracts/utils/SQLHelpers.sol\":909:925  Strings.toString */\n      tag_58\n        /* \"@tableland/evm/contracts/utils/SQLHelpers.sol\":909:934  Strings.toString(tableId) */\n      jump\t// in\n    tag_212:\n        /* \"@tableland/evm/contracts/utils/SQLHelpers.sol\":740:952  abi.encodePacked(... */\n      add(0x20, mload(0x40))\n      tag_213\n      swap4\n      swap3\n      swap2\n      swap1\n      tag_214\n      jump\t// in\n    tag_213:\n      mload(0x40)\n      0x20\n      dup2\n      dup4\n      sub\n      sub\n      dup2\n      mstore\n      swap1\n      0x40\n      mstore\n        /* \"@tableland/evm/contracts/utils/SQLHelpers.sol\":697:966  return... */\n      swap1\n      pop\n        /* \"@tableland/evm/contracts/utils/SQLHelpers.sol\":566:973  function toNameFromId(... */\n      swap3\n      swap2\n      pop\n      pop\n      jump\t// out\n        /* \"@tableland/evm/contracts/utils/SQLHelpers.sol\":1339:1800  function toCreateFromSchema(... */\n    tag_108:\n        /* \"@tableland/evm/contracts/utils/SQLHelpers.sol\":1456:1469  string memory */\n      0x60\n        /* \"@tableland/evm/contracts/utils/SQLHelpers.sol\":1599:1605  prefix */\n      dup2\n        /* \"@tableland/evm/contracts/utils/SQLHelpers.sol\":1652:1683  Strings.toString(block.chainid) */\n      tag_216\n        /* \"@tableland/evm/contracts/utils/SQLHelpers.sol\":1669:1682  block.chainid */\n      chainid\n        /* \"@tableland/evm/contracts/utils/SQLHelpers.sol\":1652:1668  Strings.toString */\n      tag_58\n        /* \"@tableland/evm/contracts/utils/SQLHelpers.sol\":1652:1683  Strings.toString(block.chainid) */\n      jump\t// in\n    tag_216:\n        /* \"@tableland/evm/contracts/utils/SQLHelpers.sol\":1730:1736  schema */\n      dup5\n        /* \"@tableland/evm/contracts/utils/SQLHelpers.sol\":1524:1779  abi.encodePacked(... */\n      add(0x20, mload(0x40))\n      tag_217\n      swap4\n      swap3\n      swap2\n      swap1\n      tag_218\n      jump\t// in\n    tag_217:\n      mload(0x40)\n      0x20\n      dup2\n      dup4\n      sub\n      sub\n      dup2\n      mstore\n      swap1\n      0x40\n      mstore\n        /* \"@tableland/evm/contracts/utils/SQLHelpers.sol\":1481:1793  return... */\n      swap1\n      pop\n        /* \"@tableland/evm/contracts/utils/SQLHelpers.sol\":1339:1800  function toCreateFromSchema(... */\n      swap3\n      swap2\n      pop\n      pop\n      jump\t// out\n        /* \"@tableland/evm/contracts/utils/SQLHelpers.sol\":4689:5184  function toUpdate(... */\n    tag_124:\n        /* \"@tableland/evm/contracts/utils/SQLHelpers.sol\":4853:4866  string memory */\n      0x60\n        /* \"@tableland/evm/contracts/utils/SQLHelpers.sol\":4878:4896  string memory name */\n      0x00\n        /* \"@tableland/evm/contracts/utils/SQLHelpers.sol\":4899:4928  toNameFromId(prefix, tableId) */\n      tag_220\n        /* \"@tableland/evm/contracts/utils/SQLHelpers.sol\":4912:4918  prefix */\n      dup7\n        /* \"@tableland/evm/contracts/utils/SQLHelpers.sol\":4920:4927  tableId */\n      dup7\n        /* \"@tableland/evm/contracts/utils/SQLHelpers.sol\":4899:4911  toNameFromId */\n      tag_103\n        /* \"@tableland/evm/contracts/utils/SQLHelpers.sol\":4899:4928  toNameFromId(prefix, tableId) */\n      jump\t// in\n    tag_220:\n        /* \"@tableland/evm/contracts/utils/SQLHelpers.sol\":4878:4928  string memory name = toNameFromId(prefix, tableId) */\n      swap1\n      pop\n        /* \"@tableland/evm/contracts/utils/SQLHelpers.sol\":4938:4958  string memory filter */\n      0x00\n        /* \"@tableland/evm/contracts/utils/SQLHelpers.sol\":4938:4963  string memory filter = \"\" */\n      mload(0x40)\n      dup1\n      0x20\n      add\n      0x40\n      mstore\n      dup1\n      0x00\n      dup2\n      mstore\n      pop\n      swap1\n      pop\n        /* \"@tableland/evm/contracts/utils/SQLHelpers.sol\":5001:5002  0 */\n      0x00\n        /* \"@tableland/evm/contracts/utils/SQLHelpers.sol\":4983:4990  filters */\n      dup5\n        /* \"@tableland/evm/contracts/utils/SQLHelpers.sol\":4977:4998  bytes(filters).length */\n      mload\n        /* \"@tableland/evm/contracts/utils/SQLHelpers.sol\":4977:5002  bytes(filters).length > 0 */\n      gt\n        /* \"@tableland/evm/contracts/utils/SQLHelpers.sol\":4973:5082  if (bytes(filters).length > 0) {... */\n      iszero\n      tag_221\n      jumpi\n        /* \"@tableland/evm/contracts/utils/SQLHelpers.sol\":5062:5069  filters */\n      dup4\n        /* \"@tableland/evm/contracts/utils/SQLHelpers.sol\":5034:5070  abi.encodePacked(\" WHERE \", filters) */\n      add(0x20, mload(0x40))\n      tag_222\n      swap2\n      swap1\n      tag_223\n      jump\t// in\n    tag_222:\n      mload(0x40)\n      0x20\n      dup2\n      dup4\n      sub\n      sub\n      dup2\n      mstore\n      swap1\n      0x40\n      mstore\n        /* \"@tableland/evm/contracts/utils/SQLHelpers.sol\":5018:5071  filter = string(abi.encodePacked(\" WHERE \", filters)) */\n      swap1\n      pop\n        /* \"@tableland/evm/contracts/utils/SQLHelpers.sol\":4973:5082  if (bytes(filters).length > 0) {... */\n    tag_221:\n        /* \"@tableland/evm/contracts/utils/SQLHelpers.sol\":5145:5149  name */\n      dup2\n        /* \"@tableland/evm/contracts/utils/SQLHelpers.sol\":5160:5167  setters */\n      dup6\n        /* \"@tableland/evm/contracts/utils/SQLHelpers.sol\":5169:5175  filter */\n      dup3\n        /* \"@tableland/evm/contracts/utils/SQLHelpers.sol\":5117:5176  abi.encodePacked(\"UPDATE \", name, \" SET \", setters, filter) */\n      add(0x20, mload(0x40))\n      tag_224\n      swap4\n      swap3\n      swap2\n      swap1\n      tag_225\n      jump\t// in\n    tag_224:\n      mload(0x40)\n      0x20\n      dup2\n      dup4\n      sub\n      sub\n      dup2\n      mstore\n      swap1\n      0x40\n      mstore\n        /* \"@tableland/evm/contracts/utils/SQLHelpers.sol\":5091:5177  return... */\n      swap3\n      pop\n      pop\n      pop\n        /* \"@tableland/evm/contracts/utils/SQLHelpers.sol\":4689:5184  function toUpdate(... */\n      swap5\n      swap4\n      pop\n      pop\n      pop\n      pop\n      jump\t// out\n        /* \"@openzeppelin/contracts/utils/math/Math.sol\":12214:13130  function log10(uint256 value) internal pure returns (uint256) {... */\n    tag_131:\n        /* \"@openzeppelin/contracts/utils/math/Math.sol\":12267:12274  uint256 */\n      0x00\n        /* \"@openzeppelin/contracts/utils/math/Math.sol\":12286:12300  uint256 result */\n      dup1\n        /* \"@openzeppelin/contracts/utils/math/Math.sol\":12303:12304  0 */\n      0x00\n        /* \"@openzeppelin/contracts/utils/math/Math.sol\":12286:12304  uint256 result = 0 */\n      swap1\n      pop\n        /* \"@openzeppelin/contracts/utils/math/Math.sol\":12351:12359  10 ** 64 */\n      0x184f03e93ff9f4daa797ed6e38ed64bf6a1f010000000000000000\n        /* \"@openzeppelin/contracts/utils/math/Math.sol\":12342:12347  value */\n      dup4\n        /* \"@openzeppelin/contracts/utils/math/Math.sol\":12342:12359  value >= 10 ** 64 */\n      lt\n        /* \"@openzeppelin/contracts/utils/math/Math.sol\":12338:12441  if (value >= 10 ** 64) {... */\n      tag_227\n      jumpi\n        /* \"@openzeppelin/contracts/utils/math/Math.sol\":12388:12396  10 ** 64 */\n      0x184f03e93ff9f4daa797ed6e38ed64bf6a1f010000000000000000\n        /* \"@openzeppelin/contracts/utils/math/Math.sol\":12379:12396  value /= 10 ** 64 */\n      dup4\n      dup2\n      tag_228\n      jumpi\n      tag_229\n      tag_140\n      jump\t// in\n    tag_229:\n    tag_228:\n      div\n      swap3\n      pop\n        /* \"@openzeppelin/contracts/utils/math/Math.sol\":12424:12426  64 */\n      0x40\n        /* \"@openzeppelin/contracts/utils/math/Math.sol\":12414:12426  result += 64 */\n      dup2\n      add\n      swap1\n      pop\n        /* \"@openzeppelin/contracts/utils/math/Math.sol\":12338:12441  if (value >= 10 ** 64) {... */\n    tag_227:\n        /* \"@openzeppelin/contracts/utils/math/Math.sol\":12467:12475  10 ** 32 */\n      0x04ee2d6d415b85acef8100000000\n        /* \"@openzeppelin/contracts/utils/math/Math.sol\":12458:12463  value */\n      dup4\n        /* \"@openzeppelin/contracts/utils/math/Math.sol\":12458:12475  value >= 10 ** 32 */\n      lt\n        /* \"@openzeppelin/contracts/utils/math/Math.sol\":12454:12557  if (value >= 10 ** 32) {... */\n      tag_230\n      jumpi\n        /* \"@openzeppelin/contracts/utils/math/Math.sol\":12504:12512  10 ** 32 */\n      0x04ee2d6d415b85acef8100000000\n        /* \"@openzeppelin/contracts/utils/math/Math.sol\":12495:12512  value /= 10 ** 32 */\n      dup4\n      dup2\n      tag_231\n      jumpi\n      tag_232\n      tag_140\n      jump\t// in\n    tag_232:\n    tag_231:\n      div\n      swap3\n      pop\n        /* \"@openzeppelin/contracts/utils/math/Math.sol\":12540:12542  32 */\n      0x20\n        /* \"@openzeppelin/contracts/utils/math/Math.sol\":12530:12542  result += 32 */\n      dup2\n      add\n      swap1\n      pop\n        /* \"@openzeppelin/contracts/utils/math/Math.sol\":12454:12557  if (value >= 10 ** 32) {... */\n    tag_230:\n        /* \"@openzeppelin/contracts/utils/math/Math.sol\":12583:12591  10 ** 16 */\n      0x2386f26fc10000\n        /* \"@openzeppelin/contracts/utils/math/Math.sol\":12574:12579  value */\n      dup4\n        /* \"@openzeppelin/contracts/utils/math/Math.sol\":12574:12591  value >= 10 ** 16 */\n      lt\n        /* \"@openzeppelin/contracts/utils/math/Math.sol\":12570:12673  if (value >= 10 ** 16) {... */\n      tag_233\n      jumpi\n        /* \"@openzeppelin/contracts/utils/math/Math.sol\":12620:12628  10 ** 16 */\n      0x2386f26fc10000\n        /* \"@openzeppelin/contracts/utils/math/Math.sol\":12611:12628  value /= 10 ** 16 */\n      dup4\n      dup2\n      tag_234\n      jumpi\n      tag_235\n      tag_140\n      jump\t// in\n    tag_235:\n    tag_234:\n      div\n      swap3\n      pop\n        /* \"@openzeppelin/contracts/utils/math/Math.sol\":12656:12658  16 */\n      0x10\n        /* \"@openzeppelin/contracts/utils/math/Math.sol\":12646:12658  result += 16 */\n      dup2\n      add\n      swap1\n      pop\n        /* \"@openzeppelin/contracts/utils/math/Math.sol\":12570:12673  if (value >= 10 ** 16) {... */\n    tag_233:\n        /* \"@openzeppelin/contracts/utils/math/Math.sol\":12699:12706  10 ** 8 */\n      0x05f5e100\n        /* \"@openzeppelin/contracts/utils/math/Math.sol\":12690:12695  value */\n      dup4\n        /* \"@openzeppelin/contracts/utils/math/Math.sol\":12690:12706  value >= 10 ** 8 */\n      lt\n        /* \"@openzeppelin/contracts/utils/math/Math.sol\":12686:12786  if (value >= 10 ** 8) {... */\n      tag_236\n      jumpi\n        /* \"@openzeppelin/contracts/utils/math/Math.sol\":12735:12742  10 ** 8 */\n      0x05f5e100\n        /* \"@openzeppelin/contracts/utils/math/Math.sol\":12726:12742  value /= 10 ** 8 */\n      dup4\n      dup2\n      tag_237\n      jumpi\n      tag_238\n      tag_140\n      jump\t// in\n    tag_238:\n    tag_237:\n      div\n      swap3\n      pop\n        /* \"@openzeppelin/contracts/utils/math/Math.sol\":12770:12771  8 */\n      0x08\n        /* \"@openzeppelin/contracts/utils/math/Math.sol\":12760:12771  result += 8 */\n      dup2\n      add\n      swap1\n      pop\n        /* \"@openzeppelin/contracts/utils/math/Math.sol\":12686:12786  if (value >= 10 ** 8) {... */\n    tag_236:\n        /* \"@openzeppelin/contracts/utils/math/Math.sol\":12812:12819  10 ** 4 */\n      0x2710\n        /* \"@openzeppelin/contracts/utils/math/Math.sol\":12803:12808  value */\n      dup4\n        /* \"@openzeppelin/contracts/utils/math/Math.sol\":12803:12819  value >= 10 ** 4 */\n      lt\n        /* \"@openzeppelin/contracts/utils/math/Math.sol\":12799:12899  if (value >= 10 ** 4) {... */\n      tag_239\n      jumpi\n        /* \"@openzeppelin/contracts/utils/math/Math.sol\":12848:12855  10 ** 4 */\n      0x2710\n        /* \"@openzeppelin/contracts/utils/math/Math.sol\":12839:12855  value /= 10 ** 4 */\n      dup4\n      dup2\n      tag_240\n      jumpi\n      tag_241\n      tag_140\n      jump\t// in\n    tag_241:\n    tag_240:\n      div\n      swap3\n      pop\n        /* \"@openzeppelin/contracts/utils/math/Math.sol\":12883:12884  4 */\n      0x04\n        /* \"@openzeppelin/contracts/utils/math/Math.sol\":12873:12884  result += 4 */\n      dup2\n      add\n      swap1\n      pop\n        /* \"@openzeppelin/contracts/utils/math/Math.sol\":12799:12899  if (value >= 10 ** 4) {... */\n    tag_239:\n        /* \"@openzeppelin/contracts/utils/math/Math.sol\":12925:12932  10 ** 2 */\n      0x64\n        /* \"@openzeppelin/contracts/utils/math/Math.sol\":12916:12921  value */\n      dup4\n        /* \"@openzeppelin/contracts/utils/math/Math.sol\":12916:12932  value >= 10 ** 2 */\n      lt\n        /* \"@openzeppelin/contracts/utils/math/Math.sol\":12912:13012  if (value >= 10 ** 2) {... */\n      tag_242\n      jumpi\n        /* \"@openzeppelin/contracts/utils/math/Math.sol\":12961:12968  10 ** 2 */\n      0x64\n        /* \"@openzeppelin/contracts/utils/math/Math.sol\":12952:12968  value /= 10 ** 2 */\n      dup4\n      dup2\n      tag_243\n      jumpi\n      tag_244\n      tag_140\n      jump\t// in\n    tag_244:\n    tag_243:\n      div\n      swap3\n      pop\n        /* \"@openzeppelin/contracts/utils/math/Math.sol\":12996:12997  2 */\n      0x02\n        /* \"@openzeppelin/contracts/utils/math/Math.sol\":12986:12997  result += 2 */\n      dup2\n      add\n      swap1\n      pop\n        /* \"@openzeppelin/contracts/utils/math/Math.sol\":12912:13012  if (value >= 10 ** 2) {... */\n    tag_242:\n        /* \"@openzeppelin/contracts/utils/math/Math.sol\":13038:13045  10 ** 1 */\n      0x0a\n        /* \"@openzeppelin/contracts/utils/math/Math.sol\":13029:13034  value */\n      dup4\n        /* \"@openzeppelin/contracts/utils/math/Math.sol\":13029:13045  value >= 10 ** 1 */\n      lt\n        /* \"@openzeppelin/contracts/utils/math/Math.sol\":13025:13091  if (value >= 10 ** 1) {... */\n      tag_245\n      jumpi\n        /* \"@openzeppelin/contracts/utils/math/Math.sol\":13075:13076  1 */\n      0x01\n        /* \"@openzeppelin/contracts/utils/math/Math.sol\":13065:13076  result += 1 */\n      dup2\n      add\n      swap1\n      pop\n        /* \"@openzeppelin/contracts/utils/math/Math.sol\":13025:13091  if (value >= 10 ** 1) {... */\n    tag_245:\n        /* \"@openzeppelin/contracts/utils/math/Math.sol\":13117:13123  result */\n      dup1\n        /* \"@openzeppelin/contracts/utils/math/Math.sol\":13110:13123  return result */\n      swap2\n      pop\n      pop\n        /* \"@openzeppelin/contracts/utils/math/Math.sol\":12214:13130  function log10(uint256 value) internal pure returns (uint256) {... */\n      swap2\n      swap1\n      pop\n      jump\t// out\n        /* \"#utility.yul\":7:82   */\n    tag_246:\n        /* \"#utility.yul\":40:46   */\n      0x00\n        /* \"#utility.yul\":73:75   */\n      0x40\n        /* \"#utility.yul\":67:76   */\n      mload\n        /* \"#utility.yul\":57:76   */\n      swap1\n      pop\n        /* \"#utility.yul\":7:82   */\n      swap1\n      jump\t// out\n        /* \"#utility.yul\":88:205   */\n    tag_247:\n        /* \"#utility.yul\":197:198   */\n      0x00\n        /* \"#utility.yul\":194:195   */\n      dup1\n        /* \"#utility.yul\":187:199   */\n      revert\n        /* \"#utility.yul\":211:328   */\n    tag_248:\n        /* \"#utility.yul\":320:321   */\n      0x00\n        /* \"#utility.yul\":317:318   */\n      dup1\n        /* \"#utility.yul\":310:322   */\n      revert\n        /* \"#utility.yul\":334:411   */\n    tag_249:\n        /* \"#utility.yul\":371:378   */\n      0x00\n        /* \"#utility.yul\":400:405   */\n      dup2\n        /* \"#utility.yul\":389:405   */\n      swap1\n      pop\n        /* \"#utility.yul\":334:411   */\n      swap2\n      swap1\n      pop\n      jump\t// out\n        /* \"#utility.yul\":417:539   */\n    tag_250:\n        /* \"#utility.yul\":490:514   */\n      tag_308\n        /* \"#utility.yul\":508:513   */\n      dup2\n        /* \"#utility.yul\":490:514   */\n      tag_249\n      jump\t// in\n    tag_308:\n        /* \"#utility.yul\":483:488   */\n      dup2\n        /* \"#utility.yul\":480:515   */\n      eq\n        /* \"#utility.yul\":470:533   */\n      tag_309\n      jumpi\n        /* \"#utility.yul\":529:530   */\n      0x00\n        /* \"#utility.yul\":526:527   */\n      dup1\n        /* \"#utility.yul\":519:531   */\n      revert\n        /* \"#utility.yul\":470:533   */\n    tag_309:\n        /* \"#utility.yul\":417:539   */\n      pop\n      jump\t// out\n        /* \"#utility.yul\":545:684   */\n    tag_251:\n        /* \"#utility.yul\":591:596   */\n      0x00\n        /* \"#utility.yul\":629:635   */\n      dup2\n        /* \"#utility.yul\":616:636   */\n      calldataload\n        /* \"#utility.yul\":607:636   */\n      swap1\n      pop\n        /* \"#utility.yul\":645:678   */\n      tag_311\n        /* \"#utility.yul\":672:677   */\n      dup2\n        /* \"#utility.yul\":645:678   */\n      tag_250\n      jump\t// in\n    tag_311:\n        /* \"#utility.yul\":545:684   */\n      swap3\n      swap2\n      pop\n      pop\n      jump\t// out\n        /* \"#utility.yul\":690:1019   */\n    tag_15:\n        /* \"#utility.yul\":749:755   */\n      0x00\n        /* \"#utility.yul\":798:800   */\n      0x20\n        /* \"#utility.yul\":786:795   */\n      dup3\n        /* \"#utility.yul\":777:784   */\n      dup5\n        /* \"#utility.yul\":773:796   */\n      sub\n        /* \"#utility.yul\":769:801   */\n      slt\n        /* \"#utility.yul\":766:885   */\n      iszero\n      tag_313\n      jumpi\n        /* \"#utility.yul\":804:883   */\n      tag_314\n      tag_247\n      jump\t// in\n    tag_314:\n        /* \"#utility.yul\":766:885   */\n    tag_313:\n        /* \"#utility.yul\":924:925   */\n      0x00\n        /* \"#utility.yul\":949:1002   */\n      tag_315\n        /* \"#utility.yul\":994:1001   */\n      dup5\n        /* \"#utility.yul\":985:991   */\n      dup3\n        /* \"#utility.yul\":974:983   */\n      dup6\n        /* \"#utility.yul\":970:992   */\n      add\n        /* \"#utility.yul\":949:1002   */\n      tag_251\n      jump\t// in\n    tag_315:\n        /* \"#utility.yul\":939:1002   */\n      swap2\n      pop\n        /* \"#utility.yul\":895:1012   */\n      pop\n        /* \"#utility.yul\":690:1019   */\n      swap3\n      swap2\n      pop\n      pop\n      jump\t// out\n        /* \"#utility.yul\":1025:1151   */\n    tag_252:\n        /* \"#utility.yul\":1062:1069   */\n      0x00\n        /* \"#utility.yul\":1102:1144   */\n      0xffffffffffffffffffffffffffffffffffffffff\n        /* \"#utility.yul\":1095:1100   */\n      dup3\n        /* \"#utility.yul\":1091:1145   */\n      and\n        /* \"#utility.yul\":1080:1145   */\n      swap1\n      pop\n        /* \"#utility.yul\":1025:1151   */\n      swap2\n      swap1\n      pop\n      jump\t// out\n        /* \"#utility.yul\":1157:1253   */\n    tag_253:\n        /* \"#utility.yul\":1194:1201   */\n      0x00\n        /* \"#utility.yul\":1223:1247   */\n      tag_318\n        /* \"#utility.yul\":1241:1246   */\n      dup3\n        /* \"#utility.yul\":1223:1247   */\n      tag_252\n      jump\t// in\n    tag_318:\n        /* \"#utility.yul\":1212:1247   */\n      swap1\n      pop\n        /* \"#utility.yul\":1157:1253   */\n      swap2\n      swap1\n      pop\n      jump\t// out\n        /* \"#utility.yul\":1259:1381   */\n    tag_254:\n        /* \"#utility.yul\":1332:1356   */\n      tag_320\n        /* \"#utility.yul\":1350:1355   */\n      dup2\n        /* \"#utility.yul\":1332:1356   */\n      tag_253\n      jump\t// in\n    tag_320:\n        /* \"#utility.yul\":1325:1330   */\n      dup2\n        /* \"#utility.yul\":1322:1357   */\n      eq\n        /* \"#utility.yul\":1312:1375   */\n      tag_321\n      jumpi\n        /* \"#utility.yul\":1371:1372   */\n      0x00\n        /* \"#utility.yul\":1368:1369   */\n      dup1\n        /* \"#utility.yul\":1361:1373   */\n      revert\n        /* \"#utility.yul\":1312:1375   */\n    tag_321:\n        /* \"#utility.yul\":1259:1381   */\n      pop\n      jump\t// out\n        /* \"#utility.yul\":1387:1526   */\n    tag_255:\n        /* \"#utility.yul\":1433:1438   */\n      0x00\n        /* \"#utility.yul\":1471:1477   */\n      dup2\n        /* \"#utility.yul\":1458:1478   */\n      calldataload\n        /* \"#utility.yul\":1449:1478   */\n      swap1\n      pop\n        /* \"#utility.yul\":1487:1520   */\n      tag_323\n        /* \"#utility.yul\":1514:1519   */\n      dup2\n        /* \"#utility.yul\":1487:1520   */\n      tag_254\n      jump\t// in\n    tag_323:\n        /* \"#utility.yul\":1387:1526   */\n      swap3\n      swap2\n      pop\n      pop\n      jump\t// out\n        /* \"#utility.yul\":1532:1649   */\n    tag_256:\n        /* \"#utility.yul\":1641:1642   */\n      0x00\n        /* \"#utility.yul\":1638:1639   */\n      dup1\n        /* \"#utility.yul\":1631:1643   */\n      revert\n        /* \"#utility.yul\":1655:1772   */\n    tag_257:\n        /* \"#utility.yul\":1764:1765   */\n      0x00\n        /* \"#utility.yul\":1761:1762   */\n      dup1\n        /* \"#utility.yul\":1754:1766   */\n      revert\n        /* \"#utility.yul\":1778:1880   */\n    tag_258:\n        /* \"#utility.yul\":1819:1825   */\n      0x00\n        /* \"#utility.yul\":1870:1872   */\n      0x1f\n        /* \"#utility.yul\":1866:1873   */\n      not\n        /* \"#utility.yul\":1861:1863   */\n      0x1f\n        /* \"#utility.yul\":1854:1859   */\n      dup4\n        /* \"#utility.yul\":1850:1864   */\n      add\n        /* \"#utility.yul\":1846:1874   */\n      and\n        /* \"#utility.yul\":1836:1874   */\n      swap1\n      pop\n        /* \"#utility.yul\":1778:1880   */\n      swap2\n      swap1\n      pop\n      jump\t// out\n        /* \"#utility.yul\":1886:2066   */\n    tag_134:\n        /* \"#utility.yul\":1934:2011   */\n      0x4e487b7100000000000000000000000000000000000000000000000000000000\n        /* \"#utility.yul\":1931:1932   */\n      0x00\n        /* \"#utility.yul\":1924:2012   */\n      mstore\n        /* \"#utility.yul\":2031:2035   */\n      0x41\n        /* \"#utility.yul\":2028:2029   */\n      0x04\n        /* \"#utility.yul\":2021:2036   */\n      mstore\n        /* \"#utility.yul\":2055:2059   */\n      0x24\n        /* \"#utility.yul\":2052:2053   */\n      0x00\n        /* \"#utility.yul\":2045:2060   */\n      revert\n        /* \"#utility.yul\":2072:2353   */\n    tag_259:\n        /* \"#utility.yul\":2155:2182   */\n      tag_329\n        /* \"#utility.yul\":2177:2181   */\n      dup3\n        /* \"#utility.yul\":2155:2182   */\n      tag_258\n      jump\t// in\n    tag_329:\n        /* \"#utility.yul\":2147:2153   */\n      dup2\n        /* \"#utility.yul\":2143:2183   */\n      add\n        /* \"#utility.yul\":2285:2291   */\n      dup2\n        /* \"#utility.yul\":2273:2283   */\n      dup2\n        /* \"#utility.yul\":2270:2292   */\n      lt\n        /* \"#utility.yul\":2249:2267   */\n      0xffffffffffffffff\n        /* \"#utility.yul\":2237:2247   */\n      dup3\n        /* \"#utility.yul\":2234:2268   */\n      gt\n        /* \"#utility.yul\":2231:2293   */\n      or\n        /* \"#utility.yul\":2228:2316   */\n      iszero\n      tag_330\n      jumpi\n        /* \"#utility.yul\":2296:2314   */\n      tag_331\n      tag_134\n      jump\t// in\n    tag_331:\n        /* \"#utility.yul\":2228:2316   */\n    tag_330:\n        /* \"#utility.yul\":2336:2346   */\n      dup1\n        /* \"#utility.yul\":2332:2334   */\n      0x40\n        /* \"#utility.yul\":2325:2347   */\n      mstore\n        /* \"#utility.yul\":2115:2353   */\n      pop\n        /* \"#utility.yul\":2072:2353   */\n      pop\n      pop\n      jump\t// out\n        /* \"#utility.yul\":2359:2488   */\n    tag_260:\n        /* \"#utility.yul\":2393:2399   */\n      0x00\n        /* \"#utility.yul\":2420:2440   */\n      tag_333\n      tag_246\n      jump\t// in\n    tag_333:\n        /* \"#utility.yul\":2410:2440   */\n      swap1\n      pop\n        /* \"#utility.yul\":2449:2482   */\n      tag_334\n        /* \"#utility.yul\":2477:2481   */\n      dup3\n        /* \"#utility.yul\":2469:2475   */\n      dup3\n        /* \"#utility.yul\":2449:2482   */\n      tag_259\n      jump\t// in\n    tag_334:\n        /* \"#utility.yul\":2359:2488   */\n      swap2\n      swap1\n      pop\n      jump\t// out\n        /* \"#utility.yul\":2494:2801   */\n    tag_261:\n        /* \"#utility.yul\":2555:2559   */\n      0x00\n        /* \"#utility.yul\":2645:2663   */\n      0xffffffffffffffff\n        /* \"#utility.yul\":2637:2643   */\n      dup3\n        /* \"#utility.yul\":2634:2664   */\n      gt\n        /* \"#utility.yul\":2631:2687   */\n      iszero\n      tag_336\n      jumpi\n        /* \"#utility.yul\":2667:2685   */\n      tag_337\n      tag_134\n      jump\t// in\n    tag_337:\n        /* \"#utility.yul\":2631:2687   */\n    tag_336:\n        /* \"#utility.yul\":2705:2734   */\n      tag_338\n        /* \"#utility.yul\":2727:2733   */\n      dup3\n        /* \"#utility.yul\":2705:2734   */\n      tag_258\n      jump\t// in\n    tag_338:\n        /* \"#utility.yul\":2697:2734   */\n      swap1\n      pop\n        /* \"#utility.yul\":2789:2793   */\n      0x20\n        /* \"#utility.yul\":2783:2787   */\n      dup2\n        /* \"#utility.yul\":2779:2794   */\n      add\n        /* \"#utility.yul\":2771:2794   */\n      swap1\n      pop\n        /* \"#utility.yul\":2494:2801   */\n      swap2\n      swap1\n      pop\n      jump\t// out\n        /* \"#utility.yul\":2807:2953   */\n    tag_262:\n        /* \"#utility.yul\":2904:2910   */\n      dup3\n        /* \"#utility.yul\":2899:2902   */\n      dup2\n        /* \"#utility.yul\":2894:2897   */\n      dup4\n        /* \"#utility.yul\":2881:2911   */\n      calldatacopy\n        /* \"#utility.yul\":2945:2946   */\n      0x00\n        /* \"#utility.yul\":2936:2942   */\n      dup4\n        /* \"#utility.yul\":2931:2934   */\n      dup4\n        /* \"#utility.yul\":2927:2943   */\n      add\n        /* \"#utility.yul\":2920:2947   */\n      mstore\n        /* \"#utility.yul\":2807:2953   */\n      pop\n      pop\n      pop\n      jump\t// out\n        /* \"#utility.yul\":2959:3382   */\n    tag_263:\n        /* \"#utility.yul\":3036:3041   */\n      0x00\n        /* \"#utility.yul\":3061:3126   */\n      tag_341\n        /* \"#utility.yul\":3077:3125   */\n      tag_342\n        /* \"#utility.yul\":3118:3124   */\n      dup5\n        /* \"#utility.yul\":3077:3125   */\n      tag_261\n      jump\t// in\n    tag_342:\n        /* \"#utility.yul\":3061:3126   */\n      tag_260\n      jump\t// in\n    tag_341:\n        /* \"#utility.yul\":3052:3126   */\n      swap1\n      pop\n        /* \"#utility.yul\":3149:3155   */\n      dup3\n        /* \"#utility.yul\":3142:3147   */\n      dup2\n        /* \"#utility.yul\":3135:3156   */\n      mstore\n        /* \"#utility.yul\":3187:3191   */\n      0x20\n        /* \"#utility.yul\":3180:3185   */\n      dup2\n        /* \"#utility.yul\":3176:3192   */\n      add\n        /* \"#utility.yul\":3225:3228   */\n      dup5\n        /* \"#utility.yul\":3216:3222   */\n      dup5\n        /* \"#utility.yul\":3211:3214   */\n      dup5\n        /* \"#utility.yul\":3207:3223   */\n      add\n        /* \"#utility.yul\":3204:3229   */\n      gt\n        /* \"#utility.yul\":3201:3313   */\n      iszero\n      tag_343\n      jumpi\n        /* \"#utility.yul\":3232:3311   */\n      tag_344\n      tag_257\n      jump\t// in\n    tag_344:\n        /* \"#utility.yul\":3201:3313   */\n    tag_343:\n        /* \"#utility.yul\":3322:3376   */\n      tag_345\n        /* \"#utility.yul\":3369:3375   */\n      dup5\n        /* \"#utility.yul\":3364:3367   */\n      dup3\n        /* \"#utility.yul\":3359:3362   */\n      dup6\n        /* \"#utility.yul\":3322:3376   */\n      tag_262\n      jump\t// in\n    tag_345:\n        /* \"#utility.yul\":3042:3382   */\n      pop\n        /* \"#utility.yul\":2959:3382   */\n      swap4\n      swap3\n      pop\n      pop\n      pop\n      jump\t// out\n        /* \"#utility.yul\":3401:3739   */\n    tag_264:\n        /* \"#utility.yul\":3456:3461   */\n      0x00\n        /* \"#utility.yul\":3505:3508   */\n      dup3\n        /* \"#utility.yul\":3498:3502   */\n      0x1f\n        /* \"#utility.yul\":3490:3496   */\n      dup4\n        /* \"#utility.yul\":3486:3503   */\n      add\n        /* \"#utility.yul\":3482:3509   */\n      slt\n        /* \"#utility.yul\":3472:3594   */\n      tag_347\n      jumpi\n        /* \"#utility.yul\":3513:3592   */\n      tag_348\n      tag_256\n      jump\t// in\n    tag_348:\n        /* \"#utility.yul\":3472:3594   */\n    tag_347:\n        /* \"#utility.yul\":3630:3636   */\n      dup2\n        /* \"#utility.yul\":3617:3637   */\n      calldataload\n        /* \"#utility.yul\":3655:3733   */\n      tag_349\n        /* \"#utility.yul\":3729:3732   */\n      dup5\n        /* \"#utility.yul\":3721:3727   */\n      dup3\n        /* \"#utility.yul\":3714:3718   */\n      0x20\n        /* \"#utility.yul\":3706:3712   */\n      dup7\n        /* \"#utility.yul\":3702:3719   */\n      add\n        /* \"#utility.yul\":3655:3733   */\n      tag_263\n      jump\t// in\n    tag_349:\n        /* \"#utility.yul\":3646:3733   */\n      swap2\n      pop\n        /* \"#utility.yul\":3462:3739   */\n      pop\n        /* \"#utility.yul\":3401:3739   */\n      swap3\n      swap2\n      pop\n      pop\n      jump\t// out\n        /* \"#utility.yul\":3745:4688   */\n    tag_20:\n        /* \"#utility.yul\":3840:3846   */\n      0x00\n        /* \"#utility.yul\":3848:3854   */\n      dup1\n        /* \"#utility.yul\":3856:3862   */\n      0x00\n        /* \"#utility.yul\":3864:3870   */\n      dup1\n        /* \"#utility.yul\":3913:3916   */\n      0x80\n        /* \"#utility.yul\":3901:3910   */\n      dup6\n        /* \"#utility.yul\":3892:3899   */\n      dup8\n        /* \"#utility.yul\":3888:3911   */\n      sub\n        /* \"#utility.yul\":3884:3917   */\n      slt\n        /* \"#utility.yul\":3881:4001   */\n      iszero\n      tag_351\n      jumpi\n        /* \"#utility.yul\":3920:3999   */\n      tag_352\n      tag_247\n      jump\t// in\n    tag_352:\n        /* \"#utility.yul\":3881:4001   */\n    tag_351:\n        /* \"#utility.yul\":4040:4041   */\n      0x00\n        /* \"#utility.yul\":4065:4118   */\n      tag_353\n        /* \"#utility.yul\":4110:4117   */\n      dup8\n        /* \"#utility.yul\":4101:4107   */\n      dup3\n        /* \"#utility.yul\":4090:4099   */\n      dup9\n        /* \"#utility.yul\":4086:4108   */\n      add\n        /* \"#utility.yul\":4065:4118   */\n      tag_255\n      jump\t// in\n    tag_353:\n        /* \"#utility.yul\":4055:4118   */\n      swap5\n      pop\n        /* \"#utility.yul\":4011:4128   */\n      pop\n        /* \"#utility.yul\":4167:4169   */\n      0x20\n        /* \"#utility.yul\":4193:4246   */\n      tag_354\n        /* \"#utility.yul\":4238:4245   */\n      dup8\n        /* \"#utility.yul\":4229:4235   */\n      dup3\n        /* \"#utility.yul\":4218:4227   */\n      dup9\n        /* \"#utility.yul\":4214:4236   */\n      add\n        /* \"#utility.yul\":4193:4246   */\n      tag_255\n      jump\t// in\n    tag_354:\n        /* \"#utility.yul\":4183:4246   */\n      swap4\n      pop\n        /* \"#utility.yul\":4138:4256   */\n      pop\n        /* \"#utility.yul\":4295:4297   */\n      0x40\n        /* \"#utility.yul\":4321:4374   */\n      tag_355\n        /* \"#utility.yul\":4366:4373   */\n      dup8\n        /* \"#utility.yul\":4357:4363   */\n      dup3\n        /* \"#utility.yul\":4346:4355   */\n      dup9\n        /* \"#utility.yul\":4342:4364   */\n      add\n        /* \"#utility.yul\":4321:4374   */\n      tag_251\n      jump\t// in\n    tag_355:\n        /* \"#utility.yul\":4311:4374   */\n      swap3\n      pop\n        /* \"#utility.yul\":4266:4384   */\n      pop\n        /* \"#utility.yul\":4451:4453   */\n      0x60\n        /* \"#utility.yul\":4440:4449   */\n      dup6\n        /* \"#utility.yul\":4436:4454   */\n      add\n        /* \"#utility.yul\":4423:4455   */\n      calldataload\n        /* \"#utility.yul\":4482:4500   */\n      0xffffffffffffffff\n        /* \"#utility.yul\":4474:4480   */\n      dup2\n        /* \"#utility.yul\":4471:4501   */\n      gt\n        /* \"#utility.yul\":4468:4585   */\n      iszero\n      tag_356\n      jumpi\n        /* \"#utility.yul\":4504:4583   */\n      tag_357\n      tag_248\n      jump\t// in\n    tag_357:\n        /* \"#utility.yul\":4468:4585   */\n    tag_356:\n        /* \"#utility.yul\":4609:4671   */\n      tag_358\n        /* \"#utility.yul\":4663:4670   */\n      dup8\n        /* \"#utility.yul\":4654:4660   */\n      dup3\n        /* \"#utility.yul\":4643:4652   */\n      dup9\n        /* \"#utility.yul\":4639:4661   */\n      add\n        /* \"#utility.yul\":4609:4671   */\n      tag_264\n      jump\t// in\n    tag_358:\n        /* \"#utility.yul\":4599:4671   */\n      swap2\n      pop\n        /* \"#utility.yul\":4394:4681   */\n      pop\n        /* \"#utility.yul\":3745:4688   */\n      swap3\n      swap6\n      swap2\n      swap5\n      pop\n      swap3\n      pop\n      jump\t// out\n        /* \"#utility.yul\":4694:4843   */\n    tag_265:\n        /* \"#utility.yul\":4730:4737   */\n      0x00\n        /* \"#utility.yul\":4770:4836   */\n      0xffffffff00000000000000000000000000000000000000000000000000000000\n        /* \"#utility.yul\":4763:4768   */\n      dup3\n        /* \"#utility.yul\":4759:4837   */\n      and\n        /* \"#utility.yul\":4748:4837   */\n      swap1\n      pop\n        /* \"#utility.yul\":4694:4843   */\n      swap2\n      swap1\n      pop\n      jump\t// out\n        /* \"#utility.yul\":4849:4964   */\n    tag_266:\n        /* \"#utility.yul\":4934:4957   */\n      tag_361\n        /* \"#utility.yul\":4951:4956   */\n      dup2\n        /* \"#utility.yul\":4934:4957   */\n      tag_265\n      jump\t// in\n    tag_361:\n        /* \"#utility.yul\":4929:4932   */\n      dup3\n        /* \"#utility.yul\":4922:4958   */\n      mstore\n        /* \"#utility.yul\":4849:4964   */\n      pop\n      pop\n      jump\t// out\n        /* \"#utility.yul\":4970:5188   */\n    tag_23:\n        /* \"#utility.yul\":5061:5065   */\n      0x00\n        /* \"#utility.yul\":5099:5101   */\n      0x20\n        /* \"#utility.yul\":5088:5097   */\n      dup3\n        /* \"#utility.yul\":5084:5102   */\n      add\n        /* \"#utility.yul\":5076:5102   */\n      swap1\n      pop\n        /* \"#utility.yul\":5112:5181   */\n      tag_363\n        /* \"#utility.yul\":5178:5179   */\n      0x00\n        /* \"#utility.yul\":5167:5176   */\n      dup4\n        /* \"#utility.yul\":5163:5180   */\n      add\n        /* \"#utility.yul\":5154:5160   */\n      dup5\n        /* \"#utility.yul\":5112:5181   */\n      tag_266\n      jump\t// in\n    tag_363:\n        /* \"#utility.yul\":4970:5188   */\n      swap3\n      swap2\n      pop\n      pop\n      jump\t// out\n        /* \"#utility.yul\":5194:5523   */\n    tag_27:\n        /* \"#utility.yul\":5253:5259   */\n      0x00\n        /* \"#utility.yul\":5302:5304   */\n      0x20\n        /* \"#utility.yul\":5290:5299   */\n      dup3\n        /* \"#utility.yul\":5281:5288   */\n      dup5\n        /* \"#utility.yul\":5277:5300   */\n      sub\n        /* \"#utility.yul\":5273:5305   */\n      slt\n        /* \"#utility.yul\":5270:5389   */\n      iszero\n      tag_365\n      jumpi\n        /* \"#utility.yul\":5308:5387   */\n      tag_366\n      tag_247\n      jump\t// in\n    tag_366:\n        /* \"#utility.yul\":5270:5389   */\n    tag_365:\n        /* \"#utility.yul\":5428:5429   */\n      0x00\n        /* \"#utility.yul\":5453:5506   */\n      tag_367\n        /* \"#utility.yul\":5498:5505   */\n      dup5\n        /* \"#utility.yul\":5489:5495   */\n      dup3\n        /* \"#utility.yul\":5478:5487   */\n      dup6\n        /* \"#utility.yul\":5474:5496   */\n      add\n        /* \"#utility.yul\":5453:5506   */\n      tag_255\n      jump\t// in\n    tag_367:\n        /* \"#utility.yul\":5443:5506   */\n      swap2\n      pop\n        /* \"#utility.yul\":5399:5516   */\n      pop\n        /* \"#utility.yul\":5194:5523   */\n      swap3\n      swap2\n      pop\n      pop\n      jump\t// out\n        /* \"#utility.yul\":5529:6148   */\n    tag_32:\n        /* \"#utility.yul\":5606:5612   */\n      0x00\n        /* \"#utility.yul\":5614:5620   */\n      dup1\n        /* \"#utility.yul\":5622:5628   */\n      0x00\n        /* \"#utility.yul\":5671:5673   */\n      0x60\n        /* \"#utility.yul\":5659:5668   */\n      dup5\n        /* \"#utility.yul\":5650:5657   */\n      dup7\n        /* \"#utility.yul\":5646:5669   */\n      sub\n        /* \"#utility.yul\":5642:5674   */\n      slt\n        /* \"#utility.yul\":5639:5758   */\n      iszero\n      tag_369\n      jumpi\n        /* \"#utility.yul\":5677:5756   */\n      tag_370\n      tag_247\n      jump\t// in\n    tag_370:\n        /* \"#utility.yul\":5639:5758   */\n    tag_369:\n        /* \"#utility.yul\":5797:5798   */\n      0x00\n        /* \"#utility.yul\":5822:5875   */\n      tag_371\n        /* \"#utility.yul\":5867:5874   */\n      dup7\n        /* \"#utility.yul\":5858:5864   */\n      dup3\n        /* \"#utility.yul\":5847:5856   */\n      dup8\n        /* \"#utility.yul\":5843:5865   */\n      add\n        /* \"#utility.yul\":5822:5875   */\n      tag_255\n      jump\t// in\n    tag_371:\n        /* \"#utility.yul\":5812:5875   */\n      swap4\n      pop\n        /* \"#utility.yul\":5768:5885   */\n      pop\n        /* \"#utility.yul\":5924:5926   */\n      0x20\n        /* \"#utility.yul\":5950:6003   */\n      tag_372\n        /* \"#utility.yul\":5995:6002   */\n      dup7\n        /* \"#utility.yul\":5986:5992   */\n      dup3\n        /* \"#utility.yul\":5975:5984   */\n      dup8\n        /* \"#utility.yul\":5971:5993   */\n      add\n        /* \"#utility.yul\":5950:6003   */\n      tag_255\n      jump\t// in\n    tag_372:\n        /* \"#utility.yul\":5940:6003   */\n      swap3\n      pop\n        /* \"#utility.yul\":5895:6013   */\n      pop\n        /* \"#utility.yul\":6052:6054   */\n      0x40\n        /* \"#utility.yul\":6078:6131   */\n      tag_373\n        /* \"#utility.yul\":6123:6130   */\n      dup7\n        /* \"#utility.yul\":6114:6120   */\n      dup3\n        /* \"#utility.yul\":6103:6112   */\n      dup8\n        /* \"#utility.yul\":6099:6121   */\n      add\n        /* \"#utility.yul\":6078:6131   */\n      tag_251\n      jump\t// in\n    tag_373:\n        /* \"#utility.yul\":6068:6131   */\n      swap2\n      pop\n        /* \"#utility.yul\":6023:6141   */\n      pop\n        /* \"#utility.yul\":5529:6148   */\n      swap3\n      pop\n      swap3\n      pop\n      swap3\n      jump\t// out\n        /* \"#utility.yul\":6154:6253   */\n    tag_267:\n        /* \"#utility.yul\":6206:6212   */\n      0x00\n        /* \"#utility.yul\":6240:6245   */\n      dup2\n        /* \"#utility.yul\":6234:6246   */\n      mload\n        /* \"#utility.yul\":6224:6246   */\n      swap1\n      pop\n        /* \"#utility.yul\":6154:6253   */\n      swap2\n      swap1\n      pop\n      jump\t// out\n        /* \"#utility.yul\":6259:6428   */\n    tag_268:\n        /* \"#utility.yul\":6343:6354   */\n      0x00\n        /* \"#utility.yul\":6377:6383   */\n      dup3\n        /* \"#utility.yul\":6372:6375   */\n      dup3\n        /* \"#utility.yul\":6365:6384   */\n      mstore\n        /* \"#utility.yul\":6417:6421   */\n      0x20\n        /* \"#utility.yul\":6412:6415   */\n      dup3\n        /* \"#utility.yul\":6408:6422   */\n      add\n        /* \"#utility.yul\":6393:6422   */\n      swap1\n      pop\n        /* \"#utility.yul\":6259:6428   */\n      swap3\n      swap2\n      pop\n      pop\n      jump\t// out\n        /* \"#utility.yul\":6434:6680   */\n    tag_269:\n        /* \"#utility.yul\":6515:6516   */\n      0x00\n        /* \"#utility.yul\":6525:6638   */\n    tag_377:\n        /* \"#utility.yul\":6539:6545   */\n      dup4\n        /* \"#utility.yul\":6536:6537   */\n      dup2\n        /* \"#utility.yul\":6533:6546   */\n      lt\n        /* \"#utility.yul\":6525:6638   */\n      iszero\n      tag_379\n      jumpi\n        /* \"#utility.yul\":6624:6625   */\n      dup1\n        /* \"#utility.yul\":6619:6622   */\n      dup3\n        /* \"#utility.yul\":6615:6626   */\n      add\n        /* \"#utility.yul\":6609:6627   */\n      mload\n        /* \"#utility.yul\":6605:6606   */\n      dup2\n        /* \"#utility.yul\":6600:6603   */\n      dup5\n        /* \"#utility.yul\":6596:6607   */\n      add\n        /* \"#utility.yul\":6589:6628   */\n      mstore\n        /* \"#utility.yul\":6561:6563   */\n      0x20\n        /* \"#utility.yul\":6558:6559   */\n      dup2\n        /* \"#utility.yul\":6554:6564   */\n      add\n        /* \"#utility.yul\":6549:6564   */\n      swap1\n      pop\n        /* \"#utility.yul\":6525:6638   */\n      jump(tag_377)\n    tag_379:\n        /* \"#utility.yul\":6672:6673   */\n      0x00\n        /* \"#utility.yul\":6663:6669   */\n      dup5\n        /* \"#utility.yul\":6658:6661   */\n      dup5\n        /* \"#utility.yul\":6654:6670   */\n      add\n        /* \"#utility.yul\":6647:6674   */\n      mstore\n        /* \"#utility.yul\":6496:6680   */\n      pop\n        /* \"#utility.yul\":6434:6680   */\n      pop\n      pop\n      pop\n      jump\t// out\n        /* \"#utility.yul\":6686:7063   */\n    tag_270:\n        /* \"#utility.yul\":6774:6777   */\n      0x00\n        /* \"#utility.yul\":6802:6841   */\n      tag_381\n        /* \"#utility.yul\":6835:6840   */\n      dup3\n        /* \"#utility.yul\":6802:6841   */\n      tag_267\n      jump\t// in\n    tag_381:\n        /* \"#utility.yul\":6857:6928   */\n      tag_382\n        /* \"#utility.yul\":6921:6927   */\n      dup2\n        /* \"#utility.yul\":6916:6919   */\n      dup6\n        /* \"#utility.yul\":6857:6928   */\n      tag_268\n      jump\t// in\n    tag_382:\n        /* \"#utility.yul\":6850:6928   */\n      swap4\n      pop\n        /* \"#utility.yul\":6937:7002   */\n      tag_383\n        /* \"#utility.yul\":6995:7001   */\n      dup2\n        /* \"#utility.yul\":6990:6993   */\n      dup6\n        /* \"#utility.yul\":6983:6987   */\n      0x20\n        /* \"#utility.yul\":6976:6981   */\n      dup7\n        /* \"#utility.yul\":6972:6988   */\n      add\n        /* \"#utility.yul\":6937:7002   */\n      tag_269\n      jump\t// in\n    tag_383:\n        /* \"#utility.yul\":7027:7056   */\n      tag_384\n        /* \"#utility.yul\":7049:7055   */\n      dup2\n        /* \"#utility.yul\":7027:7056   */\n      tag_258\n      jump\t// in\n    tag_384:\n        /* \"#utility.yul\":7022:7025   */\n      dup5\n        /* \"#utility.yul\":7018:7057   */\n      add\n        /* \"#utility.yul\":7011:7057   */\n      swap2\n      pop\n        /* \"#utility.yul\":6778:7063   */\n      pop\n        /* \"#utility.yul\":6686:7063   */\n      swap3\n      swap2\n      pop\n      pop\n      jump\t// out\n        /* \"#utility.yul\":7069:7382   */\n    tag_39:\n        /* \"#utility.yul\":7182:7186   */\n      0x00\n        /* \"#utility.yul\":7220:7222   */\n      0x20\n        /* \"#utility.yul\":7209:7218   */\n      dup3\n        /* \"#utility.yul\":7205:7223   */\n      add\n        /* \"#utility.yul\":7197:7223   */\n      swap1\n      pop\n        /* \"#utility.yul\":7269:7278   */\n      dup2\n        /* \"#utility.yul\":7263:7267   */\n      dup2\n        /* \"#utility.yul\":7259:7279   */\n      sub\n        /* \"#utility.yul\":7255:7256   */\n      0x00\n        /* \"#utility.yul\":7244:7253   */\n      dup4\n        /* \"#utility.yul\":7240:7257   */\n      add\n        /* \"#utility.yul\":7233:7280   */\n      mstore\n        /* \"#utility.yul\":7297:7375   */\n      tag_386\n        /* \"#utility.yul\":7370:7374   */\n      dup2\n        /* \"#utility.yul\":7361:7367   */\n      dup5\n        /* \"#utility.yul\":7297:7375   */\n      tag_270\n      jump\t// in\n    tag_386:\n        /* \"#utility.yul\":7289:7375   */\n      swap1\n      pop\n        /* \"#utility.yul\":7069:7382   */\n      swap3\n      swap2\n      pop\n      pop\n      jump\t// out\n        /* \"#utility.yul\":7388:7506   */\n    tag_271:\n        /* \"#utility.yul\":7475:7499   */\n      tag_388\n        /* \"#utility.yul\":7493:7498   */\n      dup2\n        /* \"#utility.yul\":7475:7499   */\n      tag_249\n      jump\t// in\n    tag_388:\n        /* \"#utility.yul\":7470:7473   */\n      dup3\n        /* \"#utility.yul\":7463:7500   */\n      mstore\n        /* \"#utility.yul\":7388:7506   */\n      pop\n      pop\n      jump\t// out\n        /* \"#utility.yul\":7512:7734   */\n    tag_48:\n        /* \"#utility.yul\":7605:7609   */\n      0x00\n        /* \"#utility.yul\":7643:7645   */\n      0x20\n        /* \"#utility.yul\":7632:7641   */\n      dup3\n        /* \"#utility.yul\":7628:7646   */\n      add\n        /* \"#utility.yul\":7620:7646   */\n      swap1\n      pop\n        /* \"#utility.yul\":7656:7727   */\n      tag_390\n        /* \"#utility.yul\":7724:7725   */\n      0x00\n        /* \"#utility.yul\":7713:7722   */\n      dup4\n        /* \"#utility.yul\":7709:7726   */\n      add\n        /* \"#utility.yul\":7700:7706   */\n      dup5\n        /* \"#utility.yul\":7656:7727   */\n      tag_271\n      jump\t// in\n    tag_390:\n        /* \"#utility.yul\":7512:7734   */\n      swap3\n      swap2\n      pop\n      pop\n      jump\t// out\n        /* \"#utility.yul\":7740:8214   */\n    tag_54:\n        /* \"#utility.yul\":7808:7814   */\n      0x00\n        /* \"#utility.yul\":7816:7822   */\n      dup1\n        /* \"#utility.yul\":7865:7867   */\n      0x40\n        /* \"#utility.yul\":7853:7862   */\n      dup4\n        /* \"#utility.yul\":7844:7851   */\n      dup6\n        /* \"#utility.yul\":7840:7863   */\n      sub\n        /* \"#utility.yul\":7836:7868   */\n      slt\n        /* \"#utility.yul\":7833:7952   */\n      iszero\n      tag_392\n      jumpi\n        /* \"#utility.yul\":7871:7950   */\n      tag_393\n      tag_247\n      jump\t// in\n    tag_393:\n        /* \"#utility.yul\":7833:7952   */\n    tag_392:\n        /* \"#utility.yul\":7991:7992   */\n      0x00\n        /* \"#utility.yul\":8016:8069   */\n      tag_394\n        /* \"#utility.yul\":8061:8068   */\n      dup6\n        /* \"#utility.yul\":8052:8058   */\n      dup3\n        /* \"#utility.yul\":8041:8050   */\n      dup7\n        /* \"#utility.yul\":8037:8059   */\n      add\n        /* \"#utility.yul\":8016:8069   */\n      tag_251\n      jump\t// in\n    tag_394:\n        /* \"#utility.yul\":8006:8069   */\n      swap3\n      pop\n        /* \"#utility.yul\":7962:8079   */\n      pop\n        /* \"#utility.yul\":8118:8120   */\n      0x20\n        /* \"#utility.yul\":8144:8197   */\n      tag_395\n        /* \"#utility.yul\":8189:8196   */\n      dup6\n        /* \"#utility.yul\":8180:8186   */\n      dup3\n        /* \"#utility.yul\":8169:8178   */\n      dup7\n        /* \"#utility.yul\":8165:8187   */\n      add\n        /* \"#utility.yul\":8144:8197   */\n      tag_255\n      jump\t// in\n    tag_395:\n        /* \"#utility.yul\":8134:8197   */\n      swap2\n      pop\n        /* \"#utility.yul\":8089:8207   */\n      pop\n        /* \"#utility.yul\":7740:8214   */\n      swap3\n      pop\n      swap3\n      swap1\n      pop\n      jump\t// out\n        /* \"#utility.yul\":8220:8400   */\n    tag_272:\n        /* \"#utility.yul\":8388:8393   */\n      0x69643d0000000000000000000000000000000000000000000000000000000000\n        /* \"#utility.yul\":8383:8386   */\n      dup2\n        /* \"#utility.yul\":8376:8394   */\n      mstore\n        /* \"#utility.yul\":8220:8400   */\n      pop\n      jump\t// out\n        /* \"#utility.yul\":8406:8554   */\n    tag_273:\n        /* \"#utility.yul\":8508:8519   */\n      0x00\n        /* \"#utility.yul\":8545:8548   */\n      dup2\n        /* \"#utility.yul\":8530:8548   */\n      swap1\n      pop\n        /* \"#utility.yul\":8406:8554   */\n      swap3\n      swap2\n      pop\n      pop\n      jump\t// out\n        /* \"#utility.yul\":8560:8950   */\n    tag_274:\n        /* \"#utility.yul\":8666:8669   */\n      0x00\n        /* \"#utility.yul\":8694:8733   */\n      tag_399\n        /* \"#utility.yul\":8727:8732   */\n      dup3\n        /* \"#utility.yul\":8694:8733   */\n      tag_267\n      jump\t// in\n    tag_399:\n        /* \"#utility.yul\":8749:8838   */\n      tag_400\n        /* \"#utility.yul\":8831:8837   */\n      dup2\n        /* \"#utility.yul\":8826:8829   */\n      dup6\n        /* \"#utility.yul\":8749:8838   */\n      tag_273\n      jump\t// in\n    tag_400:\n        /* \"#utility.yul\":8742:8838   */\n      swap4\n      pop\n        /* \"#utility.yul\":8847:8912   */\n      tag_401\n        /* \"#utility.yul\":8905:8911   */\n      dup2\n        /* \"#utility.yul\":8900:8903   */\n      dup6\n        /* \"#utility.yul\":8893:8897   */\n      0x20\n        /* \"#utility.yul\":8886:8891   */\n      dup7\n        /* \"#utility.yul\":8882:8898   */\n      add\n        /* \"#utility.yul\":8847:8912   */\n      tag_269\n      jump\t// in\n    tag_401:\n        /* \"#utility.yul\":8937:8943   */\n      dup1\n        /* \"#utility.yul\":8932:8935   */\n      dup5\n        /* \"#utility.yul\":8928:8944   */\n      add\n        /* \"#utility.yul\":8921:8944   */\n      swap2\n      pop\n        /* \"#utility.yul\":8670:8950   */\n      pop\n        /* \"#utility.yul\":8560:8950   */\n      swap3\n      swap2\n      pop\n      pop\n      jump\t// out\n        /* \"#utility.yul\":8956:9495   */\n    tag_60:\n        /* \"#utility.yul\":9178:9181   */\n      0x00\n        /* \"#utility.yul\":9193:9330   */\n      tag_403\n        /* \"#utility.yul\":9326:9329   */\n      dup3\n        /* \"#utility.yul\":9193:9330   */\n      tag_272\n      jump\t// in\n    tag_403:\n        /* \"#utility.yul\":9355:9356   */\n      0x03\n        /* \"#utility.yul\":9350:9353   */\n      dup3\n        /* \"#utility.yul\":9346:9357   */\n      add\n        /* \"#utility.yul\":9339:9357   */\n      swap2\n      pop\n        /* \"#utility.yul\":9374:9469   */\n      tag_404\n        /* \"#utility.yul\":9465:9468   */\n      dup3\n        /* \"#utility.yul\":9456:9462   */\n      dup5\n        /* \"#utility.yul\":9374:9469   */\n      tag_274\n      jump\t// in\n    tag_404:\n        /* \"#utility.yul\":9367:9469   */\n      swap2\n      pop\n        /* \"#utility.yul\":9486:9489   */\n      dup2\n        /* \"#utility.yul\":9479:9489   */\n      swap1\n      pop\n        /* \"#utility.yul\":8956:9495   */\n      swap3\n      swap2\n      pop\n      pop\n      jump\t// out\n        /* \"#utility.yul\":9501:9619   */\n    tag_275:\n        /* \"#utility.yul\":9588:9612   */\n      tag_406\n        /* \"#utility.yul\":9606:9611   */\n      dup2\n        /* \"#utility.yul\":9588:9612   */\n      tag_253\n      jump\t// in\n    tag_406:\n        /* \"#utility.yul\":9583:9586   */\n      dup3\n        /* \"#utility.yul\":9576:9613   */\n      mstore\n        /* \"#utility.yul\":9501:9619   */\n      pop\n      pop\n      jump\t// out\n        /* \"#utility.yul\":9625:10158   */\n    tag_66:\n        /* \"#utility.yul\":9794:9798   */\n      0x00\n        /* \"#utility.yul\":9832:9834   */\n      0x60\n        /* \"#utility.yul\":9821:9830   */\n      dup3\n        /* \"#utility.yul\":9817:9835   */\n      add\n        /* \"#utility.yul\":9809:9835   */\n      swap1\n      pop\n        /* \"#utility.yul\":9845:9916   */\n      tag_408\n        /* \"#utility.yul\":9913:9914   */\n      0x00\n        /* \"#utility.yul\":9902:9911   */\n      dup4\n        /* \"#utility.yul\":9898:9915   */\n      add\n        /* \"#utility.yul\":9889:9895   */\n      dup7\n        /* \"#utility.yul\":9845:9916   */\n      tag_275\n      jump\t// in\n    tag_408:\n        /* \"#utility.yul\":9926:9998   */\n      tag_409\n        /* \"#utility.yul\":9994:9996   */\n      0x20\n        /* \"#utility.yul\":9983:9992   */\n      dup4\n        /* \"#utility.yul\":9979:9997   */\n      add\n        /* \"#utility.yul\":9970:9976   */\n      dup6\n        /* \"#utility.yul\":9926:9998   */\n      tag_271\n      jump\t// in\n    tag_409:\n        /* \"#utility.yul\":10045:10054   */\n      dup2\n        /* \"#utility.yul\":10039:10043   */\n      dup2\n        /* \"#utility.yul\":10035:10055   */\n      sub\n        /* \"#utility.yul\":10030:10032   */\n      0x40\n        /* \"#utility.yul\":10019:10028   */\n      dup4\n        /* \"#utility.yul\":10015:10033   */\n      add\n        /* \"#utility.yul\":10008:10056   */\n      mstore\n        /* \"#utility.yul\":10073:10151   */\n      tag_410\n        /* \"#utility.yul\":10146:10150   */\n      dup2\n        /* \"#utility.yul\":10137:10143   */\n      dup5\n        /* \"#utility.yul\":10073:10151   */\n      tag_270\n      jump\t// in\n    tag_410:\n        /* \"#utility.yul\":10065:10151   */\n      swap1\n      pop\n        /* \"#utility.yul\":9625:10158   */\n      swap5\n      swap4\n      pop\n      pop\n      pop\n      pop\n      jump\t// out\n        /* \"#utility.yul\":10164:10606   */\n    tag_74:\n        /* \"#utility.yul\":10313:10317   */\n      0x00\n        /* \"#utility.yul\":10351:10353   */\n      0x60\n        /* \"#utility.yul\":10340:10349   */\n      dup3\n        /* \"#utility.yul\":10336:10354   */\n      add\n        /* \"#utility.yul\":10328:10354   */\n      swap1\n      pop\n        /* \"#utility.yul\":10364:10435   */\n      tag_412\n        /* \"#utility.yul\":10432:10433   */\n      0x00\n        /* \"#utility.yul\":10421:10430   */\n      dup4\n        /* \"#utility.yul\":10417:10434   */\n      add\n        /* \"#utility.yul\":10408:10414   */\n      dup7\n        /* \"#utility.yul\":10364:10435   */\n      tag_275\n      jump\t// in\n    tag_412:\n        /* \"#utility.yul\":10445:10517   */\n      tag_413\n        /* \"#utility.yul\":10513:10515   */\n      0x20\n        /* \"#utility.yul\":10502:10511   */\n      dup4\n        /* \"#utility.yul\":10498:10516   */\n      add\n        /* \"#utility.yul\":10489:10495   */\n      dup6\n        /* \"#utility.yul\":10445:10517   */\n      tag_271\n      jump\t// in\n    tag_413:\n        /* \"#utility.yul\":10527:10599   */\n      tag_414\n        /* \"#utility.yul\":10595:10597   */\n      0x40\n        /* \"#utility.yul\":10584:10593   */\n      dup4\n        /* \"#utility.yul\":10580:10598   */\n      add\n        /* \"#utility.yul\":10571:10577   */\n      dup5\n        /* \"#utility.yul\":10527:10599   */\n      tag_275\n      jump\t// in\n    tag_414:\n        /* \"#utility.yul\":10164:10606   */\n      swap5\n      swap4\n      pop\n      pop\n      pop\n      pop\n      jump\t// out\n        /* \"#utility.yul\":10612:10792   */\n    tag_276:\n        /* \"#utility.yul\":10660:10737   */\n      0x4e487b7100000000000000000000000000000000000000000000000000000000\n        /* \"#utility.yul\":10657:10658   */\n      0x00\n        /* \"#utility.yul\":10650:10738   */\n      mstore\n        /* \"#utility.yul\":10757:10761   */\n      0x11\n        /* \"#utility.yul\":10754:10755   */\n      0x04\n        /* \"#utility.yul\":10747:10762   */\n      mstore\n        /* \"#utility.yul\":10781:10785   */\n      0x24\n        /* \"#utility.yul\":10778:10779   */\n      0x00\n        /* \"#utility.yul\":10771:10786   */\n      revert\n        /* \"#utility.yul\":10798:11031   */\n    tag_86:\n        /* \"#utility.yul\":10837:10840   */\n      0x00\n        /* \"#utility.yul\":10860:10884   */\n      tag_417\n        /* \"#utility.yul\":10878:10883   */\n      dup3\n        /* \"#utility.yul\":10860:10884   */\n      tag_249\n      jump\t// in\n    tag_417:\n        /* \"#utility.yul\":10851:10884   */\n      swap2\n      pop\n        /* \"#utility.yul\":10906:10972   */\n      0xffffffffffffffffffffffffffffffffffffffffffffffffffffffffffffffff\n        /* \"#utility.yul\":10899:10904   */\n      dup3\n        /* \"#utility.yul\":10896:10973   */\n      sub\n        /* \"#utility.yul\":10893:10996   */\n      tag_418\n      jumpi\n        /* \"#utility.yul\":10976:10994   */\n      tag_419\n      tag_276\n      jump\t// in\n    tag_419:\n        /* \"#utility.yul\":10893:10996   */\n    tag_418:\n        /* \"#utility.yul\":11023:11024   */\n      0x01\n        /* \"#utility.yul\":11016:11021   */\n      dup3\n        /* \"#utility.yul\":11012:11025   */\n      add\n        /* \"#utility.yul\":11005:11025   */\n      swap1\n      pop\n        /* \"#utility.yul\":10798:11031   */\n      swap2\n      swap1\n      pop\n      jump\t// out\n        /* \"#utility.yul\":11037:11215   */\n    tag_277:\n        /* \"#utility.yul\":11205:11208   */\n      0x2c00000000000000000000000000000000000000000000000000000000000000\n        /* \"#utility.yul\":11200:11203   */\n      dup2\n        /* \"#utility.yul\":11193:11209   */\n      mstore\n        /* \"#utility.yul\":11037:11215   */\n      pop\n      jump\t// out\n        /* \"#utility.yul\":11221:12768   */\n    tag_92:\n        /* \"#utility.yul\":11767:11770   */\n      0x00\n        /* \"#utility.yul\":11789:11884   */\n      tag_422\n        /* \"#utility.yul\":11880:11883   */\n      dup3\n        /* \"#utility.yul\":11871:11877   */\n      dup8\n        /* \"#utility.yul\":11789:11884   */\n      tag_274\n      jump\t// in\n    tag_422:\n        /* \"#utility.yul\":11782:11884   */\n      swap2\n      pop\n        /* \"#utility.yul\":11894:12031   */\n      tag_423\n        /* \"#utility.yul\":12027:12030   */\n      dup3\n        /* \"#utility.yul\":11894:12031   */\n      tag_277\n      jump\t// in\n    tag_423:\n        /* \"#utility.yul\":12056:12057   */\n      0x01\n        /* \"#utility.yul\":12051:12054   */\n      dup3\n        /* \"#utility.yul\":12047:12058   */\n      add\n        /* \"#utility.yul\":12040:12058   */\n      swap2\n      pop\n        /* \"#utility.yul\":12075:12170   */\n      tag_424\n        /* \"#utility.yul\":12166:12169   */\n      dup3\n        /* \"#utility.yul\":12157:12163   */\n      dup7\n        /* \"#utility.yul\":12075:12170   */\n      tag_274\n      jump\t// in\n    tag_424:\n        /* \"#utility.yul\":12068:12170   */\n      swap2\n      pop\n        /* \"#utility.yul\":12180:12317   */\n      tag_425\n        /* \"#utility.yul\":12313:12316   */\n      dup3\n        /* \"#utility.yul\":12180:12317   */\n      tag_277\n      jump\t// in\n    tag_425:\n        /* \"#utility.yul\":12342:12343   */\n      0x01\n        /* \"#utility.yul\":12337:12340   */\n      dup3\n        /* \"#utility.yul\":12333:12344   */\n      add\n        /* \"#utility.yul\":12326:12344   */\n      swap2\n      pop\n        /* \"#utility.yul\":12361:12456   */\n      tag_426\n        /* \"#utility.yul\":12452:12455   */\n      dup3\n        /* \"#utility.yul\":12443:12449   */\n      dup6\n        /* \"#utility.yul\":12361:12456   */\n      tag_274\n      jump\t// in\n    tag_426:\n        /* \"#utility.yul\":12354:12456   */\n      swap2\n      pop\n        /* \"#utility.yul\":12466:12603   */\n      tag_427\n        /* \"#utility.yul\":12599:12602   */\n      dup3\n        /* \"#utility.yul\":12466:12603   */\n      tag_277\n      jump\t// in\n    tag_427:\n        /* \"#utility.yul\":12628:12629   */\n      0x01\n        /* \"#utility.yul\":12623:12626   */\n      dup3\n        /* \"#utility.yul\":12619:12630   */\n      add\n        /* \"#utility.yul\":12612:12630   */\n      swap2\n      pop\n        /* \"#utility.yul\":12647:12742   */\n      tag_428\n        /* \"#utility.yul\":12738:12741   */\n      dup3\n        /* \"#utility.yul\":12729:12735   */\n      dup5\n        /* \"#utility.yul\":12647:12742   */\n      tag_274\n      jump\t// in\n    tag_428:\n        /* \"#utility.yul\":12640:12742   */\n      swap2\n      pop\n        /* \"#utility.yul\":12759:12762   */\n      dup2\n        /* \"#utility.yul\":12752:12762   */\n      swap1\n      pop\n        /* \"#utility.yul\":11221:12768   */\n      swap6\n      swap5\n      pop\n      pop\n      pop\n      pop\n      pop\n      jump\t// out\n        /* \"#utility.yul\":12774:13197   */\n    tag_110:\n        /* \"#utility.yul\":12915:12919   */\n      0x00\n        /* \"#utility.yul\":12953:12955   */\n      0x40\n        /* \"#utility.yul\":12942:12951   */\n      dup3\n        /* \"#utility.yul\":12938:12956   */\n      add\n        /* \"#utility.yul\":12930:12956   */\n      swap1\n      pop\n        /* \"#utility.yul\":12966:13037   */\n      tag_430\n        /* \"#utility.yul\":13034:13035   */\n      0x00\n        /* \"#utility.yul\":13023:13032   */\n      dup4\n        /* \"#utility.yul\":13019:13036   */\n      add\n        /* \"#utility.yul\":13010:13016   */\n      dup6\n        /* \"#utility.yul\":12966:13037   */\n      tag_275\n      jump\t// in\n    tag_430:\n        /* \"#utility.yul\":13084:13093   */\n      dup2\n        /* \"#utility.yul\":13078:13082   */\n      dup2\n        /* \"#utility.yul\":13074:13094   */\n      sub\n        /* \"#utility.yul\":13069:13071   */\n      0x20\n        /* \"#utility.yul\":13058:13067   */\n      dup4\n        /* \"#utility.yul\":13054:13072   */\n      add\n        /* \"#utility.yul\":13047:13095   */\n      mstore\n        /* \"#utility.yul\":13112:13190   */\n      tag_431\n        /* \"#utility.yul\":13185:13189   */\n      dup2\n        /* \"#utility.yul\":13176:13182   */\n      dup5\n        /* \"#utility.yul\":13112:13190   */\n      tag_270\n      jump\t// in\n    tag_431:\n        /* \"#utility.yul\":13104:13190   */\n      swap1\n      pop\n        /* \"#utility.yul\":12774:13197   */\n      swap4\n      swap3\n      pop\n      pop\n      pop\n      jump\t// out\n        /* \"#utility.yul\":13203:13346   */\n    tag_278:\n        /* \"#utility.yul\":13260:13265   */\n      0x00\n        /* \"#utility.yul\":13291:13297   */\n      dup2\n        /* \"#utility.yul\":13285:13298   */\n      mload\n        /* \"#utility.yul\":13276:13298   */\n      swap1\n      pop\n        /* \"#utility.yul\":13307:13340   */\n      tag_433\n        /* \"#utility.yul\":13334:13339   */\n      dup2\n        /* \"#utility.yul\":13307:13340   */\n      tag_250\n      jump\t// in\n    tag_433:\n        /* \"#utility.yul\":13203:13346   */\n      swap3\n      swap2\n      pop\n      pop\n      jump\t// out\n        /* \"#utility.yul\":13352:13703   */\n    tag_114:\n        /* \"#utility.yul\":13422:13428   */\n      0x00\n        /* \"#utility.yul\":13471:13473   */\n      0x20\n        /* \"#utility.yul\":13459:13468   */\n      dup3\n        /* \"#utility.yul\":13450:13457   */\n      dup5\n        /* \"#utility.yul\":13446:13469   */\n      sub\n        /* \"#utility.yul\":13442:13474   */\n      slt\n        /* \"#utility.yul\":13439:13558   */\n      iszero\n      tag_435\n      jumpi\n        /* \"#utility.yul\":13477:13556   */\n      tag_436\n      tag_247\n      jump\t// in\n    tag_436:\n        /* \"#utility.yul\":13439:13558   */\n    tag_435:\n        /* \"#utility.yul\":13597:13598   */\n      0x00\n        /* \"#utility.yul\":13622:13686   */\n      tag_437\n        /* \"#utility.yul\":13678:13685   */\n      dup5\n        /* \"#utility.yul\":13669:13675   */\n      dup3\n        /* \"#utility.yul\":13658:13667   */\n      dup6\n        /* \"#utility.yul\":13654:13676   */\n      add\n        /* \"#utility.yul\":13622:13686   */\n      tag_278\n      jump\t// in\n    tag_437:\n        /* \"#utility.yul\":13612:13686   */\n      swap2\n      pop\n        /* \"#utility.yul\":13568:13696   */\n      pop\n        /* \"#utility.yul\":13352:13703   */\n      swap3\n      swap2\n      pop\n      pop\n      jump\t// out\n        /* \"#utility.yul\":13709:13894   */\n    tag_279:\n        /* \"#utility.yul\":13877:13887   */\n      0x67726f757049643d000000000000000000000000000000000000000000000000\n        /* \"#utility.yul\":13872:13875   */\n      dup2\n        /* \"#utility.yul\":13865:13888   */\n      mstore\n        /* \"#utility.yul\":13709:13894   */\n      pop\n      jump\t// out\n        /* \"#utility.yul\":13900:14439   */\n    tag_119:\n        /* \"#utility.yul\":14122:14125   */\n      0x00\n        /* \"#utility.yul\":14137:14274   */\n      tag_440\n        /* \"#utility.yul\":14270:14273   */\n      dup3\n        /* \"#utility.yul\":14137:14274   */\n      tag_279\n      jump\t// in\n    tag_440:\n        /* \"#utility.yul\":14299:14300   */\n      0x08\n        /* \"#utility.yul\":14294:14297   */\n      dup3\n        /* \"#utility.yul\":14290:14301   */\n      add\n        /* \"#utility.yul\":14283:14301   */\n      swap2\n      pop\n        /* \"#utility.yul\":14318:14413   */\n      tag_441\n        /* \"#utility.yul\":14409:14412   */\n      dup3\n        /* \"#utility.yul\":14400:14406   */\n      dup5\n        /* \"#utility.yul\":14318:14413   */\n      tag_274\n      jump\t// in\n    tag_441:\n        /* \"#utility.yul\":14311:14413   */\n      swap2\n      pop\n        /* \"#utility.yul\":14430:14433   */\n      dup2\n        /* \"#utility.yul\":14423:14433   */\n      swap1\n      pop\n        /* \"#utility.yul\":13900:14439   */\n      swap3\n      swap2\n      pop\n      pop\n      jump\t// out\n        /* \"#utility.yul\":14445:14625   */\n    tag_140:\n        /* \"#utility.yul\":14493:14570   */\n      0x4e487b7100000000000000000000000000000000000000000000000000000000\n        /* \"#utility.yul\":14490:14491   */\n      0x00\n        /* \"#utility.yul\":14483:14571   */\n      mstore\n        /* \"#utility.yul\":14590:14594   */\n      0x12\n        /* \"#utility.yul\":14587:14588   */\n      0x04\n        /* \"#utility.yul\":14580:14595   */\n      mstore\n        /* \"#utility.yul\":14614:14618   */\n      0x24\n        /* \"#utility.yul\":14611:14612   */\n      0x00\n        /* \"#utility.yul\":14604:14619   */\n      revert\n        /* \"#utility.yul\":14631:14793   */\n    tag_280:\n        /* \"#utility.yul\":14771:14785   */\n      0x44454c4554452046524f4d200000000000000000000000000000000000000000\n        /* \"#utility.yul\":14767:14768   */\n      0x00\n        /* \"#utility.yul\":14759:14765   */\n      dup3\n        /* \"#utility.yul\":14755:14769   */\n      add\n        /* \"#utility.yul\":14748:14786   */\n      mstore\n        /* \"#utility.yul\":14631:14793   */\n      pop\n      jump\t// out\n        /* \"#utility.yul\":14799:15201   */\n    tag_281:\n        /* \"#utility.yul\":14959:14962   */\n      0x00\n        /* \"#utility.yul\":14980:15065   */\n      tag_445\n        /* \"#utility.yul\":15062:15064   */\n      0x0c\n        /* \"#utility.yul\":15057:15060   */\n      dup4\n        /* \"#utility.yul\":14980:15065   */\n      tag_273\n      jump\t// in\n    tag_445:\n        /* \"#utility.yul\":14973:15065   */\n      swap2\n      pop\n        /* \"#utility.yul\":15074:15167   */\n      tag_446\n        /* \"#utility.yul\":15163:15166   */\n      dup3\n        /* \"#utility.yul\":15074:15167   */\n      tag_280\n      jump\t// in\n    tag_446:\n        /* \"#utility.yul\":15192:15194   */\n      0x0c\n        /* \"#utility.yul\":15187:15190   */\n      dup3\n        /* \"#utility.yul\":15183:15195   */\n      add\n        /* \"#utility.yul\":15176:15195   */\n      swap1\n      pop\n        /* \"#utility.yul\":14799:15201   */\n      swap2\n      swap1\n      pop\n      jump\t// out\n        /* \"#utility.yul\":15207:15364   */\n    tag_282:\n        /* \"#utility.yul\":15347:15356   */\n      0x2057484552452000000000000000000000000000000000000000000000000000\n        /* \"#utility.yul\":15343:15344   */\n      0x00\n        /* \"#utility.yul\":15335:15341   */\n      dup3\n        /* \"#utility.yul\":15331:15345   */\n      add\n        /* \"#utility.yul\":15324:15357   */\n      mstore\n        /* \"#utility.yul\":15207:15364   */\n      pop\n      jump\t// out\n        /* \"#utility.yul\":15370:15770   */\n    tag_283:\n        /* \"#utility.yul\":15530:15533   */\n      0x00\n        /* \"#utility.yul\":15551:15635   */\n      tag_449\n        /* \"#utility.yul\":15633:15634   */\n      0x07\n        /* \"#utility.yul\":15628:15631   */\n      dup4\n        /* \"#utility.yul\":15551:15635   */\n      tag_273\n      jump\t// in\n    tag_449:\n        /* \"#utility.yul\":15544:15635   */\n      swap2\n      pop\n        /* \"#utility.yul\":15644:15737   */\n      tag_450\n        /* \"#utility.yul\":15733:15736   */\n      dup3\n        /* \"#utility.yul\":15644:15737   */\n      tag_282\n      jump\t// in\n    tag_450:\n        /* \"#utility.yul\":15762:15763   */\n      0x07\n        /* \"#utility.yul\":15757:15760   */\n      dup3\n        /* \"#utility.yul\":15753:15764   */\n      add\n        /* \"#utility.yul\":15746:15764   */\n      swap1\n      pop\n        /* \"#utility.yul\":15370:15770   */\n      swap2\n      swap1\n      pop\n      jump\t// out\n        /* \"#utility.yul\":15776:16743   */\n    tag_173:\n        /* \"#utility.yul\":16158:16161   */\n      0x00\n        /* \"#utility.yul\":16180:16328   */\n      tag_452\n        /* \"#utility.yul\":16324:16327   */\n      dup3\n        /* \"#utility.yul\":16180:16328   */\n      tag_281\n      jump\t// in\n    tag_452:\n        /* \"#utility.yul\":16173:16328   */\n      swap2\n      pop\n        /* \"#utility.yul\":16345:16440   */\n      tag_453\n        /* \"#utility.yul\":16436:16439   */\n      dup3\n        /* \"#utility.yul\":16427:16433   */\n      dup6\n        /* \"#utility.yul\":16345:16440   */\n      tag_274\n      jump\t// in\n    tag_453:\n        /* \"#utility.yul\":16338:16440   */\n      swap2\n      pop\n        /* \"#utility.yul\":16457:16605   */\n      tag_454\n        /* \"#utility.yul\":16601:16604   */\n      dup3\n        /* \"#utility.yul\":16457:16605   */\n      tag_283\n      jump\t// in\n    tag_454:\n        /* \"#utility.yul\":16450:16605   */\n      swap2\n      pop\n        /* \"#utility.yul\":16622:16717   */\n      tag_455\n        /* \"#utility.yul\":16713:16716   */\n      dup3\n        /* \"#utility.yul\":16704:16710   */\n      dup5\n        /* \"#utility.yul\":16622:16717   */\n      tag_274\n      jump\t// in\n    tag_455:\n        /* \"#utility.yul\":16615:16717   */\n      swap2\n      pop\n        /* \"#utility.yul\":16734:16737   */\n      dup2\n        /* \"#utility.yul\":16727:16737   */\n      swap1\n      pop\n        /* \"#utility.yul\":15776:16743   */\n      swap4\n      swap3\n      pop\n      pop\n      pop\n      jump\t// out\n        /* \"#utility.yul\":16749:16900   */\n    tag_284:\n        /* \"#utility.yul\":16889:16892   */\n      0x2700000000000000000000000000000000000000000000000000000000000000\n        /* \"#utility.yul\":16885:16886   */\n      0x00\n        /* \"#utility.yul\":16877:16883   */\n      dup3\n        /* \"#utility.yul\":16873:16887   */\n      add\n        /* \"#utility.yul\":16866:16893   */\n      mstore\n        /* \"#utility.yul\":16749:16900   */\n      pop\n      jump\t// out\n        /* \"#utility.yul\":16906:17306   */\n    tag_285:\n        /* \"#utility.yul\":17066:17069   */\n      0x00\n        /* \"#utility.yul\":17087:17171   */\n      tag_458\n        /* \"#utility.yul\":17169:17170   */\n      0x01\n        /* \"#utility.yul\":17164:17167   */\n      dup4\n        /* \"#utility.yul\":17087:17171   */\n      tag_273\n      jump\t// in\n    tag_458:\n        /* \"#utility.yul\":17080:17171   */\n      swap2\n      pop\n        /* \"#utility.yul\":17180:17273   */\n      tag_459\n        /* \"#utility.yul\":17269:17272   */\n      dup3\n        /* \"#utility.yul\":17180:17273   */\n      tag_284\n      jump\t// in\n    tag_459:\n        /* \"#utility.yul\":17298:17299   */\n      0x01\n        /* \"#utility.yul\":17293:17296   */\n      dup3\n        /* \"#utility.yul\":17289:17300   */\n      add\n        /* \"#utility.yul\":17282:17300   */\n      swap1\n      pop\n        /* \"#utility.yul\":16906:17306   */\n      swap2\n      swap1\n      pop\n      jump\t// out\n        /* \"#utility.yul\":17312:18119   */\n    tag_178:\n        /* \"#utility.yul\":17646:17649   */\n      0x00\n        /* \"#utility.yul\":17668:17816   */\n      tag_461\n        /* \"#utility.yul\":17812:17815   */\n      dup3\n        /* \"#utility.yul\":17668:17816   */\n      tag_285\n      jump\t// in\n    tag_461:\n        /* \"#utility.yul\":17661:17816   */\n      swap2\n      pop\n        /* \"#utility.yul\":17833:17928   */\n      tag_462\n        /* \"#utility.yul\":17924:17927   */\n      dup3\n        /* \"#utility.yul\":17915:17921   */\n      dup5\n        /* \"#utility.yul\":17833:17928   */\n      tag_274\n      jump\t// in\n    tag_462:\n        /* \"#utility.yul\":17826:17928   */\n      swap2\n      pop\n        /* \"#utility.yul\":17945:18093   */\n      tag_463\n        /* \"#utility.yul\":18089:18092   */\n      dup3\n        /* \"#utility.yul\":17945:18093   */\n      tag_285\n      jump\t// in\n    tag_463:\n        /* \"#utility.yul\":17938:18093   */\n      swap2\n      pop\n        /* \"#utility.yul\":18110:18113   */\n      dup2\n        /* \"#utility.yul\":18103:18113   */\n      swap1\n      pop\n        /* \"#utility.yul\":17312:18119   */\n      swap3\n      swap2\n      pop\n      pop\n      jump\t// out\n        /* \"#utility.yul\":18125:18287   */\n    tag_286:\n        /* \"#utility.yul\":18265:18279   */\n      0x494e5345525420494e544f200000000000000000000000000000000000000000\n        /* \"#utility.yul\":18261:18262   */\n      0x00\n        /* \"#utility.yul\":18253:18259   */\n      dup3\n        /* \"#utility.yul\":18249:18263   */\n      add\n        /* \"#utility.yul\":18242:18280   */\n      mstore\n        /* \"#utility.yul\":18125:18287   */\n      pop\n      jump\t// out\n        /* \"#utility.yul\":18293:18695   */\n    tag_287:\n        /* \"#utility.yul\":18453:18456   */\n      0x00\n        /* \"#utility.yul\":18474:18559   */\n      tag_466\n        /* \"#utility.yul\":18556:18558   */\n      0x0c\n        /* \"#utility.yul\":18551:18554   */\n      dup4\n        /* \"#utility.yul\":18474:18559   */\n      tag_273\n      jump\t// in\n    tag_466:\n        /* \"#utility.yul\":18467:18559   */\n      swap2\n      pop\n        /* \"#utility.yul\":18568:18661   */\n      tag_467\n        /* \"#utility.yul\":18657:18660   */\n      dup3\n        /* \"#utility.yul\":18568:18661   */\n      tag_286\n      jump\t// in\n    tag_467:\n        /* \"#utility.yul\":18686:18688   */\n      0x0c\n        /* \"#utility.yul\":18681:18684   */\n      dup3\n        /* \"#utility.yul\":18677:18689   */\n      add\n        /* \"#utility.yul\":18670:18689   */\n      swap1\n      pop\n        /* \"#utility.yul\":18293:18695   */\n      swap2\n      swap1\n      pop\n      jump\t// out\n        /* \"#utility.yul\":18701:18856   */\n    tag_288:\n        /* \"#utility.yul\":18841:18844   */\n      0x2800000000000000000000000000000000000000000000000000000000000000\n        /* \"#utility.yul\":18837:18838   */\n      0x00\n        /* \"#utility.yul\":18829:18835   */\n      dup3\n        /* \"#utility.yul\":18825:18839   */\n      add\n        /* \"#utility.yul\":18818:18845   */\n      mstore\n        /* \"#utility.yul\":18701:18856   */\n      pop\n      jump\t// out\n        /* \"#utility.yul\":18866:19282   */\n    tag_289:\n        /* \"#utility.yul\":19026:19029   */\n      0x00\n        /* \"#utility.yul\":19051:19135   */\n      tag_470\n        /* \"#utility.yul\":19133:19134   */\n      0x01\n        /* \"#utility.yul\":19128:19131   */\n      dup4\n        /* \"#utility.yul\":19051:19135   */\n      tag_273\n      jump\t// in\n    tag_470:\n        /* \"#utility.yul\":19044:19135   */\n      swap2\n      pop\n        /* \"#utility.yul\":19148:19241   */\n      tag_471\n        /* \"#utility.yul\":19237:19240   */\n      dup3\n        /* \"#utility.yul\":19148:19241   */\n      tag_288\n      jump\t// in\n    tag_471:\n        /* \"#utility.yul\":19270:19271   */\n      0x01\n        /* \"#utility.yul\":19265:19268   */\n      dup3\n        /* \"#utility.yul\":19261:19272   */\n      add\n        /* \"#utility.yul\":19254:19272   */\n      swap1\n      pop\n        /* \"#utility.yul\":18866:19282   */\n      swap2\n      swap1\n      pop\n      jump\t// out\n        /* \"#utility.yul\":19292:19458   */\n    tag_290:\n        /* \"#utility.yul\":19436:19446   */\n      0x2956414c55455328000000000000000000000000000000000000000000000000\n        /* \"#utility.yul\":19432:19433   */\n      0x00\n        /* \"#utility.yul\":19424:19430   */\n      dup3\n        /* \"#utility.yul\":19420:19434   */\n      add\n        /* \"#utility.yul\":19413:19447   */\n      mstore\n        /* \"#utility.yul\":19292:19458   */\n      pop\n      jump\t// out\n        /* \"#utility.yul\":19468:19884   */\n    tag_291:\n        /* \"#utility.yul\":19628:19631   */\n      0x00\n        /* \"#utility.yul\":19653:19737   */\n      tag_474\n        /* \"#utility.yul\":19735:19736   */\n      0x08\n        /* \"#utility.yul\":19730:19733   */\n      dup4\n        /* \"#utility.yul\":19653:19737   */\n      tag_273\n      jump\t// in\n    tag_474:\n        /* \"#utility.yul\":19646:19737   */\n      swap2\n      pop\n        /* \"#utility.yul\":19750:19843   */\n      tag_475\n        /* \"#utility.yul\":19839:19842   */\n      dup3\n        /* \"#utility.yul\":19750:19843   */\n      tag_290\n      jump\t// in\n    tag_475:\n        /* \"#utility.yul\":19872:19873   */\n      0x08\n        /* \"#utility.yul\":19867:19870   */\n      dup3\n        /* \"#utility.yul\":19863:19874   */\n      add\n        /* \"#utility.yul\":19856:19874   */\n      swap1\n      pop\n        /* \"#utility.yul\":19468:19884   */\n      swap2\n      swap1\n      pop\n      jump\t// out\n        /* \"#utility.yul\":19894:20045   */\n    tag_292:\n        /* \"#utility.yul\":20034:20037   */\n      0x2900000000000000000000000000000000000000000000000000000000000000\n        /* \"#utility.yul\":20030:20031   */\n      0x00\n        /* \"#utility.yul\":20022:20028   */\n      dup3\n        /* \"#utility.yul\":20018:20032   */\n      add\n        /* \"#utility.yul\":20011:20038   */\n      mstore\n        /* \"#utility.yul\":19894:20045   */\n      pop\n      jump\t// out\n        /* \"#utility.yul\":20051:20451   */\n    tag_293:\n        /* \"#utility.yul\":20211:20214   */\n      0x00\n        /* \"#utility.yul\":20232:20316   */\n      tag_478\n        /* \"#utility.yul\":20314:20315   */\n      0x01\n        /* \"#utility.yul\":20309:20312   */\n      dup4\n        /* \"#utility.yul\":20232:20316   */\n      tag_273\n      jump\t// in\n    tag_478:\n        /* \"#utility.yul\":20225:20316   */\n      swap2\n      pop\n        /* \"#utility.yul\":20325:20418   */\n      tag_479\n        /* \"#utility.yul\":20414:20417   */\n      dup3\n        /* \"#utility.yul\":20325:20418   */\n      tag_292\n      jump\t// in\n    tag_479:\n        /* \"#utility.yul\":20443:20444   */\n      0x01\n        /* \"#utility.yul\":20438:20441   */\n      dup3\n        /* \"#utility.yul\":20434:20445   */\n      add\n        /* \"#utility.yul\":20427:20445   */\n      swap1\n      pop\n        /* \"#utility.yul\":20051:20451   */\n      swap2\n      swap1\n      pop\n      jump\t// out\n        /* \"#utility.yul\":20457:22116   */\n    tag_182:\n        /* \"#utility.yul\":21089:21092   */\n      0x00\n        /* \"#utility.yul\":21111:21259   */\n      tag_481\n        /* \"#utility.yul\":21255:21258   */\n      dup3\n        /* \"#utility.yul\":21111:21259   */\n      tag_287\n      jump\t// in\n    tag_481:\n        /* \"#utility.yul\":21104:21259   */\n      swap2\n      pop\n        /* \"#utility.yul\":21276:21371   */\n      tag_482\n        /* \"#utility.yul\":21367:21370   */\n      dup3\n        /* \"#utility.yul\":21358:21364   */\n      dup7\n        /* \"#utility.yul\":21276:21371   */\n      tag_274\n      jump\t// in\n    tag_482:\n        /* \"#utility.yul\":21269:21371   */\n      swap2\n      pop\n        /* \"#utility.yul\":21388:21536   */\n      tag_483\n        /* \"#utility.yul\":21532:21535   */\n      dup3\n        /* \"#utility.yul\":21388:21536   */\n      tag_289\n      jump\t// in\n    tag_483:\n        /* \"#utility.yul\":21381:21536   */\n      swap2\n      pop\n        /* \"#utility.yul\":21553:21648   */\n      tag_484\n        /* \"#utility.yul\":21644:21647   */\n      dup3\n        /* \"#utility.yul\":21635:21641   */\n      dup6\n        /* \"#utility.yul\":21553:21648   */\n      tag_274\n      jump\t// in\n    tag_484:\n        /* \"#utility.yul\":21546:21648   */\n      swap2\n      pop\n        /* \"#utility.yul\":21665:21813   */\n      tag_485\n        /* \"#utility.yul\":21809:21812   */\n      dup3\n        /* \"#utility.yul\":21665:21813   */\n      tag_291\n      jump\t// in\n    tag_485:\n        /* \"#utility.yul\":21658:21813   */\n      swap2\n      pop\n        /* \"#utility.yul\":21830:21925   */\n      tag_486\n        /* \"#utility.yul\":21921:21924   */\n      dup3\n        /* \"#utility.yul\":21912:21918   */\n      dup5\n        /* \"#utility.yul\":21830:21925   */\n      tag_274\n      jump\t// in\n    tag_486:\n        /* \"#utility.yul\":21823:21925   */\n      swap2\n      pop\n        /* \"#utility.yul\":21942:22090   */\n      tag_487\n        /* \"#utility.yul\":22086:22089   */\n      dup3\n        /* \"#utility.yul\":21942:22090   */\n      tag_293\n      jump\t// in\n    tag_487:\n        /* \"#utility.yul\":21935:22090   */\n      swap2\n      pop\n        /* \"#utility.yul\":22107:22110   */\n      dup2\n        /* \"#utility.yul\":22100:22110   */\n      swap1\n      pop\n        /* \"#utility.yul\":20457:22116   */\n      swap5\n      swap4\n      pop\n      pop\n      pop\n      pop\n      jump\t// out\n        /* \"#utility.yul\":22122:22532   */\n    tag_185:\n        /* \"#utility.yul\":22162:22169   */\n      0x00\n        /* \"#utility.yul\":22185:22205   */\n      tag_489\n        /* \"#utility.yul\":22203:22204   */\n      dup3\n        /* \"#utility.yul\":22185:22205   */\n      tag_249\n      jump\t// in\n    tag_489:\n        /* \"#utility.yul\":22180:22205   */\n      swap2\n      pop\n        /* \"#utility.yul\":22219:22239   */\n      tag_490\n        /* \"#utility.yul\":22237:22238   */\n      dup4\n        /* \"#utility.yul\":22219:22239   */\n      tag_249\n      jump\t// in\n    tag_490:\n        /* \"#utility.yul\":22214:22239   */\n      swap3\n      pop\n        /* \"#utility.yul\":22274:22275   */\n      dup3\n        /* \"#utility.yul\":22271:22272   */\n      dup3\n        /* \"#utility.yul\":22267:22276   */\n      mul\n        /* \"#utility.yul\":22296:22326   */\n      tag_491\n        /* \"#utility.yul\":22314:22325   */\n      dup2\n        /* \"#utility.yul\":22296:22326   */\n      tag_249\n      jump\t// in\n    tag_491:\n        /* \"#utility.yul\":22285:22326   */\n      swap2\n      pop\n        /* \"#utility.yul\":22475:22476   */\n      dup3\n        /* \"#utility.yul\":22466:22473   */\n      dup3\n        /* \"#utility.yul\":22462:22477   */\n      div\n        /* \"#utility.yul\":22459:22460   */\n      dup5\n        /* \"#utility.yul\":22456:22478   */\n      eq\n        /* \"#utility.yul\":22436:22437   */\n      dup4\n        /* \"#utility.yul\":22429:22438   */\n      iszero\n        /* \"#utility.yul\":22409:22492   */\n      or\n        /* \"#utility.yul\":22386:22525   */\n      tag_492\n      jumpi\n        /* \"#utility.yul\":22505:22523   */\n      tag_493\n      tag_276\n      jump\t// in\n    tag_493:\n        /* \"#utility.yul\":22386:22525   */\n    tag_492:\n        /* \"#utility.yul\":22170:22532   */\n      pop\n        /* \"#utility.yul\":22122:22532   */\n      swap3\n      swap2\n      pop\n      pop\n      jump\t// out\n        /* \"#utility.yul\":22538:22729   */\n    tag_187:\n        /* \"#utility.yul\":22578:22581   */\n      0x00\n        /* \"#utility.yul\":22597:22617   */\n      tag_495\n        /* \"#utility.yul\":22615:22616   */\n      dup3\n        /* \"#utility.yul\":22597:22617   */\n      tag_249\n      jump\t// in\n    tag_495:\n        /* \"#utility.yul\":22592:22617   */\n      swap2\n      pop\n        /* \"#utility.yul\":22631:22651   */\n      tag_496\n        /* \"#utility.yul\":22649:22650   */\n      dup4\n        /* \"#utility.yul\":22631:22651   */\n      tag_249\n      jump\t// in\n    tag_496:\n        /* \"#utility.yul\":22626:22651   */\n      swap3\n      pop\n        /* \"#utility.yul\":22674:22675   */\n      dup3\n        /* \"#utility.yul\":22671:22672   */\n      dup3\n        /* \"#utility.yul\":22667:22676   */\n      add\n        /* \"#utility.yul\":22660:22676   */\n      swap1\n      pop\n        /* \"#utility.yul\":22695:22698   */\n      dup1\n        /* \"#utility.yul\":22692:22693   */\n      dup3\n        /* \"#utility.yul\":22689:22699   */\n      gt\n        /* \"#utility.yul\":22686:22722   */\n      iszero\n      tag_497\n      jumpi\n        /* \"#utility.yul\":22702:22720   */\n      tag_498\n      tag_276\n      jump\t// in\n    tag_498:\n        /* \"#utility.yul\":22686:22722   */\n    tag_497:\n        /* \"#utility.yul\":22538:22729   */\n      swap3\n      swap2\n      pop\n      pop\n      jump\t// out\n        /* \"#utility.yul\":22735:22915   */\n    tag_193:\n        /* \"#utility.yul\":22783:22860   */\n      0x4e487b7100000000000000000000000000000000000000000000000000000000\n        /* \"#utility.yul\":22780:22781   */\n      0x00\n        /* \"#utility.yul\":22773:22861   */\n      mstore\n        /* \"#utility.yul\":22880:22884   */\n      0x32\n        /* \"#utility.yul\":22877:22878   */\n      0x04\n        /* \"#utility.yul\":22870:22885   */\n      mstore\n        /* \"#utility.yul\":22904:22908   */\n      0x24\n        /* \"#utility.yul\":22901:22902   */\n      0x00\n        /* \"#utility.yul\":22894:22909   */\n      revert\n        /* \"#utility.yul\":22921:23092   */\n    tag_206:\n        /* \"#utility.yul\":22960:22963   */\n      0x00\n        /* \"#utility.yul\":22983:23007   */\n      tag_501\n        /* \"#utility.yul\":23001:23006   */\n      dup3\n        /* \"#utility.yul\":22983:23007   */\n      tag_249\n      jump\t// in\n    tag_501:\n        /* \"#utility.yul\":22974:23007   */\n      swap2\n      pop\n        /* \"#utility.yul\":23029:23033   */\n      0x00\n        /* \"#utility.yul\":23022:23027   */\n      dup3\n        /* \"#utility.yul\":23019:23034   */\n      sub\n        /* \"#utility.yul\":23016:23057   */\n      tag_502\n      jumpi\n        /* \"#utility.yul\":23037:23055   */\n      tag_503\n      tag_276\n      jump\t// in\n    tag_503:\n        /* \"#utility.yul\":23016:23057   */\n    tag_502:\n        /* \"#utility.yul\":23084:23085   */\n      0x01\n        /* \"#utility.yul\":23077:23082   */\n      dup3\n        /* \"#utility.yul\":23073:23086   */\n      sub\n        /* \"#utility.yul\":23066:23086   */\n      swap1\n      pop\n        /* \"#utility.yul\":22921:23092   */\n      swap2\n      swap1\n      pop\n      jump\t// out\n        /* \"#utility.yul\":23098:23430   */\n    tag_209:\n        /* \"#utility.yul\":23219:23223   */\n      0x00\n        /* \"#utility.yul\":23257:23259   */\n      0x40\n        /* \"#utility.yul\":23246:23255   */\n      dup3\n        /* \"#utility.yul\":23242:23260   */\n      add\n        /* \"#utility.yul\":23234:23260   */\n      swap1\n      pop\n        /* \"#utility.yul\":23270:23341   */\n      tag_505\n        /* \"#utility.yul\":23338:23339   */\n      0x00\n        /* \"#utility.yul\":23327:23336   */\n      dup4\n        /* \"#utility.yul\":23323:23340   */\n      add\n        /* \"#utility.yul\":23314:23320   */\n      dup6\n        /* \"#utility.yul\":23270:23341   */\n      tag_271\n      jump\t// in\n    tag_505:\n        /* \"#utility.yul\":23351:23423   */\n      tag_506\n        /* \"#utility.yul\":23419:23421   */\n      0x20\n        /* \"#utility.yul\":23408:23417   */\n      dup4\n        /* \"#utility.yul\":23404:23422   */\n      add\n        /* \"#utility.yul\":23395:23401   */\n      dup5\n        /* \"#utility.yul\":23351:23423   */\n      tag_271\n      jump\t// in\n    tag_506:\n        /* \"#utility.yul\":23098:23430   */\n      swap4\n      swap3\n      pop\n      pop\n      pop\n      jump\t// out\n        /* \"#utility.yul\":23436:23587   */\n    tag_294:\n        /* \"#utility.yul\":23576:23579   */\n      0x5f00000000000000000000000000000000000000000000000000000000000000\n        /* \"#utility.yul\":23572:23573   */\n      0x00\n        /* \"#utility.yul\":23564:23570   */\n      dup3\n        /* \"#utility.yul\":23560:23574   */\n      add\n        /* \"#utility.yul\":23553:23580   */\n      mstore\n        /* \"#utility.yul\":23436:23587   */\n      pop\n      jump\t// out\n        /* \"#utility.yul\":23593:23993   */\n    tag_295:\n        /* \"#utility.yul\":23753:23756   */\n      0x00\n        /* \"#utility.yul\":23774:23858   */\n      tag_509\n        /* \"#utility.yul\":23856:23857   */\n      0x01\n        /* \"#utility.yul\":23851:23854   */\n      dup4\n        /* \"#utility.yul\":23774:23858   */\n      tag_273\n      jump\t// in\n    tag_509:\n        /* \"#utility.yul\":23767:23858   */\n      swap2\n      pop\n        /* \"#utility.yul\":23867:23960   */\n      tag_510\n        /* \"#utility.yul\":23956:23959   */\n      dup3\n        /* \"#utility.yul\":23867:23960   */\n      tag_294\n      jump\t// in\n    tag_510:\n        /* \"#utility.yul\":23985:23986   */\n      0x01\n        /* \"#utility.yul\":23980:23983   */\n      dup3\n        /* \"#utility.yul\":23976:23987   */\n      add\n        /* \"#utility.yul\":23969:23987   */\n      swap1\n      pop\n        /* \"#utility.yul\":23593:23993   */\n      swap2\n      swap1\n      pop\n      jump\t// out\n        /* \"#utility.yul\":23999:25126   */\n    tag_214:\n        /* \"#utility.yul\":24429:24432   */\n      0x00\n        /* \"#utility.yul\":24451:24546   */\n      tag_512\n        /* \"#utility.yul\":24542:24545   */\n      dup3\n        /* \"#utility.yul\":24533:24539   */\n      dup7\n        /* \"#utility.yul\":24451:24546   */\n      tag_274\n      jump\t// in\n    tag_512:\n        /* \"#utility.yul\":24444:24546   */\n      swap2\n      pop\n        /* \"#utility.yul\":24563:24711   */\n      tag_513\n        /* \"#utility.yul\":24707:24710   */\n      dup3\n        /* \"#utility.yul\":24563:24711   */\n      tag_295\n      jump\t// in\n    tag_513:\n        /* \"#utility.yul\":24556:24711   */\n      swap2\n      pop\n        /* \"#utility.yul\":24728:24823   */\n      tag_514\n        /* \"#utility.yul\":24819:24822   */\n      dup3\n        /* \"#utility.yul\":24810:24816   */\n      dup6\n        /* \"#utility.yul\":24728:24823   */\n      tag_274\n      jump\t// in\n    tag_514:\n        /* \"#utility.yul\":24721:24823   */\n      swap2\n      pop\n        /* \"#utility.yul\":24840:24988   */\n      tag_515\n        /* \"#utility.yul\":24984:24987   */\n      dup3\n        /* \"#utility.yul\":24840:24988   */\n      tag_295\n      jump\t// in\n    tag_515:\n        /* \"#utility.yul\":24833:24988   */\n      swap2\n      pop\n        /* \"#utility.yul\":25005:25100   */\n      tag_516\n        /* \"#utility.yul\":25096:25099   */\n      dup3\n        /* \"#utility.yul\":25087:25093   */\n      dup5\n        /* \"#utility.yul\":25005:25100   */\n      tag_274\n      jump\t// in\n    tag_516:\n        /* \"#utility.yul\":24998:25100   */\n      swap2\n      pop\n        /* \"#utility.yul\":25117:25120   */\n      dup2\n        /* \"#utility.yul\":25110:25120   */\n      swap1\n      pop\n        /* \"#utility.yul\":23999:25126   */\n      swap5\n      swap4\n      pop\n      pop\n      pop\n      pop\n      jump\t// out\n        /* \"#utility.yul\":25132:25295   */\n    tag_296:\n        /* \"#utility.yul\":25272:25287   */\n      0x435245415445205441424c452000000000000000000000000000000000000000\n        /* \"#utility.yul\":25268:25269   */\n      0x00\n        /* \"#utility.yul\":25260:25266   */\n      dup3\n        /* \"#utility.yul\":25256:25270   */\n      add\n        /* \"#utility.yul\":25249:25288   */\n      mstore\n        /* \"#utility.yul\":25132:25295   */\n      pop\n      jump\t// out\n        /* \"#utility.yul\":25301:25703   */\n    tag_297:\n        /* \"#utility.yul\":25461:25464   */\n      0x00\n        /* \"#utility.yul\":25482:25567   */\n      tag_519\n        /* \"#utility.yul\":25564:25566   */\n      0x0d\n        /* \"#utility.yul\":25559:25562   */\n      dup4\n        /* \"#utility.yul\":25482:25567   */\n      tag_273\n      jump\t// in\n    tag_519:\n        /* \"#utility.yul\":25475:25567   */\n      swap2\n      pop\n        /* \"#utility.yul\":25576:25669   */\n      tag_520\n        /* \"#utility.yul\":25665:25668   */\n      dup3\n        /* \"#utility.yul\":25576:25669   */\n      tag_296\n      jump\t// in\n    tag_520:\n        /* \"#utility.yul\":25694:25696   */\n      0x0d\n        /* \"#utility.yul\":25689:25692   */\n      dup3\n        /* \"#utility.yul\":25685:25697   */\n      add\n        /* \"#utility.yul\":25678:25697   */\n      swap1\n      pop\n        /* \"#utility.yul\":25301:25703   */\n      swap2\n      swap1\n      pop\n      jump\t// out\n        /* \"#utility.yul\":25709:27368   */\n    tag_218:\n        /* \"#utility.yul\":26341:26344   */\n      0x00\n        /* \"#utility.yul\":26363:26511   */\n      tag_522\n        /* \"#utility.yul\":26507:26510   */\n      dup3\n        /* \"#utility.yul\":26363:26511   */\n      tag_297\n      jump\t// in\n    tag_522:\n        /* \"#utility.yul\":26356:26511   */\n      swap2\n      pop\n        /* \"#utility.yul\":26528:26623   */\n      tag_523\n        /* \"#utility.yul\":26619:26622   */\n      dup3\n        /* \"#utility.yul\":26610:26616   */\n      dup7\n        /* \"#utility.yul\":26528:26623   */\n      tag_274\n      jump\t// in\n    tag_523:\n        /* \"#utility.yul\":26521:26623   */\n      swap2\n      pop\n        /* \"#utility.yul\":26640:26788   */\n      tag_524\n        /* \"#utility.yul\":26784:26787   */\n      dup3\n        /* \"#utility.yul\":26640:26788   */\n      tag_295\n      jump\t// in\n    tag_524:\n        /* \"#utility.yul\":26633:26788   */\n      swap2\n      pop\n        /* \"#utility.yul\":26805:26900   */\n      tag_525\n        /* \"#utility.yul\":26896:26899   */\n      dup3\n        /* \"#utility.yul\":26887:26893   */\n      dup6\n        /* \"#utility.yul\":26805:26900   */\n      tag_274\n      jump\t// in\n    tag_525:\n        /* \"#utility.yul\":26798:26900   */\n      swap2\n      pop\n        /* \"#utility.yul\":26917:27065   */\n      tag_526\n        /* \"#utility.yul\":27061:27064   */\n      dup3\n        /* \"#utility.yul\":26917:27065   */\n      tag_289\n      jump\t// in\n    tag_526:\n        /* \"#utility.yul\":26910:27065   */\n      swap2\n      pop\n        /* \"#utility.yul\":27082:27177   */\n      tag_527\n        /* \"#utility.yul\":27173:27176   */\n      dup3\n        /* \"#utility.yul\":27164:27170   */\n      dup5\n        /* \"#utility.yul\":27082:27177   */\n      tag_274\n      jump\t// in\n    tag_527:\n        /* \"#utility.yul\":27075:27177   */\n      swap2\n      pop\n        /* \"#utility.yul\":27194:27342   */\n      tag_528\n        /* \"#utility.yul\":27338:27341   */\n      dup3\n        /* \"#utility.yul\":27194:27342   */\n      tag_293\n      jump\t// in\n    tag_528:\n        /* \"#utility.yul\":27187:27342   */\n      swap2\n      pop\n        /* \"#utility.yul\":27359:27362   */\n      dup2\n        /* \"#utility.yul\":27352:27362   */\n      swap1\n      pop\n        /* \"#utility.yul\":25709:27368   */\n      swap5\n      swap4\n      pop\n      pop\n      pop\n      pop\n      jump\t// out\n        /* \"#utility.yul\":27374:27915   */\n    tag_223:\n        /* \"#utility.yul\":27607:27610   */\n      0x00\n        /* \"#utility.yul\":27629:27777   */\n      tag_530\n        /* \"#utility.yul\":27773:27776   */\n      dup3\n        /* \"#utility.yul\":27629:27777   */\n      tag_283\n      jump\t// in\n    tag_530:\n        /* \"#utility.yul\":27622:27777   */\n      swap2\n      pop\n        /* \"#utility.yul\":27794:27889   */\n      tag_531\n        /* \"#utility.yul\":27885:27888   */\n      dup3\n        /* \"#utility.yul\":27876:27882   */\n      dup5\n        /* \"#utility.yul\":27794:27889   */\n      tag_274\n      jump\t// in\n    tag_531:\n        /* \"#utility.yul\":27787:27889   */\n      swap2\n      pop\n        /* \"#utility.yul\":27906:27909   */\n      dup2\n        /* \"#utility.yul\":27899:27909   */\n      swap1\n      pop\n        /* \"#utility.yul\":27374:27915   */\n      swap3\n      swap2\n      pop\n      pop\n      jump\t// out\n        /* \"#utility.yul\":27921:28078   */\n    tag_298:\n        /* \"#utility.yul\":28061:28070   */\n      0x5550444154452000000000000000000000000000000000000000000000000000\n        /* \"#utility.yul\":28057:28058   */\n      0x00\n        /* \"#utility.yul\":28049:28055   */\n      dup3\n        /* \"#utility.yul\":28045:28059   */\n      add\n        /* \"#utility.yul\":28038:28071   */\n      mstore\n        /* \"#utility.yul\":27921:28078   */\n      pop\n      jump\t// out\n        /* \"#utility.yul\":28084:28484   */\n    tag_299:\n        /* \"#utility.yul\":28244:28247   */\n      0x00\n        /* \"#utility.yul\":28265:28349   */\n      tag_534\n        /* \"#utility.yul\":28347:28348   */\n      0x07\n        /* \"#utility.yul\":28342:28345   */\n      dup4\n        /* \"#utility.yul\":28265:28349   */\n      tag_273\n      jump\t// in\n    tag_534:\n        /* \"#utility.yul\":28258:28349   */\n      swap2\n      pop\n        /* \"#utility.yul\":28358:28451   */\n      tag_535\n        /* \"#utility.yul\":28447:28450   */\n      dup3\n        /* \"#utility.yul\":28358:28451   */\n      tag_298\n      jump\t// in\n    tag_535:\n        /* \"#utility.yul\":28476:28477   */\n      0x07\n        /* \"#utility.yul\":28471:28474   */\n      dup3\n        /* \"#utility.yul\":28467:28478   */\n      add\n        /* \"#utility.yul\":28460:28478   */\n      swap1\n      pop\n        /* \"#utility.yul\":28084:28484   */\n      swap2\n      swap1\n      pop\n      jump\t// out\n        /* \"#utility.yul\":28490:28645   */\n    tag_300:\n        /* \"#utility.yul\":28630:28637   */\n      0x2053455420000000000000000000000000000000000000000000000000000000\n        /* \"#utility.yul\":28626:28627   */\n      0x00\n        /* \"#utility.yul\":28618:28624   */\n      dup3\n        /* \"#utility.yul\":28614:28628   */\n      add\n        /* \"#utility.yul\":28607:28638   */\n      mstore\n        /* \"#utility.yul\":28490:28645   */\n      pop\n      jump\t// out\n        /* \"#utility.yul\":28651:29051   */\n    tag_301:\n        /* \"#utility.yul\":28811:28814   */\n      0x00\n        /* \"#utility.yul\":28832:28916   */\n      tag_538\n        /* \"#utility.yul\":28914:28915   */\n      0x05\n        /* \"#utility.yul\":28909:28912   */\n      dup4\n        /* \"#utility.yul\":28832:28916   */\n      tag_273\n      jump\t// in\n    tag_538:\n        /* \"#utility.yul\":28825:28916   */\n      swap2\n      pop\n        /* \"#utility.yul\":28925:29018   */\n      tag_539\n        /* \"#utility.yul\":29014:29017   */\n      dup3\n        /* \"#utility.yul\":28925:29018   */\n      tag_300\n      jump\t// in\n    tag_539:\n        /* \"#utility.yul\":29043:29044   */\n      0x05\n        /* \"#utility.yul\":29038:29041   */\n      dup3\n        /* \"#utility.yul\":29034:29045   */\n      add\n        /* \"#utility.yul\":29027:29045   */\n      swap1\n      pop\n        /* \"#utility.yul\":28651:29051   */\n      swap2\n      swap1\n      pop\n      jump\t// out\n        /* \"#utility.yul\":29057:30184   */\n    tag_225:\n        /* \"#utility.yul\":29487:29490   */\n      0x00\n        /* \"#utility.yul\":29509:29657   */\n      tag_541\n        /* \"#utility.yul\":29653:29656   */\n      dup3\n        /* \"#utility.yul\":29509:29657   */\n      tag_299\n      jump\t// in\n    tag_541:\n        /* \"#utility.yul\":29502:29657   */\n      swap2\n      pop\n        /* \"#utility.yul\":29674:29769   */\n      tag_542\n        /* \"#utility.yul\":29765:29768   */\n      dup3\n        /* \"#utility.yul\":29756:29762   */\n      dup7\n        /* \"#utility.yul\":29674:29769   */\n      tag_274\n      jump\t// in\n    tag_542:\n        /* \"#utility.yul\":29667:29769   */\n      swap2\n      pop\n        /* \"#utility.yul\":29786:29934   */\n      tag_543\n        /* \"#utility.yul\":29930:29933   */\n      dup3\n        /* \"#utility.yul\":29786:29934   */\n      tag_301\n      jump\t// in\n    tag_543:\n        /* \"#utility.yul\":29779:29934   */\n      swap2\n      pop\n        /* \"#utility.yul\":29951:30046   */\n      tag_544\n        /* \"#utility.yul\":30042:30045   */\n      dup3\n        /* \"#utility.yul\":30033:30039   */\n      dup6\n        /* \"#utility.yul\":29951:30046   */\n      tag_274\n      jump\t// in\n    tag_544:\n        /* \"#utility.yul\":29944:30046   */\n      swap2\n      pop\n        /* \"#utility.yul\":30063:30158   */\n      tag_545\n        /* \"#utility.yul\":30154:30157   */\n      dup3\n        /* \"#utility.yul\":30145:30151   */\n      dup5\n        /* \"#utility.yul\":30063:30158   */\n      tag_274\n      jump\t// in\n    tag_545:\n        /* \"#utility.yul\":30056:30158   */\n      swap2\n      pop\n        /* \"#utility.yul\":30175:30178   */\n      dup2\n        /* \"#utility.yul\":30168:30178   */\n      swap1\n      pop\n        /* \"#utility.yul\":29057:30184   */\n      swap5\n      swap4\n      pop\n      pop\n      pop\n      pop\n      jump\t// out\n    stop\n    data_f58390e20d8c36fa8ca709a923eb4bfed4e6297f3e0854781abb2ace9419018b 696420696e7465676572207072696d617279206b65792c6f776e657220746578742c726f756e64496420696e74656765722c67726f757049642074657874\n\n    auxdata: 0xa264697066735822122078f2e6d975d9ea6e0052cf721303015b9e5d6cf26e8f04c225110f32b21a729264736f6c63430008140033\n}\n",
				"bytecode": {
					"linkReferences": {},
					"object": "60806040525f600155348015610013575f80fd5b50611d12806100215f395ff3fe608060405260043610610085575f3560e01c80633e295859116100585780633e2958591461013d5780635d5a33a21461017957806388e4f1cb146101a3578063b2a4c897146101cd578063e86492b1146101d757610085565b806304bfc47f14610089578063150b7a02146100b157806319129e5a146100ed5780631e2dd19914610115575b5f80fd5b348015610094575f80fd5b506100af60048036038101906100aa9190610fba565b6101ff565b005b3480156100bc575f80fd5b506100d760048036038101906100d2919061117b565b6102e0565b6040516100e49190611235565b60405180910390f35b3480156100f8575f80fd5b50610113600480360381019061010e919061124e565b6102f3565b005b348015610120575f80fd5b5061013b60048036038101906101369190611279565b610368565b005b348015610148575f80fd5b50610163600480360381019061015e919061124e565b6104c9565b6040516101709190611343565b60405180910390f35b348015610184575f80fd5b5061018d6104f3565b60405161019a9190611343565b60405180910390f35b3480156101ae575f80fd5b506101b761053a565b6040516101c49190611372565b60405180910390f35b6101d5610542565b005b3480156101e2575f80fd5b506101fd60048036038101906101f8919061138b565b610621565b005b5f61020982610738565b6040516020016102199190611429565b6040516020818303038152906040529050610232610802565b73ffffffffffffffffffffffffffffffffffffffff1663377af0da305f546102916040518060400160405280601281526020017f737573755f77616c6c6574735f7461626c6500000000000000000000000000008152505f5487610a27565b6040518463ffffffff1660e01b81526004016102af9392919061145d565b5f604051808303815f87803b1580156102c6575f80fd5b505af11580156102d8573d5f803e3d5ffd5b505050505050565b5f63150b7a0260e01b9050949350505050565b6102fb610802565b73ffffffffffffffffffffffffffffffffffffffff16638bb0ab97305f54846040518463ffffffff1660e01b815260040161033893929190611499565b5f604051808303815f87803b15801561034f575f80fd5b505af1158015610361573d5f803e3d5ffd5b5050505050565b5f61037283610a62565b90505f61037e85610a62565b9050610388610802565b73ffffffffffffffffffffffffffffffffffffffff1663377af0da305f546104776040518060400160405280601281526020017f737573755f77616c6c6574735f7461626c6500000000000000000000000000008152505f546040518060400160405280601d81526020017f69642c2067726f757049642c20616464726573732c20726f756e64496400000081525061043560015f81548092919061042c906114fb565b91905055610738565b61043e8a610a8f565b6104478c610a8f565b6104508e610738565b6040516020016104639493929190611568565b604051602081830303815290604052610ab8565b6040518463ffffffff1660e01b81526004016104959392919061145d565b5f604051808303815f87803b1580156104ac575f80fd5b505af11580156104be573d5f803e3d5ffd5b505050505050505050565b60606104ec8273ffffffffffffffffffffffffffffffffffffffff166014610af6565b9050919050565b60606105356040518060400160405280601281526020017f737573755f77616c6c6574735f7461626c6500000000000000000000000000008152505f54610d34565b905090565b5f8054905090565b61054a610802565b73ffffffffffffffffffffffffffffffffffffffff1663a15ab08d306105bd6040518060600160405280603e8152602001611c9f603e91396040518060400160405280601281526020017f737573755f77616c6c6574735f7461626c650000000000000000000000000000815250610d72565b6040518363ffffffff1660e01b81526004016105da9291906115d2565b6020604051808303815f875af11580156105f6573d5f803e3d5ffd5b505050506040513d601f19601f8201168201806040525081019061061a9190611614565b5f81905550565b5f61063361062e83610a62565b610a8f565b6040516020016106439190611665565b60405160208183030381529060405290505f61065e84610738565b60405160200161066e9190611429565b6040516020818303038152906040529050610687610802565b73ffffffffffffffffffffffffffffffffffffffff1663377af0da305f546106e76040518060400160405280601281526020017f737573755f77616c6c6574735f7461626c6500000000000000000000000000008152505f548888610da8565b6040518463ffffffff1660e01b81526004016107059392919061145d565b5f604051808303815f87803b15801561071c575f80fd5b505af115801561072e573d5f803e3d5ffd5b5050505050505050565b60605f600161074684610e25565b0190505f8167ffffffffffffffff81111561076457610763611057565b5b6040519080825280601f01601f1916602001820160405280156107965781602001600182028036833780820191505090505b5090505f82602001820190505b6001156107f7578080600190039150507f3031323334353637383961626364656600000000000000000000000000000000600a86061a8153600a85816107ec576107eb61168a565b5b0494505f85036107a3575b819350505050919050565b5f600146036108275773012969f7e3439a9b04025b5a049eb9bad82a8c129050610a24565b600a460361084b5773fad44bf5b843de943a09d4f3e84949a11d3aa3e69050610a24565b61a4b1460361087057739abd75e8640871a5a20d3b4ee6330a04c962affd9050610a24565b61a4ba460361089557731a22854c5b1642760a827f20137a67930ae108d29050610a24565b608946036108b957735c4e6a9e5c1e1bf445a062006faf19ea6c49afea9050610a24565b61013a46036108de577359ef8bf2d6c102b4c42aef9189e1a9f0abfd652d9050610a24565b62aa36a746036109045773c50c62498448acc8dbde43da77f8d5d2e2c7597d9050610a24565b62aa37dc460361092a577368a2f4423ad3bf5139db563cf3bc80aa09ed70799050610a24565b62066eee46036109505773223a74b8323914afdc3ff1e5005564dc17231d6e9050610a24565b62014a3446036109765773a85aae9f0aec5f5638e5f13840797303ab29c9f99050610a24565b62013882460361099c5773170fb206132b693e38adfc8727dcfa303546cec19050610a24565b6204cb2f46036109c25773030bcf3d50cad04c2e57391b12740982a93086219050610a24565b617a6946036109e75773e7f1725e7734ce288f8367e1bb143e90bb3f05129050610a24565b466040517f264e42cf000000000000000000000000000000000000000000000000000000008152600401610a1b9190611372565b60405180910390fd5b90565b60605f610a348585610d34565b90508083604051602001610a4992919061174b565b6040516020818303038152906040529150509392505050565b6060610a888273ffffffffffffffffffffffffffffffffffffffff16601460ff16610af6565b9050919050565b606081604051602001610aa291906117ce565b6040516020818303038152906040529050919050565b60605f610ac58686610d34565b9050808484604051602001610adc93929190611922565b604051602081830303815290604052915050949350505050565b60605f8390505f6002846002610b0c919061197e565b610b1691906119bf565b67ffffffffffffffff811115610b2f57610b2e611057565b5b6040519080825280601f01601f191660200182016040528015610b615781602001600182028036833780820191505090505b5090507f3000000000000000000000000000000000000000000000000000000000000000815f81518110610b9857610b976119f2565b5b60200101907effffffffffffffffffffffffffffffffffffffffffffffffffffffffffffff191690815f1a9053507f780000000000000000000000000000000000000000000000000000000000000081600181518110610bfb57610bfa6119f2565b5b60200101907effffffffffffffffffffffffffffffffffffffffffffffffffffffffffffff191690815f1a9053505f6001856002610c39919061197e565b610c4391906119bf565b90505b6001811115610ce2577f3031323334353637383961626364656600000000000000000000000000000000600f841660108110610c8557610c846119f2565b5b1a60f81b828281518110610c9c57610c9b6119f2565b5b60200101907effffffffffffffffffffffffffffffffffffffffffffffffffffffffffffff191690815f1a905350600483901c925080610cdb90611a1f565b9050610c46565b505f8214610d295784846040517fe22e27eb000000000000000000000000000000000000000000000000000000008152600401610d20929190611a46565b60405180910390fd5b809250505092915050565b606082610d4046610738565b610d4984610738565b604051602001610d5b93929190611ab7565b604051602081830303815290604052905092915050565b606081610d7e46610738565b84604051602001610d9193929190611b47565b604051602081830303815290604052905092915050565b60605f610db58686610d34565b90505f60405180602001604052805f81525090505f84511115610df55783604051602001610de39190611ba3565b60405160208183030381529060405290505b818582604051602001610e0a93929190611c58565b60405160208183030381529060405292505050949350505050565b5f805f90507a184f03e93ff9f4daa797ed6e38ed64bf6a1f0100000000000000008310610e81577a184f03e93ff9f4daa797ed6e38ed64bf6a1f0100000000000000008381610e7757610e7661168a565b5b0492506040810190505b6d04ee2d6d415b85acef81000000008310610ebe576d04ee2d6d415b85acef81000000008381610eb457610eb361168a565b5b0492506020810190505b662386f26fc100008310610eed57662386f26fc100008381610ee357610ee261168a565b5b0492506010810190505b6305f5e1008310610f16576305f5e1008381610f0c57610f0b61168a565b5b0492506008810190505b6127108310610f3b576127108381610f3157610f3061168a565b5b0492506004810190505b60648310610f5e5760648381610f5457610f5361168a565b5b0492506002810190505b600a8310610f6d576001810190505b80915050919050565b5f604051905090565b5f80fd5b5f80fd5b5f819050919050565b610f9981610f87565b8114610fa3575f80fd5b50565b5f81359050610fb481610f90565b92915050565b5f60208284031215610fcf57610fce610f7f565b5b5f610fdc84828501610fa6565b91505092915050565b5f73ffffffffffffffffffffffffffffffffffffffff82169050919050565b5f61100e82610fe5565b9050919050565b61101e81611004565b8114611028575f80fd5b50565b5f8135905061103981611015565b92915050565b5f80fd5b5f80fd5b5f601f19601f8301169050919050565b7f4e487b71000000000000000000000000000000000000000000000000000000005f52604160045260245ffd5b61108d82611047565b810181811067ffffffffffffffff821117156110ac576110ab611057565b5b80604052505050565b5f6110be610f76565b90506110ca8282611084565b919050565b5f67ffffffffffffffff8211156110e9576110e8611057565b5b6110f282611047565b9050602081019050919050565b828183375f83830152505050565b5f61111f61111a846110cf565b6110b5565b90508281526020810184848401111561113b5761113a611043565b5b6111468482856110ff565b509392505050565b5f82601f8301126111625761116161103f565b5b813561117284826020860161110d565b91505092915050565b5f805f806080858703121561119357611192610f7f565b5b5f6111a08782880161102b565b94505060206111b18782880161102b565b93505060406111c287828801610fa6565b925050606085013567ffffffffffffffff8111156111e3576111e2610f83565b5b6111ef8782880161114e565b91505092959194509250565b5f7fffffffff0000000000000000000000000000000000000000000000000000000082169050919050565b61122f816111fb565b82525050565b5f6020820190506112485f830184611226565b92915050565b5f6020828403121561126357611262610f7f565b5b5f6112708482850161102b565b91505092915050565b5f805f606084860312156112905761128f610f7f565b5b5f61129d8682870161102b565b93505060206112ae8682870161102b565b92505060406112bf86828701610fa6565b9150509250925092565b5f81519050919050565b5f82825260208201905092915050565b5f5b838110156113005780820151818401526020810190506112e5565b5f8484015250505050565b5f611315826112c9565b61131f81856112d3565b935061132f8185602086016112e3565b61133881611047565b840191505092915050565b5f6020820190508181035f83015261135b818461130b565b905092915050565b61136c81610f87565b82525050565b5f6020820190506113855f830184611363565b92915050565b5f80604083850312156113a1576113a0610f7f565b5b5f6113ae85828601610fa6565b92505060206113bf8582860161102b565b9150509250929050565b7f69643d0000000000000000000000000000000000000000000000000000000000815250565b5f81905092915050565b5f611403826112c9565b61140d81856113ef565b935061141d8185602086016112e3565b80840191505092915050565b5f611433826113c9565b60038201915061144382846113f9565b915081905092915050565b61145781611004565b82525050565b5f6060820190506114705f83018661144e565b61147d6020830185611363565b818103604083015261148f818461130b565b9050949350505050565b5f6060820190506114ac5f83018661144e565b6114b96020830185611363565b6114c6604083018461144e565b949350505050565b7f4e487b71000000000000000000000000000000000000000000000000000000005f52601160045260245ffd5b5f61150582610f87565b91507fffffffffffffffffffffffffffffffffffffffffffffffffffffffffffffffff8203611537576115366114ce565b5b600182019050919050565b7f2c00000000000000000000000000000000000000000000000000000000000000815250565b5f61157382876113f9565b915061157e82611542565b60018201915061158e82866113f9565b915061159982611542565b6001820191506115a982856113f9565b91506115b482611542565b6001820191506115c482846113f9565b915081905095945050505050565b5f6040820190506115e55f83018561144e565b81810360208301526115f7818461130b565b90509392505050565b5f8151905061160e81610f90565b92915050565b5f6020828403121561162957611628610f7f565b5b5f61163684828501611600565b91505092915050565b7f67726f757049643d000000000000000000000000000000000000000000000000815250565b5f61166f8261163f565b60088201915061167f82846113f9565b915081905092915050565b7f4e487b71000000000000000000000000000000000000000000000000000000005f52601260045260245ffd5b7f44454c4554452046524f4d2000000000000000000000000000000000000000005f82015250565b5f6116eb600c836113ef565b91506116f6826116b7565b600c82019050919050565b7f20574845524520000000000000000000000000000000000000000000000000005f82015250565b5f6117356007836113ef565b915061174082611701565b600782019050919050565b5f611755826116df565b915061176182856113f9565b915061176c82611729565b915061177882846113f9565b91508190509392505050565b7f27000000000000000000000000000000000000000000000000000000000000005f82015250565b5f6117b86001836113ef565b91506117c382611784565b600182019050919050565b5f6117d8826117ac565b91506117e482846113f9565b91506117ef826117ac565b915081905092915050565b7f494e5345525420494e544f2000000000000000000000000000000000000000005f82015250565b5f61182e600c836113ef565b9150611839826117fa565b600c82019050919050565b7f28000000000000000000000000000000000000000000000000000000000000005f82015250565b5f6118786001836113ef565b915061188382611844565b600182019050919050565b7f2956414c554553280000000000000000000000000000000000000000000000005f82015250565b5f6118c26008836113ef565b91506118cd8261188e565b600882019050919050565b7f29000000000000000000000000000000000000000000000000000000000000005f82015250565b5f61190c6001836113ef565b9150611917826118d8565b600182019050919050565b5f61192c82611822565b915061193882866113f9565b91506119438261186c565b915061194f82856113f9565b915061195a826118b6565b915061196682846113f9565b915061197182611900565b9150819050949350505050565b5f61198882610f87565b915061199383610f87565b92508282026119a181610f87565b915082820484148315176119b8576119b76114ce565b5b5092915050565b5f6119c982610f87565b91506119d483610f87565b92508282019050808211156119ec576119eb6114ce565b5b92915050565b7f4e487b71000000000000000000000000000000000000000000000000000000005f52603260045260245ffd5b5f611a2982610f87565b91505f8203611a3b57611a3a6114ce565b5b600182039050919050565b5f604082019050611a595f830185611363565b611a666020830184611363565b9392505050565b7f5f000000000000000000000000000000000000000000000000000000000000005f82015250565b5f611aa16001836113ef565b9150611aac82611a6d565b600182019050919050565b5f611ac282866113f9565b9150611acd82611a95565b9150611ad982856113f9565b9150611ae482611a95565b9150611af082846113f9565b9150819050949350505050565b7f435245415445205441424c4520000000000000000000000000000000000000005f82015250565b5f611b31600d836113ef565b9150611b3c82611afd565b600d82019050919050565b5f611b5182611b25565b9150611b5d82866113f9565b9150611b6882611a95565b9150611b7482856113f9565b9150611b7f8261186c565b9150611b8b82846113f9565b9150611b9682611900565b9150819050949350505050565b5f611bad82611729565b9150611bb982846113f9565b915081905092915050565b7f55504441544520000000000000000000000000000000000000000000000000005f82015250565b5f611bf86007836113ef565b9150611c0382611bc4565b600782019050919050565b7f20534554200000000000000000000000000000000000000000000000000000005f82015250565b5f611c426005836113ef565b9150611c4d82611c0e565b600582019050919050565b5f611c6282611bec565b9150611c6e82866113f9565b9150611c7982611c36565b9150611c8582856113f9565b9150611c9182846113f9565b915081905094935050505056fe696420696e7465676572207072696d617279206b65792c6f776e657220746578742c726f756e64496420696e74656765722c67726f757049642074657874a264697066735822122078f2e6d975d9ea6e0052cf721303015b9e5d6cf26e8f04c225110f32b21a729264736f6c63430008140033",
					"opcodes": "PUSH1 0x80 PUSH1 0x40 MSTORE PUSH0 PUSH1 0x1 SSTORE CALLVALUE DUP1 ISZERO PUSH2 0x13 JUMPI PUSH0 DUP1 REVERT JUMPDEST POP PUSH2 0x1D12 DUP1 PUSH2 0x21 PUSH0 CODECOPY PUSH0 RETURN INVALID PUSH1 0x80 PUSH1 0x40 MSTORE PUSH1 0x4 CALLDATASIZE LT PUSH2 0x85 JUMPI PUSH0 CALLDATALOAD PUSH1 0xE0 SHR DUP1 PUSH4 0x3E295859 GT PUSH2 0x58 JUMPI DUP1 PUSH4 0x3E295859 EQ PUSH2 0x13D JUMPI DUP1 PUSH4 0x5D5A33A2 EQ PUSH2 0x179 JUMPI DUP1 PUSH4 0x88E4F1CB EQ PUSH2 0x1A3 JUMPI DUP1 PUSH4 0xB2A4C897 EQ PUSH2 0x1CD JUMPI DUP1 PUSH4 0xE86492B1 EQ PUSH2 0x1D7 JUMPI PUSH2 0x85 JUMP JUMPDEST DUP1 PUSH4 0x4BFC47F EQ PUSH2 0x89 JUMPI DUP1 PUSH4 0x150B7A02 EQ PUSH2 0xB1 JUMPI DUP1 PUSH4 0x19129E5A EQ PUSH2 0xED JUMPI DUP1 PUSH4 0x1E2DD199 EQ PUSH2 0x115 JUMPI JUMPDEST PUSH0 DUP1 REVERT JUMPDEST CALLVALUE DUP1 ISZERO PUSH2 0x94 JUMPI PUSH0 DUP1 REVERT JUMPDEST POP PUSH2 0xAF PUSH1 0x4 DUP1 CALLDATASIZE SUB DUP2 ADD SWAP1 PUSH2 0xAA SWAP2 SWAP1 PUSH2 0xFBA JUMP JUMPDEST PUSH2 0x1FF JUMP JUMPDEST STOP JUMPDEST CALLVALUE DUP1 ISZERO PUSH2 0xBC JUMPI PUSH0 DUP1 REVERT JUMPDEST POP PUSH2 0xD7 PUSH1 0x4 DUP1 CALLDATASIZE SUB DUP2 ADD SWAP1 PUSH2 0xD2 SWAP2 SWAP1 PUSH2 0x117B JUMP JUMPDEST PUSH2 0x2E0 JUMP JUMPDEST PUSH1 0x40 MLOAD PUSH2 0xE4 SWAP2 SWAP1 PUSH2 0x1235 JUMP JUMPDEST PUSH1 0x40 MLOAD DUP1 SWAP2 SUB SWAP1 RETURN JUMPDEST CALLVALUE DUP1 ISZERO PUSH2 0xF8 JUMPI PUSH0 DUP1 REVERT JUMPDEST POP PUSH2 0x113 PUSH1 0x4 DUP1 CALLDATASIZE SUB DUP2 ADD SWAP1 PUSH2 0x10E SWAP2 SWAP1 PUSH2 0x124E JUMP JUMPDEST PUSH2 0x2F3 JUMP JUMPDEST STOP JUMPDEST CALLVALUE DUP1 ISZERO PUSH2 0x120 JUMPI PUSH0 DUP1 REVERT JUMPDEST POP PUSH2 0x13B PUSH1 0x4 DUP1 CALLDATASIZE SUB DUP2 ADD SWAP1 PUSH2 0x136 SWAP2 SWAP1 PUSH2 0x1279 JUMP JUMPDEST PUSH2 0x368 JUMP JUMPDEST STOP JUMPDEST CALLVALUE DUP1 ISZERO PUSH2 0x148 JUMPI PUSH0 DUP1 REVERT JUMPDEST POP PUSH2 0x163 PUSH1 0x4 DUP1 CALLDATASIZE SUB DUP2 ADD SWAP1 PUSH2 0x15E SWAP2 SWAP1 PUSH2 0x124E JUMP JUMPDEST PUSH2 0x4C9 JUMP JUMPDEST PUSH1 0x40 MLOAD PUSH2 0x170 SWAP2 SWAP1 PUSH2 0x1343 JUMP JUMPDEST PUSH1 0x40 MLOAD DUP1 SWAP2 SUB SWAP1 RETURN JUMPDEST CALLVALUE DUP1 ISZERO PUSH2 0x184 JUMPI PUSH0 DUP1 REVERT JUMPDEST POP PUSH2 0x18D PUSH2 0x4F3 JUMP JUMPDEST PUSH1 0x40 MLOAD PUSH2 0x19A SWAP2 SWAP1 PUSH2 0x1343 JUMP JUMPDEST PUSH1 0x40 MLOAD DUP1 SWAP2 SUB SWAP1 RETURN JUMPDEST CALLVALUE DUP1 ISZERO PUSH2 0x1AE JUMPI PUSH0 DUP1 REVERT JUMPDEST POP PUSH2 0x1B7 PUSH2 0x53A JUMP JUMPDEST PUSH1 0x40 MLOAD PUSH2 0x1C4 SWAP2 SWAP1 PUSH2 0x1372 JUMP JUMPDEST PUSH1 0x40 MLOAD DUP1 SWAP2 SUB SWAP1 RETURN JUMPDEST PUSH2 0x1D5 PUSH2 0x542 JUMP JUMPDEST STOP JUMPDEST CALLVALUE DUP1 ISZERO PUSH2 0x1E2 JUMPI PUSH0 DUP1 REVERT JUMPDEST POP PUSH2 0x1FD PUSH1 0x4 DUP1 CALLDATASIZE SUB DUP2 ADD SWAP1 PUSH2 0x1F8 SWAP2 SWAP1 PUSH2 0x138B JUMP JUMPDEST PUSH2 0x621 JUMP JUMPDEST STOP JUMPDEST PUSH0 PUSH2 0x209 DUP3 PUSH2 0x738 JUMP JUMPDEST PUSH1 0x40 MLOAD PUSH1 0x20 ADD PUSH2 0x219 SWAP2 SWAP1 PUSH2 0x1429 JUMP JUMPDEST PUSH1 0x40 MLOAD PUSH1 0x20 DUP2 DUP4 SUB SUB DUP2 MSTORE SWAP1 PUSH1 0x40 MSTORE SWAP1 POP PUSH2 0x232 PUSH2 0x802 JUMP JUMPDEST PUSH20 0xFFFFFFFFFFFFFFFFFFFFFFFFFFFFFFFFFFFFFFFF AND PUSH4 0x377AF0DA ADDRESS PUSH0 SLOAD PUSH2 0x291 PUSH1 0x40 MLOAD DUP1 PUSH1 0x40 ADD PUSH1 0x40 MSTORE DUP1 PUSH1 0x12 DUP2 MSTORE PUSH1 0x20 ADD PUSH32 0x737573755F77616C6C6574735F7461626C650000000000000000000000000000 DUP2 MSTORE POP PUSH0 SLOAD DUP8 PUSH2 0xA27 JUMP JUMPDEST PUSH1 0x40 MLOAD DUP5 PUSH4 0xFFFFFFFF AND PUSH1 0xE0 SHL DUP2 MSTORE PUSH1 0x4 ADD PUSH2 0x2AF SWAP4 SWAP3 SWAP2 SWAP1 PUSH2 0x145D JUMP JUMPDEST PUSH0 PUSH1 0x40 MLOAD DUP1 DUP4 SUB DUP2 PUSH0 DUP8 DUP1 EXTCODESIZE ISZERO DUP1 ISZERO PUSH2 0x2C6 JUMPI PUSH0 DUP1 REVERT JUMPDEST POP GAS CALL ISZERO DUP1 ISZERO PUSH2 0x2D8 JUMPI RETURNDATASIZE PUSH0 DUP1 RETURNDATACOPY RETURNDATASIZE PUSH0 REVERT JUMPDEST POP POP POP POP POP POP JUMP JUMPDEST PUSH0 PUSH4 0x150B7A02 PUSH1 0xE0 SHL SWAP1 POP SWAP5 SWAP4 POP POP POP POP JUMP JUMPDEST PUSH2 0x2FB PUSH2 0x802 JUMP JUMPDEST PUSH20 0xFFFFFFFFFFFFFFFFFFFFFFFFFFFFFFFFFFFFFFFF AND PUSH4 0x8BB0AB97 ADDRESS PUSH0 SLOAD DUP5 PUSH1 0x40 MLOAD DUP5 PUSH4 0xFFFFFFFF AND PUSH1 0xE0 SHL DUP2 MSTORE PUSH1 0x4 ADD PUSH2 0x338 SWAP4 SWAP3 SWAP2 SWAP1 PUSH2 0x1499 JUMP JUMPDEST PUSH0 PUSH1 0x40 MLOAD DUP1 DUP4 SUB DUP2 PUSH0 DUP8 DUP1 EXTCODESIZE ISZERO DUP1 ISZERO PUSH2 0x34F JUMPI PUSH0 DUP1 REVERT JUMPDEST POP GAS CALL ISZERO DUP1 ISZERO PUSH2 0x361 JUMPI RETURNDATASIZE PUSH0 DUP1 RETURNDATACOPY RETURNDATASIZE PUSH0 REVERT JUMPDEST POP POP POP POP POP JUMP JUMPDEST PUSH0 PUSH2 0x372 DUP4 PUSH2 0xA62 JUMP JUMPDEST SWAP1 POP PUSH0 PUSH2 0x37E DUP6 PUSH2 0xA62 JUMP JUMPDEST SWAP1 POP PUSH2 0x388 PUSH2 0x802 JUMP JUMPDEST PUSH20 0xFFFFFFFFFFFFFFFFFFFFFFFFFFFFFFFFFFFFFFFF AND PUSH4 0x377AF0DA ADDRESS PUSH0 SLOAD PUSH2 0x477 PUSH1 0x40 MLOAD DUP1 PUSH1 0x40 ADD PUSH1 0x40 MSTORE DUP1 PUSH1 0x12 DUP2 MSTORE PUSH1 0x20 ADD PUSH32 0x737573755F77616C6C6574735F7461626C650000000000000000000000000000 DUP2 MSTORE POP PUSH0 SLOAD PUSH1 0x40 MLOAD DUP1 PUSH1 0x40 ADD PUSH1 0x40 MSTORE DUP1 PUSH1 0x1D DUP2 MSTORE PUSH1 0x20 ADD PUSH32 0x69642C2067726F757049642C20616464726573732C20726F756E644964000000 DUP2 MSTORE POP PUSH2 0x435 PUSH1 0x1 PUSH0 DUP2 SLOAD DUP1 SWAP3 SWAP2 SWAP1 PUSH2 0x42C SWAP1 PUSH2 0x14FB JUMP JUMPDEST SWAP2 SWAP1 POP SSTORE PUSH2 0x738 JUMP JUMPDEST PUSH2 0x43E DUP11 PUSH2 0xA8F JUMP JUMPDEST PUSH2 0x447 DUP13 PUSH2 0xA8F JUMP JUMPDEST PUSH2 0x450 DUP15 PUSH2 0x738 JUMP JUMPDEST PUSH1 0x40 MLOAD PUSH1 0x20 ADD PUSH2 0x463 SWAP5 SWAP4 SWAP3 SWAP2 SWAP1 PUSH2 0x1568 JUMP JUMPDEST PUSH1 0x40 MLOAD PUSH1 0x20 DUP2 DUP4 SUB SUB DUP2 MSTORE SWAP1 PUSH1 0x40 MSTORE PUSH2 0xAB8 JUMP JUMPDEST PUSH1 0x40 MLOAD DUP5 PUSH4 0xFFFFFFFF AND PUSH1 0xE0 SHL DUP2 MSTORE PUSH1 0x4 ADD PUSH2 0x495 SWAP4 SWAP3 SWAP2 SWAP1 PUSH2 0x145D JUMP JUMPDEST PUSH0 PUSH1 0x40 MLOAD DUP1 DUP4 SUB DUP2 PUSH0 DUP8 DUP1 EXTCODESIZE ISZERO DUP1 ISZERO PUSH2 0x4AC JUMPI PUSH0 DUP1 REVERT JUMPDEST POP GAS CALL ISZERO DUP1 ISZERO PUSH2 0x4BE JUMPI RETURNDATASIZE PUSH0 DUP1 RETURNDATACOPY RETURNDATASIZE PUSH0 REVERT JUMPDEST POP POP POP POP POP POP POP POP POP JUMP JUMPDEST PUSH1 0x60 PUSH2 0x4EC DUP3 PUSH20 0xFFFFFFFFFFFFFFFFFFFFFFFFFFFFFFFFFFFFFFFF AND PUSH1 0x14 PUSH2 0xAF6 JUMP JUMPDEST SWAP1 POP SWAP2 SWAP1 POP JUMP JUMPDEST PUSH1 0x60 PUSH2 0x535 PUSH1 0x40 MLOAD DUP1 PUSH1 0x40 ADD PUSH1 0x40 MSTORE DUP1 PUSH1 0x12 DUP2 MSTORE PUSH1 0x20 ADD PUSH32 0x737573755F77616C6C6574735F7461626C650000000000000000000000000000 DUP2 MSTORE POP PUSH0 SLOAD PUSH2 0xD34 JUMP JUMPDEST SWAP1 POP SWAP1 JUMP JUMPDEST PUSH0 DUP1 SLOAD SWAP1 POP SWAP1 JUMP JUMPDEST PUSH2 0x54A PUSH2 0x802 JUMP JUMPDEST PUSH20 0xFFFFFFFFFFFFFFFFFFFFFFFFFFFFFFFFFFFFFFFF AND PUSH4 0xA15AB08D ADDRESS PUSH2 0x5BD PUSH1 0x40 MLOAD DUP1 PUSH1 0x60 ADD PUSH1 0x40 MSTORE DUP1 PUSH1 0x3E DUP2 MSTORE PUSH1 0x20 ADD PUSH2 0x1C9F PUSH1 0x3E SWAP2 CODECOPY PUSH1 0x40 MLOAD DUP1 PUSH1 0x40 ADD PUSH1 0x40 MSTORE DUP1 PUSH1 0x12 DUP2 MSTORE PUSH1 0x20 ADD PUSH32 0x737573755F77616C6C6574735F7461626C650000000000000000000000000000 DUP2 MSTORE POP PUSH2 0xD72 JUMP JUMPDEST PUSH1 0x40 MLOAD DUP4 PUSH4 0xFFFFFFFF AND PUSH1 0xE0 SHL DUP2 MSTORE PUSH1 0x4 ADD PUSH2 0x5DA SWAP3 SWAP2 SWAP1 PUSH2 0x15D2 JUMP JUMPDEST PUSH1 0x20 PUSH1 0x40 MLOAD DUP1 DUP4 SUB DUP2 PUSH0 DUP8 GAS CALL ISZERO DUP1 ISZERO PUSH2 0x5F6 JUMPI RETURNDATASIZE PUSH0 DUP1 RETURNDATACOPY RETURNDATASIZE PUSH0 REVERT JUMPDEST POP POP POP POP PUSH1 0x40 MLOAD RETURNDATASIZE PUSH1 0x1F NOT PUSH1 0x1F DUP3 ADD AND DUP3 ADD DUP1 PUSH1 0x40 MSTORE POP DUP2 ADD SWAP1 PUSH2 0x61A SWAP2 SWAP1 PUSH2 0x1614 JUMP JUMPDEST PUSH0 DUP2 SWAP1 SSTORE POP JUMP JUMPDEST PUSH0 PUSH2 0x633 PUSH2 0x62E DUP4 PUSH2 0xA62 JUMP JUMPDEST PUSH2 0xA8F JUMP JUMPDEST PUSH1 0x40 MLOAD PUSH1 0x20 ADD PUSH2 0x643 SWAP2 SWAP1 PUSH2 0x1665 JUMP JUMPDEST PUSH1 0x40 MLOAD PUSH1 0x20 DUP2 DUP4 SUB SUB DUP2 MSTORE SWAP1 PUSH1 0x40 MSTORE SWAP1 POP PUSH0 PUSH2 0x65E DUP5 PUSH2 0x738 JUMP JUMPDEST PUSH1 0x40 MLOAD PUSH1 0x20 ADD PUSH2 0x66E SWAP2 SWAP1 PUSH2 0x1429 JUMP JUMPDEST PUSH1 0x40 MLOAD PUSH1 0x20 DUP2 DUP4 SUB SUB DUP2 MSTORE SWAP1 PUSH1 0x40 MSTORE SWAP1 POP PUSH2 0x687 PUSH2 0x802 JUMP JUMPDEST PUSH20 0xFFFFFFFFFFFFFFFFFFFFFFFFFFFFFFFFFFFFFFFF AND PUSH4 0x377AF0DA ADDRESS PUSH0 SLOAD PUSH2 0x6E7 PUSH1 0x40 MLOAD DUP1 PUSH1 0x40 ADD PUSH1 0x40 MSTORE DUP1 PUSH1 0x12 DUP2 MSTORE PUSH1 0x20 ADD PUSH32 0x737573755F77616C6C6574735F7461626C650000000000000000000000000000 DUP2 MSTORE POP PUSH0 SLOAD DUP9 DUP9 PUSH2 0xDA8 JUMP JUMPDEST PUSH1 0x40 MLOAD DUP5 PUSH4 0xFFFFFFFF AND PUSH1 0xE0 SHL DUP2 MSTORE PUSH1 0x4 ADD PUSH2 0x705 SWAP4 SWAP3 SWAP2 SWAP1 PUSH2 0x145D JUMP JUMPDEST PUSH0 PUSH1 0x40 MLOAD DUP1 DUP4 SUB DUP2 PUSH0 DUP8 DUP1 EXTCODESIZE ISZERO DUP1 ISZERO PUSH2 0x71C JUMPI PUSH0 DUP1 REVERT JUMPDEST POP GAS CALL ISZERO DUP1 ISZERO PUSH2 0x72E JUMPI RETURNDATASIZE PUSH0 DUP1 RETURNDATACOPY RETURNDATASIZE PUSH0 REVERT JUMPDEST POP POP POP POP POP POP POP POP JUMP JUMPDEST PUSH1 0x60 PUSH0 PUSH1 0x1 PUSH2 0x746 DUP5 PUSH2 0xE25 JUMP JUMPDEST ADD SWAP1 POP PUSH0 DUP2 PUSH8 0xFFFFFFFFFFFFFFFF DUP2 GT ISZERO PUSH2 0x764 JUMPI PUSH2 0x763 PUSH2 0x1057 JUMP JUMPDEST JUMPDEST PUSH1 0x40 MLOAD SWAP1 DUP1 DUP3 MSTORE DUP1 PUSH1 0x1F ADD PUSH1 0x1F NOT AND PUSH1 0x20 ADD DUP3 ADD PUSH1 0x40 MSTORE DUP1 ISZERO PUSH2 0x796 JUMPI DUP2 PUSH1 0x20 ADD PUSH1 0x1 DUP3 MUL DUP1 CALLDATASIZE DUP4 CALLDATACOPY DUP1 DUP3 ADD SWAP2 POP POP SWAP1 POP JUMPDEST POP SWAP1 POP PUSH0 DUP3 PUSH1 0x20 ADD DUP3 ADD SWAP1 POP JUMPDEST PUSH1 0x1 ISZERO PUSH2 0x7F7 JUMPI DUP1 DUP1 PUSH1 0x1 SWAP1 SUB SWAP2 POP POP PUSH32 0x3031323334353637383961626364656600000000000000000000000000000000 PUSH1 0xA DUP7 MOD BYTE DUP2 MSTORE8 PUSH1 0xA DUP6 DUP2 PUSH2 0x7EC JUMPI PUSH2 0x7EB PUSH2 0x168A JUMP JUMPDEST JUMPDEST DIV SWAP5 POP PUSH0 DUP6 SUB PUSH2 0x7A3 JUMPI JUMPDEST DUP2 SWAP4 POP POP POP POP SWAP2 SWAP1 POP JUMP JUMPDEST PUSH0 PUSH1 0x1 CHAINID SUB PUSH2 0x827 JUMPI PUSH20 0x12969F7E3439A9B04025B5A049EB9BAD82A8C12 SWAP1 POP PUSH2 0xA24 JUMP JUMPDEST PUSH1 0xA CHAINID SUB PUSH2 0x84B JUMPI PUSH20 0xFAD44BF5B843DE943A09D4F3E84949A11D3AA3E6 SWAP1 POP PUSH2 0xA24 JUMP JUMPDEST PUSH2 0xA4B1 CHAINID SUB PUSH2 0x870 JUMPI PUSH20 0x9ABD75E8640871A5A20D3B4EE6330A04C962AFFD SWAP1 POP PUSH2 0xA24 JUMP JUMPDEST PUSH2 0xA4BA CHAINID SUB PUSH2 0x895 JUMPI PUSH20 0x1A22854C5B1642760A827F20137A67930AE108D2 SWAP1 POP PUSH2 0xA24 JUMP JUMPDEST PUSH1 0x89 CHAINID SUB PUSH2 0x8B9 JUMPI PUSH20 0x5C4E6A9E5C1E1BF445A062006FAF19EA6C49AFEA SWAP1 POP PUSH2 0xA24 JUMP JUMPDEST PUSH2 0x13A CHAINID SUB PUSH2 0x8DE JUMPI PUSH20 0x59EF8BF2D6C102B4C42AEF9189E1A9F0ABFD652D SWAP1 POP PUSH2 0xA24 JUMP JUMPDEST PUSH3 0xAA36A7 CHAINID SUB PUSH2 0x904 JUMPI PUSH20 0xC50C62498448ACC8DBDE43DA77F8D5D2E2C7597D SWAP1 POP PUSH2 0xA24 JUMP JUMPDEST PUSH3 0xAA37DC CHAINID SUB PUSH2 0x92A JUMPI PUSH20 0x68A2F4423AD3BF5139DB563CF3BC80AA09ED7079 SWAP1 POP PUSH2 0xA24 JUMP JUMPDEST PUSH3 0x66EEE CHAINID SUB PUSH2 0x950 JUMPI PUSH20 0x223A74B8323914AFDC3FF1E5005564DC17231D6E SWAP1 POP PUSH2 0xA24 JUMP JUMPDEST PUSH3 0x14A34 CHAINID SUB PUSH2 0x976 JUMPI PUSH20 0xA85AAE9F0AEC5F5638E5F13840797303AB29C9F9 SWAP1 POP PUSH2 0xA24 JUMP JUMPDEST PUSH3 0x13882 CHAINID SUB PUSH2 0x99C JUMPI PUSH20 0x170FB206132B693E38ADFC8727DCFA303546CEC1 SWAP1 POP PUSH2 0xA24 JUMP JUMPDEST PUSH3 0x4CB2F CHAINID SUB PUSH2 0x9C2 JUMPI PUSH20 0x30BCF3D50CAD04C2E57391B12740982A9308621 SWAP1 POP PUSH2 0xA24 JUMP JUMPDEST PUSH2 0x7A69 CHAINID SUB PUSH2 0x9E7 JUMPI PUSH20 0xE7F1725E7734CE288F8367E1BB143E90BB3F0512 SWAP1 POP PUSH2 0xA24 JUMP JUMPDEST CHAINID PUSH1 0x40 MLOAD PUSH32 0x264E42CF00000000000000000000000000000000000000000000000000000000 DUP2 MSTORE PUSH1 0x4 ADD PUSH2 0xA1B SWAP2 SWAP1 PUSH2 0x1372 JUMP JUMPDEST PUSH1 0x40 MLOAD DUP1 SWAP2 SUB SWAP1 REVERT JUMPDEST SWAP1 JUMP JUMPDEST PUSH1 0x60 PUSH0 PUSH2 0xA34 DUP6 DUP6 PUSH2 0xD34 JUMP JUMPDEST SWAP1 POP DUP1 DUP4 PUSH1 0x40 MLOAD PUSH1 0x20 ADD PUSH2 0xA49 SWAP3 SWAP2 SWAP1 PUSH2 0x174B JUMP JUMPDEST PUSH1 0x40 MLOAD PUSH1 0x20 DUP2 DUP4 SUB SUB DUP2 MSTORE SWAP1 PUSH1 0x40 MSTORE SWAP2 POP POP SWAP4 SWAP3 POP POP POP JUMP JUMPDEST PUSH1 0x60 PUSH2 0xA88 DUP3 PUSH20 0xFFFFFFFFFFFFFFFFFFFFFFFFFFFFFFFFFFFFFFFF AND PUSH1 0x14 PUSH1 0xFF AND PUSH2 0xAF6 JUMP JUMPDEST SWAP1 POP SWAP2 SWAP1 POP JUMP JUMPDEST PUSH1 0x60 DUP2 PUSH1 0x40 MLOAD PUSH1 0x20 ADD PUSH2 0xAA2 SWAP2 SWAP1 PUSH2 0x17CE JUMP JUMPDEST PUSH1 0x40 MLOAD PUSH1 0x20 DUP2 DUP4 SUB SUB DUP2 MSTORE SWAP1 PUSH1 0x40 MSTORE SWAP1 POP SWAP2 SWAP1 POP JUMP JUMPDEST PUSH1 0x60 PUSH0 PUSH2 0xAC5 DUP7 DUP7 PUSH2 0xD34 JUMP JUMPDEST SWAP1 POP DUP1 DUP5 DUP5 PUSH1 0x40 MLOAD PUSH1 0x20 ADD PUSH2 0xADC SWAP4 SWAP3 SWAP2 SWAP1 PUSH2 0x1922 JUMP JUMPDEST PUSH1 0x40 MLOAD PUSH1 0x20 DUP2 DUP4 SUB SUB DUP2 MSTORE SWAP1 PUSH1 0x40 MSTORE SWAP2 POP POP SWAP5 SWAP4 POP POP POP POP JUMP JUMPDEST PUSH1 0x60 PUSH0 DUP4 SWAP1 POP PUSH0 PUSH1 0x2 DUP5 PUSH1 0x2 PUSH2 0xB0C SWAP2 SWAP1 PUSH2 0x197E JUMP JUMPDEST PUSH2 0xB16 SWAP2 SWAP1 PUSH2 0x19BF JUMP JUMPDEST PUSH8 0xFFFFFFFFFFFFFFFF DUP2 GT ISZERO PUSH2 0xB2F JUMPI PUSH2 0xB2E PUSH2 0x1057 JUMP JUMPDEST JUMPDEST PUSH1 0x40 MLOAD SWAP1 DUP1 DUP3 MSTORE DUP1 PUSH1 0x1F ADD PUSH1 0x1F NOT AND PUSH1 0x20 ADD DUP3 ADD PUSH1 0x40 MSTORE DUP1 ISZERO PUSH2 0xB61 JUMPI DUP2 PUSH1 0x20 ADD PUSH1 0x1 DUP3 MUL DUP1 CALLDATASIZE DUP4 CALLDATACOPY DUP1 DUP3 ADD SWAP2 POP POP SWAP1 POP JUMPDEST POP SWAP1 POP PUSH32 0x3000000000000000000000000000000000000000000000000000000000000000 DUP2 PUSH0 DUP2 MLOAD DUP2 LT PUSH2 0xB98 JUMPI PUSH2 0xB97 PUSH2 0x19F2 JUMP JUMPDEST JUMPDEST PUSH1 0x20 ADD ADD SWAP1 PUSH31 0xFFFFFFFFFFFFFFFFFFFFFFFFFFFFFFFFFFFFFFFFFFFFFFFFFFFFFFFFFFFFFF NOT AND SWAP1 DUP2 PUSH0 BYTE SWAP1 MSTORE8 POP PUSH32 0x7800000000000000000000000000000000000000000000000000000000000000 DUP2 PUSH1 0x1 DUP2 MLOAD DUP2 LT PUSH2 0xBFB JUMPI PUSH2 0xBFA PUSH2 0x19F2 JUMP JUMPDEST JUMPDEST PUSH1 0x20 ADD ADD SWAP1 PUSH31 0xFFFFFFFFFFFFFFFFFFFFFFFFFFFFFFFFFFFFFFFFFFFFFFFFFFFFFFFFFFFFFF NOT AND SWAP1 DUP2 PUSH0 BYTE SWAP1 MSTORE8 POP PUSH0 PUSH1 0x1 DUP6 PUSH1 0x2 PUSH2 0xC39 SWAP2 SWAP1 PUSH2 0x197E JUMP JUMPDEST PUSH2 0xC43 SWAP2 SWAP1 PUSH2 0x19BF JUMP JUMPDEST SWAP1 POP JUMPDEST PUSH1 0x1 DUP2 GT ISZERO PUSH2 0xCE2 JUMPI PUSH32 0x3031323334353637383961626364656600000000000000000000000000000000 PUSH1 0xF DUP5 AND PUSH1 0x10 DUP2 LT PUSH2 0xC85 JUMPI PUSH2 0xC84 PUSH2 0x19F2 JUMP JUMPDEST JUMPDEST BYTE PUSH1 0xF8 SHL DUP3 DUP3 DUP2 MLOAD DUP2 LT PUSH2 0xC9C JUMPI PUSH2 0xC9B PUSH2 0x19F2 JUMP JUMPDEST JUMPDEST PUSH1 0x20 ADD ADD SWAP1 PUSH31 0xFFFFFFFFFFFFFFFFFFFFFFFFFFFFFFFFFFFFFFFFFFFFFFFFFFFFFFFFFFFFFF NOT AND SWAP1 DUP2 PUSH0 BYTE SWAP1 MSTORE8 POP PUSH1 0x4 DUP4 SWAP1 SHR SWAP3 POP DUP1 PUSH2 0xCDB SWAP1 PUSH2 0x1A1F JUMP JUMPDEST SWAP1 POP PUSH2 0xC46 JUMP JUMPDEST POP PUSH0 DUP3 EQ PUSH2 0xD29 JUMPI DUP5 DUP5 PUSH1 0x40 MLOAD PUSH32 0xE22E27EB00000000000000000000000000000000000000000000000000000000 DUP2 MSTORE PUSH1 0x4 ADD PUSH2 0xD20 SWAP3 SWAP2 SWAP1 PUSH2 0x1A46 JUMP JUMPDEST PUSH1 0x40 MLOAD DUP1 SWAP2 SUB SWAP1 REVERT JUMPDEST DUP1 SWAP3 POP POP POP SWAP3 SWAP2 POP POP JUMP JUMPDEST PUSH1 0x60 DUP3 PUSH2 0xD40 CHAINID PUSH2 0x738 JUMP JUMPDEST PUSH2 0xD49 DUP5 PUSH2 0x738 JUMP JUMPDEST PUSH1 0x40 MLOAD PUSH1 0x20 ADD PUSH2 0xD5B SWAP4 SWAP3 SWAP2 SWAP1 PUSH2 0x1AB7 JUMP JUMPDEST PUSH1 0x40 MLOAD PUSH1 0x20 DUP2 DUP4 SUB SUB DUP2 MSTORE SWAP1 PUSH1 0x40 MSTORE SWAP1 POP SWAP3 SWAP2 POP POP JUMP JUMPDEST PUSH1 0x60 DUP2 PUSH2 0xD7E CHAINID PUSH2 0x738 JUMP JUMPDEST DUP5 PUSH1 0x40 MLOAD PUSH1 0x20 ADD PUSH2 0xD91 SWAP4 SWAP3 SWAP2 SWAP1 PUSH2 0x1B47 JUMP JUMPDEST PUSH1 0x40 MLOAD PUSH1 0x20 DUP2 DUP4 SUB SUB DUP2 MSTORE SWAP1 PUSH1 0x40 MSTORE SWAP1 POP SWAP3 SWAP2 POP POP JUMP JUMPDEST PUSH1 0x60 PUSH0 PUSH2 0xDB5 DUP7 DUP7 PUSH2 0xD34 JUMP JUMPDEST SWAP1 POP PUSH0 PUSH1 0x40 MLOAD DUP1 PUSH1 0x20 ADD PUSH1 0x40 MSTORE DUP1 PUSH0 DUP2 MSTORE POP SWAP1 POP PUSH0 DUP5 MLOAD GT ISZERO PUSH2 0xDF5 JUMPI DUP4 PUSH1 0x40 MLOAD PUSH1 0x20 ADD PUSH2 0xDE3 SWAP2 SWAP1 PUSH2 0x1BA3 JUMP JUMPDEST PUSH1 0x40 MLOAD PUSH1 0x20 DUP2 DUP4 SUB SUB DUP2 MSTORE SWAP1 PUSH1 0x40 MSTORE SWAP1 POP JUMPDEST DUP2 DUP6 DUP3 PUSH1 0x40 MLOAD PUSH1 0x20 ADD PUSH2 0xE0A SWAP4 SWAP3 SWAP2 SWAP1 PUSH2 0x1C58 JUMP JUMPDEST PUSH1 0x40 MLOAD PUSH1 0x20 DUP2 DUP4 SUB SUB DUP2 MSTORE SWAP1 PUSH1 0x40 MSTORE SWAP3 POP POP POP SWAP5 SWAP4 POP POP POP POP JUMP JUMPDEST PUSH0 DUP1 PUSH0 SWAP1 POP PUSH27 0x184F03E93FF9F4DAA797ED6E38ED64BF6A1F010000000000000000 DUP4 LT PUSH2 0xE81 JUMPI PUSH27 0x184F03E93FF9F4DAA797ED6E38ED64BF6A1F010000000000000000 DUP4 DUP2 PUSH2 0xE77 JUMPI PUSH2 0xE76 PUSH2 0x168A JUMP JUMPDEST JUMPDEST DIV SWAP3 POP PUSH1 0x40 DUP2 ADD SWAP1 POP JUMPDEST PUSH14 0x4EE2D6D415B85ACEF8100000000 DUP4 LT PUSH2 0xEBE JUMPI PUSH14 0x4EE2D6D415B85ACEF8100000000 DUP4 DUP2 PUSH2 0xEB4 JUMPI PUSH2 0xEB3 PUSH2 0x168A JUMP JUMPDEST JUMPDEST DIV SWAP3 POP PUSH1 0x20 DUP2 ADD SWAP1 POP JUMPDEST PUSH7 0x2386F26FC10000 DUP4 LT PUSH2 0xEED JUMPI PUSH7 0x2386F26FC10000 DUP4 DUP2 PUSH2 0xEE3 JUMPI PUSH2 0xEE2 PUSH2 0x168A JUMP JUMPDEST JUMPDEST DIV SWAP3 POP PUSH1 0x10 DUP2 ADD SWAP1 POP JUMPDEST PUSH4 0x5F5E100 DUP4 LT PUSH2 0xF16 JUMPI PUSH4 0x5F5E100 DUP4 DUP2 PUSH2 0xF0C JUMPI PUSH2 0xF0B PUSH2 0x168A JUMP JUMPDEST JUMPDEST DIV SWAP3 POP PUSH1 0x8 DUP2 ADD SWAP1 POP JUMPDEST PUSH2 0x2710 DUP4 LT PUSH2 0xF3B JUMPI PUSH2 0x2710 DUP4 DUP2 PUSH2 0xF31 JUMPI PUSH2 0xF30 PUSH2 0x168A JUMP JUMPDEST JUMPDEST DIV SWAP3 POP PUSH1 0x4 DUP2 ADD SWAP1 POP JUMPDEST PUSH1 0x64 DUP4 LT PUSH2 0xF5E JUMPI PUSH1 0x64 DUP4 DUP2 PUSH2 0xF54 JUMPI PUSH2 0xF53 PUSH2 0x168A JUMP JUMPDEST JUMPDEST DIV SWAP3 POP PUSH1 0x2 DUP2 ADD SWAP1 POP JUMPDEST PUSH1 0xA DUP4 LT PUSH2 0xF6D JUMPI PUSH1 0x1 DUP2 ADD SWAP1 POP JUMPDEST DUP1 SWAP2 POP POP SWAP2 SWAP1 POP JUMP JUMPDEST PUSH0 PUSH1 0x40 MLOAD SWAP1 POP SWAP1 JUMP JUMPDEST PUSH0 DUP1 REVERT JUMPDEST PUSH0 DUP1 REVERT JUMPDEST PUSH0 DUP2 SWAP1 POP SWAP2 SWAP1 POP JUMP JUMPDEST PUSH2 0xF99 DUP2 PUSH2 0xF87 JUMP JUMPDEST DUP2 EQ PUSH2 0xFA3 JUMPI PUSH0 DUP1 REVERT JUMPDEST POP JUMP JUMPDEST PUSH0 DUP2 CALLDATALOAD SWAP1 POP PUSH2 0xFB4 DUP2 PUSH2 0xF90 JUMP JUMPDEST SWAP3 SWAP2 POP POP JUMP JUMPDEST PUSH0 PUSH1 0x20 DUP3 DUP5 SUB SLT ISZERO PUSH2 0xFCF JUMPI PUSH2 0xFCE PUSH2 0xF7F JUMP JUMPDEST JUMPDEST PUSH0 PUSH2 0xFDC DUP5 DUP3 DUP6 ADD PUSH2 0xFA6 JUMP JUMPDEST SWAP2 POP POP SWAP3 SWAP2 POP POP JUMP JUMPDEST PUSH0 PUSH20 0xFFFFFFFFFFFFFFFFFFFFFFFFFFFFFFFFFFFFFFFF DUP3 AND SWAP1 POP SWAP2 SWAP1 POP JUMP JUMPDEST PUSH0 PUSH2 0x100E DUP3 PUSH2 0xFE5 JUMP JUMPDEST SWAP1 POP SWAP2 SWAP1 POP JUMP JUMPDEST PUSH2 0x101E DUP2 PUSH2 0x1004 JUMP JUMPDEST DUP2 EQ PUSH2 0x1028 JUMPI PUSH0 DUP1 REVERT JUMPDEST POP JUMP JUMPDEST PUSH0 DUP2 CALLDATALOAD SWAP1 POP PUSH2 0x1039 DUP2 PUSH2 0x1015 JUMP JUMPDEST SWAP3 SWAP2 POP POP JUMP JUMPDEST PUSH0 DUP1 REVERT JUMPDEST PUSH0 DUP1 REVERT JUMPDEST PUSH0 PUSH1 0x1F NOT PUSH1 0x1F DUP4 ADD AND SWAP1 POP SWAP2 SWAP1 POP JUMP JUMPDEST PUSH32 0x4E487B7100000000000000000000000000000000000000000000000000000000 PUSH0 MSTORE PUSH1 0x41 PUSH1 0x4 MSTORE PUSH1 0x24 PUSH0 REVERT JUMPDEST PUSH2 0x108D DUP3 PUSH2 0x1047 JUMP JUMPDEST DUP2 ADD DUP2 DUP2 LT PUSH8 0xFFFFFFFFFFFFFFFF DUP3 GT OR ISZERO PUSH2 0x10AC JUMPI PUSH2 0x10AB PUSH2 0x1057 JUMP JUMPDEST JUMPDEST DUP1 PUSH1 0x40 MSTORE POP POP POP JUMP JUMPDEST PUSH0 PUSH2 0x10BE PUSH2 0xF76 JUMP JUMPDEST SWAP1 POP PUSH2 0x10CA DUP3 DUP3 PUSH2 0x1084 JUMP JUMPDEST SWAP2 SWAP1 POP JUMP JUMPDEST PUSH0 PUSH8 0xFFFFFFFFFFFFFFFF DUP3 GT ISZERO PUSH2 0x10E9 JUMPI PUSH2 0x10E8 PUSH2 0x1057 JUMP JUMPDEST JUMPDEST PUSH2 0x10F2 DUP3 PUSH2 0x1047 JUMP JUMPDEST SWAP1 POP PUSH1 0x20 DUP2 ADD SWAP1 POP SWAP2 SWAP1 POP JUMP JUMPDEST DUP3 DUP2 DUP4 CALLDATACOPY PUSH0 DUP4 DUP4 ADD MSTORE POP POP POP JUMP JUMPDEST PUSH0 PUSH2 0x111F PUSH2 0x111A DUP5 PUSH2 0x10CF JUMP JUMPDEST PUSH2 0x10B5 JUMP JUMPDEST SWAP1 POP DUP3 DUP2 MSTORE PUSH1 0x20 DUP2 ADD DUP5 DUP5 DUP5 ADD GT ISZERO PUSH2 0x113B JUMPI PUSH2 0x113A PUSH2 0x1043 JUMP JUMPDEST JUMPDEST PUSH2 0x1146 DUP5 DUP3 DUP6 PUSH2 0x10FF JUMP JUMPDEST POP SWAP4 SWAP3 POP POP POP JUMP JUMPDEST PUSH0 DUP3 PUSH1 0x1F DUP4 ADD SLT PUSH2 0x1162 JUMPI PUSH2 0x1161 PUSH2 0x103F JUMP JUMPDEST JUMPDEST DUP2 CALLDATALOAD PUSH2 0x1172 DUP5 DUP3 PUSH1 0x20 DUP7 ADD PUSH2 0x110D JUMP JUMPDEST SWAP2 POP POP SWAP3 SWAP2 POP POP JUMP JUMPDEST PUSH0 DUP1 PUSH0 DUP1 PUSH1 0x80 DUP6 DUP8 SUB SLT ISZERO PUSH2 0x1193 JUMPI PUSH2 0x1192 PUSH2 0xF7F JUMP JUMPDEST JUMPDEST PUSH0 PUSH2 0x11A0 DUP8 DUP3 DUP9 ADD PUSH2 0x102B JUMP JUMPDEST SWAP5 POP POP PUSH1 0x20 PUSH2 0x11B1 DUP8 DUP3 DUP9 ADD PUSH2 0x102B JUMP JUMPDEST SWAP4 POP POP PUSH1 0x40 PUSH2 0x11C2 DUP8 DUP3 DUP9 ADD PUSH2 0xFA6 JUMP JUMPDEST SWAP3 POP POP PUSH1 0x60 DUP6 ADD CALLDATALOAD PUSH8 0xFFFFFFFFFFFFFFFF DUP2 GT ISZERO PUSH2 0x11E3 JUMPI PUSH2 0x11E2 PUSH2 0xF83 JUMP JUMPDEST JUMPDEST PUSH2 0x11EF DUP8 DUP3 DUP9 ADD PUSH2 0x114E JUMP JUMPDEST SWAP2 POP POP SWAP3 SWAP6 SWAP2 SWAP5 POP SWAP3 POP JUMP JUMPDEST PUSH0 PUSH32 0xFFFFFFFF00000000000000000000000000000000000000000000000000000000 DUP3 AND SWAP1 POP SWAP2 SWAP1 POP JUMP JUMPDEST PUSH2 0x122F DUP2 PUSH2 0x11FB JUMP JUMPDEST DUP3 MSTORE POP POP JUMP JUMPDEST PUSH0 PUSH1 0x20 DUP3 ADD SWAP1 POP PUSH2 0x1248 PUSH0 DUP4 ADD DUP5 PUSH2 0x1226 JUMP JUMPDEST SWAP3 SWAP2 POP POP JUMP JUMPDEST PUSH0 PUSH1 0x20 DUP3 DUP5 SUB SLT ISZERO PUSH2 0x1263 JUMPI PUSH2 0x1262 PUSH2 0xF7F JUMP JUMPDEST JUMPDEST PUSH0 PUSH2 0x1270 DUP5 DUP3 DUP6 ADD PUSH2 0x102B JUMP JUMPDEST SWAP2 POP POP SWAP3 SWAP2 POP POP JUMP JUMPDEST PUSH0 DUP1 PUSH0 PUSH1 0x60 DUP5 DUP7 SUB SLT ISZERO PUSH2 0x1290 JUMPI PUSH2 0x128F PUSH2 0xF7F JUMP JUMPDEST JUMPDEST PUSH0 PUSH2 0x129D DUP7 DUP3 DUP8 ADD PUSH2 0x102B JUMP JUMPDEST SWAP4 POP POP PUSH1 0x20 PUSH2 0x12AE DUP7 DUP3 DUP8 ADD PUSH2 0x102B JUMP JUMPDEST SWAP3 POP POP PUSH1 0x40 PUSH2 0x12BF DUP7 DUP3 DUP8 ADD PUSH2 0xFA6 JUMP JUMPDEST SWAP2 POP POP SWAP3 POP SWAP3 POP SWAP3 JUMP JUMPDEST PUSH0 DUP2 MLOAD SWAP1 POP SWAP2 SWAP1 POP JUMP JUMPDEST PUSH0 DUP3 DUP3 MSTORE PUSH1 0x20 DUP3 ADD SWAP1 POP SWAP3 SWAP2 POP POP JUMP JUMPDEST PUSH0 JUMPDEST DUP4 DUP2 LT ISZERO PUSH2 0x1300 JUMPI DUP1 DUP3 ADD MLOAD DUP2 DUP5 ADD MSTORE PUSH1 0x20 DUP2 ADD SWAP1 POP PUSH2 0x12E5 JUMP JUMPDEST PUSH0 DUP5 DUP5 ADD MSTORE POP POP POP POP JUMP JUMPDEST PUSH0 PUSH2 0x1315 DUP3 PUSH2 0x12C9 JUMP JUMPDEST PUSH2 0x131F DUP2 DUP6 PUSH2 0x12D3 JUMP JUMPDEST SWAP4 POP PUSH2 0x132F DUP2 DUP6 PUSH1 0x20 DUP7 ADD PUSH2 0x12E3 JUMP JUMPDEST PUSH2 0x1338 DUP2 PUSH2 0x1047 JUMP JUMPDEST DUP5 ADD SWAP2 POP POP SWAP3 SWAP2 POP POP JUMP JUMPDEST PUSH0 PUSH1 0x20 DUP3 ADD SWAP1 POP DUP2 DUP2 SUB PUSH0 DUP4 ADD MSTORE PUSH2 0x135B DUP2 DUP5 PUSH2 0x130B JUMP JUMPDEST SWAP1 POP SWAP3 SWAP2 POP POP JUMP JUMPDEST PUSH2 0x136C DUP2 PUSH2 0xF87 JUMP JUMPDEST DUP3 MSTORE POP POP JUMP JUMPDEST PUSH0 PUSH1 0x20 DUP3 ADD SWAP1 POP PUSH2 0x1385 PUSH0 DUP4 ADD DUP5 PUSH2 0x1363 JUMP JUMPDEST SWAP3 SWAP2 POP POP JUMP JUMPDEST PUSH0 DUP1 PUSH1 0x40 DUP4 DUP6 SUB SLT ISZERO PUSH2 0x13A1 JUMPI PUSH2 0x13A0 PUSH2 0xF7F JUMP JUMPDEST JUMPDEST PUSH0 PUSH2 0x13AE DUP6 DUP3 DUP7 ADD PUSH2 0xFA6 JUMP JUMPDEST SWAP3 POP POP PUSH1 0x20 PUSH2 0x13BF DUP6 DUP3 DUP7 ADD PUSH2 0x102B JUMP JUMPDEST SWAP2 POP POP SWAP3 POP SWAP3 SWAP1 POP JUMP JUMPDEST PUSH32 0x69643D0000000000000000000000000000000000000000000000000000000000 DUP2 MSTORE POP JUMP JUMPDEST PUSH0 DUP2 SWAP1 POP SWAP3 SWAP2 POP POP JUMP JUMPDEST PUSH0 PUSH2 0x1403 DUP3 PUSH2 0x12C9 JUMP JUMPDEST PUSH2 0x140D DUP2 DUP6 PUSH2 0x13EF JUMP JUMPDEST SWAP4 POP PUSH2 0x141D DUP2 DUP6 PUSH1 0x20 DUP7 ADD PUSH2 0x12E3 JUMP JUMPDEST DUP1 DUP5 ADD SWAP2 POP POP SWAP3 SWAP2 POP POP JUMP JUMPDEST PUSH0 PUSH2 0x1433 DUP3 PUSH2 0x13C9 JUMP JUMPDEST PUSH1 0x3 DUP3 ADD SWAP2 POP PUSH2 0x1443 DUP3 DUP5 PUSH2 0x13F9 JUMP JUMPDEST SWAP2 POP DUP2 SWAP1 POP SWAP3 SWAP2 POP POP JUMP JUMPDEST PUSH2 0x1457 DUP2 PUSH2 0x1004 JUMP JUMPDEST DUP3 MSTORE POP POP JUMP JUMPDEST PUSH0 PUSH1 0x60 DUP3 ADD SWAP1 POP PUSH2 0x1470 PUSH0 DUP4 ADD DUP7 PUSH2 0x144E JUMP JUMPDEST PUSH2 0x147D PUSH1 0x20 DUP4 ADD DUP6 PUSH2 0x1363 JUMP JUMPDEST DUP2 DUP2 SUB PUSH1 0x40 DUP4 ADD MSTORE PUSH2 0x148F DUP2 DUP5 PUSH2 0x130B JUMP JUMPDEST SWAP1 POP SWAP5 SWAP4 POP POP POP POP JUMP JUMPDEST PUSH0 PUSH1 0x60 DUP3 ADD SWAP1 POP PUSH2 0x14AC PUSH0 DUP4 ADD DUP7 PUSH2 0x144E JUMP JUMPDEST PUSH2 0x14B9 PUSH1 0x20 DUP4 ADD DUP6 PUSH2 0x1363 JUMP JUMPDEST PUSH2 0x14C6 PUSH1 0x40 DUP4 ADD DUP5 PUSH2 0x144E JUMP JUMPDEST SWAP5 SWAP4 POP POP POP POP JUMP JUMPDEST PUSH32 0x4E487B7100000000000000000000000000000000000000000000000000000000 PUSH0 MSTORE PUSH1 0x11 PUSH1 0x4 MSTORE PUSH1 0x24 PUSH0 REVERT JUMPDEST PUSH0 PUSH2 0x1505 DUP3 PUSH2 0xF87 JUMP JUMPDEST SWAP2 POP PUSH32 0xFFFFFFFFFFFFFFFFFFFFFFFFFFFFFFFFFFFFFFFFFFFFFFFFFFFFFFFFFFFFFFFF DUP3 SUB PUSH2 0x1537 JUMPI PUSH2 0x1536 PUSH2 0x14CE JUMP JUMPDEST JUMPDEST PUSH1 0x1 DUP3 ADD SWAP1 POP SWAP2 SWAP1 POP JUMP JUMPDEST PUSH32 0x2C00000000000000000000000000000000000000000000000000000000000000 DUP2 MSTORE POP JUMP JUMPDEST PUSH0 PUSH2 0x1573 DUP3 DUP8 PUSH2 0x13F9 JUMP JUMPDEST SWAP2 POP PUSH2 0x157E DUP3 PUSH2 0x1542 JUMP JUMPDEST PUSH1 0x1 DUP3 ADD SWAP2 POP PUSH2 0x158E DUP3 DUP7 PUSH2 0x13F9 JUMP JUMPDEST SWAP2 POP PUSH2 0x1599 DUP3 PUSH2 0x1542 JUMP JUMPDEST PUSH1 0x1 DUP3 ADD SWAP2 POP PUSH2 0x15A9 DUP3 DUP6 PUSH2 0x13F9 JUMP JUMPDEST SWAP2 POP PUSH2 0x15B4 DUP3 PUSH2 0x1542 JUMP JUMPDEST PUSH1 0x1 DUP3 ADD SWAP2 POP PUSH2 0x15C4 DUP3 DUP5 PUSH2 0x13F9 JUMP JUMPDEST SWAP2 POP DUP2 SWAP1 POP SWAP6 SWAP5 POP POP POP POP POP JUMP JUMPDEST PUSH0 PUSH1 0x40 DUP3 ADD SWAP1 POP PUSH2 0x15E5 PUSH0 DUP4 ADD DUP6 PUSH2 0x144E JUMP JUMPDEST DUP2 DUP2 SUB PUSH1 0x20 DUP4 ADD MSTORE PUSH2 0x15F7 DUP2 DUP5 PUSH2 0x130B JUMP JUMPDEST SWAP1 POP SWAP4 SWAP3 POP POP POP JUMP JUMPDEST PUSH0 DUP2 MLOAD SWAP1 POP PUSH2 0x160E DUP2 PUSH2 0xF90 JUMP JUMPDEST SWAP3 SWAP2 POP POP JUMP JUMPDEST PUSH0 PUSH1 0x20 DUP3 DUP5 SUB SLT ISZERO PUSH2 0x1629 JUMPI PUSH2 0x1628 PUSH2 0xF7F JUMP JUMPDEST JUMPDEST PUSH0 PUSH2 0x1636 DUP5 DUP3 DUP6 ADD PUSH2 0x1600 JUMP JUMPDEST SWAP2 POP POP SWAP3 SWAP2 POP POP JUMP JUMPDEST PUSH32 0x67726F757049643D000000000000000000000000000000000000000000000000 DUP2 MSTORE POP JUMP JUMPDEST PUSH0 PUSH2 0x166F DUP3 PUSH2 0x163F JUMP JUMPDEST PUSH1 0x8 DUP3 ADD SWAP2 POP PUSH2 0x167F DUP3 DUP5 PUSH2 0x13F9 JUMP JUMPDEST SWAP2 POP DUP2 SWAP1 POP SWAP3 SWAP2 POP POP JUMP JUMPDEST PUSH32 0x4E487B7100000000000000000000000000000000000000000000000000000000 PUSH0 MSTORE PUSH1 0x12 PUSH1 0x4 MSTORE PUSH1 0x24 PUSH0 REVERT JUMPDEST PUSH32 0x44454C4554452046524F4D200000000000000000000000000000000000000000 PUSH0 DUP3 ADD MSTORE POP JUMP JUMPDEST PUSH0 PUSH2 0x16EB PUSH1 0xC DUP4 PUSH2 0x13EF JUMP JUMPDEST SWAP2 POP PUSH2 0x16F6 DUP3 PUSH2 0x16B7 JUMP JUMPDEST PUSH1 0xC DUP3 ADD SWAP1 POP SWAP2 SWAP1 POP JUMP JUMPDEST PUSH32 0x2057484552452000000000000000000000000000000000000000000000000000 PUSH0 DUP3 ADD MSTORE POP JUMP JUMPDEST PUSH0 PUSH2 0x1735 PUSH1 0x7 DUP4 PUSH2 0x13EF JUMP JUMPDEST SWAP2 POP PUSH2 0x1740 DUP3 PUSH2 0x1701 JUMP JUMPDEST PUSH1 0x7 DUP3 ADD SWAP1 POP SWAP2 SWAP1 POP JUMP JUMPDEST PUSH0 PUSH2 0x1755 DUP3 PUSH2 0x16DF JUMP JUMPDEST SWAP2 POP PUSH2 0x1761 DUP3 DUP6 PUSH2 0x13F9 JUMP JUMPDEST SWAP2 POP PUSH2 0x176C DUP3 PUSH2 0x1729 JUMP JUMPDEST SWAP2 POP PUSH2 0x1778 DUP3 DUP5 PUSH2 0x13F9 JUMP JUMPDEST SWAP2 POP DUP2 SWAP1 POP SWAP4 SWAP3 POP POP POP JUMP JUMPDEST PUSH32 0x2700000000000000000000000000000000000000000000000000000000000000 PUSH0 DUP3 ADD MSTORE POP JUMP JUMPDEST PUSH0 PUSH2 0x17B8 PUSH1 0x1 DUP4 PUSH2 0x13EF JUMP JUMPDEST SWAP2 POP PUSH2 0x17C3 DUP3 PUSH2 0x1784 JUMP JUMPDEST PUSH1 0x1 DUP3 ADD SWAP1 POP SWAP2 SWAP1 POP JUMP JUMPDEST PUSH0 PUSH2 0x17D8 DUP3 PUSH2 0x17AC JUMP JUMPDEST SWAP2 POP PUSH2 0x17E4 DUP3 DUP5 PUSH2 0x13F9 JUMP JUMPDEST SWAP2 POP PUSH2 0x17EF DUP3 PUSH2 0x17AC JUMP JUMPDEST SWAP2 POP DUP2 SWAP1 POP SWAP3 SWAP2 POP POP JUMP JUMPDEST PUSH32 0x494E5345525420494E544F200000000000000000000000000000000000000000 PUSH0 DUP3 ADD MSTORE POP JUMP JUMPDEST PUSH0 PUSH2 0x182E PUSH1 0xC DUP4 PUSH2 0x13EF JUMP JUMPDEST SWAP2 POP PUSH2 0x1839 DUP3 PUSH2 0x17FA JUMP JUMPDEST PUSH1 0xC DUP3 ADD SWAP1 POP SWAP2 SWAP1 POP JUMP JUMPDEST PUSH32 0x2800000000000000000000000000000000000000000000000000000000000000 PUSH0 DUP3 ADD MSTORE POP JUMP JUMPDEST PUSH0 PUSH2 0x1878 PUSH1 0x1 DUP4 PUSH2 0x13EF JUMP JUMPDEST SWAP2 POP PUSH2 0x1883 DUP3 PUSH2 0x1844 JUMP JUMPDEST PUSH1 0x1 DUP3 ADD SWAP1 POP SWAP2 SWAP1 POP JUMP JUMPDEST PUSH32 0x2956414C55455328000000000000000000000000000000000000000000000000 PUSH0 DUP3 ADD MSTORE POP JUMP JUMPDEST PUSH0 PUSH2 0x18C2 PUSH1 0x8 DUP4 PUSH2 0x13EF JUMP JUMPDEST SWAP2 POP PUSH2 0x18CD DUP3 PUSH2 0x188E JUMP JUMPDEST PUSH1 0x8 DUP3 ADD SWAP1 POP SWAP2 SWAP1 POP JUMP JUMPDEST PUSH32 0x2900000000000000000000000000000000000000000000000000000000000000 PUSH0 DUP3 ADD MSTORE POP JUMP JUMPDEST PUSH0 PUSH2 0x190C PUSH1 0x1 DUP4 PUSH2 0x13EF JUMP JUMPDEST SWAP2 POP PUSH2 0x1917 DUP3 PUSH2 0x18D8 JUMP JUMPDEST PUSH1 0x1 DUP3 ADD SWAP1 POP SWAP2 SWAP1 POP JUMP JUMPDEST PUSH0 PUSH2 0x192C DUP3 PUSH2 0x1822 JUMP JUMPDEST SWAP2 POP PUSH2 0x1938 DUP3 DUP7 PUSH2 0x13F9 JUMP JUMPDEST SWAP2 POP PUSH2 0x1943 DUP3 PUSH2 0x186C JUMP JUMPDEST SWAP2 POP PUSH2 0x194F DUP3 DUP6 PUSH2 0x13F9 JUMP JUMPDEST SWAP2 POP PUSH2 0x195A DUP3 PUSH2 0x18B6 JUMP JUMPDEST SWAP2 POP PUSH2 0x1966 DUP3 DUP5 PUSH2 0x13F9 JUMP JUMPDEST SWAP2 POP PUSH2 0x1971 DUP3 PUSH2 0x1900 JUMP JUMPDEST SWAP2 POP DUP2 SWAP1 POP SWAP5 SWAP4 POP POP POP POP JUMP JUMPDEST PUSH0 PUSH2 0x1988 DUP3 PUSH2 0xF87 JUMP JUMPDEST SWAP2 POP PUSH2 0x1993 DUP4 PUSH2 0xF87 JUMP JUMPDEST SWAP3 POP DUP3 DUP3 MUL PUSH2 0x19A1 DUP2 PUSH2 0xF87 JUMP JUMPDEST SWAP2 POP DUP3 DUP3 DIV DUP5 EQ DUP4 ISZERO OR PUSH2 0x19B8 JUMPI PUSH2 0x19B7 PUSH2 0x14CE JUMP JUMPDEST JUMPDEST POP SWAP3 SWAP2 POP POP JUMP JUMPDEST PUSH0 PUSH2 0x19C9 DUP3 PUSH2 0xF87 JUMP JUMPDEST SWAP2 POP PUSH2 0x19D4 DUP4 PUSH2 0xF87 JUMP JUMPDEST SWAP3 POP DUP3 DUP3 ADD SWAP1 POP DUP1 DUP3 GT ISZERO PUSH2 0x19EC JUMPI PUSH2 0x19EB PUSH2 0x14CE JUMP JUMPDEST JUMPDEST SWAP3 SWAP2 POP POP JUMP JUMPDEST PUSH32 0x4E487B7100000000000000000000000000000000000000000000000000000000 PUSH0 MSTORE PUSH1 0x32 PUSH1 0x4 MSTORE PUSH1 0x24 PUSH0 REVERT JUMPDEST PUSH0 PUSH2 0x1A29 DUP3 PUSH2 0xF87 JUMP JUMPDEST SWAP2 POP PUSH0 DUP3 SUB PUSH2 0x1A3B JUMPI PUSH2 0x1A3A PUSH2 0x14CE JUMP JUMPDEST JUMPDEST PUSH1 0x1 DUP3 SUB SWAP1 POP SWAP2 SWAP1 POP JUMP JUMPDEST PUSH0 PUSH1 0x40 DUP3 ADD SWAP1 POP PUSH2 0x1A59 PUSH0 DUP4 ADD DUP6 PUSH2 0x1363 JUMP JUMPDEST PUSH2 0x1A66 PUSH1 0x20 DUP4 ADD DUP5 PUSH2 0x1363 JUMP JUMPDEST SWAP4 SWAP3 POP POP POP JUMP JUMPDEST PUSH32 0x5F00000000000000000000000000000000000000000000000000000000000000 PUSH0 DUP3 ADD MSTORE POP JUMP JUMPDEST PUSH0 PUSH2 0x1AA1 PUSH1 0x1 DUP4 PUSH2 0x13EF JUMP JUMPDEST SWAP2 POP PUSH2 0x1AAC DUP3 PUSH2 0x1A6D JUMP JUMPDEST PUSH1 0x1 DUP3 ADD SWAP1 POP SWAP2 SWAP1 POP JUMP JUMPDEST PUSH0 PUSH2 0x1AC2 DUP3 DUP7 PUSH2 0x13F9 JUMP JUMPDEST SWAP2 POP PUSH2 0x1ACD DUP3 PUSH2 0x1A95 JUMP JUMPDEST SWAP2 POP PUSH2 0x1AD9 DUP3 DUP6 PUSH2 0x13F9 JUMP JUMPDEST SWAP2 POP PUSH2 0x1AE4 DUP3 PUSH2 0x1A95 JUMP JUMPDEST SWAP2 POP PUSH2 0x1AF0 DUP3 DUP5 PUSH2 0x13F9 JUMP JUMPDEST SWAP2 POP DUP2 SWAP1 POP SWAP5 SWAP4 POP POP POP POP JUMP JUMPDEST PUSH32 0x435245415445205441424C452000000000000000000000000000000000000000 PUSH0 DUP3 ADD MSTORE POP JUMP JUMPDEST PUSH0 PUSH2 0x1B31 PUSH1 0xD DUP4 PUSH2 0x13EF JUMP JUMPDEST SWAP2 POP PUSH2 0x1B3C DUP3 PUSH2 0x1AFD JUMP JUMPDEST PUSH1 0xD DUP3 ADD SWAP1 POP SWAP2 SWAP1 POP JUMP JUMPDEST PUSH0 PUSH2 0x1B51 DUP3 PUSH2 0x1B25 JUMP JUMPDEST SWAP2 POP PUSH2 0x1B5D DUP3 DUP7 PUSH2 0x13F9 JUMP JUMPDEST SWAP2 POP PUSH2 0x1B68 DUP3 PUSH2 0x1A95 JUMP JUMPDEST SWAP2 POP PUSH2 0x1B74 DUP3 DUP6 PUSH2 0x13F9 JUMP JUMPDEST SWAP2 POP PUSH2 0x1B7F DUP3 PUSH2 0x186C JUMP JUMPDEST SWAP2 POP PUSH2 0x1B8B DUP3 DUP5 PUSH2 0x13F9 JUMP JUMPDEST SWAP2 POP PUSH2 0x1B96 DUP3 PUSH2 0x1900 JUMP JUMPDEST SWAP2 POP DUP2 SWAP1 POP SWAP5 SWAP4 POP POP POP POP JUMP JUMPDEST PUSH0 PUSH2 0x1BAD DUP3 PUSH2 0x1729 JUMP JUMPDEST SWAP2 POP PUSH2 0x1BB9 DUP3 DUP5 PUSH2 0x13F9 JUMP JUMPDEST SWAP2 POP DUP2 SWAP1 POP SWAP3 SWAP2 POP POP JUMP JUMPDEST PUSH32 0x5550444154452000000000000000000000000000000000000000000000000000 PUSH0 DUP3 ADD MSTORE POP JUMP JUMPDEST PUSH0 PUSH2 0x1BF8 PUSH1 0x7 DUP4 PUSH2 0x13EF JUMP JUMPDEST SWAP2 POP PUSH2 0x1C03 DUP3 PUSH2 0x1BC4 JUMP JUMPDEST PUSH1 0x7 DUP3 ADD SWAP1 POP SWAP2 SWAP1 POP JUMP JUMPDEST PUSH32 0x2053455420000000000000000000000000000000000000000000000000000000 PUSH0 DUP3 ADD MSTORE POP JUMP JUMPDEST PUSH0 PUSH2 0x1C42 PUSH1 0x5 DUP4 PUSH2 0x13EF JUMP JUMPDEST SWAP2 POP PUSH2 0x1C4D DUP3 PUSH2 0x1C0E JUMP JUMPDEST PUSH1 0x5 DUP3 ADD SWAP1 POP SWAP2 SWAP1 POP JUMP JUMPDEST PUSH0 PUSH2 0x1C62 DUP3 PUSH2 0x1BEC JUMP JUMPDEST SWAP2 POP PUSH2 0x1C6E DUP3 DUP7 PUSH2 0x13F9 JUMP JUMPDEST SWAP2 POP PUSH2 0x1C79 DUP3 PUSH2 0x1C36 JUMP JUMPDEST SWAP2 POP PUSH2 0x1C85 DUP3 DUP6 PUSH2 0x13F9 JUMP JUMPDEST SWAP2 POP PUSH2 0x1C91 DUP3 DUP5 PUSH2 0x13F9 JUMP JUMPDEST SWAP2 POP DUP2 SWAP1 POP SWAP5 SWAP4 POP POP POP POP JUMP INVALID PUSH10 0x6420696E746567657220 PUSH17 0x72696D617279206B65792C6F776E657220 PUSH21 0x6578742C726F756E64496420696E74656765722C67 PUSH19 0x6F757049642074657874A26469706673582212 KECCAK256 PUSH25 0xF2E6D975D9EA6E0052CF721303015B9E5D6CF26E8F04C22511 0xF ORIGIN 0xB2 BYTE PUSH19 0x9264736F6C6343000814003300000000000000 "
				},
				"gasEstimates": {
					"creation": {
						"codeDepositCost": "1488400",
						"executionCost": "6558",
						"totalCost": "1494958"
					},
					"external": {
						"createTable()": "infinite",
						"deleteFromTable(uint256)": "infinite",
						"getAddressString(address)": "infinite",
						"getTableId()": "2476",
						"getTableName()": "infinite",
						"insertIntoTable(address,address,uint256)": "infinite",
						"onERC721Received(address,address,uint256,bytes)": "infinite",
						"setAccessControl(address)": "infinite",
						"updateTable(uint256,address)": "infinite"
					}
				},
				"methodIdentifiers": {
					"createTable()": "b2a4c897",
					"deleteFromTable(uint256)": "04bfc47f",
					"getAddressString(address)": "3e295859",
					"getTableId()": "88e4f1cb",
					"getTableName()": "5d5a33a2",
					"insertIntoTable(address,address,uint256)": "1e2dd199",
					"onERC721Received(address,address,uint256,bytes)": "150b7a02",
					"setAccessControl(address)": "19129e5a",
					"updateTable(uint256,address)": "e86492b1"
				}
			},
			"storageLayout": {
				"storage": [
					{
						"astId": 2250,
						"contract": "contracts/base/tableland/SusuWalletStorage.sol:SusuWalletStorage",
						"label": "_tableId",
						"offset": 0,
						"slot": "0",
						"type": "t_uint256"
					},
					{
						"astId": 2253,
						"contract": "contracts/base/tableland/SusuWalletStorage.sol:SusuWalletStorage",
						"label": "primaryKey",
						"offset": 0,
						"slot": "1",
						"type": "t_uint256"
					}
				],
				"types": {
					"t_uint256": {
						"encoding": "inplace",
						"label": "uint256",
						"numberOfBytes": "32"
					}
				}
			},
			"userdoc": {
				"errors": {
					"ChainNotSupported(uint256)": [
						{
							"notice": "Current chain does not have a TablelandTables deployment."
						}
					]
				},
				"kind": "user",
				"methods": {},
				"version": 1
			}
		}
	}
}