{
	"contracts/base/tableland/SusuGroupStorage.sol": {
		"SusuGroupStorage": {
			"abi": [
				{
					"inputs": [
						{
							"internalType": "uint256",
							"name": "chainid",
							"type": "uint256"
						}
					],
					"name": "ChainNotSupported",
					"type": "error"
				},
				{
					"inputs": [
						{
							"internalType": "uint256",
							"name": "value",
							"type": "uint256"
						},
						{
							"internalType": "uint256",
							"name": "length",
							"type": "uint256"
						}
					],
					"name": "StringsInsufficientHexLength",
					"type": "error"
				},
				{
					"inputs": [],
					"name": "createTable",
					"outputs": [],
					"stateMutability": "payable",
					"type": "function"
				},
				{
					"inputs": [
						{
							"internalType": "uint256",
							"name": "id",
							"type": "uint256"
						}
					],
					"name": "deleteFromTable",
					"outputs": [],
					"stateMutability": "nonpayable",
					"type": "function"
				},
				{
					"inputs": [
						{
							"internalType": "address",
							"name": "m",
							"type": "address"
						}
					],
					"name": "getAddressString",
					"outputs": [
						{
							"internalType": "string",
							"name": "",
							"type": "string"
						}
					],
					"stateMutability": "pure",
					"type": "function"
				},
				{
					"inputs": [],
					"name": "getTableId",
					"outputs": [
						{
							"internalType": "uint256",
							"name": "",
							"type": "uint256"
						}
					],
					"stateMutability": "view",
					"type": "function"
				},
				{
					"inputs": [],
					"name": "getTableName",
					"outputs": [
						{
							"internalType": "string",
							"name": "",
							"type": "string"
						}
					],
					"stateMutability": "view",
					"type": "function"
				},
				{
					"inputs": [
						{
							"internalType": "address",
							"name": "groupId",
							"type": "address"
						},
						{
							"internalType": "address",
							"name": "memberAddress",
							"type": "address"
						}
					],
					"name": "insertIntoTable",
					"outputs": [],
					"stateMutability": "nonpayable",
					"type": "function"
				},
				{
					"inputs": [
						{
							"internalType": "address",
							"name": "",
							"type": "address"
						},
						{
							"internalType": "address",
							"name": "",
							"type": "address"
						},
						{
							"internalType": "uint256",
							"name": "",
							"type": "uint256"
						},
						{
							"internalType": "bytes",
							"name": "",
							"type": "bytes"
						}
					],
					"name": "onERC721Received",
					"outputs": [
						{
							"internalType": "bytes4",
							"name": "",
							"type": "bytes4"
						}
					],
					"stateMutability": "nonpayable",
					"type": "function"
				},
				{
					"inputs": [
						{
							"internalType": "address",
							"name": "controller",
							"type": "address"
						}
					],
					"name": "setAccessControl",
					"outputs": [],
					"stateMutability": "nonpayable",
					"type": "function"
				},
				{
					"inputs": [
						{
							"internalType": "uint256",
							"name": "id",
							"type": "uint256"
						},
						{
							"internalType": "address",
							"name": "groupId",
							"type": "address"
						}
					],
					"name": "updateTable",
					"outputs": [],
					"stateMutability": "nonpayable",
					"type": "function"
				}
			],
			"devdoc": {
				"errors": {
					"StringsInsufficientHexLength(uint256,uint256)": [
						{
							"details": "The `value` string doesn't fit in the specified `length`."
						}
					]
				},
				"kind": "dev",
				"methods": {
					"onERC721Received(address,address,uint256,bytes)": {
						"details": "See {IERC721Receiver-onERC721Received}. Always returns `IERC721Receiver.onERC721Received.selector`."
					}
				},
				"version": 1
			},
			"evm": {
				"assembly": "    /* \"contracts/base/tableland/SusuGroupStorage.sol\":400:3887  contract SusuGroupStorage is ERC721Holder {... */\n  mstore(0x40, 0x80)\n    /* \"contracts/base/tableland/SusuGroupStorage.sol\":562:563  0 */\n  0x00\n    /* \"contracts/base/tableland/SusuGroupStorage.sol\":533:563  uint256 private primaryKey = 0 */\n  0x01\n  sstore\n    /* \"contracts/base/tableland/SusuGroupStorage.sol\":400:3887  contract SusuGroupStorage is ERC721Holder {... */\n  callvalue\n  dup1\n  iszero\n  tag_1\n  jumpi\n  0x00\n  dup1\n  revert\ntag_1:\n  pop\n  dataSize(sub_0)\n  dup1\n  dataOffset(sub_0)\n  0x00\n  codecopy\n  0x00\n  return\nstop\n\nsub_0: assembly {\n        /* \"contracts/base/tableland/SusuGroupStorage.sol\":400:3887  contract SusuGroupStorage is ERC721Holder {... */\n      mstore(0x40, 0x80)\n      jumpi(tag_1, lt(calldatasize, 0x04))\n      shr(0xe0, calldataload(0x00))\n      dup1\n      0x3e295859\n      gt\n      tag_11\n      jumpi\n      dup1\n      0x3e295859\n      eq\n      tag_6\n      jumpi\n      dup1\n      0x5d5a33a2\n      eq\n      tag_7\n      jumpi\n      dup1\n      0x88e4f1cb\n      eq\n      tag_8\n      jumpi\n      dup1\n      0xb2a4c897\n      eq\n      tag_9\n      jumpi\n      dup1\n      0xe86492b1\n      eq\n      tag_10\n      jumpi\n      jump(tag_1)\n    tag_11:\n      dup1\n      0x04bfc47f\n      eq\n      tag_2\n      jumpi\n      dup1\n      0x150b7a02\n      eq\n      tag_3\n      jumpi\n      dup1\n      0x19129e5a\n      eq\n      tag_4\n      jumpi\n      dup1\n      0x2907b979\n      eq\n      tag_5\n      jumpi\n    tag_1:\n      0x00\n      dup1\n      revert\n        /* \"contracts/base/tableland/SusuGroupStorage.sol\":2770:3197  function deleteFromTable(uint256 id) external {... */\n    tag_2:\n      callvalue\n      dup1\n      iszero\n      tag_12\n      jumpi\n      0x00\n      dup1\n      revert\n    tag_12:\n      pop\n      tag_13\n      0x04\n      dup1\n      calldatasize\n      sub\n      dup2\n      add\n      swap1\n      tag_14\n      swap2\n      swap1\n      tag_15\n      jump\t// in\n    tag_14:\n      tag_16\n      jump\t// in\n    tag_13:\n      stop\n        /* \"@openzeppelin/contracts/token/ERC721/utils/ERC721Holder.sol\":639:792  function onERC721Received(address, address, uint256, bytes memory) public virtual returns (bytes4) {... */\n    tag_3:\n      callvalue\n      dup1\n      iszero\n      tag_17\n      jumpi\n      0x00\n      dup1\n      revert\n    tag_17:\n      pop\n      tag_18\n      0x04\n      dup1\n      calldatasize\n      sub\n      dup2\n      add\n      swap1\n      tag_19\n      swap2\n      swap1\n      tag_20\n      jump\t// in\n    tag_19:\n      tag_21\n      jump\t// in\n    tag_18:\n      mload(0x40)\n      tag_22\n      swap2\n      swap1\n      tag_23\n      jump\t// in\n    tag_22:\n      mload(0x40)\n      dup1\n      swap2\n      sub\n      swap1\n      return\n        /* \"contracts/base/tableland/SusuGroupStorage.sol\":3285:3586  function setAccessControl(address controller) external {... */\n    tag_4:\n      callvalue\n      dup1\n      iszero\n      tag_24\n      jumpi\n      0x00\n      dup1\n      revert\n    tag_24:\n      pop\n      tag_25\n      0x04\n      dup1\n      calldatasize\n      sub\n      dup2\n      add\n      swap1\n      tag_26\n      swap2\n      swap1\n      tag_27\n      jump\t// in\n    tag_26:\n      tag_28\n      jump\t// in\n    tag_25:\n      stop\n        /* \"contracts/base/tableland/SusuGroupStorage.sol\":1274:2048  function insertIntoTable( address groupId, address memberAddress) external {... */\n    tag_5:\n      callvalue\n      dup1\n      iszero\n      tag_29\n      jumpi\n      0x00\n      dup1\n      revert\n    tag_29:\n      pop\n      tag_30\n      0x04\n      dup1\n      calldatasize\n      sub\n      dup2\n      add\n      swap1\n      tag_31\n      swap2\n      swap1\n      tag_32\n      jump\t// in\n    tag_31:\n      tag_33\n      jump\t// in\n    tag_30:\n      stop\n        /* \"contracts/base/tableland/SusuGroupStorage.sol\":1091:1225  function getAddressString(address m) external pure returns (string memory){... */\n    tag_6:\n      callvalue\n      dup1\n      iszero\n      tag_34\n      jumpi\n      0x00\n      dup1\n      revert\n    tag_34:\n      pop\n      tag_35\n      0x04\n      dup1\n      calldatasize\n      sub\n      dup2\n      add\n      swap1\n      tag_36\n      swap2\n      swap1\n      tag_27\n      jump\t// in\n    tag_36:\n      tag_37\n      jump\t// in\n    tag_35:\n      mload(0x40)\n      tag_38\n      swap2\n      swap1\n      tag_39\n      jump\t// in\n    tag_38:\n      mload(0x40)\n      dup1\n      swap2\n      sub\n      swap1\n      return\n        /* \"contracts/base/tableland/SusuGroupStorage.sol\":3748:3884  function getTableName() external view returns (string memory) {... */\n    tag_7:\n      callvalue\n      dup1\n      iszero\n      tag_40\n      jumpi\n      0x00\n      dup1\n      revert\n    tag_40:\n      pop\n      tag_41\n      tag_42\n      jump\t// in\n    tag_41:\n      mload(0x40)\n      tag_43\n      swap2\n      swap1\n      tag_39\n      jump\t// in\n    tag_43:\n      mload(0x40)\n      dup1\n      swap2\n      sub\n      swap1\n      return\n        /* \"contracts/base/tableland/SusuGroupStorage.sol\":3622:3710  function getTableId() external view returns (uint256) {... */\n    tag_8:\n      callvalue\n      dup1\n      iszero\n      tag_44\n      jumpi\n      0x00\n      dup1\n      revert\n    tag_44:\n      pop\n      tag_45\n      tag_46\n      jump\t// in\n    tag_45:\n      mload(0x40)\n      tag_47\n      swap2\n      swap1\n      tag_48\n      jump\t// in\n    tag_47:\n      mload(0x40)\n      dup1\n      swap2\n      sub\n      swap1\n      return\n        /* \"contracts/base/tableland/SusuGroupStorage.sol\":724:1083  function createTable() public payable {... */\n    tag_9:\n      tag_49\n      tag_50\n      jump\t// in\n    tag_49:\n      stop\n        /* \"contracts/base/tableland/SusuGroupStorage.sol\":2109:2720  function updateTable(uint256 id, address groupId) external {... */\n    tag_10:\n      callvalue\n      dup1\n      iszero\n      tag_51\n      jumpi\n      0x00\n      dup1\n      revert\n    tag_51:\n      pop\n      tag_52\n      0x04\n      dup1\n      calldatasize\n      sub\n      dup2\n      add\n      swap1\n      tag_53\n      swap2\n      swap1\n      tag_54\n      jump\t// in\n    tag_53:\n      tag_55\n      jump\t// in\n    tag_52:\n      stop\n        /* \"contracts/base/tableland/SusuGroupStorage.sol\":2770:3197  function deleteFromTable(uint256 id) external {... */\n    tag_16:\n        /* \"contracts/base/tableland/SusuGroupStorage.sol\":2879:2900  string memory filters */\n      0x00\n        /* \"contracts/base/tableland/SusuGroupStorage.sol\":2951:2971  Strings.toString(id) */\n      tag_57\n        /* \"contracts/base/tableland/SusuGroupStorage.sol\":2968:2970  id */\n      dup3\n        /* \"contracts/base/tableland/SusuGroupStorage.sol\":2951:2967  Strings.toString */\n      tag_58\n        /* \"contracts/base/tableland/SusuGroupStorage.sol\":2951:2971  Strings.toString(id) */\n      jump\t// in\n    tag_57:\n        /* \"contracts/base/tableland/SusuGroupStorage.sol\":2903:2982  string.concat(... */\n      add(0x20, mload(0x40))\n      tag_59\n      swap2\n      swap1\n      tag_60\n      jump\t// in\n    tag_59:\n      mload(0x40)\n      0x20\n      dup2\n      dup4\n      sub\n      sub\n      dup2\n      mstore\n      swap1\n      0x40\n      mstore\n        /* \"contracts/base/tableland/SusuGroupStorage.sol\":2879:2982  string memory filters = string.concat(... */\n      swap1\n      pop\n        /* \"contracts/base/tableland/SusuGroupStorage.sol\":3026:3052  TablelandDeployments.get() */\n      tag_61\n        /* \"contracts/base/tableland/SusuGroupStorage.sol\":3026:3050  TablelandDeployments.get */\n      tag_62\n        /* \"contracts/base/tableland/SusuGroupStorage.sol\":3026:3052  TablelandDeployments.get() */\n      jump\t// in\n    tag_61:\n        /* \"contracts/base/tableland/SusuGroupStorage.sol\":3026:3059  TablelandDeployments.get().mutate */\n      0xffffffffffffffffffffffffffffffffffffffff\n      and\n      0x377af0da\n        /* \"contracts/base/tableland/SusuGroupStorage.sol\":3082:3086  this */\n      address\n        /* \"contracts/base/tableland/SusuGroupStorage.sol\":3102:3110  _tableId */\n      sload(0x00)\n        /* \"contracts/base/tableland/SusuGroupStorage.sol\":3125:3178  SQLHelpers.toDelete(_TABLE_PREFIX, _tableId, filters) */\n      tag_63\n        /* \"contracts/base/tableland/SusuGroupStorage.sol\":3145:3158  _TABLE_PREFIX */\n      mload(0x40)\n      dup1\n      0x40\n      add\n      0x40\n      mstore\n      dup1\n      0x11\n      dup2\n      mstore\n      0x20\n      add\n      0x737573755f67726f7570735f7461626c65000000000000000000000000000000\n      dup2\n      mstore\n      pop\n        /* \"contracts/base/tableland/SusuGroupStorage.sol\":3160:3168  _tableId */\n      sload(0x00)\n        /* \"contracts/base/tableland/SusuGroupStorage.sol\":3170:3177  filters */\n      dup8\n        /* \"contracts/base/tableland/SusuGroupStorage.sol\":3125:3144  SQLHelpers.toDelete */\n      tag_64\n        /* \"contracts/base/tableland/SusuGroupStorage.sol\":3125:3178  SQLHelpers.toDelete(_TABLE_PREFIX, _tableId, filters) */\n      jump\t// in\n    tag_63:\n        /* \"contracts/base/tableland/SusuGroupStorage.sol\":3026:3189  TablelandDeployments.get().mutate(... */\n      mload(0x40)\n      dup5\n      0xffffffff\n      and\n      0xe0\n      shl\n      dup2\n      mstore\n      0x04\n      add\n      tag_65\n      swap4\n      swap3\n      swap2\n      swap1\n      tag_66\n      jump\t// in\n    tag_65:\n      0x00\n      mload(0x40)\n      dup1\n      dup4\n      sub\n      dup2\n      0x00\n      dup8\n      dup1\n      extcodesize\n      iszero\n      dup1\n      iszero\n      tag_67\n      jumpi\n      0x00\n      dup1\n      revert\n    tag_67:\n      pop\n      gas\n      call\n      iszero\n      dup1\n      iszero\n      tag_69\n      jumpi\n      returndatasize\n      0x00\n      dup1\n      returndatacopy\n      revert(0x00, returndatasize)\n    tag_69:\n      pop\n      pop\n      pop\n      pop\n        /* \"contracts/base/tableland/SusuGroupStorage.sol\":2816:3197  {... */\n      pop\n        /* \"contracts/base/tableland/SusuGroupStorage.sol\":2770:3197  function deleteFromTable(uint256 id) external {... */\n      pop\n      jump\t// out\n        /* \"@openzeppelin/contracts/token/ERC721/utils/ERC721Holder.sol\":639:792  function onERC721Received(address, address, uint256, bytes memory) public virtual returns (bytes4) {... */\n    tag_21:\n        /* \"@openzeppelin/contracts/token/ERC721/utils/ERC721Holder.sol\":730:736  bytes4 */\n      0x00\n        /* \"@openzeppelin/contracts/token/ERC721/utils/ERC721Holder.sol\":755:785  this.onERC721Received.selector */\n      shl(0xe0, 0x150b7a02)\n        /* \"@openzeppelin/contracts/token/ERC721/utils/ERC721Holder.sol\":748:785  return this.onERC721Received.selector */\n      swap1\n      pop\n        /* \"@openzeppelin/contracts/token/ERC721/utils/ERC721Holder.sol\":639:792  function onERC721Received(address, address, uint256, bytes memory) public virtual returns (bytes4) {... */\n      swap5\n      swap4\n      pop\n      pop\n      pop\n      pop\n      jump\t// out\n        /* \"contracts/base/tableland/SusuGroupStorage.sol\":3285:3586  function setAccessControl(address controller) external {... */\n    tag_28:\n        /* \"contracts/base/tableland/SusuGroupStorage.sol\":3351:3377  TablelandDeployments.get() */\n      tag_72\n        /* \"contracts/base/tableland/SusuGroupStorage.sol\":3351:3375  TablelandDeployments.get */\n      tag_62\n        /* \"contracts/base/tableland/SusuGroupStorage.sol\":3351:3377  TablelandDeployments.get() */\n      jump\t// in\n    tag_72:\n        /* \"contracts/base/tableland/SusuGroupStorage.sol\":3351:3391  TablelandDeployments.get().setController */\n      0xffffffffffffffffffffffffffffffffffffffff\n      and\n      0x8bb0ab97\n        /* \"contracts/base/tableland/SusuGroupStorage.sol\":3414:3418  this */\n      address\n        /* \"contracts/base/tableland/SusuGroupStorage.sol\":3470:3478  _tableId */\n      sload(0x00)\n        /* \"contracts/base/tableland/SusuGroupStorage.sol\":3493:3503  controller */\n      dup5\n        /* \"contracts/base/tableland/SusuGroupStorage.sol\":3351:3578  TablelandDeployments.get().setController(... */\n      mload(0x40)\n      dup5\n      0xffffffff\n      and\n      0xe0\n      shl\n      dup2\n      mstore\n      0x04\n      add\n      tag_73\n      swap4\n      swap3\n      swap2\n      swap1\n      tag_74\n      jump\t// in\n    tag_73:\n      0x00\n      mload(0x40)\n      dup1\n      dup4\n      sub\n      dup2\n      0x00\n      dup8\n      dup1\n      extcodesize\n      iszero\n      dup1\n      iszero\n      tag_75\n      jumpi\n      0x00\n      dup1\n      revert\n    tag_75:\n      pop\n      gas\n      call\n      iszero\n      dup1\n      iszero\n      tag_77\n      jumpi\n      returndatasize\n      0x00\n      dup1\n      returndatacopy\n      revert(0x00, returndatasize)\n    tag_77:\n      pop\n      pop\n      pop\n      pop\n        /* \"contracts/base/tableland/SusuGroupStorage.sol\":3285:3586  function setAccessControl(address controller) external {... */\n      pop\n      jump\t// out\n        /* \"contracts/base/tableland/SusuGroupStorage.sol\":1274:2048  function insertIntoTable( address groupId, address memberAddress) external {... */\n    tag_33:\n        /* \"contracts/base/tableland/SusuGroupStorage.sol\":1360:1377  string memory adr */\n      0x00\n        /* \"contracts/base/tableland/SusuGroupStorage.sol\":1380:1414  Strings.toHexString(memberAddress) */\n      tag_79\n        /* \"contracts/base/tableland/SusuGroupStorage.sol\":1400:1413  memberAddress */\n      dup3\n        /* \"contracts/base/tableland/SusuGroupStorage.sol\":1380:1399  Strings.toHexString */\n      tag_80\n        /* \"contracts/base/tableland/SusuGroupStorage.sol\":1380:1414  Strings.toHexString(memberAddress) */\n      jump\t// in\n    tag_79:\n        /* \"contracts/base/tableland/SusuGroupStorage.sol\":1360:1414  string memory adr = Strings.toHexString(memberAddress) */\n      swap1\n      pop\n        /* \"contracts/base/tableland/SusuGroupStorage.sol\":1425:1446  string memory groupid */\n      0x00\n        /* \"contracts/base/tableland/SusuGroupStorage.sol\":1449:1477  Strings.toHexString(groupId) */\n      tag_81\n        /* \"contracts/base/tableland/SusuGroupStorage.sol\":1469:1476  groupId */\n      dup5\n        /* \"contracts/base/tableland/SusuGroupStorage.sol\":1449:1468  Strings.toHexString */\n      tag_80\n        /* \"contracts/base/tableland/SusuGroupStorage.sol\":1449:1477  Strings.toHexString(groupId) */\n      jump\t// in\n    tag_81:\n        /* \"contracts/base/tableland/SusuGroupStorage.sol\":1425:1477  string memory groupid = Strings.toHexString(groupId) */\n      swap1\n      pop\n        /* \"contracts/base/tableland/SusuGroupStorage.sol\":1488:1514  TablelandDeployments.get() */\n      tag_82\n        /* \"contracts/base/tableland/SusuGroupStorage.sol\":1488:1512  TablelandDeployments.get */\n      tag_62\n        /* \"contracts/base/tableland/SusuGroupStorage.sol\":1488:1514  TablelandDeployments.get() */\n      jump\t// in\n    tag_82:\n        /* \"contracts/base/tableland/SusuGroupStorage.sol\":1488:1521  TablelandDeployments.get().mutate */\n      0xffffffffffffffffffffffffffffffffffffffff\n      and\n      0x377af0da\n        /* \"contracts/base/tableland/SusuGroupStorage.sol\":1544:1548  this */\n      address\n        /* \"contracts/base/tableland/SusuGroupStorage.sol\":1600:1608  _tableId */\n      sload(0x00)\n        /* \"contracts/base/tableland/SusuGroupStorage.sol\":1623:2029  SQLHelpers.toInsert(... */\n      tag_83\n        /* \"contracts/base/tableland/SusuGroupStorage.sol\":1661:1674  _TABLE_PREFIX */\n      mload(0x40)\n      dup1\n      0x40\n      add\n      0x40\n      mstore\n      dup1\n      0x11\n      dup2\n      mstore\n      0x20\n      add\n      0x737573755f67726f7570735f7461626c65000000000000000000000000000000\n      dup2\n      mstore\n      pop\n        /* \"contracts/base/tableland/SusuGroupStorage.sol\":1693:1701  _tableId */\n      sload(0x00)\n        /* \"contracts/base/tableland/SusuGroupStorage.sol\":1623:2029  SQLHelpers.toInsert(... */\n      mload(0x40)\n      dup1\n      0x40\n      add\n      0x40\n      mstore\n      dup1\n      0x14\n      dup2\n      mstore\n      0x20\n      add\n      0x69642c2067726f757049642c2061646472657373000000000000000000000000\n      dup2\n      mstore\n      pop\n        /* \"contracts/base/tableland/SusuGroupStorage.sol\":1797:1827  Strings.toString(primaryKey++) */\n      tag_84\n        /* \"contracts/base/tableland/SusuGroupStorage.sol\":1814:1824  primaryKey */\n      0x01\n      0x00\n        /* \"contracts/base/tableland/SusuGroupStorage.sol\":1814:1826  primaryKey++ */\n      dup2\n      sload\n      dup1\n      swap3\n      swap2\n      swap1\n      tag_85\n      swap1\n      tag_86\n      jump\t// in\n    tag_85:\n      swap2\n      swap1\n      pop\n      sstore\n        /* \"contracts/base/tableland/SusuGroupStorage.sol\":1797:1813  Strings.toString */\n      tag_58\n        /* \"contracts/base/tableland/SusuGroupStorage.sol\":1797:1827  Strings.toString(primaryKey++) */\n      jump\t// in\n    tag_84:\n        /* \"contracts/base/tableland/SusuGroupStorage.sol\":1899:1924  SQLHelpers.quote(groupid) */\n      tag_87\n        /* \"contracts/base/tableland/SusuGroupStorage.sol\":1916:1923  groupid */\n      dup11\n        /* \"contracts/base/tableland/SusuGroupStorage.sol\":1899:1915  SQLHelpers.quote */\n      tag_88\n        /* \"contracts/base/tableland/SusuGroupStorage.sol\":1899:1924  SQLHelpers.quote(groupid) */\n      jump\t// in\n    tag_87:\n        /* \"contracts/base/tableland/SusuGroupStorage.sol\":1974:1995  SQLHelpers.quote(adr) */\n      tag_89\n        /* \"contracts/base/tableland/SusuGroupStorage.sol\":1991:1994  adr */\n      dup13\n        /* \"contracts/base/tableland/SusuGroupStorage.sol\":1974:1990  SQLHelpers.quote */\n      tag_88\n        /* \"contracts/base/tableland/SusuGroupStorage.sol\":1974:1995  SQLHelpers.quote(adr) */\n      jump\t// in\n    tag_89:\n        /* \"contracts/base/tableland/SusuGroupStorage.sol\":1761:2014  string.concat(... */\n      add(0x20, mload(0x40))\n      tag_90\n      swap4\n      swap3\n      swap2\n      swap1\n      tag_91\n      jump\t// in\n    tag_90:\n      mload(0x40)\n      0x20\n      dup2\n      dup4\n      sub\n      sub\n      dup2\n      mstore\n      swap1\n      0x40\n      mstore\n        /* \"contracts/base/tableland/SusuGroupStorage.sol\":1623:1642  SQLHelpers.toInsert */\n      tag_92\n        /* \"contracts/base/tableland/SusuGroupStorage.sol\":1623:2029  SQLHelpers.toInsert(... */\n      jump\t// in\n    tag_83:\n        /* \"contracts/base/tableland/SusuGroupStorage.sol\":1488:2040  TablelandDeployments.get().mutate(... */\n      mload(0x40)\n      dup5\n      0xffffffff\n      and\n      0xe0\n      shl\n      dup2\n      mstore\n      0x04\n      add\n      tag_93\n      swap4\n      swap3\n      swap2\n      swap1\n      tag_66\n      jump\t// in\n    tag_93:\n      0x00\n      mload(0x40)\n      dup1\n      dup4\n      sub\n      dup2\n      0x00\n      dup8\n      dup1\n      extcodesize\n      iszero\n      dup1\n      iszero\n      tag_94\n      jumpi\n      0x00\n      dup1\n      revert\n    tag_94:\n      pop\n      gas\n      call\n      iszero\n      dup1\n      iszero\n      tag_96\n      jumpi\n      returndatasize\n      0x00\n      dup1\n      returndatacopy\n      revert(0x00, returndatasize)\n    tag_96:\n      pop\n      pop\n      pop\n      pop\n        /* \"contracts/base/tableland/SusuGroupStorage.sol\":1349:2048  {... */\n      pop\n      pop\n        /* \"contracts/base/tableland/SusuGroupStorage.sol\":1274:2048  function insertIntoTable( address groupId, address memberAddress) external {... */\n      pop\n      pop\n      jump\t// out\n        /* \"contracts/base/tableland/SusuGroupStorage.sol\":1091:1225  function getAddressString(address m) external pure returns (string memory){... */\n    tag_37:\n        /* \"contracts/base/tableland/SusuGroupStorage.sol\":1151:1164  string memory */\n      0x60\n        /* \"contracts/base/tableland/SusuGroupStorage.sol\":1183:1217  Strings.toHexString(uint160(m),20) */\n      tag_98\n        /* \"contracts/base/tableland/SusuGroupStorage.sol\":1211:1212  m */\n      dup3\n        /* \"contracts/base/tableland/SusuGroupStorage.sol\":1183:1217  Strings.toHexString(uint160(m),20) */\n      0xffffffffffffffffffffffffffffffffffffffff\n      and\n        /* \"contracts/base/tableland/SusuGroupStorage.sol\":1214:1216  20 */\n      0x14\n        /* \"contracts/base/tableland/SusuGroupStorage.sol\":1183:1202  Strings.toHexString */\n      tag_99\n        /* \"contracts/base/tableland/SusuGroupStorage.sol\":1183:1217  Strings.toHexString(uint160(m),20) */\n      jump\t// in\n    tag_98:\n        /* \"contracts/base/tableland/SusuGroupStorage.sol\":1176:1217  return Strings.toHexString(uint160(m),20) */\n      swap1\n      pop\n        /* \"contracts/base/tableland/SusuGroupStorage.sol\":1091:1225  function getAddressString(address m) external pure returns (string memory){... */\n      swap2\n      swap1\n      pop\n      jump\t// out\n        /* \"contracts/base/tableland/SusuGroupStorage.sol\":3748:3884  function getTableName() external view returns (string memory) {... */\n    tag_42:\n        /* \"contracts/base/tableland/SusuGroupStorage.sol\":3795:3808  string memory */\n      0x60\n        /* \"contracts/base/tableland/SusuGroupStorage.sol\":3828:3876  SQLHelpers.toNameFromId(_TABLE_PREFIX, _tableId) */\n      tag_101\n        /* \"contracts/base/tableland/SusuGroupStorage.sol\":3852:3865  _TABLE_PREFIX */\n      mload(0x40)\n      dup1\n      0x40\n      add\n      0x40\n      mstore\n      dup1\n      0x11\n      dup2\n      mstore\n      0x20\n      add\n      0x737573755f67726f7570735f7461626c65000000000000000000000000000000\n      dup2\n      mstore\n      pop\n        /* \"contracts/base/tableland/SusuGroupStorage.sol\":3867:3875  _tableId */\n      sload(0x00)\n        /* \"contracts/base/tableland/SusuGroupStorage.sol\":3828:3851  SQLHelpers.toNameFromId */\n      tag_102\n        /* \"contracts/base/tableland/SusuGroupStorage.sol\":3828:3876  SQLHelpers.toNameFromId(_TABLE_PREFIX, _tableId) */\n      jump\t// in\n    tag_101:\n        /* \"contracts/base/tableland/SusuGroupStorage.sol\":3821:3876  return SQLHelpers.toNameFromId(_TABLE_PREFIX, _tableId) */\n      swap1\n      pop\n        /* \"contracts/base/tableland/SusuGroupStorage.sol\":3748:3884  function getTableName() external view returns (string memory) {... */\n      swap1\n      jump\t// out\n        /* \"contracts/base/tableland/SusuGroupStorage.sol\":3622:3710  function getTableId() external view returns (uint256) {... */\n    tag_46:\n        /* \"contracts/base/tableland/SusuGroupStorage.sol\":3667:3674  uint256 */\n      0x00\n        /* \"contracts/base/tableland/SusuGroupStorage.sol\":3694:3702  _tableId */\n      dup1\n      sload\n        /* \"contracts/base/tableland/SusuGroupStorage.sol\":3687:3702  return _tableId */\n      swap1\n      pop\n        /* \"contracts/base/tableland/SusuGroupStorage.sol\":3622:3710  function getTableId() external view returns (uint256) {... */\n      swap1\n      jump\t// out\n        /* \"contracts/base/tableland/SusuGroupStorage.sol\":724:1083  function createTable() public payable {... */\n    tag_50:\n        /* \"contracts/base/tableland/SusuGroupStorage.sol\":782:808  TablelandDeployments.get() */\n      tag_105\n        /* \"contracts/base/tableland/SusuGroupStorage.sol\":782:806  TablelandDeployments.get */\n      tag_62\n        /* \"contracts/base/tableland/SusuGroupStorage.sol\":782:808  TablelandDeployments.get() */\n      jump\t// in\n    tag_105:\n        /* \"contracts/base/tableland/SusuGroupStorage.sol\":782:815  TablelandDeployments.get().create */\n      0xffffffffffffffffffffffffffffffffffffffff\n      and\n      0xa15ab08d\n        /* \"contracts/base/tableland/SusuGroupStorage.sol\":838:842  this */\n      address\n        /* \"contracts/base/tableland/SusuGroupStorage.sol\":858:1064  SQLHelpers.toCreateFromSchema(... */\n      tag_106\n      mload(0x40)\n      dup1\n      0x60\n      add\n      0x40\n      mstore\n      dup1\n      0x30\n      dup2\n      mstore\n      0x20\n      add\n      data_1efe75636938cd089ba4e8a1d9d15ef04ad4036ab72c7e77200f86b81745b11e\n      0x30\n      swap2\n      codecopy\n        /* \"contracts/base/tableland/SusuGroupStorage.sol\":1036:1049  _TABLE_PREFIX */\n      mload(0x40)\n      dup1\n      0x40\n      add\n      0x40\n      mstore\n      dup1\n      0x11\n      dup2\n      mstore\n      0x20\n      add\n      0x737573755f67726f7570735f7461626c65000000000000000000000000000000\n      dup2\n      mstore\n      pop\n        /* \"contracts/base/tableland/SusuGroupStorage.sol\":858:887  SQLHelpers.toCreateFromSchema */\n      tag_107\n        /* \"contracts/base/tableland/SusuGroupStorage.sol\":858:1064  SQLHelpers.toCreateFromSchema(... */\n      jump\t// in\n    tag_106:\n        /* \"contracts/base/tableland/SusuGroupStorage.sol\":782:1075  TablelandDeployments.get().create(... */\n      mload(0x40)\n      dup4\n      0xffffffff\n      and\n      0xe0\n      shl\n      dup2\n      mstore\n      0x04\n      add\n      tag_108\n      swap3\n      swap2\n      swap1\n      tag_109\n      jump\t// in\n    tag_108:\n      0x20\n      mload(0x40)\n      dup1\n      dup4\n      sub\n      dup2\n      0x00\n      dup8\n      gas\n      call\n      iszero\n      dup1\n      iszero\n      tag_111\n      jumpi\n      returndatasize\n      0x00\n      dup1\n      returndatacopy\n      revert(0x00, returndatasize)\n    tag_111:\n      pop\n      pop\n      pop\n      pop\n      mload(0x40)\n      returndatasize\n      not(0x1f)\n      0x1f\n      dup3\n      add\n      and\n      dup3\n      add\n      dup1\n      0x40\n      mstore\n      pop\n      dup2\n      add\n      swap1\n      tag_112\n      swap2\n      swap1\n      tag_113\n      jump\t// in\n    tag_112:\n        /* \"contracts/base/tableland/SusuGroupStorage.sol\":771:779  _tableId */\n      0x00\n        /* \"contracts/base/tableland/SusuGroupStorage.sol\":771:1075  _tableId = TablelandDeployments.get().create(... */\n      dup2\n      swap1\n      sstore\n      pop\n        /* \"contracts/base/tableland/SusuGroupStorage.sol\":724:1083  function createTable() public payable {... */\n      jump\t// out\n        /* \"contracts/base/tableland/SusuGroupStorage.sol\":2109:2720  function updateTable(uint256 id, address groupId) external {... */\n    tag_55:\n        /* \"contracts/base/tableland/SusuGroupStorage.sol\":2216:2237  string memory setters */\n      0x00\n        /* \"contracts/base/tableland/SusuGroupStorage.sol\":2266:2312  SQLHelpers.quote(Strings.toHexString(groupId)) */\n      tag_115\n        /* \"contracts/base/tableland/SusuGroupStorage.sol\":2283:2311  Strings.toHexString(groupId) */\n      tag_116\n        /* \"contracts/base/tableland/SusuGroupStorage.sol\":2303:2310  groupId */\n      dup4\n        /* \"contracts/base/tableland/SusuGroupStorage.sol\":2283:2302  Strings.toHexString */\n      tag_80\n        /* \"contracts/base/tableland/SusuGroupStorage.sol\":2283:2311  Strings.toHexString(groupId) */\n      jump\t// in\n    tag_116:\n        /* \"contracts/base/tableland/SusuGroupStorage.sol\":2266:2282  SQLHelpers.quote */\n      tag_88\n        /* \"contracts/base/tableland/SusuGroupStorage.sol\":2266:2312  SQLHelpers.quote(Strings.toHexString(groupId)) */\n      jump\t// in\n    tag_115:\n        /* \"contracts/base/tableland/SusuGroupStorage.sol\":2240:2313  string.concat(\"groupId=\", SQLHelpers.quote(Strings.toHexString(groupId))) */\n      add(0x20, mload(0x40))\n      tag_117\n      swap2\n      swap1\n      tag_118\n      jump\t// in\n    tag_117:\n      mload(0x40)\n      0x20\n      dup2\n      dup4\n      sub\n      sub\n      dup2\n      mstore\n      swap1\n      0x40\n      mstore\n        /* \"contracts/base/tableland/SusuGroupStorage.sol\":2216:2313  string memory setters = string.concat(\"groupId=\", SQLHelpers.quote(Strings.toHexString(groupId))) */\n      swap1\n      pop\n        /* \"contracts/base/tableland/SusuGroupStorage.sol\":2376:2397  string memory filters */\n      0x00\n        /* \"contracts/base/tableland/SusuGroupStorage.sol\":2448:2468  Strings.toString(id) */\n      tag_119\n        /* \"contracts/base/tableland/SusuGroupStorage.sol\":2465:2467  id */\n      dup5\n        /* \"contracts/base/tableland/SusuGroupStorage.sol\":2448:2464  Strings.toString */\n      tag_58\n        /* \"contracts/base/tableland/SusuGroupStorage.sol\":2448:2468  Strings.toString(id) */\n      jump\t// in\n    tag_119:\n        /* \"contracts/base/tableland/SusuGroupStorage.sol\":2400:2479  string.concat(... */\n      add(0x20, mload(0x40))\n      tag_120\n      swap2\n      swap1\n      tag_60\n      jump\t// in\n    tag_120:\n      mload(0x40)\n      0x20\n      dup2\n      dup4\n      sub\n      sub\n      dup2\n      mstore\n      swap1\n      0x40\n      mstore\n        /* \"contracts/base/tableland/SusuGroupStorage.sol\":2376:2479  string memory filters = string.concat(... */\n      swap1\n      pop\n        /* \"contracts/base/tableland/SusuGroupStorage.sol\":2540:2566  TablelandDeployments.get() */\n      tag_121\n        /* \"contracts/base/tableland/SusuGroupStorage.sol\":2540:2564  TablelandDeployments.get */\n      tag_62\n        /* \"contracts/base/tableland/SusuGroupStorage.sol\":2540:2566  TablelandDeployments.get() */\n      jump\t// in\n    tag_121:\n        /* \"contracts/base/tableland/SusuGroupStorage.sol\":2540:2573  TablelandDeployments.get().mutate */\n      0xffffffffffffffffffffffffffffffffffffffff\n      and\n      0x377af0da\n        /* \"contracts/base/tableland/SusuGroupStorage.sol\":2596:2600  this */\n      address\n        /* \"contracts/base/tableland/SusuGroupStorage.sol\":2616:2624  _tableId */\n      sload(0x00)\n        /* \"contracts/base/tableland/SusuGroupStorage.sol\":2639:2701  SQLHelpers.toUpdate(_TABLE_PREFIX, _tableId, setters, filters) */\n      tag_122\n        /* \"contracts/base/tableland/SusuGroupStorage.sol\":2659:2672  _TABLE_PREFIX */\n      mload(0x40)\n      dup1\n      0x40\n      add\n      0x40\n      mstore\n      dup1\n      0x11\n      dup2\n      mstore\n      0x20\n      add\n      0x737573755f67726f7570735f7461626c65000000000000000000000000000000\n      dup2\n      mstore\n      pop\n        /* \"contracts/base/tableland/SusuGroupStorage.sol\":2674:2682  _tableId */\n      sload(0x00)\n        /* \"contracts/base/tableland/SusuGroupStorage.sol\":2684:2691  setters */\n      dup9\n        /* \"contracts/base/tableland/SusuGroupStorage.sol\":2693:2700  filters */\n      dup9\n        /* \"contracts/base/tableland/SusuGroupStorage.sol\":2639:2658  SQLHelpers.toUpdate */\n      tag_123\n        /* \"contracts/base/tableland/SusuGroupStorage.sol\":2639:2701  SQLHelpers.toUpdate(_TABLE_PREFIX, _tableId, setters, filters) */\n      jump\t// in\n    tag_122:\n        /* \"contracts/base/tableland/SusuGroupStorage.sol\":2540:2712  TablelandDeployments.get().mutate(... */\n      mload(0x40)\n      dup5\n      0xffffffff\n      and\n      0xe0\n      shl\n      dup2\n      mstore\n      0x04\n      add\n      tag_124\n      swap4\n      swap3\n      swap2\n      swap1\n      tag_66\n      jump\t// in\n    tag_124:\n      0x00\n      mload(0x40)\n      dup1\n      dup4\n      sub\n      dup2\n      0x00\n      dup8\n      dup1\n      extcodesize\n      iszero\n      dup1\n      iszero\n      tag_125\n      jumpi\n      0x00\n      dup1\n      revert\n    tag_125:\n      pop\n      gas\n      call\n      iszero\n      dup1\n      iszero\n      tag_127\n      jumpi\n      returndatasize\n      0x00\n      dup1\n      returndatacopy\n      revert(0x00, returndatasize)\n    tag_127:\n      pop\n      pop\n      pop\n      pop\n        /* \"contracts/base/tableland/SusuGroupStorage.sol\":2168:2720  {... */\n      pop\n      pop\n        /* \"contracts/base/tableland/SusuGroupStorage.sol\":2109:2720  function updateTable(uint256 id, address groupId) external {... */\n      pop\n      pop\n      jump\t// out\n        /* \"@openzeppelin/contracts/utils/Strings.sol\":637:1335  function toString(uint256 value) internal pure returns (string memory) {... */\n    tag_58:\n        /* \"@openzeppelin/contracts/utils/Strings.sol\":693:706  string memory */\n      0x60\n        /* \"@openzeppelin/contracts/utils/Strings.sol\":742:756  uint256 length */\n      0x00\n        /* \"@openzeppelin/contracts/utils/Strings.sol\":779:780  1 */\n      0x01\n        /* \"@openzeppelin/contracts/utils/Strings.sol\":759:776  Math.log10(value) */\n      tag_129\n        /* \"@openzeppelin/contracts/utils/Strings.sol\":770:775  value */\n      dup5\n        /* \"@openzeppelin/contracts/utils/Strings.sol\":759:769  Math.log10 */\n      tag_130\n        /* \"@openzeppelin/contracts/utils/Strings.sol\":759:776  Math.log10(value) */\n      jump\t// in\n    tag_129:\n        /* \"@openzeppelin/contracts/utils/Strings.sol\":759:780  Math.log10(value) + 1 */\n      add\n        /* \"@openzeppelin/contracts/utils/Strings.sol\":742:780  uint256 length = Math.log10(value) + 1 */\n      swap1\n      pop\n        /* \"@openzeppelin/contracts/utils/Strings.sol\":794:814  string memory buffer */\n      0x00\n        /* \"@openzeppelin/contracts/utils/Strings.sol\":828:834  length */\n      dup2\n        /* \"@openzeppelin/contracts/utils/Strings.sol\":817:835  new string(length) */\n      0xffffffffffffffff\n      dup2\n      gt\n      iszero\n      tag_131\n      jumpi\n      tag_132\n      tag_133\n      jump\t// in\n    tag_132:\n    tag_131:\n      mload(0x40)\n      swap1\n      dup1\n      dup3\n      mstore\n      dup1\n      0x1f\n      add\n      not(0x1f)\n      and\n      0x20\n      add\n      dup3\n      add\n      0x40\n      mstore\n      dup1\n      iszero\n      tag_134\n      jumpi\n      dup2\n      0x20\n      add\n      0x01\n      dup3\n      mul\n      dup1\n      calldatasize\n      dup4\n      calldatacopy\n      dup1\n      dup3\n      add\n      swap2\n      pop\n      pop\n      swap1\n      pop\n    tag_134:\n      pop\n        /* \"@openzeppelin/contracts/utils/Strings.sol\":794:835  string memory buffer = new string(length) */\n      swap1\n      pop\n        /* \"@openzeppelin/contracts/utils/Strings.sol\":849:860  uint256 ptr */\n      0x00\n        /* \"@openzeppelin/contracts/utils/Strings.sol\":975:981  length */\n      dup3\n        /* \"@openzeppelin/contracts/utils/Strings.sol\":971:973  32 */\n      0x20\n        /* \"@openzeppelin/contracts/utils/Strings.sol\":967:982  add(32, length) */\n      add\n        /* \"@openzeppelin/contracts/utils/Strings.sol\":959:965  buffer */\n      dup3\n        /* \"@openzeppelin/contracts/utils/Strings.sol\":955:983  add(buffer, add(32, length)) */\n      add\n        /* \"@openzeppelin/contracts/utils/Strings.sol\":948:983  ptr := add(buffer, add(32, length)) */\n      swap1\n      pop\n        /* \"@openzeppelin/contracts/utils/Strings.sol\":1010:1292  while (true) {... */\n    tag_135:\n        /* \"@openzeppelin/contracts/utils/Strings.sol\":1017:1021  true */\n      0x01\n        /* \"@openzeppelin/contracts/utils/Strings.sol\":1010:1292  while (true) {... */\n      iszero\n      tag_136\n      jumpi\n        /* \"@openzeppelin/contracts/utils/Strings.sol\":1041:1046  ptr-- */\n      dup1\n      dup1\n      0x01\n      swap1\n      sub\n      swap2\n      pop\n      pop\n        /* \"@openzeppelin/contracts/utils/Strings.sol\":1180:1190  HEX_DIGITS */\n      0x3031323334353637383961626364656600000000000000000000000000000000\n        /* \"@openzeppelin/contracts/utils/Strings.sol\":1175:1177  10 */\n      0x0a\n        /* \"@openzeppelin/contracts/utils/Strings.sol\":1168:1173  value */\n      dup7\n        /* \"@openzeppelin/contracts/utils/Strings.sol\":1164:1178  mod(value, 10) */\n      mod\n        /* \"@openzeppelin/contracts/utils/Strings.sol\":1159:1191  byte(mod(value, 10), HEX_DIGITS) */\n      byte\n        /* \"@openzeppelin/contracts/utils/Strings.sol\":1154:1157  ptr */\n      dup2\n        /* \"@openzeppelin/contracts/utils/Strings.sol\":1146:1192  mstore8(ptr, byte(mod(value, 10), HEX_DIGITS)) */\n      mstore8\n        /* \"@openzeppelin/contracts/utils/Strings.sol\":1236:1238  10 */\n      0x0a\n        /* \"@openzeppelin/contracts/utils/Strings.sol\":1227:1238  value /= 10 */\n      dup6\n      dup2\n      tag_137\n      jumpi\n      tag_138\n      tag_139\n      jump\t// in\n    tag_138:\n    tag_137:\n      div\n      swap5\n      pop\n        /* \"@openzeppelin/contracts/utils/Strings.sol\":1269:1270  0 */\n      0x00\n        /* \"@openzeppelin/contracts/utils/Strings.sol\":1260:1265  value */\n      dup6\n        /* \"@openzeppelin/contracts/utils/Strings.sol\":1260:1270  value == 0 */\n      sub\n        /* \"@openzeppelin/contracts/utils/Strings.sol\":1010:1292  while (true) {... */\n      tag_135\n        /* \"@openzeppelin/contracts/utils/Strings.sol\":1256:1277  if (value == 0) break */\n      jumpi\n        /* \"@openzeppelin/contracts/utils/Strings.sol\":1010:1292  while (true) {... */\n    tag_136:\n        /* \"@openzeppelin/contracts/utils/Strings.sol\":1312:1318  buffer */\n      dup2\n        /* \"@openzeppelin/contracts/utils/Strings.sol\":1305:1318  return buffer */\n      swap4\n      pop\n      pop\n      pop\n      pop\n        /* \"@openzeppelin/contracts/utils/Strings.sol\":637:1335  function toString(uint256 value) internal pure returns (string memory) {... */\n      swap2\n      swap1\n      pop\n      jump\t// out\n        /* \"@tableland/evm/contracts/utils/TablelandDeployments.sol\":2908:4324  function get() internal view returns (TablelandTablesImpl) {... */\n    tag_62:\n        /* \"@tableland/evm/contracts/utils/TablelandDeployments.sol\":2946:2965  TablelandTablesImpl */\n      0x00\n        /* \"@tableland/evm/contracts/utils/TablelandDeployments.sol\":2998:2999  1 */\n      0x01\n        /* \"@tableland/evm/contracts/utils/TablelandDeployments.sol\":2981:2994  block.chainid */\n      chainid\n        /* \"@tableland/evm/contracts/utils/TablelandDeployments.sol\":2981:2999  block.chainid == 1 */\n      sub\n        /* \"@tableland/evm/contracts/utils/TablelandDeployments.sol\":2977:4318  if (block.chainid == 1) {... */\n      tag_142\n      jumpi\n        /* \"@tableland/evm/contracts/utils/TablelandDeployments.sol\":667:709  0x012969f7e3439a9B04025b5a049EB9BAD82A8C12 */\n      0x012969f7e3439a9b04025b5a049eb9bad82a8c12\n        /* \"@tableland/evm/contracts/utils/TablelandDeployments.sol\":3015:3050  return TablelandTablesImpl(MAINNET) */\n      swap1\n      pop\n      jump(tag_141)\n        /* \"@tableland/evm/contracts/utils/TablelandDeployments.sol\":2977:4318  if (block.chainid == 1) {... */\n    tag_142:\n        /* \"@tableland/evm/contracts/utils/TablelandDeployments.sol\":3088:3090  10 */\n      0x0a\n        /* \"@tableland/evm/contracts/utils/TablelandDeployments.sol\":3071:3084  block.chainid */\n      chainid\n        /* \"@tableland/evm/contracts/utils/TablelandDeployments.sol\":3071:3090  block.chainid == 10 */\n      sub\n        /* \"@tableland/evm/contracts/utils/TablelandDeployments.sol\":3067:4318  if (block.chainid == 10) {... */\n      tag_144\n      jumpi\n        /* \"@tableland/evm/contracts/utils/TablelandDeployments.sol\":899:941  0xfad44BF5B843dE943a09D4f3E84949A11d3aa3e6 */\n      0xfad44bf5b843de943a09d4f3e84949a11d3aa3e6\n        /* \"@tableland/evm/contracts/utils/TablelandDeployments.sol\":3106:3142  return TablelandTablesImpl(OPTIMISM) */\n      swap1\n      pop\n      jump(tag_141)\n        /* \"@tableland/evm/contracts/utils/TablelandDeployments.sol\":3067:4318  if (block.chainid == 10) {... */\n    tag_144:\n        /* \"@tableland/evm/contracts/utils/TablelandDeployments.sol\":3180:3185  42161 */\n      0xa4b1\n        /* \"@tableland/evm/contracts/utils/TablelandDeployments.sol\":3163:3176  block.chainid */\n      chainid\n        /* \"@tableland/evm/contracts/utils/TablelandDeployments.sol\":3163:3185  block.chainid == 42161 */\n      sub\n        /* \"@tableland/evm/contracts/utils/TablelandDeployments.sol\":3159:4318  if (block.chainid == 42161) {... */\n      tag_146\n      jumpi\n        /* \"@tableland/evm/contracts/utils/TablelandDeployments.sol\":1040:1082  0x9aBd75E8640871A5a20d3B4eE6330a04c962aFfd */\n      0x9abd75e8640871a5a20d3b4ee6330a04c962affd\n        /* \"@tableland/evm/contracts/utils/TablelandDeployments.sol\":3201:3237  return TablelandTablesImpl(ARBITRUM) */\n      swap1\n      pop\n      jump(tag_141)\n        /* \"@tableland/evm/contracts/utils/TablelandDeployments.sol\":3159:4318  if (block.chainid == 42161) {... */\n    tag_146:\n        /* \"@tableland/evm/contracts/utils/TablelandDeployments.sol\":3275:3280  42170 */\n      0xa4ba\n        /* \"@tableland/evm/contracts/utils/TablelandDeployments.sol\":3258:3271  block.chainid */\n      chainid\n        /* \"@tableland/evm/contracts/utils/TablelandDeployments.sol\":3258:3280  block.chainid == 42170 */\n      sub\n        /* \"@tableland/evm/contracts/utils/TablelandDeployments.sol\":3254:4318  if (block.chainid == 42170) {... */\n      tag_148\n      jumpi\n        /* \"@tableland/evm/contracts/utils/TablelandDeployments.sol\":1187:1229  0x1A22854c5b1642760a827f20137a67930AE108d2 */\n      0x1a22854c5b1642760a827f20137a67930ae108d2\n        /* \"@tableland/evm/contracts/utils/TablelandDeployments.sol\":3296:3337  return TablelandTablesImpl(ARBITRUM_NOVA) */\n      swap1\n      pop\n      jump(tag_141)\n        /* \"@tableland/evm/contracts/utils/TablelandDeployments.sol\":3254:4318  if (block.chainid == 42170) {... */\n    tag_148:\n        /* \"@tableland/evm/contracts/utils/TablelandDeployments.sol\":3375:3378  137 */\n      0x89\n        /* \"@tableland/evm/contracts/utils/TablelandDeployments.sol\":3358:3371  block.chainid */\n      chainid\n        /* \"@tableland/evm/contracts/utils/TablelandDeployments.sol\":3358:3378  block.chainid == 137 */\n      sub\n        /* \"@tableland/evm/contracts/utils/TablelandDeployments.sol\":3354:4318  if (block.chainid == 137) {... */\n      tag_150\n      jumpi\n        /* \"@tableland/evm/contracts/utils/TablelandDeployments.sol\":1322:1364  0x5c4e6A9e5C1e1BF445A062006faF19EA6c49aFeA */\n      0x5c4e6a9e5c1e1bf445a062006faf19ea6c49afea\n        /* \"@tableland/evm/contracts/utils/TablelandDeployments.sol\":3394:3429  return TablelandTablesImpl(POLYGON) */\n      swap1\n      pop\n      jump(tag_141)\n        /* \"@tableland/evm/contracts/utils/TablelandDeployments.sol\":3354:4318  if (block.chainid == 137) {... */\n    tag_150:\n        /* \"@tableland/evm/contracts/utils/TablelandDeployments.sol\":3467:3470  314 */\n      0x013a\n        /* \"@tableland/evm/contracts/utils/TablelandDeployments.sol\":3450:3463  block.chainid */\n      chainid\n        /* \"@tableland/evm/contracts/utils/TablelandDeployments.sol\":3450:3470  block.chainid == 314 */\n      sub\n        /* \"@tableland/evm/contracts/utils/TablelandDeployments.sol\":3446:4318  if (block.chainid == 314) {... */\n      tag_152\n      jumpi\n        /* \"@tableland/evm/contracts/utils/TablelandDeployments.sol\":1459:1501  0x59EF8Bf2d6c102B4c42AEf9189e1a9F0ABfD652d */\n      0x59ef8bf2d6c102b4c42aef9189e1a9f0abfd652d\n        /* \"@tableland/evm/contracts/utils/TablelandDeployments.sol\":3486:3522  return TablelandTablesImpl(FILECOIN) */\n      swap1\n      pop\n      jump(tag_141)\n        /* \"@tableland/evm/contracts/utils/TablelandDeployments.sol\":3446:4318  if (block.chainid == 314) {... */\n    tag_152:\n        /* \"@tableland/evm/contracts/utils/TablelandDeployments.sol\":3560:3568  11155111 */\n      0xaa36a7\n        /* \"@tableland/evm/contracts/utils/TablelandDeployments.sol\":3543:3556  block.chainid */\n      chainid\n        /* \"@tableland/evm/contracts/utils/TablelandDeployments.sol\":3543:3568  block.chainid == 11155111 */\n      sub\n        /* \"@tableland/evm/contracts/utils/TablelandDeployments.sol\":3539:4318  if (block.chainid == 11155111) {... */\n      tag_154\n      jumpi\n        /* \"@tableland/evm/contracts/utils/TablelandDeployments.sol\":1604:1646  0xc50C62498448ACc8dBdE43DA77f8D5D2E2c7597D */\n      0xc50c62498448acc8dbde43da77f8d5d2e2c7597d\n        /* \"@tableland/evm/contracts/utils/TablelandDeployments.sol\":3584:3619  return TablelandTablesImpl(SEPOLIA) */\n      swap1\n      pop\n      jump(tag_141)\n        /* \"@tableland/evm/contracts/utils/TablelandDeployments.sol\":3539:4318  if (block.chainid == 11155111) {... */\n    tag_154:\n        /* \"@tableland/evm/contracts/utils/TablelandDeployments.sol\":3657:3665  11155420 */\n      0xaa37dc\n        /* \"@tableland/evm/contracts/utils/TablelandDeployments.sol\":3640:3653  block.chainid */\n      chainid\n        /* \"@tableland/evm/contracts/utils/TablelandDeployments.sol\":3640:3665  block.chainid == 11155420 */\n      sub\n        /* \"@tableland/evm/contracts/utils/TablelandDeployments.sol\":3636:4318  if (block.chainid == 11155420) {... */\n      tag_156\n      jumpi\n        /* \"@tableland/evm/contracts/utils/TablelandDeployments.sol\":1757:1799  0x68A2f4423ad3bf5139Db563CF3bC80aA09ed7079 */\n      0x68a2f4423ad3bf5139db563cf3bc80aa09ed7079\n        /* \"@tableland/evm/contracts/utils/TablelandDeployments.sol\":3681:3725  return TablelandTablesImpl(OPTIMISM_SEPOLIA) */\n      swap1\n      pop\n      jump(tag_141)\n        /* \"@tableland/evm/contracts/utils/TablelandDeployments.sol\":3636:4318  if (block.chainid == 11155420) {... */\n    tag_156:\n        /* \"@tableland/evm/contracts/utils/TablelandDeployments.sol\":3763:3769  421614 */\n      0x066eee\n        /* \"@tableland/evm/contracts/utils/TablelandDeployments.sol\":3746:3759  block.chainid */\n      chainid\n        /* \"@tableland/evm/contracts/utils/TablelandDeployments.sol\":3746:3769  block.chainid == 421614 */\n      sub\n        /* \"@tableland/evm/contracts/utils/TablelandDeployments.sol\":3742:4318  if (block.chainid == 421614) {... */\n      tag_158\n      jumpi\n        /* \"@tableland/evm/contracts/utils/TablelandDeployments.sol\":1910:1952  0x223A74B8323914afDC3ff1e5005564dC17231d6e */\n      0x223a74b8323914afdc3ff1e5005564dc17231d6e\n        /* \"@tableland/evm/contracts/utils/TablelandDeployments.sol\":3785:3829  return TablelandTablesImpl(ARBITRUM_SEPOLIA) */\n      swap1\n      pop\n      jump(tag_141)\n        /* \"@tableland/evm/contracts/utils/TablelandDeployments.sol\":3742:4318  if (block.chainid == 421614) {... */\n    tag_158:\n        /* \"@tableland/evm/contracts/utils/TablelandDeployments.sol\":3867:3872  84532 */\n      0x014a34\n        /* \"@tableland/evm/contracts/utils/TablelandDeployments.sol\":3850:3863  block.chainid */\n      chainid\n        /* \"@tableland/evm/contracts/utils/TablelandDeployments.sol\":3850:3872  block.chainid == 84532 */\n      sub\n        /* \"@tableland/evm/contracts/utils/TablelandDeployments.sol\":3846:4318  if (block.chainid == 84532) {... */\n      tag_160\n      jumpi\n        /* \"@tableland/evm/contracts/utils/TablelandDeployments.sol\":2055:2097  0xA85aAE9f0Aec5F5638E5F13840797303Ab29c9f9 */\n      0xa85aae9f0aec5f5638e5f13840797303ab29c9f9\n        /* \"@tableland/evm/contracts/utils/TablelandDeployments.sol\":3888:3928  return TablelandTablesImpl(BASE_SEPOLIA) */\n      swap1\n      pop\n      jump(tag_141)\n        /* \"@tableland/evm/contracts/utils/TablelandDeployments.sol\":3846:4318  if (block.chainid == 84532) {... */\n    tag_160:\n        /* \"@tableland/evm/contracts/utils/TablelandDeployments.sol\":3966:3971  80002 */\n      0x013882\n        /* \"@tableland/evm/contracts/utils/TablelandDeployments.sol\":3949:3962  block.chainid */\n      chainid\n        /* \"@tableland/evm/contracts/utils/TablelandDeployments.sol\":3949:3971  block.chainid == 80002 */\n      sub\n        /* \"@tableland/evm/contracts/utils/TablelandDeployments.sol\":3945:4318  if (block.chainid == 80002) {... */\n      tag_162\n      jumpi\n        /* \"@tableland/evm/contracts/utils/TablelandDeployments.sol\":2200:2242  0x170fb206132b693e38adFc8727dCfa303546Cec1 */\n      0x170fb206132b693e38adfc8727dcfa303546cec1\n        /* \"@tableland/evm/contracts/utils/TablelandDeployments.sol\":3987:4027  return TablelandTablesImpl(POLYGON_AMOY) */\n      swap1\n      pop\n      jump(tag_141)\n        /* \"@tableland/evm/contracts/utils/TablelandDeployments.sol\":3945:4318  if (block.chainid == 80002) {... */\n    tag_162:\n        /* \"@tableland/evm/contracts/utils/TablelandDeployments.sol\":4065:4071  314159 */\n      0x04cb2f\n        /* \"@tableland/evm/contracts/utils/TablelandDeployments.sol\":4048:4061  block.chainid */\n      chainid\n        /* \"@tableland/evm/contracts/utils/TablelandDeployments.sol\":4048:4071  block.chainid == 314159 */\n      sub\n        /* \"@tableland/evm/contracts/utils/TablelandDeployments.sol\":4044:4318  if (block.chainid == 314159) {... */\n      tag_164\n      jumpi\n        /* \"@tableland/evm/contracts/utils/TablelandDeployments.sol\":2361:2403  0x030BCf3D50cad04c2e57391B12740982A9308621 */\n      0x030bcf3d50cad04c2e57391b12740982a9308621\n        /* \"@tableland/evm/contracts/utils/TablelandDeployments.sol\":4087:4135  return TablelandTablesImpl(FILECOIN_CALIBRATION) */\n      swap1\n      pop\n      jump(tag_141)\n        /* \"@tableland/evm/contracts/utils/TablelandDeployments.sol\":4044:4318  if (block.chainid == 314159) {... */\n    tag_164:\n        /* \"@tableland/evm/contracts/utils/TablelandDeployments.sol\":4173:4178  31337 */\n      0x7a69\n        /* \"@tableland/evm/contracts/utils/TablelandDeployments.sol\":4156:4169  block.chainid */\n      chainid\n        /* \"@tableland/evm/contracts/utils/TablelandDeployments.sol\":4156:4178  block.chainid == 31337 */\n      sub\n        /* \"@tableland/evm/contracts/utils/TablelandDeployments.sol\":4152:4318  if (block.chainid == 31337) {... */\n      tag_166\n      jumpi\n        /* \"@tableland/evm/contracts/utils/TablelandDeployments.sol\":2584:2626  0xe7f1725E7734CE288F8367e1Bb143E90bb3F0512 */\n      0xe7f1725e7734ce288f8367e1bb143e90bb3f0512\n        /* \"@tableland/evm/contracts/utils/TablelandDeployments.sol\":4194:4237  return TablelandTablesImpl(LOCAL_TABLELAND) */\n      swap1\n      pop\n      jump(tag_141)\n        /* \"@tableland/evm/contracts/utils/TablelandDeployments.sol\":4152:4318  if (block.chainid == 31337) {... */\n    tag_166:\n        /* \"@tableland/evm/contracts/utils/TablelandDeployments.sol\":4293:4306  block.chainid */\n      chainid\n        /* \"@tableland/evm/contracts/utils/TablelandDeployments.sol\":4275:4307  ChainNotSupported(block.chainid) */\n      mload(0x40)\n      0x264e42cf00000000000000000000000000000000000000000000000000000000\n      dup2\n      mstore\n      0x04\n      add\n      tag_168\n      swap2\n      swap1\n      tag_48\n      jump\t// in\n    tag_168:\n      mload(0x40)\n      dup1\n      swap2\n      sub\n      swap1\n      revert\n        /* \"@tableland/evm/contracts/utils/TablelandDeployments.sol\":2908:4324  function get() internal view returns (TablelandTablesImpl) {... */\n    tag_141:\n      swap1\n      jump\t// out\n        /* \"@tableland/evm/contracts/utils/SQLHelpers.sol\":5600:5910  function toDelete(... */\n    tag_64:\n        /* \"@tableland/evm/contracts/utils/SQLHelpers.sol\":5733:5746  string memory */\n      0x60\n        /* \"@tableland/evm/contracts/utils/SQLHelpers.sol\":5758:5776  string memory name */\n      0x00\n        /* \"@tableland/evm/contracts/utils/SQLHelpers.sol\":5779:5808  toNameFromId(prefix, tableId) */\n      tag_170\n        /* \"@tableland/evm/contracts/utils/SQLHelpers.sol\":5792:5798  prefix */\n      dup6\n        /* \"@tableland/evm/contracts/utils/SQLHelpers.sol\":5800:5807  tableId */\n      dup6\n        /* \"@tableland/evm/contracts/utils/SQLHelpers.sol\":5779:5791  toNameFromId */\n      tag_102\n        /* \"@tableland/evm/contracts/utils/SQLHelpers.sol\":5779:5808  toNameFromId(prefix, tableId) */\n      jump\t// in\n    tag_170:\n        /* \"@tableland/evm/contracts/utils/SQLHelpers.sol\":5758:5808  string memory name = toNameFromId(prefix, tableId) */\n      swap1\n      pop\n        /* \"@tableland/evm/contracts/utils/SQLHelpers.sol\":5877:5881  name */\n      dup1\n        /* \"@tableland/evm/contracts/utils/SQLHelpers.sol\":5894:5901  filters */\n      dup4\n        /* \"@tableland/evm/contracts/utils/SQLHelpers.sol\":5844:5902  abi.encodePacked(\"DELETE FROM \", name, \" WHERE \", filters) */\n      add(0x20, mload(0x40))\n      tag_171\n      swap3\n      swap2\n      swap1\n      tag_172\n      jump\t// in\n    tag_171:\n      mload(0x40)\n      0x20\n      dup2\n      dup4\n      sub\n      sub\n      dup2\n      mstore\n      swap1\n      0x40\n      mstore\n        /* \"@tableland/evm/contracts/utils/SQLHelpers.sol\":5818:5903  return... */\n      swap2\n      pop\n      pop\n        /* \"@tableland/evm/contracts/utils/SQLHelpers.sol\":5600:5910  function toDelete(... */\n      swap4\n      swap3\n      pop\n      pop\n      pop\n      jump\t// out\n        /* \"@openzeppelin/contracts/utils/Strings.sol\":2689:2837  function toHexString(address addr) internal pure returns (string memory) {... */\n    tag_80:\n        /* \"@openzeppelin/contracts/utils/Strings.sol\":2747:2760  string memory */\n      0x60\n        /* \"@openzeppelin/contracts/utils/Strings.sol\":2779:2830  toHexString(uint256(uint160(addr)), ADDRESS_LENGTH) */\n      tag_174\n        /* \"@openzeppelin/contracts/utils/Strings.sol\":2807:2811  addr */\n      dup3\n        /* \"@openzeppelin/contracts/utils/Strings.sol\":2791:2813  uint256(uint160(addr)) */\n      0xffffffffffffffffffffffffffffffffffffffff\n      and\n        /* \"@openzeppelin/contracts/utils/Strings.sol\":375:377  20 */\n      0x14\n        /* \"@openzeppelin/contracts/utils/Strings.sol\":2779:2830  toHexString(uint256(uint160(addr)), ADDRESS_LENGTH) */\n      0xff\n      and\n        /* \"@openzeppelin/contracts/utils/Strings.sol\":2779:2790  toHexString */\n      tag_99\n        /* \"@openzeppelin/contracts/utils/Strings.sol\":2779:2830  toHexString(uint256(uint160(addr)), ADDRESS_LENGTH) */\n      jump\t// in\n    tag_174:\n        /* \"@openzeppelin/contracts/utils/Strings.sol\":2772:2830  return toHexString(uint256(uint160(addr)), ADDRESS_LENGTH) */\n      swap1\n      pop\n        /* \"@openzeppelin/contracts/utils/Strings.sol\":2689:2837  function toHexString(address addr) internal pure returns (string memory) {... */\n      swap2\n      swap1\n      pop\n      jump\t// out\n        /* \"@tableland/evm/contracts/utils/SQLHelpers.sol\":6030:6169  function quote(string memory input) internal pure returns (string memory) {... */\n    tag_88:\n        /* \"@tableland/evm/contracts/utils/SQLHelpers.sol\":6089:6102  string memory */\n      0x60\n        /* \"@tableland/evm/contracts/utils/SQLHelpers.sol\":6150:6155  input */\n      dup2\n        /* \"@tableland/evm/contracts/utils/SQLHelpers.sol\":6128:6161  abi.encodePacked(\"'\", input, \"'\") */\n      add(0x20, mload(0x40))\n      tag_176\n      swap2\n      swap1\n      tag_177\n      jump\t// in\n    tag_176:\n      mload(0x40)\n      0x20\n      dup2\n      dup4\n      sub\n      sub\n      dup2\n      mstore\n      swap1\n      0x40\n      mstore\n        /* \"@tableland/evm/contracts/utils/SQLHelpers.sol\":6114:6162  return string(abi.encodePacked(\"'\", input, \"'\")) */\n      swap1\n      pop\n        /* \"@tableland/evm/contracts/utils/SQLHelpers.sol\":6030:6169  function quote(string memory input) internal pure returns (string memory) {... */\n      swap2\n      swap1\n      pop\n      jump\t// out\n        /* \"@tableland/evm/contracts/utils/SQLHelpers.sol\":2405:2952  function toInsert(... */\n    tag_92:\n        /* \"@tableland/evm/contracts/utils/SQLHelpers.sol\":2568:2581  string memory */\n      0x60\n        /* \"@tableland/evm/contracts/utils/SQLHelpers.sol\":2593:2611  string memory name */\n      0x00\n        /* \"@tableland/evm/contracts/utils/SQLHelpers.sol\":2614:2643  toNameFromId(prefix, tableId) */\n      tag_179\n        /* \"@tableland/evm/contracts/utils/SQLHelpers.sol\":2627:2633  prefix */\n      dup7\n        /* \"@tableland/evm/contracts/utils/SQLHelpers.sol\":2635:2642  tableId */\n      dup7\n        /* \"@tableland/evm/contracts/utils/SQLHelpers.sol\":2614:2626  toNameFromId */\n      tag_102\n        /* \"@tableland/evm/contracts/utils/SQLHelpers.sol\":2614:2643  toNameFromId(prefix, tableId) */\n      jump\t// in\n    tag_179:\n        /* \"@tableland/evm/contracts/utils/SQLHelpers.sol\":2593:2643  string memory name = toNameFromId(prefix, tableId) */\n      swap1\n      pop\n        /* \"@tableland/evm/contracts/utils/SQLHelpers.sol\":2770:2774  name */\n      dup1\n        /* \"@tableland/evm/contracts/utils/SQLHelpers.sol\":2821:2828  columns */\n      dup5\n        /* \"@tableland/evm/contracts/utils/SQLHelpers.sol\":2882:2888  values */\n      dup5\n        /* \"@tableland/evm/contracts/utils/SQLHelpers.sol\":2696:2931  abi.encodePacked(... */\n      add(0x20, mload(0x40))\n      tag_180\n      swap4\n      swap3\n      swap2\n      swap1\n      tag_181\n      jump\t// in\n    tag_180:\n      mload(0x40)\n      0x20\n      dup2\n      dup4\n      sub\n      sub\n      dup2\n      mstore\n      swap1\n      0x40\n      mstore\n        /* \"@tableland/evm/contracts/utils/SQLHelpers.sol\":2653:2945  return... */\n      swap2\n      pop\n      pop\n        /* \"@tableland/evm/contracts/utils/SQLHelpers.sol\":2405:2952  function toInsert(... */\n      swap5\n      swap4\n      pop\n      pop\n      pop\n      pop\n      jump\t// out\n        /* \"@openzeppelin/contracts/utils/Strings.sol\":2005:2530  function toHexString(uint256 value, uint256 length) internal pure returns (string memory) {... */\n    tag_99:\n        /* \"@openzeppelin/contracts/utils/Strings.sol\":2080:2093  string memory */\n      0x60\n        /* \"@openzeppelin/contracts/utils/Strings.sol\":2105:2123  uint256 localValue */\n      0x00\n        /* \"@openzeppelin/contracts/utils/Strings.sol\":2126:2131  value */\n      dup4\n        /* \"@openzeppelin/contracts/utils/Strings.sol\":2105:2131  uint256 localValue = value */\n      swap1\n      pop\n        /* \"@openzeppelin/contracts/utils/Strings.sol\":2141:2160  bytes memory buffer */\n      0x00\n        /* \"@openzeppelin/contracts/utils/Strings.sol\":2186:2187  2 */\n      0x02\n        /* \"@openzeppelin/contracts/utils/Strings.sol\":2177:2183  length */\n      dup5\n        /* \"@openzeppelin/contracts/utils/Strings.sol\":2173:2174  2 */\n      0x02\n        /* \"@openzeppelin/contracts/utils/Strings.sol\":2173:2183  2 * length */\n      tag_183\n      swap2\n      swap1\n      tag_184\n      jump\t// in\n    tag_183:\n        /* \"@openzeppelin/contracts/utils/Strings.sol\":2173:2187  2 * length + 2 */\n      tag_185\n      swap2\n      swap1\n      tag_186\n      jump\t// in\n    tag_185:\n        /* \"@openzeppelin/contracts/utils/Strings.sol\":2163:2188  new bytes(2 * length + 2) */\n      0xffffffffffffffff\n      dup2\n      gt\n      iszero\n      tag_187\n      jumpi\n      tag_188\n      tag_133\n      jump\t// in\n    tag_188:\n    tag_187:\n      mload(0x40)\n      swap1\n      dup1\n      dup3\n      mstore\n      dup1\n      0x1f\n      add\n      not(0x1f)\n      and\n      0x20\n      add\n      dup3\n      add\n      0x40\n      mstore\n      dup1\n      iszero\n      tag_189\n      jumpi\n      dup2\n      0x20\n      add\n      0x01\n      dup3\n      mul\n      dup1\n      calldatasize\n      dup4\n      calldatacopy\n      dup1\n      dup3\n      add\n      swap2\n      pop\n      pop\n      swap1\n      pop\n    tag_189:\n      pop\n        /* \"@openzeppelin/contracts/utils/Strings.sol\":2141:2188  bytes memory buffer = new bytes(2 * length + 2) */\n      swap1\n      pop\n        /* \"@openzeppelin/contracts/utils/Strings.sol\":2198:2213  buffer[0] = \"0\" */\n      0x3000000000000000000000000000000000000000000000000000000000000000\n        /* \"@openzeppelin/contracts/utils/Strings.sol\":2198:2204  buffer */\n      dup2\n        /* \"@openzeppelin/contracts/utils/Strings.sol\":2205:2206  0 */\n      0x00\n        /* \"@openzeppelin/contracts/utils/Strings.sol\":2198:2207  buffer[0] */\n      dup2\n      mload\n      dup2\n      lt\n      tag_190\n      jumpi\n      tag_191\n      tag_192\n      jump\t// in\n    tag_191:\n    tag_190:\n      0x20\n      add\n      add\n        /* \"@openzeppelin/contracts/utils/Strings.sol\":2198:2213  buffer[0] = \"0\" */\n      swap1\n      not(0xffffffffffffffffffffffffffffffffffffffffffffffffffffffffffffff)\n      and\n      swap1\n      dup2\n      0x00\n      byte\n      swap1\n      mstore8\n      pop\n        /* \"@openzeppelin/contracts/utils/Strings.sol\":2223:2238  buffer[1] = \"x\" */\n      0x7800000000000000000000000000000000000000000000000000000000000000\n        /* \"@openzeppelin/contracts/utils/Strings.sol\":2223:2229  buffer */\n      dup2\n        /* \"@openzeppelin/contracts/utils/Strings.sol\":2230:2231  1 */\n      0x01\n        /* \"@openzeppelin/contracts/utils/Strings.sol\":2223:2232  buffer[1] */\n      dup2\n      mload\n      dup2\n      lt\n      tag_193\n      jumpi\n      tag_194\n      tag_192\n      jump\t// in\n    tag_194:\n    tag_193:\n      0x20\n      add\n      add\n        /* \"@openzeppelin/contracts/utils/Strings.sol\":2223:2238  buffer[1] = \"x\" */\n      swap1\n      not(0xffffffffffffffffffffffffffffffffffffffffffffffffffffffffffffff)\n      and\n      swap1\n      dup2\n      0x00\n      byte\n      swap1\n      mstore8\n      pop\n        /* \"@openzeppelin/contracts/utils/Strings.sol\":2253:2262  uint256 i */\n      0x00\n        /* \"@openzeppelin/contracts/utils/Strings.sol\":2278:2279  1 */\n      0x01\n        /* \"@openzeppelin/contracts/utils/Strings.sol\":2269:2275  length */\n      dup6\n        /* \"@openzeppelin/contracts/utils/Strings.sol\":2265:2266  2 */\n      0x02\n        /* \"@openzeppelin/contracts/utils/Strings.sol\":2265:2275  2 * length */\n      tag_198\n      swap2\n      swap1\n      tag_184\n      jump\t// in\n    tag_198:\n        /* \"@openzeppelin/contracts/utils/Strings.sol\":2265:2279  2 * length + 1 */\n      tag_199\n      swap2\n      swap1\n      tag_186\n      jump\t// in\n    tag_199:\n        /* \"@openzeppelin/contracts/utils/Strings.sol\":2253:2279  uint256 i = 2 * length + 1 */\n      swap1\n      pop\n        /* \"@openzeppelin/contracts/utils/Strings.sol\":2248:2388  for (uint256 i = 2 * length + 1; i > 1; --i) {... */\n    tag_195:\n        /* \"@openzeppelin/contracts/utils/Strings.sol\":2285:2286  1 */\n      0x01\n        /* \"@openzeppelin/contracts/utils/Strings.sol\":2281:2282  i */\n      dup2\n        /* \"@openzeppelin/contracts/utils/Strings.sol\":2281:2286  i > 1 */\n      gt\n        /* \"@openzeppelin/contracts/utils/Strings.sol\":2248:2388  for (uint256 i = 2 * length + 1; i > 1; --i) {... */\n      iszero\n      tag_196\n      jumpi\n        /* \"@openzeppelin/contracts/utils/Strings.sol\":2319:2329  HEX_DIGITS */\n      0x3031323334353637383961626364656600000000000000000000000000000000\n        /* \"@openzeppelin/contracts/utils/Strings.sol\":2343:2346  0xf */\n      0x0f\n        /* \"@openzeppelin/contracts/utils/Strings.sol\":2330:2340  localValue */\n      dup5\n        /* \"@openzeppelin/contracts/utils/Strings.sol\":2330:2346  localValue & 0xf */\n      and\n        /* \"@openzeppelin/contracts/utils/Strings.sol\":2319:2347  HEX_DIGITS[localValue & 0xf] */\n      0x10\n      dup2\n      lt\n      tag_200\n      jumpi\n      tag_201\n      tag_192\n      jump\t// in\n    tag_201:\n    tag_200:\n      byte\n      0xf8\n      shl\n        /* \"@openzeppelin/contracts/utils/Strings.sol\":2307:2313  buffer */\n      dup3\n        /* \"@openzeppelin/contracts/utils/Strings.sol\":2314:2315  i */\n      dup3\n        /* \"@openzeppelin/contracts/utils/Strings.sol\":2307:2316  buffer[i] */\n      dup2\n      mload\n      dup2\n      lt\n      tag_202\n      jumpi\n      tag_203\n      tag_192\n      jump\t// in\n    tag_203:\n    tag_202:\n      0x20\n      add\n      add\n        /* \"@openzeppelin/contracts/utils/Strings.sol\":2307:2347  buffer[i] = HEX_DIGITS[localValue & 0xf] */\n      swap1\n      not(0xffffffffffffffffffffffffffffffffffffffffffffffffffffffffffffff)\n      and\n      swap1\n      dup2\n      0x00\n      byte\n      swap1\n      mstore8\n      pop\n        /* \"@openzeppelin/contracts/utils/Strings.sol\":2376:2377  4 */\n      0x04\n        /* \"@openzeppelin/contracts/utils/Strings.sol\":2361:2377  localValue >>= 4 */\n      dup4\n      swap1\n      shr\n      swap3\n      pop\n        /* \"@openzeppelin/contracts/utils/Strings.sol\":2288:2291  --i */\n      dup1\n      tag_204\n      swap1\n      tag_205\n      jump\t// in\n    tag_204:\n      swap1\n      pop\n        /* \"@openzeppelin/contracts/utils/Strings.sol\":2248:2388  for (uint256 i = 2 * length + 1; i > 1; --i) {... */\n      jump(tag_195)\n    tag_196:\n      pop\n        /* \"@openzeppelin/contracts/utils/Strings.sol\":2415:2416  0 */\n      0x00\n        /* \"@openzeppelin/contracts/utils/Strings.sol\":2401:2411  localValue */\n      dup3\n        /* \"@openzeppelin/contracts/utils/Strings.sol\":2401:2416  localValue != 0 */\n      eq\n        /* \"@openzeppelin/contracts/utils/Strings.sol\":2397:2493  if (localValue != 0) {... */\n      tag_206\n      jumpi\n        /* \"@openzeppelin/contracts/utils/Strings.sol\":2468:2473  value */\n      dup5\n        /* \"@openzeppelin/contracts/utils/Strings.sol\":2475:2481  length */\n      dup5\n        /* \"@openzeppelin/contracts/utils/Strings.sol\":2439:2482  StringsInsufficientHexLength(value, length) */\n      mload(0x40)\n      0xe22e27eb00000000000000000000000000000000000000000000000000000000\n      dup2\n      mstore\n      0x04\n      add\n      tag_207\n      swap3\n      swap2\n      swap1\n      tag_208\n      jump\t// in\n    tag_207:\n      mload(0x40)\n      dup1\n      swap2\n      sub\n      swap1\n      revert\n        /* \"@openzeppelin/contracts/utils/Strings.sol\":2397:2493  if (localValue != 0) {... */\n    tag_206:\n        /* \"@openzeppelin/contracts/utils/Strings.sol\":2516:2522  buffer */\n      dup1\n        /* \"@openzeppelin/contracts/utils/Strings.sol\":2502:2523  return string(buffer) */\n      swap3\n      pop\n      pop\n      pop\n        /* \"@openzeppelin/contracts/utils/Strings.sol\":2005:2530  function toHexString(uint256 value, uint256 length) internal pure returns (string memory) {... */\n      swap3\n      swap2\n      pop\n      pop\n      jump\t// out\n        /* \"@tableland/evm/contracts/utils/SQLHelpers.sol\":566:973  function toNameFromId(... */\n    tag_102:\n        /* \"@tableland/evm/contracts/utils/SQLHelpers.sol\":672:685  string memory */\n      0x60\n        /* \"@tableland/evm/contracts/utils/SQLHelpers.sol\":778:784  prefix */\n      dup3\n        /* \"@tableland/evm/contracts/utils/SQLHelpers.sol\":831:862  Strings.toString(block.chainid) */\n      tag_210\n        /* \"@tableland/evm/contracts/utils/SQLHelpers.sol\":848:861  block.chainid */\n      chainid\n        /* \"@tableland/evm/contracts/utils/SQLHelpers.sol\":831:847  Strings.toString */\n      tag_58\n        /* \"@tableland/evm/contracts/utils/SQLHelpers.sol\":831:862  Strings.toString(block.chainid) */\n      jump\t// in\n    tag_210:\n        /* \"@tableland/evm/contracts/utils/SQLHelpers.sol\":909:934  Strings.toString(tableId) */\n      tag_211\n        /* \"@tableland/evm/contracts/utils/SQLHelpers.sol\":926:933  tableId */\n      dup5\n        /* \"@tableland/evm/contracts/utils/SQLHelpers.sol\":909:925  Strings.toString */\n      tag_58\n        /* \"@tableland/evm/contracts/utils/SQLHelpers.sol\":909:934  Strings.toString(tableId) */\n      jump\t// in\n    tag_211:\n        /* \"@tableland/evm/contracts/utils/SQLHelpers.sol\":740:952  abi.encodePacked(... */\n      add(0x20, mload(0x40))\n      tag_212\n      swap4\n      swap3\n      swap2\n      swap1\n      tag_213\n      jump\t// in\n    tag_212:\n      mload(0x40)\n      0x20\n      dup2\n      dup4\n      sub\n      sub\n      dup2\n      mstore\n      swap1\n      0x40\n      mstore\n        /* \"@tableland/evm/contracts/utils/SQLHelpers.sol\":697:966  return... */\n      swap1\n      pop\n        /* \"@tableland/evm/contracts/utils/SQLHelpers.sol\":566:973  function toNameFromId(... */\n      swap3\n      swap2\n      pop\n      pop\n      jump\t// out\n        /* \"@tableland/evm/contracts/utils/SQLHelpers.sol\":1339:1800  function toCreateFromSchema(... */\n    tag_107:\n        /* \"@tableland/evm/contracts/utils/SQLHelpers.sol\":1456:1469  string memory */\n      0x60\n        /* \"@tableland/evm/contracts/utils/SQLHelpers.sol\":1599:1605  prefix */\n      dup2\n        /* \"@tableland/evm/contracts/utils/SQLHelpers.sol\":1652:1683  Strings.toString(block.chainid) */\n      tag_215\n        /* \"@tableland/evm/contracts/utils/SQLHelpers.sol\":1669:1682  block.chainid */\n      chainid\n        /* \"@tableland/evm/contracts/utils/SQLHelpers.sol\":1652:1668  Strings.toString */\n      tag_58\n        /* \"@tableland/evm/contracts/utils/SQLHelpers.sol\":1652:1683  Strings.toString(block.chainid) */\n      jump\t// in\n    tag_215:\n        /* \"@tableland/evm/contracts/utils/SQLHelpers.sol\":1730:1736  schema */\n      dup5\n        /* \"@tableland/evm/contracts/utils/SQLHelpers.sol\":1524:1779  abi.encodePacked(... */\n      add(0x20, mload(0x40))\n      tag_216\n      swap4\n      swap3\n      swap2\n      swap1\n      tag_217\n      jump\t// in\n    tag_216:\n      mload(0x40)\n      0x20\n      dup2\n      dup4\n      sub\n      sub\n      dup2\n      mstore\n      swap1\n      0x40\n      mstore\n        /* \"@tableland/evm/contracts/utils/SQLHelpers.sol\":1481:1793  return... */\n      swap1\n      pop\n        /* \"@tableland/evm/contracts/utils/SQLHelpers.sol\":1339:1800  function toCreateFromSchema(... */\n      swap3\n      swap2\n      pop\n      pop\n      jump\t// out\n        /* \"@tableland/evm/contracts/utils/SQLHelpers.sol\":4689:5184  function toUpdate(... */\n    tag_123:\n        /* \"@tableland/evm/contracts/utils/SQLHelpers.sol\":4853:4866  string memory */\n      0x60\n        /* \"@tableland/evm/contracts/utils/SQLHelpers.sol\":4878:4896  string memory name */\n      0x00\n        /* \"@tableland/evm/contracts/utils/SQLHelpers.sol\":4899:4928  toNameFromId(prefix, tableId) */\n      tag_219\n        /* \"@tableland/evm/contracts/utils/SQLHelpers.sol\":4912:4918  prefix */\n      dup7\n        /* \"@tableland/evm/contracts/utils/SQLHelpers.sol\":4920:4927  tableId */\n      dup7\n        /* \"@tableland/evm/contracts/utils/SQLHelpers.sol\":4899:4911  toNameFromId */\n      tag_102\n        /* \"@tableland/evm/contracts/utils/SQLHelpers.sol\":4899:4928  toNameFromId(prefix, tableId) */\n      jump\t// in\n    tag_219:\n        /* \"@tableland/evm/contracts/utils/SQLHelpers.sol\":4878:4928  string memory name = toNameFromId(prefix, tableId) */\n      swap1\n      pop\n        /* \"@tableland/evm/contracts/utils/SQLHelpers.sol\":4938:4958  string memory filter */\n      0x00\n        /* \"@tableland/evm/contracts/utils/SQLHelpers.sol\":4938:4963  string memory filter = \"\" */\n      mload(0x40)\n      dup1\n      0x20\n      add\n      0x40\n      mstore\n      dup1\n      0x00\n      dup2\n      mstore\n      pop\n      swap1\n      pop\n        /* \"@tableland/evm/contracts/utils/SQLHelpers.sol\":5001:5002  0 */\n      0x00\n        /* \"@tableland/evm/contracts/utils/SQLHelpers.sol\":4983:4990  filters */\n      dup5\n        /* \"@tableland/evm/contracts/utils/SQLHelpers.sol\":4977:4998  bytes(filters).length */\n      mload\n        /* \"@tableland/evm/contracts/utils/SQLHelpers.sol\":4977:5002  bytes(filters).length > 0 */\n      gt\n        /* \"@tableland/evm/contracts/utils/SQLHelpers.sol\":4973:5082  if (bytes(filters).length > 0) {... */\n      iszero\n      tag_220\n      jumpi\n        /* \"@tableland/evm/contracts/utils/SQLHelpers.sol\":5062:5069  filters */\n      dup4\n        /* \"@tableland/evm/contracts/utils/SQLHelpers.sol\":5034:5070  abi.encodePacked(\" WHERE \", filters) */\n      add(0x20, mload(0x40))\n      tag_221\n      swap2\n      swap1\n      tag_222\n      jump\t// in\n    tag_221:\n      mload(0x40)\n      0x20\n      dup2\n      dup4\n      sub\n      sub\n      dup2\n      mstore\n      swap1\n      0x40\n      mstore\n        /* \"@tableland/evm/contracts/utils/SQLHelpers.sol\":5018:5071  filter = string(abi.encodePacked(\" WHERE \", filters)) */\n      swap1\n      pop\n        /* \"@tableland/evm/contracts/utils/SQLHelpers.sol\":4973:5082  if (bytes(filters).length > 0) {... */\n    tag_220:\n        /* \"@tableland/evm/contracts/utils/SQLHelpers.sol\":5145:5149  name */\n      dup2\n        /* \"@tableland/evm/contracts/utils/SQLHelpers.sol\":5160:5167  setters */\n      dup6\n        /* \"@tableland/evm/contracts/utils/SQLHelpers.sol\":5169:5175  filter */\n      dup3\n        /* \"@tableland/evm/contracts/utils/SQLHelpers.sol\":5117:5176  abi.encodePacked(\"UPDATE \", name, \" SET \", setters, filter) */\n      add(0x20, mload(0x40))\n      tag_223\n      swap4\n      swap3\n      swap2\n      swap1\n      tag_224\n      jump\t// in\n    tag_223:\n      mload(0x40)\n      0x20\n      dup2\n      dup4\n      sub\n      sub\n      dup2\n      mstore\n      swap1\n      0x40\n      mstore\n        /* \"@tableland/evm/contracts/utils/SQLHelpers.sol\":5091:5177  return... */\n      swap3\n      pop\n      pop\n      pop\n        /* \"@tableland/evm/contracts/utils/SQLHelpers.sol\":4689:5184  function toUpdate(... */\n      swap5\n      swap4\n      pop\n      pop\n      pop\n      pop\n      jump\t// out\n        /* \"@openzeppelin/contracts/utils/math/Math.sol\":12214:13130  function log10(uint256 value) internal pure returns (uint256) {... */\n    tag_130:\n        /* \"@openzeppelin/contracts/utils/math/Math.sol\":12267:12274  uint256 */\n      0x00\n        /* \"@openzeppelin/contracts/utils/math/Math.sol\":12286:12300  uint256 result */\n      dup1\n        /* \"@openzeppelin/contracts/utils/math/Math.sol\":12303:12304  0 */\n      0x00\n        /* \"@openzeppelin/contracts/utils/math/Math.sol\":12286:12304  uint256 result = 0 */\n      swap1\n      pop\n        /* \"@openzeppelin/contracts/utils/math/Math.sol\":12351:12359  10 ** 64 */\n      0x184f03e93ff9f4daa797ed6e38ed64bf6a1f010000000000000000\n        /* \"@openzeppelin/contracts/utils/math/Math.sol\":12342:12347  value */\n      dup4\n        /* \"@openzeppelin/contracts/utils/math/Math.sol\":12342:12359  value >= 10 ** 64 */\n      lt\n        /* \"@openzeppelin/contracts/utils/math/Math.sol\":12338:12441  if (value >= 10 ** 64) {... */\n      tag_226\n      jumpi\n        /* \"@openzeppelin/contracts/utils/math/Math.sol\":12388:12396  10 ** 64 */\n      0x184f03e93ff9f4daa797ed6e38ed64bf6a1f010000000000000000\n        /* \"@openzeppelin/contracts/utils/math/Math.sol\":12379:12396  value /= 10 ** 64 */\n      dup4\n      dup2\n      tag_227\n      jumpi\n      tag_228\n      tag_139\n      jump\t// in\n    tag_228:\n    tag_227:\n      div\n      swap3\n      pop\n        /* \"@openzeppelin/contracts/utils/math/Math.sol\":12424:12426  64 */\n      0x40\n        /* \"@openzeppelin/contracts/utils/math/Math.sol\":12414:12426  result += 64 */\n      dup2\n      add\n      swap1\n      pop\n        /* \"@openzeppelin/contracts/utils/math/Math.sol\":12338:12441  if (value >= 10 ** 64) {... */\n    tag_226:\n        /* \"@openzeppelin/contracts/utils/math/Math.sol\":12467:12475  10 ** 32 */\n      0x04ee2d6d415b85acef8100000000\n        /* \"@openzeppelin/contracts/utils/math/Math.sol\":12458:12463  value */\n      dup4\n        /* \"@openzeppelin/contracts/utils/math/Math.sol\":12458:12475  value >= 10 ** 32 */\n      lt\n        /* \"@openzeppelin/contracts/utils/math/Math.sol\":12454:12557  if (value >= 10 ** 32) {... */\n      tag_229\n      jumpi\n        /* \"@openzeppelin/contracts/utils/math/Math.sol\":12504:12512  10 ** 32 */\n      0x04ee2d6d415b85acef8100000000\n        /* \"@openzeppelin/contracts/utils/math/Math.sol\":12495:12512  value /= 10 ** 32 */\n      dup4\n      dup2\n      tag_230\n      jumpi\n      tag_231\n      tag_139\n      jump\t// in\n    tag_231:\n    tag_230:\n      div\n      swap3\n      pop\n        /* \"@openzeppelin/contracts/utils/math/Math.sol\":12540:12542  32 */\n      0x20\n        /* \"@openzeppelin/contracts/utils/math/Math.sol\":12530:12542  result += 32 */\n      dup2\n      add\n      swap1\n      pop\n        /* \"@openzeppelin/contracts/utils/math/Math.sol\":12454:12557  if (value >= 10 ** 32) {... */\n    tag_229:\n        /* \"@openzeppelin/contracts/utils/math/Math.sol\":12583:12591  10 ** 16 */\n      0x2386f26fc10000\n        /* \"@openzeppelin/contracts/utils/math/Math.sol\":12574:12579  value */\n      dup4\n        /* \"@openzeppelin/contracts/utils/math/Math.sol\":12574:12591  value >= 10 ** 16 */\n      lt\n        /* \"@openzeppelin/contracts/utils/math/Math.sol\":12570:12673  if (value >= 10 ** 16) {... */\n      tag_232\n      jumpi\n        /* \"@openzeppelin/contracts/utils/math/Math.sol\":12620:12628  10 ** 16 */\n      0x2386f26fc10000\n        /* \"@openzeppelin/contracts/utils/math/Math.sol\":12611:12628  value /= 10 ** 16 */\n      dup4\n      dup2\n      tag_233\n      jumpi\n      tag_234\n      tag_139\n      jump\t// in\n    tag_234:\n    tag_233:\n      div\n      swap3\n      pop\n        /* \"@openzeppelin/contracts/utils/math/Math.sol\":12656:12658  16 */\n      0x10\n        /* \"@openzeppelin/contracts/utils/math/Math.sol\":12646:12658  result += 16 */\n      dup2\n      add\n      swap1\n      pop\n        /* \"@openzeppelin/contracts/utils/math/Math.sol\":12570:12673  if (value >= 10 ** 16) {... */\n    tag_232:\n        /* \"@openzeppelin/contracts/utils/math/Math.sol\":12699:12706  10 ** 8 */\n      0x05f5e100\n        /* \"@openzeppelin/contracts/utils/math/Math.sol\":12690:12695  value */\n      dup4\n        /* \"@openzeppelin/contracts/utils/math/Math.sol\":12690:12706  value >= 10 ** 8 */\n      lt\n        /* \"@openzeppelin/contracts/utils/math/Math.sol\":12686:12786  if (value >= 10 ** 8) {... */\n      tag_235\n      jumpi\n        /* \"@openzeppelin/contracts/utils/math/Math.sol\":12735:12742  10 ** 8 */\n      0x05f5e100\n        /* \"@openzeppelin/contracts/utils/math/Math.sol\":12726:12742  value /= 10 ** 8 */\n      dup4\n      dup2\n      tag_236\n      jumpi\n      tag_237\n      tag_139\n      jump\t// in\n    tag_237:\n    tag_236:\n      div\n      swap3\n      pop\n        /* \"@openzeppelin/contracts/utils/math/Math.sol\":12770:12771  8 */\n      0x08\n        /* \"@openzeppelin/contracts/utils/math/Math.sol\":12760:12771  result += 8 */\n      dup2\n      add\n      swap1\n      pop\n        /* \"@openzeppelin/contracts/utils/math/Math.sol\":12686:12786  if (value >= 10 ** 8) {... */\n    tag_235:\n        /* \"@openzeppelin/contracts/utils/math/Math.sol\":12812:12819  10 ** 4 */\n      0x2710\n        /* \"@openzeppelin/contracts/utils/math/Math.sol\":12803:12808  value */\n      dup4\n        /* \"@openzeppelin/contracts/utils/math/Math.sol\":12803:12819  value >= 10 ** 4 */\n      lt\n        /* \"@openzeppelin/contracts/utils/math/Math.sol\":12799:12899  if (value >= 10 ** 4) {... */\n      tag_238\n      jumpi\n        /* \"@openzeppelin/contracts/utils/math/Math.sol\":12848:12855  10 ** 4 */\n      0x2710\n        /* \"@openzeppelin/contracts/utils/math/Math.sol\":12839:12855  value /= 10 ** 4 */\n      dup4\n      dup2\n      tag_239\n      jumpi\n      tag_240\n      tag_139\n      jump\t// in\n    tag_240:\n    tag_239:\n      div\n      swap3\n      pop\n        /* \"@openzeppelin/contracts/utils/math/Math.sol\":12883:12884  4 */\n      0x04\n        /* \"@openzeppelin/contracts/utils/math/Math.sol\":12873:12884  result += 4 */\n      dup2\n      add\n      swap1\n      pop\n        /* \"@openzeppelin/contracts/utils/math/Math.sol\":12799:12899  if (value >= 10 ** 4) {... */\n    tag_238:\n        /* \"@openzeppelin/contracts/utils/math/Math.sol\":12925:12932  10 ** 2 */\n      0x64\n        /* \"@openzeppelin/contracts/utils/math/Math.sol\":12916:12921  value */\n      dup4\n        /* \"@openzeppelin/contracts/utils/math/Math.sol\":12916:12932  value >= 10 ** 2 */\n      lt\n        /* \"@openzeppelin/contracts/utils/math/Math.sol\":12912:13012  if (value >= 10 ** 2) {... */\n      tag_241\n      jumpi\n        /* \"@openzeppelin/contracts/utils/math/Math.sol\":12961:12968  10 ** 2 */\n      0x64\n        /* \"@openzeppelin/contracts/utils/math/Math.sol\":12952:12968  value /= 10 ** 2 */\n      dup4\n      dup2\n      tag_242\n      jumpi\n      tag_243\n      tag_139\n      jump\t// in\n    tag_243:\n    tag_242:\n      div\n      swap3\n      pop\n        /* \"@openzeppelin/contracts/utils/math/Math.sol\":12996:12997  2 */\n      0x02\n        /* \"@openzeppelin/contracts/utils/math/Math.sol\":12986:12997  result += 2 */\n      dup2\n      add\n      swap1\n      pop\n        /* \"@openzeppelin/contracts/utils/math/Math.sol\":12912:13012  if (value >= 10 ** 2) {... */\n    tag_241:\n        /* \"@openzeppelin/contracts/utils/math/Math.sol\":13038:13045  10 ** 1 */\n      0x0a\n        /* \"@openzeppelin/contracts/utils/math/Math.sol\":13029:13034  value */\n      dup4\n        /* \"@openzeppelin/contracts/utils/math/Math.sol\":13029:13045  value >= 10 ** 1 */\n      lt\n        /* \"@openzeppelin/contracts/utils/math/Math.sol\":13025:13091  if (value >= 10 ** 1) {... */\n      tag_244\n      jumpi\n        /* \"@openzeppelin/contracts/utils/math/Math.sol\":13075:13076  1 */\n      0x01\n        /* \"@openzeppelin/contracts/utils/math/Math.sol\":13065:13076  result += 1 */\n      dup2\n      add\n      swap1\n      pop\n        /* \"@openzeppelin/contracts/utils/math/Math.sol\":13025:13091  if (value >= 10 ** 1) {... */\n    tag_244:\n        /* \"@openzeppelin/contracts/utils/math/Math.sol\":13117:13123  result */\n      dup1\n        /* \"@openzeppelin/contracts/utils/math/Math.sol\":13110:13123  return result */\n      swap2\n      pop\n      pop\n        /* \"@openzeppelin/contracts/utils/math/Math.sol\":12214:13130  function log10(uint256 value) internal pure returns (uint256) {... */\n      swap2\n      swap1\n      pop\n      jump\t// out\n        /* \"#utility.yul\":7:82   */\n    tag_245:\n        /* \"#utility.yul\":40:46   */\n      0x00\n        /* \"#utility.yul\":73:75   */\n      0x40\n        /* \"#utility.yul\":67:76   */\n      mload\n        /* \"#utility.yul\":57:76   */\n      swap1\n      pop\n        /* \"#utility.yul\":7:82   */\n      swap1\n      jump\t// out\n        /* \"#utility.yul\":88:205   */\n    tag_246:\n        /* \"#utility.yul\":197:198   */\n      0x00\n        /* \"#utility.yul\":194:195   */\n      dup1\n        /* \"#utility.yul\":187:199   */\n      revert\n        /* \"#utility.yul\":211:328   */\n    tag_247:\n        /* \"#utility.yul\":320:321   */\n      0x00\n        /* \"#utility.yul\":317:318   */\n      dup1\n        /* \"#utility.yul\":310:322   */\n      revert\n        /* \"#utility.yul\":334:411   */\n    tag_248:\n        /* \"#utility.yul\":371:378   */\n      0x00\n        /* \"#utility.yul\":400:405   */\n      dup2\n        /* \"#utility.yul\":389:405   */\n      swap1\n      pop\n        /* \"#utility.yul\":334:411   */\n      swap2\n      swap1\n      pop\n      jump\t// out\n        /* \"#utility.yul\":417:539   */\n    tag_249:\n        /* \"#utility.yul\":490:514   */\n      tag_307\n        /* \"#utility.yul\":508:513   */\n      dup2\n        /* \"#utility.yul\":490:514   */\n      tag_248\n      jump\t// in\n    tag_307:\n        /* \"#utility.yul\":483:488   */\n      dup2\n        /* \"#utility.yul\":480:515   */\n      eq\n        /* \"#utility.yul\":470:533   */\n      tag_308\n      jumpi\n        /* \"#utility.yul\":529:530   */\n      0x00\n        /* \"#utility.yul\":526:527   */\n      dup1\n        /* \"#utility.yul\":519:531   */\n      revert\n        /* \"#utility.yul\":470:533   */\n    tag_308:\n        /* \"#utility.yul\":417:539   */\n      pop\n      jump\t// out\n        /* \"#utility.yul\":545:684   */\n    tag_250:\n        /* \"#utility.yul\":591:596   */\n      0x00\n        /* \"#utility.yul\":629:635   */\n      dup2\n        /* \"#utility.yul\":616:636   */\n      calldataload\n        /* \"#utility.yul\":607:636   */\n      swap1\n      pop\n        /* \"#utility.yul\":645:678   */\n      tag_310\n        /* \"#utility.yul\":672:677   */\n      dup2\n        /* \"#utility.yul\":645:678   */\n      tag_249\n      jump\t// in\n    tag_310:\n        /* \"#utility.yul\":545:684   */\n      swap3\n      swap2\n      pop\n      pop\n      jump\t// out\n        /* \"#utility.yul\":690:1019   */\n    tag_15:\n        /* \"#utility.yul\":749:755   */\n      0x00\n        /* \"#utility.yul\":798:800   */\n      0x20\n        /* \"#utility.yul\":786:795   */\n      dup3\n        /* \"#utility.yul\":777:784   */\n      dup5\n        /* \"#utility.yul\":773:796   */\n      sub\n        /* \"#utility.yul\":769:801   */\n      slt\n        /* \"#utility.yul\":766:885   */\n      iszero\n      tag_312\n      jumpi\n        /* \"#utility.yul\":804:883   */\n      tag_313\n      tag_246\n      jump\t// in\n    tag_313:\n        /* \"#utility.yul\":766:885   */\n    tag_312:\n        /* \"#utility.yul\":924:925   */\n      0x00\n        /* \"#utility.yul\":949:1002   */\n      tag_314\n        /* \"#utility.yul\":994:1001   */\n      dup5\n        /* \"#utility.yul\":985:991   */\n      dup3\n        /* \"#utility.yul\":974:983   */\n      dup6\n        /* \"#utility.yul\":970:992   */\n      add\n        /* \"#utility.yul\":949:1002   */\n      tag_250\n      jump\t// in\n    tag_314:\n        /* \"#utility.yul\":939:1002   */\n      swap2\n      pop\n        /* \"#utility.yul\":895:1012   */\n      pop\n        /* \"#utility.yul\":690:1019   */\n      swap3\n      swap2\n      pop\n      pop\n      jump\t// out\n        /* \"#utility.yul\":1025:1151   */\n    tag_251:\n        /* \"#utility.yul\":1062:1069   */\n      0x00\n        /* \"#utility.yul\":1102:1144   */\n      0xffffffffffffffffffffffffffffffffffffffff\n        /* \"#utility.yul\":1095:1100   */\n      dup3\n        /* \"#utility.yul\":1091:1145   */\n      and\n        /* \"#utility.yul\":1080:1145   */\n      swap1\n      pop\n        /* \"#utility.yul\":1025:1151   */\n      swap2\n      swap1\n      pop\n      jump\t// out\n        /* \"#utility.yul\":1157:1253   */\n    tag_252:\n        /* \"#utility.yul\":1194:1201   */\n      0x00\n        /* \"#utility.yul\":1223:1247   */\n      tag_317\n        /* \"#utility.yul\":1241:1246   */\n      dup3\n        /* \"#utility.yul\":1223:1247   */\n      tag_251\n      jump\t// in\n    tag_317:\n        /* \"#utility.yul\":1212:1247   */\n      swap1\n      pop\n        /* \"#utility.yul\":1157:1253   */\n      swap2\n      swap1\n      pop\n      jump\t// out\n        /* \"#utility.yul\":1259:1381   */\n    tag_253:\n        /* \"#utility.yul\":1332:1356   */\n      tag_319\n        /* \"#utility.yul\":1350:1355   */\n      dup2\n        /* \"#utility.yul\":1332:1356   */\n      tag_252\n      jump\t// in\n    tag_319:\n        /* \"#utility.yul\":1325:1330   */\n      dup2\n        /* \"#utility.yul\":1322:1357   */\n      eq\n        /* \"#utility.yul\":1312:1375   */\n      tag_320\n      jumpi\n        /* \"#utility.yul\":1371:1372   */\n      0x00\n        /* \"#utility.yul\":1368:1369   */\n      dup1\n        /* \"#utility.yul\":1361:1373   */\n      revert\n        /* \"#utility.yul\":1312:1375   */\n    tag_320:\n        /* \"#utility.yul\":1259:1381   */\n      pop\n      jump\t// out\n        /* \"#utility.yul\":1387:1526   */\n    tag_254:\n        /* \"#utility.yul\":1433:1438   */\n      0x00\n        /* \"#utility.yul\":1471:1477   */\n      dup2\n        /* \"#utility.yul\":1458:1478   */\n      calldataload\n        /* \"#utility.yul\":1449:1478   */\n      swap1\n      pop\n        /* \"#utility.yul\":1487:1520   */\n      tag_322\n        /* \"#utility.yul\":1514:1519   */\n      dup2\n        /* \"#utility.yul\":1487:1520   */\n      tag_253\n      jump\t// in\n    tag_322:\n        /* \"#utility.yul\":1387:1526   */\n      swap3\n      swap2\n      pop\n      pop\n      jump\t// out\n        /* \"#utility.yul\":1532:1649   */\n    tag_255:\n        /* \"#utility.yul\":1641:1642   */\n      0x00\n        /* \"#utility.yul\":1638:1639   */\n      dup1\n        /* \"#utility.yul\":1631:1643   */\n      revert\n        /* \"#utility.yul\":1655:1772   */\n    tag_256:\n        /* \"#utility.yul\":1764:1765   */\n      0x00\n        /* \"#utility.yul\":1761:1762   */\n      dup1\n        /* \"#utility.yul\":1754:1766   */\n      revert\n        /* \"#utility.yul\":1778:1880   */\n    tag_257:\n        /* \"#utility.yul\":1819:1825   */\n      0x00\n        /* \"#utility.yul\":1870:1872   */\n      0x1f\n        /* \"#utility.yul\":1866:1873   */\n      not\n        /* \"#utility.yul\":1861:1863   */\n      0x1f\n        /* \"#utility.yul\":1854:1859   */\n      dup4\n        /* \"#utility.yul\":1850:1864   */\n      add\n        /* \"#utility.yul\":1846:1874   */\n      and\n        /* \"#utility.yul\":1836:1874   */\n      swap1\n      pop\n        /* \"#utility.yul\":1778:1880   */\n      swap2\n      swap1\n      pop\n      jump\t// out\n        /* \"#utility.yul\":1886:2066   */\n    tag_133:\n        /* \"#utility.yul\":1934:2011   */\n      0x4e487b7100000000000000000000000000000000000000000000000000000000\n        /* \"#utility.yul\":1931:1932   */\n      0x00\n        /* \"#utility.yul\":1924:2012   */\n      mstore\n        /* \"#utility.yul\":2031:2035   */\n      0x41\n        /* \"#utility.yul\":2028:2029   */\n      0x04\n        /* \"#utility.yul\":2021:2036   */\n      mstore\n        /* \"#utility.yul\":2055:2059   */\n      0x24\n        /* \"#utility.yul\":2052:2053   */\n      0x00\n        /* \"#utility.yul\":2045:2060   */\n      revert\n        /* \"#utility.yul\":2072:2353   */\n    tag_258:\n        /* \"#utility.yul\":2155:2182   */\n      tag_328\n        /* \"#utility.yul\":2177:2181   */\n      dup3\n        /* \"#utility.yul\":2155:2182   */\n      tag_257\n      jump\t// in\n    tag_328:\n        /* \"#utility.yul\":2147:2153   */\n      dup2\n        /* \"#utility.yul\":2143:2183   */\n      add\n        /* \"#utility.yul\":2285:2291   */\n      dup2\n        /* \"#utility.yul\":2273:2283   */\n      dup2\n        /* \"#utility.yul\":2270:2292   */\n      lt\n        /* \"#utility.yul\":2249:2267   */\n      0xffffffffffffffff\n        /* \"#utility.yul\":2237:2247   */\n      dup3\n        /* \"#utility.yul\":2234:2268   */\n      gt\n        /* \"#utility.yul\":2231:2293   */\n      or\n        /* \"#utility.yul\":2228:2316   */\n      iszero\n      tag_329\n      jumpi\n        /* \"#utility.yul\":2296:2314   */\n      tag_330\n      tag_133\n      jump\t// in\n    tag_330:\n        /* \"#utility.yul\":2228:2316   */\n    tag_329:\n        /* \"#utility.yul\":2336:2346   */\n      dup1\n        /* \"#utility.yul\":2332:2334   */\n      0x40\n        /* \"#utility.yul\":2325:2347   */\n      mstore\n        /* \"#utility.yul\":2115:2353   */\n      pop\n        /* \"#utility.yul\":2072:2353   */\n      pop\n      pop\n      jump\t// out\n        /* \"#utility.yul\":2359:2488   */\n    tag_259:\n        /* \"#utility.yul\":2393:2399   */\n      0x00\n        /* \"#utility.yul\":2420:2440   */\n      tag_332\n      tag_245\n      jump\t// in\n    tag_332:\n        /* \"#utility.yul\":2410:2440   */\n      swap1\n      pop\n        /* \"#utility.yul\":2449:2482   */\n      tag_333\n        /* \"#utility.yul\":2477:2481   */\n      dup3\n        /* \"#utility.yul\":2469:2475   */\n      dup3\n        /* \"#utility.yul\":2449:2482   */\n      tag_258\n      jump\t// in\n    tag_333:\n        /* \"#utility.yul\":2359:2488   */\n      swap2\n      swap1\n      pop\n      jump\t// out\n        /* \"#utility.yul\":2494:2801   */\n    tag_260:\n        /* \"#utility.yul\":2555:2559   */\n      0x00\n        /* \"#utility.yul\":2645:2663   */\n      0xffffffffffffffff\n        /* \"#utility.yul\":2637:2643   */\n      dup3\n        /* \"#utility.yul\":2634:2664   */\n      gt\n        /* \"#utility.yul\":2631:2687   */\n      iszero\n      tag_335\n      jumpi\n        /* \"#utility.yul\":2667:2685   */\n      tag_336\n      tag_133\n      jump\t// in\n    tag_336:\n        /* \"#utility.yul\":2631:2687   */\n    tag_335:\n        /* \"#utility.yul\":2705:2734   */\n      tag_337\n        /* \"#utility.yul\":2727:2733   */\n      dup3\n        /* \"#utility.yul\":2705:2734   */\n      tag_257\n      jump\t// in\n    tag_337:\n        /* \"#utility.yul\":2697:2734   */\n      swap1\n      pop\n        /* \"#utility.yul\":2789:2793   */\n      0x20\n        /* \"#utility.yul\":2783:2787   */\n      dup2\n        /* \"#utility.yul\":2779:2794   */\n      add\n        /* \"#utility.yul\":2771:2794   */\n      swap1\n      pop\n        /* \"#utility.yul\":2494:2801   */\n      swap2\n      swap1\n      pop\n      jump\t// out\n        /* \"#utility.yul\":2807:2953   */\n    tag_261:\n        /* \"#utility.yul\":2904:2910   */\n      dup3\n        /* \"#utility.yul\":2899:2902   */\n      dup2\n        /* \"#utility.yul\":2894:2897   */\n      dup4\n        /* \"#utility.yul\":2881:2911   */\n      calldatacopy\n        /* \"#utility.yul\":2945:2946   */\n      0x00\n        /* \"#utility.yul\":2936:2942   */\n      dup4\n        /* \"#utility.yul\":2931:2934   */\n      dup4\n        /* \"#utility.yul\":2927:2943   */\n      add\n        /* \"#utility.yul\":2920:2947   */\n      mstore\n        /* \"#utility.yul\":2807:2953   */\n      pop\n      pop\n      pop\n      jump\t// out\n        /* \"#utility.yul\":2959:3382   */\n    tag_262:\n        /* \"#utility.yul\":3036:3041   */\n      0x00\n        /* \"#utility.yul\":3061:3126   */\n      tag_340\n        /* \"#utility.yul\":3077:3125   */\n      tag_341\n        /* \"#utility.yul\":3118:3124   */\n      dup5\n        /* \"#utility.yul\":3077:3125   */\n      tag_260\n      jump\t// in\n    tag_341:\n        /* \"#utility.yul\":3061:3126   */\n      tag_259\n      jump\t// in\n    tag_340:\n        /* \"#utility.yul\":3052:3126   */\n      swap1\n      pop\n        /* \"#utility.yul\":3149:3155   */\n      dup3\n        /* \"#utility.yul\":3142:3147   */\n      dup2\n        /* \"#utility.yul\":3135:3156   */\n      mstore\n        /* \"#utility.yul\":3187:3191   */\n      0x20\n        /* \"#utility.yul\":3180:3185   */\n      dup2\n        /* \"#utility.yul\":3176:3192   */\n      add\n        /* \"#utility.yul\":3225:3228   */\n      dup5\n        /* \"#utility.yul\":3216:3222   */\n      dup5\n        /* \"#utility.yul\":3211:3214   */\n      dup5\n        /* \"#utility.yul\":3207:3223   */\n      add\n        /* \"#utility.yul\":3204:3229   */\n      gt\n        /* \"#utility.yul\":3201:3313   */\n      iszero\n      tag_342\n      jumpi\n        /* \"#utility.yul\":3232:3311   */\n      tag_343\n      tag_256\n      jump\t// in\n    tag_343:\n        /* \"#utility.yul\":3201:3313   */\n    tag_342:\n        /* \"#utility.yul\":3322:3376   */\n      tag_344\n        /* \"#utility.yul\":3369:3375   */\n      dup5\n        /* \"#utility.yul\":3364:3367   */\n      dup3\n        /* \"#utility.yul\":3359:3362   */\n      dup6\n        /* \"#utility.yul\":3322:3376   */\n      tag_261\n      jump\t// in\n    tag_344:\n        /* \"#utility.yul\":3042:3382   */\n      pop\n        /* \"#utility.yul\":2959:3382   */\n      swap4\n      swap3\n      pop\n      pop\n      pop\n      jump\t// out\n        /* \"#utility.yul\":3401:3739   */\n    tag_263:\n        /* \"#utility.yul\":3456:3461   */\n      0x00\n        /* \"#utility.yul\":3505:3508   */\n      dup3\n        /* \"#utility.yul\":3498:3502   */\n      0x1f\n        /* \"#utility.yul\":3490:3496   */\n      dup4\n        /* \"#utility.yul\":3486:3503   */\n      add\n        /* \"#utility.yul\":3482:3509   */\n      slt\n        /* \"#utility.yul\":3472:3594   */\n      tag_346\n      jumpi\n        /* \"#utility.yul\":3513:3592   */\n      tag_347\n      tag_255\n      jump\t// in\n    tag_347:\n        /* \"#utility.yul\":3472:3594   */\n    tag_346:\n        /* \"#utility.yul\":3630:3636   */\n      dup2\n        /* \"#utility.yul\":3617:3637   */\n      calldataload\n        /* \"#utility.yul\":3655:3733   */\n      tag_348\n        /* \"#utility.yul\":3729:3732   */\n      dup5\n        /* \"#utility.yul\":3721:3727   */\n      dup3\n        /* \"#utility.yul\":3714:3718   */\n      0x20\n        /* \"#utility.yul\":3706:3712   */\n      dup7\n        /* \"#utility.yul\":3702:3719   */\n      add\n        /* \"#utility.yul\":3655:3733   */\n      tag_262\n      jump\t// in\n    tag_348:\n        /* \"#utility.yul\":3646:3733   */\n      swap2\n      pop\n        /* \"#utility.yul\":3462:3739   */\n      pop\n        /* \"#utility.yul\":3401:3739   */\n      swap3\n      swap2\n      pop\n      pop\n      jump\t// out\n        /* \"#utility.yul\":3745:4688   */\n    tag_20:\n        /* \"#utility.yul\":3840:3846   */\n      0x00\n        /* \"#utility.yul\":3848:3854   */\n      dup1\n        /* \"#utility.yul\":3856:3862   */\n      0x00\n        /* \"#utility.yul\":3864:3870   */\n      dup1\n        /* \"#utility.yul\":3913:3916   */\n      0x80\n        /* \"#utility.yul\":3901:3910   */\n      dup6\n        /* \"#utility.yul\":3892:3899   */\n      dup8\n        /* \"#utility.yul\":3888:3911   */\n      sub\n        /* \"#utility.yul\":3884:3917   */\n      slt\n        /* \"#utility.yul\":3881:4001   */\n      iszero\n      tag_350\n      jumpi\n        /* \"#utility.yul\":3920:3999   */\n      tag_351\n      tag_246\n      jump\t// in\n    tag_351:\n        /* \"#utility.yul\":3881:4001   */\n    tag_350:\n        /* \"#utility.yul\":4040:4041   */\n      0x00\n        /* \"#utility.yul\":4065:4118   */\n      tag_352\n        /* \"#utility.yul\":4110:4117   */\n      dup8\n        /* \"#utility.yul\":4101:4107   */\n      dup3\n        /* \"#utility.yul\":4090:4099   */\n      dup9\n        /* \"#utility.yul\":4086:4108   */\n      add\n        /* \"#utility.yul\":4065:4118   */\n      tag_254\n      jump\t// in\n    tag_352:\n        /* \"#utility.yul\":4055:4118   */\n      swap5\n      pop\n        /* \"#utility.yul\":4011:4128   */\n      pop\n        /* \"#utility.yul\":4167:4169   */\n      0x20\n        /* \"#utility.yul\":4193:4246   */\n      tag_353\n        /* \"#utility.yul\":4238:4245   */\n      dup8\n        /* \"#utility.yul\":4229:4235   */\n      dup3\n        /* \"#utility.yul\":4218:4227   */\n      dup9\n        /* \"#utility.yul\":4214:4236   */\n      add\n        /* \"#utility.yul\":4193:4246   */\n      tag_254\n      jump\t// in\n    tag_353:\n        /* \"#utility.yul\":4183:4246   */\n      swap4\n      pop\n        /* \"#utility.yul\":4138:4256   */\n      pop\n        /* \"#utility.yul\":4295:4297   */\n      0x40\n        /* \"#utility.yul\":4321:4374   */\n      tag_354\n        /* \"#utility.yul\":4366:4373   */\n      dup8\n        /* \"#utility.yul\":4357:4363   */\n      dup3\n        /* \"#utility.yul\":4346:4355   */\n      dup9\n        /* \"#utility.yul\":4342:4364   */\n      add\n        /* \"#utility.yul\":4321:4374   */\n      tag_250\n      jump\t// in\n    tag_354:\n        /* \"#utility.yul\":4311:4374   */\n      swap3\n      pop\n        /* \"#utility.yul\":4266:4384   */\n      pop\n        /* \"#utility.yul\":4451:4453   */\n      0x60\n        /* \"#utility.yul\":4440:4449   */\n      dup6\n        /* \"#utility.yul\":4436:4454   */\n      add\n        /* \"#utility.yul\":4423:4455   */\n      calldataload\n        /* \"#utility.yul\":4482:4500   */\n      0xffffffffffffffff\n        /* \"#utility.yul\":4474:4480   */\n      dup2\n        /* \"#utility.yul\":4471:4501   */\n      gt\n        /* \"#utility.yul\":4468:4585   */\n      iszero\n      tag_355\n      jumpi\n        /* \"#utility.yul\":4504:4583   */\n      tag_356\n      tag_247\n      jump\t// in\n    tag_356:\n        /* \"#utility.yul\":4468:4585   */\n    tag_355:\n        /* \"#utility.yul\":4609:4671   */\n      tag_357\n        /* \"#utility.yul\":4663:4670   */\n      dup8\n        /* \"#utility.yul\":4654:4660   */\n      dup3\n        /* \"#utility.yul\":4643:4652   */\n      dup9\n        /* \"#utility.yul\":4639:4661   */\n      add\n        /* \"#utility.yul\":4609:4671   */\n      tag_263\n      jump\t// in\n    tag_357:\n        /* \"#utility.yul\":4599:4671   */\n      swap2\n      pop\n        /* \"#utility.yul\":4394:4681   */\n      pop\n        /* \"#utility.yul\":3745:4688   */\n      swap3\n      swap6\n      swap2\n      swap5\n      pop\n      swap3\n      pop\n      jump\t// out\n        /* \"#utility.yul\":4694:4843   */\n    tag_264:\n        /* \"#utility.yul\":4730:4737   */\n      0x00\n        /* \"#utility.yul\":4770:4836   */\n      0xffffffff00000000000000000000000000000000000000000000000000000000\n        /* \"#utility.yul\":4763:4768   */\n      dup3\n        /* \"#utility.yul\":4759:4837   */\n      and\n        /* \"#utility.yul\":4748:4837   */\n      swap1\n      pop\n        /* \"#utility.yul\":4694:4843   */\n      swap2\n      swap1\n      pop\n      jump\t// out\n        /* \"#utility.yul\":4849:4964   */\n    tag_265:\n        /* \"#utility.yul\":4934:4957   */\n      tag_360\n        /* \"#utility.yul\":4951:4956   */\n      dup2\n        /* \"#utility.yul\":4934:4957   */\n      tag_264\n      jump\t// in\n    tag_360:\n        /* \"#utility.yul\":4929:4932   */\n      dup3\n        /* \"#utility.yul\":4922:4958   */\n      mstore\n        /* \"#utility.yul\":4849:4964   */\n      pop\n      pop\n      jump\t// out\n        /* \"#utility.yul\":4970:5188   */\n    tag_23:\n        /* \"#utility.yul\":5061:5065   */\n      0x00\n        /* \"#utility.yul\":5099:5101   */\n      0x20\n        /* \"#utility.yul\":5088:5097   */\n      dup3\n        /* \"#utility.yul\":5084:5102   */\n      add\n        /* \"#utility.yul\":5076:5102   */\n      swap1\n      pop\n        /* \"#utility.yul\":5112:5181   */\n      tag_362\n        /* \"#utility.yul\":5178:5179   */\n      0x00\n        /* \"#utility.yul\":5167:5176   */\n      dup4\n        /* \"#utility.yul\":5163:5180   */\n      add\n        /* \"#utility.yul\":5154:5160   */\n      dup5\n        /* \"#utility.yul\":5112:5181   */\n      tag_265\n      jump\t// in\n    tag_362:\n        /* \"#utility.yul\":4970:5188   */\n      swap3\n      swap2\n      pop\n      pop\n      jump\t// out\n        /* \"#utility.yul\":5194:5523   */\n    tag_27:\n        /* \"#utility.yul\":5253:5259   */\n      0x00\n        /* \"#utility.yul\":5302:5304   */\n      0x20\n        /* \"#utility.yul\":5290:5299   */\n      dup3\n        /* \"#utility.yul\":5281:5288   */\n      dup5\n        /* \"#utility.yul\":5277:5300   */\n      sub\n        /* \"#utility.yul\":5273:5305   */\n      slt\n        /* \"#utility.yul\":5270:5389   */\n      iszero\n      tag_364\n      jumpi\n        /* \"#utility.yul\":5308:5387   */\n      tag_365\n      tag_246\n      jump\t// in\n    tag_365:\n        /* \"#utility.yul\":5270:5389   */\n    tag_364:\n        /* \"#utility.yul\":5428:5429   */\n      0x00\n        /* \"#utility.yul\":5453:5506   */\n      tag_366\n        /* \"#utility.yul\":5498:5505   */\n      dup5\n        /* \"#utility.yul\":5489:5495   */\n      dup3\n        /* \"#utility.yul\":5478:5487   */\n      dup6\n        /* \"#utility.yul\":5474:5496   */\n      add\n        /* \"#utility.yul\":5453:5506   */\n      tag_254\n      jump\t// in\n    tag_366:\n        /* \"#utility.yul\":5443:5506   */\n      swap2\n      pop\n        /* \"#utility.yul\":5399:5516   */\n      pop\n        /* \"#utility.yul\":5194:5523   */\n      swap3\n      swap2\n      pop\n      pop\n      jump\t// out\n        /* \"#utility.yul\":5529:6003   */\n    tag_32:\n        /* \"#utility.yul\":5597:5603   */\n      0x00\n        /* \"#utility.yul\":5605:5611   */\n      dup1\n        /* \"#utility.yul\":5654:5656   */\n      0x40\n        /* \"#utility.yul\":5642:5651   */\n      dup4\n        /* \"#utility.yul\":5633:5640   */\n      dup6\n        /* \"#utility.yul\":5629:5652   */\n      sub\n        /* \"#utility.yul\":5625:5657   */\n      slt\n        /* \"#utility.yul\":5622:5741   */\n      iszero\n      tag_368\n      jumpi\n        /* \"#utility.yul\":5660:5739   */\n      tag_369\n      tag_246\n      jump\t// in\n    tag_369:\n        /* \"#utility.yul\":5622:5741   */\n    tag_368:\n        /* \"#utility.yul\":5780:5781   */\n      0x00\n        /* \"#utility.yul\":5805:5858   */\n      tag_370\n        /* \"#utility.yul\":5850:5857   */\n      dup6\n        /* \"#utility.yul\":5841:5847   */\n      dup3\n        /* \"#utility.yul\":5830:5839   */\n      dup7\n        /* \"#utility.yul\":5826:5848   */\n      add\n        /* \"#utility.yul\":5805:5858   */\n      tag_254\n      jump\t// in\n    tag_370:\n        /* \"#utility.yul\":5795:5858   */\n      swap3\n      pop\n        /* \"#utility.yul\":5751:5868   */\n      pop\n        /* \"#utility.yul\":5907:5909   */\n      0x20\n        /* \"#utility.yul\":5933:5986   */\n      tag_371\n        /* \"#utility.yul\":5978:5985   */\n      dup6\n        /* \"#utility.yul\":5969:5975   */\n      dup3\n        /* \"#utility.yul\":5958:5967   */\n      dup7\n        /* \"#utility.yul\":5954:5976   */\n      add\n        /* \"#utility.yul\":5933:5986   */\n      tag_254\n      jump\t// in\n    tag_371:\n        /* \"#utility.yul\":5923:5986   */\n      swap2\n      pop\n        /* \"#utility.yul\":5878:5996   */\n      pop\n        /* \"#utility.yul\":5529:6003   */\n      swap3\n      pop\n      swap3\n      swap1\n      pop\n      jump\t// out\n        /* \"#utility.yul\":6009:6108   */\n    tag_266:\n        /* \"#utility.yul\":6061:6067   */\n      0x00\n        /* \"#utility.yul\":6095:6100   */\n      dup2\n        /* \"#utility.yul\":6089:6101   */\n      mload\n        /* \"#utility.yul\":6079:6101   */\n      swap1\n      pop\n        /* \"#utility.yul\":6009:6108   */\n      swap2\n      swap1\n      pop\n      jump\t// out\n        /* \"#utility.yul\":6114:6283   */\n    tag_267:\n        /* \"#utility.yul\":6198:6209   */\n      0x00\n        /* \"#utility.yul\":6232:6238   */\n      dup3\n        /* \"#utility.yul\":6227:6230   */\n      dup3\n        /* \"#utility.yul\":6220:6239   */\n      mstore\n        /* \"#utility.yul\":6272:6276   */\n      0x20\n        /* \"#utility.yul\":6267:6270   */\n      dup3\n        /* \"#utility.yul\":6263:6277   */\n      add\n        /* \"#utility.yul\":6248:6277   */\n      swap1\n      pop\n        /* \"#utility.yul\":6114:6283   */\n      swap3\n      swap2\n      pop\n      pop\n      jump\t// out\n        /* \"#utility.yul\":6289:6535   */\n    tag_268:\n        /* \"#utility.yul\":6370:6371   */\n      0x00\n        /* \"#utility.yul\":6380:6493   */\n    tag_375:\n        /* \"#utility.yul\":6394:6400   */\n      dup4\n        /* \"#utility.yul\":6391:6392   */\n      dup2\n        /* \"#utility.yul\":6388:6401   */\n      lt\n        /* \"#utility.yul\":6380:6493   */\n      iszero\n      tag_377\n      jumpi\n        /* \"#utility.yul\":6479:6480   */\n      dup1\n        /* \"#utility.yul\":6474:6477   */\n      dup3\n        /* \"#utility.yul\":6470:6481   */\n      add\n        /* \"#utility.yul\":6464:6482   */\n      mload\n        /* \"#utility.yul\":6460:6461   */\n      dup2\n        /* \"#utility.yul\":6455:6458   */\n      dup5\n        /* \"#utility.yul\":6451:6462   */\n      add\n        /* \"#utility.yul\":6444:6483   */\n      mstore\n        /* \"#utility.yul\":6416:6418   */\n      0x20\n        /* \"#utility.yul\":6413:6414   */\n      dup2\n        /* \"#utility.yul\":6409:6419   */\n      add\n        /* \"#utility.yul\":6404:6419   */\n      swap1\n      pop\n        /* \"#utility.yul\":6380:6493   */\n      jump(tag_375)\n    tag_377:\n        /* \"#utility.yul\":6527:6528   */\n      0x00\n        /* \"#utility.yul\":6518:6524   */\n      dup5\n        /* \"#utility.yul\":6513:6516   */\n      dup5\n        /* \"#utility.yul\":6509:6525   */\n      add\n        /* \"#utility.yul\":6502:6529   */\n      mstore\n        /* \"#utility.yul\":6351:6535   */\n      pop\n        /* \"#utility.yul\":6289:6535   */\n      pop\n      pop\n      pop\n      jump\t// out\n        /* \"#utility.yul\":6541:6918   */\n    tag_269:\n        /* \"#utility.yul\":6629:6632   */\n      0x00\n        /* \"#utility.yul\":6657:6696   */\n      tag_379\n        /* \"#utility.yul\":6690:6695   */\n      dup3\n        /* \"#utility.yul\":6657:6696   */\n      tag_266\n      jump\t// in\n    tag_379:\n        /* \"#utility.yul\":6712:6783   */\n      tag_380\n        /* \"#utility.yul\":6776:6782   */\n      dup2\n        /* \"#utility.yul\":6771:6774   */\n      dup6\n        /* \"#utility.yul\":6712:6783   */\n      tag_267\n      jump\t// in\n    tag_380:\n        /* \"#utility.yul\":6705:6783   */\n      swap4\n      pop\n        /* \"#utility.yul\":6792:6857   */\n      tag_381\n        /* \"#utility.yul\":6850:6856   */\n      dup2\n        /* \"#utility.yul\":6845:6848   */\n      dup6\n        /* \"#utility.yul\":6838:6842   */\n      0x20\n        /* \"#utility.yul\":6831:6836   */\n      dup7\n        /* \"#utility.yul\":6827:6843   */\n      add\n        /* \"#utility.yul\":6792:6857   */\n      tag_268\n      jump\t// in\n    tag_381:\n        /* \"#utility.yul\":6882:6911   */\n      tag_382\n        /* \"#utility.yul\":6904:6910   */\n      dup2\n        /* \"#utility.yul\":6882:6911   */\n      tag_257\n      jump\t// in\n    tag_382:\n        /* \"#utility.yul\":6877:6880   */\n      dup5\n        /* \"#utility.yul\":6873:6912   */\n      add\n        /* \"#utility.yul\":6866:6912   */\n      swap2\n      pop\n        /* \"#utility.yul\":6633:6918   */\n      pop\n        /* \"#utility.yul\":6541:6918   */\n      swap3\n      swap2\n      pop\n      pop\n      jump\t// out\n        /* \"#utility.yul\":6924:7237   */\n    tag_39:\n        /* \"#utility.yul\":7037:7041   */\n      0x00\n        /* \"#utility.yul\":7075:7077   */\n      0x20\n        /* \"#utility.yul\":7064:7073   */\n      dup3\n        /* \"#utility.yul\":7060:7078   */\n      add\n        /* \"#utility.yul\":7052:7078   */\n      swap1\n      pop\n        /* \"#utility.yul\":7124:7133   */\n      dup2\n        /* \"#utility.yul\":7118:7122   */\n      dup2\n        /* \"#utility.yul\":7114:7134   */\n      sub\n        /* \"#utility.yul\":7110:7111   */\n      0x00\n        /* \"#utility.yul\":7099:7108   */\n      dup4\n        /* \"#utility.yul\":7095:7112   */\n      add\n        /* \"#utility.yul\":7088:7135   */\n      mstore\n        /* \"#utility.yul\":7152:7230   */\n      tag_384\n        /* \"#utility.yul\":7225:7229   */\n      dup2\n        /* \"#utility.yul\":7216:7222   */\n      dup5\n        /* \"#utility.yul\":7152:7230   */\n      tag_269\n      jump\t// in\n    tag_384:\n        /* \"#utility.yul\":7144:7230   */\n      swap1\n      pop\n        /* \"#utility.yul\":6924:7237   */\n      swap3\n      swap2\n      pop\n      pop\n      jump\t// out\n        /* \"#utility.yul\":7243:7361   */\n    tag_270:\n        /* \"#utility.yul\":7330:7354   */\n      tag_386\n        /* \"#utility.yul\":7348:7353   */\n      dup2\n        /* \"#utility.yul\":7330:7354   */\n      tag_248\n      jump\t// in\n    tag_386:\n        /* \"#utility.yul\":7325:7328   */\n      dup3\n        /* \"#utility.yul\":7318:7355   */\n      mstore\n        /* \"#utility.yul\":7243:7361   */\n      pop\n      pop\n      jump\t// out\n        /* \"#utility.yul\":7367:7589   */\n    tag_48:\n        /* \"#utility.yul\":7460:7464   */\n      0x00\n        /* \"#utility.yul\":7498:7500   */\n      0x20\n        /* \"#utility.yul\":7487:7496   */\n      dup3\n        /* \"#utility.yul\":7483:7501   */\n      add\n        /* \"#utility.yul\":7475:7501   */\n      swap1\n      pop\n        /* \"#utility.yul\":7511:7582   */\n      tag_388\n        /* \"#utility.yul\":7579:7580   */\n      0x00\n        /* \"#utility.yul\":7568:7577   */\n      dup4\n        /* \"#utility.yul\":7564:7581   */\n      add\n        /* \"#utility.yul\":7555:7561   */\n      dup5\n        /* \"#utility.yul\":7511:7582   */\n      tag_270\n      jump\t// in\n    tag_388:\n        /* \"#utility.yul\":7367:7589   */\n      swap3\n      swap2\n      pop\n      pop\n      jump\t// out\n        /* \"#utility.yul\":7595:8069   */\n    tag_54:\n        /* \"#utility.yul\":7663:7669   */\n      0x00\n        /* \"#utility.yul\":7671:7677   */\n      dup1\n        /* \"#utility.yul\":7720:7722   */\n      0x40\n        /* \"#utility.yul\":7708:7717   */\n      dup4\n        /* \"#utility.yul\":7699:7706   */\n      dup6\n        /* \"#utility.yul\":7695:7718   */\n      sub\n        /* \"#utility.yul\":7691:7723   */\n      slt\n        /* \"#utility.yul\":7688:7807   */\n      iszero\n      tag_390\n      jumpi\n        /* \"#utility.yul\":7726:7805   */\n      tag_391\n      tag_246\n      jump\t// in\n    tag_391:\n        /* \"#utility.yul\":7688:7807   */\n    tag_390:\n        /* \"#utility.yul\":7846:7847   */\n      0x00\n        /* \"#utility.yul\":7871:7924   */\n      tag_392\n        /* \"#utility.yul\":7916:7923   */\n      dup6\n        /* \"#utility.yul\":7907:7913   */\n      dup3\n        /* \"#utility.yul\":7896:7905   */\n      dup7\n        /* \"#utility.yul\":7892:7914   */\n      add\n        /* \"#utility.yul\":7871:7924   */\n      tag_250\n      jump\t// in\n    tag_392:\n        /* \"#utility.yul\":7861:7924   */\n      swap3\n      pop\n        /* \"#utility.yul\":7817:7934   */\n      pop\n        /* \"#utility.yul\":7973:7975   */\n      0x20\n        /* \"#utility.yul\":7999:8052   */\n      tag_393\n        /* \"#utility.yul\":8044:8051   */\n      dup6\n        /* \"#utility.yul\":8035:8041   */\n      dup3\n        /* \"#utility.yul\":8024:8033   */\n      dup7\n        /* \"#utility.yul\":8020:8042   */\n      add\n        /* \"#utility.yul\":7999:8052   */\n      tag_254\n      jump\t// in\n    tag_393:\n        /* \"#utility.yul\":7989:8052   */\n      swap2\n      pop\n        /* \"#utility.yul\":7944:8062   */\n      pop\n        /* \"#utility.yul\":7595:8069   */\n      swap3\n      pop\n      swap3\n      swap1\n      pop\n      jump\t// out\n        /* \"#utility.yul\":8075:8255   */\n    tag_271:\n        /* \"#utility.yul\":8243:8248   */\n      0x69643d0000000000000000000000000000000000000000000000000000000000\n        /* \"#utility.yul\":8238:8241   */\n      dup2\n        /* \"#utility.yul\":8231:8249   */\n      mstore\n        /* \"#utility.yul\":8075:8255   */\n      pop\n      jump\t// out\n        /* \"#utility.yul\":8261:8409   */\n    tag_272:\n        /* \"#utility.yul\":8363:8374   */\n      0x00\n        /* \"#utility.yul\":8400:8403   */\n      dup2\n        /* \"#utility.yul\":8385:8403   */\n      swap1\n      pop\n        /* \"#utility.yul\":8261:8409   */\n      swap3\n      swap2\n      pop\n      pop\n      jump\t// out\n        /* \"#utility.yul\":8415:8805   */\n    tag_273:\n        /* \"#utility.yul\":8521:8524   */\n      0x00\n        /* \"#utility.yul\":8549:8588   */\n      tag_397\n        /* \"#utility.yul\":8582:8587   */\n      dup3\n        /* \"#utility.yul\":8549:8588   */\n      tag_266\n      jump\t// in\n    tag_397:\n        /* \"#utility.yul\":8604:8693   */\n      tag_398\n        /* \"#utility.yul\":8686:8692   */\n      dup2\n        /* \"#utility.yul\":8681:8684   */\n      dup6\n        /* \"#utility.yul\":8604:8693   */\n      tag_272\n      jump\t// in\n    tag_398:\n        /* \"#utility.yul\":8597:8693   */\n      swap4\n      pop\n        /* \"#utility.yul\":8702:8767   */\n      tag_399\n        /* \"#utility.yul\":8760:8766   */\n      dup2\n        /* \"#utility.yul\":8755:8758   */\n      dup6\n        /* \"#utility.yul\":8748:8752   */\n      0x20\n        /* \"#utility.yul\":8741:8746   */\n      dup7\n        /* \"#utility.yul\":8737:8753   */\n      add\n        /* \"#utility.yul\":8702:8767   */\n      tag_268\n      jump\t// in\n    tag_399:\n        /* \"#utility.yul\":8792:8798   */\n      dup1\n        /* \"#utility.yul\":8787:8790   */\n      dup5\n        /* \"#utility.yul\":8783:8799   */\n      add\n        /* \"#utility.yul\":8776:8799   */\n      swap2\n      pop\n        /* \"#utility.yul\":8525:8805   */\n      pop\n        /* \"#utility.yul\":8415:8805   */\n      swap3\n      swap2\n      pop\n      pop\n      jump\t// out\n        /* \"#utility.yul\":8811:9350   */\n    tag_60:\n        /* \"#utility.yul\":9033:9036   */\n      0x00\n        /* \"#utility.yul\":9048:9185   */\n      tag_401\n        /* \"#utility.yul\":9181:9184   */\n      dup3\n        /* \"#utility.yul\":9048:9185   */\n      tag_271\n      jump\t// in\n    tag_401:\n        /* \"#utility.yul\":9210:9211   */\n      0x03\n        /* \"#utility.yul\":9205:9208   */\n      dup3\n        /* \"#utility.yul\":9201:9212   */\n      add\n        /* \"#utility.yul\":9194:9212   */\n      swap2\n      pop\n        /* \"#utility.yul\":9229:9324   */\n      tag_402\n        /* \"#utility.yul\":9320:9323   */\n      dup3\n        /* \"#utility.yul\":9311:9317   */\n      dup5\n        /* \"#utility.yul\":9229:9324   */\n      tag_273\n      jump\t// in\n    tag_402:\n        /* \"#utility.yul\":9222:9324   */\n      swap2\n      pop\n        /* \"#utility.yul\":9341:9344   */\n      dup2\n        /* \"#utility.yul\":9334:9344   */\n      swap1\n      pop\n        /* \"#utility.yul\":8811:9350   */\n      swap3\n      swap2\n      pop\n      pop\n      jump\t// out\n        /* \"#utility.yul\":9356:9474   */\n    tag_274:\n        /* \"#utility.yul\":9443:9467   */\n      tag_404\n        /* \"#utility.yul\":9461:9466   */\n      dup2\n        /* \"#utility.yul\":9443:9467   */\n      tag_252\n      jump\t// in\n    tag_404:\n        /* \"#utility.yul\":9438:9441   */\n      dup3\n        /* \"#utility.yul\":9431:9468   */\n      mstore\n        /* \"#utility.yul\":9356:9474   */\n      pop\n      pop\n      jump\t// out\n        /* \"#utility.yul\":9480:10013   */\n    tag_66:\n        /* \"#utility.yul\":9649:9653   */\n      0x00\n        /* \"#utility.yul\":9687:9689   */\n      0x60\n        /* \"#utility.yul\":9676:9685   */\n      dup3\n        /* \"#utility.yul\":9672:9690   */\n      add\n        /* \"#utility.yul\":9664:9690   */\n      swap1\n      pop\n        /* \"#utility.yul\":9700:9771   */\n      tag_406\n        /* \"#utility.yul\":9768:9769   */\n      0x00\n        /* \"#utility.yul\":9757:9766   */\n      dup4\n        /* \"#utility.yul\":9753:9770   */\n      add\n        /* \"#utility.yul\":9744:9750   */\n      dup7\n        /* \"#utility.yul\":9700:9771   */\n      tag_274\n      jump\t// in\n    tag_406:\n        /* \"#utility.yul\":9781:9853   */\n      tag_407\n        /* \"#utility.yul\":9849:9851   */\n      0x20\n        /* \"#utility.yul\":9838:9847   */\n      dup4\n        /* \"#utility.yul\":9834:9852   */\n      add\n        /* \"#utility.yul\":9825:9831   */\n      dup6\n        /* \"#utility.yul\":9781:9853   */\n      tag_270\n      jump\t// in\n    tag_407:\n        /* \"#utility.yul\":9900:9909   */\n      dup2\n        /* \"#utility.yul\":9894:9898   */\n      dup2\n        /* \"#utility.yul\":9890:9910   */\n      sub\n        /* \"#utility.yul\":9885:9887   */\n      0x40\n        /* \"#utility.yul\":9874:9883   */\n      dup4\n        /* \"#utility.yul\":9870:9888   */\n      add\n        /* \"#utility.yul\":9863:9911   */\n      mstore\n        /* \"#utility.yul\":9928:10006   */\n      tag_408\n        /* \"#utility.yul\":10001:10005   */\n      dup2\n        /* \"#utility.yul\":9992:9998   */\n      dup5\n        /* \"#utility.yul\":9928:10006   */\n      tag_269\n      jump\t// in\n    tag_408:\n        /* \"#utility.yul\":9920:10006   */\n      swap1\n      pop\n        /* \"#utility.yul\":9480:10013   */\n      swap5\n      swap4\n      pop\n      pop\n      pop\n      pop\n      jump\t// out\n        /* \"#utility.yul\":10019:10461   */\n    tag_74:\n        /* \"#utility.yul\":10168:10172   */\n      0x00\n        /* \"#utility.yul\":10206:10208   */\n      0x60\n        /* \"#utility.yul\":10195:10204   */\n      dup3\n        /* \"#utility.yul\":10191:10209   */\n      add\n        /* \"#utility.yul\":10183:10209   */\n      swap1\n      pop\n        /* \"#utility.yul\":10219:10290   */\n      tag_410\n        /* \"#utility.yul\":10287:10288   */\n      0x00\n        /* \"#utility.yul\":10276:10285   */\n      dup4\n        /* \"#utility.yul\":10272:10289   */\n      add\n        /* \"#utility.yul\":10263:10269   */\n      dup7\n        /* \"#utility.yul\":10219:10290   */\n      tag_274\n      jump\t// in\n    tag_410:\n        /* \"#utility.yul\":10300:10372   */\n      tag_411\n        /* \"#utility.yul\":10368:10370   */\n      0x20\n        /* \"#utility.yul\":10357:10366   */\n      dup4\n        /* \"#utility.yul\":10353:10371   */\n      add\n        /* \"#utility.yul\":10344:10350   */\n      dup6\n        /* \"#utility.yul\":10300:10372   */\n      tag_270\n      jump\t// in\n    tag_411:\n        /* \"#utility.yul\":10382:10454   */\n      tag_412\n        /* \"#utility.yul\":10450:10452   */\n      0x40\n        /* \"#utility.yul\":10439:10448   */\n      dup4\n        /* \"#utility.yul\":10435:10453   */\n      add\n        /* \"#utility.yul\":10426:10432   */\n      dup5\n        /* \"#utility.yul\":10382:10454   */\n      tag_274\n      jump\t// in\n    tag_412:\n        /* \"#utility.yul\":10019:10461   */\n      swap5\n      swap4\n      pop\n      pop\n      pop\n      pop\n      jump\t// out\n        /* \"#utility.yul\":10467:10647   */\n    tag_275:\n        /* \"#utility.yul\":10515:10592   */\n      0x4e487b7100000000000000000000000000000000000000000000000000000000\n        /* \"#utility.yul\":10512:10513   */\n      0x00\n        /* \"#utility.yul\":10505:10593   */\n      mstore\n        /* \"#utility.yul\":10612:10616   */\n      0x11\n        /* \"#utility.yul\":10609:10610   */\n      0x04\n        /* \"#utility.yul\":10602:10617   */\n      mstore\n        /* \"#utility.yul\":10636:10640   */\n      0x24\n        /* \"#utility.yul\":10633:10634   */\n      0x00\n        /* \"#utility.yul\":10626:10641   */\n      revert\n        /* \"#utility.yul\":10653:10886   */\n    tag_86:\n        /* \"#utility.yul\":10692:10695   */\n      0x00\n        /* \"#utility.yul\":10715:10739   */\n      tag_415\n        /* \"#utility.yul\":10733:10738   */\n      dup3\n        /* \"#utility.yul\":10715:10739   */\n      tag_248\n      jump\t// in\n    tag_415:\n        /* \"#utility.yul\":10706:10739   */\n      swap2\n      pop\n        /* \"#utility.yul\":10761:10827   */\n      0xffffffffffffffffffffffffffffffffffffffffffffffffffffffffffffffff\n        /* \"#utility.yul\":10754:10759   */\n      dup3\n        /* \"#utility.yul\":10751:10828   */\n      sub\n        /* \"#utility.yul\":10748:10851   */\n      tag_416\n      jumpi\n        /* \"#utility.yul\":10831:10849   */\n      tag_417\n      tag_275\n      jump\t// in\n    tag_417:\n        /* \"#utility.yul\":10748:10851   */\n    tag_416:\n        /* \"#utility.yul\":10878:10879   */\n      0x01\n        /* \"#utility.yul\":10871:10876   */\n      dup3\n        /* \"#utility.yul\":10867:10880   */\n      add\n        /* \"#utility.yul\":10860:10880   */\n      swap1\n      pop\n        /* \"#utility.yul\":10653:10886   */\n      swap2\n      swap1\n      pop\n      jump\t// out\n        /* \"#utility.yul\":10892:11070   */\n    tag_276:\n        /* \"#utility.yul\":11060:11063   */\n      0x2c00000000000000000000000000000000000000000000000000000000000000\n        /* \"#utility.yul\":11055:11058   */\n      dup2\n        /* \"#utility.yul\":11048:11064   */\n      mstore\n        /* \"#utility.yul\":10892:11070   */\n      pop\n      jump\t// out\n        /* \"#utility.yul\":11076:12199   */\n    tag_91:\n        /* \"#utility.yul\":11484:11487   */\n      0x00\n        /* \"#utility.yul\":11506:11601   */\n      tag_420\n        /* \"#utility.yul\":11597:11600   */\n      dup3\n        /* \"#utility.yul\":11588:11594   */\n      dup7\n        /* \"#utility.yul\":11506:11601   */\n      tag_273\n      jump\t// in\n    tag_420:\n        /* \"#utility.yul\":11499:11601   */\n      swap2\n      pop\n        /* \"#utility.yul\":11611:11748   */\n      tag_421\n        /* \"#utility.yul\":11744:11747   */\n      dup3\n        /* \"#utility.yul\":11611:11748   */\n      tag_276\n      jump\t// in\n    tag_421:\n        /* \"#utility.yul\":11773:11774   */\n      0x01\n        /* \"#utility.yul\":11768:11771   */\n      dup3\n        /* \"#utility.yul\":11764:11775   */\n      add\n        /* \"#utility.yul\":11757:11775   */\n      swap2\n      pop\n        /* \"#utility.yul\":11792:11887   */\n      tag_422\n        /* \"#utility.yul\":11883:11886   */\n      dup3\n        /* \"#utility.yul\":11874:11880   */\n      dup6\n        /* \"#utility.yul\":11792:11887   */\n      tag_273\n      jump\t// in\n    tag_422:\n        /* \"#utility.yul\":11785:11887   */\n      swap2\n      pop\n        /* \"#utility.yul\":11897:12034   */\n      tag_423\n        /* \"#utility.yul\":12030:12033   */\n      dup3\n        /* \"#utility.yul\":11897:12034   */\n      tag_276\n      jump\t// in\n    tag_423:\n        /* \"#utility.yul\":12059:12060   */\n      0x01\n        /* \"#utility.yul\":12054:12057   */\n      dup3\n        /* \"#utility.yul\":12050:12061   */\n      add\n        /* \"#utility.yul\":12043:12061   */\n      swap2\n      pop\n        /* \"#utility.yul\":12078:12173   */\n      tag_424\n        /* \"#utility.yul\":12169:12172   */\n      dup3\n        /* \"#utility.yul\":12160:12166   */\n      dup5\n        /* \"#utility.yul\":12078:12173   */\n      tag_273\n      jump\t// in\n    tag_424:\n        /* \"#utility.yul\":12071:12173   */\n      swap2\n      pop\n        /* \"#utility.yul\":12190:12193   */\n      dup2\n        /* \"#utility.yul\":12183:12193   */\n      swap1\n      pop\n        /* \"#utility.yul\":11076:12199   */\n      swap5\n      swap4\n      pop\n      pop\n      pop\n      pop\n      jump\t// out\n        /* \"#utility.yul\":12205:12628   */\n    tag_109:\n        /* \"#utility.yul\":12346:12350   */\n      0x00\n        /* \"#utility.yul\":12384:12386   */\n      0x40\n        /* \"#utility.yul\":12373:12382   */\n      dup3\n        /* \"#utility.yul\":12369:12387   */\n      add\n        /* \"#utility.yul\":12361:12387   */\n      swap1\n      pop\n        /* \"#utility.yul\":12397:12468   */\n      tag_426\n        /* \"#utility.yul\":12465:12466   */\n      0x00\n        /* \"#utility.yul\":12454:12463   */\n      dup4\n        /* \"#utility.yul\":12450:12467   */\n      add\n        /* \"#utility.yul\":12441:12447   */\n      dup6\n        /* \"#utility.yul\":12397:12468   */\n      tag_274\n      jump\t// in\n    tag_426:\n        /* \"#utility.yul\":12515:12524   */\n      dup2\n        /* \"#utility.yul\":12509:12513   */\n      dup2\n        /* \"#utility.yul\":12505:12525   */\n      sub\n        /* \"#utility.yul\":12500:12502   */\n      0x20\n        /* \"#utility.yul\":12489:12498   */\n      dup4\n        /* \"#utility.yul\":12485:12503   */\n      add\n        /* \"#utility.yul\":12478:12526   */\n      mstore\n        /* \"#utility.yul\":12543:12621   */\n      tag_427\n        /* \"#utility.yul\":12616:12620   */\n      dup2\n        /* \"#utility.yul\":12607:12613   */\n      dup5\n        /* \"#utility.yul\":12543:12621   */\n      tag_269\n      jump\t// in\n    tag_427:\n        /* \"#utility.yul\":12535:12621   */\n      swap1\n      pop\n        /* \"#utility.yul\":12205:12628   */\n      swap4\n      swap3\n      pop\n      pop\n      pop\n      jump\t// out\n        /* \"#utility.yul\":12634:12777   */\n    tag_277:\n        /* \"#utility.yul\":12691:12696   */\n      0x00\n        /* \"#utility.yul\":12722:12728   */\n      dup2\n        /* \"#utility.yul\":12716:12729   */\n      mload\n        /* \"#utility.yul\":12707:12729   */\n      swap1\n      pop\n        /* \"#utility.yul\":12738:12771   */\n      tag_429\n        /* \"#utility.yul\":12765:12770   */\n      dup2\n        /* \"#utility.yul\":12738:12771   */\n      tag_249\n      jump\t// in\n    tag_429:\n        /* \"#utility.yul\":12634:12777   */\n      swap3\n      swap2\n      pop\n      pop\n      jump\t// out\n        /* \"#utility.yul\":12783:13134   */\n    tag_113:\n        /* \"#utility.yul\":12853:12859   */\n      0x00\n        /* \"#utility.yul\":12902:12904   */\n      0x20\n        /* \"#utility.yul\":12890:12899   */\n      dup3\n        /* \"#utility.yul\":12881:12888   */\n      dup5\n        /* \"#utility.yul\":12877:12900   */\n      sub\n        /* \"#utility.yul\":12873:12905   */\n      slt\n        /* \"#utility.yul\":12870:12989   */\n      iszero\n      tag_431\n      jumpi\n        /* \"#utility.yul\":12908:12987   */\n      tag_432\n      tag_246\n      jump\t// in\n    tag_432:\n        /* \"#utility.yul\":12870:12989   */\n    tag_431:\n        /* \"#utility.yul\":13028:13029   */\n      0x00\n        /* \"#utility.yul\":13053:13117   */\n      tag_433\n        /* \"#utility.yul\":13109:13116   */\n      dup5\n        /* \"#utility.yul\":13100:13106   */\n      dup3\n        /* \"#utility.yul\":13089:13098   */\n      dup6\n        /* \"#utility.yul\":13085:13107   */\n      add\n        /* \"#utility.yul\":13053:13117   */\n      tag_277\n      jump\t// in\n    tag_433:\n        /* \"#utility.yul\":13043:13117   */\n      swap2\n      pop\n        /* \"#utility.yul\":12999:13127   */\n      pop\n        /* \"#utility.yul\":12783:13134   */\n      swap3\n      swap2\n      pop\n      pop\n      jump\t// out\n        /* \"#utility.yul\":13140:13325   */\n    tag_278:\n        /* \"#utility.yul\":13308:13318   */\n      0x67726f757049643d000000000000000000000000000000000000000000000000\n        /* \"#utility.yul\":13303:13306   */\n      dup2\n        /* \"#utility.yul\":13296:13319   */\n      mstore\n        /* \"#utility.yul\":13140:13325   */\n      pop\n      jump\t// out\n        /* \"#utility.yul\":13331:13870   */\n    tag_118:\n        /* \"#utility.yul\":13553:13556   */\n      0x00\n        /* \"#utility.yul\":13568:13705   */\n      tag_436\n        /* \"#utility.yul\":13701:13704   */\n      dup3\n        /* \"#utility.yul\":13568:13705   */\n      tag_278\n      jump\t// in\n    tag_436:\n        /* \"#utility.yul\":13730:13731   */\n      0x08\n        /* \"#utility.yul\":13725:13728   */\n      dup3\n        /* \"#utility.yul\":13721:13732   */\n      add\n        /* \"#utility.yul\":13714:13732   */\n      swap2\n      pop\n        /* \"#utility.yul\":13749:13844   */\n      tag_437\n        /* \"#utility.yul\":13840:13843   */\n      dup3\n        /* \"#utility.yul\":13831:13837   */\n      dup5\n        /* \"#utility.yul\":13749:13844   */\n      tag_273\n      jump\t// in\n    tag_437:\n        /* \"#utility.yul\":13742:13844   */\n      swap2\n      pop\n        /* \"#utility.yul\":13861:13864   */\n      dup2\n        /* \"#utility.yul\":13854:13864   */\n      swap1\n      pop\n        /* \"#utility.yul\":13331:13870   */\n      swap3\n      swap2\n      pop\n      pop\n      jump\t// out\n        /* \"#utility.yul\":13876:14056   */\n    tag_139:\n        /* \"#utility.yul\":13924:14001   */\n      0x4e487b7100000000000000000000000000000000000000000000000000000000\n        /* \"#utility.yul\":13921:13922   */\n      0x00\n        /* \"#utility.yul\":13914:14002   */\n      mstore\n        /* \"#utility.yul\":14021:14025   */\n      0x12\n        /* \"#utility.yul\":14018:14019   */\n      0x04\n        /* \"#utility.yul\":14011:14026   */\n      mstore\n        /* \"#utility.yul\":14045:14049   */\n      0x24\n        /* \"#utility.yul\":14042:14043   */\n      0x00\n        /* \"#utility.yul\":14035:14050   */\n      revert\n        /* \"#utility.yul\":14062:14224   */\n    tag_279:\n        /* \"#utility.yul\":14202:14216   */\n      0x44454c4554452046524f4d200000000000000000000000000000000000000000\n        /* \"#utility.yul\":14198:14199   */\n      0x00\n        /* \"#utility.yul\":14190:14196   */\n      dup3\n        /* \"#utility.yul\":14186:14200   */\n      add\n        /* \"#utility.yul\":14179:14217   */\n      mstore\n        /* \"#utility.yul\":14062:14224   */\n      pop\n      jump\t// out\n        /* \"#utility.yul\":14230:14632   */\n    tag_280:\n        /* \"#utility.yul\":14390:14393   */\n      0x00\n        /* \"#utility.yul\":14411:14496   */\n      tag_441\n        /* \"#utility.yul\":14493:14495   */\n      0x0c\n        /* \"#utility.yul\":14488:14491   */\n      dup4\n        /* \"#utility.yul\":14411:14496   */\n      tag_272\n      jump\t// in\n    tag_441:\n        /* \"#utility.yul\":14404:14496   */\n      swap2\n      pop\n        /* \"#utility.yul\":14505:14598   */\n      tag_442\n        /* \"#utility.yul\":14594:14597   */\n      dup3\n        /* \"#utility.yul\":14505:14598   */\n      tag_279\n      jump\t// in\n    tag_442:\n        /* \"#utility.yul\":14623:14625   */\n      0x0c\n        /* \"#utility.yul\":14618:14621   */\n      dup3\n        /* \"#utility.yul\":14614:14626   */\n      add\n        /* \"#utility.yul\":14607:14626   */\n      swap1\n      pop\n        /* \"#utility.yul\":14230:14632   */\n      swap2\n      swap1\n      pop\n      jump\t// out\n        /* \"#utility.yul\":14638:14795   */\n    tag_281:\n        /* \"#utility.yul\":14778:14787   */\n      0x2057484552452000000000000000000000000000000000000000000000000000\n        /* \"#utility.yul\":14774:14775   */\n      0x00\n        /* \"#utility.yul\":14766:14772   */\n      dup3\n        /* \"#utility.yul\":14762:14776   */\n      add\n        /* \"#utility.yul\":14755:14788   */\n      mstore\n        /* \"#utility.yul\":14638:14795   */\n      pop\n      jump\t// out\n        /* \"#utility.yul\":14801:15201   */\n    tag_282:\n        /* \"#utility.yul\":14961:14964   */\n      0x00\n        /* \"#utility.yul\":14982:15066   */\n      tag_445\n        /* \"#utility.yul\":15064:15065   */\n      0x07\n        /* \"#utility.yul\":15059:15062   */\n      dup4\n        /* \"#utility.yul\":14982:15066   */\n      tag_272\n      jump\t// in\n    tag_445:\n        /* \"#utility.yul\":14975:15066   */\n      swap2\n      pop\n        /* \"#utility.yul\":15075:15168   */\n      tag_446\n        /* \"#utility.yul\":15164:15167   */\n      dup3\n        /* \"#utility.yul\":15075:15168   */\n      tag_281\n      jump\t// in\n    tag_446:\n        /* \"#utility.yul\":15193:15194   */\n      0x07\n        /* \"#utility.yul\":15188:15191   */\n      dup3\n        /* \"#utility.yul\":15184:15195   */\n      add\n        /* \"#utility.yul\":15177:15195   */\n      swap1\n      pop\n        /* \"#utility.yul\":14801:15201   */\n      swap2\n      swap1\n      pop\n      jump\t// out\n        /* \"#utility.yul\":15207:16174   */\n    tag_172:\n        /* \"#utility.yul\":15589:15592   */\n      0x00\n        /* \"#utility.yul\":15611:15759   */\n      tag_448\n        /* \"#utility.yul\":15755:15758   */\n      dup3\n        /* \"#utility.yul\":15611:15759   */\n      tag_280\n      jump\t// in\n    tag_448:\n        /* \"#utility.yul\":15604:15759   */\n      swap2\n      pop\n        /* \"#utility.yul\":15776:15871   */\n      tag_449\n        /* \"#utility.yul\":15867:15870   */\n      dup3\n        /* \"#utility.yul\":15858:15864   */\n      dup6\n        /* \"#utility.yul\":15776:15871   */\n      tag_273\n      jump\t// in\n    tag_449:\n        /* \"#utility.yul\":15769:15871   */\n      swap2\n      pop\n        /* \"#utility.yul\":15888:16036   */\n      tag_450\n        /* \"#utility.yul\":16032:16035   */\n      dup3\n        /* \"#utility.yul\":15888:16036   */\n      tag_282\n      jump\t// in\n    tag_450:\n        /* \"#utility.yul\":15881:16036   */\n      swap2\n      pop\n        /* \"#utility.yul\":16053:16148   */\n      tag_451\n        /* \"#utility.yul\":16144:16147   */\n      dup3\n        /* \"#utility.yul\":16135:16141   */\n      dup5\n        /* \"#utility.yul\":16053:16148   */\n      tag_273\n      jump\t// in\n    tag_451:\n        /* \"#utility.yul\":16046:16148   */\n      swap2\n      pop\n        /* \"#utility.yul\":16165:16168   */\n      dup2\n        /* \"#utility.yul\":16158:16168   */\n      swap1\n      pop\n        /* \"#utility.yul\":15207:16174   */\n      swap4\n      swap3\n      pop\n      pop\n      pop\n      jump\t// out\n        /* \"#utility.yul\":16180:16331   */\n    tag_283:\n        /* \"#utility.yul\":16320:16323   */\n      0x2700000000000000000000000000000000000000000000000000000000000000\n        /* \"#utility.yul\":16316:16317   */\n      0x00\n        /* \"#utility.yul\":16308:16314   */\n      dup3\n        /* \"#utility.yul\":16304:16318   */\n      add\n        /* \"#utility.yul\":16297:16324   */\n      mstore\n        /* \"#utility.yul\":16180:16331   */\n      pop\n      jump\t// out\n        /* \"#utility.yul\":16337:16737   */\n    tag_284:\n        /* \"#utility.yul\":16497:16500   */\n      0x00\n        /* \"#utility.yul\":16518:16602   */\n      tag_454\n        /* \"#utility.yul\":16600:16601   */\n      0x01\n        /* \"#utility.yul\":16595:16598   */\n      dup4\n        /* \"#utility.yul\":16518:16602   */\n      tag_272\n      jump\t// in\n    tag_454:\n        /* \"#utility.yul\":16511:16602   */\n      swap2\n      pop\n        /* \"#utility.yul\":16611:16704   */\n      tag_455\n        /* \"#utility.yul\":16700:16703   */\n      dup3\n        /* \"#utility.yul\":16611:16704   */\n      tag_283\n      jump\t// in\n    tag_455:\n        /* \"#utility.yul\":16729:16730   */\n      0x01\n        /* \"#utility.yul\":16724:16727   */\n      dup3\n        /* \"#utility.yul\":16720:16731   */\n      add\n        /* \"#utility.yul\":16713:16731   */\n      swap1\n      pop\n        /* \"#utility.yul\":16337:16737   */\n      swap2\n      swap1\n      pop\n      jump\t// out\n        /* \"#utility.yul\":16743:17550   */\n    tag_177:\n        /* \"#utility.yul\":17077:17080   */\n      0x00\n        /* \"#utility.yul\":17099:17247   */\n      tag_457\n        /* \"#utility.yul\":17243:17246   */\n      dup3\n        /* \"#utility.yul\":17099:17247   */\n      tag_284\n      jump\t// in\n    tag_457:\n        /* \"#utility.yul\":17092:17247   */\n      swap2\n      pop\n        /* \"#utility.yul\":17264:17359   */\n      tag_458\n        /* \"#utility.yul\":17355:17358   */\n      dup3\n        /* \"#utility.yul\":17346:17352   */\n      dup5\n        /* \"#utility.yul\":17264:17359   */\n      tag_273\n      jump\t// in\n    tag_458:\n        /* \"#utility.yul\":17257:17359   */\n      swap2\n      pop\n        /* \"#utility.yul\":17376:17524   */\n      tag_459\n        /* \"#utility.yul\":17520:17523   */\n      dup3\n        /* \"#utility.yul\":17376:17524   */\n      tag_284\n      jump\t// in\n    tag_459:\n        /* \"#utility.yul\":17369:17524   */\n      swap2\n      pop\n        /* \"#utility.yul\":17541:17544   */\n      dup2\n        /* \"#utility.yul\":17534:17544   */\n      swap1\n      pop\n        /* \"#utility.yul\":16743:17550   */\n      swap3\n      swap2\n      pop\n      pop\n      jump\t// out\n        /* \"#utility.yul\":17556:17718   */\n    tag_285:\n        /* \"#utility.yul\":17696:17710   */\n      0x494e5345525420494e544f200000000000000000000000000000000000000000\n        /* \"#utility.yul\":17692:17693   */\n      0x00\n        /* \"#utility.yul\":17684:17690   */\n      dup3\n        /* \"#utility.yul\":17680:17694   */\n      add\n        /* \"#utility.yul\":17673:17711   */\n      mstore\n        /* \"#utility.yul\":17556:17718   */\n      pop\n      jump\t// out\n        /* \"#utility.yul\":17724:18126   */\n    tag_286:\n        /* \"#utility.yul\":17884:17887   */\n      0x00\n        /* \"#utility.yul\":17905:17990   */\n      tag_462\n        /* \"#utility.yul\":17987:17989   */\n      0x0c\n        /* \"#utility.yul\":17982:17985   */\n      dup4\n        /* \"#utility.yul\":17905:17990   */\n      tag_272\n      jump\t// in\n    tag_462:\n        /* \"#utility.yul\":17898:17990   */\n      swap2\n      pop\n        /* \"#utility.yul\":17999:18092   */\n      tag_463\n        /* \"#utility.yul\":18088:18091   */\n      dup3\n        /* \"#utility.yul\":17999:18092   */\n      tag_285\n      jump\t// in\n    tag_463:\n        /* \"#utility.yul\":18117:18119   */\n      0x0c\n        /* \"#utility.yul\":18112:18115   */\n      dup3\n        /* \"#utility.yul\":18108:18120   */\n      add\n        /* \"#utility.yul\":18101:18120   */\n      swap1\n      pop\n        /* \"#utility.yul\":17724:18126   */\n      swap2\n      swap1\n      pop\n      jump\t// out\n        /* \"#utility.yul\":18132:18287   */\n    tag_287:\n        /* \"#utility.yul\":18272:18275   */\n      0x2800000000000000000000000000000000000000000000000000000000000000\n        /* \"#utility.yul\":18268:18269   */\n      0x00\n        /* \"#utility.yul\":18260:18266   */\n      dup3\n        /* \"#utility.yul\":18256:18270   */\n      add\n        /* \"#utility.yul\":18249:18276   */\n      mstore\n        /* \"#utility.yul\":18132:18287   */\n      pop\n      jump\t// out\n        /* \"#utility.yul\":18297:18713   */\n    tag_288:\n        /* \"#utility.yul\":18457:18460   */\n      0x00\n        /* \"#utility.yul\":18482:18566   */\n      tag_466\n        /* \"#utility.yul\":18564:18565   */\n      0x01\n        /* \"#utility.yul\":18559:18562   */\n      dup4\n        /* \"#utility.yul\":18482:18566   */\n      tag_272\n      jump\t// in\n    tag_466:\n        /* \"#utility.yul\":18475:18566   */\n      swap2\n      pop\n        /* \"#utility.yul\":18579:18672   */\n      tag_467\n        /* \"#utility.yul\":18668:18671   */\n      dup3\n        /* \"#utility.yul\":18579:18672   */\n      tag_287\n      jump\t// in\n    tag_467:\n        /* \"#utility.yul\":18701:18702   */\n      0x01\n        /* \"#utility.yul\":18696:18699   */\n      dup3\n        /* \"#utility.yul\":18692:18703   */\n      add\n        /* \"#utility.yul\":18685:18703   */\n      swap1\n      pop\n        /* \"#utility.yul\":18297:18713   */\n      swap2\n      swap1\n      pop\n      jump\t// out\n        /* \"#utility.yul\":18723:18889   */\n    tag_289:\n        /* \"#utility.yul\":18867:18877   */\n      0x2956414c55455328000000000000000000000000000000000000000000000000\n        /* \"#utility.yul\":18863:18864   */\n      0x00\n        /* \"#utility.yul\":18855:18861   */\n      dup3\n        /* \"#utility.yul\":18851:18865   */\n      add\n        /* \"#utility.yul\":18844:18878   */\n      mstore\n        /* \"#utility.yul\":18723:18889   */\n      pop\n      jump\t// out\n        /* \"#utility.yul\":18899:19315   */\n    tag_290:\n        /* \"#utility.yul\":19059:19062   */\n      0x00\n        /* \"#utility.yul\":19084:19168   */\n      tag_470\n        /* \"#utility.yul\":19166:19167   */\n      0x08\n        /* \"#utility.yul\":19161:19164   */\n      dup4\n        /* \"#utility.yul\":19084:19168   */\n      tag_272\n      jump\t// in\n    tag_470:\n        /* \"#utility.yul\":19077:19168   */\n      swap2\n      pop\n        /* \"#utility.yul\":19181:19274   */\n      tag_471\n        /* \"#utility.yul\":19270:19273   */\n      dup3\n        /* \"#utility.yul\":19181:19274   */\n      tag_289\n      jump\t// in\n    tag_471:\n        /* \"#utility.yul\":19303:19304   */\n      0x08\n        /* \"#utility.yul\":19298:19301   */\n      dup3\n        /* \"#utility.yul\":19294:19305   */\n      add\n        /* \"#utility.yul\":19287:19305   */\n      swap1\n      pop\n        /* \"#utility.yul\":18899:19315   */\n      swap2\n      swap1\n      pop\n      jump\t// out\n        /* \"#utility.yul\":19325:19476   */\n    tag_291:\n        /* \"#utility.yul\":19465:19468   */\n      0x2900000000000000000000000000000000000000000000000000000000000000\n        /* \"#utility.yul\":19461:19462   */\n      0x00\n        /* \"#utility.yul\":19453:19459   */\n      dup3\n        /* \"#utility.yul\":19449:19463   */\n      add\n        /* \"#utility.yul\":19442:19469   */\n      mstore\n        /* \"#utility.yul\":19325:19476   */\n      pop\n      jump\t// out\n        /* \"#utility.yul\":19482:19882   */\n    tag_292:\n        /* \"#utility.yul\":19642:19645   */\n      0x00\n        /* \"#utility.yul\":19663:19747   */\n      tag_474\n        /* \"#utility.yul\":19745:19746   */\n      0x01\n        /* \"#utility.yul\":19740:19743   */\n      dup4\n        /* \"#utility.yul\":19663:19747   */\n      tag_272\n      jump\t// in\n    tag_474:\n        /* \"#utility.yul\":19656:19747   */\n      swap2\n      pop\n        /* \"#utility.yul\":19756:19849   */\n      tag_475\n        /* \"#utility.yul\":19845:19848   */\n      dup3\n        /* \"#utility.yul\":19756:19849   */\n      tag_291\n      jump\t// in\n    tag_475:\n        /* \"#utility.yul\":19874:19875   */\n      0x01\n        /* \"#utility.yul\":19869:19872   */\n      dup3\n        /* \"#utility.yul\":19865:19876   */\n      add\n        /* \"#utility.yul\":19858:19876   */\n      swap1\n      pop\n        /* \"#utility.yul\":19482:19882   */\n      swap2\n      swap1\n      pop\n      jump\t// out\n        /* \"#utility.yul\":19888:21547   */\n    tag_181:\n        /* \"#utility.yul\":20520:20523   */\n      0x00\n        /* \"#utility.yul\":20542:20690   */\n      tag_477\n        /* \"#utility.yul\":20686:20689   */\n      dup3\n        /* \"#utility.yul\":20542:20690   */\n      tag_286\n      jump\t// in\n    tag_477:\n        /* \"#utility.yul\":20535:20690   */\n      swap2\n      pop\n        /* \"#utility.yul\":20707:20802   */\n      tag_478\n        /* \"#utility.yul\":20798:20801   */\n      dup3\n        /* \"#utility.yul\":20789:20795   */\n      dup7\n        /* \"#utility.yul\":20707:20802   */\n      tag_273\n      jump\t// in\n    tag_478:\n        /* \"#utility.yul\":20700:20802   */\n      swap2\n      pop\n        /* \"#utility.yul\":20819:20967   */\n      tag_479\n        /* \"#utility.yul\":20963:20966   */\n      dup3\n        /* \"#utility.yul\":20819:20967   */\n      tag_288\n      jump\t// in\n    tag_479:\n        /* \"#utility.yul\":20812:20967   */\n      swap2\n      pop\n        /* \"#utility.yul\":20984:21079   */\n      tag_480\n        /* \"#utility.yul\":21075:21078   */\n      dup3\n        /* \"#utility.yul\":21066:21072   */\n      dup6\n        /* \"#utility.yul\":20984:21079   */\n      tag_273\n      jump\t// in\n    tag_480:\n        /* \"#utility.yul\":20977:21079   */\n      swap2\n      pop\n        /* \"#utility.yul\":21096:21244   */\n      tag_481\n        /* \"#utility.yul\":21240:21243   */\n      dup3\n        /* \"#utility.yul\":21096:21244   */\n      tag_290\n      jump\t// in\n    tag_481:\n        /* \"#utility.yul\":21089:21244   */\n      swap2\n      pop\n        /* \"#utility.yul\":21261:21356   */\n      tag_482\n        /* \"#utility.yul\":21352:21355   */\n      dup3\n        /* \"#utility.yul\":21343:21349   */\n      dup5\n        /* \"#utility.yul\":21261:21356   */\n      tag_273\n      jump\t// in\n    tag_482:\n        /* \"#utility.yul\":21254:21356   */\n      swap2\n      pop\n        /* \"#utility.yul\":21373:21521   */\n      tag_483\n        /* \"#utility.yul\":21517:21520   */\n      dup3\n        /* \"#utility.yul\":21373:21521   */\n      tag_292\n      jump\t// in\n    tag_483:\n        /* \"#utility.yul\":21366:21521   */\n      swap2\n      pop\n        /* \"#utility.yul\":21538:21541   */\n      dup2\n        /* \"#utility.yul\":21531:21541   */\n      swap1\n      pop\n        /* \"#utility.yul\":19888:21547   */\n      swap5\n      swap4\n      pop\n      pop\n      pop\n      pop\n      jump\t// out\n        /* \"#utility.yul\":21553:21963   */\n    tag_184:\n        /* \"#utility.yul\":21593:21600   */\n      0x00\n        /* \"#utility.yul\":21616:21636   */\n      tag_485\n        /* \"#utility.yul\":21634:21635   */\n      dup3\n        /* \"#utility.yul\":21616:21636   */\n      tag_248\n      jump\t// in\n    tag_485:\n        /* \"#utility.yul\":21611:21636   */\n      swap2\n      pop\n        /* \"#utility.yul\":21650:21670   */\n      tag_486\n        /* \"#utility.yul\":21668:21669   */\n      dup4\n        /* \"#utility.yul\":21650:21670   */\n      tag_248\n      jump\t// in\n    tag_486:\n        /* \"#utility.yul\":21645:21670   */\n      swap3\n      pop\n        /* \"#utility.yul\":21705:21706   */\n      dup3\n        /* \"#utility.yul\":21702:21703   */\n      dup3\n        /* \"#utility.yul\":21698:21707   */\n      mul\n        /* \"#utility.yul\":21727:21757   */\n      tag_487\n        /* \"#utility.yul\":21745:21756   */\n      dup2\n        /* \"#utility.yul\":21727:21757   */\n      tag_248\n      jump\t// in\n    tag_487:\n        /* \"#utility.yul\":21716:21757   */\n      swap2\n      pop\n        /* \"#utility.yul\":21906:21907   */\n      dup3\n        /* \"#utility.yul\":21897:21904   */\n      dup3\n        /* \"#utility.yul\":21893:21908   */\n      div\n        /* \"#utility.yul\":21890:21891   */\n      dup5\n        /* \"#utility.yul\":21887:21909   */\n      eq\n        /* \"#utility.yul\":21867:21868   */\n      dup4\n        /* \"#utility.yul\":21860:21869   */\n      iszero\n        /* \"#utility.yul\":21840:21923   */\n      or\n        /* \"#utility.yul\":21817:21956   */\n      tag_488\n      jumpi\n        /* \"#utility.yul\":21936:21954   */\n      tag_489\n      tag_275\n      jump\t// in\n    tag_489:\n        /* \"#utility.yul\":21817:21956   */\n    tag_488:\n        /* \"#utility.yul\":21601:21963   */\n      pop\n        /* \"#utility.yul\":21553:21963   */\n      swap3\n      swap2\n      pop\n      pop\n      jump\t// out\n        /* \"#utility.yul\":21969:22160   */\n    tag_186:\n        /* \"#utility.yul\":22009:22012   */\n      0x00\n        /* \"#utility.yul\":22028:22048   */\n      tag_491\n        /* \"#utility.yul\":22046:22047   */\n      dup3\n        /* \"#utility.yul\":22028:22048   */\n      tag_248\n      jump\t// in\n    tag_491:\n        /* \"#utility.yul\":22023:22048   */\n      swap2\n      pop\n        /* \"#utility.yul\":22062:22082   */\n      tag_492\n        /* \"#utility.yul\":22080:22081   */\n      dup4\n        /* \"#utility.yul\":22062:22082   */\n      tag_248\n      jump\t// in\n    tag_492:\n        /* \"#utility.yul\":22057:22082   */\n      swap3\n      pop\n        /* \"#utility.yul\":22105:22106   */\n      dup3\n        /* \"#utility.yul\":22102:22103   */\n      dup3\n        /* \"#utility.yul\":22098:22107   */\n      add\n        /* \"#utility.yul\":22091:22107   */\n      swap1\n      pop\n        /* \"#utility.yul\":22126:22129   */\n      dup1\n        /* \"#utility.yul\":22123:22124   */\n      dup3\n        /* \"#utility.yul\":22120:22130   */\n      gt\n        /* \"#utility.yul\":22117:22153   */\n      iszero\n      tag_493\n      jumpi\n        /* \"#utility.yul\":22133:22151   */\n      tag_494\n      tag_275\n      jump\t// in\n    tag_494:\n        /* \"#utility.yul\":22117:22153   */\n    tag_493:\n        /* \"#utility.yul\":21969:22160   */\n      swap3\n      swap2\n      pop\n      pop\n      jump\t// out\n        /* \"#utility.yul\":22166:22346   */\n    tag_192:\n        /* \"#utility.yul\":22214:22291   */\n      0x4e487b7100000000000000000000000000000000000000000000000000000000\n        /* \"#utility.yul\":22211:22212   */\n      0x00\n        /* \"#utility.yul\":22204:22292   */\n      mstore\n        /* \"#utility.yul\":22311:22315   */\n      0x32\n        /* \"#utility.yul\":22308:22309   */\n      0x04\n        /* \"#utility.yul\":22301:22316   */\n      mstore\n        /* \"#utility.yul\":22335:22339   */\n      0x24\n        /* \"#utility.yul\":22332:22333   */\n      0x00\n        /* \"#utility.yul\":22325:22340   */\n      revert\n        /* \"#utility.yul\":22352:22523   */\n    tag_205:\n        /* \"#utility.yul\":22391:22394   */\n      0x00\n        /* \"#utility.yul\":22414:22438   */\n      tag_497\n        /* \"#utility.yul\":22432:22437   */\n      dup3\n        /* \"#utility.yul\":22414:22438   */\n      tag_248\n      jump\t// in\n    tag_497:\n        /* \"#utility.yul\":22405:22438   */\n      swap2\n      pop\n        /* \"#utility.yul\":22460:22464   */\n      0x00\n        /* \"#utility.yul\":22453:22458   */\n      dup3\n        /* \"#utility.yul\":22450:22465   */\n      sub\n        /* \"#utility.yul\":22447:22488   */\n      tag_498\n      jumpi\n        /* \"#utility.yul\":22468:22486   */\n      tag_499\n      tag_275\n      jump\t// in\n    tag_499:\n        /* \"#utility.yul\":22447:22488   */\n    tag_498:\n        /* \"#utility.yul\":22515:22516   */\n      0x01\n        /* \"#utility.yul\":22508:22513   */\n      dup3\n        /* \"#utility.yul\":22504:22517   */\n      sub\n        /* \"#utility.yul\":22497:22517   */\n      swap1\n      pop\n        /* \"#utility.yul\":22352:22523   */\n      swap2\n      swap1\n      pop\n      jump\t// out\n        /* \"#utility.yul\":22529:22861   */\n    tag_208:\n        /* \"#utility.yul\":22650:22654   */\n      0x00\n        /* \"#utility.yul\":22688:22690   */\n      0x40\n        /* \"#utility.yul\":22677:22686   */\n      dup3\n        /* \"#utility.yul\":22673:22691   */\n      add\n        /* \"#utility.yul\":22665:22691   */\n      swap1\n      pop\n        /* \"#utility.yul\":22701:22772   */\n      tag_501\n        /* \"#utility.yul\":22769:22770   */\n      0x00\n        /* \"#utility.yul\":22758:22767   */\n      dup4\n        /* \"#utility.yul\":22754:22771   */\n      add\n        /* \"#utility.yul\":22745:22751   */\n      dup6\n        /* \"#utility.yul\":22701:22772   */\n      tag_270\n      jump\t// in\n    tag_501:\n        /* \"#utility.yul\":22782:22854   */\n      tag_502\n        /* \"#utility.yul\":22850:22852   */\n      0x20\n        /* \"#utility.yul\":22839:22848   */\n      dup4\n        /* \"#utility.yul\":22835:22853   */\n      add\n        /* \"#utility.yul\":22826:22832   */\n      dup5\n        /* \"#utility.yul\":22782:22854   */\n      tag_270\n      jump\t// in\n    tag_502:\n        /* \"#utility.yul\":22529:22861   */\n      swap4\n      swap3\n      pop\n      pop\n      pop\n      jump\t// out\n        /* \"#utility.yul\":22867:23018   */\n    tag_293:\n        /* \"#utility.yul\":23007:23010   */\n      0x5f00000000000000000000000000000000000000000000000000000000000000\n        /* \"#utility.yul\":23003:23004   */\n      0x00\n        /* \"#utility.yul\":22995:23001   */\n      dup3\n        /* \"#utility.yul\":22991:23005   */\n      add\n        /* \"#utility.yul\":22984:23011   */\n      mstore\n        /* \"#utility.yul\":22867:23018   */\n      pop\n      jump\t// out\n        /* \"#utility.yul\":23024:23424   */\n    tag_294:\n        /* \"#utility.yul\":23184:23187   */\n      0x00\n        /* \"#utility.yul\":23205:23289   */\n      tag_505\n        /* \"#utility.yul\":23287:23288   */\n      0x01\n        /* \"#utility.yul\":23282:23285   */\n      dup4\n        /* \"#utility.yul\":23205:23289   */\n      tag_272\n      jump\t// in\n    tag_505:\n        /* \"#utility.yul\":23198:23289   */\n      swap2\n      pop\n        /* \"#utility.yul\":23298:23391   */\n      tag_506\n        /* \"#utility.yul\":23387:23390   */\n      dup3\n        /* \"#utility.yul\":23298:23391   */\n      tag_293\n      jump\t// in\n    tag_506:\n        /* \"#utility.yul\":23416:23417   */\n      0x01\n        /* \"#utility.yul\":23411:23414   */\n      dup3\n        /* \"#utility.yul\":23407:23418   */\n      add\n        /* \"#utility.yul\":23400:23418   */\n      swap1\n      pop\n        /* \"#utility.yul\":23024:23424   */\n      swap2\n      swap1\n      pop\n      jump\t// out\n        /* \"#utility.yul\":23430:24557   */\n    tag_213:\n        /* \"#utility.yul\":23860:23863   */\n      0x00\n        /* \"#utility.yul\":23882:23977   */\n      tag_508\n        /* \"#utility.yul\":23973:23976   */\n      dup3\n        /* \"#utility.yul\":23964:23970   */\n      dup7\n        /* \"#utility.yul\":23882:23977   */\n      tag_273\n      jump\t// in\n    tag_508:\n        /* \"#utility.yul\":23875:23977   */\n      swap2\n      pop\n        /* \"#utility.yul\":23994:24142   */\n      tag_509\n        /* \"#utility.yul\":24138:24141   */\n      dup3\n        /* \"#utility.yul\":23994:24142   */\n      tag_294\n      jump\t// in\n    tag_509:\n        /* \"#utility.yul\":23987:24142   */\n      swap2\n      pop\n        /* \"#utility.yul\":24159:24254   */\n      tag_510\n        /* \"#utility.yul\":24250:24253   */\n      dup3\n        /* \"#utility.yul\":24241:24247   */\n      dup6\n        /* \"#utility.yul\":24159:24254   */\n      tag_273\n      jump\t// in\n    tag_510:\n        /* \"#utility.yul\":24152:24254   */\n      swap2\n      pop\n        /* \"#utility.yul\":24271:24419   */\n      tag_511\n        /* \"#utility.yul\":24415:24418   */\n      dup3\n        /* \"#utility.yul\":24271:24419   */\n      tag_294\n      jump\t// in\n    tag_511:\n        /* \"#utility.yul\":24264:24419   */\n      swap2\n      pop\n        /* \"#utility.yul\":24436:24531   */\n      tag_512\n        /* \"#utility.yul\":24527:24530   */\n      dup3\n        /* \"#utility.yul\":24518:24524   */\n      dup5\n        /* \"#utility.yul\":24436:24531   */\n      tag_273\n      jump\t// in\n    tag_512:\n        /* \"#utility.yul\":24429:24531   */\n      swap2\n      pop\n        /* \"#utility.yul\":24548:24551   */\n      dup2\n        /* \"#utility.yul\":24541:24551   */\n      swap1\n      pop\n        /* \"#utility.yul\":23430:24557   */\n      swap5\n      swap4\n      pop\n      pop\n      pop\n      pop\n      jump\t// out\n        /* \"#utility.yul\":24563:24726   */\n    tag_295:\n        /* \"#utility.yul\":24703:24718   */\n      0x435245415445205441424c452000000000000000000000000000000000000000\n        /* \"#utility.yul\":24699:24700   */\n      0x00\n        /* \"#utility.yul\":24691:24697   */\n      dup3\n        /* \"#utility.yul\":24687:24701   */\n      add\n        /* \"#utility.yul\":24680:24719   */\n      mstore\n        /* \"#utility.yul\":24563:24726   */\n      pop\n      jump\t// out\n        /* \"#utility.yul\":24732:25134   */\n    tag_296:\n        /* \"#utility.yul\":24892:24895   */\n      0x00\n        /* \"#utility.yul\":24913:24998   */\n      tag_515\n        /* \"#utility.yul\":24995:24997   */\n      0x0d\n        /* \"#utility.yul\":24990:24993   */\n      dup4\n        /* \"#utility.yul\":24913:24998   */\n      tag_272\n      jump\t// in\n    tag_515:\n        /* \"#utility.yul\":24906:24998   */\n      swap2\n      pop\n        /* \"#utility.yul\":25007:25100   */\n      tag_516\n        /* \"#utility.yul\":25096:25099   */\n      dup3\n        /* \"#utility.yul\":25007:25100   */\n      tag_295\n      jump\t// in\n    tag_516:\n        /* \"#utility.yul\":25125:25127   */\n      0x0d\n        /* \"#utility.yul\":25120:25123   */\n      dup3\n        /* \"#utility.yul\":25116:25128   */\n      add\n        /* \"#utility.yul\":25109:25128   */\n      swap1\n      pop\n        /* \"#utility.yul\":24732:25134   */\n      swap2\n      swap1\n      pop\n      jump\t// out\n        /* \"#utility.yul\":25140:26799   */\n    tag_217:\n        /* \"#utility.yul\":25772:25775   */\n      0x00\n        /* \"#utility.yul\":25794:25942   */\n      tag_518\n        /* \"#utility.yul\":25938:25941   */\n      dup3\n        /* \"#utility.yul\":25794:25942   */\n      tag_296\n      jump\t// in\n    tag_518:\n        /* \"#utility.yul\":25787:25942   */\n      swap2\n      pop\n        /* \"#utility.yul\":25959:26054   */\n      tag_519\n        /* \"#utility.yul\":26050:26053   */\n      dup3\n        /* \"#utility.yul\":26041:26047   */\n      dup7\n        /* \"#utility.yul\":25959:26054   */\n      tag_273\n      jump\t// in\n    tag_519:\n        /* \"#utility.yul\":25952:26054   */\n      swap2\n      pop\n        /* \"#utility.yul\":26071:26219   */\n      tag_520\n        /* \"#utility.yul\":26215:26218   */\n      dup3\n        /* \"#utility.yul\":26071:26219   */\n      tag_294\n      jump\t// in\n    tag_520:\n        /* \"#utility.yul\":26064:26219   */\n      swap2\n      pop\n        /* \"#utility.yul\":26236:26331   */\n      tag_521\n        /* \"#utility.yul\":26327:26330   */\n      dup3\n        /* \"#utility.yul\":26318:26324   */\n      dup6\n        /* \"#utility.yul\":26236:26331   */\n      tag_273\n      jump\t// in\n    tag_521:\n        /* \"#utility.yul\":26229:26331   */\n      swap2\n      pop\n        /* \"#utility.yul\":26348:26496   */\n      tag_522\n        /* \"#utility.yul\":26492:26495   */\n      dup3\n        /* \"#utility.yul\":26348:26496   */\n      tag_288\n      jump\t// in\n    tag_522:\n        /* \"#utility.yul\":26341:26496   */\n      swap2\n      pop\n        /* \"#utility.yul\":26513:26608   */\n      tag_523\n        /* \"#utility.yul\":26604:26607   */\n      dup3\n        /* \"#utility.yul\":26595:26601   */\n      dup5\n        /* \"#utility.yul\":26513:26608   */\n      tag_273\n      jump\t// in\n    tag_523:\n        /* \"#utility.yul\":26506:26608   */\n      swap2\n      pop\n        /* \"#utility.yul\":26625:26773   */\n      tag_524\n        /* \"#utility.yul\":26769:26772   */\n      dup3\n        /* \"#utility.yul\":26625:26773   */\n      tag_292\n      jump\t// in\n    tag_524:\n        /* \"#utility.yul\":26618:26773   */\n      swap2\n      pop\n        /* \"#utility.yul\":26790:26793   */\n      dup2\n        /* \"#utility.yul\":26783:26793   */\n      swap1\n      pop\n        /* \"#utility.yul\":25140:26799   */\n      swap5\n      swap4\n      pop\n      pop\n      pop\n      pop\n      jump\t// out\n        /* \"#utility.yul\":26805:27346   */\n    tag_222:\n        /* \"#utility.yul\":27038:27041   */\n      0x00\n        /* \"#utility.yul\":27060:27208   */\n      tag_526\n        /* \"#utility.yul\":27204:27207   */\n      dup3\n        /* \"#utility.yul\":27060:27208   */\n      tag_282\n      jump\t// in\n    tag_526:\n        /* \"#utility.yul\":27053:27208   */\n      swap2\n      pop\n        /* \"#utility.yul\":27225:27320   */\n      tag_527\n        /* \"#utility.yul\":27316:27319   */\n      dup3\n        /* \"#utility.yul\":27307:27313   */\n      dup5\n        /* \"#utility.yul\":27225:27320   */\n      tag_273\n      jump\t// in\n    tag_527:\n        /* \"#utility.yul\":27218:27320   */\n      swap2\n      pop\n        /* \"#utility.yul\":27337:27340   */\n      dup2\n        /* \"#utility.yul\":27330:27340   */\n      swap1\n      pop\n        /* \"#utility.yul\":26805:27346   */\n      swap3\n      swap2\n      pop\n      pop\n      jump\t// out\n        /* \"#utility.yul\":27352:27509   */\n    tag_297:\n        /* \"#utility.yul\":27492:27501   */\n      0x5550444154452000000000000000000000000000000000000000000000000000\n        /* \"#utility.yul\":27488:27489   */\n      0x00\n        /* \"#utility.yul\":27480:27486   */\n      dup3\n        /* \"#utility.yul\":27476:27490   */\n      add\n        /* \"#utility.yul\":27469:27502   */\n      mstore\n        /* \"#utility.yul\":27352:27509   */\n      pop\n      jump\t// out\n        /* \"#utility.yul\":27515:27915   */\n    tag_298:\n        /* \"#utility.yul\":27675:27678   */\n      0x00\n        /* \"#utility.yul\":27696:27780   */\n      tag_530\n        /* \"#utility.yul\":27778:27779   */\n      0x07\n        /* \"#utility.yul\":27773:27776   */\n      dup4\n        /* \"#utility.yul\":27696:27780   */\n      tag_272\n      jump\t// in\n    tag_530:\n        /* \"#utility.yul\":27689:27780   */\n      swap2\n      pop\n        /* \"#utility.yul\":27789:27882   */\n      tag_531\n        /* \"#utility.yul\":27878:27881   */\n      dup3\n        /* \"#utility.yul\":27789:27882   */\n      tag_297\n      jump\t// in\n    tag_531:\n        /* \"#utility.yul\":27907:27908   */\n      0x07\n        /* \"#utility.yul\":27902:27905   */\n      dup3\n        /* \"#utility.yul\":27898:27909   */\n      add\n        /* \"#utility.yul\":27891:27909   */\n      swap1\n      pop\n        /* \"#utility.yul\":27515:27915   */\n      swap2\n      swap1\n      pop\n      jump\t// out\n        /* \"#utility.yul\":27921:28076   */\n    tag_299:\n        /* \"#utility.yul\":28061:28068   */\n      0x2053455420000000000000000000000000000000000000000000000000000000\n        /* \"#utility.yul\":28057:28058   */\n      0x00\n        /* \"#utility.yul\":28049:28055   */\n      dup3\n        /* \"#utility.yul\":28045:28059   */\n      add\n        /* \"#utility.yul\":28038:28069   */\n      mstore\n        /* \"#utility.yul\":27921:28076   */\n      pop\n      jump\t// out\n        /* \"#utility.yul\":28082:28482   */\n    tag_300:\n        /* \"#utility.yul\":28242:28245   */\n      0x00\n        /* \"#utility.yul\":28263:28347   */\n      tag_534\n        /* \"#utility.yul\":28345:28346   */\n      0x05\n        /* \"#utility.yul\":28340:28343   */\n      dup4\n        /* \"#utility.yul\":28263:28347   */\n      tag_272\n      jump\t// in\n    tag_534:\n        /* \"#utility.yul\":28256:28347   */\n      swap2\n      pop\n        /* \"#utility.yul\":28356:28449   */\n      tag_535\n        /* \"#utility.yul\":28445:28448   */\n      dup3\n        /* \"#utility.yul\":28356:28449   */\n      tag_299\n      jump\t// in\n    tag_535:\n        /* \"#utility.yul\":28474:28475   */\n      0x05\n        /* \"#utility.yul\":28469:28472   */\n      dup3\n        /* \"#utility.yul\":28465:28476   */\n      add\n        /* \"#utility.yul\":28458:28476   */\n      swap1\n      pop\n        /* \"#utility.yul\":28082:28482   */\n      swap2\n      swap1\n      pop\n      jump\t// out\n        /* \"#utility.yul\":28488:29615   */\n    tag_224:\n        /* \"#utility.yul\":28918:28921   */\n      0x00\n        /* \"#utility.yul\":28940:29088   */\n      tag_537\n        /* \"#utility.yul\":29084:29087   */\n      dup3\n        /* \"#utility.yul\":28940:29088   */\n      tag_298\n      jump\t// in\n    tag_537:\n        /* \"#utility.yul\":28933:29088   */\n      swap2\n      pop\n        /* \"#utility.yul\":29105:29200   */\n      tag_538\n        /* \"#utility.yul\":29196:29199   */\n      dup3\n        /* \"#utility.yul\":29187:29193   */\n      dup7\n        /* \"#utility.yul\":29105:29200   */\n      tag_273\n      jump\t// in\n    tag_538:\n        /* \"#utility.yul\":29098:29200   */\n      swap2\n      pop\n        /* \"#utility.yul\":29217:29365   */\n      tag_539\n        /* \"#utility.yul\":29361:29364   */\n      dup3\n        /* \"#utility.yul\":29217:29365   */\n      tag_300\n      jump\t// in\n    tag_539:\n        /* \"#utility.yul\":29210:29365   */\n      swap2\n      pop\n        /* \"#utility.yul\":29382:29477   */\n      tag_540\n        /* \"#utility.yul\":29473:29476   */\n      dup3\n        /* \"#utility.yul\":29464:29470   */\n      dup6\n        /* \"#utility.yul\":29382:29477   */\n      tag_273\n      jump\t// in\n    tag_540:\n        /* \"#utility.yul\":29375:29477   */\n      swap2\n      pop\n        /* \"#utility.yul\":29494:29589   */\n      tag_541\n        /* \"#utility.yul\":29585:29588   */\n      dup3\n        /* \"#utility.yul\":29576:29582   */\n      dup5\n        /* \"#utility.yul\":29494:29589   */\n      tag_273\n      jump\t// in\n    tag_541:\n        /* \"#utility.yul\":29487:29589   */\n      swap2\n      pop\n        /* \"#utility.yul\":29606:29609   */\n      dup2\n        /* \"#utility.yul\":29599:29609   */\n      swap1\n      pop\n        /* \"#utility.yul\":28488:29615   */\n      swap5\n      swap4\n      pop\n      pop\n      pop\n      pop\n      jump\t// out\n    stop\n    data_1efe75636938cd089ba4e8a1d9d15ef04ad4036ab72c7e77200f86b81745b11e 696420696e7465676572207072696d617279206b65792c6164647265737320746578742c67726f757049642074657874\n\n    auxdata: 0xa264697066735822122049b6890b0df3aa672699001f5b3b82cfec2370f18c596fc9138222348cf862ea64736f6c63430008140033\n}\n",
				"bytecode": {
					"linkReferences": {},
					"object": "60806040525f600155348015610013575f80fd5b50611ccb806100215f395ff3fe608060405260043610610085575f3560e01c80633e295859116100585780633e2958591461013d5780635d5a33a21461017957806388e4f1cb146101a3578063b2a4c897146101cd578063e86492b1146101d757610085565b806304bfc47f14610089578063150b7a02146100b157806319129e5a146100ed5780632907b97914610115575b5f80fd5b348015610094575f80fd5b506100af60048036038101906100aa9190610faf565b6101ff565b005b3480156100bc575f80fd5b506100d760048036038101906100d29190611170565b6102e0565b6040516100e4919061122a565b60405180910390f35b3480156100f8575f80fd5b50610113600480360381019061010e9190611243565b6102f3565b005b348015610120575f80fd5b5061013b6004803603810190610136919061126e565b610368565b005b348015610148575f80fd5b50610163600480360381019061015e9190611243565b6104be565b6040516101709190611326565b60405180910390f35b348015610184575f80fd5b5061018d6104e8565b60405161019a9190611326565b60405180910390f35b3480156101ae575f80fd5b506101b761052f565b6040516101c49190611355565b60405180910390f35b6101d5610537565b005b3480156101e2575f80fd5b506101fd60048036038101906101f8919061136e565b610616565b005b5f6102098261072d565b604051602001610219919061140c565b60405160208183030381529060405290506102326107f7565b73ffffffffffffffffffffffffffffffffffffffff1663377af0da305f546102916040518060400160405280601181526020017f737573755f67726f7570735f7461626c650000000000000000000000000000008152505f5487610a1c565b6040518463ffffffff1660e01b81526004016102af93929190611440565b5f604051808303815f87803b1580156102c6575f80fd5b505af11580156102d8573d5f803e3d5ffd5b505050505050565b5f63150b7a0260e01b9050949350505050565b6102fb6107f7565b73ffffffffffffffffffffffffffffffffffffffff16638bb0ab97305f54846040518463ffffffff1660e01b81526004016103389392919061147c565b5f604051808303815f87803b15801561034f575f80fd5b505af1158015610361573d5f803e3d5ffd5b5050505050565b5f61037282610a57565b90505f61037e84610a57565b90506103886107f7565b73ffffffffffffffffffffffffffffffffffffffff1663377af0da305f5461046d6040518060400160405280601181526020017f737573755f67726f7570735f7461626c650000000000000000000000000000008152505f546040518060400160405280601481526020017f69642c2067726f757049642c206164647265737300000000000000000000000081525061043560015f81548092919061042c906114de565b9190505561072d565b61043e8a610a84565b6104478c610a84565b6040516020016104599392919061154b565b604051602081830303815290604052610aad565b6040518463ffffffff1660e01b815260040161048b93929190611440565b5f604051808303815f87803b1580156104a2575f80fd5b505af11580156104b4573d5f803e3d5ffd5b5050505050505050565b60606104e18273ffffffffffffffffffffffffffffffffffffffff166014610aeb565b9050919050565b606061052a6040518060400160405280601181526020017f737573755f67726f7570735f7461626c650000000000000000000000000000008152505f54610d29565b905090565b5f8054905090565b61053f6107f7565b73ffffffffffffffffffffffffffffffffffffffff1663a15ab08d306105b2604051806060016040528060308152602001611c66603091396040518060400160405280601181526020017f737573755f67726f7570735f7461626c65000000000000000000000000000000815250610d67565b6040518363ffffffff1660e01b81526004016105cf929190611599565b6020604051808303815f875af11580156105eb573d5f803e3d5ffd5b505050506040513d601f19601f8201168201806040525081019061060f91906115db565b5f81905550565b5f61062861062383610a57565b610a84565b604051602001610638919061162c565b60405160208183030381529060405290505f6106538461072d565b604051602001610663919061140c565b604051602081830303815290604052905061067c6107f7565b73ffffffffffffffffffffffffffffffffffffffff1663377af0da305f546106dc6040518060400160405280601181526020017f737573755f67726f7570735f7461626c650000000000000000000000000000008152505f548888610d9d565b6040518463ffffffff1660e01b81526004016106fa93929190611440565b5f604051808303815f87803b158015610711575f80fd5b505af1158015610723573d5f803e3d5ffd5b5050505050505050565b60605f600161073b84610e1a565b0190505f8167ffffffffffffffff8111156107595761075861104c565b5b6040519080825280601f01601f19166020018201604052801561078b5781602001600182028036833780820191505090505b5090505f82602001820190505b6001156107ec578080600190039150507f3031323334353637383961626364656600000000000000000000000000000000600a86061a8153600a85816107e1576107e0611651565b5b0494505f8503610798575b819350505050919050565b5f6001460361081c5773012969f7e3439a9b04025b5a049eb9bad82a8c129050610a19565b600a46036108405773fad44bf5b843de943a09d4f3e84949a11d3aa3e69050610a19565b61a4b1460361086557739abd75e8640871a5a20d3b4ee6330a04c962affd9050610a19565b61a4ba460361088a57731a22854c5b1642760a827f20137a67930ae108d29050610a19565b608946036108ae57735c4e6a9e5c1e1bf445a062006faf19ea6c49afea9050610a19565b61013a46036108d3577359ef8bf2d6c102b4c42aef9189e1a9f0abfd652d9050610a19565b62aa36a746036108f95773c50c62498448acc8dbde43da77f8d5d2e2c7597d9050610a19565b62aa37dc460361091f577368a2f4423ad3bf5139db563cf3bc80aa09ed70799050610a19565b62066eee46036109455773223a74b8323914afdc3ff1e5005564dc17231d6e9050610a19565b62014a34460361096b5773a85aae9f0aec5f5638e5f13840797303ab29c9f99050610a19565b6201388246036109915773170fb206132b693e38adfc8727dcfa303546cec19050610a19565b6204cb2f46036109b75773030bcf3d50cad04c2e57391b12740982a93086219050610a19565b617a6946036109dc5773e7f1725e7734ce288f8367e1bb143e90bb3f05129050610a19565b466040517f264e42cf000000000000000000000000000000000000000000000000000000008152600401610a109190611355565b60405180910390fd5b90565b60605f610a298585610d29565b90508083604051602001610a3e929190611712565b6040516020818303038152906040529150509392505050565b6060610a7d8273ffffffffffffffffffffffffffffffffffffffff16601460ff16610aeb565b9050919050565b606081604051602001610a979190611795565b6040516020818303038152906040529050919050565b60605f610aba8686610d29565b9050808484604051602001610ad1939291906118e9565b604051602081830303815290604052915050949350505050565b60605f8390505f6002846002610b019190611945565b610b0b9190611986565b67ffffffffffffffff811115610b2457610b2361104c565b5b6040519080825280601f01601f191660200182016040528015610b565781602001600182028036833780820191505090505b5090507f3000000000000000000000000000000000000000000000000000000000000000815f81518110610b8d57610b8c6119b9565b5b60200101907effffffffffffffffffffffffffffffffffffffffffffffffffffffffffffff191690815f1a9053507f780000000000000000000000000000000000000000000000000000000000000081600181518110610bf057610bef6119b9565b5b60200101907effffffffffffffffffffffffffffffffffffffffffffffffffffffffffffff191690815f1a9053505f6001856002610c2e9190611945565b610c389190611986565b90505b6001811115610cd7577f3031323334353637383961626364656600000000000000000000000000000000600f841660108110610c7a57610c796119b9565b5b1a60f81b828281518110610c9157610c906119b9565b5b60200101907effffffffffffffffffffffffffffffffffffffffffffffffffffffffffffff191690815f1a905350600483901c925080610cd0906119e6565b9050610c3b565b505f8214610d1e5784846040517fe22e27eb000000000000000000000000000000000000000000000000000000008152600401610d15929190611a0d565b60405180910390fd5b809250505092915050565b606082610d354661072d565b610d3e8461072d565b604051602001610d5093929190611a7e565b604051602081830303815290604052905092915050565b606081610d734661072d565b84604051602001610d8693929190611b0e565b604051602081830303815290604052905092915050565b60605f610daa8686610d29565b90505f60405180602001604052805f81525090505f84511115610dea5783604051602001610dd89190611b6a565b60405160208183030381529060405290505b818582604051602001610dff93929190611c1f565b60405160208183030381529060405292505050949350505050565b5f805f90507a184f03e93ff9f4daa797ed6e38ed64bf6a1f0100000000000000008310610e76577a184f03e93ff9f4daa797ed6e38ed64bf6a1f0100000000000000008381610e6c57610e6b611651565b5b0492506040810190505b6d04ee2d6d415b85acef81000000008310610eb3576d04ee2d6d415b85acef81000000008381610ea957610ea8611651565b5b0492506020810190505b662386f26fc100008310610ee257662386f26fc100008381610ed857610ed7611651565b5b0492506010810190505b6305f5e1008310610f0b576305f5e1008381610f0157610f00611651565b5b0492506008810190505b6127108310610f30576127108381610f2657610f25611651565b5b0492506004810190505b60648310610f535760648381610f4957610f48611651565b5b0492506002810190505b600a8310610f62576001810190505b80915050919050565b5f604051905090565b5f80fd5b5f80fd5b5f819050919050565b610f8e81610f7c565b8114610f98575f80fd5b50565b5f81359050610fa981610f85565b92915050565b5f60208284031215610fc457610fc3610f74565b5b5f610fd184828501610f9b565b91505092915050565b5f73ffffffffffffffffffffffffffffffffffffffff82169050919050565b5f61100382610fda565b9050919050565b61101381610ff9565b811461101d575f80fd5b50565b5f8135905061102e8161100a565b92915050565b5f80fd5b5f80fd5b5f601f19601f8301169050919050565b7f4e487b71000000000000000000000000000000000000000000000000000000005f52604160045260245ffd5b6110828261103c565b810181811067ffffffffffffffff821117156110a1576110a061104c565b5b80604052505050565b5f6110b3610f6b565b90506110bf8282611079565b919050565b5f67ffffffffffffffff8211156110de576110dd61104c565b5b6110e78261103c565b9050602081019050919050565b828183375f83830152505050565b5f61111461110f846110c4565b6110aa565b9050828152602081018484840111156111305761112f611038565b5b61113b8482856110f4565b509392505050565b5f82601f83011261115757611156611034565b5b8135611167848260208601611102565b91505092915050565b5f805f806080858703121561118857611187610f74565b5b5f61119587828801611020565b94505060206111a687828801611020565b93505060406111b787828801610f9b565b925050606085013567ffffffffffffffff8111156111d8576111d7610f78565b5b6111e487828801611143565b91505092959194509250565b5f7fffffffff0000000000000000000000000000000000000000000000000000000082169050919050565b611224816111f0565b82525050565b5f60208201905061123d5f83018461121b565b92915050565b5f6020828403121561125857611257610f74565b5b5f61126584828501611020565b91505092915050565b5f806040838503121561128457611283610f74565b5b5f61129185828601611020565b92505060206112a285828601611020565b9150509250929050565b5f81519050919050565b5f82825260208201905092915050565b5f5b838110156112e35780820151818401526020810190506112c8565b5f8484015250505050565b5f6112f8826112ac565b61130281856112b6565b93506113128185602086016112c6565b61131b8161103c565b840191505092915050565b5f6020820190508181035f83015261133e81846112ee565b905092915050565b61134f81610f7c565b82525050565b5f6020820190506113685f830184611346565b92915050565b5f806040838503121561138457611383610f74565b5b5f61139185828601610f9b565b92505060206113a285828601611020565b9150509250929050565b7f69643d0000000000000000000000000000000000000000000000000000000000815250565b5f81905092915050565b5f6113e6826112ac565b6113f081856113d2565b93506114008185602086016112c6565b80840191505092915050565b5f611416826113ac565b60038201915061142682846113dc565b915081905092915050565b61143a81610ff9565b82525050565b5f6060820190506114535f830186611431565b6114606020830185611346565b818103604083015261147281846112ee565b9050949350505050565b5f60608201905061148f5f830186611431565b61149c6020830185611346565b6114a96040830184611431565b949350505050565b7f4e487b71000000000000000000000000000000000000000000000000000000005f52601160045260245ffd5b5f6114e882610f7c565b91507fffffffffffffffffffffffffffffffffffffffffffffffffffffffffffffffff820361151a576115196114b1565b5b600182019050919050565b7f2c00000000000000000000000000000000000000000000000000000000000000815250565b5f61155682866113dc565b915061156182611525565b60018201915061157182856113dc565b915061157c82611525565b60018201915061158c82846113dc565b9150819050949350505050565b5f6040820190506115ac5f830185611431565b81810360208301526115be81846112ee565b90509392505050565b5f815190506115d581610f85565b92915050565b5f602082840312156115f0576115ef610f74565b5b5f6115fd848285016115c7565b91505092915050565b7f67726f757049643d000000000000000000000000000000000000000000000000815250565b5f61163682611606565b60088201915061164682846113dc565b915081905092915050565b7f4e487b71000000000000000000000000000000000000000000000000000000005f52601260045260245ffd5b7f44454c4554452046524f4d2000000000000000000000000000000000000000005f82015250565b5f6116b2600c836113d2565b91506116bd8261167e565b600c82019050919050565b7f20574845524520000000000000000000000000000000000000000000000000005f82015250565b5f6116fc6007836113d2565b9150611707826116c8565b600782019050919050565b5f61171c826116a6565b915061172882856113dc565b9150611733826116f0565b915061173f82846113dc565b91508190509392505050565b7f27000000000000000000000000000000000000000000000000000000000000005f82015250565b5f61177f6001836113d2565b915061178a8261174b565b600182019050919050565b5f61179f82611773565b91506117ab82846113dc565b91506117b682611773565b915081905092915050565b7f494e5345525420494e544f2000000000000000000000000000000000000000005f82015250565b5f6117f5600c836113d2565b9150611800826117c1565b600c82019050919050565b7f28000000000000000000000000000000000000000000000000000000000000005f82015250565b5f61183f6001836113d2565b915061184a8261180b565b600182019050919050565b7f2956414c554553280000000000000000000000000000000000000000000000005f82015250565b5f6118896008836113d2565b915061189482611855565b600882019050919050565b7f29000000000000000000000000000000000000000000000000000000000000005f82015250565b5f6118d36001836113d2565b91506118de8261189f565b600182019050919050565b5f6118f3826117e9565b91506118ff82866113dc565b915061190a82611833565b915061191682856113dc565b91506119218261187d565b915061192d82846113dc565b9150611938826118c7565b9150819050949350505050565b5f61194f82610f7c565b915061195a83610f7c565b925082820261196881610f7c565b9150828204841483151761197f5761197e6114b1565b5b5092915050565b5f61199082610f7c565b915061199b83610f7c565b92508282019050808211156119b3576119b26114b1565b5b92915050565b7f4e487b71000000000000000000000000000000000000000000000000000000005f52603260045260245ffd5b5f6119f082610f7c565b91505f8203611a0257611a016114b1565b5b600182039050919050565b5f604082019050611a205f830185611346565b611a2d6020830184611346565b9392505050565b7f5f000000000000000000000000000000000000000000000000000000000000005f82015250565b5f611a686001836113d2565b9150611a7382611a34565b600182019050919050565b5f611a8982866113dc565b9150611a9482611a5c565b9150611aa082856113dc565b9150611aab82611a5c565b9150611ab782846113dc565b9150819050949350505050565b7f435245415445205441424c4520000000000000000000000000000000000000005f82015250565b5f611af8600d836113d2565b9150611b0382611ac4565b600d82019050919050565b5f611b1882611aec565b9150611b2482866113dc565b9150611b2f82611a5c565b9150611b3b82856113dc565b9150611b4682611833565b9150611b5282846113dc565b9150611b5d826118c7565b9150819050949350505050565b5f611b74826116f0565b9150611b8082846113dc565b915081905092915050565b7f55504441544520000000000000000000000000000000000000000000000000005f82015250565b5f611bbf6007836113d2565b9150611bca82611b8b565b600782019050919050565b7f20534554200000000000000000000000000000000000000000000000000000005f82015250565b5f611c096005836113d2565b9150611c1482611bd5565b600582019050919050565b5f611c2982611bb3565b9150611c3582866113dc565b9150611c4082611bfd565b9150611c4c82856113dc565b9150611c5882846113dc565b915081905094935050505056fe696420696e7465676572207072696d617279206b65792c6164647265737320746578742c67726f757049642074657874a264697066735822122049b6890b0df3aa672699001f5b3b82cfec2370f18c596fc9138222348cf862ea64736f6c63430008140033",
					"opcodes": "PUSH1 0x80 PUSH1 0x40 MSTORE PUSH0 PUSH1 0x1 SSTORE CALLVALUE DUP1 ISZERO PUSH2 0x13 JUMPI PUSH0 DUP1 REVERT JUMPDEST POP PUSH2 0x1CCB DUP1 PUSH2 0x21 PUSH0 CODECOPY PUSH0 RETURN INVALID PUSH1 0x80 PUSH1 0x40 MSTORE PUSH1 0x4 CALLDATASIZE LT PUSH2 0x85 JUMPI PUSH0 CALLDATALOAD PUSH1 0xE0 SHR DUP1 PUSH4 0x3E295859 GT PUSH2 0x58 JUMPI DUP1 PUSH4 0x3E295859 EQ PUSH2 0x13D JUMPI DUP1 PUSH4 0x5D5A33A2 EQ PUSH2 0x179 JUMPI DUP1 PUSH4 0x88E4F1CB EQ PUSH2 0x1A3 JUMPI DUP1 PUSH4 0xB2A4C897 EQ PUSH2 0x1CD JUMPI DUP1 PUSH4 0xE86492B1 EQ PUSH2 0x1D7 JUMPI PUSH2 0x85 JUMP JUMPDEST DUP1 PUSH4 0x4BFC47F EQ PUSH2 0x89 JUMPI DUP1 PUSH4 0x150B7A02 EQ PUSH2 0xB1 JUMPI DUP1 PUSH4 0x19129E5A EQ PUSH2 0xED JUMPI DUP1 PUSH4 0x2907B979 EQ PUSH2 0x115 JUMPI JUMPDEST PUSH0 DUP1 REVERT JUMPDEST CALLVALUE DUP1 ISZERO PUSH2 0x94 JUMPI PUSH0 DUP1 REVERT JUMPDEST POP PUSH2 0xAF PUSH1 0x4 DUP1 CALLDATASIZE SUB DUP2 ADD SWAP1 PUSH2 0xAA SWAP2 SWAP1 PUSH2 0xFAF JUMP JUMPDEST PUSH2 0x1FF JUMP JUMPDEST STOP JUMPDEST CALLVALUE DUP1 ISZERO PUSH2 0xBC JUMPI PUSH0 DUP1 REVERT JUMPDEST POP PUSH2 0xD7 PUSH1 0x4 DUP1 CALLDATASIZE SUB DUP2 ADD SWAP1 PUSH2 0xD2 SWAP2 SWAP1 PUSH2 0x1170 JUMP JUMPDEST PUSH2 0x2E0 JUMP JUMPDEST PUSH1 0x40 MLOAD PUSH2 0xE4 SWAP2 SWAP1 PUSH2 0x122A JUMP JUMPDEST PUSH1 0x40 MLOAD DUP1 SWAP2 SUB SWAP1 RETURN JUMPDEST CALLVALUE DUP1 ISZERO PUSH2 0xF8 JUMPI PUSH0 DUP1 REVERT JUMPDEST POP PUSH2 0x113 PUSH1 0x4 DUP1 CALLDATASIZE SUB DUP2 ADD SWAP1 PUSH2 0x10E SWAP2 SWAP1 PUSH2 0x1243 JUMP JUMPDEST PUSH2 0x2F3 JUMP JUMPDEST STOP JUMPDEST CALLVALUE DUP1 ISZERO PUSH2 0x120 JUMPI PUSH0 DUP1 REVERT JUMPDEST POP PUSH2 0x13B PUSH1 0x4 DUP1 CALLDATASIZE SUB DUP2 ADD SWAP1 PUSH2 0x136 SWAP2 SWAP1 PUSH2 0x126E JUMP JUMPDEST PUSH2 0x368 JUMP JUMPDEST STOP JUMPDEST CALLVALUE DUP1 ISZERO PUSH2 0x148 JUMPI PUSH0 DUP1 REVERT JUMPDEST POP PUSH2 0x163 PUSH1 0x4 DUP1 CALLDATASIZE SUB DUP2 ADD SWAP1 PUSH2 0x15E SWAP2 SWAP1 PUSH2 0x1243 JUMP JUMPDEST PUSH2 0x4BE JUMP JUMPDEST PUSH1 0x40 MLOAD PUSH2 0x170 SWAP2 SWAP1 PUSH2 0x1326 JUMP JUMPDEST PUSH1 0x40 MLOAD DUP1 SWAP2 SUB SWAP1 RETURN JUMPDEST CALLVALUE DUP1 ISZERO PUSH2 0x184 JUMPI PUSH0 DUP1 REVERT JUMPDEST POP PUSH2 0x18D PUSH2 0x4E8 JUMP JUMPDEST PUSH1 0x40 MLOAD PUSH2 0x19A SWAP2 SWAP1 PUSH2 0x1326 JUMP JUMPDEST PUSH1 0x40 MLOAD DUP1 SWAP2 SUB SWAP1 RETURN JUMPDEST CALLVALUE DUP1 ISZERO PUSH2 0x1AE JUMPI PUSH0 DUP1 REVERT JUMPDEST POP PUSH2 0x1B7 PUSH2 0x52F JUMP JUMPDEST PUSH1 0x40 MLOAD PUSH2 0x1C4 SWAP2 SWAP1 PUSH2 0x1355 JUMP JUMPDEST PUSH1 0x40 MLOAD DUP1 SWAP2 SUB SWAP1 RETURN JUMPDEST PUSH2 0x1D5 PUSH2 0x537 JUMP JUMPDEST STOP JUMPDEST CALLVALUE DUP1 ISZERO PUSH2 0x1E2 JUMPI PUSH0 DUP1 REVERT JUMPDEST POP PUSH2 0x1FD PUSH1 0x4 DUP1 CALLDATASIZE SUB DUP2 ADD SWAP1 PUSH2 0x1F8 SWAP2 SWAP1 PUSH2 0x136E JUMP JUMPDEST PUSH2 0x616 JUMP JUMPDEST STOP JUMPDEST PUSH0 PUSH2 0x209 DUP3 PUSH2 0x72D JUMP JUMPDEST PUSH1 0x40 MLOAD PUSH1 0x20 ADD PUSH2 0x219 SWAP2 SWAP1 PUSH2 0x140C JUMP JUMPDEST PUSH1 0x40 MLOAD PUSH1 0x20 DUP2 DUP4 SUB SUB DUP2 MSTORE SWAP1 PUSH1 0x40 MSTORE SWAP1 POP PUSH2 0x232 PUSH2 0x7F7 JUMP JUMPDEST PUSH20 0xFFFFFFFFFFFFFFFFFFFFFFFFFFFFFFFFFFFFFFFF AND PUSH4 0x377AF0DA ADDRESS PUSH0 SLOAD PUSH2 0x291 PUSH1 0x40 MLOAD DUP1 PUSH1 0x40 ADD PUSH1 0x40 MSTORE DUP1 PUSH1 0x11 DUP2 MSTORE PUSH1 0x20 ADD PUSH32 0x737573755F67726F7570735F7461626C65000000000000000000000000000000 DUP2 MSTORE POP PUSH0 SLOAD DUP8 PUSH2 0xA1C JUMP JUMPDEST PUSH1 0x40 MLOAD DUP5 PUSH4 0xFFFFFFFF AND PUSH1 0xE0 SHL DUP2 MSTORE PUSH1 0x4 ADD PUSH2 0x2AF SWAP4 SWAP3 SWAP2 SWAP1 PUSH2 0x1440 JUMP JUMPDEST PUSH0 PUSH1 0x40 MLOAD DUP1 DUP4 SUB DUP2 PUSH0 DUP8 DUP1 EXTCODESIZE ISZERO DUP1 ISZERO PUSH2 0x2C6 JUMPI PUSH0 DUP1 REVERT JUMPDEST POP GAS CALL ISZERO DUP1 ISZERO PUSH2 0x2D8 JUMPI RETURNDATASIZE PUSH0 DUP1 RETURNDATACOPY RETURNDATASIZE PUSH0 REVERT JUMPDEST POP POP POP POP POP POP JUMP JUMPDEST PUSH0 PUSH4 0x150B7A02 PUSH1 0xE0 SHL SWAP1 POP SWAP5 SWAP4 POP POP POP POP JUMP JUMPDEST PUSH2 0x2FB PUSH2 0x7F7 JUMP JUMPDEST PUSH20 0xFFFFFFFFFFFFFFFFFFFFFFFFFFFFFFFFFFFFFFFF AND PUSH4 0x8BB0AB97 ADDRESS PUSH0 SLOAD DUP5 PUSH1 0x40 MLOAD DUP5 PUSH4 0xFFFFFFFF AND PUSH1 0xE0 SHL DUP2 MSTORE PUSH1 0x4 ADD PUSH2 0x338 SWAP4 SWAP3 SWAP2 SWAP1 PUSH2 0x147C JUMP JUMPDEST PUSH0 PUSH1 0x40 MLOAD DUP1 DUP4 SUB DUP2 PUSH0 DUP8 DUP1 EXTCODESIZE ISZERO DUP1 ISZERO PUSH2 0x34F JUMPI PUSH0 DUP1 REVERT JUMPDEST POP GAS CALL ISZERO DUP1 ISZERO PUSH2 0x361 JUMPI RETURNDATASIZE PUSH0 DUP1 RETURNDATACOPY RETURNDATASIZE PUSH0 REVERT JUMPDEST POP POP POP POP POP JUMP JUMPDEST PUSH0 PUSH2 0x372 DUP3 PUSH2 0xA57 JUMP JUMPDEST SWAP1 POP PUSH0 PUSH2 0x37E DUP5 PUSH2 0xA57 JUMP JUMPDEST SWAP1 POP PUSH2 0x388 PUSH2 0x7F7 JUMP JUMPDEST PUSH20 0xFFFFFFFFFFFFFFFFFFFFFFFFFFFFFFFFFFFFFFFF AND PUSH4 0x377AF0DA ADDRESS PUSH0 SLOAD PUSH2 0x46D PUSH1 0x40 MLOAD DUP1 PUSH1 0x40 ADD PUSH1 0x40 MSTORE DUP1 PUSH1 0x11 DUP2 MSTORE PUSH1 0x20 ADD PUSH32 0x737573755F67726F7570735F7461626C65000000000000000000000000000000 DUP2 MSTORE POP PUSH0 SLOAD PUSH1 0x40 MLOAD DUP1 PUSH1 0x40 ADD PUSH1 0x40 MSTORE DUP1 PUSH1 0x14 DUP2 MSTORE PUSH1 0x20 ADD PUSH32 0x69642C2067726F757049642C2061646472657373000000000000000000000000 DUP2 MSTORE POP PUSH2 0x435 PUSH1 0x1 PUSH0 DUP2 SLOAD DUP1 SWAP3 SWAP2 SWAP1 PUSH2 0x42C SWAP1 PUSH2 0x14DE JUMP JUMPDEST SWAP2 SWAP1 POP SSTORE PUSH2 0x72D JUMP JUMPDEST PUSH2 0x43E DUP11 PUSH2 0xA84 JUMP JUMPDEST PUSH2 0x447 DUP13 PUSH2 0xA84 JUMP JUMPDEST PUSH1 0x40 MLOAD PUSH1 0x20 ADD PUSH2 0x459 SWAP4 SWAP3 SWAP2 SWAP1 PUSH2 0x154B JUMP JUMPDEST PUSH1 0x40 MLOAD PUSH1 0x20 DUP2 DUP4 SUB SUB DUP2 MSTORE SWAP1 PUSH1 0x40 MSTORE PUSH2 0xAAD JUMP JUMPDEST PUSH1 0x40 MLOAD DUP5 PUSH4 0xFFFFFFFF AND PUSH1 0xE0 SHL DUP2 MSTORE PUSH1 0x4 ADD PUSH2 0x48B SWAP4 SWAP3 SWAP2 SWAP1 PUSH2 0x1440 JUMP JUMPDEST PUSH0 PUSH1 0x40 MLOAD DUP1 DUP4 SUB DUP2 PUSH0 DUP8 DUP1 EXTCODESIZE ISZERO DUP1 ISZERO PUSH2 0x4A2 JUMPI PUSH0 DUP1 REVERT JUMPDEST POP GAS CALL ISZERO DUP1 ISZERO PUSH2 0x4B4 JUMPI RETURNDATASIZE PUSH0 DUP1 RETURNDATACOPY RETURNDATASIZE PUSH0 REVERT JUMPDEST POP POP POP POP POP POP POP POP JUMP JUMPDEST PUSH1 0x60 PUSH2 0x4E1 DUP3 PUSH20 0xFFFFFFFFFFFFFFFFFFFFFFFFFFFFFFFFFFFFFFFF AND PUSH1 0x14 PUSH2 0xAEB JUMP JUMPDEST SWAP1 POP SWAP2 SWAP1 POP JUMP JUMPDEST PUSH1 0x60 PUSH2 0x52A PUSH1 0x40 MLOAD DUP1 PUSH1 0x40 ADD PUSH1 0x40 MSTORE DUP1 PUSH1 0x11 DUP2 MSTORE PUSH1 0x20 ADD PUSH32 0x737573755F67726F7570735F7461626C65000000000000000000000000000000 DUP2 MSTORE POP PUSH0 SLOAD PUSH2 0xD29 JUMP JUMPDEST SWAP1 POP SWAP1 JUMP JUMPDEST PUSH0 DUP1 SLOAD SWAP1 POP SWAP1 JUMP JUMPDEST PUSH2 0x53F PUSH2 0x7F7 JUMP JUMPDEST PUSH20 0xFFFFFFFFFFFFFFFFFFFFFFFFFFFFFFFFFFFFFFFF AND PUSH4 0xA15AB08D ADDRESS PUSH2 0x5B2 PUSH1 0x40 MLOAD DUP1 PUSH1 0x60 ADD PUSH1 0x40 MSTORE DUP1 PUSH1 0x30 DUP2 MSTORE PUSH1 0x20 ADD PUSH2 0x1C66 PUSH1 0x30 SWAP2 CODECOPY PUSH1 0x40 MLOAD DUP1 PUSH1 0x40 ADD PUSH1 0x40 MSTORE DUP1 PUSH1 0x11 DUP2 MSTORE PUSH1 0x20 ADD PUSH32 0x737573755F67726F7570735F7461626C65000000000000000000000000000000 DUP2 MSTORE POP PUSH2 0xD67 JUMP JUMPDEST PUSH1 0x40 MLOAD DUP4 PUSH4 0xFFFFFFFF AND PUSH1 0xE0 SHL DUP2 MSTORE PUSH1 0x4 ADD PUSH2 0x5CF SWAP3 SWAP2 SWAP1 PUSH2 0x1599 JUMP JUMPDEST PUSH1 0x20 PUSH1 0x40 MLOAD DUP1 DUP4 SUB DUP2 PUSH0 DUP8 GAS CALL ISZERO DUP1 ISZERO PUSH2 0x5EB JUMPI RETURNDATASIZE PUSH0 DUP1 RETURNDATACOPY RETURNDATASIZE PUSH0 REVERT JUMPDEST POP POP POP POP PUSH1 0x40 MLOAD RETURNDATASIZE PUSH1 0x1F NOT PUSH1 0x1F DUP3 ADD AND DUP3 ADD DUP1 PUSH1 0x40 MSTORE POP DUP2 ADD SWAP1 PUSH2 0x60F SWAP2 SWAP1 PUSH2 0x15DB JUMP JUMPDEST PUSH0 DUP2 SWAP1 SSTORE POP JUMP JUMPDEST PUSH0 PUSH2 0x628 PUSH2 0x623 DUP4 PUSH2 0xA57 JUMP JUMPDEST PUSH2 0xA84 JUMP JUMPDEST PUSH1 0x40 MLOAD PUSH1 0x20 ADD PUSH2 0x638 SWAP2 SWAP1 PUSH2 0x162C JUMP JUMPDEST PUSH1 0x40 MLOAD PUSH1 0x20 DUP2 DUP4 SUB SUB DUP2 MSTORE SWAP1 PUSH1 0x40 MSTORE SWAP1 POP PUSH0 PUSH2 0x653 DUP5 PUSH2 0x72D JUMP JUMPDEST PUSH1 0x40 MLOAD PUSH1 0x20 ADD PUSH2 0x663 SWAP2 SWAP1 PUSH2 0x140C JUMP JUMPDEST PUSH1 0x40 MLOAD PUSH1 0x20 DUP2 DUP4 SUB SUB DUP2 MSTORE SWAP1 PUSH1 0x40 MSTORE SWAP1 POP PUSH2 0x67C PUSH2 0x7F7 JUMP JUMPDEST PUSH20 0xFFFFFFFFFFFFFFFFFFFFFFFFFFFFFFFFFFFFFFFF AND PUSH4 0x377AF0DA ADDRESS PUSH0 SLOAD PUSH2 0x6DC PUSH1 0x40 MLOAD DUP1 PUSH1 0x40 ADD PUSH1 0x40 MSTORE DUP1 PUSH1 0x11 DUP2 MSTORE PUSH1 0x20 ADD PUSH32 0x737573755F67726F7570735F7461626C65000000000000000000000000000000 DUP2 MSTORE POP PUSH0 SLOAD DUP9 DUP9 PUSH2 0xD9D JUMP JUMPDEST PUSH1 0x40 MLOAD DUP5 PUSH4 0xFFFFFFFF AND PUSH1 0xE0 SHL DUP2 MSTORE PUSH1 0x4 ADD PUSH2 0x6FA SWAP4 SWAP3 SWAP2 SWAP1 PUSH2 0x1440 JUMP JUMPDEST PUSH0 PUSH1 0x40 MLOAD DUP1 DUP4 SUB DUP2 PUSH0 DUP8 DUP1 EXTCODESIZE ISZERO DUP1 ISZERO PUSH2 0x711 JUMPI PUSH0 DUP1 REVERT JUMPDEST POP GAS CALL ISZERO DUP1 ISZERO PUSH2 0x723 JUMPI RETURNDATASIZE PUSH0 DUP1 RETURNDATACOPY RETURNDATASIZE PUSH0 REVERT JUMPDEST POP POP POP POP POP POP POP POP JUMP JUMPDEST PUSH1 0x60 PUSH0 PUSH1 0x1 PUSH2 0x73B DUP5 PUSH2 0xE1A JUMP JUMPDEST ADD SWAP1 POP PUSH0 DUP2 PUSH8 0xFFFFFFFFFFFFFFFF DUP2 GT ISZERO PUSH2 0x759 JUMPI PUSH2 0x758 PUSH2 0x104C JUMP JUMPDEST JUMPDEST PUSH1 0x40 MLOAD SWAP1 DUP1 DUP3 MSTORE DUP1 PUSH1 0x1F ADD PUSH1 0x1F NOT AND PUSH1 0x20 ADD DUP3 ADD PUSH1 0x40 MSTORE DUP1 ISZERO PUSH2 0x78B JUMPI DUP2 PUSH1 0x20 ADD PUSH1 0x1 DUP3 MUL DUP1 CALLDATASIZE DUP4 CALLDATACOPY DUP1 DUP3 ADD SWAP2 POP POP SWAP1 POP JUMPDEST POP SWAP1 POP PUSH0 DUP3 PUSH1 0x20 ADD DUP3 ADD SWAP1 POP JUMPDEST PUSH1 0x1 ISZERO PUSH2 0x7EC JUMPI DUP1 DUP1 PUSH1 0x1 SWAP1 SUB SWAP2 POP POP PUSH32 0x3031323334353637383961626364656600000000000000000000000000000000 PUSH1 0xA DUP7 MOD BYTE DUP2 MSTORE8 PUSH1 0xA DUP6 DUP2 PUSH2 0x7E1 JUMPI PUSH2 0x7E0 PUSH2 0x1651 JUMP JUMPDEST JUMPDEST DIV SWAP5 POP PUSH0 DUP6 SUB PUSH2 0x798 JUMPI JUMPDEST DUP2 SWAP4 POP POP POP POP SWAP2 SWAP1 POP JUMP JUMPDEST PUSH0 PUSH1 0x1 CHAINID SUB PUSH2 0x81C JUMPI PUSH20 0x12969F7E3439A9B04025B5A049EB9BAD82A8C12 SWAP1 POP PUSH2 0xA19 JUMP JUMPDEST PUSH1 0xA CHAINID SUB PUSH2 0x840 JUMPI PUSH20 0xFAD44BF5B843DE943A09D4F3E84949A11D3AA3E6 SWAP1 POP PUSH2 0xA19 JUMP JUMPDEST PUSH2 0xA4B1 CHAINID SUB PUSH2 0x865 JUMPI PUSH20 0x9ABD75E8640871A5A20D3B4EE6330A04C962AFFD SWAP1 POP PUSH2 0xA19 JUMP JUMPDEST PUSH2 0xA4BA CHAINID SUB PUSH2 0x88A JUMPI PUSH20 0x1A22854C5B1642760A827F20137A67930AE108D2 SWAP1 POP PUSH2 0xA19 JUMP JUMPDEST PUSH1 0x89 CHAINID SUB PUSH2 0x8AE JUMPI PUSH20 0x5C4E6A9E5C1E1BF445A062006FAF19EA6C49AFEA SWAP1 POP PUSH2 0xA19 JUMP JUMPDEST PUSH2 0x13A CHAINID SUB PUSH2 0x8D3 JUMPI PUSH20 0x59EF8BF2D6C102B4C42AEF9189E1A9F0ABFD652D SWAP1 POP PUSH2 0xA19 JUMP JUMPDEST PUSH3 0xAA36A7 CHAINID SUB PUSH2 0x8F9 JUMPI PUSH20 0xC50C62498448ACC8DBDE43DA77F8D5D2E2C7597D SWAP1 POP PUSH2 0xA19 JUMP JUMPDEST PUSH3 0xAA37DC CHAINID SUB PUSH2 0x91F JUMPI PUSH20 0x68A2F4423AD3BF5139DB563CF3BC80AA09ED7079 SWAP1 POP PUSH2 0xA19 JUMP JUMPDEST PUSH3 0x66EEE CHAINID SUB PUSH2 0x945 JUMPI PUSH20 0x223A74B8323914AFDC3FF1E5005564DC17231D6E SWAP1 POP PUSH2 0xA19 JUMP JUMPDEST PUSH3 0x14A34 CHAINID SUB PUSH2 0x96B JUMPI PUSH20 0xA85AAE9F0AEC5F5638E5F13840797303AB29C9F9 SWAP1 POP PUSH2 0xA19 JUMP JUMPDEST PUSH3 0x13882 CHAINID SUB PUSH2 0x991 JUMPI PUSH20 0x170FB206132B693E38ADFC8727DCFA303546CEC1 SWAP1 POP PUSH2 0xA19 JUMP JUMPDEST PUSH3 0x4CB2F CHAINID SUB PUSH2 0x9B7 JUMPI PUSH20 0x30BCF3D50CAD04C2E57391B12740982A9308621 SWAP1 POP PUSH2 0xA19 JUMP JUMPDEST PUSH2 0x7A69 CHAINID SUB PUSH2 0x9DC JUMPI PUSH20 0xE7F1725E7734CE288F8367E1BB143E90BB3F0512 SWAP1 POP PUSH2 0xA19 JUMP JUMPDEST CHAINID PUSH1 0x40 MLOAD PUSH32 0x264E42CF00000000000000000000000000000000000000000000000000000000 DUP2 MSTORE PUSH1 0x4 ADD PUSH2 0xA10 SWAP2 SWAP1 PUSH2 0x1355 JUMP JUMPDEST PUSH1 0x40 MLOAD DUP1 SWAP2 SUB SWAP1 REVERT JUMPDEST SWAP1 JUMP JUMPDEST PUSH1 0x60 PUSH0 PUSH2 0xA29 DUP6 DUP6 PUSH2 0xD29 JUMP JUMPDEST SWAP1 POP DUP1 DUP4 PUSH1 0x40 MLOAD PUSH1 0x20 ADD PUSH2 0xA3E SWAP3 SWAP2 SWAP1 PUSH2 0x1712 JUMP JUMPDEST PUSH1 0x40 MLOAD PUSH1 0x20 DUP2 DUP4 SUB SUB DUP2 MSTORE SWAP1 PUSH1 0x40 MSTORE SWAP2 POP POP SWAP4 SWAP3 POP POP POP JUMP JUMPDEST PUSH1 0x60 PUSH2 0xA7D DUP3 PUSH20 0xFFFFFFFFFFFFFFFFFFFFFFFFFFFFFFFFFFFFFFFF AND PUSH1 0x14 PUSH1 0xFF AND PUSH2 0xAEB JUMP JUMPDEST SWAP1 POP SWAP2 SWAP1 POP JUMP JUMPDEST PUSH1 0x60 DUP2 PUSH1 0x40 MLOAD PUSH1 0x20 ADD PUSH2 0xA97 SWAP2 SWAP1 PUSH2 0x1795 JUMP JUMPDEST PUSH1 0x40 MLOAD PUSH1 0x20 DUP2 DUP4 SUB SUB DUP2 MSTORE SWAP1 PUSH1 0x40 MSTORE SWAP1 POP SWAP2 SWAP1 POP JUMP JUMPDEST PUSH1 0x60 PUSH0 PUSH2 0xABA DUP7 DUP7 PUSH2 0xD29 JUMP JUMPDEST SWAP1 POP DUP1 DUP5 DUP5 PUSH1 0x40 MLOAD PUSH1 0x20 ADD PUSH2 0xAD1 SWAP4 SWAP3 SWAP2 SWAP1 PUSH2 0x18E9 JUMP JUMPDEST PUSH1 0x40 MLOAD PUSH1 0x20 DUP2 DUP4 SUB SUB DUP2 MSTORE SWAP1 PUSH1 0x40 MSTORE SWAP2 POP POP SWAP5 SWAP4 POP POP POP POP JUMP JUMPDEST PUSH1 0x60 PUSH0 DUP4 SWAP1 POP PUSH0 PUSH1 0x2 DUP5 PUSH1 0x2 PUSH2 0xB01 SWAP2 SWAP1 PUSH2 0x1945 JUMP JUMPDEST PUSH2 0xB0B SWAP2 SWAP1 PUSH2 0x1986 JUMP JUMPDEST PUSH8 0xFFFFFFFFFFFFFFFF DUP2 GT ISZERO PUSH2 0xB24 JUMPI PUSH2 0xB23 PUSH2 0x104C JUMP JUMPDEST JUMPDEST PUSH1 0x40 MLOAD SWAP1 DUP1 DUP3 MSTORE DUP1 PUSH1 0x1F ADD PUSH1 0x1F NOT AND PUSH1 0x20 ADD DUP3 ADD PUSH1 0x40 MSTORE DUP1 ISZERO PUSH2 0xB56 JUMPI DUP2 PUSH1 0x20 ADD PUSH1 0x1 DUP3 MUL DUP1 CALLDATASIZE DUP4 CALLDATACOPY DUP1 DUP3 ADD SWAP2 POP POP SWAP1 POP JUMPDEST POP SWAP1 POP PUSH32 0x3000000000000000000000000000000000000000000000000000000000000000 DUP2 PUSH0 DUP2 MLOAD DUP2 LT PUSH2 0xB8D JUMPI PUSH2 0xB8C PUSH2 0x19B9 JUMP JUMPDEST JUMPDEST PUSH1 0x20 ADD ADD SWAP1 PUSH31 0xFFFFFFFFFFFFFFFFFFFFFFFFFFFFFFFFFFFFFFFFFFFFFFFFFFFFFFFFFFFFFF NOT AND SWAP1 DUP2 PUSH0 BYTE SWAP1 MSTORE8 POP PUSH32 0x7800000000000000000000000000000000000000000000000000000000000000 DUP2 PUSH1 0x1 DUP2 MLOAD DUP2 LT PUSH2 0xBF0 JUMPI PUSH2 0xBEF PUSH2 0x19B9 JUMP JUMPDEST JUMPDEST PUSH1 0x20 ADD ADD SWAP1 PUSH31 0xFFFFFFFFFFFFFFFFFFFFFFFFFFFFFFFFFFFFFFFFFFFFFFFFFFFFFFFFFFFFFF NOT AND SWAP1 DUP2 PUSH0 BYTE SWAP1 MSTORE8 POP PUSH0 PUSH1 0x1 DUP6 PUSH1 0x2 PUSH2 0xC2E SWAP2 SWAP1 PUSH2 0x1945 JUMP JUMPDEST PUSH2 0xC38 SWAP2 SWAP1 PUSH2 0x1986 JUMP JUMPDEST SWAP1 POP JUMPDEST PUSH1 0x1 DUP2 GT ISZERO PUSH2 0xCD7 JUMPI PUSH32 0x3031323334353637383961626364656600000000000000000000000000000000 PUSH1 0xF DUP5 AND PUSH1 0x10 DUP2 LT PUSH2 0xC7A JUMPI PUSH2 0xC79 PUSH2 0x19B9 JUMP JUMPDEST JUMPDEST BYTE PUSH1 0xF8 SHL DUP3 DUP3 DUP2 MLOAD DUP2 LT PUSH2 0xC91 JUMPI PUSH2 0xC90 PUSH2 0x19B9 JUMP JUMPDEST JUMPDEST PUSH1 0x20 ADD ADD SWAP1 PUSH31 0xFFFFFFFFFFFFFFFFFFFFFFFFFFFFFFFFFFFFFFFFFFFFFFFFFFFFFFFFFFFFFF NOT AND SWAP1 DUP2 PUSH0 BYTE SWAP1 MSTORE8 POP PUSH1 0x4 DUP4 SWAP1 SHR SWAP3 POP DUP1 PUSH2 0xCD0 SWAP1 PUSH2 0x19E6 JUMP JUMPDEST SWAP1 POP PUSH2 0xC3B JUMP JUMPDEST POP PUSH0 DUP3 EQ PUSH2 0xD1E JUMPI DUP5 DUP5 PUSH1 0x40 MLOAD PUSH32 0xE22E27EB00000000000000000000000000000000000000000000000000000000 DUP2 MSTORE PUSH1 0x4 ADD PUSH2 0xD15 SWAP3 SWAP2 SWAP1 PUSH2 0x1A0D JUMP JUMPDEST PUSH1 0x40 MLOAD DUP1 SWAP2 SUB SWAP1 REVERT JUMPDEST DUP1 SWAP3 POP POP POP SWAP3 SWAP2 POP POP JUMP JUMPDEST PUSH1 0x60 DUP3 PUSH2 0xD35 CHAINID PUSH2 0x72D JUMP JUMPDEST PUSH2 0xD3E DUP5 PUSH2 0x72D JUMP JUMPDEST PUSH1 0x40 MLOAD PUSH1 0x20 ADD PUSH2 0xD50 SWAP4 SWAP3 SWAP2 SWAP1 PUSH2 0x1A7E JUMP JUMPDEST PUSH1 0x40 MLOAD PUSH1 0x20 DUP2 DUP4 SUB SUB DUP2 MSTORE SWAP1 PUSH1 0x40 MSTORE SWAP1 POP SWAP3 SWAP2 POP POP JUMP JUMPDEST PUSH1 0x60 DUP2 PUSH2 0xD73 CHAINID PUSH2 0x72D JUMP JUMPDEST DUP5 PUSH1 0x40 MLOAD PUSH1 0x20 ADD PUSH2 0xD86 SWAP4 SWAP3 SWAP2 SWAP1 PUSH2 0x1B0E JUMP JUMPDEST PUSH1 0x40 MLOAD PUSH1 0x20 DUP2 DUP4 SUB SUB DUP2 MSTORE SWAP1 PUSH1 0x40 MSTORE SWAP1 POP SWAP3 SWAP2 POP POP JUMP JUMPDEST PUSH1 0x60 PUSH0 PUSH2 0xDAA DUP7 DUP7 PUSH2 0xD29 JUMP JUMPDEST SWAP1 POP PUSH0 PUSH1 0x40 MLOAD DUP1 PUSH1 0x20 ADD PUSH1 0x40 MSTORE DUP1 PUSH0 DUP2 MSTORE POP SWAP1 POP PUSH0 DUP5 MLOAD GT ISZERO PUSH2 0xDEA JUMPI DUP4 PUSH1 0x40 MLOAD PUSH1 0x20 ADD PUSH2 0xDD8 SWAP2 SWAP1 PUSH2 0x1B6A JUMP JUMPDEST PUSH1 0x40 MLOAD PUSH1 0x20 DUP2 DUP4 SUB SUB DUP2 MSTORE SWAP1 PUSH1 0x40 MSTORE SWAP1 POP JUMPDEST DUP2 DUP6 DUP3 PUSH1 0x40 MLOAD PUSH1 0x20 ADD PUSH2 0xDFF SWAP4 SWAP3 SWAP2 SWAP1 PUSH2 0x1C1F JUMP JUMPDEST PUSH1 0x40 MLOAD PUSH1 0x20 DUP2 DUP4 SUB SUB DUP2 MSTORE SWAP1 PUSH1 0x40 MSTORE SWAP3 POP POP POP SWAP5 SWAP4 POP POP POP POP JUMP JUMPDEST PUSH0 DUP1 PUSH0 SWAP1 POP PUSH27 0x184F03E93FF9F4DAA797ED6E38ED64BF6A1F010000000000000000 DUP4 LT PUSH2 0xE76 JUMPI PUSH27 0x184F03E93FF9F4DAA797ED6E38ED64BF6A1F010000000000000000 DUP4 DUP2 PUSH2 0xE6C JUMPI PUSH2 0xE6B PUSH2 0x1651 JUMP JUMPDEST JUMPDEST DIV SWAP3 POP PUSH1 0x40 DUP2 ADD SWAP1 POP JUMPDEST PUSH14 0x4EE2D6D415B85ACEF8100000000 DUP4 LT PUSH2 0xEB3 JUMPI PUSH14 0x4EE2D6D415B85ACEF8100000000 DUP4 DUP2 PUSH2 0xEA9 JUMPI PUSH2 0xEA8 PUSH2 0x1651 JUMP JUMPDEST JUMPDEST DIV SWAP3 POP PUSH1 0x20 DUP2 ADD SWAP1 POP JUMPDEST PUSH7 0x2386F26FC10000 DUP4 LT PUSH2 0xEE2 JUMPI PUSH7 0x2386F26FC10000 DUP4 DUP2 PUSH2 0xED8 JUMPI PUSH2 0xED7 PUSH2 0x1651 JUMP JUMPDEST JUMPDEST DIV SWAP3 POP PUSH1 0x10 DUP2 ADD SWAP1 POP JUMPDEST PUSH4 0x5F5E100 DUP4 LT PUSH2 0xF0B JUMPI PUSH4 0x5F5E100 DUP4 DUP2 PUSH2 0xF01 JUMPI PUSH2 0xF00 PUSH2 0x1651 JUMP JUMPDEST JUMPDEST DIV SWAP3 POP PUSH1 0x8 DUP2 ADD SWAP1 POP JUMPDEST PUSH2 0x2710 DUP4 LT PUSH2 0xF30 JUMPI PUSH2 0x2710 DUP4 DUP2 PUSH2 0xF26 JUMPI PUSH2 0xF25 PUSH2 0x1651 JUMP JUMPDEST JUMPDEST DIV SWAP3 POP PUSH1 0x4 DUP2 ADD SWAP1 POP JUMPDEST PUSH1 0x64 DUP4 LT PUSH2 0xF53 JUMPI PUSH1 0x64 DUP4 DUP2 PUSH2 0xF49 JUMPI PUSH2 0xF48 PUSH2 0x1651 JUMP JUMPDEST JUMPDEST DIV SWAP3 POP PUSH1 0x2 DUP2 ADD SWAP1 POP JUMPDEST PUSH1 0xA DUP4 LT PUSH2 0xF62 JUMPI PUSH1 0x1 DUP2 ADD SWAP1 POP JUMPDEST DUP1 SWAP2 POP POP SWAP2 SWAP1 POP JUMP JUMPDEST PUSH0 PUSH1 0x40 MLOAD SWAP1 POP SWAP1 JUMP JUMPDEST PUSH0 DUP1 REVERT JUMPDEST PUSH0 DUP1 REVERT JUMPDEST PUSH0 DUP2 SWAP1 POP SWAP2 SWAP1 POP JUMP JUMPDEST PUSH2 0xF8E DUP2 PUSH2 0xF7C JUMP JUMPDEST DUP2 EQ PUSH2 0xF98 JUMPI PUSH0 DUP1 REVERT JUMPDEST POP JUMP JUMPDEST PUSH0 DUP2 CALLDATALOAD SWAP1 POP PUSH2 0xFA9 DUP2 PUSH2 0xF85 JUMP JUMPDEST SWAP3 SWAP2 POP POP JUMP JUMPDEST PUSH0 PUSH1 0x20 DUP3 DUP5 SUB SLT ISZERO PUSH2 0xFC4 JUMPI PUSH2 0xFC3 PUSH2 0xF74 JUMP JUMPDEST JUMPDEST PUSH0 PUSH2 0xFD1 DUP5 DUP3 DUP6 ADD PUSH2 0xF9B JUMP JUMPDEST SWAP2 POP POP SWAP3 SWAP2 POP POP JUMP JUMPDEST PUSH0 PUSH20 0xFFFFFFFFFFFFFFFFFFFFFFFFFFFFFFFFFFFFFFFF DUP3 AND SWAP1 POP SWAP2 SWAP1 POP JUMP JUMPDEST PUSH0 PUSH2 0x1003 DUP3 PUSH2 0xFDA JUMP JUMPDEST SWAP1 POP SWAP2 SWAP1 POP JUMP JUMPDEST PUSH2 0x1013 DUP2 PUSH2 0xFF9 JUMP JUMPDEST DUP2 EQ PUSH2 0x101D JUMPI PUSH0 DUP1 REVERT JUMPDEST POP JUMP JUMPDEST PUSH0 DUP2 CALLDATALOAD SWAP1 POP PUSH2 0x102E DUP2 PUSH2 0x100A JUMP JUMPDEST SWAP3 SWAP2 POP POP JUMP JUMPDEST PUSH0 DUP1 REVERT JUMPDEST PUSH0 DUP1 REVERT JUMPDEST PUSH0 PUSH1 0x1F NOT PUSH1 0x1F DUP4 ADD AND SWAP1 POP SWAP2 SWAP1 POP JUMP JUMPDEST PUSH32 0x4E487B7100000000000000000000000000000000000000000000000000000000 PUSH0 MSTORE PUSH1 0x41 PUSH1 0x4 MSTORE PUSH1 0x24 PUSH0 REVERT JUMPDEST PUSH2 0x1082 DUP3 PUSH2 0x103C JUMP JUMPDEST DUP2 ADD DUP2 DUP2 LT PUSH8 0xFFFFFFFFFFFFFFFF DUP3 GT OR ISZERO PUSH2 0x10A1 JUMPI PUSH2 0x10A0 PUSH2 0x104C JUMP JUMPDEST JUMPDEST DUP1 PUSH1 0x40 MSTORE POP POP POP JUMP JUMPDEST PUSH0 PUSH2 0x10B3 PUSH2 0xF6B JUMP JUMPDEST SWAP1 POP PUSH2 0x10BF DUP3 DUP3 PUSH2 0x1079 JUMP JUMPDEST SWAP2 SWAP1 POP JUMP JUMPDEST PUSH0 PUSH8 0xFFFFFFFFFFFFFFFF DUP3 GT ISZERO PUSH2 0x10DE JUMPI PUSH2 0x10DD PUSH2 0x104C JUMP JUMPDEST JUMPDEST PUSH2 0x10E7 DUP3 PUSH2 0x103C JUMP JUMPDEST SWAP1 POP PUSH1 0x20 DUP2 ADD SWAP1 POP SWAP2 SWAP1 POP JUMP JUMPDEST DUP3 DUP2 DUP4 CALLDATACOPY PUSH0 DUP4 DUP4 ADD MSTORE POP POP POP JUMP JUMPDEST PUSH0 PUSH2 0x1114 PUSH2 0x110F DUP5 PUSH2 0x10C4 JUMP JUMPDEST PUSH2 0x10AA JUMP JUMPDEST SWAP1 POP DUP3 DUP2 MSTORE PUSH1 0x20 DUP2 ADD DUP5 DUP5 DUP5 ADD GT ISZERO PUSH2 0x1130 JUMPI PUSH2 0x112F PUSH2 0x1038 JUMP JUMPDEST JUMPDEST PUSH2 0x113B DUP5 DUP3 DUP6 PUSH2 0x10F4 JUMP JUMPDEST POP SWAP4 SWAP3 POP POP POP JUMP JUMPDEST PUSH0 DUP3 PUSH1 0x1F DUP4 ADD SLT PUSH2 0x1157 JUMPI PUSH2 0x1156 PUSH2 0x1034 JUMP JUMPDEST JUMPDEST DUP2 CALLDATALOAD PUSH2 0x1167 DUP5 DUP3 PUSH1 0x20 DUP7 ADD PUSH2 0x1102 JUMP JUMPDEST SWAP2 POP POP SWAP3 SWAP2 POP POP JUMP JUMPDEST PUSH0 DUP1 PUSH0 DUP1 PUSH1 0x80 DUP6 DUP8 SUB SLT ISZERO PUSH2 0x1188 JUMPI PUSH2 0x1187 PUSH2 0xF74 JUMP JUMPDEST JUMPDEST PUSH0 PUSH2 0x1195 DUP8 DUP3 DUP9 ADD PUSH2 0x1020 JUMP JUMPDEST SWAP5 POP POP PUSH1 0x20 PUSH2 0x11A6 DUP8 DUP3 DUP9 ADD PUSH2 0x1020 JUMP JUMPDEST SWAP4 POP POP PUSH1 0x40 PUSH2 0x11B7 DUP8 DUP3 DUP9 ADD PUSH2 0xF9B JUMP JUMPDEST SWAP3 POP POP PUSH1 0x60 DUP6 ADD CALLDATALOAD PUSH8 0xFFFFFFFFFFFFFFFF DUP2 GT ISZERO PUSH2 0x11D8 JUMPI PUSH2 0x11D7 PUSH2 0xF78 JUMP JUMPDEST JUMPDEST PUSH2 0x11E4 DUP8 DUP3 DUP9 ADD PUSH2 0x1143 JUMP JUMPDEST SWAP2 POP POP SWAP3 SWAP6 SWAP2 SWAP5 POP SWAP3 POP JUMP JUMPDEST PUSH0 PUSH32 0xFFFFFFFF00000000000000000000000000000000000000000000000000000000 DUP3 AND SWAP1 POP SWAP2 SWAP1 POP JUMP JUMPDEST PUSH2 0x1224 DUP2 PUSH2 0x11F0 JUMP JUMPDEST DUP3 MSTORE POP POP JUMP JUMPDEST PUSH0 PUSH1 0x20 DUP3 ADD SWAP1 POP PUSH2 0x123D PUSH0 DUP4 ADD DUP5 PUSH2 0x121B JUMP JUMPDEST SWAP3 SWAP2 POP POP JUMP JUMPDEST PUSH0 PUSH1 0x20 DUP3 DUP5 SUB SLT ISZERO PUSH2 0x1258 JUMPI PUSH2 0x1257 PUSH2 0xF74 JUMP JUMPDEST JUMPDEST PUSH0 PUSH2 0x1265 DUP5 DUP3 DUP6 ADD PUSH2 0x1020 JUMP JUMPDEST SWAP2 POP POP SWAP3 SWAP2 POP POP JUMP JUMPDEST PUSH0 DUP1 PUSH1 0x40 DUP4 DUP6 SUB SLT ISZERO PUSH2 0x1284 JUMPI PUSH2 0x1283 PUSH2 0xF74 JUMP JUMPDEST JUMPDEST PUSH0 PUSH2 0x1291 DUP6 DUP3 DUP7 ADD PUSH2 0x1020 JUMP JUMPDEST SWAP3 POP POP PUSH1 0x20 PUSH2 0x12A2 DUP6 DUP3 DUP7 ADD PUSH2 0x1020 JUMP JUMPDEST SWAP2 POP POP SWAP3 POP SWAP3 SWAP1 POP JUMP JUMPDEST PUSH0 DUP2 MLOAD SWAP1 POP SWAP2 SWAP1 POP JUMP JUMPDEST PUSH0 DUP3 DUP3 MSTORE PUSH1 0x20 DUP3 ADD SWAP1 POP SWAP3 SWAP2 POP POP JUMP JUMPDEST PUSH0 JUMPDEST DUP4 DUP2 LT ISZERO PUSH2 0x12E3 JUMPI DUP1 DUP3 ADD MLOAD DUP2 DUP5 ADD MSTORE PUSH1 0x20 DUP2 ADD SWAP1 POP PUSH2 0x12C8 JUMP JUMPDEST PUSH0 DUP5 DUP5 ADD MSTORE POP POP POP POP JUMP JUMPDEST PUSH0 PUSH2 0x12F8 DUP3 PUSH2 0x12AC JUMP JUMPDEST PUSH2 0x1302 DUP2 DUP6 PUSH2 0x12B6 JUMP JUMPDEST SWAP4 POP PUSH2 0x1312 DUP2 DUP6 PUSH1 0x20 DUP7 ADD PUSH2 0x12C6 JUMP JUMPDEST PUSH2 0x131B DUP2 PUSH2 0x103C JUMP JUMPDEST DUP5 ADD SWAP2 POP POP SWAP3 SWAP2 POP POP JUMP JUMPDEST PUSH0 PUSH1 0x20 DUP3 ADD SWAP1 POP DUP2 DUP2 SUB PUSH0 DUP4 ADD MSTORE PUSH2 0x133E DUP2 DUP5 PUSH2 0x12EE JUMP JUMPDEST SWAP1 POP SWAP3 SWAP2 POP POP JUMP JUMPDEST PUSH2 0x134F DUP2 PUSH2 0xF7C JUMP JUMPDEST DUP3 MSTORE POP POP JUMP JUMPDEST PUSH0 PUSH1 0x20 DUP3 ADD SWAP1 POP PUSH2 0x1368 PUSH0 DUP4 ADD DUP5 PUSH2 0x1346 JUMP JUMPDEST SWAP3 SWAP2 POP POP JUMP JUMPDEST PUSH0 DUP1 PUSH1 0x40 DUP4 DUP6 SUB SLT ISZERO PUSH2 0x1384 JUMPI PUSH2 0x1383 PUSH2 0xF74 JUMP JUMPDEST JUMPDEST PUSH0 PUSH2 0x1391 DUP6 DUP3 DUP7 ADD PUSH2 0xF9B JUMP JUMPDEST SWAP3 POP POP PUSH1 0x20 PUSH2 0x13A2 DUP6 DUP3 DUP7 ADD PUSH2 0x1020 JUMP JUMPDEST SWAP2 POP POP SWAP3 POP SWAP3 SWAP1 POP JUMP JUMPDEST PUSH32 0x69643D0000000000000000000000000000000000000000000000000000000000 DUP2 MSTORE POP JUMP JUMPDEST PUSH0 DUP2 SWAP1 POP SWAP3 SWAP2 POP POP JUMP JUMPDEST PUSH0 PUSH2 0x13E6 DUP3 PUSH2 0x12AC JUMP JUMPDEST PUSH2 0x13F0 DUP2 DUP6 PUSH2 0x13D2 JUMP JUMPDEST SWAP4 POP PUSH2 0x1400 DUP2 DUP6 PUSH1 0x20 DUP7 ADD PUSH2 0x12C6 JUMP JUMPDEST DUP1 DUP5 ADD SWAP2 POP POP SWAP3 SWAP2 POP POP JUMP JUMPDEST PUSH0 PUSH2 0x1416 DUP3 PUSH2 0x13AC JUMP JUMPDEST PUSH1 0x3 DUP3 ADD SWAP2 POP PUSH2 0x1426 DUP3 DUP5 PUSH2 0x13DC JUMP JUMPDEST SWAP2 POP DUP2 SWAP1 POP SWAP3 SWAP2 POP POP JUMP JUMPDEST PUSH2 0x143A DUP2 PUSH2 0xFF9 JUMP JUMPDEST DUP3 MSTORE POP POP JUMP JUMPDEST PUSH0 PUSH1 0x60 DUP3 ADD SWAP1 POP PUSH2 0x1453 PUSH0 DUP4 ADD DUP7 PUSH2 0x1431 JUMP JUMPDEST PUSH2 0x1460 PUSH1 0x20 DUP4 ADD DUP6 PUSH2 0x1346 JUMP JUMPDEST DUP2 DUP2 SUB PUSH1 0x40 DUP4 ADD MSTORE PUSH2 0x1472 DUP2 DUP5 PUSH2 0x12EE JUMP JUMPDEST SWAP1 POP SWAP5 SWAP4 POP POP POP POP JUMP JUMPDEST PUSH0 PUSH1 0x60 DUP3 ADD SWAP1 POP PUSH2 0x148F PUSH0 DUP4 ADD DUP7 PUSH2 0x1431 JUMP JUMPDEST PUSH2 0x149C PUSH1 0x20 DUP4 ADD DUP6 PUSH2 0x1346 JUMP JUMPDEST PUSH2 0x14A9 PUSH1 0x40 DUP4 ADD DUP5 PUSH2 0x1431 JUMP JUMPDEST SWAP5 SWAP4 POP POP POP POP JUMP JUMPDEST PUSH32 0x4E487B7100000000000000000000000000000000000000000000000000000000 PUSH0 MSTORE PUSH1 0x11 PUSH1 0x4 MSTORE PUSH1 0x24 PUSH0 REVERT JUMPDEST PUSH0 PUSH2 0x14E8 DUP3 PUSH2 0xF7C JUMP JUMPDEST SWAP2 POP PUSH32 0xFFFFFFFFFFFFFFFFFFFFFFFFFFFFFFFFFFFFFFFFFFFFFFFFFFFFFFFFFFFFFFFF DUP3 SUB PUSH2 0x151A JUMPI PUSH2 0x1519 PUSH2 0x14B1 JUMP JUMPDEST JUMPDEST PUSH1 0x1 DUP3 ADD SWAP1 POP SWAP2 SWAP1 POP JUMP JUMPDEST PUSH32 0x2C00000000000000000000000000000000000000000000000000000000000000 DUP2 MSTORE POP JUMP JUMPDEST PUSH0 PUSH2 0x1556 DUP3 DUP7 PUSH2 0x13DC JUMP JUMPDEST SWAP2 POP PUSH2 0x1561 DUP3 PUSH2 0x1525 JUMP JUMPDEST PUSH1 0x1 DUP3 ADD SWAP2 POP PUSH2 0x1571 DUP3 DUP6 PUSH2 0x13DC JUMP JUMPDEST SWAP2 POP PUSH2 0x157C DUP3 PUSH2 0x1525 JUMP JUMPDEST PUSH1 0x1 DUP3 ADD SWAP2 POP PUSH2 0x158C DUP3 DUP5 PUSH2 0x13DC JUMP JUMPDEST SWAP2 POP DUP2 SWAP1 POP SWAP5 SWAP4 POP POP POP POP JUMP JUMPDEST PUSH0 PUSH1 0x40 DUP3 ADD SWAP1 POP PUSH2 0x15AC PUSH0 DUP4 ADD DUP6 PUSH2 0x1431 JUMP JUMPDEST DUP2 DUP2 SUB PUSH1 0x20 DUP4 ADD MSTORE PUSH2 0x15BE DUP2 DUP5 PUSH2 0x12EE JUMP JUMPDEST SWAP1 POP SWAP4 SWAP3 POP POP POP JUMP JUMPDEST PUSH0 DUP2 MLOAD SWAP1 POP PUSH2 0x15D5 DUP2 PUSH2 0xF85 JUMP JUMPDEST SWAP3 SWAP2 POP POP JUMP JUMPDEST PUSH0 PUSH1 0x20 DUP3 DUP5 SUB SLT ISZERO PUSH2 0x15F0 JUMPI PUSH2 0x15EF PUSH2 0xF74 JUMP JUMPDEST JUMPDEST PUSH0 PUSH2 0x15FD DUP5 DUP3 DUP6 ADD PUSH2 0x15C7 JUMP JUMPDEST SWAP2 POP POP SWAP3 SWAP2 POP POP JUMP JUMPDEST PUSH32 0x67726F757049643D000000000000000000000000000000000000000000000000 DUP2 MSTORE POP JUMP JUMPDEST PUSH0 PUSH2 0x1636 DUP3 PUSH2 0x1606 JUMP JUMPDEST PUSH1 0x8 DUP3 ADD SWAP2 POP PUSH2 0x1646 DUP3 DUP5 PUSH2 0x13DC JUMP JUMPDEST SWAP2 POP DUP2 SWAP1 POP SWAP3 SWAP2 POP POP JUMP JUMPDEST PUSH32 0x4E487B7100000000000000000000000000000000000000000000000000000000 PUSH0 MSTORE PUSH1 0x12 PUSH1 0x4 MSTORE PUSH1 0x24 PUSH0 REVERT JUMPDEST PUSH32 0x44454C4554452046524F4D200000000000000000000000000000000000000000 PUSH0 DUP3 ADD MSTORE POP JUMP JUMPDEST PUSH0 PUSH2 0x16B2 PUSH1 0xC DUP4 PUSH2 0x13D2 JUMP JUMPDEST SWAP2 POP PUSH2 0x16BD DUP3 PUSH2 0x167E JUMP JUMPDEST PUSH1 0xC DUP3 ADD SWAP1 POP SWAP2 SWAP1 POP JUMP JUMPDEST PUSH32 0x2057484552452000000000000000000000000000000000000000000000000000 PUSH0 DUP3 ADD MSTORE POP JUMP JUMPDEST PUSH0 PUSH2 0x16FC PUSH1 0x7 DUP4 PUSH2 0x13D2 JUMP JUMPDEST SWAP2 POP PUSH2 0x1707 DUP3 PUSH2 0x16C8 JUMP JUMPDEST PUSH1 0x7 DUP3 ADD SWAP1 POP SWAP2 SWAP1 POP JUMP JUMPDEST PUSH0 PUSH2 0x171C DUP3 PUSH2 0x16A6 JUMP JUMPDEST SWAP2 POP PUSH2 0x1728 DUP3 DUP6 PUSH2 0x13DC JUMP JUMPDEST SWAP2 POP PUSH2 0x1733 DUP3 PUSH2 0x16F0 JUMP JUMPDEST SWAP2 POP PUSH2 0x173F DUP3 DUP5 PUSH2 0x13DC JUMP JUMPDEST SWAP2 POP DUP2 SWAP1 POP SWAP4 SWAP3 POP POP POP JUMP JUMPDEST PUSH32 0x2700000000000000000000000000000000000000000000000000000000000000 PUSH0 DUP3 ADD MSTORE POP JUMP JUMPDEST PUSH0 PUSH2 0x177F PUSH1 0x1 DUP4 PUSH2 0x13D2 JUMP JUMPDEST SWAP2 POP PUSH2 0x178A DUP3 PUSH2 0x174B JUMP JUMPDEST PUSH1 0x1 DUP3 ADD SWAP1 POP SWAP2 SWAP1 POP JUMP JUMPDEST PUSH0 PUSH2 0x179F DUP3 PUSH2 0x1773 JUMP JUMPDEST SWAP2 POP PUSH2 0x17AB DUP3 DUP5 PUSH2 0x13DC JUMP JUMPDEST SWAP2 POP PUSH2 0x17B6 DUP3 PUSH2 0x1773 JUMP JUMPDEST SWAP2 POP DUP2 SWAP1 POP SWAP3 SWAP2 POP POP JUMP JUMPDEST PUSH32 0x494E5345525420494E544F200000000000000000000000000000000000000000 PUSH0 DUP3 ADD MSTORE POP JUMP JUMPDEST PUSH0 PUSH2 0x17F5 PUSH1 0xC DUP4 PUSH2 0x13D2 JUMP JUMPDEST SWAP2 POP PUSH2 0x1800 DUP3 PUSH2 0x17C1 JUMP JUMPDEST PUSH1 0xC DUP3 ADD SWAP1 POP SWAP2 SWAP1 POP JUMP JUMPDEST PUSH32 0x2800000000000000000000000000000000000000000000000000000000000000 PUSH0 DUP3 ADD MSTORE POP JUMP JUMPDEST PUSH0 PUSH2 0x183F PUSH1 0x1 DUP4 PUSH2 0x13D2 JUMP JUMPDEST SWAP2 POP PUSH2 0x184A DUP3 PUSH2 0x180B JUMP JUMPDEST PUSH1 0x1 DUP3 ADD SWAP1 POP SWAP2 SWAP1 POP JUMP JUMPDEST PUSH32 0x2956414C55455328000000000000000000000000000000000000000000000000 PUSH0 DUP3 ADD MSTORE POP JUMP JUMPDEST PUSH0 PUSH2 0x1889 PUSH1 0x8 DUP4 PUSH2 0x13D2 JUMP JUMPDEST SWAP2 POP PUSH2 0x1894 DUP3 PUSH2 0x1855 JUMP JUMPDEST PUSH1 0x8 DUP3 ADD SWAP1 POP SWAP2 SWAP1 POP JUMP JUMPDEST PUSH32 0x2900000000000000000000000000000000000000000000000000000000000000 PUSH0 DUP3 ADD MSTORE POP JUMP JUMPDEST PUSH0 PUSH2 0x18D3 PUSH1 0x1 DUP4 PUSH2 0x13D2 JUMP JUMPDEST SWAP2 POP PUSH2 0x18DE DUP3 PUSH2 0x189F JUMP JUMPDEST PUSH1 0x1 DUP3 ADD SWAP1 POP SWAP2 SWAP1 POP JUMP JUMPDEST PUSH0 PUSH2 0x18F3 DUP3 PUSH2 0x17E9 JUMP JUMPDEST SWAP2 POP PUSH2 0x18FF DUP3 DUP7 PUSH2 0x13DC JUMP JUMPDEST SWAP2 POP PUSH2 0x190A DUP3 PUSH2 0x1833 JUMP JUMPDEST SWAP2 POP PUSH2 0x1916 DUP3 DUP6 PUSH2 0x13DC JUMP JUMPDEST SWAP2 POP PUSH2 0x1921 DUP3 PUSH2 0x187D JUMP JUMPDEST SWAP2 POP PUSH2 0x192D DUP3 DUP5 PUSH2 0x13DC JUMP JUMPDEST SWAP2 POP PUSH2 0x1938 DUP3 PUSH2 0x18C7 JUMP JUMPDEST SWAP2 POP DUP2 SWAP1 POP SWAP5 SWAP4 POP POP POP POP JUMP JUMPDEST PUSH0 PUSH2 0x194F DUP3 PUSH2 0xF7C JUMP JUMPDEST SWAP2 POP PUSH2 0x195A DUP4 PUSH2 0xF7C JUMP JUMPDEST SWAP3 POP DUP3 DUP3 MUL PUSH2 0x1968 DUP2 PUSH2 0xF7C JUMP JUMPDEST SWAP2 POP DUP3 DUP3 DIV DUP5 EQ DUP4 ISZERO OR PUSH2 0x197F JUMPI PUSH2 0x197E PUSH2 0x14B1 JUMP JUMPDEST JUMPDEST POP SWAP3 SWAP2 POP POP JUMP JUMPDEST PUSH0 PUSH2 0x1990 DUP3 PUSH2 0xF7C JUMP JUMPDEST SWAP2 POP PUSH2 0x199B DUP4 PUSH2 0xF7C JUMP JUMPDEST SWAP3 POP DUP3 DUP3 ADD SWAP1 POP DUP1 DUP3 GT ISZERO PUSH2 0x19B3 JUMPI PUSH2 0x19B2 PUSH2 0x14B1 JUMP JUMPDEST JUMPDEST SWAP3 SWAP2 POP POP JUMP JUMPDEST PUSH32 0x4E487B7100000000000000000000000000000000000000000000000000000000 PUSH0 MSTORE PUSH1 0x32 PUSH1 0x4 MSTORE PUSH1 0x24 PUSH0 REVERT JUMPDEST PUSH0 PUSH2 0x19F0 DUP3 PUSH2 0xF7C JUMP JUMPDEST SWAP2 POP PUSH0 DUP3 SUB PUSH2 0x1A02 JUMPI PUSH2 0x1A01 PUSH2 0x14B1 JUMP JUMPDEST JUMPDEST PUSH1 0x1 DUP3 SUB SWAP1 POP SWAP2 SWAP1 POP JUMP JUMPDEST PUSH0 PUSH1 0x40 DUP3 ADD SWAP1 POP PUSH2 0x1A20 PUSH0 DUP4 ADD DUP6 PUSH2 0x1346 JUMP JUMPDEST PUSH2 0x1A2D PUSH1 0x20 DUP4 ADD DUP5 PUSH2 0x1346 JUMP JUMPDEST SWAP4 SWAP3 POP POP POP JUMP JUMPDEST PUSH32 0x5F00000000000000000000000000000000000000000000000000000000000000 PUSH0 DUP3 ADD MSTORE POP JUMP JUMPDEST PUSH0 PUSH2 0x1A68 PUSH1 0x1 DUP4 PUSH2 0x13D2 JUMP JUMPDEST SWAP2 POP PUSH2 0x1A73 DUP3 PUSH2 0x1A34 JUMP JUMPDEST PUSH1 0x1 DUP3 ADD SWAP1 POP SWAP2 SWAP1 POP JUMP JUMPDEST PUSH0 PUSH2 0x1A89 DUP3 DUP7 PUSH2 0x13DC JUMP JUMPDEST SWAP2 POP PUSH2 0x1A94 DUP3 PUSH2 0x1A5C JUMP JUMPDEST SWAP2 POP PUSH2 0x1AA0 DUP3 DUP6 PUSH2 0x13DC JUMP JUMPDEST SWAP2 POP PUSH2 0x1AAB DUP3 PUSH2 0x1A5C JUMP JUMPDEST SWAP2 POP PUSH2 0x1AB7 DUP3 DUP5 PUSH2 0x13DC JUMP JUMPDEST SWAP2 POP DUP2 SWAP1 POP SWAP5 SWAP4 POP POP POP POP JUMP JUMPDEST PUSH32 0x435245415445205441424C452000000000000000000000000000000000000000 PUSH0 DUP3 ADD MSTORE POP JUMP JUMPDEST PUSH0 PUSH2 0x1AF8 PUSH1 0xD DUP4 PUSH2 0x13D2 JUMP JUMPDEST SWAP2 POP PUSH2 0x1B03 DUP3 PUSH2 0x1AC4 JUMP JUMPDEST PUSH1 0xD DUP3 ADD SWAP1 POP SWAP2 SWAP1 POP JUMP JUMPDEST PUSH0 PUSH2 0x1B18 DUP3 PUSH2 0x1AEC JUMP JUMPDEST SWAP2 POP PUSH2 0x1B24 DUP3 DUP7 PUSH2 0x13DC JUMP JUMPDEST SWAP2 POP PUSH2 0x1B2F DUP3 PUSH2 0x1A5C JUMP JUMPDEST SWAP2 POP PUSH2 0x1B3B DUP3 DUP6 PUSH2 0x13DC JUMP JUMPDEST SWAP2 POP PUSH2 0x1B46 DUP3 PUSH2 0x1833 JUMP JUMPDEST SWAP2 POP PUSH2 0x1B52 DUP3 DUP5 PUSH2 0x13DC JUMP JUMPDEST SWAP2 POP PUSH2 0x1B5D DUP3 PUSH2 0x18C7 JUMP JUMPDEST SWAP2 POP DUP2 SWAP1 POP SWAP5 SWAP4 POP POP POP POP JUMP JUMPDEST PUSH0 PUSH2 0x1B74 DUP3 PUSH2 0x16F0 JUMP JUMPDEST SWAP2 POP PUSH2 0x1B80 DUP3 DUP5 PUSH2 0x13DC JUMP JUMPDEST SWAP2 POP DUP2 SWAP1 POP SWAP3 SWAP2 POP POP JUMP JUMPDEST PUSH32 0x5550444154452000000000000000000000000000000000000000000000000000 PUSH0 DUP3 ADD MSTORE POP JUMP JUMPDEST PUSH0 PUSH2 0x1BBF PUSH1 0x7 DUP4 PUSH2 0x13D2 JUMP JUMPDEST SWAP2 POP PUSH2 0x1BCA DUP3 PUSH2 0x1B8B JUMP JUMPDEST PUSH1 0x7 DUP3 ADD SWAP1 POP SWAP2 SWAP1 POP JUMP JUMPDEST PUSH32 0x2053455420000000000000000000000000000000000000000000000000000000 PUSH0 DUP3 ADD MSTORE POP JUMP JUMPDEST PUSH0 PUSH2 0x1C09 PUSH1 0x5 DUP4 PUSH2 0x13D2 JUMP JUMPDEST SWAP2 POP PUSH2 0x1C14 DUP3 PUSH2 0x1BD5 JUMP JUMPDEST PUSH1 0x5 DUP3 ADD SWAP1 POP SWAP2 SWAP1 POP JUMP JUMPDEST PUSH0 PUSH2 0x1C29 DUP3 PUSH2 0x1BB3 JUMP JUMPDEST SWAP2 POP PUSH2 0x1C35 DUP3 DUP7 PUSH2 0x13DC JUMP JUMPDEST SWAP2 POP PUSH2 0x1C40 DUP3 PUSH2 0x1BFD JUMP JUMPDEST SWAP2 POP PUSH2 0x1C4C DUP3 DUP6 PUSH2 0x13DC JUMP JUMPDEST SWAP2 POP PUSH2 0x1C58 DUP3 DUP5 PUSH2 0x13DC JUMP JUMPDEST SWAP2 POP DUP2 SWAP1 POP SWAP5 SWAP4 POP POP POP POP JUMP INVALID PUSH10 0x6420696E746567657220 PUSH17 0x72696D617279206B65792C616464726573 PUSH20 0x20746578742C67726F757049642074657874A264 PUSH10 0x7066735822122049B689 SIGNEXTEND 0xD RETURN 0xAA PUSH8 0x2699001F5B3B82CF 0xEC 0x23 PUSH17 0xF18C596FC9138222348CF862EA64736F6C PUSH4 0x43000814 STOP CALLER "
				},
				"gasEstimates": {
					"creation": {
						"codeDepositCost": "1474200",
						"executionCost": "6544",
						"totalCost": "1480744"
					},
					"external": {
						"createTable()": "infinite",
						"deleteFromTable(uint256)": "infinite",
						"getAddressString(address)": "infinite",
						"getTableId()": "2476",
						"getTableName()": "infinite",
						"insertIntoTable(address,address)": "infinite",
						"onERC721Received(address,address,uint256,bytes)": "infinite",
						"setAccessControl(address)": "infinite",
						"updateTable(uint256,address)": "infinite"
					}
				},
				"methodIdentifiers": {
					"createTable()": "b2a4c897",
					"deleteFromTable(uint256)": "04bfc47f",
					"getAddressString(address)": "3e295859",
					"getTableId()": "88e4f1cb",
					"getTableName()": "5d5a33a2",
					"insertIntoTable(address,address)": "2907b979",
					"onERC721Received(address,address,uint256,bytes)": "150b7a02",
					"setAccessControl(address)": "19129e5a",
					"updateTable(uint256,address)": "e86492b1"
				}
			},
			"storageLayout": {
				"storage": [
					{
						"astId": 2250,
						"contract": "contracts/base/tableland/SusuGroupStorage.sol:SusuGroupStorage",
						"label": "_tableId",
						"offset": 0,
						"slot": "0",
						"type": "t_uint256"
					},
					{
						"astId": 2253,
						"contract": "contracts/base/tableland/SusuGroupStorage.sol:SusuGroupStorage",
						"label": "primaryKey",
						"offset": 0,
						"slot": "1",
						"type": "t_uint256"
					}
				],
				"types": {
					"t_uint256": {
						"encoding": "inplace",
						"label": "uint256",
						"numberOfBytes": "32"
					}
				}
			},
			"userdoc": {
				"errors": {
					"ChainNotSupported(uint256)": [
						{
							"notice": "Current chain does not have a TablelandTables deployment."
						}
					]
				},
				"kind": "user",
				"methods": {},
				"version": 1
			}
		}
	}
}