{
	"contracts/base/tableland/ContributionStorage.sol": {
		"SusuContributionStorage": {
			"abi": [
				{
					"inputs": [
						{
							"internalType": "uint256",
							"name": "chainid",
							"type": "uint256"
						}
					],
					"name": "ChainNotSupported",
					"type": "error"
				},
				{
					"inputs": [
						{
							"internalType": "uint256",
							"name": "value",
							"type": "uint256"
						},
						{
							"internalType": "uint256",
							"name": "length",
							"type": "uint256"
						}
					],
					"name": "StringsInsufficientHexLength",
					"type": "error"
				},
				{
					"inputs": [],
					"name": "createTable",
					"outputs": [],
					"stateMutability": "payable",
					"type": "function"
				},
				{
					"inputs": [
						{
							"internalType": "uint256",
							"name": "id",
							"type": "uint256"
						}
					],
					"name": "deleteFromTable",
					"outputs": [],
					"stateMutability": "nonpayable",
					"type": "function"
				},
				{
					"inputs": [
						{
							"internalType": "address",
							"name": "m",
							"type": "address"
						}
					],
					"name": "getAddressString",
					"outputs": [
						{
							"internalType": "string",
							"name": "",
							"type": "string"
						}
					],
					"stateMutability": "pure",
					"type": "function"
				},
				{
					"inputs": [],
					"name": "getTableId",
					"outputs": [
						{
							"internalType": "uint256",
							"name": "",
							"type": "uint256"
						}
					],
					"stateMutability": "view",
					"type": "function"
				},
				{
					"inputs": [],
					"name": "getTableName",
					"outputs": [
						{
							"internalType": "string",
							"name": "",
							"type": "string"
						}
					],
					"stateMutability": "view",
					"type": "function"
				},
				{
					"inputs": [
						{
							"internalType": "address",
							"name": "groupId",
							"type": "address"
						},
						{
							"internalType": "address",
							"name": "memberAddress",
							"type": "address"
						},
						{
							"internalType": "uint256",
							"name": "amount",
							"type": "uint256"
						},
						{
							"internalType": "uint256",
							"name": "roundId",
							"type": "uint256"
						}
					],
					"name": "insertIntoTable",
					"outputs": [],
					"stateMutability": "nonpayable",
					"type": "function"
				},
				{
					"inputs": [
						{
							"internalType": "address",
							"name": "",
							"type": "address"
						},
						{
							"internalType": "address",
							"name": "",
							"type": "address"
						},
						{
							"internalType": "uint256",
							"name": "",
							"type": "uint256"
						},
						{
							"internalType": "bytes",
							"name": "",
							"type": "bytes"
						}
					],
					"name": "onERC721Received",
					"outputs": [
						{
							"internalType": "bytes4",
							"name": "",
							"type": "bytes4"
						}
					],
					"stateMutability": "nonpayable",
					"type": "function"
				},
				{
					"inputs": [
						{
							"internalType": "address",
							"name": "controller",
							"type": "address"
						}
					],
					"name": "setAccessControl",
					"outputs": [],
					"stateMutability": "nonpayable",
					"type": "function"
				},
				{
					"inputs": [
						{
							"internalType": "uint256",
							"name": "id",
							"type": "uint256"
						},
						{
							"internalType": "address",
							"name": "groupId",
							"type": "address"
						}
					],
					"name": "updateTable",
					"outputs": [],
					"stateMutability": "nonpayable",
					"type": "function"
				}
			],
			"devdoc": {
				"errors": {
					"StringsInsufficientHexLength(uint256,uint256)": [
						{
							"details": "The `value` string doesn't fit in the specified `length`."
						}
					]
				},
				"kind": "dev",
				"methods": {
					"onERC721Received(address,address,uint256,bytes)": {
						"details": "See {IERC721Receiver-onERC721Received}. Always returns `IERC721Receiver.onERC721Received.selector`."
					}
				},
				"version": 1
			},
			"evm": {
				"assembly": "    /* \"contracts/base/tableland/ContributionStorage.sol\":400:4164  contract SusuContributionStorage is ERC721Holder {... */\n  mstore(0x40, 0x80)\n    /* \"contracts/base/tableland/ContributionStorage.sol\":569:570  0 */\n  0x00\n    /* \"contracts/base/tableland/ContributionStorage.sol\":540:570  uint256 private primaryKey = 0 */\n  0x01\n  sstore\n    /* \"contracts/base/tableland/ContributionStorage.sol\":400:4164  contract SusuContributionStorage is ERC721Holder {... */\n  callvalue\n  dup1\n  iszero\n  tag_1\n  jumpi\n  0x00\n  dup1\n  revert\ntag_1:\n  pop\n  dataSize(sub_0)\n  dup1\n  dataOffset(sub_0)\n  0x00\n  codecopy\n  0x00\n  return\nstop\n\nsub_0: assembly {\n        /* \"contracts/base/tableland/ContributionStorage.sol\":400:4164  contract SusuContributionStorage is ERC721Holder {... */\n      mstore(0x40, 0x80)\n      jumpi(tag_1, lt(calldatasize, 0x04))\n      shr(0xe0, calldataload(0x00))\n      dup1\n      0x5d5a33a2\n      gt\n      tag_11\n      jumpi\n      dup1\n      0x5d5a33a2\n      eq\n      tag_6\n      jumpi\n      dup1\n      0x88e4f1cb\n      eq\n      tag_7\n      jumpi\n      dup1\n      0xb2a4c897\n      eq\n      tag_8\n      jumpi\n      dup1\n      0xe86492b1\n      eq\n      tag_9\n      jumpi\n      dup1\n      0xf8ae673b\n      eq\n      tag_10\n      jumpi\n      jump(tag_1)\n    tag_11:\n      dup1\n      0x04bfc47f\n      eq\n      tag_2\n      jumpi\n      dup1\n      0x150b7a02\n      eq\n      tag_3\n      jumpi\n      dup1\n      0x19129e5a\n      eq\n      tag_4\n      jumpi\n      dup1\n      0x3e295859\n      eq\n      tag_5\n      jumpi\n    tag_1:\n      0x00\n      dup1\n      revert\n        /* \"contracts/base/tableland/ContributionStorage.sol\":3047:3474  function deleteFromTable(uint256 id) external {... */\n    tag_2:\n      callvalue\n      dup1\n      iszero\n      tag_12\n      jumpi\n      0x00\n      dup1\n      revert\n    tag_12:\n      pop\n      tag_13\n      0x04\n      dup1\n      calldatasize\n      sub\n      dup2\n      add\n      swap1\n      tag_14\n      swap2\n      swap1\n      tag_15\n      jump\t// in\n    tag_14:\n      tag_16\n      jump\t// in\n    tag_13:\n      stop\n        /* \"@openzeppelin/contracts/token/ERC721/utils/ERC721Holder.sol\":639:792  function onERC721Received(address, address, uint256, bytes memory) public virtual returns (bytes4) {... */\n    tag_3:\n      callvalue\n      dup1\n      iszero\n      tag_17\n      jumpi\n      0x00\n      dup1\n      revert\n    tag_17:\n      pop\n      tag_18\n      0x04\n      dup1\n      calldatasize\n      sub\n      dup2\n      add\n      swap1\n      tag_19\n      swap2\n      swap1\n      tag_20\n      jump\t// in\n    tag_19:\n      tag_21\n      jump\t// in\n    tag_18:\n      mload(0x40)\n      tag_22\n      swap2\n      swap1\n      tag_23\n      jump\t// in\n    tag_22:\n      mload(0x40)\n      dup1\n      swap2\n      sub\n      swap1\n      return\n        /* \"contracts/base/tableland/ContributionStorage.sol\":3562:3863  function setAccessControl(address controller) external {... */\n    tag_4:\n      callvalue\n      dup1\n      iszero\n      tag_24\n      jumpi\n      0x00\n      dup1\n      revert\n    tag_24:\n      pop\n      tag_25\n      0x04\n      dup1\n      calldatasize\n      sub\n      dup2\n      add\n      swap1\n      tag_26\n      swap2\n      swap1\n      tag_27\n      jump\t// in\n    tag_26:\n      tag_28\n      jump\t// in\n    tag_25:\n      stop\n        /* \"contracts/base/tableland/ContributionStorage.sol\":1171:1305  function getAddressString(address m) external pure returns (string memory){... */\n    tag_5:\n      callvalue\n      dup1\n      iszero\n      tag_29\n      jumpi\n      0x00\n      dup1\n      revert\n    tag_29:\n      pop\n      tag_30\n      0x04\n      dup1\n      calldatasize\n      sub\n      dup2\n      add\n      swap1\n      tag_31\n      swap2\n      swap1\n      tag_27\n      jump\t// in\n    tag_31:\n      tag_32\n      jump\t// in\n    tag_30:\n      mload(0x40)\n      tag_33\n      swap2\n      swap1\n      tag_34\n      jump\t// in\n    tag_33:\n      mload(0x40)\n      dup1\n      swap2\n      sub\n      swap1\n      return\n        /* \"contracts/base/tableland/ContributionStorage.sol\":4025:4161  function getTableName() external view returns (string memory) {... */\n    tag_6:\n      callvalue\n      dup1\n      iszero\n      tag_35\n      jumpi\n      0x00\n      dup1\n      revert\n    tag_35:\n      pop\n      tag_36\n      tag_37\n      jump\t// in\n    tag_36:\n      mload(0x40)\n      tag_38\n      swap2\n      swap1\n      tag_34\n      jump\t// in\n    tag_38:\n      mload(0x40)\n      dup1\n      swap2\n      sub\n      swap1\n      return\n        /* \"contracts/base/tableland/ContributionStorage.sol\":3899:3987  function getTableId() external view returns (uint256) {... */\n    tag_7:\n      callvalue\n      dup1\n      iszero\n      tag_39\n      jumpi\n      0x00\n      dup1\n      revert\n    tag_39:\n      pop\n      tag_40\n      tag_41\n      jump\t// in\n    tag_40:\n      mload(0x40)\n      tag_42\n      swap2\n      swap1\n      tag_43\n      jump\t// in\n    tag_42:\n      mload(0x40)\n      dup1\n      swap2\n      sub\n      swap1\n      return\n        /* \"contracts/base/tableland/ContributionStorage.sol\":737:1163  function createTable() public payable {... */\n    tag_8:\n      tag_44\n      tag_45\n      jump\t// in\n    tag_44:\n      stop\n        /* \"contracts/base/tableland/ContributionStorage.sol\":2386:2997  function updateTable(uint256 id, address groupId) external {... */\n    tag_9:\n      callvalue\n      dup1\n      iszero\n      tag_46\n      jumpi\n      0x00\n      dup1\n      revert\n    tag_46:\n      pop\n      tag_47\n      0x04\n      dup1\n      calldatasize\n      sub\n      dup2\n      add\n      swap1\n      tag_48\n      swap2\n      swap1\n      tag_49\n      jump\t// in\n    tag_48:\n      tag_50\n      jump\t// in\n    tag_47:\n      stop\n        /* \"contracts/base/tableland/ContributionStorage.sol\":1354:2325  function insertIntoTable( address groupId, address memberAddress, uint256 amount, uint256 roundId) external {... */\n    tag_10:\n      callvalue\n      dup1\n      iszero\n      tag_51\n      jumpi\n      0x00\n      dup1\n      revert\n    tag_51:\n      pop\n      tag_52\n      0x04\n      dup1\n      calldatasize\n      sub\n      dup2\n      add\n      swap1\n      tag_53\n      swap2\n      swap1\n      tag_54\n      jump\t// in\n    tag_53:\n      tag_55\n      jump\t// in\n    tag_52:\n      stop\n        /* \"contracts/base/tableland/ContributionStorage.sol\":3047:3474  function deleteFromTable(uint256 id) external {... */\n    tag_16:\n        /* \"contracts/base/tableland/ContributionStorage.sol\":3156:3177  string memory filters */\n      0x00\n        /* \"contracts/base/tableland/ContributionStorage.sol\":3228:3248  Strings.toString(id) */\n      tag_57\n        /* \"contracts/base/tableland/ContributionStorage.sol\":3245:3247  id */\n      dup3\n        /* \"contracts/base/tableland/ContributionStorage.sol\":3228:3244  Strings.toString */\n      tag_58\n        /* \"contracts/base/tableland/ContributionStorage.sol\":3228:3248  Strings.toString(id) */\n      jump\t// in\n    tag_57:\n        /* \"contracts/base/tableland/ContributionStorage.sol\":3180:3259  string.concat(... */\n      add(0x20, mload(0x40))\n      tag_59\n      swap2\n      swap1\n      tag_60\n      jump\t// in\n    tag_59:\n      mload(0x40)\n      0x20\n      dup2\n      dup4\n      sub\n      sub\n      dup2\n      mstore\n      swap1\n      0x40\n      mstore\n        /* \"contracts/base/tableland/ContributionStorage.sol\":3156:3259  string memory filters = string.concat(... */\n      swap1\n      pop\n        /* \"contracts/base/tableland/ContributionStorage.sol\":3303:3329  TablelandDeployments.get() */\n      tag_61\n        /* \"contracts/base/tableland/ContributionStorage.sol\":3303:3327  TablelandDeployments.get */\n      tag_62\n        /* \"contracts/base/tableland/ContributionStorage.sol\":3303:3329  TablelandDeployments.get() */\n      jump\t// in\n    tag_61:\n        /* \"contracts/base/tableland/ContributionStorage.sol\":3303:3336  TablelandDeployments.get().mutate */\n      0xffffffffffffffffffffffffffffffffffffffff\n      and\n      0x377af0da\n        /* \"contracts/base/tableland/ContributionStorage.sol\":3359:3363  this */\n      address\n        /* \"contracts/base/tableland/ContributionStorage.sol\":3379:3387  _tableId */\n      sload(0x00)\n        /* \"contracts/base/tableland/ContributionStorage.sol\":3402:3455  SQLHelpers.toDelete(_TABLE_PREFIX, _tableId, filters) */\n      tag_63\n        /* \"contracts/base/tableland/ContributionStorage.sol\":3422:3435  _TABLE_PREFIX */\n      mload(0x40)\n      dup1\n      0x40\n      add\n      0x40\n      mstore\n      dup1\n      0x17\n      dup2\n      mstore\n      0x20\n      add\n      0x737573755f636f6e747269627574696f6e5f7461626c65000000000000000000\n      dup2\n      mstore\n      pop\n        /* \"contracts/base/tableland/ContributionStorage.sol\":3437:3445  _tableId */\n      sload(0x00)\n        /* \"contracts/base/tableland/ContributionStorage.sol\":3447:3454  filters */\n      dup8\n        /* \"contracts/base/tableland/ContributionStorage.sol\":3402:3421  SQLHelpers.toDelete */\n      tag_64\n        /* \"contracts/base/tableland/ContributionStorage.sol\":3402:3455  SQLHelpers.toDelete(_TABLE_PREFIX, _tableId, filters) */\n      jump\t// in\n    tag_63:\n        /* \"contracts/base/tableland/ContributionStorage.sol\":3303:3466  TablelandDeployments.get().mutate(... */\n      mload(0x40)\n      dup5\n      0xffffffff\n      and\n      0xe0\n      shl\n      dup2\n      mstore\n      0x04\n      add\n      tag_65\n      swap4\n      swap3\n      swap2\n      swap1\n      tag_66\n      jump\t// in\n    tag_65:\n      0x00\n      mload(0x40)\n      dup1\n      dup4\n      sub\n      dup2\n      0x00\n      dup8\n      dup1\n      extcodesize\n      iszero\n      dup1\n      iszero\n      tag_67\n      jumpi\n      0x00\n      dup1\n      revert\n    tag_67:\n      pop\n      gas\n      call\n      iszero\n      dup1\n      iszero\n      tag_69\n      jumpi\n      returndatasize\n      0x00\n      dup1\n      returndatacopy\n      revert(0x00, returndatasize)\n    tag_69:\n      pop\n      pop\n      pop\n      pop\n        /* \"contracts/base/tableland/ContributionStorage.sol\":3093:3474  {... */\n      pop\n        /* \"contracts/base/tableland/ContributionStorage.sol\":3047:3474  function deleteFromTable(uint256 id) external {... */\n      pop\n      jump\t// out\n        /* \"@openzeppelin/contracts/token/ERC721/utils/ERC721Holder.sol\":639:792  function onERC721Received(address, address, uint256, bytes memory) public virtual returns (bytes4) {... */\n    tag_21:\n        /* \"@openzeppelin/contracts/token/ERC721/utils/ERC721Holder.sol\":730:736  bytes4 */\n      0x00\n        /* \"@openzeppelin/contracts/token/ERC721/utils/ERC721Holder.sol\":755:785  this.onERC721Received.selector */\n      shl(0xe0, 0x150b7a02)\n        /* \"@openzeppelin/contracts/token/ERC721/utils/ERC721Holder.sol\":748:785  return this.onERC721Received.selector */\n      swap1\n      pop\n        /* \"@openzeppelin/contracts/token/ERC721/utils/ERC721Holder.sol\":639:792  function onERC721Received(address, address, uint256, bytes memory) public virtual returns (bytes4) {... */\n      swap5\n      swap4\n      pop\n      pop\n      pop\n      pop\n      jump\t// out\n        /* \"contracts/base/tableland/ContributionStorage.sol\":3562:3863  function setAccessControl(address controller) external {... */\n    tag_28:\n        /* \"contracts/base/tableland/ContributionStorage.sol\":3628:3654  TablelandDeployments.get() */\n      tag_72\n        /* \"contracts/base/tableland/ContributionStorage.sol\":3628:3652  TablelandDeployments.get */\n      tag_62\n        /* \"contracts/base/tableland/ContributionStorage.sol\":3628:3654  TablelandDeployments.get() */\n      jump\t// in\n    tag_72:\n        /* \"contracts/base/tableland/ContributionStorage.sol\":3628:3668  TablelandDeployments.get().setController */\n      0xffffffffffffffffffffffffffffffffffffffff\n      and\n      0x8bb0ab97\n        /* \"contracts/base/tableland/ContributionStorage.sol\":3691:3695  this */\n      address\n        /* \"contracts/base/tableland/ContributionStorage.sol\":3747:3755  _tableId */\n      sload(0x00)\n        /* \"contracts/base/tableland/ContributionStorage.sol\":3770:3780  controller */\n      dup5\n        /* \"contracts/base/tableland/ContributionStorage.sol\":3628:3855  TablelandDeployments.get().setController(... */\n      mload(0x40)\n      dup5\n      0xffffffff\n      and\n      0xe0\n      shl\n      dup2\n      mstore\n      0x04\n      add\n      tag_73\n      swap4\n      swap3\n      swap2\n      swap1\n      tag_74\n      jump\t// in\n    tag_73:\n      0x00\n      mload(0x40)\n      dup1\n      dup4\n      sub\n      dup2\n      0x00\n      dup8\n      dup1\n      extcodesize\n      iszero\n      dup1\n      iszero\n      tag_75\n      jumpi\n      0x00\n      dup1\n      revert\n    tag_75:\n      pop\n      gas\n      call\n      iszero\n      dup1\n      iszero\n      tag_77\n      jumpi\n      returndatasize\n      0x00\n      dup1\n      returndatacopy\n      revert(0x00, returndatasize)\n    tag_77:\n      pop\n      pop\n      pop\n      pop\n        /* \"contracts/base/tableland/ContributionStorage.sol\":3562:3863  function setAccessControl(address controller) external {... */\n      pop\n      jump\t// out\n        /* \"contracts/base/tableland/ContributionStorage.sol\":1171:1305  function getAddressString(address m) external pure returns (string memory){... */\n    tag_32:\n        /* \"contracts/base/tableland/ContributionStorage.sol\":1231:1244  string memory */\n      0x60\n        /* \"contracts/base/tableland/ContributionStorage.sol\":1263:1297  Strings.toHexString(uint160(m),20) */\n      tag_79\n        /* \"contracts/base/tableland/ContributionStorage.sol\":1291:1292  m */\n      dup3\n        /* \"contracts/base/tableland/ContributionStorage.sol\":1263:1297  Strings.toHexString(uint160(m),20) */\n      0xffffffffffffffffffffffffffffffffffffffff\n      and\n        /* \"contracts/base/tableland/ContributionStorage.sol\":1294:1296  20 */\n      0x14\n        /* \"contracts/base/tableland/ContributionStorage.sol\":1263:1282  Strings.toHexString */\n      tag_80\n        /* \"contracts/base/tableland/ContributionStorage.sol\":1263:1297  Strings.toHexString(uint160(m),20) */\n      jump\t// in\n    tag_79:\n        /* \"contracts/base/tableland/ContributionStorage.sol\":1256:1297  return Strings.toHexString(uint160(m),20) */\n      swap1\n      pop\n        /* \"contracts/base/tableland/ContributionStorage.sol\":1171:1305  function getAddressString(address m) external pure returns (string memory){... */\n      swap2\n      swap1\n      pop\n      jump\t// out\n        /* \"contracts/base/tableland/ContributionStorage.sol\":4025:4161  function getTableName() external view returns (string memory) {... */\n    tag_37:\n        /* \"contracts/base/tableland/ContributionStorage.sol\":4072:4085  string memory */\n      0x60\n        /* \"contracts/base/tableland/ContributionStorage.sol\":4105:4153  SQLHelpers.toNameFromId(_TABLE_PREFIX, _tableId) */\n      tag_82\n        /* \"contracts/base/tableland/ContributionStorage.sol\":4129:4142  _TABLE_PREFIX */\n      mload(0x40)\n      dup1\n      0x40\n      add\n      0x40\n      mstore\n      dup1\n      0x17\n      dup2\n      mstore\n      0x20\n      add\n      0x737573755f636f6e747269627574696f6e5f7461626c65000000000000000000\n      dup2\n      mstore\n      pop\n        /* \"contracts/base/tableland/ContributionStorage.sol\":4144:4152  _tableId */\n      sload(0x00)\n        /* \"contracts/base/tableland/ContributionStorage.sol\":4105:4128  SQLHelpers.toNameFromId */\n      tag_83\n        /* \"contracts/base/tableland/ContributionStorage.sol\":4105:4153  SQLHelpers.toNameFromId(_TABLE_PREFIX, _tableId) */\n      jump\t// in\n    tag_82:\n        /* \"contracts/base/tableland/ContributionStorage.sol\":4098:4153  return SQLHelpers.toNameFromId(_TABLE_PREFIX, _tableId) */\n      swap1\n      pop\n        /* \"contracts/base/tableland/ContributionStorage.sol\":4025:4161  function getTableName() external view returns (string memory) {... */\n      swap1\n      jump\t// out\n        /* \"contracts/base/tableland/ContributionStorage.sol\":3899:3987  function getTableId() external view returns (uint256) {... */\n    tag_41:\n        /* \"contracts/base/tableland/ContributionStorage.sol\":3944:3951  uint256 */\n      0x00\n        /* \"contracts/base/tableland/ContributionStorage.sol\":3971:3979  _tableId */\n      dup1\n      sload\n        /* \"contracts/base/tableland/ContributionStorage.sol\":3964:3979  return _tableId */\n      swap1\n      pop\n        /* \"contracts/base/tableland/ContributionStorage.sol\":3899:3987  function getTableId() external view returns (uint256) {... */\n      swap1\n      jump\t// out\n        /* \"contracts/base/tableland/ContributionStorage.sol\":737:1163  function createTable() public payable {... */\n    tag_45:\n        /* \"contracts/base/tableland/ContributionStorage.sol\":795:821  TablelandDeployments.get() */\n      tag_86\n        /* \"contracts/base/tableland/ContributionStorage.sol\":795:819  TablelandDeployments.get */\n      tag_62\n        /* \"contracts/base/tableland/ContributionStorage.sol\":795:821  TablelandDeployments.get() */\n      jump\t// in\n    tag_86:\n        /* \"contracts/base/tableland/ContributionStorage.sol\":795:828  TablelandDeployments.get().create */\n      0xffffffffffffffffffffffffffffffffffffffff\n      and\n      0xa15ab08d\n        /* \"contracts/base/tableland/ContributionStorage.sol\":851:855  this */\n      address\n        /* \"contracts/base/tableland/ContributionStorage.sol\":871:1144  SQLHelpers.toCreateFromSchema(... */\n      tag_87\n      mload(0x40)\n      dup1\n      0x80\n      add\n      0x40\n      mstore\n      dup1\n      0x4f\n      dup2\n      mstore\n      0x20\n      add\n      data_ed935a9fa51a6f143b98e7954de7dabfac7c649b3b4d80ceb81fd0bee066b7de\n      0x4f\n      swap2\n      codecopy\n        /* \"contracts/base/tableland/ContributionStorage.sol\":1116:1129  _TABLE_PREFIX */\n      mload(0x40)\n      dup1\n      0x40\n      add\n      0x40\n      mstore\n      dup1\n      0x17\n      dup2\n      mstore\n      0x20\n      add\n      0x737573755f636f6e747269627574696f6e5f7461626c65000000000000000000\n      dup2\n      mstore\n      pop\n        /* \"contracts/base/tableland/ContributionStorage.sol\":871:900  SQLHelpers.toCreateFromSchema */\n      tag_88\n        /* \"contracts/base/tableland/ContributionStorage.sol\":871:1144  SQLHelpers.toCreateFromSchema(... */\n      jump\t// in\n    tag_87:\n        /* \"contracts/base/tableland/ContributionStorage.sol\":795:1155  TablelandDeployments.get().create(... */\n      mload(0x40)\n      dup4\n      0xffffffff\n      and\n      0xe0\n      shl\n      dup2\n      mstore\n      0x04\n      add\n      tag_89\n      swap3\n      swap2\n      swap1\n      tag_90\n      jump\t// in\n    tag_89:\n      0x20\n      mload(0x40)\n      dup1\n      dup4\n      sub\n      dup2\n      0x00\n      dup8\n      gas\n      call\n      iszero\n      dup1\n      iszero\n      tag_92\n      jumpi\n      returndatasize\n      0x00\n      dup1\n      returndatacopy\n      revert(0x00, returndatasize)\n    tag_92:\n      pop\n      pop\n      pop\n      pop\n      mload(0x40)\n      returndatasize\n      not(0x1f)\n      0x1f\n      dup3\n      add\n      and\n      dup3\n      add\n      dup1\n      0x40\n      mstore\n      pop\n      dup2\n      add\n      swap1\n      tag_93\n      swap2\n      swap1\n      tag_94\n      jump\t// in\n    tag_93:\n        /* \"contracts/base/tableland/ContributionStorage.sol\":784:792  _tableId */\n      0x00\n        /* \"contracts/base/tableland/ContributionStorage.sol\":784:1155  _tableId = TablelandDeployments.get().create(... */\n      dup2\n      swap1\n      sstore\n      pop\n        /* \"contracts/base/tableland/ContributionStorage.sol\":737:1163  function createTable() public payable {... */\n      jump\t// out\n        /* \"contracts/base/tableland/ContributionStorage.sol\":2386:2997  function updateTable(uint256 id, address groupId) external {... */\n    tag_50:\n        /* \"contracts/base/tableland/ContributionStorage.sol\":2493:2514  string memory setters */\n      0x00\n        /* \"contracts/base/tableland/ContributionStorage.sol\":2543:2589  SQLHelpers.quote(Strings.toHexString(groupId)) */\n      tag_96\n        /* \"contracts/base/tableland/ContributionStorage.sol\":2560:2588  Strings.toHexString(groupId) */\n      tag_97\n        /* \"contracts/base/tableland/ContributionStorage.sol\":2580:2587  groupId */\n      dup4\n        /* \"contracts/base/tableland/ContributionStorage.sol\":2560:2579  Strings.toHexString */\n      tag_98\n        /* \"contracts/base/tableland/ContributionStorage.sol\":2560:2588  Strings.toHexString(groupId) */\n      jump\t// in\n    tag_97:\n        /* \"contracts/base/tableland/ContributionStorage.sol\":2543:2559  SQLHelpers.quote */\n      tag_99\n        /* \"contracts/base/tableland/ContributionStorage.sol\":2543:2589  SQLHelpers.quote(Strings.toHexString(groupId)) */\n      jump\t// in\n    tag_96:\n        /* \"contracts/base/tableland/ContributionStorage.sol\":2517:2590  string.concat(\"groupId=\", SQLHelpers.quote(Strings.toHexString(groupId))) */\n      add(0x20, mload(0x40))\n      tag_100\n      swap2\n      swap1\n      tag_101\n      jump\t// in\n    tag_100:\n      mload(0x40)\n      0x20\n      dup2\n      dup4\n      sub\n      sub\n      dup2\n      mstore\n      swap1\n      0x40\n      mstore\n        /* \"contracts/base/tableland/ContributionStorage.sol\":2493:2590  string memory setters = string.concat(\"groupId=\", SQLHelpers.quote(Strings.toHexString(groupId))) */\n      swap1\n      pop\n        /* \"contracts/base/tableland/ContributionStorage.sol\":2653:2674  string memory filters */\n      0x00\n        /* \"contracts/base/tableland/ContributionStorage.sol\":2725:2745  Strings.toString(id) */\n      tag_102\n        /* \"contracts/base/tableland/ContributionStorage.sol\":2742:2744  id */\n      dup5\n        /* \"contracts/base/tableland/ContributionStorage.sol\":2725:2741  Strings.toString */\n      tag_58\n        /* \"contracts/base/tableland/ContributionStorage.sol\":2725:2745  Strings.toString(id) */\n      jump\t// in\n    tag_102:\n        /* \"contracts/base/tableland/ContributionStorage.sol\":2677:2756  string.concat(... */\n      add(0x20, mload(0x40))\n      tag_103\n      swap2\n      swap1\n      tag_60\n      jump\t// in\n    tag_103:\n      mload(0x40)\n      0x20\n      dup2\n      dup4\n      sub\n      sub\n      dup2\n      mstore\n      swap1\n      0x40\n      mstore\n        /* \"contracts/base/tableland/ContributionStorage.sol\":2653:2756  string memory filters = string.concat(... */\n      swap1\n      pop\n        /* \"contracts/base/tableland/ContributionStorage.sol\":2817:2843  TablelandDeployments.get() */\n      tag_104\n        /* \"contracts/base/tableland/ContributionStorage.sol\":2817:2841  TablelandDeployments.get */\n      tag_62\n        /* \"contracts/base/tableland/ContributionStorage.sol\":2817:2843  TablelandDeployments.get() */\n      jump\t// in\n    tag_104:\n        /* \"contracts/base/tableland/ContributionStorage.sol\":2817:2850  TablelandDeployments.get().mutate */\n      0xffffffffffffffffffffffffffffffffffffffff\n      and\n      0x377af0da\n        /* \"contracts/base/tableland/ContributionStorage.sol\":2873:2877  this */\n      address\n        /* \"contracts/base/tableland/ContributionStorage.sol\":2893:2901  _tableId */\n      sload(0x00)\n        /* \"contracts/base/tableland/ContributionStorage.sol\":2916:2978  SQLHelpers.toUpdate(_TABLE_PREFIX, _tableId, setters, filters) */\n      tag_105\n        /* \"contracts/base/tableland/ContributionStorage.sol\":2936:2949  _TABLE_PREFIX */\n      mload(0x40)\n      dup1\n      0x40\n      add\n      0x40\n      mstore\n      dup1\n      0x17\n      dup2\n      mstore\n      0x20\n      add\n      0x737573755f636f6e747269627574696f6e5f7461626c65000000000000000000\n      dup2\n      mstore\n      pop\n        /* \"contracts/base/tableland/ContributionStorage.sol\":2951:2959  _tableId */\n      sload(0x00)\n        /* \"contracts/base/tableland/ContributionStorage.sol\":2961:2968  setters */\n      dup9\n        /* \"contracts/base/tableland/ContributionStorage.sol\":2970:2977  filters */\n      dup9\n        /* \"contracts/base/tableland/ContributionStorage.sol\":2916:2935  SQLHelpers.toUpdate */\n      tag_106\n        /* \"contracts/base/tableland/ContributionStorage.sol\":2916:2978  SQLHelpers.toUpdate(_TABLE_PREFIX, _tableId, setters, filters) */\n      jump\t// in\n    tag_105:\n        /* \"contracts/base/tableland/ContributionStorage.sol\":2817:2989  TablelandDeployments.get().mutate(... */\n      mload(0x40)\n      dup5\n      0xffffffff\n      and\n      0xe0\n      shl\n      dup2\n      mstore\n      0x04\n      add\n      tag_107\n      swap4\n      swap3\n      swap2\n      swap1\n      tag_66\n      jump\t// in\n    tag_107:\n      0x00\n      mload(0x40)\n      dup1\n      dup4\n      sub\n      dup2\n      0x00\n      dup8\n      dup1\n      extcodesize\n      iszero\n      dup1\n      iszero\n      tag_108\n      jumpi\n      0x00\n      dup1\n      revert\n    tag_108:\n      pop\n      gas\n      call\n      iszero\n      dup1\n      iszero\n      tag_110\n      jumpi\n      returndatasize\n      0x00\n      dup1\n      returndatacopy\n      revert(0x00, returndatasize)\n    tag_110:\n      pop\n      pop\n      pop\n      pop\n        /* \"contracts/base/tableland/ContributionStorage.sol\":2445:2997  {... */\n      pop\n      pop\n        /* \"contracts/base/tableland/ContributionStorage.sol\":2386:2997  function updateTable(uint256 id, address groupId) external {... */\n      pop\n      pop\n      jump\t// out\n        /* \"contracts/base/tableland/ContributionStorage.sol\":1354:2325  function insertIntoTable( address groupId, address memberAddress, uint256 amount, uint256 roundId) external {... */\n    tag_55:\n        /* \"contracts/base/tableland/ContributionStorage.sol\":1473:1490  string memory adr */\n      0x00\n        /* \"contracts/base/tableland/ContributionStorage.sol\":1493:1527  Strings.toHexString(memberAddress) */\n      tag_112\n        /* \"contracts/base/tableland/ContributionStorage.sol\":1513:1526  memberAddress */\n      dup5\n        /* \"contracts/base/tableland/ContributionStorage.sol\":1493:1512  Strings.toHexString */\n      tag_98\n        /* \"contracts/base/tableland/ContributionStorage.sol\":1493:1527  Strings.toHexString(memberAddress) */\n      jump\t// in\n    tag_112:\n        /* \"contracts/base/tableland/ContributionStorage.sol\":1473:1527  string memory adr = Strings.toHexString(memberAddress) */\n      swap1\n      pop\n        /* \"contracts/base/tableland/ContributionStorage.sol\":1538:1559  string memory groupid */\n      0x00\n        /* \"contracts/base/tableland/ContributionStorage.sol\":1562:1590  Strings.toHexString(groupId) */\n      tag_113\n        /* \"contracts/base/tableland/ContributionStorage.sol\":1582:1589  groupId */\n      dup7\n        /* \"contracts/base/tableland/ContributionStorage.sol\":1562:1581  Strings.toHexString */\n      tag_98\n        /* \"contracts/base/tableland/ContributionStorage.sol\":1562:1590  Strings.toHexString(groupId) */\n      jump\t// in\n    tag_113:\n        /* \"contracts/base/tableland/ContributionStorage.sol\":1538:1590  string memory groupid = Strings.toHexString(groupId) */\n      swap1\n      pop\n        /* \"contracts/base/tableland/ContributionStorage.sol\":1601:1627  TablelandDeployments.get() */\n      tag_114\n        /* \"contracts/base/tableland/ContributionStorage.sol\":1601:1625  TablelandDeployments.get */\n      tag_62\n        /* \"contracts/base/tableland/ContributionStorage.sol\":1601:1627  TablelandDeployments.get() */\n      jump\t// in\n    tag_114:\n        /* \"contracts/base/tableland/ContributionStorage.sol\":1601:1634  TablelandDeployments.get().mutate */\n      0xffffffffffffffffffffffffffffffffffffffff\n      and\n      0x377af0da\n        /* \"contracts/base/tableland/ContributionStorage.sol\":1657:1661  this */\n      address\n        /* \"contracts/base/tableland/ContributionStorage.sol\":1713:1721  _tableId */\n      sload(0x00)\n        /* \"contracts/base/tableland/ContributionStorage.sol\":1736:2306  SQLHelpers.toInsert(... */\n      tag_115\n        /* \"contracts/base/tableland/ContributionStorage.sol\":1774:1787  _TABLE_PREFIX */\n      mload(0x40)\n      dup1\n      0x40\n      add\n      0x40\n      mstore\n      dup1\n      0x17\n      dup2\n      mstore\n      0x20\n      add\n      0x737573755f636f6e747269627574696f6e5f7461626c65000000000000000000\n      dup2\n      mstore\n      pop\n        /* \"contracts/base/tableland/ContributionStorage.sol\":1806:1814  _tableId */\n      sload(0x00)\n        /* \"contracts/base/tableland/ContributionStorage.sol\":1736:2306  SQLHelpers.toInsert(... */\n      mload(0x40)\n      dup1\n      0x60\n      add\n      0x40\n      mstore\n      dup1\n      0x25\n      dup2\n      mstore\n      0x20\n      add\n      data_dffc122a469b497e8d00bbc2c7446ce252a53fa783e756edda30c54d97296e06\n      0x25\n      swap2\n      codecopy\n        /* \"contracts/base/tableland/ContributionStorage.sol\":1927:1957  Strings.toString(primaryKey++) */\n      tag_116\n        /* \"contracts/base/tableland/ContributionStorage.sol\":1944:1954  primaryKey */\n      0x01\n      0x00\n        /* \"contracts/base/tableland/ContributionStorage.sol\":1944:1956  primaryKey++ */\n      dup2\n      sload\n      dup1\n      swap3\n      swap2\n      swap1\n      tag_117\n      swap1\n      tag_118\n      jump\t// in\n    tag_117:\n      swap2\n      swap1\n      pop\n      sstore\n        /* \"contracts/base/tableland/ContributionStorage.sol\":1927:1943  Strings.toString */\n      tag_58\n        /* \"contracts/base/tableland/ContributionStorage.sol\":1927:1957  Strings.toString(primaryKey++) */\n      jump\t// in\n    tag_116:\n        /* \"contracts/base/tableland/ContributionStorage.sol\":2029:2054  SQLHelpers.quote(groupid) */\n      tag_119\n        /* \"contracts/base/tableland/ContributionStorage.sol\":2046:2053  groupid */\n      dup11\n        /* \"contracts/base/tableland/ContributionStorage.sol\":2029:2045  SQLHelpers.quote */\n      tag_99\n        /* \"contracts/base/tableland/ContributionStorage.sol\":2029:2054  SQLHelpers.quote(groupid) */\n      jump\t// in\n    tag_119:\n        /* \"contracts/base/tableland/ContributionStorage.sol\":2104:2125  SQLHelpers.quote(adr) */\n      tag_120\n        /* \"contracts/base/tableland/ContributionStorage.sol\":2121:2124  adr */\n      dup13\n        /* \"contracts/base/tableland/ContributionStorage.sol\":2104:2120  SQLHelpers.quote */\n      tag_99\n        /* \"contracts/base/tableland/ContributionStorage.sol\":2104:2125  SQLHelpers.quote(adr) */\n      jump\t// in\n    tag_120:\n        /* \"contracts/base/tableland/ContributionStorage.sol\":2174:2198  Strings.toString(amount) */\n      tag_121\n        /* \"contracts/base/tableland/ContributionStorage.sol\":2191:2197  amount */\n      dup16\n        /* \"contracts/base/tableland/ContributionStorage.sol\":2174:2190  Strings.toString */\n      tag_58\n        /* \"contracts/base/tableland/ContributionStorage.sol\":2174:2198  Strings.toString(amount) */\n      jump\t// in\n    tag_121:\n        /* \"contracts/base/tableland/ContributionStorage.sol\":2247:2272  Strings.toString(roundId) */\n      tag_122\n        /* \"contracts/base/tableland/ContributionStorage.sol\":2264:2271  roundId */\n      dup16\n        /* \"contracts/base/tableland/ContributionStorage.sol\":2247:2263  Strings.toString */\n      tag_58\n        /* \"contracts/base/tableland/ContributionStorage.sol\":2247:2272  Strings.toString(roundId) */\n      jump\t// in\n    tag_122:\n        /* \"contracts/base/tableland/ContributionStorage.sol\":1891:2291  string.concat(... */\n      add(0x20, mload(0x40))\n      tag_123\n      swap6\n      swap5\n      swap4\n      swap3\n      swap2\n      swap1\n      tag_124\n      jump\t// in\n    tag_123:\n      mload(0x40)\n      0x20\n      dup2\n      dup4\n      sub\n      sub\n      dup2\n      mstore\n      swap1\n      0x40\n      mstore\n        /* \"contracts/base/tableland/ContributionStorage.sol\":1736:1755  SQLHelpers.toInsert */\n      tag_125\n        /* \"contracts/base/tableland/ContributionStorage.sol\":1736:2306  SQLHelpers.toInsert(... */\n      jump\t// in\n    tag_115:\n        /* \"contracts/base/tableland/ContributionStorage.sol\":1601:2317  TablelandDeployments.get().mutate(... */\n      mload(0x40)\n      dup5\n      0xffffffff\n      and\n      0xe0\n      shl\n      dup2\n      mstore\n      0x04\n      add\n      tag_126\n      swap4\n      swap3\n      swap2\n      swap1\n      tag_66\n      jump\t// in\n    tag_126:\n      0x00\n      mload(0x40)\n      dup1\n      dup4\n      sub\n      dup2\n      0x00\n      dup8\n      dup1\n      extcodesize\n      iszero\n      dup1\n      iszero\n      tag_127\n      jumpi\n      0x00\n      dup1\n      revert\n    tag_127:\n      pop\n      gas\n      call\n      iszero\n      dup1\n      iszero\n      tag_129\n      jumpi\n      returndatasize\n      0x00\n      dup1\n      returndatacopy\n      revert(0x00, returndatasize)\n    tag_129:\n      pop\n      pop\n      pop\n      pop\n        /* \"contracts/base/tableland/ContributionStorage.sol\":1462:2325  {... */\n      pop\n      pop\n        /* \"contracts/base/tableland/ContributionStorage.sol\":1354:2325  function insertIntoTable( address groupId, address memberAddress, uint256 amount, uint256 roundId) external {... */\n      pop\n      pop\n      pop\n      pop\n      jump\t// out\n        /* \"@openzeppelin/contracts/utils/Strings.sol\":637:1335  function toString(uint256 value) internal pure returns (string memory) {... */\n    tag_58:\n        /* \"@openzeppelin/contracts/utils/Strings.sol\":693:706  string memory */\n      0x60\n        /* \"@openzeppelin/contracts/utils/Strings.sol\":742:756  uint256 length */\n      0x00\n        /* \"@openzeppelin/contracts/utils/Strings.sol\":779:780  1 */\n      0x01\n        /* \"@openzeppelin/contracts/utils/Strings.sol\":759:776  Math.log10(value) */\n      tag_131\n        /* \"@openzeppelin/contracts/utils/Strings.sol\":770:775  value */\n      dup5\n        /* \"@openzeppelin/contracts/utils/Strings.sol\":759:769  Math.log10 */\n      tag_132\n        /* \"@openzeppelin/contracts/utils/Strings.sol\":759:776  Math.log10(value) */\n      jump\t// in\n    tag_131:\n        /* \"@openzeppelin/contracts/utils/Strings.sol\":759:780  Math.log10(value) + 1 */\n      add\n        /* \"@openzeppelin/contracts/utils/Strings.sol\":742:780  uint256 length = Math.log10(value) + 1 */\n      swap1\n      pop\n        /* \"@openzeppelin/contracts/utils/Strings.sol\":794:814  string memory buffer */\n      0x00\n        /* \"@openzeppelin/contracts/utils/Strings.sol\":828:834  length */\n      dup2\n        /* \"@openzeppelin/contracts/utils/Strings.sol\":817:835  new string(length) */\n      0xffffffffffffffff\n      dup2\n      gt\n      iszero\n      tag_133\n      jumpi\n      tag_134\n      tag_135\n      jump\t// in\n    tag_134:\n    tag_133:\n      mload(0x40)\n      swap1\n      dup1\n      dup3\n      mstore\n      dup1\n      0x1f\n      add\n      not(0x1f)\n      and\n      0x20\n      add\n      dup3\n      add\n      0x40\n      mstore\n      dup1\n      iszero\n      tag_136\n      jumpi\n      dup2\n      0x20\n      add\n      0x01\n      dup3\n      mul\n      dup1\n      calldatasize\n      dup4\n      calldatacopy\n      dup1\n      dup3\n      add\n      swap2\n      pop\n      pop\n      swap1\n      pop\n    tag_136:\n      pop\n        /* \"@openzeppelin/contracts/utils/Strings.sol\":794:835  string memory buffer = new string(length) */\n      swap1\n      pop\n        /* \"@openzeppelin/contracts/utils/Strings.sol\":849:860  uint256 ptr */\n      0x00\n        /* \"@openzeppelin/contracts/utils/Strings.sol\":975:981  length */\n      dup3\n        /* \"@openzeppelin/contracts/utils/Strings.sol\":971:973  32 */\n      0x20\n        /* \"@openzeppelin/contracts/utils/Strings.sol\":967:982  add(32, length) */\n      add\n        /* \"@openzeppelin/contracts/utils/Strings.sol\":959:965  buffer */\n      dup3\n        /* \"@openzeppelin/contracts/utils/Strings.sol\":955:983  add(buffer, add(32, length)) */\n      add\n        /* \"@openzeppelin/contracts/utils/Strings.sol\":948:983  ptr := add(buffer, add(32, length)) */\n      swap1\n      pop\n        /* \"@openzeppelin/contracts/utils/Strings.sol\":1010:1292  while (true) {... */\n    tag_137:\n        /* \"@openzeppelin/contracts/utils/Strings.sol\":1017:1021  true */\n      0x01\n        /* \"@openzeppelin/contracts/utils/Strings.sol\":1010:1292  while (true) {... */\n      iszero\n      tag_138\n      jumpi\n        /* \"@openzeppelin/contracts/utils/Strings.sol\":1041:1046  ptr-- */\n      dup1\n      dup1\n      0x01\n      swap1\n      sub\n      swap2\n      pop\n      pop\n        /* \"@openzeppelin/contracts/utils/Strings.sol\":1180:1190  HEX_DIGITS */\n      0x3031323334353637383961626364656600000000000000000000000000000000\n        /* \"@openzeppelin/contracts/utils/Strings.sol\":1175:1177  10 */\n      0x0a\n        /* \"@openzeppelin/contracts/utils/Strings.sol\":1168:1173  value */\n      dup7\n        /* \"@openzeppelin/contracts/utils/Strings.sol\":1164:1178  mod(value, 10) */\n      mod\n        /* \"@openzeppelin/contracts/utils/Strings.sol\":1159:1191  byte(mod(value, 10), HEX_DIGITS) */\n      byte\n        /* \"@openzeppelin/contracts/utils/Strings.sol\":1154:1157  ptr */\n      dup2\n        /* \"@openzeppelin/contracts/utils/Strings.sol\":1146:1192  mstore8(ptr, byte(mod(value, 10), HEX_DIGITS)) */\n      mstore8\n        /* \"@openzeppelin/contracts/utils/Strings.sol\":1236:1238  10 */\n      0x0a\n        /* \"@openzeppelin/contracts/utils/Strings.sol\":1227:1238  value /= 10 */\n      dup6\n      dup2\n      tag_139\n      jumpi\n      tag_140\n      tag_141\n      jump\t// in\n    tag_140:\n    tag_139:\n      div\n      swap5\n      pop\n        /* \"@openzeppelin/contracts/utils/Strings.sol\":1269:1270  0 */\n      0x00\n        /* \"@openzeppelin/contracts/utils/Strings.sol\":1260:1265  value */\n      dup6\n        /* \"@openzeppelin/contracts/utils/Strings.sol\":1260:1270  value == 0 */\n      sub\n        /* \"@openzeppelin/contracts/utils/Strings.sol\":1010:1292  while (true) {... */\n      tag_137\n        /* \"@openzeppelin/contracts/utils/Strings.sol\":1256:1277  if (value == 0) break */\n      jumpi\n        /* \"@openzeppelin/contracts/utils/Strings.sol\":1010:1292  while (true) {... */\n    tag_138:\n        /* \"@openzeppelin/contracts/utils/Strings.sol\":1312:1318  buffer */\n      dup2\n        /* \"@openzeppelin/contracts/utils/Strings.sol\":1305:1318  return buffer */\n      swap4\n      pop\n      pop\n      pop\n      pop\n        /* \"@openzeppelin/contracts/utils/Strings.sol\":637:1335  function toString(uint256 value) internal pure returns (string memory) {... */\n      swap2\n      swap1\n      pop\n      jump\t// out\n        /* \"@tableland/evm/contracts/utils/TablelandDeployments.sol\":2908:4324  function get() internal view returns (TablelandTablesImpl) {... */\n    tag_62:\n        /* \"@tableland/evm/contracts/utils/TablelandDeployments.sol\":2946:2965  TablelandTablesImpl */\n      0x00\n        /* \"@tableland/evm/contracts/utils/TablelandDeployments.sol\":2998:2999  1 */\n      0x01\n        /* \"@tableland/evm/contracts/utils/TablelandDeployments.sol\":2981:2994  block.chainid */\n      chainid\n        /* \"@tableland/evm/contracts/utils/TablelandDeployments.sol\":2981:2999  block.chainid == 1 */\n      sub\n        /* \"@tableland/evm/contracts/utils/TablelandDeployments.sol\":2977:4318  if (block.chainid == 1) {... */\n      tag_144\n      jumpi\n        /* \"@tableland/evm/contracts/utils/TablelandDeployments.sol\":667:709  0x012969f7e3439a9B04025b5a049EB9BAD82A8C12 */\n      0x012969f7e3439a9b04025b5a049eb9bad82a8c12\n        /* \"@tableland/evm/contracts/utils/TablelandDeployments.sol\":3015:3050  return TablelandTablesImpl(MAINNET) */\n      swap1\n      pop\n      jump(tag_143)\n        /* \"@tableland/evm/contracts/utils/TablelandDeployments.sol\":2977:4318  if (block.chainid == 1) {... */\n    tag_144:\n        /* \"@tableland/evm/contracts/utils/TablelandDeployments.sol\":3088:3090  10 */\n      0x0a\n        /* \"@tableland/evm/contracts/utils/TablelandDeployments.sol\":3071:3084  block.chainid */\n      chainid\n        /* \"@tableland/evm/contracts/utils/TablelandDeployments.sol\":3071:3090  block.chainid == 10 */\n      sub\n        /* \"@tableland/evm/contracts/utils/TablelandDeployments.sol\":3067:4318  if (block.chainid == 10) {... */\n      tag_146\n      jumpi\n        /* \"@tableland/evm/contracts/utils/TablelandDeployments.sol\":899:941  0xfad44BF5B843dE943a09D4f3E84949A11d3aa3e6 */\n      0xfad44bf5b843de943a09d4f3e84949a11d3aa3e6\n        /* \"@tableland/evm/contracts/utils/TablelandDeployments.sol\":3106:3142  return TablelandTablesImpl(OPTIMISM) */\n      swap1\n      pop\n      jump(tag_143)\n        /* \"@tableland/evm/contracts/utils/TablelandDeployments.sol\":3067:4318  if (block.chainid == 10) {... */\n    tag_146:\n        /* \"@tableland/evm/contracts/utils/TablelandDeployments.sol\":3180:3185  42161 */\n      0xa4b1\n        /* \"@tableland/evm/contracts/utils/TablelandDeployments.sol\":3163:3176  block.chainid */\n      chainid\n        /* \"@tableland/evm/contracts/utils/TablelandDeployments.sol\":3163:3185  block.chainid == 42161 */\n      sub\n        /* \"@tableland/evm/contracts/utils/TablelandDeployments.sol\":3159:4318  if (block.chainid == 42161) {... */\n      tag_148\n      jumpi\n        /* \"@tableland/evm/contracts/utils/TablelandDeployments.sol\":1040:1082  0x9aBd75E8640871A5a20d3B4eE6330a04c962aFfd */\n      0x9abd75e8640871a5a20d3b4ee6330a04c962affd\n        /* \"@tableland/evm/contracts/utils/TablelandDeployments.sol\":3201:3237  return TablelandTablesImpl(ARBITRUM) */\n      swap1\n      pop\n      jump(tag_143)\n        /* \"@tableland/evm/contracts/utils/TablelandDeployments.sol\":3159:4318  if (block.chainid == 42161) {... */\n    tag_148:\n        /* \"@tableland/evm/contracts/utils/TablelandDeployments.sol\":3275:3280  42170 */\n      0xa4ba\n        /* \"@tableland/evm/contracts/utils/TablelandDeployments.sol\":3258:3271  block.chainid */\n      chainid\n        /* \"@tableland/evm/contracts/utils/TablelandDeployments.sol\":3258:3280  block.chainid == 42170 */\n      sub\n        /* \"@tableland/evm/contracts/utils/TablelandDeployments.sol\":3254:4318  if (block.chainid == 42170) {... */\n      tag_150\n      jumpi\n        /* \"@tableland/evm/contracts/utils/TablelandDeployments.sol\":1187:1229  0x1A22854c5b1642760a827f20137a67930AE108d2 */\n      0x1a22854c5b1642760a827f20137a67930ae108d2\n        /* \"@tableland/evm/contracts/utils/TablelandDeployments.sol\":3296:3337  return TablelandTablesImpl(ARBITRUM_NOVA) */\n      swap1\n      pop\n      jump(tag_143)\n        /* \"@tableland/evm/contracts/utils/TablelandDeployments.sol\":3254:4318  if (block.chainid == 42170) {... */\n    tag_150:\n        /* \"@tableland/evm/contracts/utils/TablelandDeployments.sol\":3375:3378  137 */\n      0x89\n        /* \"@tableland/evm/contracts/utils/TablelandDeployments.sol\":3358:3371  block.chainid */\n      chainid\n        /* \"@tableland/evm/contracts/utils/TablelandDeployments.sol\":3358:3378  block.chainid == 137 */\n      sub\n        /* \"@tableland/evm/contracts/utils/TablelandDeployments.sol\":3354:4318  if (block.chainid == 137) {... */\n      tag_152\n      jumpi\n        /* \"@tableland/evm/contracts/utils/TablelandDeployments.sol\":1322:1364  0x5c4e6A9e5C1e1BF445A062006faF19EA6c49aFeA */\n      0x5c4e6a9e5c1e1bf445a062006faf19ea6c49afea\n        /* \"@tableland/evm/contracts/utils/TablelandDeployments.sol\":3394:3429  return TablelandTablesImpl(POLYGON) */\n      swap1\n      pop\n      jump(tag_143)\n        /* \"@tableland/evm/contracts/utils/TablelandDeployments.sol\":3354:4318  if (block.chainid == 137) {... */\n    tag_152:\n        /* \"@tableland/evm/contracts/utils/TablelandDeployments.sol\":3467:3470  314 */\n      0x013a\n        /* \"@tableland/evm/contracts/utils/TablelandDeployments.sol\":3450:3463  block.chainid */\n      chainid\n        /* \"@tableland/evm/contracts/utils/TablelandDeployments.sol\":3450:3470  block.chainid == 314 */\n      sub\n        /* \"@tableland/evm/contracts/utils/TablelandDeployments.sol\":3446:4318  if (block.chainid == 314) {... */\n      tag_154\n      jumpi\n        /* \"@tableland/evm/contracts/utils/TablelandDeployments.sol\":1459:1501  0x59EF8Bf2d6c102B4c42AEf9189e1a9F0ABfD652d */\n      0x59ef8bf2d6c102b4c42aef9189e1a9f0abfd652d\n        /* \"@tableland/evm/contracts/utils/TablelandDeployments.sol\":3486:3522  return TablelandTablesImpl(FILECOIN) */\n      swap1\n      pop\n      jump(tag_143)\n        /* \"@tableland/evm/contracts/utils/TablelandDeployments.sol\":3446:4318  if (block.chainid == 314) {... */\n    tag_154:\n        /* \"@tableland/evm/contracts/utils/TablelandDeployments.sol\":3560:3568  11155111 */\n      0xaa36a7\n        /* \"@tableland/evm/contracts/utils/TablelandDeployments.sol\":3543:3556  block.chainid */\n      chainid\n        /* \"@tableland/evm/contracts/utils/TablelandDeployments.sol\":3543:3568  block.chainid == 11155111 */\n      sub\n        /* \"@tableland/evm/contracts/utils/TablelandDeployments.sol\":3539:4318  if (block.chainid == 11155111) {... */\n      tag_156\n      jumpi\n        /* \"@tableland/evm/contracts/utils/TablelandDeployments.sol\":1604:1646  0xc50C62498448ACc8dBdE43DA77f8D5D2E2c7597D */\n      0xc50c62498448acc8dbde43da77f8d5d2e2c7597d\n        /* \"@tableland/evm/contracts/utils/TablelandDeployments.sol\":3584:3619  return TablelandTablesImpl(SEPOLIA) */\n      swap1\n      pop\n      jump(tag_143)\n        /* \"@tableland/evm/contracts/utils/TablelandDeployments.sol\":3539:4318  if (block.chainid == 11155111) {... */\n    tag_156:\n        /* \"@tableland/evm/contracts/utils/TablelandDeployments.sol\":3657:3665  11155420 */\n      0xaa37dc\n        /* \"@tableland/evm/contracts/utils/TablelandDeployments.sol\":3640:3653  block.chainid */\n      chainid\n        /* \"@tableland/evm/contracts/utils/TablelandDeployments.sol\":3640:3665  block.chainid == 11155420 */\n      sub\n        /* \"@tableland/evm/contracts/utils/TablelandDeployments.sol\":3636:4318  if (block.chainid == 11155420) {... */\n      tag_158\n      jumpi\n        /* \"@tableland/evm/contracts/utils/TablelandDeployments.sol\":1757:1799  0x68A2f4423ad3bf5139Db563CF3bC80aA09ed7079 */\n      0x68a2f4423ad3bf5139db563cf3bc80aa09ed7079\n        /* \"@tableland/evm/contracts/utils/TablelandDeployments.sol\":3681:3725  return TablelandTablesImpl(OPTIMISM_SEPOLIA) */\n      swap1\n      pop\n      jump(tag_143)\n        /* \"@tableland/evm/contracts/utils/TablelandDeployments.sol\":3636:4318  if (block.chainid == 11155420) {... */\n    tag_158:\n        /* \"@tableland/evm/contracts/utils/TablelandDeployments.sol\":3763:3769  421614 */\n      0x066eee\n        /* \"@tableland/evm/contracts/utils/TablelandDeployments.sol\":3746:3759  block.chainid */\n      chainid\n        /* \"@tableland/evm/contracts/utils/TablelandDeployments.sol\":3746:3769  block.chainid == 421614 */\n      sub\n        /* \"@tableland/evm/contracts/utils/TablelandDeployments.sol\":3742:4318  if (block.chainid == 421614) {... */\n      tag_160\n      jumpi\n        /* \"@tableland/evm/contracts/utils/TablelandDeployments.sol\":1910:1952  0x223A74B8323914afDC3ff1e5005564dC17231d6e */\n      0x223a74b8323914afdc3ff1e5005564dc17231d6e\n        /* \"@tableland/evm/contracts/utils/TablelandDeployments.sol\":3785:3829  return TablelandTablesImpl(ARBITRUM_SEPOLIA) */\n      swap1\n      pop\n      jump(tag_143)\n        /* \"@tableland/evm/contracts/utils/TablelandDeployments.sol\":3742:4318  if (block.chainid == 421614) {... */\n    tag_160:\n        /* \"@tableland/evm/contracts/utils/TablelandDeployments.sol\":3867:3872  84532 */\n      0x014a34\n        /* \"@tableland/evm/contracts/utils/TablelandDeployments.sol\":3850:3863  block.chainid */\n      chainid\n        /* \"@tableland/evm/contracts/utils/TablelandDeployments.sol\":3850:3872  block.chainid == 84532 */\n      sub\n        /* \"@tableland/evm/contracts/utils/TablelandDeployments.sol\":3846:4318  if (block.chainid == 84532) {... */\n      tag_162\n      jumpi\n        /* \"@tableland/evm/contracts/utils/TablelandDeployments.sol\":2055:2097  0xA85aAE9f0Aec5F5638E5F13840797303Ab29c9f9 */\n      0xa85aae9f0aec5f5638e5f13840797303ab29c9f9\n        /* \"@tableland/evm/contracts/utils/TablelandDeployments.sol\":3888:3928  return TablelandTablesImpl(BASE_SEPOLIA) */\n      swap1\n      pop\n      jump(tag_143)\n        /* \"@tableland/evm/contracts/utils/TablelandDeployments.sol\":3846:4318  if (block.chainid == 84532) {... */\n    tag_162:\n        /* \"@tableland/evm/contracts/utils/TablelandDeployments.sol\":3966:3971  80002 */\n      0x013882\n        /* \"@tableland/evm/contracts/utils/TablelandDeployments.sol\":3949:3962  block.chainid */\n      chainid\n        /* \"@tableland/evm/contracts/utils/TablelandDeployments.sol\":3949:3971  block.chainid == 80002 */\n      sub\n        /* \"@tableland/evm/contracts/utils/TablelandDeployments.sol\":3945:4318  if (block.chainid == 80002) {... */\n      tag_164\n      jumpi\n        /* \"@tableland/evm/contracts/utils/TablelandDeployments.sol\":2200:2242  0x170fb206132b693e38adFc8727dCfa303546Cec1 */\n      0x170fb206132b693e38adfc8727dcfa303546cec1\n        /* \"@tableland/evm/contracts/utils/TablelandDeployments.sol\":3987:4027  return TablelandTablesImpl(POLYGON_AMOY) */\n      swap1\n      pop\n      jump(tag_143)\n        /* \"@tableland/evm/contracts/utils/TablelandDeployments.sol\":3945:4318  if (block.chainid == 80002) {... */\n    tag_164:\n        /* \"@tableland/evm/contracts/utils/TablelandDeployments.sol\":4065:4071  314159 */\n      0x04cb2f\n        /* \"@tableland/evm/contracts/utils/TablelandDeployments.sol\":4048:4061  block.chainid */\n      chainid\n        /* \"@tableland/evm/contracts/utils/TablelandDeployments.sol\":4048:4071  block.chainid == 314159 */\n      sub\n        /* \"@tableland/evm/contracts/utils/TablelandDeployments.sol\":4044:4318  if (block.chainid == 314159) {... */\n      tag_166\n      jumpi\n        /* \"@tableland/evm/contracts/utils/TablelandDeployments.sol\":2361:2403  0x030BCf3D50cad04c2e57391B12740982A9308621 */\n      0x030bcf3d50cad04c2e57391b12740982a9308621\n        /* \"@tableland/evm/contracts/utils/TablelandDeployments.sol\":4087:4135  return TablelandTablesImpl(FILECOIN_CALIBRATION) */\n      swap1\n      pop\n      jump(tag_143)\n        /* \"@tableland/evm/contracts/utils/TablelandDeployments.sol\":4044:4318  if (block.chainid == 314159) {... */\n    tag_166:\n        /* \"@tableland/evm/contracts/utils/TablelandDeployments.sol\":4173:4178  31337 */\n      0x7a69\n        /* \"@tableland/evm/contracts/utils/TablelandDeployments.sol\":4156:4169  block.chainid */\n      chainid\n        /* \"@tableland/evm/contracts/utils/TablelandDeployments.sol\":4156:4178  block.chainid == 31337 */\n      sub\n        /* \"@tableland/evm/contracts/utils/TablelandDeployments.sol\":4152:4318  if (block.chainid == 31337) {... */\n      tag_168\n      jumpi\n        /* \"@tableland/evm/contracts/utils/TablelandDeployments.sol\":2584:2626  0xe7f1725E7734CE288F8367e1Bb143E90bb3F0512 */\n      0xe7f1725e7734ce288f8367e1bb143e90bb3f0512\n        /* \"@tableland/evm/contracts/utils/TablelandDeployments.sol\":4194:4237  return TablelandTablesImpl(LOCAL_TABLELAND) */\n      swap1\n      pop\n      jump(tag_143)\n        /* \"@tableland/evm/contracts/utils/TablelandDeployments.sol\":4152:4318  if (block.chainid == 31337) {... */\n    tag_168:\n        /* \"@tableland/evm/contracts/utils/TablelandDeployments.sol\":4293:4306  block.chainid */\n      chainid\n        /* \"@tableland/evm/contracts/utils/TablelandDeployments.sol\":4275:4307  ChainNotSupported(block.chainid) */\n      mload(0x40)\n      0x264e42cf00000000000000000000000000000000000000000000000000000000\n      dup2\n      mstore\n      0x04\n      add\n      tag_170\n      swap2\n      swap1\n      tag_43\n      jump\t// in\n    tag_170:\n      mload(0x40)\n      dup1\n      swap2\n      sub\n      swap1\n      revert\n        /* \"@tableland/evm/contracts/utils/TablelandDeployments.sol\":2908:4324  function get() internal view returns (TablelandTablesImpl) {... */\n    tag_143:\n      swap1\n      jump\t// out\n        /* \"@tableland/evm/contracts/utils/SQLHelpers.sol\":5600:5910  function toDelete(... */\n    tag_64:\n        /* \"@tableland/evm/contracts/utils/SQLHelpers.sol\":5733:5746  string memory */\n      0x60\n        /* \"@tableland/evm/contracts/utils/SQLHelpers.sol\":5758:5776  string memory name */\n      0x00\n        /* \"@tableland/evm/contracts/utils/SQLHelpers.sol\":5779:5808  toNameFromId(prefix, tableId) */\n      tag_172\n        /* \"@tableland/evm/contracts/utils/SQLHelpers.sol\":5792:5798  prefix */\n      dup6\n        /* \"@tableland/evm/contracts/utils/SQLHelpers.sol\":5800:5807  tableId */\n      dup6\n        /* \"@tableland/evm/contracts/utils/SQLHelpers.sol\":5779:5791  toNameFromId */\n      tag_83\n        /* \"@tableland/evm/contracts/utils/SQLHelpers.sol\":5779:5808  toNameFromId(prefix, tableId) */\n      jump\t// in\n    tag_172:\n        /* \"@tableland/evm/contracts/utils/SQLHelpers.sol\":5758:5808  string memory name = toNameFromId(prefix, tableId) */\n      swap1\n      pop\n        /* \"@tableland/evm/contracts/utils/SQLHelpers.sol\":5877:5881  name */\n      dup1\n        /* \"@tableland/evm/contracts/utils/SQLHelpers.sol\":5894:5901  filters */\n      dup4\n        /* \"@tableland/evm/contracts/utils/SQLHelpers.sol\":5844:5902  abi.encodePacked(\"DELETE FROM \", name, \" WHERE \", filters) */\n      add(0x20, mload(0x40))\n      tag_173\n      swap3\n      swap2\n      swap1\n      tag_174\n      jump\t// in\n    tag_173:\n      mload(0x40)\n      0x20\n      dup2\n      dup4\n      sub\n      sub\n      dup2\n      mstore\n      swap1\n      0x40\n      mstore\n        /* \"@tableland/evm/contracts/utils/SQLHelpers.sol\":5818:5903  return... */\n      swap2\n      pop\n      pop\n        /* \"@tableland/evm/contracts/utils/SQLHelpers.sol\":5600:5910  function toDelete(... */\n      swap4\n      swap3\n      pop\n      pop\n      pop\n      jump\t// out\n        /* \"@openzeppelin/contracts/utils/Strings.sol\":2005:2530  function toHexString(uint256 value, uint256 length) internal pure returns (string memory) {... */\n    tag_80:\n        /* \"@openzeppelin/contracts/utils/Strings.sol\":2080:2093  string memory */\n      0x60\n        /* \"@openzeppelin/contracts/utils/Strings.sol\":2105:2123  uint256 localValue */\n      0x00\n        /* \"@openzeppelin/contracts/utils/Strings.sol\":2126:2131  value */\n      dup4\n        /* \"@openzeppelin/contracts/utils/Strings.sol\":2105:2131  uint256 localValue = value */\n      swap1\n      pop\n        /* \"@openzeppelin/contracts/utils/Strings.sol\":2141:2160  bytes memory buffer */\n      0x00\n        /* \"@openzeppelin/contracts/utils/Strings.sol\":2186:2187  2 */\n      0x02\n        /* \"@openzeppelin/contracts/utils/Strings.sol\":2177:2183  length */\n      dup5\n        /* \"@openzeppelin/contracts/utils/Strings.sol\":2173:2174  2 */\n      0x02\n        /* \"@openzeppelin/contracts/utils/Strings.sol\":2173:2183  2 * length */\n      tag_176\n      swap2\n      swap1\n      tag_177\n      jump\t// in\n    tag_176:\n        /* \"@openzeppelin/contracts/utils/Strings.sol\":2173:2187  2 * length + 2 */\n      tag_178\n      swap2\n      swap1\n      tag_179\n      jump\t// in\n    tag_178:\n        /* \"@openzeppelin/contracts/utils/Strings.sol\":2163:2188  new bytes(2 * length + 2) */\n      0xffffffffffffffff\n      dup2\n      gt\n      iszero\n      tag_180\n      jumpi\n      tag_181\n      tag_135\n      jump\t// in\n    tag_181:\n    tag_180:\n      mload(0x40)\n      swap1\n      dup1\n      dup3\n      mstore\n      dup1\n      0x1f\n      add\n      not(0x1f)\n      and\n      0x20\n      add\n      dup3\n      add\n      0x40\n      mstore\n      dup1\n      iszero\n      tag_182\n      jumpi\n      dup2\n      0x20\n      add\n      0x01\n      dup3\n      mul\n      dup1\n      calldatasize\n      dup4\n      calldatacopy\n      dup1\n      dup3\n      add\n      swap2\n      pop\n      pop\n      swap1\n      pop\n    tag_182:\n      pop\n        /* \"@openzeppelin/contracts/utils/Strings.sol\":2141:2188  bytes memory buffer = new bytes(2 * length + 2) */\n      swap1\n      pop\n        /* \"@openzeppelin/contracts/utils/Strings.sol\":2198:2213  buffer[0] = \"0\" */\n      0x3000000000000000000000000000000000000000000000000000000000000000\n        /* \"@openzeppelin/contracts/utils/Strings.sol\":2198:2204  buffer */\n      dup2\n        /* \"@openzeppelin/contracts/utils/Strings.sol\":2205:2206  0 */\n      0x00\n        /* \"@openzeppelin/contracts/utils/Strings.sol\":2198:2207  buffer[0] */\n      dup2\n      mload\n      dup2\n      lt\n      tag_183\n      jumpi\n      tag_184\n      tag_185\n      jump\t// in\n    tag_184:\n    tag_183:\n      0x20\n      add\n      add\n        /* \"@openzeppelin/contracts/utils/Strings.sol\":2198:2213  buffer[0] = \"0\" */\n      swap1\n      not(0xffffffffffffffffffffffffffffffffffffffffffffffffffffffffffffff)\n      and\n      swap1\n      dup2\n      0x00\n      byte\n      swap1\n      mstore8\n      pop\n        /* \"@openzeppelin/contracts/utils/Strings.sol\":2223:2238  buffer[1] = \"x\" */\n      0x7800000000000000000000000000000000000000000000000000000000000000\n        /* \"@openzeppelin/contracts/utils/Strings.sol\":2223:2229  buffer */\n      dup2\n        /* \"@openzeppelin/contracts/utils/Strings.sol\":2230:2231  1 */\n      0x01\n        /* \"@openzeppelin/contracts/utils/Strings.sol\":2223:2232  buffer[1] */\n      dup2\n      mload\n      dup2\n      lt\n      tag_186\n      jumpi\n      tag_187\n      tag_185\n      jump\t// in\n    tag_187:\n    tag_186:\n      0x20\n      add\n      add\n        /* \"@openzeppelin/contracts/utils/Strings.sol\":2223:2238  buffer[1] = \"x\" */\n      swap1\n      not(0xffffffffffffffffffffffffffffffffffffffffffffffffffffffffffffff)\n      and\n      swap1\n      dup2\n      0x00\n      byte\n      swap1\n      mstore8\n      pop\n        /* \"@openzeppelin/contracts/utils/Strings.sol\":2253:2262  uint256 i */\n      0x00\n        /* \"@openzeppelin/contracts/utils/Strings.sol\":2278:2279  1 */\n      0x01\n        /* \"@openzeppelin/contracts/utils/Strings.sol\":2269:2275  length */\n      dup6\n        /* \"@openzeppelin/contracts/utils/Strings.sol\":2265:2266  2 */\n      0x02\n        /* \"@openzeppelin/contracts/utils/Strings.sol\":2265:2275  2 * length */\n      tag_191\n      swap2\n      swap1\n      tag_177\n      jump\t// in\n    tag_191:\n        /* \"@openzeppelin/contracts/utils/Strings.sol\":2265:2279  2 * length + 1 */\n      tag_192\n      swap2\n      swap1\n      tag_179\n      jump\t// in\n    tag_192:\n        /* \"@openzeppelin/contracts/utils/Strings.sol\":2253:2279  uint256 i = 2 * length + 1 */\n      swap1\n      pop\n        /* \"@openzeppelin/contracts/utils/Strings.sol\":2248:2388  for (uint256 i = 2 * length + 1; i > 1; --i) {... */\n    tag_188:\n        /* \"@openzeppelin/contracts/utils/Strings.sol\":2285:2286  1 */\n      0x01\n        /* \"@openzeppelin/contracts/utils/Strings.sol\":2281:2282  i */\n      dup2\n        /* \"@openzeppelin/contracts/utils/Strings.sol\":2281:2286  i > 1 */\n      gt\n        /* \"@openzeppelin/contracts/utils/Strings.sol\":2248:2388  for (uint256 i = 2 * length + 1; i > 1; --i) {... */\n      iszero\n      tag_189\n      jumpi\n        /* \"@openzeppelin/contracts/utils/Strings.sol\":2319:2329  HEX_DIGITS */\n      0x3031323334353637383961626364656600000000000000000000000000000000\n        /* \"@openzeppelin/contracts/utils/Strings.sol\":2343:2346  0xf */\n      0x0f\n        /* \"@openzeppelin/contracts/utils/Strings.sol\":2330:2340  localValue */\n      dup5\n        /* \"@openzeppelin/contracts/utils/Strings.sol\":2330:2346  localValue & 0xf */\n      and\n        /* \"@openzeppelin/contracts/utils/Strings.sol\":2319:2347  HEX_DIGITS[localValue & 0xf] */\n      0x10\n      dup2\n      lt\n      tag_193\n      jumpi\n      tag_194\n      tag_185\n      jump\t// in\n    tag_194:\n    tag_193:\n      byte\n      0xf8\n      shl\n        /* \"@openzeppelin/contracts/utils/Strings.sol\":2307:2313  buffer */\n      dup3\n        /* \"@openzeppelin/contracts/utils/Strings.sol\":2314:2315  i */\n      dup3\n        /* \"@openzeppelin/contracts/utils/Strings.sol\":2307:2316  buffer[i] */\n      dup2\n      mload\n      dup2\n      lt\n      tag_195\n      jumpi\n      tag_196\n      tag_185\n      jump\t// in\n    tag_196:\n    tag_195:\n      0x20\n      add\n      add\n        /* \"@openzeppelin/contracts/utils/Strings.sol\":2307:2347  buffer[i] = HEX_DIGITS[localValue & 0xf] */\n      swap1\n      not(0xffffffffffffffffffffffffffffffffffffffffffffffffffffffffffffff)\n      and\n      swap1\n      dup2\n      0x00\n      byte\n      swap1\n      mstore8\n      pop\n        /* \"@openzeppelin/contracts/utils/Strings.sol\":2376:2377  4 */\n      0x04\n        /* \"@openzeppelin/contracts/utils/Strings.sol\":2361:2377  localValue >>= 4 */\n      dup4\n      swap1\n      shr\n      swap3\n      pop\n        /* \"@openzeppelin/contracts/utils/Strings.sol\":2288:2291  --i */\n      dup1\n      tag_197\n      swap1\n      tag_198\n      jump\t// in\n    tag_197:\n      swap1\n      pop\n        /* \"@openzeppelin/contracts/utils/Strings.sol\":2248:2388  for (uint256 i = 2 * length + 1; i > 1; --i) {... */\n      jump(tag_188)\n    tag_189:\n      pop\n        /* \"@openzeppelin/contracts/utils/Strings.sol\":2415:2416  0 */\n      0x00\n        /* \"@openzeppelin/contracts/utils/Strings.sol\":2401:2411  localValue */\n      dup3\n        /* \"@openzeppelin/contracts/utils/Strings.sol\":2401:2416  localValue != 0 */\n      eq\n        /* \"@openzeppelin/contracts/utils/Strings.sol\":2397:2493  if (localValue != 0) {... */\n      tag_199\n      jumpi\n        /* \"@openzeppelin/contracts/utils/Strings.sol\":2468:2473  value */\n      dup5\n        /* \"@openzeppelin/contracts/utils/Strings.sol\":2475:2481  length */\n      dup5\n        /* \"@openzeppelin/contracts/utils/Strings.sol\":2439:2482  StringsInsufficientHexLength(value, length) */\n      mload(0x40)\n      0xe22e27eb00000000000000000000000000000000000000000000000000000000\n      dup2\n      mstore\n      0x04\n      add\n      tag_200\n      swap3\n      swap2\n      swap1\n      tag_201\n      jump\t// in\n    tag_200:\n      mload(0x40)\n      dup1\n      swap2\n      sub\n      swap1\n      revert\n        /* \"@openzeppelin/contracts/utils/Strings.sol\":2397:2493  if (localValue != 0) {... */\n    tag_199:\n        /* \"@openzeppelin/contracts/utils/Strings.sol\":2516:2522  buffer */\n      dup1\n        /* \"@openzeppelin/contracts/utils/Strings.sol\":2502:2523  return string(buffer) */\n      swap3\n      pop\n      pop\n      pop\n        /* \"@openzeppelin/contracts/utils/Strings.sol\":2005:2530  function toHexString(uint256 value, uint256 length) internal pure returns (string memory) {... */\n      swap3\n      swap2\n      pop\n      pop\n      jump\t// out\n        /* \"@tableland/evm/contracts/utils/SQLHelpers.sol\":566:973  function toNameFromId(... */\n    tag_83:\n        /* \"@tableland/evm/contracts/utils/SQLHelpers.sol\":672:685  string memory */\n      0x60\n        /* \"@tableland/evm/contracts/utils/SQLHelpers.sol\":778:784  prefix */\n      dup3\n        /* \"@tableland/evm/contracts/utils/SQLHelpers.sol\":831:862  Strings.toString(block.chainid) */\n      tag_203\n        /* \"@tableland/evm/contracts/utils/SQLHelpers.sol\":848:861  block.chainid */\n      chainid\n        /* \"@tableland/evm/contracts/utils/SQLHelpers.sol\":831:847  Strings.toString */\n      tag_58\n        /* \"@tableland/evm/contracts/utils/SQLHelpers.sol\":831:862  Strings.toString(block.chainid) */\n      jump\t// in\n    tag_203:\n        /* \"@tableland/evm/contracts/utils/SQLHelpers.sol\":909:934  Strings.toString(tableId) */\n      tag_204\n        /* \"@tableland/evm/contracts/utils/SQLHelpers.sol\":926:933  tableId */\n      dup5\n        /* \"@tableland/evm/contracts/utils/SQLHelpers.sol\":909:925  Strings.toString */\n      tag_58\n        /* \"@tableland/evm/contracts/utils/SQLHelpers.sol\":909:934  Strings.toString(tableId) */\n      jump\t// in\n    tag_204:\n        /* \"@tableland/evm/contracts/utils/SQLHelpers.sol\":740:952  abi.encodePacked(... */\n      add(0x20, mload(0x40))\n      tag_205\n      swap4\n      swap3\n      swap2\n      swap1\n      tag_206\n      jump\t// in\n    tag_205:\n      mload(0x40)\n      0x20\n      dup2\n      dup4\n      sub\n      sub\n      dup2\n      mstore\n      swap1\n      0x40\n      mstore\n        /* \"@tableland/evm/contracts/utils/SQLHelpers.sol\":697:966  return... */\n      swap1\n      pop\n        /* \"@tableland/evm/contracts/utils/SQLHelpers.sol\":566:973  function toNameFromId(... */\n      swap3\n      swap2\n      pop\n      pop\n      jump\t// out\n        /* \"@tableland/evm/contracts/utils/SQLHelpers.sol\":1339:1800  function toCreateFromSchema(... */\n    tag_88:\n        /* \"@tableland/evm/contracts/utils/SQLHelpers.sol\":1456:1469  string memory */\n      0x60\n        /* \"@tableland/evm/contracts/utils/SQLHelpers.sol\":1599:1605  prefix */\n      dup2\n        /* \"@tableland/evm/contracts/utils/SQLHelpers.sol\":1652:1683  Strings.toString(block.chainid) */\n      tag_208\n        /* \"@tableland/evm/contracts/utils/SQLHelpers.sol\":1669:1682  block.chainid */\n      chainid\n        /* \"@tableland/evm/contracts/utils/SQLHelpers.sol\":1652:1668  Strings.toString */\n      tag_58\n        /* \"@tableland/evm/contracts/utils/SQLHelpers.sol\":1652:1683  Strings.toString(block.chainid) */\n      jump\t// in\n    tag_208:\n        /* \"@tableland/evm/contracts/utils/SQLHelpers.sol\":1730:1736  schema */\n      dup5\n        /* \"@tableland/evm/contracts/utils/SQLHelpers.sol\":1524:1779  abi.encodePacked(... */\n      add(0x20, mload(0x40))\n      tag_209\n      swap4\n      swap3\n      swap2\n      swap1\n      tag_210\n      jump\t// in\n    tag_209:\n      mload(0x40)\n      0x20\n      dup2\n      dup4\n      sub\n      sub\n      dup2\n      mstore\n      swap1\n      0x40\n      mstore\n        /* \"@tableland/evm/contracts/utils/SQLHelpers.sol\":1481:1793  return... */\n      swap1\n      pop\n        /* \"@tableland/evm/contracts/utils/SQLHelpers.sol\":1339:1800  function toCreateFromSchema(... */\n      swap3\n      swap2\n      pop\n      pop\n      jump\t// out\n        /* \"@openzeppelin/contracts/utils/Strings.sol\":2689:2837  function toHexString(address addr) internal pure returns (string memory) {... */\n    tag_98:\n        /* \"@openzeppelin/contracts/utils/Strings.sol\":2747:2760  string memory */\n      0x60\n        /* \"@openzeppelin/contracts/utils/Strings.sol\":2779:2830  toHexString(uint256(uint160(addr)), ADDRESS_LENGTH) */\n      tag_212\n        /* \"@openzeppelin/contracts/utils/Strings.sol\":2807:2811  addr */\n      dup3\n        /* \"@openzeppelin/contracts/utils/Strings.sol\":2791:2813  uint256(uint160(addr)) */\n      0xffffffffffffffffffffffffffffffffffffffff\n      and\n        /* \"@openzeppelin/contracts/utils/Strings.sol\":375:377  20 */\n      0x14\n        /* \"@openzeppelin/contracts/utils/Strings.sol\":2779:2830  toHexString(uint256(uint160(addr)), ADDRESS_LENGTH) */\n      0xff\n      and\n        /* \"@openzeppelin/contracts/utils/Strings.sol\":2779:2790  toHexString */\n      tag_80\n        /* \"@openzeppelin/contracts/utils/Strings.sol\":2779:2830  toHexString(uint256(uint160(addr)), ADDRESS_LENGTH) */\n      jump\t// in\n    tag_212:\n        /* \"@openzeppelin/contracts/utils/Strings.sol\":2772:2830  return toHexString(uint256(uint160(addr)), ADDRESS_LENGTH) */\n      swap1\n      pop\n        /* \"@openzeppelin/contracts/utils/Strings.sol\":2689:2837  function toHexString(address addr) internal pure returns (string memory) {... */\n      swap2\n      swap1\n      pop\n      jump\t// out\n        /* \"@tableland/evm/contracts/utils/SQLHelpers.sol\":6030:6169  function quote(string memory input) internal pure returns (string memory) {... */\n    tag_99:\n        /* \"@tableland/evm/contracts/utils/SQLHelpers.sol\":6089:6102  string memory */\n      0x60\n        /* \"@tableland/evm/contracts/utils/SQLHelpers.sol\":6150:6155  input */\n      dup2\n        /* \"@tableland/evm/contracts/utils/SQLHelpers.sol\":6128:6161  abi.encodePacked(\"'\", input, \"'\") */\n      add(0x20, mload(0x40))\n      tag_214\n      swap2\n      swap1\n      tag_215\n      jump\t// in\n    tag_214:\n      mload(0x40)\n      0x20\n      dup2\n      dup4\n      sub\n      sub\n      dup2\n      mstore\n      swap1\n      0x40\n      mstore\n        /* \"@tableland/evm/contracts/utils/SQLHelpers.sol\":6114:6162  return string(abi.encodePacked(\"'\", input, \"'\")) */\n      swap1\n      pop\n        /* \"@tableland/evm/contracts/utils/SQLHelpers.sol\":6030:6169  function quote(string memory input) internal pure returns (string memory) {... */\n      swap2\n      swap1\n      pop\n      jump\t// out\n        /* \"@tableland/evm/contracts/utils/SQLHelpers.sol\":4689:5184  function toUpdate(... */\n    tag_106:\n        /* \"@tableland/evm/contracts/utils/SQLHelpers.sol\":4853:4866  string memory */\n      0x60\n        /* \"@tableland/evm/contracts/utils/SQLHelpers.sol\":4878:4896  string memory name */\n      0x00\n        /* \"@tableland/evm/contracts/utils/SQLHelpers.sol\":4899:4928  toNameFromId(prefix, tableId) */\n      tag_217\n        /* \"@tableland/evm/contracts/utils/SQLHelpers.sol\":4912:4918  prefix */\n      dup7\n        /* \"@tableland/evm/contracts/utils/SQLHelpers.sol\":4920:4927  tableId */\n      dup7\n        /* \"@tableland/evm/contracts/utils/SQLHelpers.sol\":4899:4911  toNameFromId */\n      tag_83\n        /* \"@tableland/evm/contracts/utils/SQLHelpers.sol\":4899:4928  toNameFromId(prefix, tableId) */\n      jump\t// in\n    tag_217:\n        /* \"@tableland/evm/contracts/utils/SQLHelpers.sol\":4878:4928  string memory name = toNameFromId(prefix, tableId) */\n      swap1\n      pop\n        /* \"@tableland/evm/contracts/utils/SQLHelpers.sol\":4938:4958  string memory filter */\n      0x00\n        /* \"@tableland/evm/contracts/utils/SQLHelpers.sol\":4938:4963  string memory filter = \"\" */\n      mload(0x40)\n      dup1\n      0x20\n      add\n      0x40\n      mstore\n      dup1\n      0x00\n      dup2\n      mstore\n      pop\n      swap1\n      pop\n        /* \"@tableland/evm/contracts/utils/SQLHelpers.sol\":5001:5002  0 */\n      0x00\n        /* \"@tableland/evm/contracts/utils/SQLHelpers.sol\":4983:4990  filters */\n      dup5\n        /* \"@tableland/evm/contracts/utils/SQLHelpers.sol\":4977:4998  bytes(filters).length */\n      mload\n        /* \"@tableland/evm/contracts/utils/SQLHelpers.sol\":4977:5002  bytes(filters).length > 0 */\n      gt\n        /* \"@tableland/evm/contracts/utils/SQLHelpers.sol\":4973:5082  if (bytes(filters).length > 0) {... */\n      iszero\n      tag_218\n      jumpi\n        /* \"@tableland/evm/contracts/utils/SQLHelpers.sol\":5062:5069  filters */\n      dup4\n        /* \"@tableland/evm/contracts/utils/SQLHelpers.sol\":5034:5070  abi.encodePacked(\" WHERE \", filters) */\n      add(0x20, mload(0x40))\n      tag_219\n      swap2\n      swap1\n      tag_220\n      jump\t// in\n    tag_219:\n      mload(0x40)\n      0x20\n      dup2\n      dup4\n      sub\n      sub\n      dup2\n      mstore\n      swap1\n      0x40\n      mstore\n        /* \"@tableland/evm/contracts/utils/SQLHelpers.sol\":5018:5071  filter = string(abi.encodePacked(\" WHERE \", filters)) */\n      swap1\n      pop\n        /* \"@tableland/evm/contracts/utils/SQLHelpers.sol\":4973:5082  if (bytes(filters).length > 0) {... */\n    tag_218:\n        /* \"@tableland/evm/contracts/utils/SQLHelpers.sol\":5145:5149  name */\n      dup2\n        /* \"@tableland/evm/contracts/utils/SQLHelpers.sol\":5160:5167  setters */\n      dup6\n        /* \"@tableland/evm/contracts/utils/SQLHelpers.sol\":5169:5175  filter */\n      dup3\n        /* \"@tableland/evm/contracts/utils/SQLHelpers.sol\":5117:5176  abi.encodePacked(\"UPDATE \", name, \" SET \", setters, filter) */\n      add(0x20, mload(0x40))\n      tag_221\n      swap4\n      swap3\n      swap2\n      swap1\n      tag_222\n      jump\t// in\n    tag_221:\n      mload(0x40)\n      0x20\n      dup2\n      dup4\n      sub\n      sub\n      dup2\n      mstore\n      swap1\n      0x40\n      mstore\n        /* \"@tableland/evm/contracts/utils/SQLHelpers.sol\":5091:5177  return... */\n      swap3\n      pop\n      pop\n      pop\n        /* \"@tableland/evm/contracts/utils/SQLHelpers.sol\":4689:5184  function toUpdate(... */\n      swap5\n      swap4\n      pop\n      pop\n      pop\n      pop\n      jump\t// out\n        /* \"@tableland/evm/contracts/utils/SQLHelpers.sol\":2405:2952  function toInsert(... */\n    tag_125:\n        /* \"@tableland/evm/contracts/utils/SQLHelpers.sol\":2568:2581  string memory */\n      0x60\n        /* \"@tableland/evm/contracts/utils/SQLHelpers.sol\":2593:2611  string memory name */\n      0x00\n        /* \"@tableland/evm/contracts/utils/SQLHelpers.sol\":2614:2643  toNameFromId(prefix, tableId) */\n      tag_224\n        /* \"@tableland/evm/contracts/utils/SQLHelpers.sol\":2627:2633  prefix */\n      dup7\n        /* \"@tableland/evm/contracts/utils/SQLHelpers.sol\":2635:2642  tableId */\n      dup7\n        /* \"@tableland/evm/contracts/utils/SQLHelpers.sol\":2614:2626  toNameFromId */\n      tag_83\n        /* \"@tableland/evm/contracts/utils/SQLHelpers.sol\":2614:2643  toNameFromId(prefix, tableId) */\n      jump\t// in\n    tag_224:\n        /* \"@tableland/evm/contracts/utils/SQLHelpers.sol\":2593:2643  string memory name = toNameFromId(prefix, tableId) */\n      swap1\n      pop\n        /* \"@tableland/evm/contracts/utils/SQLHelpers.sol\":2770:2774  name */\n      dup1\n        /* \"@tableland/evm/contracts/utils/SQLHelpers.sol\":2821:2828  columns */\n      dup5\n        /* \"@tableland/evm/contracts/utils/SQLHelpers.sol\":2882:2888  values */\n      dup5\n        /* \"@tableland/evm/contracts/utils/SQLHelpers.sol\":2696:2931  abi.encodePacked(... */\n      add(0x20, mload(0x40))\n      tag_225\n      swap4\n      swap3\n      swap2\n      swap1\n      tag_226\n      jump\t// in\n    tag_225:\n      mload(0x40)\n      0x20\n      dup2\n      dup4\n      sub\n      sub\n      dup2\n      mstore\n      swap1\n      0x40\n      mstore\n        /* \"@tableland/evm/contracts/utils/SQLHelpers.sol\":2653:2945  return... */\n      swap2\n      pop\n      pop\n        /* \"@tableland/evm/contracts/utils/SQLHelpers.sol\":2405:2952  function toInsert(... */\n      swap5\n      swap4\n      pop\n      pop\n      pop\n      pop\n      jump\t// out\n        /* \"@openzeppelin/contracts/utils/math/Math.sol\":12214:13130  function log10(uint256 value) internal pure returns (uint256) {... */\n    tag_132:\n        /* \"@openzeppelin/contracts/utils/math/Math.sol\":12267:12274  uint256 */\n      0x00\n        /* \"@openzeppelin/contracts/utils/math/Math.sol\":12286:12300  uint256 result */\n      dup1\n        /* \"@openzeppelin/contracts/utils/math/Math.sol\":12303:12304  0 */\n      0x00\n        /* \"@openzeppelin/contracts/utils/math/Math.sol\":12286:12304  uint256 result = 0 */\n      swap1\n      pop\n        /* \"@openzeppelin/contracts/utils/math/Math.sol\":12351:12359  10 ** 64 */\n      0x184f03e93ff9f4daa797ed6e38ed64bf6a1f010000000000000000\n        /* \"@openzeppelin/contracts/utils/math/Math.sol\":12342:12347  value */\n      dup4\n        /* \"@openzeppelin/contracts/utils/math/Math.sol\":12342:12359  value >= 10 ** 64 */\n      lt\n        /* \"@openzeppelin/contracts/utils/math/Math.sol\":12338:12441  if (value >= 10 ** 64) {... */\n      tag_228\n      jumpi\n        /* \"@openzeppelin/contracts/utils/math/Math.sol\":12388:12396  10 ** 64 */\n      0x184f03e93ff9f4daa797ed6e38ed64bf6a1f010000000000000000\n        /* \"@openzeppelin/contracts/utils/math/Math.sol\":12379:12396  value /= 10 ** 64 */\n      dup4\n      dup2\n      tag_229\n      jumpi\n      tag_230\n      tag_141\n      jump\t// in\n    tag_230:\n    tag_229:\n      div\n      swap3\n      pop\n        /* \"@openzeppelin/contracts/utils/math/Math.sol\":12424:12426  64 */\n      0x40\n        /* \"@openzeppelin/contracts/utils/math/Math.sol\":12414:12426  result += 64 */\n      dup2\n      add\n      swap1\n      pop\n        /* \"@openzeppelin/contracts/utils/math/Math.sol\":12338:12441  if (value >= 10 ** 64) {... */\n    tag_228:\n        /* \"@openzeppelin/contracts/utils/math/Math.sol\":12467:12475  10 ** 32 */\n      0x04ee2d6d415b85acef8100000000\n        /* \"@openzeppelin/contracts/utils/math/Math.sol\":12458:12463  value */\n      dup4\n        /* \"@openzeppelin/contracts/utils/math/Math.sol\":12458:12475  value >= 10 ** 32 */\n      lt\n        /* \"@openzeppelin/contracts/utils/math/Math.sol\":12454:12557  if (value >= 10 ** 32) {... */\n      tag_231\n      jumpi\n        /* \"@openzeppelin/contracts/utils/math/Math.sol\":12504:12512  10 ** 32 */\n      0x04ee2d6d415b85acef8100000000\n        /* \"@openzeppelin/contracts/utils/math/Math.sol\":12495:12512  value /= 10 ** 32 */\n      dup4\n      dup2\n      tag_232\n      jumpi\n      tag_233\n      tag_141\n      jump\t// in\n    tag_233:\n    tag_232:\n      div\n      swap3\n      pop\n        /* \"@openzeppelin/contracts/utils/math/Math.sol\":12540:12542  32 */\n      0x20\n        /* \"@openzeppelin/contracts/utils/math/Math.sol\":12530:12542  result += 32 */\n      dup2\n      add\n      swap1\n      pop\n        /* \"@openzeppelin/contracts/utils/math/Math.sol\":12454:12557  if (value >= 10 ** 32) {... */\n    tag_231:\n        /* \"@openzeppelin/contracts/utils/math/Math.sol\":12583:12591  10 ** 16 */\n      0x2386f26fc10000\n        /* \"@openzeppelin/contracts/utils/math/Math.sol\":12574:12579  value */\n      dup4\n        /* \"@openzeppelin/contracts/utils/math/Math.sol\":12574:12591  value >= 10 ** 16 */\n      lt\n        /* \"@openzeppelin/contracts/utils/math/Math.sol\":12570:12673  if (value >= 10 ** 16) {... */\n      tag_234\n      jumpi\n        /* \"@openzeppelin/contracts/utils/math/Math.sol\":12620:12628  10 ** 16 */\n      0x2386f26fc10000\n        /* \"@openzeppelin/contracts/utils/math/Math.sol\":12611:12628  value /= 10 ** 16 */\n      dup4\n      dup2\n      tag_235\n      jumpi\n      tag_236\n      tag_141\n      jump\t// in\n    tag_236:\n    tag_235:\n      div\n      swap3\n      pop\n        /* \"@openzeppelin/contracts/utils/math/Math.sol\":12656:12658  16 */\n      0x10\n        /* \"@openzeppelin/contracts/utils/math/Math.sol\":12646:12658  result += 16 */\n      dup2\n      add\n      swap1\n      pop\n        /* \"@openzeppelin/contracts/utils/math/Math.sol\":12570:12673  if (value >= 10 ** 16) {... */\n    tag_234:\n        /* \"@openzeppelin/contracts/utils/math/Math.sol\":12699:12706  10 ** 8 */\n      0x05f5e100\n        /* \"@openzeppelin/contracts/utils/math/Math.sol\":12690:12695  value */\n      dup4\n        /* \"@openzeppelin/contracts/utils/math/Math.sol\":12690:12706  value >= 10 ** 8 */\n      lt\n        /* \"@openzeppelin/contracts/utils/math/Math.sol\":12686:12786  if (value >= 10 ** 8) {... */\n      tag_237\n      jumpi\n        /* \"@openzeppelin/contracts/utils/math/Math.sol\":12735:12742  10 ** 8 */\n      0x05f5e100\n        /* \"@openzeppelin/contracts/utils/math/Math.sol\":12726:12742  value /= 10 ** 8 */\n      dup4\n      dup2\n      tag_238\n      jumpi\n      tag_239\n      tag_141\n      jump\t// in\n    tag_239:\n    tag_238:\n      div\n      swap3\n      pop\n        /* \"@openzeppelin/contracts/utils/math/Math.sol\":12770:12771  8 */\n      0x08\n        /* \"@openzeppelin/contracts/utils/math/Math.sol\":12760:12771  result += 8 */\n      dup2\n      add\n      swap1\n      pop\n        /* \"@openzeppelin/contracts/utils/math/Math.sol\":12686:12786  if (value >= 10 ** 8) {... */\n    tag_237:\n        /* \"@openzeppelin/contracts/utils/math/Math.sol\":12812:12819  10 ** 4 */\n      0x2710\n        /* \"@openzeppelin/contracts/utils/math/Math.sol\":12803:12808  value */\n      dup4\n        /* \"@openzeppelin/contracts/utils/math/Math.sol\":12803:12819  value >= 10 ** 4 */\n      lt\n        /* \"@openzeppelin/contracts/utils/math/Math.sol\":12799:12899  if (value >= 10 ** 4) {... */\n      tag_240\n      jumpi\n        /* \"@openzeppelin/contracts/utils/math/Math.sol\":12848:12855  10 ** 4 */\n      0x2710\n        /* \"@openzeppelin/contracts/utils/math/Math.sol\":12839:12855  value /= 10 ** 4 */\n      dup4\n      dup2\n      tag_241\n      jumpi\n      tag_242\n      tag_141\n      jump\t// in\n    tag_242:\n    tag_241:\n      div\n      swap3\n      pop\n        /* \"@openzeppelin/contracts/utils/math/Math.sol\":12883:12884  4 */\n      0x04\n        /* \"@openzeppelin/contracts/utils/math/Math.sol\":12873:12884  result += 4 */\n      dup2\n      add\n      swap1\n      pop\n        /* \"@openzeppelin/contracts/utils/math/Math.sol\":12799:12899  if (value >= 10 ** 4) {... */\n    tag_240:\n        /* \"@openzeppelin/contracts/utils/math/Math.sol\":12925:12932  10 ** 2 */\n      0x64\n        /* \"@openzeppelin/contracts/utils/math/Math.sol\":12916:12921  value */\n      dup4\n        /* \"@openzeppelin/contracts/utils/math/Math.sol\":12916:12932  value >= 10 ** 2 */\n      lt\n        /* \"@openzeppelin/contracts/utils/math/Math.sol\":12912:13012  if (value >= 10 ** 2) {... */\n      tag_243\n      jumpi\n        /* \"@openzeppelin/contracts/utils/math/Math.sol\":12961:12968  10 ** 2 */\n      0x64\n        /* \"@openzeppelin/contracts/utils/math/Math.sol\":12952:12968  value /= 10 ** 2 */\n      dup4\n      dup2\n      tag_244\n      jumpi\n      tag_245\n      tag_141\n      jump\t// in\n    tag_245:\n    tag_244:\n      div\n      swap3\n      pop\n        /* \"@openzeppelin/contracts/utils/math/Math.sol\":12996:12997  2 */\n      0x02\n        /* \"@openzeppelin/contracts/utils/math/Math.sol\":12986:12997  result += 2 */\n      dup2\n      add\n      swap1\n      pop\n        /* \"@openzeppelin/contracts/utils/math/Math.sol\":12912:13012  if (value >= 10 ** 2) {... */\n    tag_243:\n        /* \"@openzeppelin/contracts/utils/math/Math.sol\":13038:13045  10 ** 1 */\n      0x0a\n        /* \"@openzeppelin/contracts/utils/math/Math.sol\":13029:13034  value */\n      dup4\n        /* \"@openzeppelin/contracts/utils/math/Math.sol\":13029:13045  value >= 10 ** 1 */\n      lt\n        /* \"@openzeppelin/contracts/utils/math/Math.sol\":13025:13091  if (value >= 10 ** 1) {... */\n      tag_246\n      jumpi\n        /* \"@openzeppelin/contracts/utils/math/Math.sol\":13075:13076  1 */\n      0x01\n        /* \"@openzeppelin/contracts/utils/math/Math.sol\":13065:13076  result += 1 */\n      dup2\n      add\n      swap1\n      pop\n        /* \"@openzeppelin/contracts/utils/math/Math.sol\":13025:13091  if (value >= 10 ** 1) {... */\n    tag_246:\n        /* \"@openzeppelin/contracts/utils/math/Math.sol\":13117:13123  result */\n      dup1\n        /* \"@openzeppelin/contracts/utils/math/Math.sol\":13110:13123  return result */\n      swap2\n      pop\n      pop\n        /* \"@openzeppelin/contracts/utils/math/Math.sol\":12214:13130  function log10(uint256 value) internal pure returns (uint256) {... */\n      swap2\n      swap1\n      pop\n      jump\t// out\n        /* \"#utility.yul\":7:82   */\n    tag_247:\n        /* \"#utility.yul\":40:46   */\n      0x00\n        /* \"#utility.yul\":73:75   */\n      0x40\n        /* \"#utility.yul\":67:76   */\n      mload\n        /* \"#utility.yul\":57:76   */\n      swap1\n      pop\n        /* \"#utility.yul\":7:82   */\n      swap1\n      jump\t// out\n        /* \"#utility.yul\":88:205   */\n    tag_248:\n        /* \"#utility.yul\":197:198   */\n      0x00\n        /* \"#utility.yul\":194:195   */\n      dup1\n        /* \"#utility.yul\":187:199   */\n      revert\n        /* \"#utility.yul\":211:328   */\n    tag_249:\n        /* \"#utility.yul\":320:321   */\n      0x00\n        /* \"#utility.yul\":317:318   */\n      dup1\n        /* \"#utility.yul\":310:322   */\n      revert\n        /* \"#utility.yul\":334:411   */\n    tag_250:\n        /* \"#utility.yul\":371:378   */\n      0x00\n        /* \"#utility.yul\":400:405   */\n      dup2\n        /* \"#utility.yul\":389:405   */\n      swap1\n      pop\n        /* \"#utility.yul\":334:411   */\n      swap2\n      swap1\n      pop\n      jump\t// out\n        /* \"#utility.yul\":417:539   */\n    tag_251:\n        /* \"#utility.yul\":490:514   */\n      tag_309\n        /* \"#utility.yul\":508:513   */\n      dup2\n        /* \"#utility.yul\":490:514   */\n      tag_250\n      jump\t// in\n    tag_309:\n        /* \"#utility.yul\":483:488   */\n      dup2\n        /* \"#utility.yul\":480:515   */\n      eq\n        /* \"#utility.yul\":470:533   */\n      tag_310\n      jumpi\n        /* \"#utility.yul\":529:530   */\n      0x00\n        /* \"#utility.yul\":526:527   */\n      dup1\n        /* \"#utility.yul\":519:531   */\n      revert\n        /* \"#utility.yul\":470:533   */\n    tag_310:\n        /* \"#utility.yul\":417:539   */\n      pop\n      jump\t// out\n        /* \"#utility.yul\":545:684   */\n    tag_252:\n        /* \"#utility.yul\":591:596   */\n      0x00\n        /* \"#utility.yul\":629:635   */\n      dup2\n        /* \"#utility.yul\":616:636   */\n      calldataload\n        /* \"#utility.yul\":607:636   */\n      swap1\n      pop\n        /* \"#utility.yul\":645:678   */\n      tag_312\n        /* \"#utility.yul\":672:677   */\n      dup2\n        /* \"#utility.yul\":645:678   */\n      tag_251\n      jump\t// in\n    tag_312:\n        /* \"#utility.yul\":545:684   */\n      swap3\n      swap2\n      pop\n      pop\n      jump\t// out\n        /* \"#utility.yul\":690:1019   */\n    tag_15:\n        /* \"#utility.yul\":749:755   */\n      0x00\n        /* \"#utility.yul\":798:800   */\n      0x20\n        /* \"#utility.yul\":786:795   */\n      dup3\n        /* \"#utility.yul\":777:784   */\n      dup5\n        /* \"#utility.yul\":773:796   */\n      sub\n        /* \"#utility.yul\":769:801   */\n      slt\n        /* \"#utility.yul\":766:885   */\n      iszero\n      tag_314\n      jumpi\n        /* \"#utility.yul\":804:883   */\n      tag_315\n      tag_248\n      jump\t// in\n    tag_315:\n        /* \"#utility.yul\":766:885   */\n    tag_314:\n        /* \"#utility.yul\":924:925   */\n      0x00\n        /* \"#utility.yul\":949:1002   */\n      tag_316\n        /* \"#utility.yul\":994:1001   */\n      dup5\n        /* \"#utility.yul\":985:991   */\n      dup3\n        /* \"#utility.yul\":974:983   */\n      dup6\n        /* \"#utility.yul\":970:992   */\n      add\n        /* \"#utility.yul\":949:1002   */\n      tag_252\n      jump\t// in\n    tag_316:\n        /* \"#utility.yul\":939:1002   */\n      swap2\n      pop\n        /* \"#utility.yul\":895:1012   */\n      pop\n        /* \"#utility.yul\":690:1019   */\n      swap3\n      swap2\n      pop\n      pop\n      jump\t// out\n        /* \"#utility.yul\":1025:1151   */\n    tag_253:\n        /* \"#utility.yul\":1062:1069   */\n      0x00\n        /* \"#utility.yul\":1102:1144   */\n      0xffffffffffffffffffffffffffffffffffffffff\n        /* \"#utility.yul\":1095:1100   */\n      dup3\n        /* \"#utility.yul\":1091:1145   */\n      and\n        /* \"#utility.yul\":1080:1145   */\n      swap1\n      pop\n        /* \"#utility.yul\":1025:1151   */\n      swap2\n      swap1\n      pop\n      jump\t// out\n        /* \"#utility.yul\":1157:1253   */\n    tag_254:\n        /* \"#utility.yul\":1194:1201   */\n      0x00\n        /* \"#utility.yul\":1223:1247   */\n      tag_319\n        /* \"#utility.yul\":1241:1246   */\n      dup3\n        /* \"#utility.yul\":1223:1247   */\n      tag_253\n      jump\t// in\n    tag_319:\n        /* \"#utility.yul\":1212:1247   */\n      swap1\n      pop\n        /* \"#utility.yul\":1157:1253   */\n      swap2\n      swap1\n      pop\n      jump\t// out\n        /* \"#utility.yul\":1259:1381   */\n    tag_255:\n        /* \"#utility.yul\":1332:1356   */\n      tag_321\n        /* \"#utility.yul\":1350:1355   */\n      dup2\n        /* \"#utility.yul\":1332:1356   */\n      tag_254\n      jump\t// in\n    tag_321:\n        /* \"#utility.yul\":1325:1330   */\n      dup2\n        /* \"#utility.yul\":1322:1357   */\n      eq\n        /* \"#utility.yul\":1312:1375   */\n      tag_322\n      jumpi\n        /* \"#utility.yul\":1371:1372   */\n      0x00\n        /* \"#utility.yul\":1368:1369   */\n      dup1\n        /* \"#utility.yul\":1361:1373   */\n      revert\n        /* \"#utility.yul\":1312:1375   */\n    tag_322:\n        /* \"#utility.yul\":1259:1381   */\n      pop\n      jump\t// out\n        /* \"#utility.yul\":1387:1526   */\n    tag_256:\n        /* \"#utility.yul\":1433:1438   */\n      0x00\n        /* \"#utility.yul\":1471:1477   */\n      dup2\n        /* \"#utility.yul\":1458:1478   */\n      calldataload\n        /* \"#utility.yul\":1449:1478   */\n      swap1\n      pop\n        /* \"#utility.yul\":1487:1520   */\n      tag_324\n        /* \"#utility.yul\":1514:1519   */\n      dup2\n        /* \"#utility.yul\":1487:1520   */\n      tag_255\n      jump\t// in\n    tag_324:\n        /* \"#utility.yul\":1387:1526   */\n      swap3\n      swap2\n      pop\n      pop\n      jump\t// out\n        /* \"#utility.yul\":1532:1649   */\n    tag_257:\n        /* \"#utility.yul\":1641:1642   */\n      0x00\n        /* \"#utility.yul\":1638:1639   */\n      dup1\n        /* \"#utility.yul\":1631:1643   */\n      revert\n        /* \"#utility.yul\":1655:1772   */\n    tag_258:\n        /* \"#utility.yul\":1764:1765   */\n      0x00\n        /* \"#utility.yul\":1761:1762   */\n      dup1\n        /* \"#utility.yul\":1754:1766   */\n      revert\n        /* \"#utility.yul\":1778:1880   */\n    tag_259:\n        /* \"#utility.yul\":1819:1825   */\n      0x00\n        /* \"#utility.yul\":1870:1872   */\n      0x1f\n        /* \"#utility.yul\":1866:1873   */\n      not\n        /* \"#utility.yul\":1861:1863   */\n      0x1f\n        /* \"#utility.yul\":1854:1859   */\n      dup4\n        /* \"#utility.yul\":1850:1864   */\n      add\n        /* \"#utility.yul\":1846:1874   */\n      and\n        /* \"#utility.yul\":1836:1874   */\n      swap1\n      pop\n        /* \"#utility.yul\":1778:1880   */\n      swap2\n      swap1\n      pop\n      jump\t// out\n        /* \"#utility.yul\":1886:2066   */\n    tag_135:\n        /* \"#utility.yul\":1934:2011   */\n      0x4e487b7100000000000000000000000000000000000000000000000000000000\n        /* \"#utility.yul\":1931:1932   */\n      0x00\n        /* \"#utility.yul\":1924:2012   */\n      mstore\n        /* \"#utility.yul\":2031:2035   */\n      0x41\n        /* \"#utility.yul\":2028:2029   */\n      0x04\n        /* \"#utility.yul\":2021:2036   */\n      mstore\n        /* \"#utility.yul\":2055:2059   */\n      0x24\n        /* \"#utility.yul\":2052:2053   */\n      0x00\n        /* \"#utility.yul\":2045:2060   */\n      revert\n        /* \"#utility.yul\":2072:2353   */\n    tag_260:\n        /* \"#utility.yul\":2155:2182   */\n      tag_330\n        /* \"#utility.yul\":2177:2181   */\n      dup3\n        /* \"#utility.yul\":2155:2182   */\n      tag_259\n      jump\t// in\n    tag_330:\n        /* \"#utility.yul\":2147:2153   */\n      dup2\n        /* \"#utility.yul\":2143:2183   */\n      add\n        /* \"#utility.yul\":2285:2291   */\n      dup2\n        /* \"#utility.yul\":2273:2283   */\n      dup2\n        /* \"#utility.yul\":2270:2292   */\n      lt\n        /* \"#utility.yul\":2249:2267   */\n      0xffffffffffffffff\n        /* \"#utility.yul\":2237:2247   */\n      dup3\n        /* \"#utility.yul\":2234:2268   */\n      gt\n        /* \"#utility.yul\":2231:2293   */\n      or\n        /* \"#utility.yul\":2228:2316   */\n      iszero\n      tag_331\n      jumpi\n        /* \"#utility.yul\":2296:2314   */\n      tag_332\n      tag_135\n      jump\t// in\n    tag_332:\n        /* \"#utility.yul\":2228:2316   */\n    tag_331:\n        /* \"#utility.yul\":2336:2346   */\n      dup1\n        /* \"#utility.yul\":2332:2334   */\n      0x40\n        /* \"#utility.yul\":2325:2347   */\n      mstore\n        /* \"#utility.yul\":2115:2353   */\n      pop\n        /* \"#utility.yul\":2072:2353   */\n      pop\n      pop\n      jump\t// out\n        /* \"#utility.yul\":2359:2488   */\n    tag_261:\n        /* \"#utility.yul\":2393:2399   */\n      0x00\n        /* \"#utility.yul\":2420:2440   */\n      tag_334\n      tag_247\n      jump\t// in\n    tag_334:\n        /* \"#utility.yul\":2410:2440   */\n      swap1\n      pop\n        /* \"#utility.yul\":2449:2482   */\n      tag_335\n        /* \"#utility.yul\":2477:2481   */\n      dup3\n        /* \"#utility.yul\":2469:2475   */\n      dup3\n        /* \"#utility.yul\":2449:2482   */\n      tag_260\n      jump\t// in\n    tag_335:\n        /* \"#utility.yul\":2359:2488   */\n      swap2\n      swap1\n      pop\n      jump\t// out\n        /* \"#utility.yul\":2494:2801   */\n    tag_262:\n        /* \"#utility.yul\":2555:2559   */\n      0x00\n        /* \"#utility.yul\":2645:2663   */\n      0xffffffffffffffff\n        /* \"#utility.yul\":2637:2643   */\n      dup3\n        /* \"#utility.yul\":2634:2664   */\n      gt\n        /* \"#utility.yul\":2631:2687   */\n      iszero\n      tag_337\n      jumpi\n        /* \"#utility.yul\":2667:2685   */\n      tag_338\n      tag_135\n      jump\t// in\n    tag_338:\n        /* \"#utility.yul\":2631:2687   */\n    tag_337:\n        /* \"#utility.yul\":2705:2734   */\n      tag_339\n        /* \"#utility.yul\":2727:2733   */\n      dup3\n        /* \"#utility.yul\":2705:2734   */\n      tag_259\n      jump\t// in\n    tag_339:\n        /* \"#utility.yul\":2697:2734   */\n      swap1\n      pop\n        /* \"#utility.yul\":2789:2793   */\n      0x20\n        /* \"#utility.yul\":2783:2787   */\n      dup2\n        /* \"#utility.yul\":2779:2794   */\n      add\n        /* \"#utility.yul\":2771:2794   */\n      swap1\n      pop\n        /* \"#utility.yul\":2494:2801   */\n      swap2\n      swap1\n      pop\n      jump\t// out\n        /* \"#utility.yul\":2807:2953   */\n    tag_263:\n        /* \"#utility.yul\":2904:2910   */\n      dup3\n        /* \"#utility.yul\":2899:2902   */\n      dup2\n        /* \"#utility.yul\":2894:2897   */\n      dup4\n        /* \"#utility.yul\":2881:2911   */\n      calldatacopy\n        /* \"#utility.yul\":2945:2946   */\n      0x00\n        /* \"#utility.yul\":2936:2942   */\n      dup4\n        /* \"#utility.yul\":2931:2934   */\n      dup4\n        /* \"#utility.yul\":2927:2943   */\n      add\n        /* \"#utility.yul\":2920:2947   */\n      mstore\n        /* \"#utility.yul\":2807:2953   */\n      pop\n      pop\n      pop\n      jump\t// out\n        /* \"#utility.yul\":2959:3382   */\n    tag_264:\n        /* \"#utility.yul\":3036:3041   */\n      0x00\n        /* \"#utility.yul\":3061:3126   */\n      tag_342\n        /* \"#utility.yul\":3077:3125   */\n      tag_343\n        /* \"#utility.yul\":3118:3124   */\n      dup5\n        /* \"#utility.yul\":3077:3125   */\n      tag_262\n      jump\t// in\n    tag_343:\n        /* \"#utility.yul\":3061:3126   */\n      tag_261\n      jump\t// in\n    tag_342:\n        /* \"#utility.yul\":3052:3126   */\n      swap1\n      pop\n        /* \"#utility.yul\":3149:3155   */\n      dup3\n        /* \"#utility.yul\":3142:3147   */\n      dup2\n        /* \"#utility.yul\":3135:3156   */\n      mstore\n        /* \"#utility.yul\":3187:3191   */\n      0x20\n        /* \"#utility.yul\":3180:3185   */\n      dup2\n        /* \"#utility.yul\":3176:3192   */\n      add\n        /* \"#utility.yul\":3225:3228   */\n      dup5\n        /* \"#utility.yul\":3216:3222   */\n      dup5\n        /* \"#utility.yul\":3211:3214   */\n      dup5\n        /* \"#utility.yul\":3207:3223   */\n      add\n        /* \"#utility.yul\":3204:3229   */\n      gt\n        /* \"#utility.yul\":3201:3313   */\n      iszero\n      tag_344\n      jumpi\n        /* \"#utility.yul\":3232:3311   */\n      tag_345\n      tag_258\n      jump\t// in\n    tag_345:\n        /* \"#utility.yul\":3201:3313   */\n    tag_344:\n        /* \"#utility.yul\":3322:3376   */\n      tag_346\n        /* \"#utility.yul\":3369:3375   */\n      dup5\n        /* \"#utility.yul\":3364:3367   */\n      dup3\n        /* \"#utility.yul\":3359:3362   */\n      dup6\n        /* \"#utility.yul\":3322:3376   */\n      tag_263\n      jump\t// in\n    tag_346:\n        /* \"#utility.yul\":3042:3382   */\n      pop\n        /* \"#utility.yul\":2959:3382   */\n      swap4\n      swap3\n      pop\n      pop\n      pop\n      jump\t// out\n        /* \"#utility.yul\":3401:3739   */\n    tag_265:\n        /* \"#utility.yul\":3456:3461   */\n      0x00\n        /* \"#utility.yul\":3505:3508   */\n      dup3\n        /* \"#utility.yul\":3498:3502   */\n      0x1f\n        /* \"#utility.yul\":3490:3496   */\n      dup4\n        /* \"#utility.yul\":3486:3503   */\n      add\n        /* \"#utility.yul\":3482:3509   */\n      slt\n        /* \"#utility.yul\":3472:3594   */\n      tag_348\n      jumpi\n        /* \"#utility.yul\":3513:3592   */\n      tag_349\n      tag_257\n      jump\t// in\n    tag_349:\n        /* \"#utility.yul\":3472:3594   */\n    tag_348:\n        /* \"#utility.yul\":3630:3636   */\n      dup2\n        /* \"#utility.yul\":3617:3637   */\n      calldataload\n        /* \"#utility.yul\":3655:3733   */\n      tag_350\n        /* \"#utility.yul\":3729:3732   */\n      dup5\n        /* \"#utility.yul\":3721:3727   */\n      dup3\n        /* \"#utility.yul\":3714:3718   */\n      0x20\n        /* \"#utility.yul\":3706:3712   */\n      dup7\n        /* \"#utility.yul\":3702:3719   */\n      add\n        /* \"#utility.yul\":3655:3733   */\n      tag_264\n      jump\t// in\n    tag_350:\n        /* \"#utility.yul\":3646:3733   */\n      swap2\n      pop\n        /* \"#utility.yul\":3462:3739   */\n      pop\n        /* \"#utility.yul\":3401:3739   */\n      swap3\n      swap2\n      pop\n      pop\n      jump\t// out\n        /* \"#utility.yul\":3745:4688   */\n    tag_20:\n        /* \"#utility.yul\":3840:3846   */\n      0x00\n        /* \"#utility.yul\":3848:3854   */\n      dup1\n        /* \"#utility.yul\":3856:3862   */\n      0x00\n        /* \"#utility.yul\":3864:3870   */\n      dup1\n        /* \"#utility.yul\":3913:3916   */\n      0x80\n        /* \"#utility.yul\":3901:3910   */\n      dup6\n        /* \"#utility.yul\":3892:3899   */\n      dup8\n        /* \"#utility.yul\":3888:3911   */\n      sub\n        /* \"#utility.yul\":3884:3917   */\n      slt\n        /* \"#utility.yul\":3881:4001   */\n      iszero\n      tag_352\n      jumpi\n        /* \"#utility.yul\":3920:3999   */\n      tag_353\n      tag_248\n      jump\t// in\n    tag_353:\n        /* \"#utility.yul\":3881:4001   */\n    tag_352:\n        /* \"#utility.yul\":4040:4041   */\n      0x00\n        /* \"#utility.yul\":4065:4118   */\n      tag_354\n        /* \"#utility.yul\":4110:4117   */\n      dup8\n        /* \"#utility.yul\":4101:4107   */\n      dup3\n        /* \"#utility.yul\":4090:4099   */\n      dup9\n        /* \"#utility.yul\":4086:4108   */\n      add\n        /* \"#utility.yul\":4065:4118   */\n      tag_256\n      jump\t// in\n    tag_354:\n        /* \"#utility.yul\":4055:4118   */\n      swap5\n      pop\n        /* \"#utility.yul\":4011:4128   */\n      pop\n        /* \"#utility.yul\":4167:4169   */\n      0x20\n        /* \"#utility.yul\":4193:4246   */\n      tag_355\n        /* \"#utility.yul\":4238:4245   */\n      dup8\n        /* \"#utility.yul\":4229:4235   */\n      dup3\n        /* \"#utility.yul\":4218:4227   */\n      dup9\n        /* \"#utility.yul\":4214:4236   */\n      add\n        /* \"#utility.yul\":4193:4246   */\n      tag_256\n      jump\t// in\n    tag_355:\n        /* \"#utility.yul\":4183:4246   */\n      swap4\n      pop\n        /* \"#utility.yul\":4138:4256   */\n      pop\n        /* \"#utility.yul\":4295:4297   */\n      0x40\n        /* \"#utility.yul\":4321:4374   */\n      tag_356\n        /* \"#utility.yul\":4366:4373   */\n      dup8\n        /* \"#utility.yul\":4357:4363   */\n      dup3\n        /* \"#utility.yul\":4346:4355   */\n      dup9\n        /* \"#utility.yul\":4342:4364   */\n      add\n        /* \"#utility.yul\":4321:4374   */\n      tag_252\n      jump\t// in\n    tag_356:\n        /* \"#utility.yul\":4311:4374   */\n      swap3\n      pop\n        /* \"#utility.yul\":4266:4384   */\n      pop\n        /* \"#utility.yul\":4451:4453   */\n      0x60\n        /* \"#utility.yul\":4440:4449   */\n      dup6\n        /* \"#utility.yul\":4436:4454   */\n      add\n        /* \"#utility.yul\":4423:4455   */\n      calldataload\n        /* \"#utility.yul\":4482:4500   */\n      0xffffffffffffffff\n        /* \"#utility.yul\":4474:4480   */\n      dup2\n        /* \"#utility.yul\":4471:4501   */\n      gt\n        /* \"#utility.yul\":4468:4585   */\n      iszero\n      tag_357\n      jumpi\n        /* \"#utility.yul\":4504:4583   */\n      tag_358\n      tag_249\n      jump\t// in\n    tag_358:\n        /* \"#utility.yul\":4468:4585   */\n    tag_357:\n        /* \"#utility.yul\":4609:4671   */\n      tag_359\n        /* \"#utility.yul\":4663:4670   */\n      dup8\n        /* \"#utility.yul\":4654:4660   */\n      dup3\n        /* \"#utility.yul\":4643:4652   */\n      dup9\n        /* \"#utility.yul\":4639:4661   */\n      add\n        /* \"#utility.yul\":4609:4671   */\n      tag_265\n      jump\t// in\n    tag_359:\n        /* \"#utility.yul\":4599:4671   */\n      swap2\n      pop\n        /* \"#utility.yul\":4394:4681   */\n      pop\n        /* \"#utility.yul\":3745:4688   */\n      swap3\n      swap6\n      swap2\n      swap5\n      pop\n      swap3\n      pop\n      jump\t// out\n        /* \"#utility.yul\":4694:4843   */\n    tag_266:\n        /* \"#utility.yul\":4730:4737   */\n      0x00\n        /* \"#utility.yul\":4770:4836   */\n      0xffffffff00000000000000000000000000000000000000000000000000000000\n        /* \"#utility.yul\":4763:4768   */\n      dup3\n        /* \"#utility.yul\":4759:4837   */\n      and\n        /* \"#utility.yul\":4748:4837   */\n      swap1\n      pop\n        /* \"#utility.yul\":4694:4843   */\n      swap2\n      swap1\n      pop\n      jump\t// out\n        /* \"#utility.yul\":4849:4964   */\n    tag_267:\n        /* \"#utility.yul\":4934:4957   */\n      tag_362\n        /* \"#utility.yul\":4951:4956   */\n      dup2\n        /* \"#utility.yul\":4934:4957   */\n      tag_266\n      jump\t// in\n    tag_362:\n        /* \"#utility.yul\":4929:4932   */\n      dup3\n        /* \"#utility.yul\":4922:4958   */\n      mstore\n        /* \"#utility.yul\":4849:4964   */\n      pop\n      pop\n      jump\t// out\n        /* \"#utility.yul\":4970:5188   */\n    tag_23:\n        /* \"#utility.yul\":5061:5065   */\n      0x00\n        /* \"#utility.yul\":5099:5101   */\n      0x20\n        /* \"#utility.yul\":5088:5097   */\n      dup3\n        /* \"#utility.yul\":5084:5102   */\n      add\n        /* \"#utility.yul\":5076:5102   */\n      swap1\n      pop\n        /* \"#utility.yul\":5112:5181   */\n      tag_364\n        /* \"#utility.yul\":5178:5179   */\n      0x00\n        /* \"#utility.yul\":5167:5176   */\n      dup4\n        /* \"#utility.yul\":5163:5180   */\n      add\n        /* \"#utility.yul\":5154:5160   */\n      dup5\n        /* \"#utility.yul\":5112:5181   */\n      tag_267\n      jump\t// in\n    tag_364:\n        /* \"#utility.yul\":4970:5188   */\n      swap3\n      swap2\n      pop\n      pop\n      jump\t// out\n        /* \"#utility.yul\":5194:5523   */\n    tag_27:\n        /* \"#utility.yul\":5253:5259   */\n      0x00\n        /* \"#utility.yul\":5302:5304   */\n      0x20\n        /* \"#utility.yul\":5290:5299   */\n      dup3\n        /* \"#utility.yul\":5281:5288   */\n      dup5\n        /* \"#utility.yul\":5277:5300   */\n      sub\n        /* \"#utility.yul\":5273:5305   */\n      slt\n        /* \"#utility.yul\":5270:5389   */\n      iszero\n      tag_366\n      jumpi\n        /* \"#utility.yul\":5308:5387   */\n      tag_367\n      tag_248\n      jump\t// in\n    tag_367:\n        /* \"#utility.yul\":5270:5389   */\n    tag_366:\n        /* \"#utility.yul\":5428:5429   */\n      0x00\n        /* \"#utility.yul\":5453:5506   */\n      tag_368\n        /* \"#utility.yul\":5498:5505   */\n      dup5\n        /* \"#utility.yul\":5489:5495   */\n      dup3\n        /* \"#utility.yul\":5478:5487   */\n      dup6\n        /* \"#utility.yul\":5474:5496   */\n      add\n        /* \"#utility.yul\":5453:5506   */\n      tag_256\n      jump\t// in\n    tag_368:\n        /* \"#utility.yul\":5443:5506   */\n      swap2\n      pop\n        /* \"#utility.yul\":5399:5516   */\n      pop\n        /* \"#utility.yul\":5194:5523   */\n      swap3\n      swap2\n      pop\n      pop\n      jump\t// out\n        /* \"#utility.yul\":5529:5628   */\n    tag_268:\n        /* \"#utility.yul\":5581:5587   */\n      0x00\n        /* \"#utility.yul\":5615:5620   */\n      dup2\n        /* \"#utility.yul\":5609:5621   */\n      mload\n        /* \"#utility.yul\":5599:5621   */\n      swap1\n      pop\n        /* \"#utility.yul\":5529:5628   */\n      swap2\n      swap1\n      pop\n      jump\t// out\n        /* \"#utility.yul\":5634:5803   */\n    tag_269:\n        /* \"#utility.yul\":5718:5729   */\n      0x00\n        /* \"#utility.yul\":5752:5758   */\n      dup3\n        /* \"#utility.yul\":5747:5750   */\n      dup3\n        /* \"#utility.yul\":5740:5759   */\n      mstore\n        /* \"#utility.yul\":5792:5796   */\n      0x20\n        /* \"#utility.yul\":5787:5790   */\n      dup3\n        /* \"#utility.yul\":5783:5797   */\n      add\n        /* \"#utility.yul\":5768:5797   */\n      swap1\n      pop\n        /* \"#utility.yul\":5634:5803   */\n      swap3\n      swap2\n      pop\n      pop\n      jump\t// out\n        /* \"#utility.yul\":5809:6055   */\n    tag_270:\n        /* \"#utility.yul\":5890:5891   */\n      0x00\n        /* \"#utility.yul\":5900:6013   */\n    tag_372:\n        /* \"#utility.yul\":5914:5920   */\n      dup4\n        /* \"#utility.yul\":5911:5912   */\n      dup2\n        /* \"#utility.yul\":5908:5921   */\n      lt\n        /* \"#utility.yul\":5900:6013   */\n      iszero\n      tag_374\n      jumpi\n        /* \"#utility.yul\":5999:6000   */\n      dup1\n        /* \"#utility.yul\":5994:5997   */\n      dup3\n        /* \"#utility.yul\":5990:6001   */\n      add\n        /* \"#utility.yul\":5984:6002   */\n      mload\n        /* \"#utility.yul\":5980:5981   */\n      dup2\n        /* \"#utility.yul\":5975:5978   */\n      dup5\n        /* \"#utility.yul\":5971:5982   */\n      add\n        /* \"#utility.yul\":5964:6003   */\n      mstore\n        /* \"#utility.yul\":5936:5938   */\n      0x20\n        /* \"#utility.yul\":5933:5934   */\n      dup2\n        /* \"#utility.yul\":5929:5939   */\n      add\n        /* \"#utility.yul\":5924:5939   */\n      swap1\n      pop\n        /* \"#utility.yul\":5900:6013   */\n      jump(tag_372)\n    tag_374:\n        /* \"#utility.yul\":6047:6048   */\n      0x00\n        /* \"#utility.yul\":6038:6044   */\n      dup5\n        /* \"#utility.yul\":6033:6036   */\n      dup5\n        /* \"#utility.yul\":6029:6045   */\n      add\n        /* \"#utility.yul\":6022:6049   */\n      mstore\n        /* \"#utility.yul\":5871:6055   */\n      pop\n        /* \"#utility.yul\":5809:6055   */\n      pop\n      pop\n      pop\n      jump\t// out\n        /* \"#utility.yul\":6061:6438   */\n    tag_271:\n        /* \"#utility.yul\":6149:6152   */\n      0x00\n        /* \"#utility.yul\":6177:6216   */\n      tag_376\n        /* \"#utility.yul\":6210:6215   */\n      dup3\n        /* \"#utility.yul\":6177:6216   */\n      tag_268\n      jump\t// in\n    tag_376:\n        /* \"#utility.yul\":6232:6303   */\n      tag_377\n        /* \"#utility.yul\":6296:6302   */\n      dup2\n        /* \"#utility.yul\":6291:6294   */\n      dup6\n        /* \"#utility.yul\":6232:6303   */\n      tag_269\n      jump\t// in\n    tag_377:\n        /* \"#utility.yul\":6225:6303   */\n      swap4\n      pop\n        /* \"#utility.yul\":6312:6377   */\n      tag_378\n        /* \"#utility.yul\":6370:6376   */\n      dup2\n        /* \"#utility.yul\":6365:6368   */\n      dup6\n        /* \"#utility.yul\":6358:6362   */\n      0x20\n        /* \"#utility.yul\":6351:6356   */\n      dup7\n        /* \"#utility.yul\":6347:6363   */\n      add\n        /* \"#utility.yul\":6312:6377   */\n      tag_270\n      jump\t// in\n    tag_378:\n        /* \"#utility.yul\":6402:6431   */\n      tag_379\n        /* \"#utility.yul\":6424:6430   */\n      dup2\n        /* \"#utility.yul\":6402:6431   */\n      tag_259\n      jump\t// in\n    tag_379:\n        /* \"#utility.yul\":6397:6400   */\n      dup5\n        /* \"#utility.yul\":6393:6432   */\n      add\n        /* \"#utility.yul\":6386:6432   */\n      swap2\n      pop\n        /* \"#utility.yul\":6153:6438   */\n      pop\n        /* \"#utility.yul\":6061:6438   */\n      swap3\n      swap2\n      pop\n      pop\n      jump\t// out\n        /* \"#utility.yul\":6444:6757   */\n    tag_34:\n        /* \"#utility.yul\":6557:6561   */\n      0x00\n        /* \"#utility.yul\":6595:6597   */\n      0x20\n        /* \"#utility.yul\":6584:6593   */\n      dup3\n        /* \"#utility.yul\":6580:6598   */\n      add\n        /* \"#utility.yul\":6572:6598   */\n      swap1\n      pop\n        /* \"#utility.yul\":6644:6653   */\n      dup2\n        /* \"#utility.yul\":6638:6642   */\n      dup2\n        /* \"#utility.yul\":6634:6654   */\n      sub\n        /* \"#utility.yul\":6630:6631   */\n      0x00\n        /* \"#utility.yul\":6619:6628   */\n      dup4\n        /* \"#utility.yul\":6615:6632   */\n      add\n        /* \"#utility.yul\":6608:6655   */\n      mstore\n        /* \"#utility.yul\":6672:6750   */\n      tag_381\n        /* \"#utility.yul\":6745:6749   */\n      dup2\n        /* \"#utility.yul\":6736:6742   */\n      dup5\n        /* \"#utility.yul\":6672:6750   */\n      tag_271\n      jump\t// in\n    tag_381:\n        /* \"#utility.yul\":6664:6750   */\n      swap1\n      pop\n        /* \"#utility.yul\":6444:6757   */\n      swap3\n      swap2\n      pop\n      pop\n      jump\t// out\n        /* \"#utility.yul\":6763:6881   */\n    tag_272:\n        /* \"#utility.yul\":6850:6874   */\n      tag_383\n        /* \"#utility.yul\":6868:6873   */\n      dup2\n        /* \"#utility.yul\":6850:6874   */\n      tag_250\n      jump\t// in\n    tag_383:\n        /* \"#utility.yul\":6845:6848   */\n      dup3\n        /* \"#utility.yul\":6838:6875   */\n      mstore\n        /* \"#utility.yul\":6763:6881   */\n      pop\n      pop\n      jump\t// out\n        /* \"#utility.yul\":6887:7109   */\n    tag_43:\n        /* \"#utility.yul\":6980:6984   */\n      0x00\n        /* \"#utility.yul\":7018:7020   */\n      0x20\n        /* \"#utility.yul\":7007:7016   */\n      dup3\n        /* \"#utility.yul\":7003:7021   */\n      add\n        /* \"#utility.yul\":6995:7021   */\n      swap1\n      pop\n        /* \"#utility.yul\":7031:7102   */\n      tag_385\n        /* \"#utility.yul\":7099:7100   */\n      0x00\n        /* \"#utility.yul\":7088:7097   */\n      dup4\n        /* \"#utility.yul\":7084:7101   */\n      add\n        /* \"#utility.yul\":7075:7081   */\n      dup5\n        /* \"#utility.yul\":7031:7102   */\n      tag_272\n      jump\t// in\n    tag_385:\n        /* \"#utility.yul\":6887:7109   */\n      swap3\n      swap2\n      pop\n      pop\n      jump\t// out\n        /* \"#utility.yul\":7115:7589   */\n    tag_49:\n        /* \"#utility.yul\":7183:7189   */\n      0x00\n        /* \"#utility.yul\":7191:7197   */\n      dup1\n        /* \"#utility.yul\":7240:7242   */\n      0x40\n        /* \"#utility.yul\":7228:7237   */\n      dup4\n        /* \"#utility.yul\":7219:7226   */\n      dup6\n        /* \"#utility.yul\":7215:7238   */\n      sub\n        /* \"#utility.yul\":7211:7243   */\n      slt\n        /* \"#utility.yul\":7208:7327   */\n      iszero\n      tag_387\n      jumpi\n        /* \"#utility.yul\":7246:7325   */\n      tag_388\n      tag_248\n      jump\t// in\n    tag_388:\n        /* \"#utility.yul\":7208:7327   */\n    tag_387:\n        /* \"#utility.yul\":7366:7367   */\n      0x00\n        /* \"#utility.yul\":7391:7444   */\n      tag_389\n        /* \"#utility.yul\":7436:7443   */\n      dup6\n        /* \"#utility.yul\":7427:7433   */\n      dup3\n        /* \"#utility.yul\":7416:7425   */\n      dup7\n        /* \"#utility.yul\":7412:7434   */\n      add\n        /* \"#utility.yul\":7391:7444   */\n      tag_252\n      jump\t// in\n    tag_389:\n        /* \"#utility.yul\":7381:7444   */\n      swap3\n      pop\n        /* \"#utility.yul\":7337:7454   */\n      pop\n        /* \"#utility.yul\":7493:7495   */\n      0x20\n        /* \"#utility.yul\":7519:7572   */\n      tag_390\n        /* \"#utility.yul\":7564:7571   */\n      dup6\n        /* \"#utility.yul\":7555:7561   */\n      dup3\n        /* \"#utility.yul\":7544:7553   */\n      dup7\n        /* \"#utility.yul\":7540:7562   */\n      add\n        /* \"#utility.yul\":7519:7572   */\n      tag_256\n      jump\t// in\n    tag_390:\n        /* \"#utility.yul\":7509:7572   */\n      swap2\n      pop\n        /* \"#utility.yul\":7464:7582   */\n      pop\n        /* \"#utility.yul\":7115:7589   */\n      swap3\n      pop\n      swap3\n      swap1\n      pop\n      jump\t// out\n        /* \"#utility.yul\":7595:8360   */\n    tag_54:\n        /* \"#utility.yul\":7681:7687   */\n      0x00\n        /* \"#utility.yul\":7689:7695   */\n      dup1\n        /* \"#utility.yul\":7697:7703   */\n      0x00\n        /* \"#utility.yul\":7705:7711   */\n      dup1\n        /* \"#utility.yul\":7754:7757   */\n      0x80\n        /* \"#utility.yul\":7742:7751   */\n      dup6\n        /* \"#utility.yul\":7733:7740   */\n      dup8\n        /* \"#utility.yul\":7729:7752   */\n      sub\n        /* \"#utility.yul\":7725:7758   */\n      slt\n        /* \"#utility.yul\":7722:7842   */\n      iszero\n      tag_392\n      jumpi\n        /* \"#utility.yul\":7761:7840   */\n      tag_393\n      tag_248\n      jump\t// in\n    tag_393:\n        /* \"#utility.yul\":7722:7842   */\n    tag_392:\n        /* \"#utility.yul\":7881:7882   */\n      0x00\n        /* \"#utility.yul\":7906:7959   */\n      tag_394\n        /* \"#utility.yul\":7951:7958   */\n      dup8\n        /* \"#utility.yul\":7942:7948   */\n      dup3\n        /* \"#utility.yul\":7931:7940   */\n      dup9\n        /* \"#utility.yul\":7927:7949   */\n      add\n        /* \"#utility.yul\":7906:7959   */\n      tag_256\n      jump\t// in\n    tag_394:\n        /* \"#utility.yul\":7896:7959   */\n      swap5\n      pop\n        /* \"#utility.yul\":7852:7969   */\n      pop\n        /* \"#utility.yul\":8008:8010   */\n      0x20\n        /* \"#utility.yul\":8034:8087   */\n      tag_395\n        /* \"#utility.yul\":8079:8086   */\n      dup8\n        /* \"#utility.yul\":8070:8076   */\n      dup3\n        /* \"#utility.yul\":8059:8068   */\n      dup9\n        /* \"#utility.yul\":8055:8077   */\n      add\n        /* \"#utility.yul\":8034:8087   */\n      tag_256\n      jump\t// in\n    tag_395:\n        /* \"#utility.yul\":8024:8087   */\n      swap4\n      pop\n        /* \"#utility.yul\":7979:8097   */\n      pop\n        /* \"#utility.yul\":8136:8138   */\n      0x40\n        /* \"#utility.yul\":8162:8215   */\n      tag_396\n        /* \"#utility.yul\":8207:8214   */\n      dup8\n        /* \"#utility.yul\":8198:8204   */\n      dup3\n        /* \"#utility.yul\":8187:8196   */\n      dup9\n        /* \"#utility.yul\":8183:8205   */\n      add\n        /* \"#utility.yul\":8162:8215   */\n      tag_252\n      jump\t// in\n    tag_396:\n        /* \"#utility.yul\":8152:8215   */\n      swap3\n      pop\n        /* \"#utility.yul\":8107:8225   */\n      pop\n        /* \"#utility.yul\":8264:8266   */\n      0x60\n        /* \"#utility.yul\":8290:8343   */\n      tag_397\n        /* \"#utility.yul\":8335:8342   */\n      dup8\n        /* \"#utility.yul\":8326:8332   */\n      dup3\n        /* \"#utility.yul\":8315:8324   */\n      dup9\n        /* \"#utility.yul\":8311:8333   */\n      add\n        /* \"#utility.yul\":8290:8343   */\n      tag_252\n      jump\t// in\n    tag_397:\n        /* \"#utility.yul\":8280:8343   */\n      swap2\n      pop\n        /* \"#utility.yul\":8235:8353   */\n      pop\n        /* \"#utility.yul\":7595:8360   */\n      swap3\n      swap6\n      swap2\n      swap5\n      pop\n      swap3\n      pop\n      jump\t// out\n        /* \"#utility.yul\":8366:8546   */\n    tag_273:\n        /* \"#utility.yul\":8534:8539   */\n      0x69643d0000000000000000000000000000000000000000000000000000000000\n        /* \"#utility.yul\":8529:8532   */\n      dup2\n        /* \"#utility.yul\":8522:8540   */\n      mstore\n        /* \"#utility.yul\":8366:8546   */\n      pop\n      jump\t// out\n        /* \"#utility.yul\":8552:8700   */\n    tag_274:\n        /* \"#utility.yul\":8654:8665   */\n      0x00\n        /* \"#utility.yul\":8691:8694   */\n      dup2\n        /* \"#utility.yul\":8676:8694   */\n      swap1\n      pop\n        /* \"#utility.yul\":8552:8700   */\n      swap3\n      swap2\n      pop\n      pop\n      jump\t// out\n        /* \"#utility.yul\":8706:9096   */\n    tag_275:\n        /* \"#utility.yul\":8812:8815   */\n      0x00\n        /* \"#utility.yul\":8840:8879   */\n      tag_401\n        /* \"#utility.yul\":8873:8878   */\n      dup3\n        /* \"#utility.yul\":8840:8879   */\n      tag_268\n      jump\t// in\n    tag_401:\n        /* \"#utility.yul\":8895:8984   */\n      tag_402\n        /* \"#utility.yul\":8977:8983   */\n      dup2\n        /* \"#utility.yul\":8972:8975   */\n      dup6\n        /* \"#utility.yul\":8895:8984   */\n      tag_274\n      jump\t// in\n    tag_402:\n        /* \"#utility.yul\":8888:8984   */\n      swap4\n      pop\n        /* \"#utility.yul\":8993:9058   */\n      tag_403\n        /* \"#utility.yul\":9051:9057   */\n      dup2\n        /* \"#utility.yul\":9046:9049   */\n      dup6\n        /* \"#utility.yul\":9039:9043   */\n      0x20\n        /* \"#utility.yul\":9032:9037   */\n      dup7\n        /* \"#utility.yul\":9028:9044   */\n      add\n        /* \"#utility.yul\":8993:9058   */\n      tag_270\n      jump\t// in\n    tag_403:\n        /* \"#utility.yul\":9083:9089   */\n      dup1\n        /* \"#utility.yul\":9078:9081   */\n      dup5\n        /* \"#utility.yul\":9074:9090   */\n      add\n        /* \"#utility.yul\":9067:9090   */\n      swap2\n      pop\n        /* \"#utility.yul\":8816:9096   */\n      pop\n        /* \"#utility.yul\":8706:9096   */\n      swap3\n      swap2\n      pop\n      pop\n      jump\t// out\n        /* \"#utility.yul\":9102:9641   */\n    tag_60:\n        /* \"#utility.yul\":9324:9327   */\n      0x00\n        /* \"#utility.yul\":9339:9476   */\n      tag_405\n        /* \"#utility.yul\":9472:9475   */\n      dup3\n        /* \"#utility.yul\":9339:9476   */\n      tag_273\n      jump\t// in\n    tag_405:\n        /* \"#utility.yul\":9501:9502   */\n      0x03\n        /* \"#utility.yul\":9496:9499   */\n      dup3\n        /* \"#utility.yul\":9492:9503   */\n      add\n        /* \"#utility.yul\":9485:9503   */\n      swap2\n      pop\n        /* \"#utility.yul\":9520:9615   */\n      tag_406\n        /* \"#utility.yul\":9611:9614   */\n      dup3\n        /* \"#utility.yul\":9602:9608   */\n      dup5\n        /* \"#utility.yul\":9520:9615   */\n      tag_275\n      jump\t// in\n    tag_406:\n        /* \"#utility.yul\":9513:9615   */\n      swap2\n      pop\n        /* \"#utility.yul\":9632:9635   */\n      dup2\n        /* \"#utility.yul\":9625:9635   */\n      swap1\n      pop\n        /* \"#utility.yul\":9102:9641   */\n      swap3\n      swap2\n      pop\n      pop\n      jump\t// out\n        /* \"#utility.yul\":9647:9765   */\n    tag_276:\n        /* \"#utility.yul\":9734:9758   */\n      tag_408\n        /* \"#utility.yul\":9752:9757   */\n      dup2\n        /* \"#utility.yul\":9734:9758   */\n      tag_254\n      jump\t// in\n    tag_408:\n        /* \"#utility.yul\":9729:9732   */\n      dup3\n        /* \"#utility.yul\":9722:9759   */\n      mstore\n        /* \"#utility.yul\":9647:9765   */\n      pop\n      pop\n      jump\t// out\n        /* \"#utility.yul\":9771:10304   */\n    tag_66:\n        /* \"#utility.yul\":9940:9944   */\n      0x00\n        /* \"#utility.yul\":9978:9980   */\n      0x60\n        /* \"#utility.yul\":9967:9976   */\n      dup3\n        /* \"#utility.yul\":9963:9981   */\n      add\n        /* \"#utility.yul\":9955:9981   */\n      swap1\n      pop\n        /* \"#utility.yul\":9991:10062   */\n      tag_410\n        /* \"#utility.yul\":10059:10060   */\n      0x00\n        /* \"#utility.yul\":10048:10057   */\n      dup4\n        /* \"#utility.yul\":10044:10061   */\n      add\n        /* \"#utility.yul\":10035:10041   */\n      dup7\n        /* \"#utility.yul\":9991:10062   */\n      tag_276\n      jump\t// in\n    tag_410:\n        /* \"#utility.yul\":10072:10144   */\n      tag_411\n        /* \"#utility.yul\":10140:10142   */\n      0x20\n        /* \"#utility.yul\":10129:10138   */\n      dup4\n        /* \"#utility.yul\":10125:10143   */\n      add\n        /* \"#utility.yul\":10116:10122   */\n      dup6\n        /* \"#utility.yul\":10072:10144   */\n      tag_272\n      jump\t// in\n    tag_411:\n        /* \"#utility.yul\":10191:10200   */\n      dup2\n        /* \"#utility.yul\":10185:10189   */\n      dup2\n        /* \"#utility.yul\":10181:10201   */\n      sub\n        /* \"#utility.yul\":10176:10178   */\n      0x40\n        /* \"#utility.yul\":10165:10174   */\n      dup4\n        /* \"#utility.yul\":10161:10179   */\n      add\n        /* \"#utility.yul\":10154:10202   */\n      mstore\n        /* \"#utility.yul\":10219:10297   */\n      tag_412\n        /* \"#utility.yul\":10292:10296   */\n      dup2\n        /* \"#utility.yul\":10283:10289   */\n      dup5\n        /* \"#utility.yul\":10219:10297   */\n      tag_271\n      jump\t// in\n    tag_412:\n        /* \"#utility.yul\":10211:10297   */\n      swap1\n      pop\n        /* \"#utility.yul\":9771:10304   */\n      swap5\n      swap4\n      pop\n      pop\n      pop\n      pop\n      jump\t// out\n        /* \"#utility.yul\":10310:10752   */\n    tag_74:\n        /* \"#utility.yul\":10459:10463   */\n      0x00\n        /* \"#utility.yul\":10497:10499   */\n      0x60\n        /* \"#utility.yul\":10486:10495   */\n      dup3\n        /* \"#utility.yul\":10482:10500   */\n      add\n        /* \"#utility.yul\":10474:10500   */\n      swap1\n      pop\n        /* \"#utility.yul\":10510:10581   */\n      tag_414\n        /* \"#utility.yul\":10578:10579   */\n      0x00\n        /* \"#utility.yul\":10567:10576   */\n      dup4\n        /* \"#utility.yul\":10563:10580   */\n      add\n        /* \"#utility.yul\":10554:10560   */\n      dup7\n        /* \"#utility.yul\":10510:10581   */\n      tag_276\n      jump\t// in\n    tag_414:\n        /* \"#utility.yul\":10591:10663   */\n      tag_415\n        /* \"#utility.yul\":10659:10661   */\n      0x20\n        /* \"#utility.yul\":10648:10657   */\n      dup4\n        /* \"#utility.yul\":10644:10662   */\n      add\n        /* \"#utility.yul\":10635:10641   */\n      dup6\n        /* \"#utility.yul\":10591:10663   */\n      tag_272\n      jump\t// in\n    tag_415:\n        /* \"#utility.yul\":10673:10745   */\n      tag_416\n        /* \"#utility.yul\":10741:10743   */\n      0x40\n        /* \"#utility.yul\":10730:10739   */\n      dup4\n        /* \"#utility.yul\":10726:10744   */\n      add\n        /* \"#utility.yul\":10717:10723   */\n      dup5\n        /* \"#utility.yul\":10673:10745   */\n      tag_276\n      jump\t// in\n    tag_416:\n        /* \"#utility.yul\":10310:10752   */\n      swap5\n      swap4\n      pop\n      pop\n      pop\n      pop\n      jump\t// out\n        /* \"#utility.yul\":10758:11181   */\n    tag_90:\n        /* \"#utility.yul\":10899:10903   */\n      0x00\n        /* \"#utility.yul\":10937:10939   */\n      0x40\n        /* \"#utility.yul\":10926:10935   */\n      dup3\n        /* \"#utility.yul\":10922:10940   */\n      add\n        /* \"#utility.yul\":10914:10940   */\n      swap1\n      pop\n        /* \"#utility.yul\":10950:11021   */\n      tag_418\n        /* \"#utility.yul\":11018:11019   */\n      0x00\n        /* \"#utility.yul\":11007:11016   */\n      dup4\n        /* \"#utility.yul\":11003:11020   */\n      add\n        /* \"#utility.yul\":10994:11000   */\n      dup6\n        /* \"#utility.yul\":10950:11021   */\n      tag_276\n      jump\t// in\n    tag_418:\n        /* \"#utility.yul\":11068:11077   */\n      dup2\n        /* \"#utility.yul\":11062:11066   */\n      dup2\n        /* \"#utility.yul\":11058:11078   */\n      sub\n        /* \"#utility.yul\":11053:11055   */\n      0x20\n        /* \"#utility.yul\":11042:11051   */\n      dup4\n        /* \"#utility.yul\":11038:11056   */\n      add\n        /* \"#utility.yul\":11031:11079   */\n      mstore\n        /* \"#utility.yul\":11096:11174   */\n      tag_419\n        /* \"#utility.yul\":11169:11173   */\n      dup2\n        /* \"#utility.yul\":11160:11166   */\n      dup5\n        /* \"#utility.yul\":11096:11174   */\n      tag_271\n      jump\t// in\n    tag_419:\n        /* \"#utility.yul\":11088:11174   */\n      swap1\n      pop\n        /* \"#utility.yul\":10758:11181   */\n      swap4\n      swap3\n      pop\n      pop\n      pop\n      jump\t// out\n        /* \"#utility.yul\":11187:11330   */\n    tag_277:\n        /* \"#utility.yul\":11244:11249   */\n      0x00\n        /* \"#utility.yul\":11275:11281   */\n      dup2\n        /* \"#utility.yul\":11269:11282   */\n      mload\n        /* \"#utility.yul\":11260:11282   */\n      swap1\n      pop\n        /* \"#utility.yul\":11291:11324   */\n      tag_421\n        /* \"#utility.yul\":11318:11323   */\n      dup2\n        /* \"#utility.yul\":11291:11324   */\n      tag_251\n      jump\t// in\n    tag_421:\n        /* \"#utility.yul\":11187:11330   */\n      swap3\n      swap2\n      pop\n      pop\n      jump\t// out\n        /* \"#utility.yul\":11336:11687   */\n    tag_94:\n        /* \"#utility.yul\":11406:11412   */\n      0x00\n        /* \"#utility.yul\":11455:11457   */\n      0x20\n        /* \"#utility.yul\":11443:11452   */\n      dup3\n        /* \"#utility.yul\":11434:11441   */\n      dup5\n        /* \"#utility.yul\":11430:11453   */\n      sub\n        /* \"#utility.yul\":11426:11458   */\n      slt\n        /* \"#utility.yul\":11423:11542   */\n      iszero\n      tag_423\n      jumpi\n        /* \"#utility.yul\":11461:11540   */\n      tag_424\n      tag_248\n      jump\t// in\n    tag_424:\n        /* \"#utility.yul\":11423:11542   */\n    tag_423:\n        /* \"#utility.yul\":11581:11582   */\n      0x00\n        /* \"#utility.yul\":11606:11670   */\n      tag_425\n        /* \"#utility.yul\":11662:11669   */\n      dup5\n        /* \"#utility.yul\":11653:11659   */\n      dup3\n        /* \"#utility.yul\":11642:11651   */\n      dup6\n        /* \"#utility.yul\":11638:11660   */\n      add\n        /* \"#utility.yul\":11606:11670   */\n      tag_277\n      jump\t// in\n    tag_425:\n        /* \"#utility.yul\":11596:11670   */\n      swap2\n      pop\n        /* \"#utility.yul\":11552:11680   */\n      pop\n        /* \"#utility.yul\":11336:11687   */\n      swap3\n      swap2\n      pop\n      pop\n      jump\t// out\n        /* \"#utility.yul\":11693:11878   */\n    tag_278:\n        /* \"#utility.yul\":11861:11871   */\n      0x67726f757049643d000000000000000000000000000000000000000000000000\n        /* \"#utility.yul\":11856:11859   */\n      dup2\n        /* \"#utility.yul\":11849:11872   */\n      mstore\n        /* \"#utility.yul\":11693:11878   */\n      pop\n      jump\t// out\n        /* \"#utility.yul\":11884:12423   */\n    tag_101:\n        /* \"#utility.yul\":12106:12109   */\n      0x00\n        /* \"#utility.yul\":12121:12258   */\n      tag_428\n        /* \"#utility.yul\":12254:12257   */\n      dup3\n        /* \"#utility.yul\":12121:12258   */\n      tag_278\n      jump\t// in\n    tag_428:\n        /* \"#utility.yul\":12283:12284   */\n      0x08\n        /* \"#utility.yul\":12278:12281   */\n      dup3\n        /* \"#utility.yul\":12274:12285   */\n      add\n        /* \"#utility.yul\":12267:12285   */\n      swap2\n      pop\n        /* \"#utility.yul\":12302:12397   */\n      tag_429\n        /* \"#utility.yul\":12393:12396   */\n      dup3\n        /* \"#utility.yul\":12384:12390   */\n      dup5\n        /* \"#utility.yul\":12302:12397   */\n      tag_275\n      jump\t// in\n    tag_429:\n        /* \"#utility.yul\":12295:12397   */\n      swap2\n      pop\n        /* \"#utility.yul\":12414:12417   */\n      dup2\n        /* \"#utility.yul\":12407:12417   */\n      swap1\n      pop\n        /* \"#utility.yul\":11884:12423   */\n      swap3\n      swap2\n      pop\n      pop\n      jump\t// out\n        /* \"#utility.yul\":12429:12609   */\n    tag_279:\n        /* \"#utility.yul\":12477:12554   */\n      0x4e487b7100000000000000000000000000000000000000000000000000000000\n        /* \"#utility.yul\":12474:12475   */\n      0x00\n        /* \"#utility.yul\":12467:12555   */\n      mstore\n        /* \"#utility.yul\":12574:12578   */\n      0x11\n        /* \"#utility.yul\":12571:12572   */\n      0x04\n        /* \"#utility.yul\":12564:12579   */\n      mstore\n        /* \"#utility.yul\":12598:12602   */\n      0x24\n        /* \"#utility.yul\":12595:12596   */\n      0x00\n        /* \"#utility.yul\":12588:12603   */\n      revert\n        /* \"#utility.yul\":12615:12848   */\n    tag_118:\n        /* \"#utility.yul\":12654:12657   */\n      0x00\n        /* \"#utility.yul\":12677:12701   */\n      tag_432\n        /* \"#utility.yul\":12695:12700   */\n      dup3\n        /* \"#utility.yul\":12677:12701   */\n      tag_250\n      jump\t// in\n    tag_432:\n        /* \"#utility.yul\":12668:12701   */\n      swap2\n      pop\n        /* \"#utility.yul\":12723:12789   */\n      0xffffffffffffffffffffffffffffffffffffffffffffffffffffffffffffffff\n        /* \"#utility.yul\":12716:12721   */\n      dup3\n        /* \"#utility.yul\":12713:12790   */\n      sub\n        /* \"#utility.yul\":12710:12813   */\n      tag_433\n      jumpi\n        /* \"#utility.yul\":12793:12811   */\n      tag_434\n      tag_279\n      jump\t// in\n    tag_434:\n        /* \"#utility.yul\":12710:12813   */\n    tag_433:\n        /* \"#utility.yul\":12840:12841   */\n      0x01\n        /* \"#utility.yul\":12833:12838   */\n      dup3\n        /* \"#utility.yul\":12829:12842   */\n      add\n        /* \"#utility.yul\":12822:12842   */\n      swap1\n      pop\n        /* \"#utility.yul\":12615:12848   */\n      swap2\n      swap1\n      pop\n      jump\t// out\n        /* \"#utility.yul\":12854:13032   */\n    tag_280:\n        /* \"#utility.yul\":13022:13025   */\n      0x2c00000000000000000000000000000000000000000000000000000000000000\n        /* \"#utility.yul\":13017:13020   */\n      dup2\n        /* \"#utility.yul\":13010:13026   */\n      mstore\n        /* \"#utility.yul\":12854:13032   */\n      pop\n      jump\t// out\n        /* \"#utility.yul\":13038:15009   */\n    tag_124:\n        /* \"#utility.yul\":13722:13725   */\n      0x00\n        /* \"#utility.yul\":13744:13839   */\n      tag_437\n        /* \"#utility.yul\":13835:13838   */\n      dup3\n        /* \"#utility.yul\":13826:13832   */\n      dup9\n        /* \"#utility.yul\":13744:13839   */\n      tag_275\n      jump\t// in\n    tag_437:\n        /* \"#utility.yul\":13737:13839   */\n      swap2\n      pop\n        /* \"#utility.yul\":13849:13986   */\n      tag_438\n        /* \"#utility.yul\":13982:13985   */\n      dup3\n        /* \"#utility.yul\":13849:13986   */\n      tag_280\n      jump\t// in\n    tag_438:\n        /* \"#utility.yul\":14011:14012   */\n      0x01\n        /* \"#utility.yul\":14006:14009   */\n      dup3\n        /* \"#utility.yul\":14002:14013   */\n      add\n        /* \"#utility.yul\":13995:14013   */\n      swap2\n      pop\n        /* \"#utility.yul\":14030:14125   */\n      tag_439\n        /* \"#utility.yul\":14121:14124   */\n      dup3\n        /* \"#utility.yul\":14112:14118   */\n      dup8\n        /* \"#utility.yul\":14030:14125   */\n      tag_275\n      jump\t// in\n    tag_439:\n        /* \"#utility.yul\":14023:14125   */\n      swap2\n      pop\n        /* \"#utility.yul\":14135:14272   */\n      tag_440\n        /* \"#utility.yul\":14268:14271   */\n      dup3\n        /* \"#utility.yul\":14135:14272   */\n      tag_280\n      jump\t// in\n    tag_440:\n        /* \"#utility.yul\":14297:14298   */\n      0x01\n        /* \"#utility.yul\":14292:14295   */\n      dup3\n        /* \"#utility.yul\":14288:14299   */\n      add\n        /* \"#utility.yul\":14281:14299   */\n      swap2\n      pop\n        /* \"#utility.yul\":14316:14411   */\n      tag_441\n        /* \"#utility.yul\":14407:14410   */\n      dup3\n        /* \"#utility.yul\":14398:14404   */\n      dup7\n        /* \"#utility.yul\":14316:14411   */\n      tag_275\n      jump\t// in\n    tag_441:\n        /* \"#utility.yul\":14309:14411   */\n      swap2\n      pop\n        /* \"#utility.yul\":14421:14558   */\n      tag_442\n        /* \"#utility.yul\":14554:14557   */\n      dup3\n        /* \"#utility.yul\":14421:14558   */\n      tag_280\n      jump\t// in\n    tag_442:\n        /* \"#utility.yul\":14583:14584   */\n      0x01\n        /* \"#utility.yul\":14578:14581   */\n      dup3\n        /* \"#utility.yul\":14574:14585   */\n      add\n        /* \"#utility.yul\":14567:14585   */\n      swap2\n      pop\n        /* \"#utility.yul\":14602:14697   */\n      tag_443\n        /* \"#utility.yul\":14693:14696   */\n      dup3\n        /* \"#utility.yul\":14684:14690   */\n      dup6\n        /* \"#utility.yul\":14602:14697   */\n      tag_275\n      jump\t// in\n    tag_443:\n        /* \"#utility.yul\":14595:14697   */\n      swap2\n      pop\n        /* \"#utility.yul\":14707:14844   */\n      tag_444\n        /* \"#utility.yul\":14840:14843   */\n      dup3\n        /* \"#utility.yul\":14707:14844   */\n      tag_280\n      jump\t// in\n    tag_444:\n        /* \"#utility.yul\":14869:14870   */\n      0x01\n        /* \"#utility.yul\":14864:14867   */\n      dup3\n        /* \"#utility.yul\":14860:14871   */\n      add\n        /* \"#utility.yul\":14853:14871   */\n      swap2\n      pop\n        /* \"#utility.yul\":14888:14983   */\n      tag_445\n        /* \"#utility.yul\":14979:14982   */\n      dup3\n        /* \"#utility.yul\":14970:14976   */\n      dup5\n        /* \"#utility.yul\":14888:14983   */\n      tag_275\n      jump\t// in\n    tag_445:\n        /* \"#utility.yul\":14881:14983   */\n      swap2\n      pop\n        /* \"#utility.yul\":15000:15003   */\n      dup2\n        /* \"#utility.yul\":14993:15003   */\n      swap1\n      pop\n        /* \"#utility.yul\":13038:15009   */\n      swap7\n      swap6\n      pop\n      pop\n      pop\n      pop\n      pop\n      pop\n      jump\t// out\n        /* \"#utility.yul\":15015:15195   */\n    tag_141:\n        /* \"#utility.yul\":15063:15140   */\n      0x4e487b7100000000000000000000000000000000000000000000000000000000\n        /* \"#utility.yul\":15060:15061   */\n      0x00\n        /* \"#utility.yul\":15053:15141   */\n      mstore\n        /* \"#utility.yul\":15160:15164   */\n      0x12\n        /* \"#utility.yul\":15157:15158   */\n      0x04\n        /* \"#utility.yul\":15150:15165   */\n      mstore\n        /* \"#utility.yul\":15184:15188   */\n      0x24\n        /* \"#utility.yul\":15181:15182   */\n      0x00\n        /* \"#utility.yul\":15174:15189   */\n      revert\n        /* \"#utility.yul\":15201:15363   */\n    tag_281:\n        /* \"#utility.yul\":15341:15355   */\n      0x44454c4554452046524f4d200000000000000000000000000000000000000000\n        /* \"#utility.yul\":15337:15338   */\n      0x00\n        /* \"#utility.yul\":15329:15335   */\n      dup3\n        /* \"#utility.yul\":15325:15339   */\n      add\n        /* \"#utility.yul\":15318:15356   */\n      mstore\n        /* \"#utility.yul\":15201:15363   */\n      pop\n      jump\t// out\n        /* \"#utility.yul\":15369:15771   */\n    tag_282:\n        /* \"#utility.yul\":15529:15532   */\n      0x00\n        /* \"#utility.yul\":15550:15635   */\n      tag_449\n        /* \"#utility.yul\":15632:15634   */\n      0x0c\n        /* \"#utility.yul\":15627:15630   */\n      dup4\n        /* \"#utility.yul\":15550:15635   */\n      tag_274\n      jump\t// in\n    tag_449:\n        /* \"#utility.yul\":15543:15635   */\n      swap2\n      pop\n        /* \"#utility.yul\":15644:15737   */\n      tag_450\n        /* \"#utility.yul\":15733:15736   */\n      dup3\n        /* \"#utility.yul\":15644:15737   */\n      tag_281\n      jump\t// in\n    tag_450:\n        /* \"#utility.yul\":15762:15764   */\n      0x0c\n        /* \"#utility.yul\":15757:15760   */\n      dup3\n        /* \"#utility.yul\":15753:15765   */\n      add\n        /* \"#utility.yul\":15746:15765   */\n      swap1\n      pop\n        /* \"#utility.yul\":15369:15771   */\n      swap2\n      swap1\n      pop\n      jump\t// out\n        /* \"#utility.yul\":15777:15934   */\n    tag_283:\n        /* \"#utility.yul\":15917:15926   */\n      0x2057484552452000000000000000000000000000000000000000000000000000\n        /* \"#utility.yul\":15913:15914   */\n      0x00\n        /* \"#utility.yul\":15905:15911   */\n      dup3\n        /* \"#utility.yul\":15901:15915   */\n      add\n        /* \"#utility.yul\":15894:15927   */\n      mstore\n        /* \"#utility.yul\":15777:15934   */\n      pop\n      jump\t// out\n        /* \"#utility.yul\":15940:16340   */\n    tag_284:\n        /* \"#utility.yul\":16100:16103   */\n      0x00\n        /* \"#utility.yul\":16121:16205   */\n      tag_453\n        /* \"#utility.yul\":16203:16204   */\n      0x07\n        /* \"#utility.yul\":16198:16201   */\n      dup4\n        /* \"#utility.yul\":16121:16205   */\n      tag_274\n      jump\t// in\n    tag_453:\n        /* \"#utility.yul\":16114:16205   */\n      swap2\n      pop\n        /* \"#utility.yul\":16214:16307   */\n      tag_454\n        /* \"#utility.yul\":16303:16306   */\n      dup3\n        /* \"#utility.yul\":16214:16307   */\n      tag_283\n      jump\t// in\n    tag_454:\n        /* \"#utility.yul\":16332:16333   */\n      0x07\n        /* \"#utility.yul\":16327:16330   */\n      dup3\n        /* \"#utility.yul\":16323:16334   */\n      add\n        /* \"#utility.yul\":16316:16334   */\n      swap1\n      pop\n        /* \"#utility.yul\":15940:16340   */\n      swap2\n      swap1\n      pop\n      jump\t// out\n        /* \"#utility.yul\":16346:17313   */\n    tag_174:\n        /* \"#utility.yul\":16728:16731   */\n      0x00\n        /* \"#utility.yul\":16750:16898   */\n      tag_456\n        /* \"#utility.yul\":16894:16897   */\n      dup3\n        /* \"#utility.yul\":16750:16898   */\n      tag_282\n      jump\t// in\n    tag_456:\n        /* \"#utility.yul\":16743:16898   */\n      swap2\n      pop\n        /* \"#utility.yul\":16915:17010   */\n      tag_457\n        /* \"#utility.yul\":17006:17009   */\n      dup3\n        /* \"#utility.yul\":16997:17003   */\n      dup6\n        /* \"#utility.yul\":16915:17010   */\n      tag_275\n      jump\t// in\n    tag_457:\n        /* \"#utility.yul\":16908:17010   */\n      swap2\n      pop\n        /* \"#utility.yul\":17027:17175   */\n      tag_458\n        /* \"#utility.yul\":17171:17174   */\n      dup3\n        /* \"#utility.yul\":17027:17175   */\n      tag_284\n      jump\t// in\n    tag_458:\n        /* \"#utility.yul\":17020:17175   */\n      swap2\n      pop\n        /* \"#utility.yul\":17192:17287   */\n      tag_459\n        /* \"#utility.yul\":17283:17286   */\n      dup3\n        /* \"#utility.yul\":17274:17280   */\n      dup5\n        /* \"#utility.yul\":17192:17287   */\n      tag_275\n      jump\t// in\n    tag_459:\n        /* \"#utility.yul\":17185:17287   */\n      swap2\n      pop\n        /* \"#utility.yul\":17304:17307   */\n      dup2\n        /* \"#utility.yul\":17297:17307   */\n      swap1\n      pop\n        /* \"#utility.yul\":16346:17313   */\n      swap4\n      swap3\n      pop\n      pop\n      pop\n      jump\t// out\n        /* \"#utility.yul\":17319:17729   */\n    tag_177:\n        /* \"#utility.yul\":17359:17366   */\n      0x00\n        /* \"#utility.yul\":17382:17402   */\n      tag_461\n        /* \"#utility.yul\":17400:17401   */\n      dup3\n        /* \"#utility.yul\":17382:17402   */\n      tag_250\n      jump\t// in\n    tag_461:\n        /* \"#utility.yul\":17377:17402   */\n      swap2\n      pop\n        /* \"#utility.yul\":17416:17436   */\n      tag_462\n        /* \"#utility.yul\":17434:17435   */\n      dup4\n        /* \"#utility.yul\":17416:17436   */\n      tag_250\n      jump\t// in\n    tag_462:\n        /* \"#utility.yul\":17411:17436   */\n      swap3\n      pop\n        /* \"#utility.yul\":17471:17472   */\n      dup3\n        /* \"#utility.yul\":17468:17469   */\n      dup3\n        /* \"#utility.yul\":17464:17473   */\n      mul\n        /* \"#utility.yul\":17493:17523   */\n      tag_463\n        /* \"#utility.yul\":17511:17522   */\n      dup2\n        /* \"#utility.yul\":17493:17523   */\n      tag_250\n      jump\t// in\n    tag_463:\n        /* \"#utility.yul\":17482:17523   */\n      swap2\n      pop\n        /* \"#utility.yul\":17672:17673   */\n      dup3\n        /* \"#utility.yul\":17663:17670   */\n      dup3\n        /* \"#utility.yul\":17659:17674   */\n      div\n        /* \"#utility.yul\":17656:17657   */\n      dup5\n        /* \"#utility.yul\":17653:17675   */\n      eq\n        /* \"#utility.yul\":17633:17634   */\n      dup4\n        /* \"#utility.yul\":17626:17635   */\n      iszero\n        /* \"#utility.yul\":17606:17689   */\n      or\n        /* \"#utility.yul\":17583:17722   */\n      tag_464\n      jumpi\n        /* \"#utility.yul\":17702:17720   */\n      tag_465\n      tag_279\n      jump\t// in\n    tag_465:\n        /* \"#utility.yul\":17583:17722   */\n    tag_464:\n        /* \"#utility.yul\":17367:17729   */\n      pop\n        /* \"#utility.yul\":17319:17729   */\n      swap3\n      swap2\n      pop\n      pop\n      jump\t// out\n        /* \"#utility.yul\":17735:17926   */\n    tag_179:\n        /* \"#utility.yul\":17775:17778   */\n      0x00\n        /* \"#utility.yul\":17794:17814   */\n      tag_467\n        /* \"#utility.yul\":17812:17813   */\n      dup3\n        /* \"#utility.yul\":17794:17814   */\n      tag_250\n      jump\t// in\n    tag_467:\n        /* \"#utility.yul\":17789:17814   */\n      swap2\n      pop\n        /* \"#utility.yul\":17828:17848   */\n      tag_468\n        /* \"#utility.yul\":17846:17847   */\n      dup4\n        /* \"#utility.yul\":17828:17848   */\n      tag_250\n      jump\t// in\n    tag_468:\n        /* \"#utility.yul\":17823:17848   */\n      swap3\n      pop\n        /* \"#utility.yul\":17871:17872   */\n      dup3\n        /* \"#utility.yul\":17868:17869   */\n      dup3\n        /* \"#utility.yul\":17864:17873   */\n      add\n        /* \"#utility.yul\":17857:17873   */\n      swap1\n      pop\n        /* \"#utility.yul\":17892:17895   */\n      dup1\n        /* \"#utility.yul\":17889:17890   */\n      dup3\n        /* \"#utility.yul\":17886:17896   */\n      gt\n        /* \"#utility.yul\":17883:17919   */\n      iszero\n      tag_469\n      jumpi\n        /* \"#utility.yul\":17899:17917   */\n      tag_470\n      tag_279\n      jump\t// in\n    tag_470:\n        /* \"#utility.yul\":17883:17919   */\n    tag_469:\n        /* \"#utility.yul\":17735:17926   */\n      swap3\n      swap2\n      pop\n      pop\n      jump\t// out\n        /* \"#utility.yul\":17932:18112   */\n    tag_185:\n        /* \"#utility.yul\":17980:18057   */\n      0x4e487b7100000000000000000000000000000000000000000000000000000000\n        /* \"#utility.yul\":17977:17978   */\n      0x00\n        /* \"#utility.yul\":17970:18058   */\n      mstore\n        /* \"#utility.yul\":18077:18081   */\n      0x32\n        /* \"#utility.yul\":18074:18075   */\n      0x04\n        /* \"#utility.yul\":18067:18082   */\n      mstore\n        /* \"#utility.yul\":18101:18105   */\n      0x24\n        /* \"#utility.yul\":18098:18099   */\n      0x00\n        /* \"#utility.yul\":18091:18106   */\n      revert\n        /* \"#utility.yul\":18118:18289   */\n    tag_198:\n        /* \"#utility.yul\":18157:18160   */\n      0x00\n        /* \"#utility.yul\":18180:18204   */\n      tag_473\n        /* \"#utility.yul\":18198:18203   */\n      dup3\n        /* \"#utility.yul\":18180:18204   */\n      tag_250\n      jump\t// in\n    tag_473:\n        /* \"#utility.yul\":18171:18204   */\n      swap2\n      pop\n        /* \"#utility.yul\":18226:18230   */\n      0x00\n        /* \"#utility.yul\":18219:18224   */\n      dup3\n        /* \"#utility.yul\":18216:18231   */\n      sub\n        /* \"#utility.yul\":18213:18254   */\n      tag_474\n      jumpi\n        /* \"#utility.yul\":18234:18252   */\n      tag_475\n      tag_279\n      jump\t// in\n    tag_475:\n        /* \"#utility.yul\":18213:18254   */\n    tag_474:\n        /* \"#utility.yul\":18281:18282   */\n      0x01\n        /* \"#utility.yul\":18274:18279   */\n      dup3\n        /* \"#utility.yul\":18270:18283   */\n      sub\n        /* \"#utility.yul\":18263:18283   */\n      swap1\n      pop\n        /* \"#utility.yul\":18118:18289   */\n      swap2\n      swap1\n      pop\n      jump\t// out\n        /* \"#utility.yul\":18295:18627   */\n    tag_201:\n        /* \"#utility.yul\":18416:18420   */\n      0x00\n        /* \"#utility.yul\":18454:18456   */\n      0x40\n        /* \"#utility.yul\":18443:18452   */\n      dup3\n        /* \"#utility.yul\":18439:18457   */\n      add\n        /* \"#utility.yul\":18431:18457   */\n      swap1\n      pop\n        /* \"#utility.yul\":18467:18538   */\n      tag_477\n        /* \"#utility.yul\":18535:18536   */\n      0x00\n        /* \"#utility.yul\":18524:18533   */\n      dup4\n        /* \"#utility.yul\":18520:18537   */\n      add\n        /* \"#utility.yul\":18511:18517   */\n      dup6\n        /* \"#utility.yul\":18467:18538   */\n      tag_272\n      jump\t// in\n    tag_477:\n        /* \"#utility.yul\":18548:18620   */\n      tag_478\n        /* \"#utility.yul\":18616:18618   */\n      0x20\n        /* \"#utility.yul\":18605:18614   */\n      dup4\n        /* \"#utility.yul\":18601:18619   */\n      add\n        /* \"#utility.yul\":18592:18598   */\n      dup5\n        /* \"#utility.yul\":18548:18620   */\n      tag_272\n      jump\t// in\n    tag_478:\n        /* \"#utility.yul\":18295:18627   */\n      swap4\n      swap3\n      pop\n      pop\n      pop\n      jump\t// out\n        /* \"#utility.yul\":18633:18784   */\n    tag_285:\n        /* \"#utility.yul\":18773:18776   */\n      0x5f00000000000000000000000000000000000000000000000000000000000000\n        /* \"#utility.yul\":18769:18770   */\n      0x00\n        /* \"#utility.yul\":18761:18767   */\n      dup3\n        /* \"#utility.yul\":18757:18771   */\n      add\n        /* \"#utility.yul\":18750:18777   */\n      mstore\n        /* \"#utility.yul\":18633:18784   */\n      pop\n      jump\t// out\n        /* \"#utility.yul\":18790:19190   */\n    tag_286:\n        /* \"#utility.yul\":18950:18953   */\n      0x00\n        /* \"#utility.yul\":18971:19055   */\n      tag_481\n        /* \"#utility.yul\":19053:19054   */\n      0x01\n        /* \"#utility.yul\":19048:19051   */\n      dup4\n        /* \"#utility.yul\":18971:19055   */\n      tag_274\n      jump\t// in\n    tag_481:\n        /* \"#utility.yul\":18964:19055   */\n      swap2\n      pop\n        /* \"#utility.yul\":19064:19157   */\n      tag_482\n        /* \"#utility.yul\":19153:19156   */\n      dup3\n        /* \"#utility.yul\":19064:19157   */\n      tag_285\n      jump\t// in\n    tag_482:\n        /* \"#utility.yul\":19182:19183   */\n      0x01\n        /* \"#utility.yul\":19177:19180   */\n      dup3\n        /* \"#utility.yul\":19173:19184   */\n      add\n        /* \"#utility.yul\":19166:19184   */\n      swap1\n      pop\n        /* \"#utility.yul\":18790:19190   */\n      swap2\n      swap1\n      pop\n      jump\t// out\n        /* \"#utility.yul\":19196:20323   */\n    tag_206:\n        /* \"#utility.yul\":19626:19629   */\n      0x00\n        /* \"#utility.yul\":19648:19743   */\n      tag_484\n        /* \"#utility.yul\":19739:19742   */\n      dup3\n        /* \"#utility.yul\":19730:19736   */\n      dup7\n        /* \"#utility.yul\":19648:19743   */\n      tag_275\n      jump\t// in\n    tag_484:\n        /* \"#utility.yul\":19641:19743   */\n      swap2\n      pop\n        /* \"#utility.yul\":19760:19908   */\n      tag_485\n        /* \"#utility.yul\":19904:19907   */\n      dup3\n        /* \"#utility.yul\":19760:19908   */\n      tag_286\n      jump\t// in\n    tag_485:\n        /* \"#utility.yul\":19753:19908   */\n      swap2\n      pop\n        /* \"#utility.yul\":19925:20020   */\n      tag_486\n        /* \"#utility.yul\":20016:20019   */\n      dup3\n        /* \"#utility.yul\":20007:20013   */\n      dup6\n        /* \"#utility.yul\":19925:20020   */\n      tag_275\n      jump\t// in\n    tag_486:\n        /* \"#utility.yul\":19918:20020   */\n      swap2\n      pop\n        /* \"#utility.yul\":20037:20185   */\n      tag_487\n        /* \"#utility.yul\":20181:20184   */\n      dup3\n        /* \"#utility.yul\":20037:20185   */\n      tag_286\n      jump\t// in\n    tag_487:\n        /* \"#utility.yul\":20030:20185   */\n      swap2\n      pop\n        /* \"#utility.yul\":20202:20297   */\n      tag_488\n        /* \"#utility.yul\":20293:20296   */\n      dup3\n        /* \"#utility.yul\":20284:20290   */\n      dup5\n        /* \"#utility.yul\":20202:20297   */\n      tag_275\n      jump\t// in\n    tag_488:\n        /* \"#utility.yul\":20195:20297   */\n      swap2\n      pop\n        /* \"#utility.yul\":20314:20317   */\n      dup2\n        /* \"#utility.yul\":20307:20317   */\n      swap1\n      pop\n        /* \"#utility.yul\":19196:20323   */\n      swap5\n      swap4\n      pop\n      pop\n      pop\n      pop\n      jump\t// out\n        /* \"#utility.yul\":20329:20492   */\n    tag_287:\n        /* \"#utility.yul\":20469:20484   */\n      0x435245415445205441424c452000000000000000000000000000000000000000\n        /* \"#utility.yul\":20465:20466   */\n      0x00\n        /* \"#utility.yul\":20457:20463   */\n      dup3\n        /* \"#utility.yul\":20453:20467   */\n      add\n        /* \"#utility.yul\":20446:20485   */\n      mstore\n        /* \"#utility.yul\":20329:20492   */\n      pop\n      jump\t// out\n        /* \"#utility.yul\":20498:20900   */\n    tag_288:\n        /* \"#utility.yul\":20658:20661   */\n      0x00\n        /* \"#utility.yul\":20679:20764   */\n      tag_491\n        /* \"#utility.yul\":20761:20763   */\n      0x0d\n        /* \"#utility.yul\":20756:20759   */\n      dup4\n        /* \"#utility.yul\":20679:20764   */\n      tag_274\n      jump\t// in\n    tag_491:\n        /* \"#utility.yul\":20672:20764   */\n      swap2\n      pop\n        /* \"#utility.yul\":20773:20866   */\n      tag_492\n        /* \"#utility.yul\":20862:20865   */\n      dup3\n        /* \"#utility.yul\":20773:20866   */\n      tag_287\n      jump\t// in\n    tag_492:\n        /* \"#utility.yul\":20891:20893   */\n      0x0d\n        /* \"#utility.yul\":20886:20889   */\n      dup3\n        /* \"#utility.yul\":20882:20894   */\n      add\n        /* \"#utility.yul\":20875:20894   */\n      swap1\n      pop\n        /* \"#utility.yul\":20498:20900   */\n      swap2\n      swap1\n      pop\n      jump\t// out\n        /* \"#utility.yul\":20906:21061   */\n    tag_289:\n        /* \"#utility.yul\":21046:21049   */\n      0x2800000000000000000000000000000000000000000000000000000000000000\n        /* \"#utility.yul\":21042:21043   */\n      0x00\n        /* \"#utility.yul\":21034:21040   */\n      dup3\n        /* \"#utility.yul\":21030:21044   */\n      add\n        /* \"#utility.yul\":21023:21050   */\n      mstore\n        /* \"#utility.yul\":20906:21061   */\n      pop\n      jump\t// out\n        /* \"#utility.yul\":21071:21487   */\n    tag_290:\n        /* \"#utility.yul\":21231:21234   */\n      0x00\n        /* \"#utility.yul\":21256:21340   */\n      tag_495\n        /* \"#utility.yul\":21338:21339   */\n      0x01\n        /* \"#utility.yul\":21333:21336   */\n      dup4\n        /* \"#utility.yul\":21256:21340   */\n      tag_274\n      jump\t// in\n    tag_495:\n        /* \"#utility.yul\":21249:21340   */\n      swap2\n      pop\n        /* \"#utility.yul\":21353:21446   */\n      tag_496\n        /* \"#utility.yul\":21442:21445   */\n      dup3\n        /* \"#utility.yul\":21353:21446   */\n      tag_289\n      jump\t// in\n    tag_496:\n        /* \"#utility.yul\":21475:21476   */\n      0x01\n        /* \"#utility.yul\":21470:21473   */\n      dup3\n        /* \"#utility.yul\":21466:21477   */\n      add\n        /* \"#utility.yul\":21459:21477   */\n      swap1\n      pop\n        /* \"#utility.yul\":21071:21487   */\n      swap2\n      swap1\n      pop\n      jump\t// out\n        /* \"#utility.yul\":21497:21648   */\n    tag_291:\n        /* \"#utility.yul\":21637:21640   */\n      0x2900000000000000000000000000000000000000000000000000000000000000\n        /* \"#utility.yul\":21633:21634   */\n      0x00\n        /* \"#utility.yul\":21625:21631   */\n      dup3\n        /* \"#utility.yul\":21621:21635   */\n      add\n        /* \"#utility.yul\":21614:21641   */\n      mstore\n        /* \"#utility.yul\":21497:21648   */\n      pop\n      jump\t// out\n        /* \"#utility.yul\":21654:22054   */\n    tag_292:\n        /* \"#utility.yul\":21814:21817   */\n      0x00\n        /* \"#utility.yul\":21835:21919   */\n      tag_499\n        /* \"#utility.yul\":21917:21918   */\n      0x01\n        /* \"#utility.yul\":21912:21915   */\n      dup4\n        /* \"#utility.yul\":21835:21919   */\n      tag_274\n      jump\t// in\n    tag_499:\n        /* \"#utility.yul\":21828:21919   */\n      swap2\n      pop\n        /* \"#utility.yul\":21928:22021   */\n      tag_500\n        /* \"#utility.yul\":22017:22020   */\n      dup3\n        /* \"#utility.yul\":21928:22021   */\n      tag_291\n      jump\t// in\n    tag_500:\n        /* \"#utility.yul\":22046:22047   */\n      0x01\n        /* \"#utility.yul\":22041:22044   */\n      dup3\n        /* \"#utility.yul\":22037:22048   */\n      add\n        /* \"#utility.yul\":22030:22048   */\n      swap1\n      pop\n        /* \"#utility.yul\":21654:22054   */\n      swap2\n      swap1\n      pop\n      jump\t// out\n        /* \"#utility.yul\":22060:23719   */\n    tag_210:\n        /* \"#utility.yul\":22692:22695   */\n      0x00\n        /* \"#utility.yul\":22714:22862   */\n      tag_502\n        /* \"#utility.yul\":22858:22861   */\n      dup3\n        /* \"#utility.yul\":22714:22862   */\n      tag_288\n      jump\t// in\n    tag_502:\n        /* \"#utility.yul\":22707:22862   */\n      swap2\n      pop\n        /* \"#utility.yul\":22879:22974   */\n      tag_503\n        /* \"#utility.yul\":22970:22973   */\n      dup3\n        /* \"#utility.yul\":22961:22967   */\n      dup7\n        /* \"#utility.yul\":22879:22974   */\n      tag_275\n      jump\t// in\n    tag_503:\n        /* \"#utility.yul\":22872:22974   */\n      swap2\n      pop\n        /* \"#utility.yul\":22991:23139   */\n      tag_504\n        /* \"#utility.yul\":23135:23138   */\n      dup3\n        /* \"#utility.yul\":22991:23139   */\n      tag_286\n      jump\t// in\n    tag_504:\n        /* \"#utility.yul\":22984:23139   */\n      swap2\n      pop\n        /* \"#utility.yul\":23156:23251   */\n      tag_505\n        /* \"#utility.yul\":23247:23250   */\n      dup3\n        /* \"#utility.yul\":23238:23244   */\n      dup6\n        /* \"#utility.yul\":23156:23251   */\n      tag_275\n      jump\t// in\n    tag_505:\n        /* \"#utility.yul\":23149:23251   */\n      swap2\n      pop\n        /* \"#utility.yul\":23268:23416   */\n      tag_506\n        /* \"#utility.yul\":23412:23415   */\n      dup3\n        /* \"#utility.yul\":23268:23416   */\n      tag_290\n      jump\t// in\n    tag_506:\n        /* \"#utility.yul\":23261:23416   */\n      swap2\n      pop\n        /* \"#utility.yul\":23433:23528   */\n      tag_507\n        /* \"#utility.yul\":23524:23527   */\n      dup3\n        /* \"#utility.yul\":23515:23521   */\n      dup5\n        /* \"#utility.yul\":23433:23528   */\n      tag_275\n      jump\t// in\n    tag_507:\n        /* \"#utility.yul\":23426:23528   */\n      swap2\n      pop\n        /* \"#utility.yul\":23545:23693   */\n      tag_508\n        /* \"#utility.yul\":23689:23692   */\n      dup3\n        /* \"#utility.yul\":23545:23693   */\n      tag_292\n      jump\t// in\n    tag_508:\n        /* \"#utility.yul\":23538:23693   */\n      swap2\n      pop\n        /* \"#utility.yul\":23710:23713   */\n      dup2\n        /* \"#utility.yul\":23703:23713   */\n      swap1\n      pop\n        /* \"#utility.yul\":22060:23719   */\n      swap5\n      swap4\n      pop\n      pop\n      pop\n      pop\n      jump\t// out\n        /* \"#utility.yul\":23725:23876   */\n    tag_293:\n        /* \"#utility.yul\":23865:23868   */\n      0x2700000000000000000000000000000000000000000000000000000000000000\n        /* \"#utility.yul\":23861:23862   */\n      0x00\n        /* \"#utility.yul\":23853:23859   */\n      dup3\n        /* \"#utility.yul\":23849:23863   */\n      add\n        /* \"#utility.yul\":23842:23869   */\n      mstore\n        /* \"#utility.yul\":23725:23876   */\n      pop\n      jump\t// out\n        /* \"#utility.yul\":23882:24282   */\n    tag_294:\n        /* \"#utility.yul\":24042:24045   */\n      0x00\n        /* \"#utility.yul\":24063:24147   */\n      tag_511\n        /* \"#utility.yul\":24145:24146   */\n      0x01\n        /* \"#utility.yul\":24140:24143   */\n      dup4\n        /* \"#utility.yul\":24063:24147   */\n      tag_274\n      jump\t// in\n    tag_511:\n        /* \"#utility.yul\":24056:24147   */\n      swap2\n      pop\n        /* \"#utility.yul\":24156:24249   */\n      tag_512\n        /* \"#utility.yul\":24245:24248   */\n      dup3\n        /* \"#utility.yul\":24156:24249   */\n      tag_293\n      jump\t// in\n    tag_512:\n        /* \"#utility.yul\":24274:24275   */\n      0x01\n        /* \"#utility.yul\":24269:24272   */\n      dup3\n        /* \"#utility.yul\":24265:24276   */\n      add\n        /* \"#utility.yul\":24258:24276   */\n      swap1\n      pop\n        /* \"#utility.yul\":23882:24282   */\n      swap2\n      swap1\n      pop\n      jump\t// out\n        /* \"#utility.yul\":24288:25095   */\n    tag_215:\n        /* \"#utility.yul\":24622:24625   */\n      0x00\n        /* \"#utility.yul\":24644:24792   */\n      tag_514\n        /* \"#utility.yul\":24788:24791   */\n      dup3\n        /* \"#utility.yul\":24644:24792   */\n      tag_294\n      jump\t// in\n    tag_514:\n        /* \"#utility.yul\":24637:24792   */\n      swap2\n      pop\n        /* \"#utility.yul\":24809:24904   */\n      tag_515\n        /* \"#utility.yul\":24900:24903   */\n      dup3\n        /* \"#utility.yul\":24891:24897   */\n      dup5\n        /* \"#utility.yul\":24809:24904   */\n      tag_275\n      jump\t// in\n    tag_515:\n        /* \"#utility.yul\":24802:24904   */\n      swap2\n      pop\n        /* \"#utility.yul\":24921:25069   */\n      tag_516\n        /* \"#utility.yul\":25065:25068   */\n      dup3\n        /* \"#utility.yul\":24921:25069   */\n      tag_294\n      jump\t// in\n    tag_516:\n        /* \"#utility.yul\":24914:25069   */\n      swap2\n      pop\n        /* \"#utility.yul\":25086:25089   */\n      dup2\n        /* \"#utility.yul\":25079:25089   */\n      swap1\n      pop\n        /* \"#utility.yul\":24288:25095   */\n      swap3\n      swap2\n      pop\n      pop\n      jump\t// out\n        /* \"#utility.yul\":25101:25642   */\n    tag_220:\n        /* \"#utility.yul\":25334:25337   */\n      0x00\n        /* \"#utility.yul\":25356:25504   */\n      tag_518\n        /* \"#utility.yul\":25500:25503   */\n      dup3\n        /* \"#utility.yul\":25356:25504   */\n      tag_284\n      jump\t// in\n    tag_518:\n        /* \"#utility.yul\":25349:25504   */\n      swap2\n      pop\n        /* \"#utility.yul\":25521:25616   */\n      tag_519\n        /* \"#utility.yul\":25612:25615   */\n      dup3\n        /* \"#utility.yul\":25603:25609   */\n      dup5\n        /* \"#utility.yul\":25521:25616   */\n      tag_275\n      jump\t// in\n    tag_519:\n        /* \"#utility.yul\":25514:25616   */\n      swap2\n      pop\n        /* \"#utility.yul\":25633:25636   */\n      dup2\n        /* \"#utility.yul\":25626:25636   */\n      swap1\n      pop\n        /* \"#utility.yul\":25101:25642   */\n      swap3\n      swap2\n      pop\n      pop\n      jump\t// out\n        /* \"#utility.yul\":25648:25805   */\n    tag_295:\n        /* \"#utility.yul\":25788:25797   */\n      0x5550444154452000000000000000000000000000000000000000000000000000\n        /* \"#utility.yul\":25784:25785   */\n      0x00\n        /* \"#utility.yul\":25776:25782   */\n      dup3\n        /* \"#utility.yul\":25772:25786   */\n      add\n        /* \"#utility.yul\":25765:25798   */\n      mstore\n        /* \"#utility.yul\":25648:25805   */\n      pop\n      jump\t// out\n        /* \"#utility.yul\":25811:26211   */\n    tag_296:\n        /* \"#utility.yul\":25971:25974   */\n      0x00\n        /* \"#utility.yul\":25992:26076   */\n      tag_522\n        /* \"#utility.yul\":26074:26075   */\n      0x07\n        /* \"#utility.yul\":26069:26072   */\n      dup4\n        /* \"#utility.yul\":25992:26076   */\n      tag_274\n      jump\t// in\n    tag_522:\n        /* \"#utility.yul\":25985:26076   */\n      swap2\n      pop\n        /* \"#utility.yul\":26085:26178   */\n      tag_523\n        /* \"#utility.yul\":26174:26177   */\n      dup3\n        /* \"#utility.yul\":26085:26178   */\n      tag_295\n      jump\t// in\n    tag_523:\n        /* \"#utility.yul\":26203:26204   */\n      0x07\n        /* \"#utility.yul\":26198:26201   */\n      dup3\n        /* \"#utility.yul\":26194:26205   */\n      add\n        /* \"#utility.yul\":26187:26205   */\n      swap1\n      pop\n        /* \"#utility.yul\":25811:26211   */\n      swap2\n      swap1\n      pop\n      jump\t// out\n        /* \"#utility.yul\":26217:26372   */\n    tag_297:\n        /* \"#utility.yul\":26357:26364   */\n      0x2053455420000000000000000000000000000000000000000000000000000000\n        /* \"#utility.yul\":26353:26354   */\n      0x00\n        /* \"#utility.yul\":26345:26351   */\n      dup3\n        /* \"#utility.yul\":26341:26355   */\n      add\n        /* \"#utility.yul\":26334:26365   */\n      mstore\n        /* \"#utility.yul\":26217:26372   */\n      pop\n      jump\t// out\n        /* \"#utility.yul\":26378:26778   */\n    tag_298:\n        /* \"#utility.yul\":26538:26541   */\n      0x00\n        /* \"#utility.yul\":26559:26643   */\n      tag_526\n        /* \"#utility.yul\":26641:26642   */\n      0x05\n        /* \"#utility.yul\":26636:26639   */\n      dup4\n        /* \"#utility.yul\":26559:26643   */\n      tag_274\n      jump\t// in\n    tag_526:\n        /* \"#utility.yul\":26552:26643   */\n      swap2\n      pop\n        /* \"#utility.yul\":26652:26745   */\n      tag_527\n        /* \"#utility.yul\":26741:26744   */\n      dup3\n        /* \"#utility.yul\":26652:26745   */\n      tag_297\n      jump\t// in\n    tag_527:\n        /* \"#utility.yul\":26770:26771   */\n      0x05\n        /* \"#utility.yul\":26765:26768   */\n      dup3\n        /* \"#utility.yul\":26761:26772   */\n      add\n        /* \"#utility.yul\":26754:26772   */\n      swap1\n      pop\n        /* \"#utility.yul\":26378:26778   */\n      swap2\n      swap1\n      pop\n      jump\t// out\n        /* \"#utility.yul\":26784:27911   */\n    tag_222:\n        /* \"#utility.yul\":27214:27217   */\n      0x00\n        /* \"#utility.yul\":27236:27384   */\n      tag_529\n        /* \"#utility.yul\":27380:27383   */\n      dup3\n        /* \"#utility.yul\":27236:27384   */\n      tag_296\n      jump\t// in\n    tag_529:\n        /* \"#utility.yul\":27229:27384   */\n      swap2\n      pop\n        /* \"#utility.yul\":27401:27496   */\n      tag_530\n        /* \"#utility.yul\":27492:27495   */\n      dup3\n        /* \"#utility.yul\":27483:27489   */\n      dup7\n        /* \"#utility.yul\":27401:27496   */\n      tag_275\n      jump\t// in\n    tag_530:\n        /* \"#utility.yul\":27394:27496   */\n      swap2\n      pop\n        /* \"#utility.yul\":27513:27661   */\n      tag_531\n        /* \"#utility.yul\":27657:27660   */\n      dup3\n        /* \"#utility.yul\":27513:27661   */\n      tag_298\n      jump\t// in\n    tag_531:\n        /* \"#utility.yul\":27506:27661   */\n      swap2\n      pop\n        /* \"#utility.yul\":27678:27773   */\n      tag_532\n        /* \"#utility.yul\":27769:27772   */\n      dup3\n        /* \"#utility.yul\":27760:27766   */\n      dup6\n        /* \"#utility.yul\":27678:27773   */\n      tag_275\n      jump\t// in\n    tag_532:\n        /* \"#utility.yul\":27671:27773   */\n      swap2\n      pop\n        /* \"#utility.yul\":27790:27885   */\n      tag_533\n        /* \"#utility.yul\":27881:27884   */\n      dup3\n        /* \"#utility.yul\":27872:27878   */\n      dup5\n        /* \"#utility.yul\":27790:27885   */\n      tag_275\n      jump\t// in\n    tag_533:\n        /* \"#utility.yul\":27783:27885   */\n      swap2\n      pop\n        /* \"#utility.yul\":27902:27905   */\n      dup2\n        /* \"#utility.yul\":27895:27905   */\n      swap1\n      pop\n        /* \"#utility.yul\":26784:27911   */\n      swap5\n      swap4\n      pop\n      pop\n      pop\n      pop\n      jump\t// out\n        /* \"#utility.yul\":27917:28079   */\n    tag_299:\n        /* \"#utility.yul\":28057:28071   */\n      0x494e5345525420494e544f200000000000000000000000000000000000000000\n        /* \"#utility.yul\":28053:28054   */\n      0x00\n        /* \"#utility.yul\":28045:28051   */\n      dup3\n        /* \"#utility.yul\":28041:28055   */\n      add\n        /* \"#utility.yul\":28034:28072   */\n      mstore\n        /* \"#utility.yul\":27917:28079   */\n      pop\n      jump\t// out\n        /* \"#utility.yul\":28085:28487   */\n    tag_300:\n        /* \"#utility.yul\":28245:28248   */\n      0x00\n        /* \"#utility.yul\":28266:28351   */\n      tag_536\n        /* \"#utility.yul\":28348:28350   */\n      0x0c\n        /* \"#utility.yul\":28343:28346   */\n      dup4\n        /* \"#utility.yul\":28266:28351   */\n      tag_274\n      jump\t// in\n    tag_536:\n        /* \"#utility.yul\":28259:28351   */\n      swap2\n      pop\n        /* \"#utility.yul\":28360:28453   */\n      tag_537\n        /* \"#utility.yul\":28449:28452   */\n      dup3\n        /* \"#utility.yul\":28360:28453   */\n      tag_299\n      jump\t// in\n    tag_537:\n        /* \"#utility.yul\":28478:28480   */\n      0x0c\n        /* \"#utility.yul\":28473:28476   */\n      dup3\n        /* \"#utility.yul\":28469:28481   */\n      add\n        /* \"#utility.yul\":28462:28481   */\n      swap1\n      pop\n        /* \"#utility.yul\":28085:28487   */\n      swap2\n      swap1\n      pop\n      jump\t// out\n        /* \"#utility.yul\":28493:28651   */\n    tag_301:\n        /* \"#utility.yul\":28633:28643   */\n      0x2956414c55455328000000000000000000000000000000000000000000000000\n        /* \"#utility.yul\":28629:28630   */\n      0x00\n        /* \"#utility.yul\":28621:28627   */\n      dup3\n        /* \"#utility.yul\":28617:28631   */\n      add\n        /* \"#utility.yul\":28610:28644   */\n      mstore\n        /* \"#utility.yul\":28493:28651   */\n      pop\n      jump\t// out\n        /* \"#utility.yul\":28657:29057   */\n    tag_302:\n        /* \"#utility.yul\":28817:28820   */\n      0x00\n        /* \"#utility.yul\":28838:28922   */\n      tag_540\n        /* \"#utility.yul\":28920:28921   */\n      0x08\n        /* \"#utility.yul\":28915:28918   */\n      dup4\n        /* \"#utility.yul\":28838:28922   */\n      tag_274\n      jump\t// in\n    tag_540:\n        /* \"#utility.yul\":28831:28922   */\n      swap2\n      pop\n        /* \"#utility.yul\":28931:29024   */\n      tag_541\n        /* \"#utility.yul\":29020:29023   */\n      dup3\n        /* \"#utility.yul\":28931:29024   */\n      tag_301\n      jump\t// in\n    tag_541:\n        /* \"#utility.yul\":29049:29050   */\n      0x08\n        /* \"#utility.yul\":29044:29047   */\n      dup3\n        /* \"#utility.yul\":29040:29051   */\n      add\n        /* \"#utility.yul\":29033:29051   */\n      swap1\n      pop\n        /* \"#utility.yul\":28657:29057   */\n      swap2\n      swap1\n      pop\n      jump\t// out\n        /* \"#utility.yul\":29063:30722   */\n    tag_226:\n        /* \"#utility.yul\":29695:29698   */\n      0x00\n        /* \"#utility.yul\":29717:29865   */\n      tag_543\n        /* \"#utility.yul\":29861:29864   */\n      dup3\n        /* \"#utility.yul\":29717:29865   */\n      tag_300\n      jump\t// in\n    tag_543:\n        /* \"#utility.yul\":29710:29865   */\n      swap2\n      pop\n        /* \"#utility.yul\":29882:29977   */\n      tag_544\n        /* \"#utility.yul\":29973:29976   */\n      dup3\n        /* \"#utility.yul\":29964:29970   */\n      dup7\n        /* \"#utility.yul\":29882:29977   */\n      tag_275\n      jump\t// in\n    tag_544:\n        /* \"#utility.yul\":29875:29977   */\n      swap2\n      pop\n        /* \"#utility.yul\":29994:30142   */\n      tag_545\n        /* \"#utility.yul\":30138:30141   */\n      dup3\n        /* \"#utility.yul\":29994:30142   */\n      tag_290\n      jump\t// in\n    tag_545:\n        /* \"#utility.yul\":29987:30142   */\n      swap2\n      pop\n        /* \"#utility.yul\":30159:30254   */\n      tag_546\n        /* \"#utility.yul\":30250:30253   */\n      dup3\n        /* \"#utility.yul\":30241:30247   */\n      dup6\n        /* \"#utility.yul\":30159:30254   */\n      tag_275\n      jump\t// in\n    tag_546:\n        /* \"#utility.yul\":30152:30254   */\n      swap2\n      pop\n        /* \"#utility.yul\":30271:30419   */\n      tag_547\n        /* \"#utility.yul\":30415:30418   */\n      dup3\n        /* \"#utility.yul\":30271:30419   */\n      tag_302\n      jump\t// in\n    tag_547:\n        /* \"#utility.yul\":30264:30419   */\n      swap2\n      pop\n        /* \"#utility.yul\":30436:30531   */\n      tag_548\n        /* \"#utility.yul\":30527:30530   */\n      dup3\n        /* \"#utility.yul\":30518:30524   */\n      dup5\n        /* \"#utility.yul\":30436:30531   */\n      tag_275\n      jump\t// in\n    tag_548:\n        /* \"#utility.yul\":30429:30531   */\n      swap2\n      pop\n        /* \"#utility.yul\":30548:30696   */\n      tag_549\n        /* \"#utility.yul\":30692:30695   */\n      dup3\n        /* \"#utility.yul\":30548:30696   */\n      tag_292\n      jump\t// in\n    tag_549:\n        /* \"#utility.yul\":30541:30696   */\n      swap2\n      pop\n        /* \"#utility.yul\":30713:30716   */\n      dup2\n        /* \"#utility.yul\":30706:30716   */\n      swap1\n      pop\n        /* \"#utility.yul\":29063:30722   */\n      swap5\n      swap4\n      pop\n      pop\n      pop\n      pop\n      jump\t// out\n    stop\n    data_dffc122a469b497e8d00bbc2c7446ce252a53fa783e756edda30c54d97296e06 69642c2067726f757049642c20616464726573732c20616d6f756e742c20726f756e644964\n    data_ed935a9fa51a6f143b98e7954de7dabfac7c649b3b4d80ceb81fd0bee066b7de 696420696e7465676572207072696d617279206b65792c6164647265737320746578742c67726f7570496420746578742c616d6f756e7420696e74656765722c726f756e64496420696e7465676572\n\n    auxdata: 0xa264697066735822122085f5ec818d81b27b0b161fb3857515d3eb6cff4997c6567a398cc89a8c74b00d64736f6c63430008140033\n}\n",
				"bytecode": {
					"linkReferences": {},
					"object": "60806040525f600155348015610013575f80fd5b50611d66806100215f395ff3fe608060405260043610610085575f3560e01c80635d5a33a2116100585780635d5a33a21461015157806388e4f1cb1461017b578063b2a4c897146101a5578063e86492b1146101af578063f8ae673b146101d757610085565b806304bfc47f14610089578063150b7a02146100b157806319129e5a146100ed5780633e29585914610115575b5f80fd5b348015610094575f80fd5b506100af60048036038101906100aa9190610fa8565b6101ff565b005b3480156100bc575f80fd5b506100d760048036038101906100d29190611169565b6102e0565b6040516100e49190611223565b60405180910390f35b3480156100f8575f80fd5b50610113600480360381019061010e919061123c565b6102f3565b005b348015610120575f80fd5b5061013b6004803603810190610136919061123c565b610368565b60405161014891906112e1565b60405180910390f35b34801561015c575f80fd5b50610165610392565b60405161017291906112e1565b60405180910390f35b348015610186575f80fd5b5061018f6103d9565b60405161019c9190611310565b60405180910390f35b6101ad6103e1565b005b3480156101ba575f80fd5b506101d560048036038101906101d09190611329565b6104c0565b005b3480156101e2575f80fd5b506101fd60048036038101906101f89190611367565b6105d7565b005b5f61020982610726565b604051602001610219919061142b565b60405160208183030381529060405290506102326107f0565b73ffffffffffffffffffffffffffffffffffffffff1663377af0da305f546102916040518060400160405280601781526020017f737573755f636f6e747269627574696f6e5f7461626c650000000000000000008152505f5487610a15565b6040518463ffffffff1660e01b81526004016102af9392919061145f565b5f604051808303815f87803b1580156102c6575f80fd5b505af11580156102d8573d5f803e3d5ffd5b505050505050565b5f63150b7a0260e01b9050949350505050565b6102fb6107f0565b73ffffffffffffffffffffffffffffffffffffffff16638bb0ab97305f54846040518463ffffffff1660e01b81526004016103389392919061149b565b5f604051808303815f87803b15801561034f575f80fd5b505af1158015610361573d5f803e3d5ffd5b5050505050565b606061038b8273ffffffffffffffffffffffffffffffffffffffff166014610a50565b9050919050565b60606103d46040518060400160405280601781526020017f737573755f636f6e747269627574696f6e5f7461626c650000000000000000008152505f54610c8e565b905090565b5f8054905090565b6103e96107f0565b73ffffffffffffffffffffffffffffffffffffffff1663a15ab08d3061045c6040518060800160405280604f8152602001611ce2604f91396040518060400160405280601781526020017f737573755f636f6e747269627574696f6e5f7461626c65000000000000000000815250610ccc565b6040518363ffffffff1660e01b81526004016104799291906114d0565b6020604051808303815f875af1158015610495573d5f803e3d5ffd5b505050506040513d601f19601f820116820180604052508101906104b99190611512565b5f81905550565b5f6104d26104cd83610d02565b610d2f565b6040516020016104e29190611563565b60405160208183030381529060405290505f6104fd84610726565b60405160200161050d919061142b565b60405160208183030381529060405290506105266107f0565b73ffffffffffffffffffffffffffffffffffffffff1663377af0da305f546105866040518060400160405280601781526020017f737573755f636f6e747269627574696f6e5f7461626c650000000000000000008152505f548888610d58565b6040518463ffffffff1660e01b81526004016105a49392919061145f565b5f604051808303815f87803b1580156105bb575f80fd5b505af11580156105cd573d5f803e3d5ffd5b5050505050505050565b5f6105e184610d02565b90505f6105ed86610d02565b90506105f76107f0565b73ffffffffffffffffffffffffffffffffffffffff1663377af0da305f546106d36040518060400160405280601781526020017f737573755f636f6e747269627574696f6e5f7461626c650000000000000000008152505f54604051806060016040528060258152602001611cbd6025913961068760015f81548092919061067e906115b5565b91905055610726565b6106908a610d2f565b6106998c610d2f565b6106a28f610726565b6106ab8f610726565b6040516020016106bf959493929190611622565b604051602081830303815290604052610dd5565b6040518463ffffffff1660e01b81526004016106f19392919061145f565b5f604051808303815f87803b158015610708575f80fd5b505af115801561071a573d5f803e3d5ffd5b50505050505050505050565b60605f600161073484610e13565b0190505f8167ffffffffffffffff81111561075257610751611045565b5b6040519080825280601f01601f1916602001820160405280156107845781602001600182028036833780820191505090505b5090505f82602001820190505b6001156107e5578080600190039150507f3031323334353637383961626364656600000000000000000000000000000000600a86061a8153600a85816107da576107d96116a8565b5b0494505f8503610791575b819350505050919050565b5f600146036108155773012969f7e3439a9b04025b5a049eb9bad82a8c129050610a12565b600a46036108395773fad44bf5b843de943a09d4f3e84949a11d3aa3e69050610a12565b61a4b1460361085e57739abd75e8640871a5a20d3b4ee6330a04c962affd9050610a12565b61a4ba460361088357731a22854c5b1642760a827f20137a67930ae108d29050610a12565b608946036108a757735c4e6a9e5c1e1bf445a062006faf19ea6c49afea9050610a12565b61013a46036108cc577359ef8bf2d6c102b4c42aef9189e1a9f0abfd652d9050610a12565b62aa36a746036108f25773c50c62498448acc8dbde43da77f8d5d2e2c7597d9050610a12565b62aa37dc4603610918577368a2f4423ad3bf5139db563cf3bc80aa09ed70799050610a12565b62066eee460361093e5773223a74b8323914afdc3ff1e5005564dc17231d6e9050610a12565b62014a3446036109645773a85aae9f0aec5f5638e5f13840797303ab29c9f99050610a12565b62013882460361098a5773170fb206132b693e38adfc8727dcfa303546cec19050610a12565b6204cb2f46036109b05773030bcf3d50cad04c2e57391b12740982a93086219050610a12565b617a6946036109d55773e7f1725e7734ce288f8367e1bb143e90bb3f05129050610a12565b466040517f264e42cf000000000000000000000000000000000000000000000000000000008152600401610a099190611310565b60405180910390fd5b90565b60605f610a228585610c8e565b90508083604051602001610a37929190611769565b6040516020818303038152906040529150509392505050565b60605f8390505f6002846002610a6691906117a2565b610a7091906117e3565b67ffffffffffffffff811115610a8957610a88611045565b5b6040519080825280601f01601f191660200182016040528015610abb5781602001600182028036833780820191505090505b5090507f3000000000000000000000000000000000000000000000000000000000000000815f81518110610af257610af1611816565b5b60200101907effffffffffffffffffffffffffffffffffffffffffffffffffffffffffffff191690815f1a9053507f780000000000000000000000000000000000000000000000000000000000000081600181518110610b5557610b54611816565b5b60200101907effffffffffffffffffffffffffffffffffffffffffffffffffffffffffffff191690815f1a9053505f6001856002610b9391906117a2565b610b9d91906117e3565b90505b6001811115610c3c577f3031323334353637383961626364656600000000000000000000000000000000600f841660108110610bdf57610bde611816565b5b1a60f81b828281518110610bf657610bf5611816565b5b60200101907effffffffffffffffffffffffffffffffffffffffffffffffffffffffffffff191690815f1a905350600483901c925080610c3590611843565b9050610ba0565b505f8214610c835784846040517fe22e27eb000000000000000000000000000000000000000000000000000000008152600401610c7a92919061186a565b60405180910390fd5b809250505092915050565b606082610c9a46610726565b610ca384610726565b604051602001610cb5939291906118db565b604051602081830303815290604052905092915050565b606081610cd846610726565b84604051602001610ceb939291906119ff565b604051602081830303815290604052905092915050565b6060610d288273ffffffffffffffffffffffffffffffffffffffff16601460ff16610a50565b9050919050565b606081604051602001610d429190611aa5565b6040516020818303038152906040529050919050565b60605f610d658686610c8e565b90505f60405180602001604052805f81525090505f84511115610da55783604051602001610d939190611ad1565b60405160208183030381529060405290505b818582604051602001610dba93929190611b86565b60405160208183030381529060405292505050949350505050565b60605f610de28686610c8e565b9050808484604051602001610df993929190611c60565b604051602081830303815290604052915050949350505050565b5f805f90507a184f03e93ff9f4daa797ed6e38ed64bf6a1f0100000000000000008310610e6f577a184f03e93ff9f4daa797ed6e38ed64bf6a1f0100000000000000008381610e6557610e646116a8565b5b0492506040810190505b6d04ee2d6d415b85acef81000000008310610eac576d04ee2d6d415b85acef81000000008381610ea257610ea16116a8565b5b0492506020810190505b662386f26fc100008310610edb57662386f26fc100008381610ed157610ed06116a8565b5b0492506010810190505b6305f5e1008310610f04576305f5e1008381610efa57610ef96116a8565b5b0492506008810190505b6127108310610f29576127108381610f1f57610f1e6116a8565b5b0492506004810190505b60648310610f4c5760648381610f4257610f416116a8565b5b0492506002810190505b600a8310610f5b576001810190505b80915050919050565b5f604051905090565b5f80fd5b5f80fd5b5f819050919050565b610f8781610f75565b8114610f91575f80fd5b50565b5f81359050610fa281610f7e565b92915050565b5f60208284031215610fbd57610fbc610f6d565b5b5f610fca84828501610f94565b91505092915050565b5f73ffffffffffffffffffffffffffffffffffffffff82169050919050565b5f610ffc82610fd3565b9050919050565b61100c81610ff2565b8114611016575f80fd5b50565b5f8135905061102781611003565b92915050565b5f80fd5b5f80fd5b5f601f19601f8301169050919050565b7f4e487b71000000000000000000000000000000000000000000000000000000005f52604160045260245ffd5b61107b82611035565b810181811067ffffffffffffffff8211171561109a57611099611045565b5b80604052505050565b5f6110ac610f64565b90506110b88282611072565b919050565b5f67ffffffffffffffff8211156110d7576110d6611045565b5b6110e082611035565b9050602081019050919050565b828183375f83830152505050565b5f61110d611108846110bd565b6110a3565b90508281526020810184848401111561112957611128611031565b5b6111348482856110ed565b509392505050565b5f82601f8301126111505761114f61102d565b5b81356111608482602086016110fb565b91505092915050565b5f805f806080858703121561118157611180610f6d565b5b5f61118e87828801611019565b945050602061119f87828801611019565b93505060406111b087828801610f94565b925050606085013567ffffffffffffffff8111156111d1576111d0610f71565b5b6111dd8782880161113c565b91505092959194509250565b5f7fffffffff0000000000000000000000000000000000000000000000000000000082169050919050565b61121d816111e9565b82525050565b5f6020820190506112365f830184611214565b92915050565b5f6020828403121561125157611250610f6d565b5b5f61125e84828501611019565b91505092915050565b5f81519050919050565b5f82825260208201905092915050565b5f5b8381101561129e578082015181840152602081019050611283565b5f8484015250505050565b5f6112b382611267565b6112bd8185611271565b93506112cd818560208601611281565b6112d681611035565b840191505092915050565b5f6020820190508181035f8301526112f981846112a9565b905092915050565b61130a81610f75565b82525050565b5f6020820190506113235f830184611301565b92915050565b5f806040838503121561133f5761133e610f6d565b5b5f61134c85828601610f94565b925050602061135d85828601611019565b9150509250929050565b5f805f806080858703121561137f5761137e610f6d565b5b5f61138c87828801611019565b945050602061139d87828801611019565b93505060406113ae87828801610f94565b92505060606113bf87828801610f94565b91505092959194509250565b7f69643d0000000000000000000000000000000000000000000000000000000000815250565b5f81905092915050565b5f61140582611267565b61140f81856113f1565b935061141f818560208601611281565b80840191505092915050565b5f611435826113cb565b60038201915061144582846113fb565b915081905092915050565b61145981610ff2565b82525050565b5f6060820190506114725f830186611450565b61147f6020830185611301565b818103604083015261149181846112a9565b9050949350505050565b5f6060820190506114ae5f830186611450565b6114bb6020830185611301565b6114c86040830184611450565b949350505050565b5f6040820190506114e35f830185611450565b81810360208301526114f581846112a9565b90509392505050565b5f8151905061150c81610f7e565b92915050565b5f6020828403121561152757611526610f6d565b5b5f611534848285016114fe565b91505092915050565b7f67726f757049643d000000000000000000000000000000000000000000000000815250565b5f61156d8261153d565b60088201915061157d82846113fb565b915081905092915050565b7f4e487b71000000000000000000000000000000000000000000000000000000005f52601160045260245ffd5b5f6115bf82610f75565b91507fffffffffffffffffffffffffffffffffffffffffffffffffffffffffffffffff82036115f1576115f0611588565b5b600182019050919050565b7f2c00000000000000000000000000000000000000000000000000000000000000815250565b5f61162d82886113fb565b9150611638826115fc565b60018201915061164882876113fb565b9150611653826115fc565b60018201915061166382866113fb565b915061166e826115fc565b60018201915061167e82856113fb565b9150611689826115fc565b60018201915061169982846113fb565b91508190509695505050505050565b7f4e487b71000000000000000000000000000000000000000000000000000000005f52601260045260245ffd5b7f44454c4554452046524f4d2000000000000000000000000000000000000000005f82015250565b5f611709600c836113f1565b9150611714826116d5565b600c82019050919050565b7f20574845524520000000000000000000000000000000000000000000000000005f82015250565b5f6117536007836113f1565b915061175e8261171f565b600782019050919050565b5f611773826116fd565b915061177f82856113fb565b915061178a82611747565b915061179682846113fb565b91508190509392505050565b5f6117ac82610f75565b91506117b783610f75565b92508282026117c581610f75565b915082820484148315176117dc576117db611588565b5b5092915050565b5f6117ed82610f75565b91506117f883610f75565b92508282019050808211156118105761180f611588565b5b92915050565b7f4e487b71000000000000000000000000000000000000000000000000000000005f52603260045260245ffd5b5f61184d82610f75565b91505f820361185f5761185e611588565b5b600182039050919050565b5f60408201905061187d5f830185611301565b61188a6020830184611301565b9392505050565b7f5f000000000000000000000000000000000000000000000000000000000000005f82015250565b5f6118c56001836113f1565b91506118d082611891565b600182019050919050565b5f6118e682866113fb565b91506118f1826118b9565b91506118fd82856113fb565b9150611908826118b9565b915061191482846113fb565b9150819050949350505050565b7f435245415445205441424c4520000000000000000000000000000000000000005f82015250565b5f611955600d836113f1565b915061196082611921565b600d82019050919050565b7f28000000000000000000000000000000000000000000000000000000000000005f82015250565b5f61199f6001836113f1565b91506119aa8261196b565b600182019050919050565b7f29000000000000000000000000000000000000000000000000000000000000005f82015250565b5f6119e96001836113f1565b91506119f4826119b5565b600182019050919050565b5f611a0982611949565b9150611a1582866113fb565b9150611a20826118b9565b9150611a2c82856113fb565b9150611a3782611993565b9150611a4382846113fb565b9150611a4e826119dd565b9150819050949350505050565b7f27000000000000000000000000000000000000000000000000000000000000005f82015250565b5f611a8f6001836113f1565b9150611a9a82611a5b565b600182019050919050565b5f611aaf82611a83565b9150611abb82846113fb565b9150611ac682611a83565b915081905092915050565b5f611adb82611747565b9150611ae782846113fb565b915081905092915050565b7f55504441544520000000000000000000000000000000000000000000000000005f82015250565b5f611b266007836113f1565b9150611b3182611af2565b600782019050919050565b7f20534554200000000000000000000000000000000000000000000000000000005f82015250565b5f611b706005836113f1565b9150611b7b82611b3c565b600582019050919050565b5f611b9082611b1a565b9150611b9c82866113fb565b9150611ba782611b64565b9150611bb382856113fb565b9150611bbf82846113fb565b9150819050949350505050565b7f494e5345525420494e544f2000000000000000000000000000000000000000005f82015250565b5f611c00600c836113f1565b9150611c0b82611bcc565b600c82019050919050565b7f2956414c554553280000000000000000000000000000000000000000000000005f82015250565b5f611c4a6008836113f1565b9150611c5582611c16565b600882019050919050565b5f611c6a82611bf4565b9150611c7682866113fb565b9150611c8182611993565b9150611c8d82856113fb565b9150611c9882611c3e565b9150611ca482846113fb565b9150611caf826119dd565b915081905094935050505056fe69642c2067726f757049642c20616464726573732c20616d6f756e742c20726f756e644964696420696e7465676572207072696d617279206b65792c6164647265737320746578742c67726f7570496420746578742c616d6f756e7420696e74656765722c726f756e64496420696e7465676572a264697066735822122085f5ec818d81b27b0b161fb3857515d3eb6cff4997c6567a398cc89a8c74b00d64736f6c63430008140033",
					"opcodes": "PUSH1 0x80 PUSH1 0x40 MSTORE PUSH0 PUSH1 0x1 SSTORE CALLVALUE DUP1 ISZERO PUSH2 0x13 JUMPI PUSH0 DUP1 REVERT JUMPDEST POP PUSH2 0x1D66 DUP1 PUSH2 0x21 PUSH0 CODECOPY PUSH0 RETURN INVALID PUSH1 0x80 PUSH1 0x40 MSTORE PUSH1 0x4 CALLDATASIZE LT PUSH2 0x85 JUMPI PUSH0 CALLDATALOAD PUSH1 0xE0 SHR DUP1 PUSH4 0x5D5A33A2 GT PUSH2 0x58 JUMPI DUP1 PUSH4 0x5D5A33A2 EQ PUSH2 0x151 JUMPI DUP1 PUSH4 0x88E4F1CB EQ PUSH2 0x17B JUMPI DUP1 PUSH4 0xB2A4C897 EQ PUSH2 0x1A5 JUMPI DUP1 PUSH4 0xE86492B1 EQ PUSH2 0x1AF JUMPI DUP1 PUSH4 0xF8AE673B EQ PUSH2 0x1D7 JUMPI PUSH2 0x85 JUMP JUMPDEST DUP1 PUSH4 0x4BFC47F EQ PUSH2 0x89 JUMPI DUP1 PUSH4 0x150B7A02 EQ PUSH2 0xB1 JUMPI DUP1 PUSH4 0x19129E5A EQ PUSH2 0xED JUMPI DUP1 PUSH4 0x3E295859 EQ PUSH2 0x115 JUMPI JUMPDEST PUSH0 DUP1 REVERT JUMPDEST CALLVALUE DUP1 ISZERO PUSH2 0x94 JUMPI PUSH0 DUP1 REVERT JUMPDEST POP PUSH2 0xAF PUSH1 0x4 DUP1 CALLDATASIZE SUB DUP2 ADD SWAP1 PUSH2 0xAA SWAP2 SWAP1 PUSH2 0xFA8 JUMP JUMPDEST PUSH2 0x1FF JUMP JUMPDEST STOP JUMPDEST CALLVALUE DUP1 ISZERO PUSH2 0xBC JUMPI PUSH0 DUP1 REVERT JUMPDEST POP PUSH2 0xD7 PUSH1 0x4 DUP1 CALLDATASIZE SUB DUP2 ADD SWAP1 PUSH2 0xD2 SWAP2 SWAP1 PUSH2 0x1169 JUMP JUMPDEST PUSH2 0x2E0 JUMP JUMPDEST PUSH1 0x40 MLOAD PUSH2 0xE4 SWAP2 SWAP1 PUSH2 0x1223 JUMP JUMPDEST PUSH1 0x40 MLOAD DUP1 SWAP2 SUB SWAP1 RETURN JUMPDEST CALLVALUE DUP1 ISZERO PUSH2 0xF8 JUMPI PUSH0 DUP1 REVERT JUMPDEST POP PUSH2 0x113 PUSH1 0x4 DUP1 CALLDATASIZE SUB DUP2 ADD SWAP1 PUSH2 0x10E SWAP2 SWAP1 PUSH2 0x123C JUMP JUMPDEST PUSH2 0x2F3 JUMP JUMPDEST STOP JUMPDEST CALLVALUE DUP1 ISZERO PUSH2 0x120 JUMPI PUSH0 DUP1 REVERT JUMPDEST POP PUSH2 0x13B PUSH1 0x4 DUP1 CALLDATASIZE SUB DUP2 ADD SWAP1 PUSH2 0x136 SWAP2 SWAP1 PUSH2 0x123C JUMP JUMPDEST PUSH2 0x368 JUMP JUMPDEST PUSH1 0x40 MLOAD PUSH2 0x148 SWAP2 SWAP1 PUSH2 0x12E1 JUMP JUMPDEST PUSH1 0x40 MLOAD DUP1 SWAP2 SUB SWAP1 RETURN JUMPDEST CALLVALUE DUP1 ISZERO PUSH2 0x15C JUMPI PUSH0 DUP1 REVERT JUMPDEST POP PUSH2 0x165 PUSH2 0x392 JUMP JUMPDEST PUSH1 0x40 MLOAD PUSH2 0x172 SWAP2 SWAP1 PUSH2 0x12E1 JUMP JUMPDEST PUSH1 0x40 MLOAD DUP1 SWAP2 SUB SWAP1 RETURN JUMPDEST CALLVALUE DUP1 ISZERO PUSH2 0x186 JUMPI PUSH0 DUP1 REVERT JUMPDEST POP PUSH2 0x18F PUSH2 0x3D9 JUMP JUMPDEST PUSH1 0x40 MLOAD PUSH2 0x19C SWAP2 SWAP1 PUSH2 0x1310 JUMP JUMPDEST PUSH1 0x40 MLOAD DUP1 SWAP2 SUB SWAP1 RETURN JUMPDEST PUSH2 0x1AD PUSH2 0x3E1 JUMP JUMPDEST STOP JUMPDEST CALLVALUE DUP1 ISZERO PUSH2 0x1BA JUMPI PUSH0 DUP1 REVERT JUMPDEST POP PUSH2 0x1D5 PUSH1 0x4 DUP1 CALLDATASIZE SUB DUP2 ADD SWAP1 PUSH2 0x1D0 SWAP2 SWAP1 PUSH2 0x1329 JUMP JUMPDEST PUSH2 0x4C0 JUMP JUMPDEST STOP JUMPDEST CALLVALUE DUP1 ISZERO PUSH2 0x1E2 JUMPI PUSH0 DUP1 REVERT JUMPDEST POP PUSH2 0x1FD PUSH1 0x4 DUP1 CALLDATASIZE SUB DUP2 ADD SWAP1 PUSH2 0x1F8 SWAP2 SWAP1 PUSH2 0x1367 JUMP JUMPDEST PUSH2 0x5D7 JUMP JUMPDEST STOP JUMPDEST PUSH0 PUSH2 0x209 DUP3 PUSH2 0x726 JUMP JUMPDEST PUSH1 0x40 MLOAD PUSH1 0x20 ADD PUSH2 0x219 SWAP2 SWAP1 PUSH2 0x142B JUMP JUMPDEST PUSH1 0x40 MLOAD PUSH1 0x20 DUP2 DUP4 SUB SUB DUP2 MSTORE SWAP1 PUSH1 0x40 MSTORE SWAP1 POP PUSH2 0x232 PUSH2 0x7F0 JUMP JUMPDEST PUSH20 0xFFFFFFFFFFFFFFFFFFFFFFFFFFFFFFFFFFFFFFFF AND PUSH4 0x377AF0DA ADDRESS PUSH0 SLOAD PUSH2 0x291 PUSH1 0x40 MLOAD DUP1 PUSH1 0x40 ADD PUSH1 0x40 MSTORE DUP1 PUSH1 0x17 DUP2 MSTORE PUSH1 0x20 ADD PUSH32 0x737573755F636F6E747269627574696F6E5F7461626C65000000000000000000 DUP2 MSTORE POP PUSH0 SLOAD DUP8 PUSH2 0xA15 JUMP JUMPDEST PUSH1 0x40 MLOAD DUP5 PUSH4 0xFFFFFFFF AND PUSH1 0xE0 SHL DUP2 MSTORE PUSH1 0x4 ADD PUSH2 0x2AF SWAP4 SWAP3 SWAP2 SWAP1 PUSH2 0x145F JUMP JUMPDEST PUSH0 PUSH1 0x40 MLOAD DUP1 DUP4 SUB DUP2 PUSH0 DUP8 DUP1 EXTCODESIZE ISZERO DUP1 ISZERO PUSH2 0x2C6 JUMPI PUSH0 DUP1 REVERT JUMPDEST POP GAS CALL ISZERO DUP1 ISZERO PUSH2 0x2D8 JUMPI RETURNDATASIZE PUSH0 DUP1 RETURNDATACOPY RETURNDATASIZE PUSH0 REVERT JUMPDEST POP POP POP POP POP POP JUMP JUMPDEST PUSH0 PUSH4 0x150B7A02 PUSH1 0xE0 SHL SWAP1 POP SWAP5 SWAP4 POP POP POP POP JUMP JUMPDEST PUSH2 0x2FB PUSH2 0x7F0 JUMP JUMPDEST PUSH20 0xFFFFFFFFFFFFFFFFFFFFFFFFFFFFFFFFFFFFFFFF AND PUSH4 0x8BB0AB97 ADDRESS PUSH0 SLOAD DUP5 PUSH1 0x40 MLOAD DUP5 PUSH4 0xFFFFFFFF AND PUSH1 0xE0 SHL DUP2 MSTORE PUSH1 0x4 ADD PUSH2 0x338 SWAP4 SWAP3 SWAP2 SWAP1 PUSH2 0x149B JUMP JUMPDEST PUSH0 PUSH1 0x40 MLOAD DUP1 DUP4 SUB DUP2 PUSH0 DUP8 DUP1 EXTCODESIZE ISZERO DUP1 ISZERO PUSH2 0x34F JUMPI PUSH0 DUP1 REVERT JUMPDEST POP GAS CALL ISZERO DUP1 ISZERO PUSH2 0x361 JUMPI RETURNDATASIZE PUSH0 DUP1 RETURNDATACOPY RETURNDATASIZE PUSH0 REVERT JUMPDEST POP POP POP POP POP JUMP JUMPDEST PUSH1 0x60 PUSH2 0x38B DUP3 PUSH20 0xFFFFFFFFFFFFFFFFFFFFFFFFFFFFFFFFFFFFFFFF AND PUSH1 0x14 PUSH2 0xA50 JUMP JUMPDEST SWAP1 POP SWAP2 SWAP1 POP JUMP JUMPDEST PUSH1 0x60 PUSH2 0x3D4 PUSH1 0x40 MLOAD DUP1 PUSH1 0x40 ADD PUSH1 0x40 MSTORE DUP1 PUSH1 0x17 DUP2 MSTORE PUSH1 0x20 ADD PUSH32 0x737573755F636F6E747269627574696F6E5F7461626C65000000000000000000 DUP2 MSTORE POP PUSH0 SLOAD PUSH2 0xC8E JUMP JUMPDEST SWAP1 POP SWAP1 JUMP JUMPDEST PUSH0 DUP1 SLOAD SWAP1 POP SWAP1 JUMP JUMPDEST PUSH2 0x3E9 PUSH2 0x7F0 JUMP JUMPDEST PUSH20 0xFFFFFFFFFFFFFFFFFFFFFFFFFFFFFFFFFFFFFFFF AND PUSH4 0xA15AB08D ADDRESS PUSH2 0x45C PUSH1 0x40 MLOAD DUP1 PUSH1 0x80 ADD PUSH1 0x40 MSTORE DUP1 PUSH1 0x4F DUP2 MSTORE PUSH1 0x20 ADD PUSH2 0x1CE2 PUSH1 0x4F SWAP2 CODECOPY PUSH1 0x40 MLOAD DUP1 PUSH1 0x40 ADD PUSH1 0x40 MSTORE DUP1 PUSH1 0x17 DUP2 MSTORE PUSH1 0x20 ADD PUSH32 0x737573755F636F6E747269627574696F6E5F7461626C65000000000000000000 DUP2 MSTORE POP PUSH2 0xCCC JUMP JUMPDEST PUSH1 0x40 MLOAD DUP4 PUSH4 0xFFFFFFFF AND PUSH1 0xE0 SHL DUP2 MSTORE PUSH1 0x4 ADD PUSH2 0x479 SWAP3 SWAP2 SWAP1 PUSH2 0x14D0 JUMP JUMPDEST PUSH1 0x20 PUSH1 0x40 MLOAD DUP1 DUP4 SUB DUP2 PUSH0 DUP8 GAS CALL ISZERO DUP1 ISZERO PUSH2 0x495 JUMPI RETURNDATASIZE PUSH0 DUP1 RETURNDATACOPY RETURNDATASIZE PUSH0 REVERT JUMPDEST POP POP POP POP PUSH1 0x40 MLOAD RETURNDATASIZE PUSH1 0x1F NOT PUSH1 0x1F DUP3 ADD AND DUP3 ADD DUP1 PUSH1 0x40 MSTORE POP DUP2 ADD SWAP1 PUSH2 0x4B9 SWAP2 SWAP1 PUSH2 0x1512 JUMP JUMPDEST PUSH0 DUP2 SWAP1 SSTORE POP JUMP JUMPDEST PUSH0 PUSH2 0x4D2 PUSH2 0x4CD DUP4 PUSH2 0xD02 JUMP JUMPDEST PUSH2 0xD2F JUMP JUMPDEST PUSH1 0x40 MLOAD PUSH1 0x20 ADD PUSH2 0x4E2 SWAP2 SWAP1 PUSH2 0x1563 JUMP JUMPDEST PUSH1 0x40 MLOAD PUSH1 0x20 DUP2 DUP4 SUB SUB DUP2 MSTORE SWAP1 PUSH1 0x40 MSTORE SWAP1 POP PUSH0 PUSH2 0x4FD DUP5 PUSH2 0x726 JUMP JUMPDEST PUSH1 0x40 MLOAD PUSH1 0x20 ADD PUSH2 0x50D SWAP2 SWAP1 PUSH2 0x142B JUMP JUMPDEST PUSH1 0x40 MLOAD PUSH1 0x20 DUP2 DUP4 SUB SUB DUP2 MSTORE SWAP1 PUSH1 0x40 MSTORE SWAP1 POP PUSH2 0x526 PUSH2 0x7F0 JUMP JUMPDEST PUSH20 0xFFFFFFFFFFFFFFFFFFFFFFFFFFFFFFFFFFFFFFFF AND PUSH4 0x377AF0DA ADDRESS PUSH0 SLOAD PUSH2 0x586 PUSH1 0x40 MLOAD DUP1 PUSH1 0x40 ADD PUSH1 0x40 MSTORE DUP1 PUSH1 0x17 DUP2 MSTORE PUSH1 0x20 ADD PUSH32 0x737573755F636F6E747269627574696F6E5F7461626C65000000000000000000 DUP2 MSTORE POP PUSH0 SLOAD DUP9 DUP9 PUSH2 0xD58 JUMP JUMPDEST PUSH1 0x40 MLOAD DUP5 PUSH4 0xFFFFFFFF AND PUSH1 0xE0 SHL DUP2 MSTORE PUSH1 0x4 ADD PUSH2 0x5A4 SWAP4 SWAP3 SWAP2 SWAP1 PUSH2 0x145F JUMP JUMPDEST PUSH0 PUSH1 0x40 MLOAD DUP1 DUP4 SUB DUP2 PUSH0 DUP8 DUP1 EXTCODESIZE ISZERO DUP1 ISZERO PUSH2 0x5BB JUMPI PUSH0 DUP1 REVERT JUMPDEST POP GAS CALL ISZERO DUP1 ISZERO PUSH2 0x5CD JUMPI RETURNDATASIZE PUSH0 DUP1 RETURNDATACOPY RETURNDATASIZE PUSH0 REVERT JUMPDEST POP POP POP POP POP POP POP POP JUMP JUMPDEST PUSH0 PUSH2 0x5E1 DUP5 PUSH2 0xD02 JUMP JUMPDEST SWAP1 POP PUSH0 PUSH2 0x5ED DUP7 PUSH2 0xD02 JUMP JUMPDEST SWAP1 POP PUSH2 0x5F7 PUSH2 0x7F0 JUMP JUMPDEST PUSH20 0xFFFFFFFFFFFFFFFFFFFFFFFFFFFFFFFFFFFFFFFF AND PUSH4 0x377AF0DA ADDRESS PUSH0 SLOAD PUSH2 0x6D3 PUSH1 0x40 MLOAD DUP1 PUSH1 0x40 ADD PUSH1 0x40 MSTORE DUP1 PUSH1 0x17 DUP2 MSTORE PUSH1 0x20 ADD PUSH32 0x737573755F636F6E747269627574696F6E5F7461626C65000000000000000000 DUP2 MSTORE POP PUSH0 SLOAD PUSH1 0x40 MLOAD DUP1 PUSH1 0x60 ADD PUSH1 0x40 MSTORE DUP1 PUSH1 0x25 DUP2 MSTORE PUSH1 0x20 ADD PUSH2 0x1CBD PUSH1 0x25 SWAP2 CODECOPY PUSH2 0x687 PUSH1 0x1 PUSH0 DUP2 SLOAD DUP1 SWAP3 SWAP2 SWAP1 PUSH2 0x67E SWAP1 PUSH2 0x15B5 JUMP JUMPDEST SWAP2 SWAP1 POP SSTORE PUSH2 0x726 JUMP JUMPDEST PUSH2 0x690 DUP11 PUSH2 0xD2F JUMP JUMPDEST PUSH2 0x699 DUP13 PUSH2 0xD2F JUMP JUMPDEST PUSH2 0x6A2 DUP16 PUSH2 0x726 JUMP JUMPDEST PUSH2 0x6AB DUP16 PUSH2 0x726 JUMP JUMPDEST PUSH1 0x40 MLOAD PUSH1 0x20 ADD PUSH2 0x6BF SWAP6 SWAP5 SWAP4 SWAP3 SWAP2 SWAP1 PUSH2 0x1622 JUMP JUMPDEST PUSH1 0x40 MLOAD PUSH1 0x20 DUP2 DUP4 SUB SUB DUP2 MSTORE SWAP1 PUSH1 0x40 MSTORE PUSH2 0xDD5 JUMP JUMPDEST PUSH1 0x40 MLOAD DUP5 PUSH4 0xFFFFFFFF AND PUSH1 0xE0 SHL DUP2 MSTORE PUSH1 0x4 ADD PUSH2 0x6F1 SWAP4 SWAP3 SWAP2 SWAP1 PUSH2 0x145F JUMP JUMPDEST PUSH0 PUSH1 0x40 MLOAD DUP1 DUP4 SUB DUP2 PUSH0 DUP8 DUP1 EXTCODESIZE ISZERO DUP1 ISZERO PUSH2 0x708 JUMPI PUSH0 DUP1 REVERT JUMPDEST POP GAS CALL ISZERO DUP1 ISZERO PUSH2 0x71A JUMPI RETURNDATASIZE PUSH0 DUP1 RETURNDATACOPY RETURNDATASIZE PUSH0 REVERT JUMPDEST POP POP POP POP POP POP POP POP POP POP JUMP JUMPDEST PUSH1 0x60 PUSH0 PUSH1 0x1 PUSH2 0x734 DUP5 PUSH2 0xE13 JUMP JUMPDEST ADD SWAP1 POP PUSH0 DUP2 PUSH8 0xFFFFFFFFFFFFFFFF DUP2 GT ISZERO PUSH2 0x752 JUMPI PUSH2 0x751 PUSH2 0x1045 JUMP JUMPDEST JUMPDEST PUSH1 0x40 MLOAD SWAP1 DUP1 DUP3 MSTORE DUP1 PUSH1 0x1F ADD PUSH1 0x1F NOT AND PUSH1 0x20 ADD DUP3 ADD PUSH1 0x40 MSTORE DUP1 ISZERO PUSH2 0x784 JUMPI DUP2 PUSH1 0x20 ADD PUSH1 0x1 DUP3 MUL DUP1 CALLDATASIZE DUP4 CALLDATACOPY DUP1 DUP3 ADD SWAP2 POP POP SWAP1 POP JUMPDEST POP SWAP1 POP PUSH0 DUP3 PUSH1 0x20 ADD DUP3 ADD SWAP1 POP JUMPDEST PUSH1 0x1 ISZERO PUSH2 0x7E5 JUMPI DUP1 DUP1 PUSH1 0x1 SWAP1 SUB SWAP2 POP POP PUSH32 0x3031323334353637383961626364656600000000000000000000000000000000 PUSH1 0xA DUP7 MOD BYTE DUP2 MSTORE8 PUSH1 0xA DUP6 DUP2 PUSH2 0x7DA JUMPI PUSH2 0x7D9 PUSH2 0x16A8 JUMP JUMPDEST JUMPDEST DIV SWAP5 POP PUSH0 DUP6 SUB PUSH2 0x791 JUMPI JUMPDEST DUP2 SWAP4 POP POP POP POP SWAP2 SWAP1 POP JUMP JUMPDEST PUSH0 PUSH1 0x1 CHAINID SUB PUSH2 0x815 JUMPI PUSH20 0x12969F7E3439A9B04025B5A049EB9BAD82A8C12 SWAP1 POP PUSH2 0xA12 JUMP JUMPDEST PUSH1 0xA CHAINID SUB PUSH2 0x839 JUMPI PUSH20 0xFAD44BF5B843DE943A09D4F3E84949A11D3AA3E6 SWAP1 POP PUSH2 0xA12 JUMP JUMPDEST PUSH2 0xA4B1 CHAINID SUB PUSH2 0x85E JUMPI PUSH20 0x9ABD75E8640871A5A20D3B4EE6330A04C962AFFD SWAP1 POP PUSH2 0xA12 JUMP JUMPDEST PUSH2 0xA4BA CHAINID SUB PUSH2 0x883 JUMPI PUSH20 0x1A22854C5B1642760A827F20137A67930AE108D2 SWAP1 POP PUSH2 0xA12 JUMP JUMPDEST PUSH1 0x89 CHAINID SUB PUSH2 0x8A7 JUMPI PUSH20 0x5C4E6A9E5C1E1BF445A062006FAF19EA6C49AFEA SWAP1 POP PUSH2 0xA12 JUMP JUMPDEST PUSH2 0x13A CHAINID SUB PUSH2 0x8CC JUMPI PUSH20 0x59EF8BF2D6C102B4C42AEF9189E1A9F0ABFD652D SWAP1 POP PUSH2 0xA12 JUMP JUMPDEST PUSH3 0xAA36A7 CHAINID SUB PUSH2 0x8F2 JUMPI PUSH20 0xC50C62498448ACC8DBDE43DA77F8D5D2E2C7597D SWAP1 POP PUSH2 0xA12 JUMP JUMPDEST PUSH3 0xAA37DC CHAINID SUB PUSH2 0x918 JUMPI PUSH20 0x68A2F4423AD3BF5139DB563CF3BC80AA09ED7079 SWAP1 POP PUSH2 0xA12 JUMP JUMPDEST PUSH3 0x66EEE CHAINID SUB PUSH2 0x93E JUMPI PUSH20 0x223A74B8323914AFDC3FF1E5005564DC17231D6E SWAP1 POP PUSH2 0xA12 JUMP JUMPDEST PUSH3 0x14A34 CHAINID SUB PUSH2 0x964 JUMPI PUSH20 0xA85AAE9F0AEC5F5638E5F13840797303AB29C9F9 SWAP1 POP PUSH2 0xA12 JUMP JUMPDEST PUSH3 0x13882 CHAINID SUB PUSH2 0x98A JUMPI PUSH20 0x170FB206132B693E38ADFC8727DCFA303546CEC1 SWAP1 POP PUSH2 0xA12 JUMP JUMPDEST PUSH3 0x4CB2F CHAINID SUB PUSH2 0x9B0 JUMPI PUSH20 0x30BCF3D50CAD04C2E57391B12740982A9308621 SWAP1 POP PUSH2 0xA12 JUMP JUMPDEST PUSH2 0x7A69 CHAINID SUB PUSH2 0x9D5 JUMPI PUSH20 0xE7F1725E7734CE288F8367E1BB143E90BB3F0512 SWAP1 POP PUSH2 0xA12 JUMP JUMPDEST CHAINID PUSH1 0x40 MLOAD PUSH32 0x264E42CF00000000000000000000000000000000000000000000000000000000 DUP2 MSTORE PUSH1 0x4 ADD PUSH2 0xA09 SWAP2 SWAP1 PUSH2 0x1310 JUMP JUMPDEST PUSH1 0x40 MLOAD DUP1 SWAP2 SUB SWAP1 REVERT JUMPDEST SWAP1 JUMP JUMPDEST PUSH1 0x60 PUSH0 PUSH2 0xA22 DUP6 DUP6 PUSH2 0xC8E JUMP JUMPDEST SWAP1 POP DUP1 DUP4 PUSH1 0x40 MLOAD PUSH1 0x20 ADD PUSH2 0xA37 SWAP3 SWAP2 SWAP1 PUSH2 0x1769 JUMP JUMPDEST PUSH1 0x40 MLOAD PUSH1 0x20 DUP2 DUP4 SUB SUB DUP2 MSTORE SWAP1 PUSH1 0x40 MSTORE SWAP2 POP POP SWAP4 SWAP3 POP POP POP JUMP JUMPDEST PUSH1 0x60 PUSH0 DUP4 SWAP1 POP PUSH0 PUSH1 0x2 DUP5 PUSH1 0x2 PUSH2 0xA66 SWAP2 SWAP1 PUSH2 0x17A2 JUMP JUMPDEST PUSH2 0xA70 SWAP2 SWAP1 PUSH2 0x17E3 JUMP JUMPDEST PUSH8 0xFFFFFFFFFFFFFFFF DUP2 GT ISZERO PUSH2 0xA89 JUMPI PUSH2 0xA88 PUSH2 0x1045 JUMP JUMPDEST JUMPDEST PUSH1 0x40 MLOAD SWAP1 DUP1 DUP3 MSTORE DUP1 PUSH1 0x1F ADD PUSH1 0x1F NOT AND PUSH1 0x20 ADD DUP3 ADD PUSH1 0x40 MSTORE DUP1 ISZERO PUSH2 0xABB JUMPI DUP2 PUSH1 0x20 ADD PUSH1 0x1 DUP3 MUL DUP1 CALLDATASIZE DUP4 CALLDATACOPY DUP1 DUP3 ADD SWAP2 POP POP SWAP1 POP JUMPDEST POP SWAP1 POP PUSH32 0x3000000000000000000000000000000000000000000000000000000000000000 DUP2 PUSH0 DUP2 MLOAD DUP2 LT PUSH2 0xAF2 JUMPI PUSH2 0xAF1 PUSH2 0x1816 JUMP JUMPDEST JUMPDEST PUSH1 0x20 ADD ADD SWAP1 PUSH31 0xFFFFFFFFFFFFFFFFFFFFFFFFFFFFFFFFFFFFFFFFFFFFFFFFFFFFFFFFFFFFFF NOT AND SWAP1 DUP2 PUSH0 BYTE SWAP1 MSTORE8 POP PUSH32 0x7800000000000000000000000000000000000000000000000000000000000000 DUP2 PUSH1 0x1 DUP2 MLOAD DUP2 LT PUSH2 0xB55 JUMPI PUSH2 0xB54 PUSH2 0x1816 JUMP JUMPDEST JUMPDEST PUSH1 0x20 ADD ADD SWAP1 PUSH31 0xFFFFFFFFFFFFFFFFFFFFFFFFFFFFFFFFFFFFFFFFFFFFFFFFFFFFFFFFFFFFFF NOT AND SWAP1 DUP2 PUSH0 BYTE SWAP1 MSTORE8 POP PUSH0 PUSH1 0x1 DUP6 PUSH1 0x2 PUSH2 0xB93 SWAP2 SWAP1 PUSH2 0x17A2 JUMP JUMPDEST PUSH2 0xB9D SWAP2 SWAP1 PUSH2 0x17E3 JUMP JUMPDEST SWAP1 POP JUMPDEST PUSH1 0x1 DUP2 GT ISZERO PUSH2 0xC3C JUMPI PUSH32 0x3031323334353637383961626364656600000000000000000000000000000000 PUSH1 0xF DUP5 AND PUSH1 0x10 DUP2 LT PUSH2 0xBDF JUMPI PUSH2 0xBDE PUSH2 0x1816 JUMP JUMPDEST JUMPDEST BYTE PUSH1 0xF8 SHL DUP3 DUP3 DUP2 MLOAD DUP2 LT PUSH2 0xBF6 JUMPI PUSH2 0xBF5 PUSH2 0x1816 JUMP JUMPDEST JUMPDEST PUSH1 0x20 ADD ADD SWAP1 PUSH31 0xFFFFFFFFFFFFFFFFFFFFFFFFFFFFFFFFFFFFFFFFFFFFFFFFFFFFFFFFFFFFFF NOT AND SWAP1 DUP2 PUSH0 BYTE SWAP1 MSTORE8 POP PUSH1 0x4 DUP4 SWAP1 SHR SWAP3 POP DUP1 PUSH2 0xC35 SWAP1 PUSH2 0x1843 JUMP JUMPDEST SWAP1 POP PUSH2 0xBA0 JUMP JUMPDEST POP PUSH0 DUP3 EQ PUSH2 0xC83 JUMPI DUP5 DUP5 PUSH1 0x40 MLOAD PUSH32 0xE22E27EB00000000000000000000000000000000000000000000000000000000 DUP2 MSTORE PUSH1 0x4 ADD PUSH2 0xC7A SWAP3 SWAP2 SWAP1 PUSH2 0x186A JUMP JUMPDEST PUSH1 0x40 MLOAD DUP1 SWAP2 SUB SWAP1 REVERT JUMPDEST DUP1 SWAP3 POP POP POP SWAP3 SWAP2 POP POP JUMP JUMPDEST PUSH1 0x60 DUP3 PUSH2 0xC9A CHAINID PUSH2 0x726 JUMP JUMPDEST PUSH2 0xCA3 DUP5 PUSH2 0x726 JUMP JUMPDEST PUSH1 0x40 MLOAD PUSH1 0x20 ADD PUSH2 0xCB5 SWAP4 SWAP3 SWAP2 SWAP1 PUSH2 0x18DB JUMP JUMPDEST PUSH1 0x40 MLOAD PUSH1 0x20 DUP2 DUP4 SUB SUB DUP2 MSTORE SWAP1 PUSH1 0x40 MSTORE SWAP1 POP SWAP3 SWAP2 POP POP JUMP JUMPDEST PUSH1 0x60 DUP2 PUSH2 0xCD8 CHAINID PUSH2 0x726 JUMP JUMPDEST DUP5 PUSH1 0x40 MLOAD PUSH1 0x20 ADD PUSH2 0xCEB SWAP4 SWAP3 SWAP2 SWAP1 PUSH2 0x19FF JUMP JUMPDEST PUSH1 0x40 MLOAD PUSH1 0x20 DUP2 DUP4 SUB SUB DUP2 MSTORE SWAP1 PUSH1 0x40 MSTORE SWAP1 POP SWAP3 SWAP2 POP POP JUMP JUMPDEST PUSH1 0x60 PUSH2 0xD28 DUP3 PUSH20 0xFFFFFFFFFFFFFFFFFFFFFFFFFFFFFFFFFFFFFFFF AND PUSH1 0x14 PUSH1 0xFF AND PUSH2 0xA50 JUMP JUMPDEST SWAP1 POP SWAP2 SWAP1 POP JUMP JUMPDEST PUSH1 0x60 DUP2 PUSH1 0x40 MLOAD PUSH1 0x20 ADD PUSH2 0xD42 SWAP2 SWAP1 PUSH2 0x1AA5 JUMP JUMPDEST PUSH1 0x40 MLOAD PUSH1 0x20 DUP2 DUP4 SUB SUB DUP2 MSTORE SWAP1 PUSH1 0x40 MSTORE SWAP1 POP SWAP2 SWAP1 POP JUMP JUMPDEST PUSH1 0x60 PUSH0 PUSH2 0xD65 DUP7 DUP7 PUSH2 0xC8E JUMP JUMPDEST SWAP1 POP PUSH0 PUSH1 0x40 MLOAD DUP1 PUSH1 0x20 ADD PUSH1 0x40 MSTORE DUP1 PUSH0 DUP2 MSTORE POP SWAP1 POP PUSH0 DUP5 MLOAD GT ISZERO PUSH2 0xDA5 JUMPI DUP4 PUSH1 0x40 MLOAD PUSH1 0x20 ADD PUSH2 0xD93 SWAP2 SWAP1 PUSH2 0x1AD1 JUMP JUMPDEST PUSH1 0x40 MLOAD PUSH1 0x20 DUP2 DUP4 SUB SUB DUP2 MSTORE SWAP1 PUSH1 0x40 MSTORE SWAP1 POP JUMPDEST DUP2 DUP6 DUP3 PUSH1 0x40 MLOAD PUSH1 0x20 ADD PUSH2 0xDBA SWAP4 SWAP3 SWAP2 SWAP1 PUSH2 0x1B86 JUMP JUMPDEST PUSH1 0x40 MLOAD PUSH1 0x20 DUP2 DUP4 SUB SUB DUP2 MSTORE SWAP1 PUSH1 0x40 MSTORE SWAP3 POP POP POP SWAP5 SWAP4 POP POP POP POP JUMP JUMPDEST PUSH1 0x60 PUSH0 PUSH2 0xDE2 DUP7 DUP7 PUSH2 0xC8E JUMP JUMPDEST SWAP1 POP DUP1 DUP5 DUP5 PUSH1 0x40 MLOAD PUSH1 0x20 ADD PUSH2 0xDF9 SWAP4 SWAP3 SWAP2 SWAP1 PUSH2 0x1C60 JUMP JUMPDEST PUSH1 0x40 MLOAD PUSH1 0x20 DUP2 DUP4 SUB SUB DUP2 MSTORE SWAP1 PUSH1 0x40 MSTORE SWAP2 POP POP SWAP5 SWAP4 POP POP POP POP JUMP JUMPDEST PUSH0 DUP1 PUSH0 SWAP1 POP PUSH27 0x184F03E93FF9F4DAA797ED6E38ED64BF6A1F010000000000000000 DUP4 LT PUSH2 0xE6F JUMPI PUSH27 0x184F03E93FF9F4DAA797ED6E38ED64BF6A1F010000000000000000 DUP4 DUP2 PUSH2 0xE65 JUMPI PUSH2 0xE64 PUSH2 0x16A8 JUMP JUMPDEST JUMPDEST DIV SWAP3 POP PUSH1 0x40 DUP2 ADD SWAP1 POP JUMPDEST PUSH14 0x4EE2D6D415B85ACEF8100000000 DUP4 LT PUSH2 0xEAC JUMPI PUSH14 0x4EE2D6D415B85ACEF8100000000 DUP4 DUP2 PUSH2 0xEA2 JUMPI PUSH2 0xEA1 PUSH2 0x16A8 JUMP JUMPDEST JUMPDEST DIV SWAP3 POP PUSH1 0x20 DUP2 ADD SWAP1 POP JUMPDEST PUSH7 0x2386F26FC10000 DUP4 LT PUSH2 0xEDB JUMPI PUSH7 0x2386F26FC10000 DUP4 DUP2 PUSH2 0xED1 JUMPI PUSH2 0xED0 PUSH2 0x16A8 JUMP JUMPDEST JUMPDEST DIV SWAP3 POP PUSH1 0x10 DUP2 ADD SWAP1 POP JUMPDEST PUSH4 0x5F5E100 DUP4 LT PUSH2 0xF04 JUMPI PUSH4 0x5F5E100 DUP4 DUP2 PUSH2 0xEFA JUMPI PUSH2 0xEF9 PUSH2 0x16A8 JUMP JUMPDEST JUMPDEST DIV SWAP3 POP PUSH1 0x8 DUP2 ADD SWAP1 POP JUMPDEST PUSH2 0x2710 DUP4 LT PUSH2 0xF29 JUMPI PUSH2 0x2710 DUP4 DUP2 PUSH2 0xF1F JUMPI PUSH2 0xF1E PUSH2 0x16A8 JUMP JUMPDEST JUMPDEST DIV SWAP3 POP PUSH1 0x4 DUP2 ADD SWAP1 POP JUMPDEST PUSH1 0x64 DUP4 LT PUSH2 0xF4C JUMPI PUSH1 0x64 DUP4 DUP2 PUSH2 0xF42 JUMPI PUSH2 0xF41 PUSH2 0x16A8 JUMP JUMPDEST JUMPDEST DIV SWAP3 POP PUSH1 0x2 DUP2 ADD SWAP1 POP JUMPDEST PUSH1 0xA DUP4 LT PUSH2 0xF5B JUMPI PUSH1 0x1 DUP2 ADD SWAP1 POP JUMPDEST DUP1 SWAP2 POP POP SWAP2 SWAP1 POP JUMP JUMPDEST PUSH0 PUSH1 0x40 MLOAD SWAP1 POP SWAP1 JUMP JUMPDEST PUSH0 DUP1 REVERT JUMPDEST PUSH0 DUP1 REVERT JUMPDEST PUSH0 DUP2 SWAP1 POP SWAP2 SWAP1 POP JUMP JUMPDEST PUSH2 0xF87 DUP2 PUSH2 0xF75 JUMP JUMPDEST DUP2 EQ PUSH2 0xF91 JUMPI PUSH0 DUP1 REVERT JUMPDEST POP JUMP JUMPDEST PUSH0 DUP2 CALLDATALOAD SWAP1 POP PUSH2 0xFA2 DUP2 PUSH2 0xF7E JUMP JUMPDEST SWAP3 SWAP2 POP POP JUMP JUMPDEST PUSH0 PUSH1 0x20 DUP3 DUP5 SUB SLT ISZERO PUSH2 0xFBD JUMPI PUSH2 0xFBC PUSH2 0xF6D JUMP JUMPDEST JUMPDEST PUSH0 PUSH2 0xFCA DUP5 DUP3 DUP6 ADD PUSH2 0xF94 JUMP JUMPDEST SWAP2 POP POP SWAP3 SWAP2 POP POP JUMP JUMPDEST PUSH0 PUSH20 0xFFFFFFFFFFFFFFFFFFFFFFFFFFFFFFFFFFFFFFFF DUP3 AND SWAP1 POP SWAP2 SWAP1 POP JUMP JUMPDEST PUSH0 PUSH2 0xFFC DUP3 PUSH2 0xFD3 JUMP JUMPDEST SWAP1 POP SWAP2 SWAP1 POP JUMP JUMPDEST PUSH2 0x100C DUP2 PUSH2 0xFF2 JUMP JUMPDEST DUP2 EQ PUSH2 0x1016 JUMPI PUSH0 DUP1 REVERT JUMPDEST POP JUMP JUMPDEST PUSH0 DUP2 CALLDATALOAD SWAP1 POP PUSH2 0x1027 DUP2 PUSH2 0x1003 JUMP JUMPDEST SWAP3 SWAP2 POP POP JUMP JUMPDEST PUSH0 DUP1 REVERT JUMPDEST PUSH0 DUP1 REVERT JUMPDEST PUSH0 PUSH1 0x1F NOT PUSH1 0x1F DUP4 ADD AND SWAP1 POP SWAP2 SWAP1 POP JUMP JUMPDEST PUSH32 0x4E487B7100000000000000000000000000000000000000000000000000000000 PUSH0 MSTORE PUSH1 0x41 PUSH1 0x4 MSTORE PUSH1 0x24 PUSH0 REVERT JUMPDEST PUSH2 0x107B DUP3 PUSH2 0x1035 JUMP JUMPDEST DUP2 ADD DUP2 DUP2 LT PUSH8 0xFFFFFFFFFFFFFFFF DUP3 GT OR ISZERO PUSH2 0x109A JUMPI PUSH2 0x1099 PUSH2 0x1045 JUMP JUMPDEST JUMPDEST DUP1 PUSH1 0x40 MSTORE POP POP POP JUMP JUMPDEST PUSH0 PUSH2 0x10AC PUSH2 0xF64 JUMP JUMPDEST SWAP1 POP PUSH2 0x10B8 DUP3 DUP3 PUSH2 0x1072 JUMP JUMPDEST SWAP2 SWAP1 POP JUMP JUMPDEST PUSH0 PUSH8 0xFFFFFFFFFFFFFFFF DUP3 GT ISZERO PUSH2 0x10D7 JUMPI PUSH2 0x10D6 PUSH2 0x1045 JUMP JUMPDEST JUMPDEST PUSH2 0x10E0 DUP3 PUSH2 0x1035 JUMP JUMPDEST SWAP1 POP PUSH1 0x20 DUP2 ADD SWAP1 POP SWAP2 SWAP1 POP JUMP JUMPDEST DUP3 DUP2 DUP4 CALLDATACOPY PUSH0 DUP4 DUP4 ADD MSTORE POP POP POP JUMP JUMPDEST PUSH0 PUSH2 0x110D PUSH2 0x1108 DUP5 PUSH2 0x10BD JUMP JUMPDEST PUSH2 0x10A3 JUMP JUMPDEST SWAP1 POP DUP3 DUP2 MSTORE PUSH1 0x20 DUP2 ADD DUP5 DUP5 DUP5 ADD GT ISZERO PUSH2 0x1129 JUMPI PUSH2 0x1128 PUSH2 0x1031 JUMP JUMPDEST JUMPDEST PUSH2 0x1134 DUP5 DUP3 DUP6 PUSH2 0x10ED JUMP JUMPDEST POP SWAP4 SWAP3 POP POP POP JUMP JUMPDEST PUSH0 DUP3 PUSH1 0x1F DUP4 ADD SLT PUSH2 0x1150 JUMPI PUSH2 0x114F PUSH2 0x102D JUMP JUMPDEST JUMPDEST DUP2 CALLDATALOAD PUSH2 0x1160 DUP5 DUP3 PUSH1 0x20 DUP7 ADD PUSH2 0x10FB JUMP JUMPDEST SWAP2 POP POP SWAP3 SWAP2 POP POP JUMP JUMPDEST PUSH0 DUP1 PUSH0 DUP1 PUSH1 0x80 DUP6 DUP8 SUB SLT ISZERO PUSH2 0x1181 JUMPI PUSH2 0x1180 PUSH2 0xF6D JUMP JUMPDEST JUMPDEST PUSH0 PUSH2 0x118E DUP8 DUP3 DUP9 ADD PUSH2 0x1019 JUMP JUMPDEST SWAP5 POP POP PUSH1 0x20 PUSH2 0x119F DUP8 DUP3 DUP9 ADD PUSH2 0x1019 JUMP JUMPDEST SWAP4 POP POP PUSH1 0x40 PUSH2 0x11B0 DUP8 DUP3 DUP9 ADD PUSH2 0xF94 JUMP JUMPDEST SWAP3 POP POP PUSH1 0x60 DUP6 ADD CALLDATALOAD PUSH8 0xFFFFFFFFFFFFFFFF DUP2 GT ISZERO PUSH2 0x11D1 JUMPI PUSH2 0x11D0 PUSH2 0xF71 JUMP JUMPDEST JUMPDEST PUSH2 0x11DD DUP8 DUP3 DUP9 ADD PUSH2 0x113C JUMP JUMPDEST SWAP2 POP POP SWAP3 SWAP6 SWAP2 SWAP5 POP SWAP3 POP JUMP JUMPDEST PUSH0 PUSH32 0xFFFFFFFF00000000000000000000000000000000000000000000000000000000 DUP3 AND SWAP1 POP SWAP2 SWAP1 POP JUMP JUMPDEST PUSH2 0x121D DUP2 PUSH2 0x11E9 JUMP JUMPDEST DUP3 MSTORE POP POP JUMP JUMPDEST PUSH0 PUSH1 0x20 DUP3 ADD SWAP1 POP PUSH2 0x1236 PUSH0 DUP4 ADD DUP5 PUSH2 0x1214 JUMP JUMPDEST SWAP3 SWAP2 POP POP JUMP JUMPDEST PUSH0 PUSH1 0x20 DUP3 DUP5 SUB SLT ISZERO PUSH2 0x1251 JUMPI PUSH2 0x1250 PUSH2 0xF6D JUMP JUMPDEST JUMPDEST PUSH0 PUSH2 0x125E DUP5 DUP3 DUP6 ADD PUSH2 0x1019 JUMP JUMPDEST SWAP2 POP POP SWAP3 SWAP2 POP POP JUMP JUMPDEST PUSH0 DUP2 MLOAD SWAP1 POP SWAP2 SWAP1 POP JUMP JUMPDEST PUSH0 DUP3 DUP3 MSTORE PUSH1 0x20 DUP3 ADD SWAP1 POP SWAP3 SWAP2 POP POP JUMP JUMPDEST PUSH0 JUMPDEST DUP4 DUP2 LT ISZERO PUSH2 0x129E JUMPI DUP1 DUP3 ADD MLOAD DUP2 DUP5 ADD MSTORE PUSH1 0x20 DUP2 ADD SWAP1 POP PUSH2 0x1283 JUMP JUMPDEST PUSH0 DUP5 DUP5 ADD MSTORE POP POP POP POP JUMP JUMPDEST PUSH0 PUSH2 0x12B3 DUP3 PUSH2 0x1267 JUMP JUMPDEST PUSH2 0x12BD DUP2 DUP6 PUSH2 0x1271 JUMP JUMPDEST SWAP4 POP PUSH2 0x12CD DUP2 DUP6 PUSH1 0x20 DUP7 ADD PUSH2 0x1281 JUMP JUMPDEST PUSH2 0x12D6 DUP2 PUSH2 0x1035 JUMP JUMPDEST DUP5 ADD SWAP2 POP POP SWAP3 SWAP2 POP POP JUMP JUMPDEST PUSH0 PUSH1 0x20 DUP3 ADD SWAP1 POP DUP2 DUP2 SUB PUSH0 DUP4 ADD MSTORE PUSH2 0x12F9 DUP2 DUP5 PUSH2 0x12A9 JUMP JUMPDEST SWAP1 POP SWAP3 SWAP2 POP POP JUMP JUMPDEST PUSH2 0x130A DUP2 PUSH2 0xF75 JUMP JUMPDEST DUP3 MSTORE POP POP JUMP JUMPDEST PUSH0 PUSH1 0x20 DUP3 ADD SWAP1 POP PUSH2 0x1323 PUSH0 DUP4 ADD DUP5 PUSH2 0x1301 JUMP JUMPDEST SWAP3 SWAP2 POP POP JUMP JUMPDEST PUSH0 DUP1 PUSH1 0x40 DUP4 DUP6 SUB SLT ISZERO PUSH2 0x133F JUMPI PUSH2 0x133E PUSH2 0xF6D JUMP JUMPDEST JUMPDEST PUSH0 PUSH2 0x134C DUP6 DUP3 DUP7 ADD PUSH2 0xF94 JUMP JUMPDEST SWAP3 POP POP PUSH1 0x20 PUSH2 0x135D DUP6 DUP3 DUP7 ADD PUSH2 0x1019 JUMP JUMPDEST SWAP2 POP POP SWAP3 POP SWAP3 SWAP1 POP JUMP JUMPDEST PUSH0 DUP1 PUSH0 DUP1 PUSH1 0x80 DUP6 DUP8 SUB SLT ISZERO PUSH2 0x137F JUMPI PUSH2 0x137E PUSH2 0xF6D JUMP JUMPDEST JUMPDEST PUSH0 PUSH2 0x138C DUP8 DUP3 DUP9 ADD PUSH2 0x1019 JUMP JUMPDEST SWAP5 POP POP PUSH1 0x20 PUSH2 0x139D DUP8 DUP3 DUP9 ADD PUSH2 0x1019 JUMP JUMPDEST SWAP4 POP POP PUSH1 0x40 PUSH2 0x13AE DUP8 DUP3 DUP9 ADD PUSH2 0xF94 JUMP JUMPDEST SWAP3 POP POP PUSH1 0x60 PUSH2 0x13BF DUP8 DUP3 DUP9 ADD PUSH2 0xF94 JUMP JUMPDEST SWAP2 POP POP SWAP3 SWAP6 SWAP2 SWAP5 POP SWAP3 POP JUMP JUMPDEST PUSH32 0x69643D0000000000000000000000000000000000000000000000000000000000 DUP2 MSTORE POP JUMP JUMPDEST PUSH0 DUP2 SWAP1 POP SWAP3 SWAP2 POP POP JUMP JUMPDEST PUSH0 PUSH2 0x1405 DUP3 PUSH2 0x1267 JUMP JUMPDEST PUSH2 0x140F DUP2 DUP6 PUSH2 0x13F1 JUMP JUMPDEST SWAP4 POP PUSH2 0x141F DUP2 DUP6 PUSH1 0x20 DUP7 ADD PUSH2 0x1281 JUMP JUMPDEST DUP1 DUP5 ADD SWAP2 POP POP SWAP3 SWAP2 POP POP JUMP JUMPDEST PUSH0 PUSH2 0x1435 DUP3 PUSH2 0x13CB JUMP JUMPDEST PUSH1 0x3 DUP3 ADD SWAP2 POP PUSH2 0x1445 DUP3 DUP5 PUSH2 0x13FB JUMP JUMPDEST SWAP2 POP DUP2 SWAP1 POP SWAP3 SWAP2 POP POP JUMP JUMPDEST PUSH2 0x1459 DUP2 PUSH2 0xFF2 JUMP JUMPDEST DUP3 MSTORE POP POP JUMP JUMPDEST PUSH0 PUSH1 0x60 DUP3 ADD SWAP1 POP PUSH2 0x1472 PUSH0 DUP4 ADD DUP7 PUSH2 0x1450 JUMP JUMPDEST PUSH2 0x147F PUSH1 0x20 DUP4 ADD DUP6 PUSH2 0x1301 JUMP JUMPDEST DUP2 DUP2 SUB PUSH1 0x40 DUP4 ADD MSTORE PUSH2 0x1491 DUP2 DUP5 PUSH2 0x12A9 JUMP JUMPDEST SWAP1 POP SWAP5 SWAP4 POP POP POP POP JUMP JUMPDEST PUSH0 PUSH1 0x60 DUP3 ADD SWAP1 POP PUSH2 0x14AE PUSH0 DUP4 ADD DUP7 PUSH2 0x1450 JUMP JUMPDEST PUSH2 0x14BB PUSH1 0x20 DUP4 ADD DUP6 PUSH2 0x1301 JUMP JUMPDEST PUSH2 0x14C8 PUSH1 0x40 DUP4 ADD DUP5 PUSH2 0x1450 JUMP JUMPDEST SWAP5 SWAP4 POP POP POP POP JUMP JUMPDEST PUSH0 PUSH1 0x40 DUP3 ADD SWAP1 POP PUSH2 0x14E3 PUSH0 DUP4 ADD DUP6 PUSH2 0x1450 JUMP JUMPDEST DUP2 DUP2 SUB PUSH1 0x20 DUP4 ADD MSTORE PUSH2 0x14F5 DUP2 DUP5 PUSH2 0x12A9 JUMP JUMPDEST SWAP1 POP SWAP4 SWAP3 POP POP POP JUMP JUMPDEST PUSH0 DUP2 MLOAD SWAP1 POP PUSH2 0x150C DUP2 PUSH2 0xF7E JUMP JUMPDEST SWAP3 SWAP2 POP POP JUMP JUMPDEST PUSH0 PUSH1 0x20 DUP3 DUP5 SUB SLT ISZERO PUSH2 0x1527 JUMPI PUSH2 0x1526 PUSH2 0xF6D JUMP JUMPDEST JUMPDEST PUSH0 PUSH2 0x1534 DUP5 DUP3 DUP6 ADD PUSH2 0x14FE JUMP JUMPDEST SWAP2 POP POP SWAP3 SWAP2 POP POP JUMP JUMPDEST PUSH32 0x67726F757049643D000000000000000000000000000000000000000000000000 DUP2 MSTORE POP JUMP JUMPDEST PUSH0 PUSH2 0x156D DUP3 PUSH2 0x153D JUMP JUMPDEST PUSH1 0x8 DUP3 ADD SWAP2 POP PUSH2 0x157D DUP3 DUP5 PUSH2 0x13FB JUMP JUMPDEST SWAP2 POP DUP2 SWAP1 POP SWAP3 SWAP2 POP POP JUMP JUMPDEST PUSH32 0x4E487B7100000000000000000000000000000000000000000000000000000000 PUSH0 MSTORE PUSH1 0x11 PUSH1 0x4 MSTORE PUSH1 0x24 PUSH0 REVERT JUMPDEST PUSH0 PUSH2 0x15BF DUP3 PUSH2 0xF75 JUMP JUMPDEST SWAP2 POP PUSH32 0xFFFFFFFFFFFFFFFFFFFFFFFFFFFFFFFFFFFFFFFFFFFFFFFFFFFFFFFFFFFFFFFF DUP3 SUB PUSH2 0x15F1 JUMPI PUSH2 0x15F0 PUSH2 0x1588 JUMP JUMPDEST JUMPDEST PUSH1 0x1 DUP3 ADD SWAP1 POP SWAP2 SWAP1 POP JUMP JUMPDEST PUSH32 0x2C00000000000000000000000000000000000000000000000000000000000000 DUP2 MSTORE POP JUMP JUMPDEST PUSH0 PUSH2 0x162D DUP3 DUP9 PUSH2 0x13FB JUMP JUMPDEST SWAP2 POP PUSH2 0x1638 DUP3 PUSH2 0x15FC JUMP JUMPDEST PUSH1 0x1 DUP3 ADD SWAP2 POP PUSH2 0x1648 DUP3 DUP8 PUSH2 0x13FB JUMP JUMPDEST SWAP2 POP PUSH2 0x1653 DUP3 PUSH2 0x15FC JUMP JUMPDEST PUSH1 0x1 DUP3 ADD SWAP2 POP PUSH2 0x1663 DUP3 DUP7 PUSH2 0x13FB JUMP JUMPDEST SWAP2 POP PUSH2 0x166E DUP3 PUSH2 0x15FC JUMP JUMPDEST PUSH1 0x1 DUP3 ADD SWAP2 POP PUSH2 0x167E DUP3 DUP6 PUSH2 0x13FB JUMP JUMPDEST SWAP2 POP PUSH2 0x1689 DUP3 PUSH2 0x15FC JUMP JUMPDEST PUSH1 0x1 DUP3 ADD SWAP2 POP PUSH2 0x1699 DUP3 DUP5 PUSH2 0x13FB JUMP JUMPDEST SWAP2 POP DUP2 SWAP1 POP SWAP7 SWAP6 POP POP POP POP POP POP JUMP JUMPDEST PUSH32 0x4E487B7100000000000000000000000000000000000000000000000000000000 PUSH0 MSTORE PUSH1 0x12 PUSH1 0x4 MSTORE PUSH1 0x24 PUSH0 REVERT JUMPDEST PUSH32 0x44454C4554452046524F4D200000000000000000000000000000000000000000 PUSH0 DUP3 ADD MSTORE POP JUMP JUMPDEST PUSH0 PUSH2 0x1709 PUSH1 0xC DUP4 PUSH2 0x13F1 JUMP JUMPDEST SWAP2 POP PUSH2 0x1714 DUP3 PUSH2 0x16D5 JUMP JUMPDEST PUSH1 0xC DUP3 ADD SWAP1 POP SWAP2 SWAP1 POP JUMP JUMPDEST PUSH32 0x2057484552452000000000000000000000000000000000000000000000000000 PUSH0 DUP3 ADD MSTORE POP JUMP JUMPDEST PUSH0 PUSH2 0x1753 PUSH1 0x7 DUP4 PUSH2 0x13F1 JUMP JUMPDEST SWAP2 POP PUSH2 0x175E DUP3 PUSH2 0x171F JUMP JUMPDEST PUSH1 0x7 DUP3 ADD SWAP1 POP SWAP2 SWAP1 POP JUMP JUMPDEST PUSH0 PUSH2 0x1773 DUP3 PUSH2 0x16FD JUMP JUMPDEST SWAP2 POP PUSH2 0x177F DUP3 DUP6 PUSH2 0x13FB JUMP JUMPDEST SWAP2 POP PUSH2 0x178A DUP3 PUSH2 0x1747 JUMP JUMPDEST SWAP2 POP PUSH2 0x1796 DUP3 DUP5 PUSH2 0x13FB JUMP JUMPDEST SWAP2 POP DUP2 SWAP1 POP SWAP4 SWAP3 POP POP POP JUMP JUMPDEST PUSH0 PUSH2 0x17AC DUP3 PUSH2 0xF75 JUMP JUMPDEST SWAP2 POP PUSH2 0x17B7 DUP4 PUSH2 0xF75 JUMP JUMPDEST SWAP3 POP DUP3 DUP3 MUL PUSH2 0x17C5 DUP2 PUSH2 0xF75 JUMP JUMPDEST SWAP2 POP DUP3 DUP3 DIV DUP5 EQ DUP4 ISZERO OR PUSH2 0x17DC JUMPI PUSH2 0x17DB PUSH2 0x1588 JUMP JUMPDEST JUMPDEST POP SWAP3 SWAP2 POP POP JUMP JUMPDEST PUSH0 PUSH2 0x17ED DUP3 PUSH2 0xF75 JUMP JUMPDEST SWAP2 POP PUSH2 0x17F8 DUP4 PUSH2 0xF75 JUMP JUMPDEST SWAP3 POP DUP3 DUP3 ADD SWAP1 POP DUP1 DUP3 GT ISZERO PUSH2 0x1810 JUMPI PUSH2 0x180F PUSH2 0x1588 JUMP JUMPDEST JUMPDEST SWAP3 SWAP2 POP POP JUMP JUMPDEST PUSH32 0x4E487B7100000000000000000000000000000000000000000000000000000000 PUSH0 MSTORE PUSH1 0x32 PUSH1 0x4 MSTORE PUSH1 0x24 PUSH0 REVERT JUMPDEST PUSH0 PUSH2 0x184D DUP3 PUSH2 0xF75 JUMP JUMPDEST SWAP2 POP PUSH0 DUP3 SUB PUSH2 0x185F JUMPI PUSH2 0x185E PUSH2 0x1588 JUMP JUMPDEST JUMPDEST PUSH1 0x1 DUP3 SUB SWAP1 POP SWAP2 SWAP1 POP JUMP JUMPDEST PUSH0 PUSH1 0x40 DUP3 ADD SWAP1 POP PUSH2 0x187D PUSH0 DUP4 ADD DUP6 PUSH2 0x1301 JUMP JUMPDEST PUSH2 0x188A PUSH1 0x20 DUP4 ADD DUP5 PUSH2 0x1301 JUMP JUMPDEST SWAP4 SWAP3 POP POP POP JUMP JUMPDEST PUSH32 0x5F00000000000000000000000000000000000000000000000000000000000000 PUSH0 DUP3 ADD MSTORE POP JUMP JUMPDEST PUSH0 PUSH2 0x18C5 PUSH1 0x1 DUP4 PUSH2 0x13F1 JUMP JUMPDEST SWAP2 POP PUSH2 0x18D0 DUP3 PUSH2 0x1891 JUMP JUMPDEST PUSH1 0x1 DUP3 ADD SWAP1 POP SWAP2 SWAP1 POP JUMP JUMPDEST PUSH0 PUSH2 0x18E6 DUP3 DUP7 PUSH2 0x13FB JUMP JUMPDEST SWAP2 POP PUSH2 0x18F1 DUP3 PUSH2 0x18B9 JUMP JUMPDEST SWAP2 POP PUSH2 0x18FD DUP3 DUP6 PUSH2 0x13FB JUMP JUMPDEST SWAP2 POP PUSH2 0x1908 DUP3 PUSH2 0x18B9 JUMP JUMPDEST SWAP2 POP PUSH2 0x1914 DUP3 DUP5 PUSH2 0x13FB JUMP JUMPDEST SWAP2 POP DUP2 SWAP1 POP SWAP5 SWAP4 POP POP POP POP JUMP JUMPDEST PUSH32 0x435245415445205441424C452000000000000000000000000000000000000000 PUSH0 DUP3 ADD MSTORE POP JUMP JUMPDEST PUSH0 PUSH2 0x1955 PUSH1 0xD DUP4 PUSH2 0x13F1 JUMP JUMPDEST SWAP2 POP PUSH2 0x1960 DUP3 PUSH2 0x1921 JUMP JUMPDEST PUSH1 0xD DUP3 ADD SWAP1 POP SWAP2 SWAP1 POP JUMP JUMPDEST PUSH32 0x2800000000000000000000000000000000000000000000000000000000000000 PUSH0 DUP3 ADD MSTORE POP JUMP JUMPDEST PUSH0 PUSH2 0x199F PUSH1 0x1 DUP4 PUSH2 0x13F1 JUMP JUMPDEST SWAP2 POP PUSH2 0x19AA DUP3 PUSH2 0x196B JUMP JUMPDEST PUSH1 0x1 DUP3 ADD SWAP1 POP SWAP2 SWAP1 POP JUMP JUMPDEST PUSH32 0x2900000000000000000000000000000000000000000000000000000000000000 PUSH0 DUP3 ADD MSTORE POP JUMP JUMPDEST PUSH0 PUSH2 0x19E9 PUSH1 0x1 DUP4 PUSH2 0x13F1 JUMP JUMPDEST SWAP2 POP PUSH2 0x19F4 DUP3 PUSH2 0x19B5 JUMP JUMPDEST PUSH1 0x1 DUP3 ADD SWAP1 POP SWAP2 SWAP1 POP JUMP JUMPDEST PUSH0 PUSH2 0x1A09 DUP3 PUSH2 0x1949 JUMP JUMPDEST SWAP2 POP PUSH2 0x1A15 DUP3 DUP7 PUSH2 0x13FB JUMP JUMPDEST SWAP2 POP PUSH2 0x1A20 DUP3 PUSH2 0x18B9 JUMP JUMPDEST SWAP2 POP PUSH2 0x1A2C DUP3 DUP6 PUSH2 0x13FB JUMP JUMPDEST SWAP2 POP PUSH2 0x1A37 DUP3 PUSH2 0x1993 JUMP JUMPDEST SWAP2 POP PUSH2 0x1A43 DUP3 DUP5 PUSH2 0x13FB JUMP JUMPDEST SWAP2 POP PUSH2 0x1A4E DUP3 PUSH2 0x19DD JUMP JUMPDEST SWAP2 POP DUP2 SWAP1 POP SWAP5 SWAP4 POP POP POP POP JUMP JUMPDEST PUSH32 0x2700000000000000000000000000000000000000000000000000000000000000 PUSH0 DUP3 ADD MSTORE POP JUMP JUMPDEST PUSH0 PUSH2 0x1A8F PUSH1 0x1 DUP4 PUSH2 0x13F1 JUMP JUMPDEST SWAP2 POP PUSH2 0x1A9A DUP3 PUSH2 0x1A5B JUMP JUMPDEST PUSH1 0x1 DUP3 ADD SWAP1 POP SWAP2 SWAP1 POP JUMP JUMPDEST PUSH0 PUSH2 0x1AAF DUP3 PUSH2 0x1A83 JUMP JUMPDEST SWAP2 POP PUSH2 0x1ABB DUP3 DUP5 PUSH2 0x13FB JUMP JUMPDEST SWAP2 POP PUSH2 0x1AC6 DUP3 PUSH2 0x1A83 JUMP JUMPDEST SWAP2 POP DUP2 SWAP1 POP SWAP3 SWAP2 POP POP JUMP JUMPDEST PUSH0 PUSH2 0x1ADB DUP3 PUSH2 0x1747 JUMP JUMPDEST SWAP2 POP PUSH2 0x1AE7 DUP3 DUP5 PUSH2 0x13FB JUMP JUMPDEST SWAP2 POP DUP2 SWAP1 POP SWAP3 SWAP2 POP POP JUMP JUMPDEST PUSH32 0x5550444154452000000000000000000000000000000000000000000000000000 PUSH0 DUP3 ADD MSTORE POP JUMP JUMPDEST PUSH0 PUSH2 0x1B26 PUSH1 0x7 DUP4 PUSH2 0x13F1 JUMP JUMPDEST SWAP2 POP PUSH2 0x1B31 DUP3 PUSH2 0x1AF2 JUMP JUMPDEST PUSH1 0x7 DUP3 ADD SWAP1 POP SWAP2 SWAP1 POP JUMP JUMPDEST PUSH32 0x2053455420000000000000000000000000000000000000000000000000000000 PUSH0 DUP3 ADD MSTORE POP JUMP JUMPDEST PUSH0 PUSH2 0x1B70 PUSH1 0x5 DUP4 PUSH2 0x13F1 JUMP JUMPDEST SWAP2 POP PUSH2 0x1B7B DUP3 PUSH2 0x1B3C JUMP JUMPDEST PUSH1 0x5 DUP3 ADD SWAP1 POP SWAP2 SWAP1 POP JUMP JUMPDEST PUSH0 PUSH2 0x1B90 DUP3 PUSH2 0x1B1A JUMP JUMPDEST SWAP2 POP PUSH2 0x1B9C DUP3 DUP7 PUSH2 0x13FB JUMP JUMPDEST SWAP2 POP PUSH2 0x1BA7 DUP3 PUSH2 0x1B64 JUMP JUMPDEST SWAP2 POP PUSH2 0x1BB3 DUP3 DUP6 PUSH2 0x13FB JUMP JUMPDEST SWAP2 POP PUSH2 0x1BBF DUP3 DUP5 PUSH2 0x13FB JUMP JUMPDEST SWAP2 POP DUP2 SWAP1 POP SWAP5 SWAP4 POP POP POP POP JUMP JUMPDEST PUSH32 0x494E5345525420494E544F200000000000000000000000000000000000000000 PUSH0 DUP3 ADD MSTORE POP JUMP JUMPDEST PUSH0 PUSH2 0x1C00 PUSH1 0xC DUP4 PUSH2 0x13F1 JUMP JUMPDEST SWAP2 POP PUSH2 0x1C0B DUP3 PUSH2 0x1BCC JUMP JUMPDEST PUSH1 0xC DUP3 ADD SWAP1 POP SWAP2 SWAP1 POP JUMP JUMPDEST PUSH32 0x2956414C55455328000000000000000000000000000000000000000000000000 PUSH0 DUP3 ADD MSTORE POP JUMP JUMPDEST PUSH0 PUSH2 0x1C4A PUSH1 0x8 DUP4 PUSH2 0x13F1 JUMP JUMPDEST SWAP2 POP PUSH2 0x1C55 DUP3 PUSH2 0x1C16 JUMP JUMPDEST PUSH1 0x8 DUP3 ADD SWAP1 POP SWAP2 SWAP1 POP JUMP JUMPDEST PUSH0 PUSH2 0x1C6A DUP3 PUSH2 0x1BF4 JUMP JUMPDEST SWAP2 POP PUSH2 0x1C76 DUP3 DUP7 PUSH2 0x13FB JUMP JUMPDEST SWAP2 POP PUSH2 0x1C81 DUP3 PUSH2 0x1993 JUMP JUMPDEST SWAP2 POP PUSH2 0x1C8D DUP3 DUP6 PUSH2 0x13FB JUMP JUMPDEST SWAP2 POP PUSH2 0x1C98 DUP3 PUSH2 0x1C3E JUMP JUMPDEST SWAP2 POP PUSH2 0x1CA4 DUP3 DUP5 PUSH2 0x13FB JUMP JUMPDEST SWAP2 POP PUSH2 0x1CAF DUP3 PUSH2 0x19DD JUMP JUMPDEST SWAP2 POP DUP2 SWAP1 POP SWAP5 SWAP4 POP POP POP POP JUMP INVALID PUSH10 0x642C2067726F75704964 0x2C KECCAK256 PUSH2 0x6464 PUSH19 0x6573732C20616D6F756E742C20726F756E6449 PUSH5 0x696420696E PUSH21 0x65676572207072696D617279206B65792C61646472 PUSH6 0x737320746578 PUSH21 0x2C67726F7570496420746578742C616D6F756E7420 PUSH10 0x6E74656765722C726F75 PUSH15 0x64496420696E7465676572A2646970 PUSH7 0x735822122085F5 0xEC DUP2 DUP14 DUP2 0xB2 PUSH28 0xB161FB3857515D3EB6CFF4997C6567A398CC89A8C74B00D64736F6C PUSH4 0x43000814 STOP CALLER "
				},
				"gasEstimates": {
					"creation": {
						"codeDepositCost": "1505200",
						"executionCost": "6578",
						"totalCost": "1511778"
					},
					"external": {
						"createTable()": "infinite",
						"deleteFromTable(uint256)": "infinite",
						"getAddressString(address)": "infinite",
						"getTableId()": "2454",
						"getTableName()": "infinite",
						"insertIntoTable(address,address,uint256,uint256)": "infinite",
						"onERC721Received(address,address,uint256,bytes)": "infinite",
						"setAccessControl(address)": "infinite",
						"updateTable(uint256,address)": "infinite"
					}
				},
				"methodIdentifiers": {
					"createTable()": "b2a4c897",
					"deleteFromTable(uint256)": "04bfc47f",
					"getAddressString(address)": "3e295859",
					"getTableId()": "88e4f1cb",
					"getTableName()": "5d5a33a2",
					"insertIntoTable(address,address,uint256,uint256)": "f8ae673b",
					"onERC721Received(address,address,uint256,bytes)": "150b7a02",
					"setAccessControl(address)": "19129e5a",
					"updateTable(uint256,address)": "e86492b1"
				}
			},
			"storageLayout": {
				"storage": [
					{
						"astId": 2250,
						"contract": "contracts/base/tableland/ContributionStorage.sol:SusuContributionStorage",
						"label": "_tableId",
						"offset": 0,
						"slot": "0",
						"type": "t_uint256"
					},
					{
						"astId": 2253,
						"contract": "contracts/base/tableland/ContributionStorage.sol:SusuContributionStorage",
						"label": "primaryKey",
						"offset": 0,
						"slot": "1",
						"type": "t_uint256"
					}
				],
				"types": {
					"t_uint256": {
						"encoding": "inplace",
						"label": "uint256",
						"numberOfBytes": "32"
					}
				}
			},
			"userdoc": {
				"errors": {
					"ChainNotSupported(uint256)": [
						{
							"notice": "Current chain does not have a TablelandTables deployment."
						}
					]
				},
				"kind": "user",
				"methods": {},
				"version": 1
			}
		}
	}
}