{
	"data": {
		"bytecode": {
			"linkReferences": {},
			"object": "60806040525f600155348015610013575f80fd5b50611d12806100215f395ff3fe608060405260043610610085575f3560e01c80633e295859116100585780633e2958591461013d5780635d5a33a21461017957806388e4f1cb146101a3578063b2a4c897146101cd578063e86492b1146101d757610085565b806304bfc47f14610089578063150b7a02146100b157806319129e5a146100ed5780631e2dd19914610115575b5f80fd5b348015610094575f80fd5b506100af60048036038101906100aa9190610fba565b6101ff565b005b3480156100bc575f80fd5b506100d760048036038101906100d2919061117b565b6102e0565b6040516100e49190611235565b60405180910390f35b3480156100f8575f80fd5b50610113600480360381019061010e919061124e565b6102f3565b005b348015610120575f80fd5b5061013b60048036038101906101369190611279565b610368565b005b348015610148575f80fd5b50610163600480360381019061015e919061124e565b6104c9565b6040516101709190611343565b60405180910390f35b348015610184575f80fd5b5061018d6104f3565b60405161019a9190611343565b60405180910390f35b3480156101ae575f80fd5b506101b761053a565b6040516101c49190611372565b60405180910390f35b6101d5610542565b005b3480156101e2575f80fd5b506101fd60048036038101906101f8919061138b565b610621565b005b5f61020982610738565b6040516020016102199190611429565b6040516020818303038152906040529050610232610802565b73ffffffffffffffffffffffffffffffffffffffff1663377af0da305f546102916040518060400160405280601281526020017f737573755f77616c6c6574735f7461626c6500000000000000000000000000008152505f5487610a27565b6040518463ffffffff1660e01b81526004016102af9392919061145d565b5f604051808303815f87803b1580156102c6575f80fd5b505af11580156102d8573d5f803e3d5ffd5b505050505050565b5f63150b7a0260e01b9050949350505050565b6102fb610802565b73ffffffffffffffffffffffffffffffffffffffff16638bb0ab97305f54846040518463ffffffff1660e01b815260040161033893929190611499565b5f604051808303815f87803b15801561034f575f80fd5b505af1158015610361573d5f803e3d5ffd5b5050505050565b5f61037283610a62565b90505f61037e85610a62565b9050610388610802565b73ffffffffffffffffffffffffffffffffffffffff1663377af0da305f546104776040518060400160405280601281526020017f737573755f77616c6c6574735f7461626c6500000000000000000000000000008152505f546040518060400160405280601d81526020017f69642c2067726f757049642c20616464726573732c20726f756e64496400000081525061043560015f81548092919061042c906114fb565b91905055610738565b61043e8a610a8f565b6104478c610a8f565b6104508e610738565b6040516020016104639493929190611568565b604051602081830303815290604052610ab8565b6040518463ffffffff1660e01b81526004016104959392919061145d565b5f604051808303815f87803b1580156104ac575f80fd5b505af11580156104be573d5f803e3d5ffd5b505050505050505050565b60606104ec8273ffffffffffffffffffffffffffffffffffffffff166014610af6565b9050919050565b60606105356040518060400160405280601281526020017f737573755f77616c6c6574735f7461626c6500000000000000000000000000008152505f54610d34565b905090565b5f8054905090565b61054a610802565b73ffffffffffffffffffffffffffffffffffffffff1663a15ab08d306105bd6040518060600160405280603e8152602001611c9f603e91396040518060400160405280601281526020017f737573755f77616c6c6574735f7461626c650000000000000000000000000000815250610d72565b6040518363ffffffff1660e01b81526004016105da9291906115d2565b6020604051808303815f875af11580156105f6573d5f803e3d5ffd5b505050506040513d601f19601f8201168201806040525081019061061a9190611614565b5f81905550565b5f61063361062e83610a62565b610a8f565b6040516020016106439190611665565b60405160208183030381529060405290505f61065e84610738565b60405160200161066e9190611429565b6040516020818303038152906040529050610687610802565b73ffffffffffffffffffffffffffffffffffffffff1663377af0da305f546106e76040518060400160405280601281526020017f737573755f77616c6c6574735f7461626c6500000000000000000000000000008152505f548888610da8565b6040518463ffffffff1660e01b81526004016107059392919061145d565b5f604051808303815f87803b15801561071c575f80fd5b505af115801561072e573d5f803e3d5ffd5b5050505050505050565b60605f600161074684610e25565b0190505f8167ffffffffffffffff81111561076457610763611057565b5b6040519080825280601f01601f1916602001820160405280156107965781602001600182028036833780820191505090505b5090505f82602001820190505b6001156107f7578080600190039150507f3031323334353637383961626364656600000000000000000000000000000000600a86061a8153600a85816107ec576107eb61168a565b5b0494505f85036107a3575b819350505050919050565b5f600146036108275773012969f7e3439a9b04025b5a049eb9bad82a8c129050610a24565b600a460361084b5773fad44bf5b843de943a09d4f3e84949a11d3aa3e69050610a24565b61a4b1460361087057739abd75e8640871a5a20d3b4ee6330a04c962affd9050610a24565b61a4ba460361089557731a22854c5b1642760a827f20137a67930ae108d29050610a24565b608946036108b957735c4e6a9e5c1e1bf445a062006faf19ea6c49afea9050610a24565b61013a46036108de577359ef8bf2d6c102b4c42aef9189e1a9f0abfd652d9050610a24565b62aa36a746036109045773c50c62498448acc8dbde43da77f8d5d2e2c7597d9050610a24565b62aa37dc460361092a577368a2f4423ad3bf5139db563cf3bc80aa09ed70799050610a24565b62066eee46036109505773223a74b8323914afdc3ff1e5005564dc17231d6e9050610a24565b62014a3446036109765773a85aae9f0aec5f5638e5f13840797303ab29c9f99050610a24565b62013882460361099c5773170fb206132b693e38adfc8727dcfa303546cec19050610a24565b6204cb2f46036109c25773030bcf3d50cad04c2e57391b12740982a93086219050610a24565b617a6946036109e75773e7f1725e7734ce288f8367e1bb143e90bb3f05129050610a24565b466040517f264e42cf000000000000000000000000000000000000000000000000000000008152600401610a1b9190611372565b60405180910390fd5b90565b60605f610a348585610d34565b90508083604051602001610a4992919061174b565b6040516020818303038152906040529150509392505050565b6060610a888273ffffffffffffffffffffffffffffffffffffffff16601460ff16610af6565b9050919050565b606081604051602001610aa291906117ce565b6040516020818303038152906040529050919050565b60605f610ac58686610d34565b9050808484604051602001610adc93929190611922565b604051602081830303815290604052915050949350505050565b60605f8390505f6002846002610b0c919061197e565b610b1691906119bf565b67ffffffffffffffff811115610b2f57610b2e611057565b5b6040519080825280601f01601f191660200182016040528015610b615781602001600182028036833780820191505090505b5090507f3000000000000000000000000000000000000000000000000000000000000000815f81518110610b9857610b976119f2565b5b60200101907effffffffffffffffffffffffffffffffffffffffffffffffffffffffffffff191690815f1a9053507f780000000000000000000000000000000000000000000000000000000000000081600181518110610bfb57610bfa6119f2565b5b60200101907effffffffffffffffffffffffffffffffffffffffffffffffffffffffffffff191690815f1a9053505f6001856002610c39919061197e565b610c4391906119bf565b90505b6001811115610ce2577f3031323334353637383961626364656600000000000000000000000000000000600f841660108110610c8557610c846119f2565b5b1a60f81b828281518110610c9c57610c9b6119f2565b5b60200101907effffffffffffffffffffffffffffffffffffffffffffffffffffffffffffff191690815f1a905350600483901c925080610cdb90611a1f565b9050610c46565b505f8214610d295784846040517fe22e27eb000000000000000000000000000000000000000000000000000000008152600401610d20929190611a46565b60405180910390fd5b809250505092915050565b606082610d4046610738565b610d4984610738565b604051602001610d5b93929190611ab7565b604051602081830303815290604052905092915050565b606081610d7e46610738565b84604051602001610d9193929190611b47565b604051602081830303815290604052905092915050565b60605f610db58686610d34565b90505f60405180602001604052805f81525090505f84511115610df55783604051602001610de39190611ba3565b60405160208183030381529060405290505b818582604051602001610e0a93929190611c58565b60405160208183030381529060405292505050949350505050565b5f805f90507a184f03e93ff9f4daa797ed6e38ed64bf6a1f0100000000000000008310610e81577a184f03e93ff9f4daa797ed6e38ed64bf6a1f0100000000000000008381610e7757610e7661168a565b5b0492506040810190505b6d04ee2d6d415b85acef81000000008310610ebe576d04ee2d6d415b85acef81000000008381610eb457610eb361168a565b5b0492506020810190505b662386f26fc100008310610eed57662386f26fc100008381610ee357610ee261168a565b5b0492506010810190505b6305f5e1008310610f16576305f5e1008381610f0c57610f0b61168a565b5b0492506008810190505b6127108310610f3b576127108381610f3157610f3061168a565b5b0492506004810190505b60648310610f5e5760648381610f5457610f5361168a565b5b0492506002810190505b600a8310610f6d576001810190505b80915050919050565b5f604051905090565b5f80fd5b5f80fd5b5f819050919050565b610f9981610f87565b8114610fa3575f80fd5b50565b5f81359050610fb481610f90565b92915050565b5f60208284031215610fcf57610fce610f7f565b5b5f610fdc84828501610fa6565b91505092915050565b5f73ffffffffffffffffffffffffffffffffffffffff82169050919050565b5f61100e82610fe5565b9050919050565b61101e81611004565b8114611028575f80fd5b50565b5f8135905061103981611015565b92915050565b5f80fd5b5f80fd5b5f601f19601f8301169050919050565b7f4e487b71000000000000000000000000000000000000000000000000000000005f52604160045260245ffd5b61108d82611047565b810181811067ffffffffffffffff821117156110ac576110ab611057565b5b80604052505050565b5f6110be610f76565b90506110ca8282611084565b919050565b5f67ffffffffffffffff8211156110e9576110e8611057565b5b6110f282611047565b9050602081019050919050565b828183375f83830152505050565b5f61111f61111a846110cf565b6110b5565b90508281526020810184848401111561113b5761113a611043565b5b6111468482856110ff565b509392505050565b5f82601f8301126111625761116161103f565b5b813561117284826020860161110d565b91505092915050565b5f805f806080858703121561119357611192610f7f565b5b5f6111a08782880161102b565b94505060206111b18782880161102b565b93505060406111c287828801610fa6565b925050606085013567ffffffffffffffff8111156111e3576111e2610f83565b5b6111ef8782880161114e565b91505092959194509250565b5f7fffffffff0000000000000000000000000000000000000000000000000000000082169050919050565b61122f816111fb565b82525050565b5f6020820190506112485f830184611226565b92915050565b5f6020828403121561126357611262610f7f565b5b5f6112708482850161102b565b91505092915050565b5f805f606084860312156112905761128f610f7f565b5b5f61129d8682870161102b565b93505060206112ae8682870161102b565b92505060406112bf86828701610fa6565b9150509250925092565b5f81519050919050565b5f82825260208201905092915050565b5f5b838110156113005780820151818401526020810190506112e5565b5f8484015250505050565b5f611315826112c9565b61131f81856112d3565b935061132f8185602086016112e3565b61133881611047565b840191505092915050565b5f6020820190508181035f83015261135b818461130b565b905092915050565b61136c81610f87565b82525050565b5f6020820190506113855f830184611363565b92915050565b5f80604083850312156113a1576113a0610f7f565b5b5f6113ae85828601610fa6565b92505060206113bf8582860161102b565b9150509250929050565b7f69643d0000000000000000000000000000000000000000000000000000000000815250565b5f81905092915050565b5f611403826112c9565b61140d81856113ef565b935061141d8185602086016112e3565b80840191505092915050565b5f611433826113c9565b60038201915061144382846113f9565b915081905092915050565b61145781611004565b82525050565b5f6060820190506114705f83018661144e565b61147d6020830185611363565b818103604083015261148f818461130b565b9050949350505050565b5f6060820190506114ac5f83018661144e565b6114b96020830185611363565b6114c6604083018461144e565b949350505050565b7f4e487b71000000000000000000000000000000000000000000000000000000005f52601160045260245ffd5b5f61150582610f87565b91507fffffffffffffffffffffffffffffffffffffffffffffffffffffffffffffffff8203611537576115366114ce565b5b600182019050919050565b7f2c00000000000000000000000000000000000000000000000000000000000000815250565b5f61157382876113f9565b915061157e82611542565b60018201915061158e82866113f9565b915061159982611542565b6001820191506115a982856113f9565b91506115b482611542565b6001820191506115c482846113f9565b915081905095945050505050565b5f6040820190506115e55f83018561144e565b81810360208301526115f7818461130b565b90509392505050565b5f8151905061160e81610f90565b92915050565b5f6020828403121561162957611628610f7f565b5b5f61163684828501611600565b91505092915050565b7f67726f757049643d000000000000000000000000000000000000000000000000815250565b5f61166f8261163f565b60088201915061167f82846113f9565b915081905092915050565b7f4e487b71000000000000000000000000000000000000000000000000000000005f52601260045260245ffd5b7f44454c4554452046524f4d2000000000000000000000000000000000000000005f82015250565b5f6116eb600c836113ef565b91506116f6826116b7565b600c82019050919050565b7f20574845524520000000000000000000000000000000000000000000000000005f82015250565b5f6117356007836113ef565b915061174082611701565b600782019050919050565b5f611755826116df565b915061176182856113f9565b915061176c82611729565b915061177882846113f9565b91508190509392505050565b7f27000000000000000000000000000000000000000000000000000000000000005f82015250565b5f6117b86001836113ef565b91506117c382611784565b600182019050919050565b5f6117d8826117ac565b91506117e482846113f9565b91506117ef826117ac565b915081905092915050565b7f494e5345525420494e544f2000000000000000000000000000000000000000005f82015250565b5f61182e600c836113ef565b9150611839826117fa565b600c82019050919050565b7f28000000000000000000000000000000000000000000000000000000000000005f82015250565b5f6118786001836113ef565b915061188382611844565b600182019050919050565b7f2956414c554553280000000000000000000000000000000000000000000000005f82015250565b5f6118c26008836113ef565b91506118cd8261188e565b600882019050919050565b7f29000000000000000000000000000000000000000000000000000000000000005f82015250565b5f61190c6001836113ef565b9150611917826118d8565b600182019050919050565b5f61192c82611822565b915061193882866113f9565b91506119438261186c565b915061194f82856113f9565b915061195a826118b6565b915061196682846113f9565b915061197182611900565b9150819050949350505050565b5f61198882610f87565b915061199383610f87565b92508282026119a181610f87565b915082820484148315176119b8576119b76114ce565b5b5092915050565b5f6119c982610f87565b91506119d483610f87565b92508282019050808211156119ec576119eb6114ce565b5b92915050565b7f4e487b71000000000000000000000000000000000000000000000000000000005f52603260045260245ffd5b5f611a2982610f87565b91505f8203611a3b57611a3a6114ce565b5b600182039050919050565b5f604082019050611a595f830185611363565b611a666020830184611363565b9392505050565b7f5f000000000000000000000000000000000000000000000000000000000000005f82015250565b5f611aa16001836113ef565b9150611aac82611a6d565b600182019050919050565b5f611ac282866113f9565b9150611acd82611a95565b9150611ad982856113f9565b9150611ae482611a95565b9150611af082846113f9565b9150819050949350505050565b7f435245415445205441424c4520000000000000000000000000000000000000005f82015250565b5f611b31600d836113ef565b9150611b3c82611afd565b600d82019050919050565b5f611b5182611b25565b9150611b5d82866113f9565b9150611b6882611a95565b9150611b7482856113f9565b9150611b7f8261186c565b9150611b8b82846113f9565b9150611b9682611900565b9150819050949350505050565b5f611bad82611729565b9150611bb982846113f9565b915081905092915050565b7f55504441544520000000000000000000000000000000000000000000000000005f82015250565b5f611bf86007836113ef565b9150611c0382611bc4565b600782019050919050565b7f20534554200000000000000000000000000000000000000000000000000000005f82015250565b5f611c426005836113ef565b9150611c4d82611c0e565b600582019050919050565b5f611c6282611bec565b9150611c6e82866113f9565b9150611c7982611c36565b9150611c8582856113f9565b9150611c9182846113f9565b915081905094935050505056fe696420696e7465676572207072696d617279206b65792c6f776e657220746578742c726f756e64496420696e74656765722c67726f757049642074657874a264697066735822122078f2e6d975d9ea6e0052cf721303015b9e5d6cf26e8f04c225110f32b21a729264736f6c63430008140033",
			"opcodes": "PUSH1 0x80 PUSH1 0x40 MSTORE PUSH0 PUSH1 0x1 SSTORE CALLVALUE DUP1 ISZERO PUSH2 0x13 JUMPI PUSH0 DUP1 REVERT JUMPDEST POP PUSH2 0x1D12 DUP1 PUSH2 0x21 PUSH0 CODECOPY PUSH0 RETURN INVALID PUSH1 0x80 PUSH1 0x40 MSTORE PUSH1 0x4 CALLDATASIZE LT PUSH2 0x85 JUMPI PUSH0 CALLDATALOAD PUSH1 0xE0 SHR DUP1 PUSH4 0x3E295859 GT PUSH2 0x58 JUMPI DUP1 PUSH4 0x3E295859 EQ PUSH2 0x13D JUMPI DUP1 PUSH4 0x5D5A33A2 EQ PUSH2 0x179 JUMPI DUP1 PUSH4 0x88E4F1CB EQ PUSH2 0x1A3 JUMPI DUP1 PUSH4 0xB2A4C897 EQ PUSH2 0x1CD JUMPI DUP1 PUSH4 0xE86492B1 EQ PUSH2 0x1D7 JUMPI PUSH2 0x85 JUMP JUMPDEST DUP1 PUSH4 0x4BFC47F EQ PUSH2 0x89 JUMPI DUP1 PUSH4 0x150B7A02 EQ PUSH2 0xB1 JUMPI DUP1 PUSH4 0x19129E5A EQ PUSH2 0xED JUMPI DUP1 PUSH4 0x1E2DD199 EQ PUSH2 0x115 JUMPI JUMPDEST PUSH0 DUP1 REVERT JUMPDEST CALLVALUE DUP1 ISZERO PUSH2 0x94 JUMPI PUSH0 DUP1 REVERT JUMPDEST POP PUSH2 0xAF PUSH1 0x4 DUP1 CALLDATASIZE SUB DUP2 ADD SWAP1 PUSH2 0xAA SWAP2 SWAP1 PUSH2 0xFBA JUMP JUMPDEST PUSH2 0x1FF JUMP JUMPDEST STOP JUMPDEST CALLVALUE DUP1 ISZERO PUSH2 0xBC JUMPI PUSH0 DUP1 REVERT JUMPDEST POP PUSH2 0xD7 PUSH1 0x4 DUP1 CALLDATASIZE SUB DUP2 ADD SWAP1 PUSH2 0xD2 SWAP2 SWAP1 PUSH2 0x117B JUMP JUMPDEST PUSH2 0x2E0 JUMP JUMPDEST PUSH1 0x40 MLOAD PUSH2 0xE4 SWAP2 SWAP1 PUSH2 0x1235 JUMP JUMPDEST PUSH1 0x40 MLOAD DUP1 SWAP2 SUB SWAP1 RETURN JUMPDEST CALLVALUE DUP1 ISZERO PUSH2 0xF8 JUMPI PUSH0 DUP1 REVERT JUMPDEST POP PUSH2 0x113 PUSH1 0x4 DUP1 CALLDATASIZE SUB DUP2 ADD SWAP1 PUSH2 0x10E SWAP2 SWAP1 PUSH2 0x124E JUMP JUMPDEST PUSH2 0x2F3 JUMP JUMPDEST STOP JUMPDEST CALLVALUE DUP1 ISZERO PUSH2 0x120 JUMPI PUSH0 DUP1 REVERT JUMPDEST POP PUSH2 0x13B PUSH1 0x4 DUP1 CALLDATASIZE SUB DUP2 ADD SWAP1 PUSH2 0x136 SWAP2 SWAP1 PUSH2 0x1279 JUMP JUMPDEST PUSH2 0x368 JUMP JUMPDEST STOP JUMPDEST CALLVALUE DUP1 ISZERO PUSH2 0x148 JUMPI PUSH0 DUP1 REVERT JUMPDEST POP PUSH2 0x163 PUSH1 0x4 DUP1 CALLDATASIZE SUB DUP2 ADD SWAP1 PUSH2 0x15E SWAP2 SWAP1 PUSH2 0x124E JUMP JUMPDEST PUSH2 0x4C9 JUMP JUMPDEST PUSH1 0x40 MLOAD PUSH2 0x170 SWAP2 SWAP1 PUSH2 0x1343 JUMP JUMPDEST PUSH1 0x40 MLOAD DUP1 SWAP2 SUB SWAP1 RETURN JUMPDEST CALLVALUE DUP1 ISZERO PUSH2 0x184 JUMPI PUSH0 DUP1 REVERT JUMPDEST POP PUSH2 0x18D PUSH2 0x4F3 JUMP JUMPDEST PUSH1 0x40 MLOAD PUSH2 0x19A SWAP2 SWAP1 PUSH2 0x1343 JUMP JUMPDEST PUSH1 0x40 MLOAD DUP1 SWAP2 SUB SWAP1 RETURN JUMPDEST CALLVALUE DUP1 ISZERO PUSH2 0x1AE JUMPI PUSH0 DUP1 REVERT JUMPDEST POP PUSH2 0x1B7 PUSH2 0x53A JUMP JUMPDEST PUSH1 0x40 MLOAD PUSH2 0x1C4 SWAP2 SWAP1 PUSH2 0x1372 JUMP JUMPDEST PUSH1 0x40 MLOAD DUP1 SWAP2 SUB SWAP1 RETURN JUMPDEST PUSH2 0x1D5 PUSH2 0x542 JUMP JUMPDEST STOP JUMPDEST CALLVALUE DUP1 ISZERO PUSH2 0x1E2 JUMPI PUSH0 DUP1 REVERT JUMPDEST POP PUSH2 0x1FD PUSH1 0x4 DUP1 CALLDATASIZE SUB DUP2 ADD SWAP1 PUSH2 0x1F8 SWAP2 SWAP1 PUSH2 0x138B JUMP JUMPDEST PUSH2 0x621 JUMP JUMPDEST STOP JUMPDEST PUSH0 PUSH2 0x209 DUP3 PUSH2 0x738 JUMP JUMPDEST PUSH1 0x40 MLOAD PUSH1 0x20 ADD PUSH2 0x219 SWAP2 SWAP1 PUSH2 0x1429 JUMP JUMPDEST PUSH1 0x40 MLOAD PUSH1 0x20 DUP2 DUP4 SUB SUB DUP2 MSTORE SWAP1 PUSH1 0x40 MSTORE SWAP1 POP PUSH2 0x232 PUSH2 0x802 JUMP JUMPDEST PUSH20 0xFFFFFFFFFFFFFFFFFFFFFFFFFFFFFFFFFFFFFFFF AND PUSH4 0x377AF0DA ADDRESS PUSH0 SLOAD PUSH2 0x291 PUSH1 0x40 MLOAD DUP1 PUSH1 0x40 ADD PUSH1 0x40 MSTORE DUP1 PUSH1 0x12 DUP2 MSTORE PUSH1 0x20 ADD PUSH32 0x737573755F77616C6C6574735F7461626C650000000000000000000000000000 DUP2 MSTORE POP PUSH0 SLOAD DUP8 PUSH2 0xA27 JUMP JUMPDEST PUSH1 0x40 MLOAD DUP5 PUSH4 0xFFFFFFFF AND PUSH1 0xE0 SHL DUP2 MSTORE PUSH1 0x4 ADD PUSH2 0x2AF SWAP4 SWAP3 SWAP2 SWAP1 PUSH2 0x145D JUMP JUMPDEST PUSH0 PUSH1 0x40 MLOAD DUP1 DUP4 SUB DUP2 PUSH0 DUP8 DUP1 EXTCODESIZE ISZERO DUP1 ISZERO PUSH2 0x2C6 JUMPI PUSH0 DUP1 REVERT JUMPDEST POP GAS CALL ISZERO DUP1 ISZERO PUSH2 0x2D8 JUMPI RETURNDATASIZE PUSH0 DUP1 RETURNDATACOPY RETURNDATASIZE PUSH0 REVERT JUMPDEST POP POP POP POP POP POP JUMP JUMPDEST PUSH0 PUSH4 0x150B7A02 PUSH1 0xE0 SHL SWAP1 POP SWAP5 SWAP4 POP POP POP POP JUMP JUMPDEST PUSH2 0x2FB PUSH2 0x802 JUMP JUMPDEST PUSH20 0xFFFFFFFFFFFFFFFFFFFFFFFFFFFFFFFFFFFFFFFF AND PUSH4 0x8BB0AB97 ADDRESS PUSH0 SLOAD DUP5 PUSH1 0x40 MLOAD DUP5 PUSH4 0xFFFFFFFF AND PUSH1 0xE0 SHL DUP2 MSTORE PUSH1 0x4 ADD PUSH2 0x338 SWAP4 SWAP3 SWAP2 SWAP1 PUSH2 0x1499 JUMP JUMPDEST PUSH0 PUSH1 0x40 MLOAD DUP1 DUP4 SUB DUP2 PUSH0 DUP8 DUP1 EXTCODESIZE ISZERO DUP1 ISZERO PUSH2 0x34F JUMPI PUSH0 DUP1 REVERT JUMPDEST POP GAS CALL ISZERO DUP1 ISZERO PUSH2 0x361 JUMPI RETURNDATASIZE PUSH0 DUP1 RETURNDATACOPY RETURNDATASIZE PUSH0 REVERT JUMPDEST POP POP POP POP POP JUMP JUMPDEST PUSH0 PUSH2 0x372 DUP4 PUSH2 0xA62 JUMP JUMPDEST SWAP1 POP PUSH0 PUSH2 0x37E DUP6 PUSH2 0xA62 JUMP JUMPDEST SWAP1 POP PUSH2 0x388 PUSH2 0x802 JUMP JUMPDEST PUSH20 0xFFFFFFFFFFFFFFFFFFFFFFFFFFFFFFFFFFFFFFFF AND PUSH4 0x377AF0DA ADDRESS PUSH0 SLOAD PUSH2 0x477 PUSH1 0x40 MLOAD DUP1 PUSH1 0x40 ADD PUSH1 0x40 MSTORE DUP1 PUSH1 0x12 DUP2 MSTORE PUSH1 0x20 ADD PUSH32 0x737573755F77616C6C6574735F7461626C650000000000000000000000000000 DUP2 MSTORE POP PUSH0 SLOAD PUSH1 0x40 MLOAD DUP1 PUSH1 0x40 ADD PUSH1 0x40 MSTORE DUP1 PUSH1 0x1D DUP2 MSTORE PUSH1 0x20 ADD PUSH32 0x69642C2067726F757049642C20616464726573732C20726F756E644964000000 DUP2 MSTORE POP PUSH2 0x435 PUSH1 0x1 PUSH0 DUP2 SLOAD DUP1 SWAP3 SWAP2 SWAP1 PUSH2 0x42C SWAP1 PUSH2 0x14FB JUMP JUMPDEST SWAP2 SWAP1 POP SSTORE PUSH2 0x738 JUMP JUMPDEST PUSH2 0x43E DUP11 PUSH2 0xA8F JUMP JUMPDEST PUSH2 0x447 DUP13 PUSH2 0xA8F JUMP JUMPDEST PUSH2 0x450 DUP15 PUSH2 0x738 JUMP JUMPDEST PUSH1 0x40 MLOAD PUSH1 0x20 ADD PUSH2 0x463 SWAP5 SWAP4 SWAP3 SWAP2 SWAP1 PUSH2 0x1568 JUMP JUMPDEST PUSH1 0x40 MLOAD PUSH1 0x20 DUP2 DUP4 SUB SUB DUP2 MSTORE SWAP1 PUSH1 0x40 MSTORE PUSH2 0xAB8 JUMP JUMPDEST PUSH1 0x40 MLOAD DUP5 PUSH4 0xFFFFFFFF AND PUSH1 0xE0 SHL DUP2 MSTORE PUSH1 0x4 ADD PUSH2 0x495 SWAP4 SWAP3 SWAP2 SWAP1 PUSH2 0x145D JUMP JUMPDEST PUSH0 PUSH1 0x40 MLOAD DUP1 DUP4 SUB DUP2 PUSH0 DUP8 DUP1 EXTCODESIZE ISZERO DUP1 ISZERO PUSH2 0x4AC JUMPI PUSH0 DUP1 REVERT JUMPDEST POP GAS CALL ISZERO DUP1 ISZERO PUSH2 0x4BE JUMPI RETURNDATASIZE PUSH0 DUP1 RETURNDATACOPY RETURNDATASIZE PUSH0 REVERT JUMPDEST POP POP POP POP POP POP POP POP POP JUMP JUMPDEST PUSH1 0x60 PUSH2 0x4EC DUP3 PUSH20 0xFFFFFFFFFFFFFFFFFFFFFFFFFFFFFFFFFFFFFFFF AND PUSH1 0x14 PUSH2 0xAF6 JUMP JUMPDEST SWAP1 POP SWAP2 SWAP1 POP JUMP JUMPDEST PUSH1 0x60 PUSH2 0x535 PUSH1 0x40 MLOAD DUP1 PUSH1 0x40 ADD PUSH1 0x40 MSTORE DUP1 PUSH1 0x12 DUP2 MSTORE PUSH1 0x20 ADD PUSH32 0x737573755F77616C6C6574735F7461626C650000000000000000000000000000 DUP2 MSTORE POP PUSH0 SLOAD PUSH2 0xD34 JUMP JUMPDEST SWAP1 POP SWAP1 JUMP JUMPDEST PUSH0 DUP1 SLOAD SWAP1 POP SWAP1 JUMP JUMPDEST PUSH2 0x54A PUSH2 0x802 JUMP JUMPDEST PUSH20 0xFFFFFFFFFFFFFFFFFFFFFFFFFFFFFFFFFFFFFFFF AND PUSH4 0xA15AB08D ADDRESS PUSH2 0x5BD PUSH1 0x40 MLOAD DUP1 PUSH1 0x60 ADD PUSH1 0x40 MSTORE DUP1 PUSH1 0x3E DUP2 MSTORE PUSH1 0x20 ADD PUSH2 0x1C9F PUSH1 0x3E SWAP2 CODECOPY PUSH1 0x40 MLOAD DUP1 PUSH1 0x40 ADD PUSH1 0x40 MSTORE DUP1 PUSH1 0x12 DUP2 MSTORE PUSH1 0x20 ADD PUSH32 0x737573755F77616C6C6574735F7461626C650000000000000000000000000000 DUP2 MSTORE POP PUSH2 0xD72 JUMP JUMPDEST PUSH1 0x40 MLOAD DUP4 PUSH4 0xFFFFFFFF AND PUSH1 0xE0 SHL DUP2 MSTORE PUSH1 0x4 ADD PUSH2 0x5DA SWAP3 SWAP2 SWAP1 PUSH2 0x15D2 JUMP JUMPDEST PUSH1 0x20 PUSH1 0x40 MLOAD DUP1 DUP4 SUB DUP2 PUSH0 DUP8 GAS CALL ISZERO DUP1 ISZERO PUSH2 0x5F6 JUMPI RETURNDATASIZE PUSH0 DUP1 RETURNDATACOPY RETURNDATASIZE PUSH0 REVERT JUMPDEST POP POP POP POP PUSH1 0x40 MLOAD RETURNDATASIZE PUSH1 0x1F NOT PUSH1 0x1F DUP3 ADD AND DUP3 ADD DUP1 PUSH1 0x40 MSTORE POP DUP2 ADD SWAP1 PUSH2 0x61A SWAP2 SWAP1 PUSH2 0x1614 JUMP JUMPDEST PUSH0 DUP2 SWAP1 SSTORE POP JUMP JUMPDEST PUSH0 PUSH2 0x633 PUSH2 0x62E DUP4 PUSH2 0xA62 JUMP JUMPDEST PUSH2 0xA8F JUMP JUMPDEST PUSH1 0x40 MLOAD PUSH1 0x20 ADD PUSH2 0x643 SWAP2 SWAP1 PUSH2 0x1665 JUMP JUMPDEST PUSH1 0x40 MLOAD PUSH1 0x20 DUP2 DUP4 SUB SUB DUP2 MSTORE SWAP1 PUSH1 0x40 MSTORE SWAP1 POP PUSH0 PUSH2 0x65E DUP5 PUSH2 0x738 JUMP JUMPDEST PUSH1 0x40 MLOAD PUSH1 0x20 ADD PUSH2 0x66E SWAP2 SWAP1 PUSH2 0x1429 JUMP JUMPDEST PUSH1 0x40 MLOAD PUSH1 0x20 DUP2 DUP4 SUB SUB DUP2 MSTORE SWAP1 PUSH1 0x40 MSTORE SWAP1 POP PUSH2 0x687 PUSH2 0x802 JUMP JUMPDEST PUSH20 0xFFFFFFFFFFFFFFFFFFFFFFFFFFFFFFFFFFFFFFFF AND PUSH4 0x377AF0DA ADDRESS PUSH0 SLOAD PUSH2 0x6E7 PUSH1 0x40 MLOAD DUP1 PUSH1 0x40 ADD PUSH1 0x40 MSTORE DUP1 PUSH1 0x12 DUP2 MSTORE PUSH1 0x20 ADD PUSH32 0x737573755F77616C6C6574735F7461626C650000000000000000000000000000 DUP2 MSTORE POP PUSH0 SLOAD DUP9 DUP9 PUSH2 0xDA8 JUMP JUMPDEST PUSH1 0x40 MLOAD DUP5 PUSH4 0xFFFFFFFF AND PUSH1 0xE0 SHL DUP2 MSTORE PUSH1 0x4 ADD PUSH2 0x705 SWAP4 SWAP3 SWAP2 SWAP1 PUSH2 0x145D JUMP JUMPDEST PUSH0 PUSH1 0x40 MLOAD DUP1 DUP4 SUB DUP2 PUSH0 DUP8 DUP1 EXTCODESIZE ISZERO DUP1 ISZERO PUSH2 0x71C JUMPI PUSH0 DUP1 REVERT JUMPDEST POP GAS CALL ISZERO DUP1 ISZERO PUSH2 0x72E JUMPI RETURNDATASIZE PUSH0 DUP1 RETURNDATACOPY RETURNDATASIZE PUSH0 REVERT JUMPDEST POP POP POP POP POP POP POP POP JUMP JUMPDEST PUSH1 0x60 PUSH0 PUSH1 0x1 PUSH2 0x746 DUP5 PUSH2 0xE25 JUMP JUMPDEST ADD SWAP1 POP PUSH0 DUP2 PUSH8 0xFFFFFFFFFFFFFFFF DUP2 GT ISZERO PUSH2 0x764 JUMPI PUSH2 0x763 PUSH2 0x1057 JUMP JUMPDEST JUMPDEST PUSH1 0x40 MLOAD SWAP1 DUP1 DUP3 MSTORE DUP1 PUSH1 0x1F ADD PUSH1 0x1F NOT AND PUSH1 0x20 ADD DUP3 ADD PUSH1 0x40 MSTORE DUP1 ISZERO PUSH2 0x796 JUMPI DUP2 PUSH1 0x20 ADD PUSH1 0x1 DUP3 MUL DUP1 CALLDATASIZE DUP4 CALLDATACOPY DUP1 DUP3 ADD SWAP2 POP POP SWAP1 POP JUMPDEST POP SWAP1 POP PUSH0 DUP3 PUSH1 0x20 ADD DUP3 ADD SWAP1 POP JUMPDEST PUSH1 0x1 ISZERO PUSH2 0x7F7 JUMPI DUP1 DUP1 PUSH1 0x1 SWAP1 SUB SWAP2 POP POP PUSH32 0x3031323334353637383961626364656600000000000000000000000000000000 PUSH1 0xA DUP7 MOD BYTE DUP2 MSTORE8 PUSH1 0xA DUP6 DUP2 PUSH2 0x7EC JUMPI PUSH2 0x7EB PUSH2 0x168A JUMP JUMPDEST JUMPDEST DIV SWAP5 POP PUSH0 DUP6 SUB PUSH2 0x7A3 JUMPI JUMPDEST DUP2 SWAP4 POP POP POP POP SWAP2 SWAP1 POP JUMP JUMPDEST PUSH0 PUSH1 0x1 CHAINID SUB PUSH2 0x827 JUMPI PUSH20 0x12969F7E3439A9B04025B5A049EB9BAD82A8C12 SWAP1 POP PUSH2 0xA24 JUMP JUMPDEST PUSH1 0xA CHAINID SUB PUSH2 0x84B JUMPI PUSH20 0xFAD44BF5B843DE943A09D4F3E84949A11D3AA3E6 SWAP1 POP PUSH2 0xA24 JUMP JUMPDEST PUSH2 0xA4B1 CHAINID SUB PUSH2 0x870 JUMPI PUSH20 0x9ABD75E8640871A5A20D3B4EE6330A04C962AFFD SWAP1 POP PUSH2 0xA24 JUMP JUMPDEST PUSH2 0xA4BA CHAINID SUB PUSH2 0x895 JUMPI PUSH20 0x1A22854C5B1642760A827F20137A67930AE108D2 SWAP1 POP PUSH2 0xA24 JUMP JUMPDEST PUSH1 0x89 CHAINID SUB PUSH2 0x8B9 JUMPI PUSH20 0x5C4E6A9E5C1E1BF445A062006FAF19EA6C49AFEA SWAP1 POP PUSH2 0xA24 JUMP JUMPDEST PUSH2 0x13A CHAINID SUB PUSH2 0x8DE JUMPI PUSH20 0x59EF8BF2D6C102B4C42AEF9189E1A9F0ABFD652D SWAP1 POP PUSH2 0xA24 JUMP JUMPDEST PUSH3 0xAA36A7 CHAINID SUB PUSH2 0x904 JUMPI PUSH20 0xC50C62498448ACC8DBDE43DA77F8D5D2E2C7597D SWAP1 POP PUSH2 0xA24 JUMP JUMPDEST PUSH3 0xAA37DC CHAINID SUB PUSH2 0x92A JUMPI PUSH20 0x68A2F4423AD3BF5139DB563CF3BC80AA09ED7079 SWAP1 POP PUSH2 0xA24 JUMP JUMPDEST PUSH3 0x66EEE CHAINID SUB PUSH2 0x950 JUMPI PUSH20 0x223A74B8323914AFDC3FF1E5005564DC17231D6E SWAP1 POP PUSH2 0xA24 JUMP JUMPDEST PUSH3 0x14A34 CHAINID SUB PUSH2 0x976 JUMPI PUSH20 0xA85AAE9F0AEC5F5638E5F13840797303AB29C9F9 SWAP1 POP PUSH2 0xA24 JUMP JUMPDEST PUSH3 0x13882 CHAINID SUB PUSH2 0x99C JUMPI PUSH20 0x170FB206132B693E38ADFC8727DCFA303546CEC1 SWAP1 POP PUSH2 0xA24 JUMP JUMPDEST PUSH3 0x4CB2F CHAINID SUB PUSH2 0x9C2 JUMPI PUSH20 0x30BCF3D50CAD04C2E57391B12740982A9308621 SWAP1 POP PUSH2 0xA24 JUMP JUMPDEST PUSH2 0x7A69 CHAINID SUB PUSH2 0x9E7 JUMPI PUSH20 0xE7F1725E7734CE288F8367E1BB143E90BB3F0512 SWAP1 POP PUSH2 0xA24 JUMP JUMPDEST CHAINID PUSH1 0x40 MLOAD PUSH32 0x264E42CF00000000000000000000000000000000000000000000000000000000 DUP2 MSTORE PUSH1 0x4 ADD PUSH2 0xA1B SWAP2 SWAP1 PUSH2 0x1372 JUMP JUMPDEST PUSH1 0x40 MLOAD DUP1 SWAP2 SUB SWAP1 REVERT JUMPDEST SWAP1 JUMP JUMPDEST PUSH1 0x60 PUSH0 PUSH2 0xA34 DUP6 DUP6 PUSH2 0xD34 JUMP JUMPDEST SWAP1 POP DUP1 DUP4 PUSH1 0x40 MLOAD PUSH1 0x20 ADD PUSH2 0xA49 SWAP3 SWAP2 SWAP1 PUSH2 0x174B JUMP JUMPDEST PUSH1 0x40 MLOAD PUSH1 0x20 DUP2 DUP4 SUB SUB DUP2 MSTORE SWAP1 PUSH1 0x40 MSTORE SWAP2 POP POP SWAP4 SWAP3 POP POP POP JUMP JUMPDEST PUSH1 0x60 PUSH2 0xA88 DUP3 PUSH20 0xFFFFFFFFFFFFFFFFFFFFFFFFFFFFFFFFFFFFFFFF AND PUSH1 0x14 PUSH1 0xFF AND PUSH2 0xAF6 JUMP JUMPDEST SWAP1 POP SWAP2 SWAP1 POP JUMP JUMPDEST PUSH1 0x60 DUP2 PUSH1 0x40 MLOAD PUSH1 0x20 ADD PUSH2 0xAA2 SWAP2 SWAP1 PUSH2 0x17CE JUMP JUMPDEST PUSH1 0x40 MLOAD PUSH1 0x20 DUP2 DUP4 SUB SUB DUP2 MSTORE SWAP1 PUSH1 0x40 MSTORE SWAP1 POP SWAP2 SWAP1 POP JUMP JUMPDEST PUSH1 0x60 PUSH0 PUSH2 0xAC5 DUP7 DUP7 PUSH2 0xD34 JUMP JUMPDEST SWAP1 POP DUP1 DUP5 DUP5 PUSH1 0x40 MLOAD PUSH1 0x20 ADD PUSH2 0xADC SWAP4 SWAP3 SWAP2 SWAP1 PUSH2 0x1922 JUMP JUMPDEST PUSH1 0x40 MLOAD PUSH1 0x20 DUP2 DUP4 SUB SUB DUP2 MSTORE SWAP1 PUSH1 0x40 MSTORE SWAP2 POP POP SWAP5 SWAP4 POP POP POP POP JUMP JUMPDEST PUSH1 0x60 PUSH0 DUP4 SWAP1 POP PUSH0 PUSH1 0x2 DUP5 PUSH1 0x2 PUSH2 0xB0C SWAP2 SWAP1 PUSH2 0x197E JUMP JUMPDEST PUSH2 0xB16 SWAP2 SWAP1 PUSH2 0x19BF JUMP JUMPDEST PUSH8 0xFFFFFFFFFFFFFFFF DUP2 GT ISZERO PUSH2 0xB2F JUMPI PUSH2 0xB2E PUSH2 0x1057 JUMP JUMPDEST JUMPDEST PUSH1 0x40 MLOAD SWAP1 DUP1 DUP3 MSTORE DUP1 PUSH1 0x1F ADD PUSH1 0x1F NOT AND PUSH1 0x20 ADD DUP3 ADD PUSH1 0x40 MSTORE DUP1 ISZERO PUSH2 0xB61 JUMPI DUP2 PUSH1 0x20 ADD PUSH1 0x1 DUP3 MUL DUP1 CALLDATASIZE DUP4 CALLDATACOPY DUP1 DUP3 ADD SWAP2 POP POP SWAP1 POP JUMPDEST POP SWAP1 POP PUSH32 0x3000000000000000000000000000000000000000000000000000000000000000 DUP2 PUSH0 DUP2 MLOAD DUP2 LT PUSH2 0xB98 JUMPI PUSH2 0xB97 PUSH2 0x19F2 JUMP JUMPDEST JUMPDEST PUSH1 0x20 ADD ADD SWAP1 PUSH31 0xFFFFFFFFFFFFFFFFFFFFFFFFFFFFFFFFFFFFFFFFFFFFFFFFFFFFFFFFFFFFFF NOT AND SWAP1 DUP2 PUSH0 BYTE SWAP1 MSTORE8 POP PUSH32 0x7800000000000000000000000000000000000000000000000000000000000000 DUP2 PUSH1 0x1 DUP2 MLOAD DUP2 LT PUSH2 0xBFB JUMPI PUSH2 0xBFA PUSH2 0x19F2 JUMP JUMPDEST JUMPDEST PUSH1 0x20 ADD ADD SWAP1 PUSH31 0xFFFFFFFFFFFFFFFFFFFFFFFFFFFFFFFFFFFFFFFFFFFFFFFFFFFFFFFFFFFFFF NOT AND SWAP1 DUP2 PUSH0 BYTE SWAP1 MSTORE8 POP PUSH0 PUSH1 0x1 DUP6 PUSH1 0x2 PUSH2 0xC39 SWAP2 SWAP1 PUSH2 0x197E JUMP JUMPDEST PUSH2 0xC43 SWAP2 SWAP1 PUSH2 0x19BF JUMP JUMPDEST SWAP1 POP JUMPDEST PUSH1 0x1 DUP2 GT ISZERO PUSH2 0xCE2 JUMPI PUSH32 0x3031323334353637383961626364656600000000000000000000000000000000 PUSH1 0xF DUP5 AND PUSH1 0x10 DUP2 LT PUSH2 0xC85 JUMPI PUSH2 0xC84 PUSH2 0x19F2 JUMP JUMPDEST JUMPDEST BYTE PUSH1 0xF8 SHL DUP3 DUP3 DUP2 MLOAD DUP2 LT PUSH2 0xC9C JUMPI PUSH2 0xC9B PUSH2 0x19F2 JUMP JUMPDEST JUMPDEST PUSH1 0x20 ADD ADD SWAP1 PUSH31 0xFFFFFFFFFFFFFFFFFFFFFFFFFFFFFFFFFFFFFFFFFFFFFFFFFFFFFFFFFFFFFF NOT AND SWAP1 DUP2 PUSH0 BYTE SWAP1 MSTORE8 POP PUSH1 0x4 DUP4 SWAP1 SHR SWAP3 POP DUP1 PUSH2 0xCDB SWAP1 PUSH2 0x1A1F JUMP JUMPDEST SWAP1 POP PUSH2 0xC46 JUMP JUMPDEST POP PUSH0 DUP3 EQ PUSH2 0xD29 JUMPI DUP5 DUP5 PUSH1 0x40 MLOAD PUSH32 0xE22E27EB00000000000000000000000000000000000000000000000000000000 DUP2 MSTORE PUSH1 0x4 ADD PUSH2 0xD20 SWAP3 SWAP2 SWAP1 PUSH2 0x1A46 JUMP JUMPDEST PUSH1 0x40 MLOAD DUP1 SWAP2 SUB SWAP1 REVERT JUMPDEST DUP1 SWAP3 POP POP POP SWAP3 SWAP2 POP POP JUMP JUMPDEST PUSH1 0x60 DUP3 PUSH2 0xD40 CHAINID PUSH2 0x738 JUMP JUMPDEST PUSH2 0xD49 DUP5 PUSH2 0x738 JUMP JUMPDEST PUSH1 0x40 MLOAD PUSH1 0x20 ADD PUSH2 0xD5B SWAP4 SWAP3 SWAP2 SWAP1 PUSH2 0x1AB7 JUMP JUMPDEST PUSH1 0x40 MLOAD PUSH1 0x20 DUP2 DUP4 SUB SUB DUP2 MSTORE SWAP1 PUSH1 0x40 MSTORE SWAP1 POP SWAP3 SWAP2 POP POP JUMP JUMPDEST PUSH1 0x60 DUP2 PUSH2 0xD7E CHAINID PUSH2 0x738 JUMP JUMPDEST DUP5 PUSH1 0x40 MLOAD PUSH1 0x20 ADD PUSH2 0xD91 SWAP4 SWAP3 SWAP2 SWAP1 PUSH2 0x1B47 JUMP JUMPDEST PUSH1 0x40 MLOAD PUSH1 0x20 DUP2 DUP4 SUB SUB DUP2 MSTORE SWAP1 PUSH1 0x40 MSTORE SWAP1 POP SWAP3 SWAP2 POP POP JUMP JUMPDEST PUSH1 0x60 PUSH0 PUSH2 0xDB5 DUP7 DUP7 PUSH2 0xD34 JUMP JUMPDEST SWAP1 POP PUSH0 PUSH1 0x40 MLOAD DUP1 PUSH1 0x20 ADD PUSH1 0x40 MSTORE DUP1 PUSH0 DUP2 MSTORE POP SWAP1 POP PUSH0 DUP5 MLOAD GT ISZERO PUSH2 0xDF5 JUMPI DUP4 PUSH1 0x40 MLOAD PUSH1 0x20 ADD PUSH2 0xDE3 SWAP2 SWAP1 PUSH2 0x1BA3 JUMP JUMPDEST PUSH1 0x40 MLOAD PUSH1 0x20 DUP2 DUP4 SUB SUB DUP2 MSTORE SWAP1 PUSH1 0x40 MSTORE SWAP1 POP JUMPDEST DUP2 DUP6 DUP3 PUSH1 0x40 MLOAD PUSH1 0x20 ADD PUSH2 0xE0A SWAP4 SWAP3 SWAP2 SWAP1 PUSH2 0x1C58 JUMP JUMPDEST PUSH1 0x40 MLOAD PUSH1 0x20 DUP2 DUP4 SUB SUB DUP2 MSTORE SWAP1 PUSH1 0x40 MSTORE SWAP3 POP POP POP SWAP5 SWAP4 POP POP POP POP JUMP JUMPDEST PUSH0 DUP1 PUSH0 SWAP1 POP PUSH27 0x184F03E93FF9F4DAA797ED6E38ED64BF6A1F010000000000000000 DUP4 LT PUSH2 0xE81 JUMPI PUSH27 0x184F03E93FF9F4DAA797ED6E38ED64BF6A1F010000000000000000 DUP4 DUP2 PUSH2 0xE77 JUMPI PUSH2 0xE76 PUSH2 0x168A JUMP JUMPDEST JUMPDEST DIV SWAP3 POP PUSH1 0x40 DUP2 ADD SWAP1 POP JUMPDEST PUSH14 0x4EE2D6D415B85ACEF8100000000 DUP4 LT PUSH2 0xEBE JUMPI PUSH14 0x4EE2D6D415B85ACEF8100000000 DUP4 DUP2 PUSH2 0xEB4 JUMPI PUSH2 0xEB3 PUSH2 0x168A JUMP JUMPDEST JUMPDEST DIV SWAP3 POP PUSH1 0x20 DUP2 ADD SWAP1 POP JUMPDEST PUSH7 0x2386F26FC10000 DUP4 LT PUSH2 0xEED JUMPI PUSH7 0x2386F26FC10000 DUP4 DUP2 PUSH2 0xEE3 JUMPI PUSH2 0xEE2 PUSH2 0x168A JUMP JUMPDEST JUMPDEST DIV SWAP3 POP PUSH1 0x10 DUP2 ADD SWAP1 POP JUMPDEST PUSH4 0x5F5E100 DUP4 LT PUSH2 0xF16 JUMPI PUSH4 0x5F5E100 DUP4 DUP2 PUSH2 0xF0C JUMPI PUSH2 0xF0B PUSH2 0x168A JUMP JUMPDEST JUMPDEST DIV SWAP3 POP PUSH1 0x8 DUP2 ADD SWAP1 POP JUMPDEST PUSH2 0x2710 DUP4 LT PUSH2 0xF3B JUMPI PUSH2 0x2710 DUP4 DUP2 PUSH2 0xF31 JUMPI PUSH2 0xF30 PUSH2 0x168A JUMP JUMPDEST JUMPDEST DIV SWAP3 POP PUSH1 0x4 DUP2 ADD SWAP1 POP JUMPDEST PUSH1 0x64 DUP4 LT PUSH2 0xF5E JUMPI PUSH1 0x64 DUP4 DUP2 PUSH2 0xF54 JUMPI PUSH2 0xF53 PUSH2 0x168A JUMP JUMPDEST JUMPDEST DIV SWAP3 POP PUSH1 0x2 DUP2 ADD SWAP1 POP JUMPDEST PUSH1 0xA DUP4 LT PUSH2 0xF6D JUMPI PUSH1 0x1 DUP2 ADD SWAP1 POP JUMPDEST DUP1 SWAP2 POP POP SWAP2 SWAP1 POP JUMP JUMPDEST PUSH0 PUSH1 0x40 MLOAD SWAP1 POP SWAP1 JUMP JUMPDEST PUSH0 DUP1 REVERT JUMPDEST PUSH0 DUP1 REVERT JUMPDEST PUSH0 DUP2 SWAP1 POP SWAP2 SWAP1 POP JUMP JUMPDEST PUSH2 0xF99 DUP2 PUSH2 0xF87 JUMP JUMPDEST DUP2 EQ PUSH2 0xFA3 JUMPI PUSH0 DUP1 REVERT JUMPDEST POP JUMP JUMPDEST PUSH0 DUP2 CALLDATALOAD SWAP1 POP PUSH2 0xFB4 DUP2 PUSH2 0xF90 JUMP JUMPDEST SWAP3 SWAP2 POP POP JUMP JUMPDEST PUSH0 PUSH1 0x20 DUP3 DUP5 SUB SLT ISZERO PUSH2 0xFCF JUMPI PUSH2 0xFCE PUSH2 0xF7F JUMP JUMPDEST JUMPDEST PUSH0 PUSH2 0xFDC DUP5 DUP3 DUP6 ADD PUSH2 0xFA6 JUMP JUMPDEST SWAP2 POP POP SWAP3 SWAP2 POP POP JUMP JUMPDEST PUSH0 PUSH20 0xFFFFFFFFFFFFFFFFFFFFFFFFFFFFFFFFFFFFFFFF DUP3 AND SWAP1 POP SWAP2 SWAP1 POP JUMP JUMPDEST PUSH0 PUSH2 0x100E DUP3 PUSH2 0xFE5 JUMP JUMPDEST SWAP1 POP SWAP2 SWAP1 POP JUMP JUMPDEST PUSH2 0x101E DUP2 PUSH2 0x1004 JUMP JUMPDEST DUP2 EQ PUSH2 0x1028 JUMPI PUSH0 DUP1 REVERT JUMPDEST POP JUMP JUMPDEST PUSH0 DUP2 CALLDATALOAD SWAP1 POP PUSH2 0x1039 DUP2 PUSH2 0x1015 JUMP JUMPDEST SWAP3 SWAP2 POP POP JUMP JUMPDEST PUSH0 DUP1 REVERT JUMPDEST PUSH0 DUP1 REVERT JUMPDEST PUSH0 PUSH1 0x1F NOT PUSH1 0x1F DUP4 ADD AND SWAP1 POP SWAP2 SWAP1 POP JUMP JUMPDEST PUSH32 0x4E487B7100000000000000000000000000000000000000000000000000000000 PUSH0 MSTORE PUSH1 0x41 PUSH1 0x4 MSTORE PUSH1 0x24 PUSH0 REVERT JUMPDEST PUSH2 0x108D DUP3 PUSH2 0x1047 JUMP JUMPDEST DUP2 ADD DUP2 DUP2 LT PUSH8 0xFFFFFFFFFFFFFFFF DUP3 GT OR ISZERO PUSH2 0x10AC JUMPI PUSH2 0x10AB PUSH2 0x1057 JUMP JUMPDEST JUMPDEST DUP1 PUSH1 0x40 MSTORE POP POP POP JUMP JUMPDEST PUSH0 PUSH2 0x10BE PUSH2 0xF76 JUMP JUMPDEST SWAP1 POP PUSH2 0x10CA DUP3 DUP3 PUSH2 0x1084 JUMP JUMPDEST SWAP2 SWAP1 POP JUMP JUMPDEST PUSH0 PUSH8 0xFFFFFFFFFFFFFFFF DUP3 GT ISZERO PUSH2 0x10E9 JUMPI PUSH2 0x10E8 PUSH2 0x1057 JUMP JUMPDEST JUMPDEST PUSH2 0x10F2 DUP3 PUSH2 0x1047 JUMP JUMPDEST SWAP1 POP PUSH1 0x20 DUP2 ADD SWAP1 POP SWAP2 SWAP1 POP JUMP JUMPDEST DUP3 DUP2 DUP4 CALLDATACOPY PUSH0 DUP4 DUP4 ADD MSTORE POP POP POP JUMP JUMPDEST PUSH0 PUSH2 0x111F PUSH2 0x111A DUP5 PUSH2 0x10CF JUMP JUMPDEST PUSH2 0x10B5 JUMP JUMPDEST SWAP1 POP DUP3 DUP2 MSTORE PUSH1 0x20 DUP2 ADD DUP5 DUP5 DUP5 ADD GT ISZERO PUSH2 0x113B JUMPI PUSH2 0x113A PUSH2 0x1043 JUMP JUMPDEST JUMPDEST PUSH2 0x1146 DUP5 DUP3 DUP6 PUSH2 0x10FF JUMP JUMPDEST POP SWAP4 SWAP3 POP POP POP JUMP JUMPDEST PUSH0 DUP3 PUSH1 0x1F DUP4 ADD SLT PUSH2 0x1162 JUMPI PUSH2 0x1161 PUSH2 0x103F JUMP JUMPDEST JUMPDEST DUP2 CALLDATALOAD PUSH2 0x1172 DUP5 DUP3 PUSH1 0x20 DUP7 ADD PUSH2 0x110D JUMP JUMPDEST SWAP2 POP POP SWAP3 SWAP2 POP POP JUMP JUMPDEST PUSH0 DUP1 PUSH0 DUP1 PUSH1 0x80 DUP6 DUP8 SUB SLT ISZERO PUSH2 0x1193 JUMPI PUSH2 0x1192 PUSH2 0xF7F JUMP JUMPDEST JUMPDEST PUSH0 PUSH2 0x11A0 DUP8 DUP3 DUP9 ADD PUSH2 0x102B JUMP JUMPDEST SWAP5 POP POP PUSH1 0x20 PUSH2 0x11B1 DUP8 DUP3 DUP9 ADD PUSH2 0x102B JUMP JUMPDEST SWAP4 POP POP PUSH1 0x40 PUSH2 0x11C2 DUP8 DUP3 DUP9 ADD PUSH2 0xFA6 JUMP JUMPDEST SWAP3 POP POP PUSH1 0x60 DUP6 ADD CALLDATALOAD PUSH8 0xFFFFFFFFFFFFFFFF DUP2 GT ISZERO PUSH2 0x11E3 JUMPI PUSH2 0x11E2 PUSH2 0xF83 JUMP JUMPDEST JUMPDEST PUSH2 0x11EF DUP8 DUP3 DUP9 ADD PUSH2 0x114E JUMP JUMPDEST SWAP2 POP POP SWAP3 SWAP6 SWAP2 SWAP5 POP SWAP3 POP JUMP JUMPDEST PUSH0 PUSH32 0xFFFFFFFF00000000000000000000000000000000000000000000000000000000 DUP3 AND SWAP1 POP SWAP2 SWAP1 POP JUMP JUMPDEST PUSH2 0x122F DUP2 PUSH2 0x11FB JUMP JUMPDEST DUP3 MSTORE POP POP JUMP JUMPDEST PUSH0 PUSH1 0x20 DUP3 ADD SWAP1 POP PUSH2 0x1248 PUSH0 DUP4 ADD DUP5 PUSH2 0x1226 JUMP JUMPDEST SWAP3 SWAP2 POP POP JUMP JUMPDEST PUSH0 PUSH1 0x20 DUP3 DUP5 SUB SLT ISZERO PUSH2 0x1263 JUMPI PUSH2 0x1262 PUSH2 0xF7F JUMP JUMPDEST JUMPDEST PUSH0 PUSH2 0x1270 DUP5 DUP3 DUP6 ADD PUSH2 0x102B JUMP JUMPDEST SWAP2 POP POP SWAP3 SWAP2 POP POP JUMP JUMPDEST PUSH0 DUP1 PUSH0 PUSH1 0x60 DUP5 DUP7 SUB SLT ISZERO PUSH2 0x1290 JUMPI PUSH2 0x128F PUSH2 0xF7F JUMP JUMPDEST JUMPDEST PUSH0 PUSH2 0x129D DUP7 DUP3 DUP8 ADD PUSH2 0x102B JUMP JUMPDEST SWAP4 POP POP PUSH1 0x20 PUSH2 0x12AE DUP7 DUP3 DUP8 ADD PUSH2 0x102B JUMP JUMPDEST SWAP3 POP POP PUSH1 0x40 PUSH2 0x12BF DUP7 DUP3 DUP8 ADD PUSH2 0xFA6 JUMP JUMPDEST SWAP2 POP POP SWAP3 POP SWAP3 POP SWAP3 JUMP JUMPDEST PUSH0 DUP2 MLOAD SWAP1 POP SWAP2 SWAP1 POP JUMP JUMPDEST PUSH0 DUP3 DUP3 MSTORE PUSH1 0x20 DUP3 ADD SWAP1 POP SWAP3 SWAP2 POP POP JUMP JUMPDEST PUSH0 JUMPDEST DUP4 DUP2 LT ISZERO PUSH2 0x1300 JUMPI DUP1 DUP3 ADD MLOAD DUP2 DUP5 ADD MSTORE PUSH1 0x20 DUP2 ADD SWAP1 POP PUSH2 0x12E5 JUMP JUMPDEST PUSH0 DUP5 DUP5 ADD MSTORE POP POP POP POP JUMP JUMPDEST PUSH0 PUSH2 0x1315 DUP3 PUSH2 0x12C9 JUMP JUMPDEST PUSH2 0x131F DUP2 DUP6 PUSH2 0x12D3 JUMP JUMPDEST SWAP4 POP PUSH2 0x132F DUP2 DUP6 PUSH1 0x20 DUP7 ADD PUSH2 0x12E3 JUMP JUMPDEST PUSH2 0x1338 DUP2 PUSH2 0x1047 JUMP JUMPDEST DUP5 ADD SWAP2 POP POP SWAP3 SWAP2 POP POP JUMP JUMPDEST PUSH0 PUSH1 0x20 DUP3 ADD SWAP1 POP DUP2 DUP2 SUB PUSH0 DUP4 ADD MSTORE PUSH2 0x135B DUP2 DUP5 PUSH2 0x130B JUMP JUMPDEST SWAP1 POP SWAP3 SWAP2 POP POP JUMP JUMPDEST PUSH2 0x136C DUP2 PUSH2 0xF87 JUMP JUMPDEST DUP3 MSTORE POP POP JUMP JUMPDEST PUSH0 PUSH1 0x20 DUP3 ADD SWAP1 POP PUSH2 0x1385 PUSH0 DUP4 ADD DUP5 PUSH2 0x1363 JUMP JUMPDEST SWAP3 SWAP2 POP POP JUMP JUMPDEST PUSH0 DUP1 PUSH1 0x40 DUP4 DUP6 SUB SLT ISZERO PUSH2 0x13A1 JUMPI PUSH2 0x13A0 PUSH2 0xF7F JUMP JUMPDEST JUMPDEST PUSH0 PUSH2 0x13AE DUP6 DUP3 DUP7 ADD PUSH2 0xFA6 JUMP JUMPDEST SWAP3 POP POP PUSH1 0x20 PUSH2 0x13BF DUP6 DUP3 DUP7 ADD PUSH2 0x102B JUMP JUMPDEST SWAP2 POP POP SWAP3 POP SWAP3 SWAP1 POP JUMP JUMPDEST PUSH32 0x69643D0000000000000000000000000000000000000000000000000000000000 DUP2 MSTORE POP JUMP JUMPDEST PUSH0 DUP2 SWAP1 POP SWAP3 SWAP2 POP POP JUMP JUMPDEST PUSH0 PUSH2 0x1403 DUP3 PUSH2 0x12C9 JUMP JUMPDEST PUSH2 0x140D DUP2 DUP6 PUSH2 0x13EF JUMP JUMPDEST SWAP4 POP PUSH2 0x141D DUP2 DUP6 PUSH1 0x20 DUP7 ADD PUSH2 0x12E3 JUMP JUMPDEST DUP1 DUP5 ADD SWAP2 POP POP SWAP3 SWAP2 POP POP JUMP JUMPDEST PUSH0 PUSH2 0x1433 DUP3 PUSH2 0x13C9 JUMP JUMPDEST PUSH1 0x3 DUP3 ADD SWAP2 POP PUSH2 0x1443 DUP3 DUP5 PUSH2 0x13F9 JUMP JUMPDEST SWAP2 POP DUP2 SWAP1 POP SWAP3 SWAP2 POP POP JUMP JUMPDEST PUSH2 0x1457 DUP2 PUSH2 0x1004 JUMP JUMPDEST DUP3 MSTORE POP POP JUMP JUMPDEST PUSH0 PUSH1 0x60 DUP3 ADD SWAP1 POP PUSH2 0x1470 PUSH0 DUP4 ADD DUP7 PUSH2 0x144E JUMP JUMPDEST PUSH2 0x147D PUSH1 0x20 DUP4 ADD DUP6 PUSH2 0x1363 JUMP JUMPDEST DUP2 DUP2 SUB PUSH1 0x40 DUP4 ADD MSTORE PUSH2 0x148F DUP2 DUP5 PUSH2 0x130B JUMP JUMPDEST SWAP1 POP SWAP5 SWAP4 POP POP POP POP JUMP JUMPDEST PUSH0 PUSH1 0x60 DUP3 ADD SWAP1 POP PUSH2 0x14AC PUSH0 DUP4 ADD DUP7 PUSH2 0x144E JUMP JUMPDEST PUSH2 0x14B9 PUSH1 0x20 DUP4 ADD DUP6 PUSH2 0x1363 JUMP JUMPDEST PUSH2 0x14C6 PUSH1 0x40 DUP4 ADD DUP5 PUSH2 0x144E JUMP JUMPDEST SWAP5 SWAP4 POP POP POP POP JUMP JUMPDEST PUSH32 0x4E487B7100000000000000000000000000000000000000000000000000000000 PUSH0 MSTORE PUSH1 0x11 PUSH1 0x4 MSTORE PUSH1 0x24 PUSH0 REVERT JUMPDEST PUSH0 PUSH2 0x1505 DUP3 PUSH2 0xF87 JUMP JUMPDEST SWAP2 POP PUSH32 0xFFFFFFFFFFFFFFFFFFFFFFFFFFFFFFFFFFFFFFFFFFFFFFFFFFFFFFFFFFFFFFFF DUP3 SUB PUSH2 0x1537 JUMPI PUSH2 0x1536 PUSH2 0x14CE JUMP JUMPDEST JUMPDEST PUSH1 0x1 DUP3 ADD SWAP1 POP SWAP2 SWAP1 POP JUMP JUMPDEST PUSH32 0x2C00000000000000000000000000000000000000000000000000000000000000 DUP2 MSTORE POP JUMP JUMPDEST PUSH0 PUSH2 0x1573 DUP3 DUP8 PUSH2 0x13F9 JUMP JUMPDEST SWAP2 POP PUSH2 0x157E DUP3 PUSH2 0x1542 JUMP JUMPDEST PUSH1 0x1 DUP3 ADD SWAP2 POP PUSH2 0x158E DUP3 DUP7 PUSH2 0x13F9 JUMP JUMPDEST SWAP2 POP PUSH2 0x1599 DUP3 PUSH2 0x1542 JUMP JUMPDEST PUSH1 0x1 DUP3 ADD SWAP2 POP PUSH2 0x15A9 DUP3 DUP6 PUSH2 0x13F9 JUMP JUMPDEST SWAP2 POP PUSH2 0x15B4 DUP3 PUSH2 0x1542 JUMP JUMPDEST PUSH1 0x1 DUP3 ADD SWAP2 POP PUSH2 0x15C4 DUP3 DUP5 PUSH2 0x13F9 JUMP JUMPDEST SWAP2 POP DUP2 SWAP1 POP SWAP6 SWAP5 POP POP POP POP POP JUMP JUMPDEST PUSH0 PUSH1 0x40 DUP3 ADD SWAP1 POP PUSH2 0x15E5 PUSH0 DUP4 ADD DUP6 PUSH2 0x144E JUMP JUMPDEST DUP2 DUP2 SUB PUSH1 0x20 DUP4 ADD MSTORE PUSH2 0x15F7 DUP2 DUP5 PUSH2 0x130B JUMP JUMPDEST SWAP1 POP SWAP4 SWAP3 POP POP POP JUMP JUMPDEST PUSH0 DUP2 MLOAD SWAP1 POP PUSH2 0x160E DUP2 PUSH2 0xF90 JUMP JUMPDEST SWAP3 SWAP2 POP POP JUMP JUMPDEST PUSH0 PUSH1 0x20 DUP3 DUP5 SUB SLT ISZERO PUSH2 0x1629 JUMPI PUSH2 0x1628 PUSH2 0xF7F JUMP JUMPDEST JUMPDEST PUSH0 PUSH2 0x1636 DUP5 DUP3 DUP6 ADD PUSH2 0x1600 JUMP JUMPDEST SWAP2 POP POP SWAP3 SWAP2 POP POP JUMP JUMPDEST PUSH32 0x67726F757049643D000000000000000000000000000000000000000000000000 DUP2 MSTORE POP JUMP JUMPDEST PUSH0 PUSH2 0x166F DUP3 PUSH2 0x163F JUMP JUMPDEST PUSH1 0x8 DUP3 ADD SWAP2 POP PUSH2 0x167F DUP3 DUP5 PUSH2 0x13F9 JUMP JUMPDEST SWAP2 POP DUP2 SWAP1 POP SWAP3 SWAP2 POP POP JUMP JUMPDEST PUSH32 0x4E487B7100000000000000000000000000000000000000000000000000000000 PUSH0 MSTORE PUSH1 0x12 PUSH1 0x4 MSTORE PUSH1 0x24 PUSH0 REVERT JUMPDEST PUSH32 0x44454C4554452046524F4D200000000000000000000000000000000000000000 PUSH0 DUP3 ADD MSTORE POP JUMP JUMPDEST PUSH0 PUSH2 0x16EB PUSH1 0xC DUP4 PUSH2 0x13EF JUMP JUMPDEST SWAP2 POP PUSH2 0x16F6 DUP3 PUSH2 0x16B7 JUMP JUMPDEST PUSH1 0xC DUP3 ADD SWAP1 POP SWAP2 SWAP1 POP JUMP JUMPDEST PUSH32 0x2057484552452000000000000000000000000000000000000000000000000000 PUSH0 DUP3 ADD MSTORE POP JUMP JUMPDEST PUSH0 PUSH2 0x1735 PUSH1 0x7 DUP4 PUSH2 0x13EF JUMP JUMPDEST SWAP2 POP PUSH2 0x1740 DUP3 PUSH2 0x1701 JUMP JUMPDEST PUSH1 0x7 DUP3 ADD SWAP1 POP SWAP2 SWAP1 POP JUMP JUMPDEST PUSH0 PUSH2 0x1755 DUP3 PUSH2 0x16DF JUMP JUMPDEST SWAP2 POP PUSH2 0x1761 DUP3 DUP6 PUSH2 0x13F9 JUMP JUMPDEST SWAP2 POP PUSH2 0x176C DUP3 PUSH2 0x1729 JUMP JUMPDEST SWAP2 POP PUSH2 0x1778 DUP3 DUP5 PUSH2 0x13F9 JUMP JUMPDEST SWAP2 POP DUP2 SWAP1 POP SWAP4 SWAP3 POP POP POP JUMP JUMPDEST PUSH32 0x2700000000000000000000000000000000000000000000000000000000000000 PUSH0 DUP3 ADD MSTORE POP JUMP JUMPDEST PUSH0 PUSH2 0x17B8 PUSH1 0x1 DUP4 PUSH2 0x13EF JUMP JUMPDEST SWAP2 POP PUSH2 0x17C3 DUP3 PUSH2 0x1784 JUMP JUMPDEST PUSH1 0x1 DUP3 ADD SWAP1 POP SWAP2 SWAP1 POP JUMP JUMPDEST PUSH0 PUSH2 0x17D8 DUP3 PUSH2 0x17AC JUMP JUMPDEST SWAP2 POP PUSH2 0x17E4 DUP3 DUP5 PUSH2 0x13F9 JUMP JUMPDEST SWAP2 POP PUSH2 0x17EF DUP3 PUSH2 0x17AC JUMP JUMPDEST SWAP2 POP DUP2 SWAP1 POP SWAP3 SWAP2 POP POP JUMP JUMPDEST PUSH32 0x494E5345525420494E544F200000000000000000000000000000000000000000 PUSH0 DUP3 ADD MSTORE POP JUMP JUMPDEST PUSH0 PUSH2 0x182E PUSH1 0xC DUP4 PUSH2 0x13EF JUMP JUMPDEST SWAP2 POP PUSH2 0x1839 DUP3 PUSH2 0x17FA JUMP JUMPDEST PUSH1 0xC DUP3 ADD SWAP1 POP SWAP2 SWAP1 POP JUMP JUMPDEST PUSH32 0x2800000000000000000000000000000000000000000000000000000000000000 PUSH0 DUP3 ADD MSTORE POP JUMP JUMPDEST PUSH0 PUSH2 0x1878 PUSH1 0x1 DUP4 PUSH2 0x13EF JUMP JUMPDEST SWAP2 POP PUSH2 0x1883 DUP3 PUSH2 0x1844 JUMP JUMPDEST PUSH1 0x1 DUP3 ADD SWAP1 POP SWAP2 SWAP1 POP JUMP JUMPDEST PUSH32 0x2956414C55455328000000000000000000000000000000000000000000000000 PUSH0 DUP3 ADD MSTORE POP JUMP JUMPDEST PUSH0 PUSH2 0x18C2 PUSH1 0x8 DUP4 PUSH2 0x13EF JUMP JUMPDEST SWAP2 POP PUSH2 0x18CD DUP3 PUSH2 0x188E JUMP JUMPDEST PUSH1 0x8 DUP3 ADD SWAP1 POP SWAP2 SWAP1 POP JUMP JUMPDEST PUSH32 0x2900000000000000000000000000000000000000000000000000000000000000 PUSH0 DUP3 ADD MSTORE POP JUMP JUMPDEST PUSH0 PUSH2 0x190C PUSH1 0x1 DUP4 PUSH2 0x13EF JUMP JUMPDEST SWAP2 POP PUSH2 0x1917 DUP3 PUSH2 0x18D8 JUMP JUMPDEST PUSH1 0x1 DUP3 ADD SWAP1 POP SWAP2 SWAP1 POP JUMP JUMPDEST PUSH0 PUSH2 0x192C DUP3 PUSH2 0x1822 JUMP JUMPDEST SWAP2 POP PUSH2 0x1938 DUP3 DUP7 PUSH2 0x13F9 JUMP JUMPDEST SWAP2 POP PUSH2 0x1943 DUP3 PUSH2 0x186C JUMP JUMPDEST SWAP2 POP PUSH2 0x194F DUP3 DUP6 PUSH2 0x13F9 JUMP JUMPDEST SWAP2 POP PUSH2 0x195A DUP3 PUSH2 0x18B6 JUMP JUMPDEST SWAP2 POP PUSH2 0x1966 DUP3 DUP5 PUSH2 0x13F9 JUMP JUMPDEST SWAP2 POP PUSH2 0x1971 DUP3 PUSH2 0x1900 JUMP JUMPDEST SWAP2 POP DUP2 SWAP1 POP SWAP5 SWAP4 POP POP POP POP JUMP JUMPDEST PUSH0 PUSH2 0x1988 DUP3 PUSH2 0xF87 JUMP JUMPDEST SWAP2 POP PUSH2 0x1993 DUP4 PUSH2 0xF87 JUMP JUMPDEST SWAP3 POP DUP3 DUP3 MUL PUSH2 0x19A1 DUP2 PUSH2 0xF87 JUMP JUMPDEST SWAP2 POP DUP3 DUP3 DIV DUP5 EQ DUP4 ISZERO OR PUSH2 0x19B8 JUMPI PUSH2 0x19B7 PUSH2 0x14CE JUMP JUMPDEST JUMPDEST POP SWAP3 SWAP2 POP POP JUMP JUMPDEST PUSH0 PUSH2 0x19C9 DUP3 PUSH2 0xF87 JUMP JUMPDEST SWAP2 POP PUSH2 0x19D4 DUP4 PUSH2 0xF87 JUMP JUMPDEST SWAP3 POP DUP3 DUP3 ADD SWAP1 POP DUP1 DUP3 GT ISZERO PUSH2 0x19EC JUMPI PUSH2 0x19EB PUSH2 0x14CE JUMP JUMPDEST JUMPDEST SWAP3 SWAP2 POP POP JUMP JUMPDEST PUSH32 0x4E487B7100000000000000000000000000000000000000000000000000000000 PUSH0 MSTORE PUSH1 0x32 PUSH1 0x4 MSTORE PUSH1 0x24 PUSH0 REVERT JUMPDEST PUSH0 PUSH2 0x1A29 DUP3 PUSH2 0xF87 JUMP JUMPDEST SWAP2 POP PUSH0 DUP3 SUB PUSH2 0x1A3B JUMPI PUSH2 0x1A3A PUSH2 0x14CE JUMP JUMPDEST JUMPDEST PUSH1 0x1 DUP3 SUB SWAP1 POP SWAP2 SWAP1 POP JUMP JUMPDEST PUSH0 PUSH1 0x40 DUP3 ADD SWAP1 POP PUSH2 0x1A59 PUSH0 DUP4 ADD DUP6 PUSH2 0x1363 JUMP JUMPDEST PUSH2 0x1A66 PUSH1 0x20 DUP4 ADD DUP5 PUSH2 0x1363 JUMP JUMPDEST SWAP4 SWAP3 POP POP POP JUMP JUMPDEST PUSH32 0x5F00000000000000000000000000000000000000000000000000000000000000 PUSH0 DUP3 ADD MSTORE POP JUMP JUMPDEST PUSH0 PUSH2 0x1AA1 PUSH1 0x1 DUP4 PUSH2 0x13EF JUMP JUMPDEST SWAP2 POP PUSH2 0x1AAC DUP3 PUSH2 0x1A6D JUMP JUMPDEST PUSH1 0x1 DUP3 ADD SWAP1 POP SWAP2 SWAP1 POP JUMP JUMPDEST PUSH0 PUSH2 0x1AC2 DUP3 DUP7 PUSH2 0x13F9 JUMP JUMPDEST SWAP2 POP PUSH2 0x1ACD DUP3 PUSH2 0x1A95 JUMP JUMPDEST SWAP2 POP PUSH2 0x1AD9 DUP3 DUP6 PUSH2 0x13F9 JUMP JUMPDEST SWAP2 POP PUSH2 0x1AE4 DUP3 PUSH2 0x1A95 JUMP JUMPDEST SWAP2 POP PUSH2 0x1AF0 DUP3 DUP5 PUSH2 0x13F9 JUMP JUMPDEST SWAP2 POP DUP2 SWAP1 POP SWAP5 SWAP4 POP POP POP POP JUMP JUMPDEST PUSH32 0x435245415445205441424C452000000000000000000000000000000000000000 PUSH0 DUP3 ADD MSTORE POP JUMP JUMPDEST PUSH0 PUSH2 0x1B31 PUSH1 0xD DUP4 PUSH2 0x13EF JUMP JUMPDEST SWAP2 POP PUSH2 0x1B3C DUP3 PUSH2 0x1AFD JUMP JUMPDEST PUSH1 0xD DUP3 ADD SWAP1 POP SWAP2 SWAP1 POP JUMP JUMPDEST PUSH0 PUSH2 0x1B51 DUP3 PUSH2 0x1B25 JUMP JUMPDEST SWAP2 POP PUSH2 0x1B5D DUP3 DUP7 PUSH2 0x13F9 JUMP JUMPDEST SWAP2 POP PUSH2 0x1B68 DUP3 PUSH2 0x1A95 JUMP JUMPDEST SWAP2 POP PUSH2 0x1B74 DUP3 DUP6 PUSH2 0x13F9 JUMP JUMPDEST SWAP2 POP PUSH2 0x1B7F DUP3 PUSH2 0x186C JUMP JUMPDEST SWAP2 POP PUSH2 0x1B8B DUP3 DUP5 PUSH2 0x13F9 JUMP JUMPDEST SWAP2 POP PUSH2 0x1B96 DUP3 PUSH2 0x1900 JUMP JUMPDEST SWAP2 POP DUP2 SWAP1 POP SWAP5 SWAP4 POP POP POP POP JUMP JUMPDEST PUSH0 PUSH2 0x1BAD DUP3 PUSH2 0x1729 JUMP JUMPDEST SWAP2 POP PUSH2 0x1BB9 DUP3 DUP5 PUSH2 0x13F9 JUMP JUMPDEST SWAP2 POP DUP2 SWAP1 POP SWAP3 SWAP2 POP POP JUMP JUMPDEST PUSH32 0x5550444154452000000000000000000000000000000000000000000000000000 PUSH0 DUP3 ADD MSTORE POP JUMP JUMPDEST PUSH0 PUSH2 0x1BF8 PUSH1 0x7 DUP4 PUSH2 0x13EF JUMP JUMPDEST SWAP2 POP PUSH2 0x1C03 DUP3 PUSH2 0x1BC4 JUMP JUMPDEST PUSH1 0x7 DUP3 ADD SWAP1 POP SWAP2 SWAP1 POP JUMP JUMPDEST PUSH32 0x2053455420000000000000000000000000000000000000000000000000000000 PUSH0 DUP3 ADD MSTORE POP JUMP JUMPDEST PUSH0 PUSH2 0x1C42 PUSH1 0x5 DUP4 PUSH2 0x13EF JUMP JUMPDEST SWAP2 POP PUSH2 0x1C4D DUP3 PUSH2 0x1C0E JUMP JUMPDEST PUSH1 0x5 DUP3 ADD SWAP1 POP SWAP2 SWAP1 POP JUMP JUMPDEST PUSH0 PUSH2 0x1C62 DUP3 PUSH2 0x1BEC JUMP JUMPDEST SWAP2 POP PUSH2 0x1C6E DUP3 DUP7 PUSH2 0x13F9 JUMP JUMPDEST SWAP2 POP PUSH2 0x1C79 DUP3 PUSH2 0x1C36 JUMP JUMPDEST SWAP2 POP PUSH2 0x1C85 DUP3 DUP6 PUSH2 0x13F9 JUMP JUMPDEST SWAP2 POP PUSH2 0x1C91 DUP3 DUP5 PUSH2 0x13F9 JUMP JUMPDEST SWAP2 POP DUP2 SWAP1 POP SWAP5 SWAP4 POP POP POP POP JUMP INVALID PUSH10 0x6420696E746567657220 PUSH17 0x72696D617279206B65792C6F776E657220 PUSH21 0x6578742C726F756E64496420696E74656765722C67 PUSH19 0x6F757049642074657874A26469706673582212 KECCAK256 PUSH25 0xF2E6D975D9EA6E0052CF721303015B9E5D6CF26E8F04C22511 0xF ORIGIN 0xB2 BYTE PUSH19 0x9264736F6C6343000814003300000000000000 "
		},
		"gasEstimates": {
			"creation": {
				"codeDepositCost": "1488400",
				"executionCost": "6558",
				"totalCost": "1494958"
			},
			"external": {
				"createTable()": "infinite",
				"deleteFromTable(uint256)": "infinite",
				"getAddressString(address)": "infinite",
				"getTableId()": "2476",
				"getTableName()": "infinite",
				"insertIntoTable(address,address,uint256)": "infinite",
				"onERC721Received(address,address,uint256,bytes)": "infinite",
				"setAccessControl(address)": "infinite",
				"updateTable(uint256,address)": "infinite"
			}
		},
		"methodIdentifiers": {
			"createTable()": "b2a4c897",
			"deleteFromTable(uint256)": "04bfc47f",
			"getAddressString(address)": "3e295859",
			"getTableId()": "88e4f1cb",
			"getTableName()": "5d5a33a2",
			"insertIntoTable(address,address,uint256)": "1e2dd199",
			"onERC721Received(address,address,uint256,bytes)": "150b7a02",
			"setAccessControl(address)": "19129e5a",
			"updateTable(uint256,address)": "e86492b1"
		}
	},
	"abi": [
		{
			"inputs": [
				{
					"internalType": "uint256",
					"name": "chainid",
					"type": "uint256"
				}
			],
			"name": "ChainNotSupported",
			"type": "error"
		},
		{
			"inputs": [
				{
					"internalType": "uint256",
					"name": "value",
					"type": "uint256"
				},
				{
					"internalType": "uint256",
					"name": "length",
					"type": "uint256"
				}
			],
			"name": "StringsInsufficientHexLength",
			"type": "error"
		},
		{
			"inputs": [],
			"name": "createTable",
			"outputs": [],
			"stateMutability": "payable",
			"type": "function"
		},
		{
			"inputs": [
				{
					"internalType": "uint256",
					"name": "id",
					"type": "uint256"
				}
			],
			"name": "deleteFromTable",
			"outputs": [],
			"stateMutability": "nonpayable",
			"type": "function"
		},
		{
			"inputs": [
				{
					"internalType": "address",
					"name": "m",
					"type": "address"
				}
			],
			"name": "getAddressString",
			"outputs": [
				{
					"internalType": "string",
					"name": "",
					"type": "string"
				}
			],
			"stateMutability": "pure",
			"type": "function"
		},
		{
			"inputs": [],
			"name": "getTableId",
			"outputs": [
				{
					"internalType": "uint256",
					"name": "",
					"type": "uint256"
				}
			],
			"stateMutability": "view",
			"type": "function"
		},
		{
			"inputs": [],
			"name": "getTableName",
			"outputs": [
				{
					"internalType": "string",
					"name": "",
					"type": "string"
				}
			],
			"stateMutability": "view",
			"type": "function"
		},
		{
			"inputs": [
				{
					"internalType": "address",
					"name": "groupId",
					"type": "address"
				},
				{
					"internalType": "address",
					"name": "memberAddress",
					"type": "address"
				},
				{
					"internalType": "uint256",
					"name": "roundId",
					"type": "uint256"
				}
			],
			"name": "insertIntoTable",
			"outputs": [],
			"stateMutability": "nonpayable",
			"type": "function"
		},
		{
			"inputs": [
				{
					"internalType": "address",
					"name": "",
					"type": "address"
				},
				{
					"internalType": "address",
					"name": "",
					"type": "address"
				},
				{
					"internalType": "uint256",
					"name": "",
					"type": "uint256"
				},
				{
					"internalType": "bytes",
					"name": "",
					"type": "bytes"
				}
			],
			"name": "onERC721Received",
			"outputs": [
				{
					"internalType": "bytes4",
					"name": "",
					"type": "bytes4"
				}
			],
			"stateMutability": "nonpayable",
			"type": "function"
		},
		{
			"inputs": [
				{
					"internalType": "address",
					"name": "controller",
					"type": "address"
				}
			],
			"name": "setAccessControl",
			"outputs": [],
			"stateMutability": "nonpayable",
			"type": "function"
		},
		{
			"inputs": [
				{
					"internalType": "uint256",
					"name": "id",
					"type": "uint256"
				},
				{
					"internalType": "address",
					"name": "groupId",
					"type": "address"
				}
			],
			"name": "updateTable",
			"outputs": [],
			"stateMutability": "nonpayable",
			"type": "function"
		}
	]
}