{
	"data": {
		"bytecode": {
			"linkReferences": {},
			"object": "60806040525f600155348015610013575f80fd5b50611d66806100215f395ff3fe608060405260043610610085575f3560e01c80635d5a33a2116100585780635d5a33a21461015157806388e4f1cb1461017b578063b2a4c897146101a5578063e86492b1146101af578063f8ae673b146101d757610085565b806304bfc47f14610089578063150b7a02146100b157806319129e5a146100ed5780633e29585914610115575b5f80fd5b348015610094575f80fd5b506100af60048036038101906100aa9190610fa8565b6101ff565b005b3480156100bc575f80fd5b506100d760048036038101906100d29190611169565b6102e0565b6040516100e49190611223565b60405180910390f35b3480156100f8575f80fd5b50610113600480360381019061010e919061123c565b6102f3565b005b348015610120575f80fd5b5061013b6004803603810190610136919061123c565b610368565b60405161014891906112e1565b60405180910390f35b34801561015c575f80fd5b50610165610392565b60405161017291906112e1565b60405180910390f35b348015610186575f80fd5b5061018f6103d9565b60405161019c9190611310565b60405180910390f35b6101ad6103e1565b005b3480156101ba575f80fd5b506101d560048036038101906101d09190611329565b6104c0565b005b3480156101e2575f80fd5b506101fd60048036038101906101f89190611367565b6105d7565b005b5f61020982610726565b604051602001610219919061142b565b60405160208183030381529060405290506102326107f0565b73ffffffffffffffffffffffffffffffffffffffff1663377af0da305f546102916040518060400160405280601781526020017f737573755f636f6e747269627574696f6e5f7461626c650000000000000000008152505f5487610a15565b6040518463ffffffff1660e01b81526004016102af9392919061145f565b5f604051808303815f87803b1580156102c6575f80fd5b505af11580156102d8573d5f803e3d5ffd5b505050505050565b5f63150b7a0260e01b9050949350505050565b6102fb6107f0565b73ffffffffffffffffffffffffffffffffffffffff16638bb0ab97305f54846040518463ffffffff1660e01b81526004016103389392919061149b565b5f604051808303815f87803b15801561034f575f80fd5b505af1158015610361573d5f803e3d5ffd5b5050505050565b606061038b8273ffffffffffffffffffffffffffffffffffffffff166014610a50565b9050919050565b60606103d46040518060400160405280601781526020017f737573755f636f6e747269627574696f6e5f7461626c650000000000000000008152505f54610c8e565b905090565b5f8054905090565b6103e96107f0565b73ffffffffffffffffffffffffffffffffffffffff1663a15ab08d3061045c6040518060800160405280604f8152602001611ce2604f91396040518060400160405280601781526020017f737573755f636f6e747269627574696f6e5f7461626c65000000000000000000815250610ccc565b6040518363ffffffff1660e01b81526004016104799291906114d0565b6020604051808303815f875af1158015610495573d5f803e3d5ffd5b505050506040513d601f19601f820116820180604052508101906104b99190611512565b5f81905550565b5f6104d26104cd83610d02565b610d2f565b6040516020016104e29190611563565b60405160208183030381529060405290505f6104fd84610726565b60405160200161050d919061142b565b60405160208183030381529060405290506105266107f0565b73ffffffffffffffffffffffffffffffffffffffff1663377af0da305f546105866040518060400160405280601781526020017f737573755f636f6e747269627574696f6e5f7461626c650000000000000000008152505f548888610d58565b6040518463ffffffff1660e01b81526004016105a49392919061145f565b5f604051808303815f87803b1580156105bb575f80fd5b505af11580156105cd573d5f803e3d5ffd5b5050505050505050565b5f6105e184610d02565b90505f6105ed86610d02565b90506105f76107f0565b73ffffffffffffffffffffffffffffffffffffffff1663377af0da305f546106d36040518060400160405280601781526020017f737573755f636f6e747269627574696f6e5f7461626c650000000000000000008152505f54604051806060016040528060258152602001611cbd6025913961068760015f81548092919061067e906115b5565b91905055610726565b6106908a610d2f565b6106998c610d2f565b6106a28f610726565b6106ab8f610726565b6040516020016106bf959493929190611622565b604051602081830303815290604052610dd5565b6040518463ffffffff1660e01b81526004016106f19392919061145f565b5f604051808303815f87803b158015610708575f80fd5b505af115801561071a573d5f803e3d5ffd5b50505050505050505050565b60605f600161073484610e13565b0190505f8167ffffffffffffffff81111561075257610751611045565b5b6040519080825280601f01601f1916602001820160405280156107845781602001600182028036833780820191505090505b5090505f82602001820190505b6001156107e5578080600190039150507f3031323334353637383961626364656600000000000000000000000000000000600a86061a8153600a85816107da576107d96116a8565b5b0494505f8503610791575b819350505050919050565b5f600146036108155773012969f7e3439a9b04025b5a049eb9bad82a8c129050610a12565b600a46036108395773fad44bf5b843de943a09d4f3e84949a11d3aa3e69050610a12565b61a4b1460361085e57739abd75e8640871a5a20d3b4ee6330a04c962affd9050610a12565b61a4ba460361088357731a22854c5b1642760a827f20137a67930ae108d29050610a12565b608946036108a757735c4e6a9e5c1e1bf445a062006faf19ea6c49afea9050610a12565b61013a46036108cc577359ef8bf2d6c102b4c42aef9189e1a9f0abfd652d9050610a12565b62aa36a746036108f25773c50c62498448acc8dbde43da77f8d5d2e2c7597d9050610a12565b62aa37dc4603610918577368a2f4423ad3bf5139db563cf3bc80aa09ed70799050610a12565b62066eee460361093e5773223a74b8323914afdc3ff1e5005564dc17231d6e9050610a12565b62014a3446036109645773a85aae9f0aec5f5638e5f13840797303ab29c9f99050610a12565b62013882460361098a5773170fb206132b693e38adfc8727dcfa303546cec19050610a12565b6204cb2f46036109b05773030bcf3d50cad04c2e57391b12740982a93086219050610a12565b617a6946036109d55773e7f1725e7734ce288f8367e1bb143e90bb3f05129050610a12565b466040517f264e42cf000000000000000000000000000000000000000000000000000000008152600401610a099190611310565b60405180910390fd5b90565b60605f610a228585610c8e565b90508083604051602001610a37929190611769565b6040516020818303038152906040529150509392505050565b60605f8390505f6002846002610a6691906117a2565b610a7091906117e3565b67ffffffffffffffff811115610a8957610a88611045565b5b6040519080825280601f01601f191660200182016040528015610abb5781602001600182028036833780820191505090505b5090507f3000000000000000000000000000000000000000000000000000000000000000815f81518110610af257610af1611816565b5b60200101907effffffffffffffffffffffffffffffffffffffffffffffffffffffffffffff191690815f1a9053507f780000000000000000000000000000000000000000000000000000000000000081600181518110610b5557610b54611816565b5b60200101907effffffffffffffffffffffffffffffffffffffffffffffffffffffffffffff191690815f1a9053505f6001856002610b9391906117a2565b610b9d91906117e3565b90505b6001811115610c3c577f3031323334353637383961626364656600000000000000000000000000000000600f841660108110610bdf57610bde611816565b5b1a60f81b828281518110610bf657610bf5611816565b5b60200101907effffffffffffffffffffffffffffffffffffffffffffffffffffffffffffff191690815f1a905350600483901c925080610c3590611843565b9050610ba0565b505f8214610c835784846040517fe22e27eb000000000000000000000000000000000000000000000000000000008152600401610c7a92919061186a565b60405180910390fd5b809250505092915050565b606082610c9a46610726565b610ca384610726565b604051602001610cb5939291906118db565b604051602081830303815290604052905092915050565b606081610cd846610726565b84604051602001610ceb939291906119ff565b604051602081830303815290604052905092915050565b6060610d288273ffffffffffffffffffffffffffffffffffffffff16601460ff16610a50565b9050919050565b606081604051602001610d429190611aa5565b6040516020818303038152906040529050919050565b60605f610d658686610c8e565b90505f60405180602001604052805f81525090505f84511115610da55783604051602001610d939190611ad1565b60405160208183030381529060405290505b818582604051602001610dba93929190611b86565b60405160208183030381529060405292505050949350505050565b60605f610de28686610c8e565b9050808484604051602001610df993929190611c60565b604051602081830303815290604052915050949350505050565b5f805f90507a184f03e93ff9f4daa797ed6e38ed64bf6a1f0100000000000000008310610e6f577a184f03e93ff9f4daa797ed6e38ed64bf6a1f0100000000000000008381610e6557610e646116a8565b5b0492506040810190505b6d04ee2d6d415b85acef81000000008310610eac576d04ee2d6d415b85acef81000000008381610ea257610ea16116a8565b5b0492506020810190505b662386f26fc100008310610edb57662386f26fc100008381610ed157610ed06116a8565b5b0492506010810190505b6305f5e1008310610f04576305f5e1008381610efa57610ef96116a8565b5b0492506008810190505b6127108310610f29576127108381610f1f57610f1e6116a8565b5b0492506004810190505b60648310610f4c5760648381610f4257610f416116a8565b5b0492506002810190505b600a8310610f5b576001810190505b80915050919050565b5f604051905090565b5f80fd5b5f80fd5b5f819050919050565b610f8781610f75565b8114610f91575f80fd5b50565b5f81359050610fa281610f7e565b92915050565b5f60208284031215610fbd57610fbc610f6d565b5b5f610fca84828501610f94565b91505092915050565b5f73ffffffffffffffffffffffffffffffffffffffff82169050919050565b5f610ffc82610fd3565b9050919050565b61100c81610ff2565b8114611016575f80fd5b50565b5f8135905061102781611003565b92915050565b5f80fd5b5f80fd5b5f601f19601f8301169050919050565b7f4e487b71000000000000000000000000000000000000000000000000000000005f52604160045260245ffd5b61107b82611035565b810181811067ffffffffffffffff8211171561109a57611099611045565b5b80604052505050565b5f6110ac610f64565b90506110b88282611072565b919050565b5f67ffffffffffffffff8211156110d7576110d6611045565b5b6110e082611035565b9050602081019050919050565b828183375f83830152505050565b5f61110d611108846110bd565b6110a3565b90508281526020810184848401111561112957611128611031565b5b6111348482856110ed565b509392505050565b5f82601f8301126111505761114f61102d565b5b81356111608482602086016110fb565b91505092915050565b5f805f806080858703121561118157611180610f6d565b5b5f61118e87828801611019565b945050602061119f87828801611019565b93505060406111b087828801610f94565b925050606085013567ffffffffffffffff8111156111d1576111d0610f71565b5b6111dd8782880161113c565b91505092959194509250565b5f7fffffffff0000000000000000000000000000000000000000000000000000000082169050919050565b61121d816111e9565b82525050565b5f6020820190506112365f830184611214565b92915050565b5f6020828403121561125157611250610f6d565b5b5f61125e84828501611019565b91505092915050565b5f81519050919050565b5f82825260208201905092915050565b5f5b8381101561129e578082015181840152602081019050611283565b5f8484015250505050565b5f6112b382611267565b6112bd8185611271565b93506112cd818560208601611281565b6112d681611035565b840191505092915050565b5f6020820190508181035f8301526112f981846112a9565b905092915050565b61130a81610f75565b82525050565b5f6020820190506113235f830184611301565b92915050565b5f806040838503121561133f5761133e610f6d565b5b5f61134c85828601610f94565b925050602061135d85828601611019565b9150509250929050565b5f805f806080858703121561137f5761137e610f6d565b5b5f61138c87828801611019565b945050602061139d87828801611019565b93505060406113ae87828801610f94565b92505060606113bf87828801610f94565b91505092959194509250565b7f69643d0000000000000000000000000000000000000000000000000000000000815250565b5f81905092915050565b5f61140582611267565b61140f81856113f1565b935061141f818560208601611281565b80840191505092915050565b5f611435826113cb565b60038201915061144582846113fb565b915081905092915050565b61145981610ff2565b82525050565b5f6060820190506114725f830186611450565b61147f6020830185611301565b818103604083015261149181846112a9565b9050949350505050565b5f6060820190506114ae5f830186611450565b6114bb6020830185611301565b6114c86040830184611450565b949350505050565b5f6040820190506114e35f830185611450565b81810360208301526114f581846112a9565b90509392505050565b5f8151905061150c81610f7e565b92915050565b5f6020828403121561152757611526610f6d565b5b5f611534848285016114fe565b91505092915050565b7f67726f757049643d000000000000000000000000000000000000000000000000815250565b5f61156d8261153d565b60088201915061157d82846113fb565b915081905092915050565b7f4e487b71000000000000000000000000000000000000000000000000000000005f52601160045260245ffd5b5f6115bf82610f75565b91507fffffffffffffffffffffffffffffffffffffffffffffffffffffffffffffffff82036115f1576115f0611588565b5b600182019050919050565b7f2c00000000000000000000000000000000000000000000000000000000000000815250565b5f61162d82886113fb565b9150611638826115fc565b60018201915061164882876113fb565b9150611653826115fc565b60018201915061166382866113fb565b915061166e826115fc565b60018201915061167e82856113fb565b9150611689826115fc565b60018201915061169982846113fb565b91508190509695505050505050565b7f4e487b71000000000000000000000000000000000000000000000000000000005f52601260045260245ffd5b7f44454c4554452046524f4d2000000000000000000000000000000000000000005f82015250565b5f611709600c836113f1565b9150611714826116d5565b600c82019050919050565b7f20574845524520000000000000000000000000000000000000000000000000005f82015250565b5f6117536007836113f1565b915061175e8261171f565b600782019050919050565b5f611773826116fd565b915061177f82856113fb565b915061178a82611747565b915061179682846113fb565b91508190509392505050565b5f6117ac82610f75565b91506117b783610f75565b92508282026117c581610f75565b915082820484148315176117dc576117db611588565b5b5092915050565b5f6117ed82610f75565b91506117f883610f75565b92508282019050808211156118105761180f611588565b5b92915050565b7f4e487b71000000000000000000000000000000000000000000000000000000005f52603260045260245ffd5b5f61184d82610f75565b91505f820361185f5761185e611588565b5b600182039050919050565b5f60408201905061187d5f830185611301565b61188a6020830184611301565b9392505050565b7f5f000000000000000000000000000000000000000000000000000000000000005f82015250565b5f6118c56001836113f1565b91506118d082611891565b600182019050919050565b5f6118e682866113fb565b91506118f1826118b9565b91506118fd82856113fb565b9150611908826118b9565b915061191482846113fb565b9150819050949350505050565b7f435245415445205441424c4520000000000000000000000000000000000000005f82015250565b5f611955600d836113f1565b915061196082611921565b600d82019050919050565b7f28000000000000000000000000000000000000000000000000000000000000005f82015250565b5f61199f6001836113f1565b91506119aa8261196b565b600182019050919050565b7f29000000000000000000000000000000000000000000000000000000000000005f82015250565b5f6119e96001836113f1565b91506119f4826119b5565b600182019050919050565b5f611a0982611949565b9150611a1582866113fb565b9150611a20826118b9565b9150611a2c82856113fb565b9150611a3782611993565b9150611a4382846113fb565b9150611a4e826119dd565b9150819050949350505050565b7f27000000000000000000000000000000000000000000000000000000000000005f82015250565b5f611a8f6001836113f1565b9150611a9a82611a5b565b600182019050919050565b5f611aaf82611a83565b9150611abb82846113fb565b9150611ac682611a83565b915081905092915050565b5f611adb82611747565b9150611ae782846113fb565b915081905092915050565b7f55504441544520000000000000000000000000000000000000000000000000005f82015250565b5f611b266007836113f1565b9150611b3182611af2565b600782019050919050565b7f20534554200000000000000000000000000000000000000000000000000000005f82015250565b5f611b706005836113f1565b9150611b7b82611b3c565b600582019050919050565b5f611b9082611b1a565b9150611b9c82866113fb565b9150611ba782611b64565b9150611bb382856113fb565b9150611bbf82846113fb565b9150819050949350505050565b7f494e5345525420494e544f2000000000000000000000000000000000000000005f82015250565b5f611c00600c836113f1565b9150611c0b82611bcc565b600c82019050919050565b7f2956414c554553280000000000000000000000000000000000000000000000005f82015250565b5f611c4a6008836113f1565b9150611c5582611c16565b600882019050919050565b5f611c6a82611bf4565b9150611c7682866113fb565b9150611c8182611993565b9150611c8d82856113fb565b9150611c9882611c3e565b9150611ca482846113fb565b9150611caf826119dd565b915081905094935050505056fe69642c2067726f757049642c20616464726573732c20616d6f756e742c20726f756e644964696420696e7465676572207072696d617279206b65792c6164647265737320746578742c67726f7570496420746578742c616d6f756e7420696e74656765722c726f756e64496420696e7465676572a264697066735822122085f5ec818d81b27b0b161fb3857515d3eb6cff4997c6567a398cc89a8c74b00d64736f6c63430008140033",
			"opcodes": "PUSH1 0x80 PUSH1 0x40 MSTORE PUSH0 PUSH1 0x1 SSTORE CALLVALUE DUP1 ISZERO PUSH2 0x13 JUMPI PUSH0 DUP1 REVERT JUMPDEST POP PUSH2 0x1D66 DUP1 PUSH2 0x21 PUSH0 CODECOPY PUSH0 RETURN INVALID PUSH1 0x80 PUSH1 0x40 MSTORE PUSH1 0x4 CALLDATASIZE LT PUSH2 0x85 JUMPI PUSH0 CALLDATALOAD PUSH1 0xE0 SHR DUP1 PUSH4 0x5D5A33A2 GT PUSH2 0x58 JUMPI DUP1 PUSH4 0x5D5A33A2 EQ PUSH2 0x151 JUMPI DUP1 PUSH4 0x88E4F1CB EQ PUSH2 0x17B JUMPI DUP1 PUSH4 0xB2A4C897 EQ PUSH2 0x1A5 JUMPI DUP1 PUSH4 0xE86492B1 EQ PUSH2 0x1AF JUMPI DUP1 PUSH4 0xF8AE673B EQ PUSH2 0x1D7 JUMPI PUSH2 0x85 JUMP JUMPDEST DUP1 PUSH4 0x4BFC47F EQ PUSH2 0x89 JUMPI DUP1 PUSH4 0x150B7A02 EQ PUSH2 0xB1 JUMPI DUP1 PUSH4 0x19129E5A EQ PUSH2 0xED JUMPI DUP1 PUSH4 0x3E295859 EQ PUSH2 0x115 JUMPI JUMPDEST PUSH0 DUP1 REVERT JUMPDEST CALLVALUE DUP1 ISZERO PUSH2 0x94 JUMPI PUSH0 DUP1 REVERT JUMPDEST POP PUSH2 0xAF PUSH1 0x4 DUP1 CALLDATASIZE SUB DUP2 ADD SWAP1 PUSH2 0xAA SWAP2 SWAP1 PUSH2 0xFA8 JUMP JUMPDEST PUSH2 0x1FF JUMP JUMPDEST STOP JUMPDEST CALLVALUE DUP1 ISZERO PUSH2 0xBC JUMPI PUSH0 DUP1 REVERT JUMPDEST POP PUSH2 0xD7 PUSH1 0x4 DUP1 CALLDATASIZE SUB DUP2 ADD SWAP1 PUSH2 0xD2 SWAP2 SWAP1 PUSH2 0x1169 JUMP JUMPDEST PUSH2 0x2E0 JUMP JUMPDEST PUSH1 0x40 MLOAD PUSH2 0xE4 SWAP2 SWAP1 PUSH2 0x1223 JUMP JUMPDEST PUSH1 0x40 MLOAD DUP1 SWAP2 SUB SWAP1 RETURN JUMPDEST CALLVALUE DUP1 ISZERO PUSH2 0xF8 JUMPI PUSH0 DUP1 REVERT JUMPDEST POP PUSH2 0x113 PUSH1 0x4 DUP1 CALLDATASIZE SUB DUP2 ADD SWAP1 PUSH2 0x10E SWAP2 SWAP1 PUSH2 0x123C JUMP JUMPDEST PUSH2 0x2F3 JUMP JUMPDEST STOP JUMPDEST CALLVALUE DUP1 ISZERO PUSH2 0x120 JUMPI PUSH0 DUP1 REVERT JUMPDEST POP PUSH2 0x13B PUSH1 0x4 DUP1 CALLDATASIZE SUB DUP2 ADD SWAP1 PUSH2 0x136 SWAP2 SWAP1 PUSH2 0x123C JUMP JUMPDEST PUSH2 0x368 JUMP JUMPDEST PUSH1 0x40 MLOAD PUSH2 0x148 SWAP2 SWAP1 PUSH2 0x12E1 JUMP JUMPDEST PUSH1 0x40 MLOAD DUP1 SWAP2 SUB SWAP1 RETURN JUMPDEST CALLVALUE DUP1 ISZERO PUSH2 0x15C JUMPI PUSH0 DUP1 REVERT JUMPDEST POP PUSH2 0x165 PUSH2 0x392 JUMP JUMPDEST PUSH1 0x40 MLOAD PUSH2 0x172 SWAP2 SWAP1 PUSH2 0x12E1 JUMP JUMPDEST PUSH1 0x40 MLOAD DUP1 SWAP2 SUB SWAP1 RETURN JUMPDEST CALLVALUE DUP1 ISZERO PUSH2 0x186 JUMPI PUSH0 DUP1 REVERT JUMPDEST POP PUSH2 0x18F PUSH2 0x3D9 JUMP JUMPDEST PUSH1 0x40 MLOAD PUSH2 0x19C SWAP2 SWAP1 PUSH2 0x1310 JUMP JUMPDEST PUSH1 0x40 MLOAD DUP1 SWAP2 SUB SWAP1 RETURN JUMPDEST PUSH2 0x1AD PUSH2 0x3E1 JUMP JUMPDEST STOP JUMPDEST CALLVALUE DUP1 ISZERO PUSH2 0x1BA JUMPI PUSH0 DUP1 REVERT JUMPDEST POP PUSH2 0x1D5 PUSH1 0x4 DUP1 CALLDATASIZE SUB DUP2 ADD SWAP1 PUSH2 0x1D0 SWAP2 SWAP1 PUSH2 0x1329 JUMP JUMPDEST PUSH2 0x4C0 JUMP JUMPDEST STOP JUMPDEST CALLVALUE DUP1 ISZERO PUSH2 0x1E2 JUMPI PUSH0 DUP1 REVERT JUMPDEST POP PUSH2 0x1FD PUSH1 0x4 DUP1 CALLDATASIZE SUB DUP2 ADD SWAP1 PUSH2 0x1F8 SWAP2 SWAP1 PUSH2 0x1367 JUMP JUMPDEST PUSH2 0x5D7 JUMP JUMPDEST STOP JUMPDEST PUSH0 PUSH2 0x209 DUP3 PUSH2 0x726 JUMP JUMPDEST PUSH1 0x40 MLOAD PUSH1 0x20 ADD PUSH2 0x219 SWAP2 SWAP1 PUSH2 0x142B JUMP JUMPDEST PUSH1 0x40 MLOAD PUSH1 0x20 DUP2 DUP4 SUB SUB DUP2 MSTORE SWAP1 PUSH1 0x40 MSTORE SWAP1 POP PUSH2 0x232 PUSH2 0x7F0 JUMP JUMPDEST PUSH20 0xFFFFFFFFFFFFFFFFFFFFFFFFFFFFFFFFFFFFFFFF AND PUSH4 0x377AF0DA ADDRESS PUSH0 SLOAD PUSH2 0x291 PUSH1 0x40 MLOAD DUP1 PUSH1 0x40 ADD PUSH1 0x40 MSTORE DUP1 PUSH1 0x17 DUP2 MSTORE PUSH1 0x20 ADD PUSH32 0x737573755F636F6E747269627574696F6E5F7461626C65000000000000000000 DUP2 MSTORE POP PUSH0 SLOAD DUP8 PUSH2 0xA15 JUMP JUMPDEST PUSH1 0x40 MLOAD DUP5 PUSH4 0xFFFFFFFF AND PUSH1 0xE0 SHL DUP2 MSTORE PUSH1 0x4 ADD PUSH2 0x2AF SWAP4 SWAP3 SWAP2 SWAP1 PUSH2 0x145F JUMP JUMPDEST PUSH0 PUSH1 0x40 MLOAD DUP1 DUP4 SUB DUP2 PUSH0 DUP8 DUP1 EXTCODESIZE ISZERO DUP1 ISZERO PUSH2 0x2C6 JUMPI PUSH0 DUP1 REVERT JUMPDEST POP GAS CALL ISZERO DUP1 ISZERO PUSH2 0x2D8 JUMPI RETURNDATASIZE PUSH0 DUP1 RETURNDATACOPY RETURNDATASIZE PUSH0 REVERT JUMPDEST POP POP POP POP POP POP JUMP JUMPDEST PUSH0 PUSH4 0x150B7A02 PUSH1 0xE0 SHL SWAP1 POP SWAP5 SWAP4 POP POP POP POP JUMP JUMPDEST PUSH2 0x2FB PUSH2 0x7F0 JUMP JUMPDEST PUSH20 0xFFFFFFFFFFFFFFFFFFFFFFFFFFFFFFFFFFFFFFFF AND PUSH4 0x8BB0AB97 ADDRESS PUSH0 SLOAD DUP5 PUSH1 0x40 MLOAD DUP5 PUSH4 0xFFFFFFFF AND PUSH1 0xE0 SHL DUP2 MSTORE PUSH1 0x4 ADD PUSH2 0x338 SWAP4 SWAP3 SWAP2 SWAP1 PUSH2 0x149B JUMP JUMPDEST PUSH0 PUSH1 0x40 MLOAD DUP1 DUP4 SUB DUP2 PUSH0 DUP8 DUP1 EXTCODESIZE ISZERO DUP1 ISZERO PUSH2 0x34F JUMPI PUSH0 DUP1 REVERT JUMPDEST POP GAS CALL ISZERO DUP1 ISZERO PUSH2 0x361 JUMPI RETURNDATASIZE PUSH0 DUP1 RETURNDATACOPY RETURNDATASIZE PUSH0 REVERT JUMPDEST POP POP POP POP POP JUMP JUMPDEST PUSH1 0x60 PUSH2 0x38B DUP3 PUSH20 0xFFFFFFFFFFFFFFFFFFFFFFFFFFFFFFFFFFFFFFFF AND PUSH1 0x14 PUSH2 0xA50 JUMP JUMPDEST SWAP1 POP SWAP2 SWAP1 POP JUMP JUMPDEST PUSH1 0x60 PUSH2 0x3D4 PUSH1 0x40 MLOAD DUP1 PUSH1 0x40 ADD PUSH1 0x40 MSTORE DUP1 PUSH1 0x17 DUP2 MSTORE PUSH1 0x20 ADD PUSH32 0x737573755F636F6E747269627574696F6E5F7461626C65000000000000000000 DUP2 MSTORE POP PUSH0 SLOAD PUSH2 0xC8E JUMP JUMPDEST SWAP1 POP SWAP1 JUMP JUMPDEST PUSH0 DUP1 SLOAD SWAP1 POP SWAP1 JUMP JUMPDEST PUSH2 0x3E9 PUSH2 0x7F0 JUMP JUMPDEST PUSH20 0xFFFFFFFFFFFFFFFFFFFFFFFFFFFFFFFFFFFFFFFF AND PUSH4 0xA15AB08D ADDRESS PUSH2 0x45C PUSH1 0x40 MLOAD DUP1 PUSH1 0x80 ADD PUSH1 0x40 MSTORE DUP1 PUSH1 0x4F DUP2 MSTORE PUSH1 0x20 ADD PUSH2 0x1CE2 PUSH1 0x4F SWAP2 CODECOPY PUSH1 0x40 MLOAD DUP1 PUSH1 0x40 ADD PUSH1 0x40 MSTORE DUP1 PUSH1 0x17 DUP2 MSTORE PUSH1 0x20 ADD PUSH32 0x737573755F636F6E747269627574696F6E5F7461626C65000000000000000000 DUP2 MSTORE POP PUSH2 0xCCC JUMP JUMPDEST PUSH1 0x40 MLOAD DUP4 PUSH4 0xFFFFFFFF AND PUSH1 0xE0 SHL DUP2 MSTORE PUSH1 0x4 ADD PUSH2 0x479 SWAP3 SWAP2 SWAP1 PUSH2 0x14D0 JUMP JUMPDEST PUSH1 0x20 PUSH1 0x40 MLOAD DUP1 DUP4 SUB DUP2 PUSH0 DUP8 GAS CALL ISZERO DUP1 ISZERO PUSH2 0x495 JUMPI RETURNDATASIZE PUSH0 DUP1 RETURNDATACOPY RETURNDATASIZE PUSH0 REVERT JUMPDEST POP POP POP POP PUSH1 0x40 MLOAD RETURNDATASIZE PUSH1 0x1F NOT PUSH1 0x1F DUP3 ADD AND DUP3 ADD DUP1 PUSH1 0x40 MSTORE POP DUP2 ADD SWAP1 PUSH2 0x4B9 SWAP2 SWAP1 PUSH2 0x1512 JUMP JUMPDEST PUSH0 DUP2 SWAP1 SSTORE POP JUMP JUMPDEST PUSH0 PUSH2 0x4D2 PUSH2 0x4CD DUP4 PUSH2 0xD02 JUMP JUMPDEST PUSH2 0xD2F JUMP JUMPDEST PUSH1 0x40 MLOAD PUSH1 0x20 ADD PUSH2 0x4E2 SWAP2 SWAP1 PUSH2 0x1563 JUMP JUMPDEST PUSH1 0x40 MLOAD PUSH1 0x20 DUP2 DUP4 SUB SUB DUP2 MSTORE SWAP1 PUSH1 0x40 MSTORE SWAP1 POP PUSH0 PUSH2 0x4FD DUP5 PUSH2 0x726 JUMP JUMPDEST PUSH1 0x40 MLOAD PUSH1 0x20 ADD PUSH2 0x50D SWAP2 SWAP1 PUSH2 0x142B JUMP JUMPDEST PUSH1 0x40 MLOAD PUSH1 0x20 DUP2 DUP4 SUB SUB DUP2 MSTORE SWAP1 PUSH1 0x40 MSTORE SWAP1 POP PUSH2 0x526 PUSH2 0x7F0 JUMP JUMPDEST PUSH20 0xFFFFFFFFFFFFFFFFFFFFFFFFFFFFFFFFFFFFFFFF AND PUSH4 0x377AF0DA ADDRESS PUSH0 SLOAD PUSH2 0x586 PUSH1 0x40 MLOAD DUP1 PUSH1 0x40 ADD PUSH1 0x40 MSTORE DUP1 PUSH1 0x17 DUP2 MSTORE PUSH1 0x20 ADD PUSH32 0x737573755F636F6E747269627574696F6E5F7461626C65000000000000000000 DUP2 MSTORE POP PUSH0 SLOAD DUP9 DUP9 PUSH2 0xD58 JUMP JUMPDEST PUSH1 0x40 MLOAD DUP5 PUSH4 0xFFFFFFFF AND PUSH1 0xE0 SHL DUP2 MSTORE PUSH1 0x4 ADD PUSH2 0x5A4 SWAP4 SWAP3 SWAP2 SWAP1 PUSH2 0x145F JUMP JUMPDEST PUSH0 PUSH1 0x40 MLOAD DUP1 DUP4 SUB DUP2 PUSH0 DUP8 DUP1 EXTCODESIZE ISZERO DUP1 ISZERO PUSH2 0x5BB JUMPI PUSH0 DUP1 REVERT JUMPDEST POP GAS CALL ISZERO DUP1 ISZERO PUSH2 0x5CD JUMPI RETURNDATASIZE PUSH0 DUP1 RETURNDATACOPY RETURNDATASIZE PUSH0 REVERT JUMPDEST POP POP POP POP POP POP POP POP JUMP JUMPDEST PUSH0 PUSH2 0x5E1 DUP5 PUSH2 0xD02 JUMP JUMPDEST SWAP1 POP PUSH0 PUSH2 0x5ED DUP7 PUSH2 0xD02 JUMP JUMPDEST SWAP1 POP PUSH2 0x5F7 PUSH2 0x7F0 JUMP JUMPDEST PUSH20 0xFFFFFFFFFFFFFFFFFFFFFFFFFFFFFFFFFFFFFFFF AND PUSH4 0x377AF0DA ADDRESS PUSH0 SLOAD PUSH2 0x6D3 PUSH1 0x40 MLOAD DUP1 PUSH1 0x40 ADD PUSH1 0x40 MSTORE DUP1 PUSH1 0x17 DUP2 MSTORE PUSH1 0x20 ADD PUSH32 0x737573755F636F6E747269627574696F6E5F7461626C65000000000000000000 DUP2 MSTORE POP PUSH0 SLOAD PUSH1 0x40 MLOAD DUP1 PUSH1 0x60 ADD PUSH1 0x40 MSTORE DUP1 PUSH1 0x25 DUP2 MSTORE PUSH1 0x20 ADD PUSH2 0x1CBD PUSH1 0x25 SWAP2 CODECOPY PUSH2 0x687 PUSH1 0x1 PUSH0 DUP2 SLOAD DUP1 SWAP3 SWAP2 SWAP1 PUSH2 0x67E SWAP1 PUSH2 0x15B5 JUMP JUMPDEST SWAP2 SWAP1 POP SSTORE PUSH2 0x726 JUMP JUMPDEST PUSH2 0x690 DUP11 PUSH2 0xD2F JUMP JUMPDEST PUSH2 0x699 DUP13 PUSH2 0xD2F JUMP JUMPDEST PUSH2 0x6A2 DUP16 PUSH2 0x726 JUMP JUMPDEST PUSH2 0x6AB DUP16 PUSH2 0x726 JUMP JUMPDEST PUSH1 0x40 MLOAD PUSH1 0x20 ADD PUSH2 0x6BF SWAP6 SWAP5 SWAP4 SWAP3 SWAP2 SWAP1 PUSH2 0x1622 JUMP JUMPDEST PUSH1 0x40 MLOAD PUSH1 0x20 DUP2 DUP4 SUB SUB DUP2 MSTORE SWAP1 PUSH1 0x40 MSTORE PUSH2 0xDD5 JUMP JUMPDEST PUSH1 0x40 MLOAD DUP5 PUSH4 0xFFFFFFFF AND PUSH1 0xE0 SHL DUP2 MSTORE PUSH1 0x4 ADD PUSH2 0x6F1 SWAP4 SWAP3 SWAP2 SWAP1 PUSH2 0x145F JUMP JUMPDEST PUSH0 PUSH1 0x40 MLOAD DUP1 DUP4 SUB DUP2 PUSH0 DUP8 DUP1 EXTCODESIZE ISZERO DUP1 ISZERO PUSH2 0x708 JUMPI PUSH0 DUP1 REVERT JUMPDEST POP GAS CALL ISZERO DUP1 ISZERO PUSH2 0x71A JUMPI RETURNDATASIZE PUSH0 DUP1 RETURNDATACOPY RETURNDATASIZE PUSH0 REVERT JUMPDEST POP POP POP POP POP POP POP POP POP POP JUMP JUMPDEST PUSH1 0x60 PUSH0 PUSH1 0x1 PUSH2 0x734 DUP5 PUSH2 0xE13 JUMP JUMPDEST ADD SWAP1 POP PUSH0 DUP2 PUSH8 0xFFFFFFFFFFFFFFFF DUP2 GT ISZERO PUSH2 0x752 JUMPI PUSH2 0x751 PUSH2 0x1045 JUMP JUMPDEST JUMPDEST PUSH1 0x40 MLOAD SWAP1 DUP1 DUP3 MSTORE DUP1 PUSH1 0x1F ADD PUSH1 0x1F NOT AND PUSH1 0x20 ADD DUP3 ADD PUSH1 0x40 MSTORE DUP1 ISZERO PUSH2 0x784 JUMPI DUP2 PUSH1 0x20 ADD PUSH1 0x1 DUP3 MUL DUP1 CALLDATASIZE DUP4 CALLDATACOPY DUP1 DUP3 ADD SWAP2 POP POP SWAP1 POP JUMPDEST POP SWAP1 POP PUSH0 DUP3 PUSH1 0x20 ADD DUP3 ADD SWAP1 POP JUMPDEST PUSH1 0x1 ISZERO PUSH2 0x7E5 JUMPI DUP1 DUP1 PUSH1 0x1 SWAP1 SUB SWAP2 POP POP PUSH32 0x3031323334353637383961626364656600000000000000000000000000000000 PUSH1 0xA DUP7 MOD BYTE DUP2 MSTORE8 PUSH1 0xA DUP6 DUP2 PUSH2 0x7DA JUMPI PUSH2 0x7D9 PUSH2 0x16A8 JUMP JUMPDEST JUMPDEST DIV SWAP5 POP PUSH0 DUP6 SUB PUSH2 0x791 JUMPI JUMPDEST DUP2 SWAP4 POP POP POP POP SWAP2 SWAP1 POP JUMP JUMPDEST PUSH0 PUSH1 0x1 CHAINID SUB PUSH2 0x815 JUMPI PUSH20 0x12969F7E3439A9B04025B5A049EB9BAD82A8C12 SWAP1 POP PUSH2 0xA12 JUMP JUMPDEST PUSH1 0xA CHAINID SUB PUSH2 0x839 JUMPI PUSH20 0xFAD44BF5B843DE943A09D4F3E84949A11D3AA3E6 SWAP1 POP PUSH2 0xA12 JUMP JUMPDEST PUSH2 0xA4B1 CHAINID SUB PUSH2 0x85E JUMPI PUSH20 0x9ABD75E8640871A5A20D3B4EE6330A04C962AFFD SWAP1 POP PUSH2 0xA12 JUMP JUMPDEST PUSH2 0xA4BA CHAINID SUB PUSH2 0x883 JUMPI PUSH20 0x1A22854C5B1642760A827F20137A67930AE108D2 SWAP1 POP PUSH2 0xA12 JUMP JUMPDEST PUSH1 0x89 CHAINID SUB PUSH2 0x8A7 JUMPI PUSH20 0x5C4E6A9E5C1E1BF445A062006FAF19EA6C49AFEA SWAP1 POP PUSH2 0xA12 JUMP JUMPDEST PUSH2 0x13A CHAINID SUB PUSH2 0x8CC JUMPI PUSH20 0x59EF8BF2D6C102B4C42AEF9189E1A9F0ABFD652D SWAP1 POP PUSH2 0xA12 JUMP JUMPDEST PUSH3 0xAA36A7 CHAINID SUB PUSH2 0x8F2 JUMPI PUSH20 0xC50C62498448ACC8DBDE43DA77F8D5D2E2C7597D SWAP1 POP PUSH2 0xA12 JUMP JUMPDEST PUSH3 0xAA37DC CHAINID SUB PUSH2 0x918 JUMPI PUSH20 0x68A2F4423AD3BF5139DB563CF3BC80AA09ED7079 SWAP1 POP PUSH2 0xA12 JUMP JUMPDEST PUSH3 0x66EEE CHAINID SUB PUSH2 0x93E JUMPI PUSH20 0x223A74B8323914AFDC3FF1E5005564DC17231D6E SWAP1 POP PUSH2 0xA12 JUMP JUMPDEST PUSH3 0x14A34 CHAINID SUB PUSH2 0x964 JUMPI PUSH20 0xA85AAE9F0AEC5F5638E5F13840797303AB29C9F9 SWAP1 POP PUSH2 0xA12 JUMP JUMPDEST PUSH3 0x13882 CHAINID SUB PUSH2 0x98A JUMPI PUSH20 0x170FB206132B693E38ADFC8727DCFA303546CEC1 SWAP1 POP PUSH2 0xA12 JUMP JUMPDEST PUSH3 0x4CB2F CHAINID SUB PUSH2 0x9B0 JUMPI PUSH20 0x30BCF3D50CAD04C2E57391B12740982A9308621 SWAP1 POP PUSH2 0xA12 JUMP JUMPDEST PUSH2 0x7A69 CHAINID SUB PUSH2 0x9D5 JUMPI PUSH20 0xE7F1725E7734CE288F8367E1BB143E90BB3F0512 SWAP1 POP PUSH2 0xA12 JUMP JUMPDEST CHAINID PUSH1 0x40 MLOAD PUSH32 0x264E42CF00000000000000000000000000000000000000000000000000000000 DUP2 MSTORE PUSH1 0x4 ADD PUSH2 0xA09 SWAP2 SWAP1 PUSH2 0x1310 JUMP JUMPDEST PUSH1 0x40 MLOAD DUP1 SWAP2 SUB SWAP1 REVERT JUMPDEST SWAP1 JUMP JUMPDEST PUSH1 0x60 PUSH0 PUSH2 0xA22 DUP6 DUP6 PUSH2 0xC8E JUMP JUMPDEST SWAP1 POP DUP1 DUP4 PUSH1 0x40 MLOAD PUSH1 0x20 ADD PUSH2 0xA37 SWAP3 SWAP2 SWAP1 PUSH2 0x1769 JUMP JUMPDEST PUSH1 0x40 MLOAD PUSH1 0x20 DUP2 DUP4 SUB SUB DUP2 MSTORE SWAP1 PUSH1 0x40 MSTORE SWAP2 POP POP SWAP4 SWAP3 POP POP POP JUMP JUMPDEST PUSH1 0x60 PUSH0 DUP4 SWAP1 POP PUSH0 PUSH1 0x2 DUP5 PUSH1 0x2 PUSH2 0xA66 SWAP2 SWAP1 PUSH2 0x17A2 JUMP JUMPDEST PUSH2 0xA70 SWAP2 SWAP1 PUSH2 0x17E3 JUMP JUMPDEST PUSH8 0xFFFFFFFFFFFFFFFF DUP2 GT ISZERO PUSH2 0xA89 JUMPI PUSH2 0xA88 PUSH2 0x1045 JUMP JUMPDEST JUMPDEST PUSH1 0x40 MLOAD SWAP1 DUP1 DUP3 MSTORE DUP1 PUSH1 0x1F ADD PUSH1 0x1F NOT AND PUSH1 0x20 ADD DUP3 ADD PUSH1 0x40 MSTORE DUP1 ISZERO PUSH2 0xABB JUMPI DUP2 PUSH1 0x20 ADD PUSH1 0x1 DUP3 MUL DUP1 CALLDATASIZE DUP4 CALLDATACOPY DUP1 DUP3 ADD SWAP2 POP POP SWAP1 POP JUMPDEST POP SWAP1 POP PUSH32 0x3000000000000000000000000000000000000000000000000000000000000000 DUP2 PUSH0 DUP2 MLOAD DUP2 LT PUSH2 0xAF2 JUMPI PUSH2 0xAF1 PUSH2 0x1816 JUMP JUMPDEST JUMPDEST PUSH1 0x20 ADD ADD SWAP1 PUSH31 0xFFFFFFFFFFFFFFFFFFFFFFFFFFFFFFFFFFFFFFFFFFFFFFFFFFFFFFFFFFFFFF NOT AND SWAP1 DUP2 PUSH0 BYTE SWAP1 MSTORE8 POP PUSH32 0x7800000000000000000000000000000000000000000000000000000000000000 DUP2 PUSH1 0x1 DUP2 MLOAD DUP2 LT PUSH2 0xB55 JUMPI PUSH2 0xB54 PUSH2 0x1816 JUMP JUMPDEST JUMPDEST PUSH1 0x20 ADD ADD SWAP1 PUSH31 0xFFFFFFFFFFFFFFFFFFFFFFFFFFFFFFFFFFFFFFFFFFFFFFFFFFFFFFFFFFFFFF NOT AND SWAP1 DUP2 PUSH0 BYTE SWAP1 MSTORE8 POP PUSH0 PUSH1 0x1 DUP6 PUSH1 0x2 PUSH2 0xB93 SWAP2 SWAP1 PUSH2 0x17A2 JUMP JUMPDEST PUSH2 0xB9D SWAP2 SWAP1 PUSH2 0x17E3 JUMP JUMPDEST SWAP1 POP JUMPDEST PUSH1 0x1 DUP2 GT ISZERO PUSH2 0xC3C JUMPI PUSH32 0x3031323334353637383961626364656600000000000000000000000000000000 PUSH1 0xF DUP5 AND PUSH1 0x10 DUP2 LT PUSH2 0xBDF JUMPI PUSH2 0xBDE PUSH2 0x1816 JUMP JUMPDEST JUMPDEST BYTE PUSH1 0xF8 SHL DUP3 DUP3 DUP2 MLOAD DUP2 LT PUSH2 0xBF6 JUMPI PUSH2 0xBF5 PUSH2 0x1816 JUMP JUMPDEST JUMPDEST PUSH1 0x20 ADD ADD SWAP1 PUSH31 0xFFFFFFFFFFFFFFFFFFFFFFFFFFFFFFFFFFFFFFFFFFFFFFFFFFFFFFFFFFFFFF NOT AND SWAP1 DUP2 PUSH0 BYTE SWAP1 MSTORE8 POP PUSH1 0x4 DUP4 SWAP1 SHR SWAP3 POP DUP1 PUSH2 0xC35 SWAP1 PUSH2 0x1843 JUMP JUMPDEST SWAP1 POP PUSH2 0xBA0 JUMP JUMPDEST POP PUSH0 DUP3 EQ PUSH2 0xC83 JUMPI DUP5 DUP5 PUSH1 0x40 MLOAD PUSH32 0xE22E27EB00000000000000000000000000000000000000000000000000000000 DUP2 MSTORE PUSH1 0x4 ADD PUSH2 0xC7A SWAP3 SWAP2 SWAP1 PUSH2 0x186A JUMP JUMPDEST PUSH1 0x40 MLOAD DUP1 SWAP2 SUB SWAP1 REVERT JUMPDEST DUP1 SWAP3 POP POP POP SWAP3 SWAP2 POP POP JUMP JUMPDEST PUSH1 0x60 DUP3 PUSH2 0xC9A CHAINID PUSH2 0x726 JUMP JUMPDEST PUSH2 0xCA3 DUP5 PUSH2 0x726 JUMP JUMPDEST PUSH1 0x40 MLOAD PUSH1 0x20 ADD PUSH2 0xCB5 SWAP4 SWAP3 SWAP2 SWAP1 PUSH2 0x18DB JUMP JUMPDEST PUSH1 0x40 MLOAD PUSH1 0x20 DUP2 DUP4 SUB SUB DUP2 MSTORE SWAP1 PUSH1 0x40 MSTORE SWAP1 POP SWAP3 SWAP2 POP POP JUMP JUMPDEST PUSH1 0x60 DUP2 PUSH2 0xCD8 CHAINID PUSH2 0x726 JUMP JUMPDEST DUP5 PUSH1 0x40 MLOAD PUSH1 0x20 ADD PUSH2 0xCEB SWAP4 SWAP3 SWAP2 SWAP1 PUSH2 0x19FF JUMP JUMPDEST PUSH1 0x40 MLOAD PUSH1 0x20 DUP2 DUP4 SUB SUB DUP2 MSTORE SWAP1 PUSH1 0x40 MSTORE SWAP1 POP SWAP3 SWAP2 POP POP JUMP JUMPDEST PUSH1 0x60 PUSH2 0xD28 DUP3 PUSH20 0xFFFFFFFFFFFFFFFFFFFFFFFFFFFFFFFFFFFFFFFF AND PUSH1 0x14 PUSH1 0xFF AND PUSH2 0xA50 JUMP JUMPDEST SWAP1 POP SWAP2 SWAP1 POP JUMP JUMPDEST PUSH1 0x60 DUP2 PUSH1 0x40 MLOAD PUSH1 0x20 ADD PUSH2 0xD42 SWAP2 SWAP1 PUSH2 0x1AA5 JUMP JUMPDEST PUSH1 0x40 MLOAD PUSH1 0x20 DUP2 DUP4 SUB SUB DUP2 MSTORE SWAP1 PUSH1 0x40 MSTORE SWAP1 POP SWAP2 SWAP1 POP JUMP JUMPDEST PUSH1 0x60 PUSH0 PUSH2 0xD65 DUP7 DUP7 PUSH2 0xC8E JUMP JUMPDEST SWAP1 POP PUSH0 PUSH1 0x40 MLOAD DUP1 PUSH1 0x20 ADD PUSH1 0x40 MSTORE DUP1 PUSH0 DUP2 MSTORE POP SWAP1 POP PUSH0 DUP5 MLOAD GT ISZERO PUSH2 0xDA5 JUMPI DUP4 PUSH1 0x40 MLOAD PUSH1 0x20 ADD PUSH2 0xD93 SWAP2 SWAP1 PUSH2 0x1AD1 JUMP JUMPDEST PUSH1 0x40 MLOAD PUSH1 0x20 DUP2 DUP4 SUB SUB DUP2 MSTORE SWAP1 PUSH1 0x40 MSTORE SWAP1 POP JUMPDEST DUP2 DUP6 DUP3 PUSH1 0x40 MLOAD PUSH1 0x20 ADD PUSH2 0xDBA SWAP4 SWAP3 SWAP2 SWAP1 PUSH2 0x1B86 JUMP JUMPDEST PUSH1 0x40 MLOAD PUSH1 0x20 DUP2 DUP4 SUB SUB DUP2 MSTORE SWAP1 PUSH1 0x40 MSTORE SWAP3 POP POP POP SWAP5 SWAP4 POP POP POP POP JUMP JUMPDEST PUSH1 0x60 PUSH0 PUSH2 0xDE2 DUP7 DUP7 PUSH2 0xC8E JUMP JUMPDEST SWAP1 POP DUP1 DUP5 DUP5 PUSH1 0x40 MLOAD PUSH1 0x20 ADD PUSH2 0xDF9 SWAP4 SWAP3 SWAP2 SWAP1 PUSH2 0x1C60 JUMP JUMPDEST PUSH1 0x40 MLOAD PUSH1 0x20 DUP2 DUP4 SUB SUB DUP2 MSTORE SWAP1 PUSH1 0x40 MSTORE SWAP2 POP POP SWAP5 SWAP4 POP POP POP POP JUMP JUMPDEST PUSH0 DUP1 PUSH0 SWAP1 POP PUSH27 0x184F03E93FF9F4DAA797ED6E38ED64BF6A1F010000000000000000 DUP4 LT PUSH2 0xE6F JUMPI PUSH27 0x184F03E93FF9F4DAA797ED6E38ED64BF6A1F010000000000000000 DUP4 DUP2 PUSH2 0xE65 JUMPI PUSH2 0xE64 PUSH2 0x16A8 JUMP JUMPDEST JUMPDEST DIV SWAP3 POP PUSH1 0x40 DUP2 ADD SWAP1 POP JUMPDEST PUSH14 0x4EE2D6D415B85ACEF8100000000 DUP4 LT PUSH2 0xEAC JUMPI PUSH14 0x4EE2D6D415B85ACEF8100000000 DUP4 DUP2 PUSH2 0xEA2 JUMPI PUSH2 0xEA1 PUSH2 0x16A8 JUMP JUMPDEST JUMPDEST DIV SWAP3 POP PUSH1 0x20 DUP2 ADD SWAP1 POP JUMPDEST PUSH7 0x2386F26FC10000 DUP4 LT PUSH2 0xEDB JUMPI PUSH7 0x2386F26FC10000 DUP4 DUP2 PUSH2 0xED1 JUMPI PUSH2 0xED0 PUSH2 0x16A8 JUMP JUMPDEST JUMPDEST DIV SWAP3 POP PUSH1 0x10 DUP2 ADD SWAP1 POP JUMPDEST PUSH4 0x5F5E100 DUP4 LT PUSH2 0xF04 JUMPI PUSH4 0x5F5E100 DUP4 DUP2 PUSH2 0xEFA JUMPI PUSH2 0xEF9 PUSH2 0x16A8 JUMP JUMPDEST JUMPDEST DIV SWAP3 POP PUSH1 0x8 DUP2 ADD SWAP1 POP JUMPDEST PUSH2 0x2710 DUP4 LT PUSH2 0xF29 JUMPI PUSH2 0x2710 DUP4 DUP2 PUSH2 0xF1F JUMPI PUSH2 0xF1E PUSH2 0x16A8 JUMP JUMPDEST JUMPDEST DIV SWAP3 POP PUSH1 0x4 DUP2 ADD SWAP1 POP JUMPDEST PUSH1 0x64 DUP4 LT PUSH2 0xF4C JUMPI PUSH1 0x64 DUP4 DUP2 PUSH2 0xF42 JUMPI PUSH2 0xF41 PUSH2 0x16A8 JUMP JUMPDEST JUMPDEST DIV SWAP3 POP PUSH1 0x2 DUP2 ADD SWAP1 POP JUMPDEST PUSH1 0xA DUP4 LT PUSH2 0xF5B JUMPI PUSH1 0x1 DUP2 ADD SWAP1 POP JUMPDEST DUP1 SWAP2 POP POP SWAP2 SWAP1 POP JUMP JUMPDEST PUSH0 PUSH1 0x40 MLOAD SWAP1 POP SWAP1 JUMP JUMPDEST PUSH0 DUP1 REVERT JUMPDEST PUSH0 DUP1 REVERT JUMPDEST PUSH0 DUP2 SWAP1 POP SWAP2 SWAP1 POP JUMP JUMPDEST PUSH2 0xF87 DUP2 PUSH2 0xF75 JUMP JUMPDEST DUP2 EQ PUSH2 0xF91 JUMPI PUSH0 DUP1 REVERT JUMPDEST POP JUMP JUMPDEST PUSH0 DUP2 CALLDATALOAD SWAP1 POP PUSH2 0xFA2 DUP2 PUSH2 0xF7E JUMP JUMPDEST SWAP3 SWAP2 POP POP JUMP JUMPDEST PUSH0 PUSH1 0x20 DUP3 DUP5 SUB SLT ISZERO PUSH2 0xFBD JUMPI PUSH2 0xFBC PUSH2 0xF6D JUMP JUMPDEST JUMPDEST PUSH0 PUSH2 0xFCA DUP5 DUP3 DUP6 ADD PUSH2 0xF94 JUMP JUMPDEST SWAP2 POP POP SWAP3 SWAP2 POP POP JUMP JUMPDEST PUSH0 PUSH20 0xFFFFFFFFFFFFFFFFFFFFFFFFFFFFFFFFFFFFFFFF DUP3 AND SWAP1 POP SWAP2 SWAP1 POP JUMP JUMPDEST PUSH0 PUSH2 0xFFC DUP3 PUSH2 0xFD3 JUMP JUMPDEST SWAP1 POP SWAP2 SWAP1 POP JUMP JUMPDEST PUSH2 0x100C DUP2 PUSH2 0xFF2 JUMP JUMPDEST DUP2 EQ PUSH2 0x1016 JUMPI PUSH0 DUP1 REVERT JUMPDEST POP JUMP JUMPDEST PUSH0 DUP2 CALLDATALOAD SWAP1 POP PUSH2 0x1027 DUP2 PUSH2 0x1003 JUMP JUMPDEST SWAP3 SWAP2 POP POP JUMP JUMPDEST PUSH0 DUP1 REVERT JUMPDEST PUSH0 DUP1 REVERT JUMPDEST PUSH0 PUSH1 0x1F NOT PUSH1 0x1F DUP4 ADD AND SWAP1 POP SWAP2 SWAP1 POP JUMP JUMPDEST PUSH32 0x4E487B7100000000000000000000000000000000000000000000000000000000 PUSH0 MSTORE PUSH1 0x41 PUSH1 0x4 MSTORE PUSH1 0x24 PUSH0 REVERT JUMPDEST PUSH2 0x107B DUP3 PUSH2 0x1035 JUMP JUMPDEST DUP2 ADD DUP2 DUP2 LT PUSH8 0xFFFFFFFFFFFFFFFF DUP3 GT OR ISZERO PUSH2 0x109A JUMPI PUSH2 0x1099 PUSH2 0x1045 JUMP JUMPDEST JUMPDEST DUP1 PUSH1 0x40 MSTORE POP POP POP JUMP JUMPDEST PUSH0 PUSH2 0x10AC PUSH2 0xF64 JUMP JUMPDEST SWAP1 POP PUSH2 0x10B8 DUP3 DUP3 PUSH2 0x1072 JUMP JUMPDEST SWAP2 SWAP1 POP JUMP JUMPDEST PUSH0 PUSH8 0xFFFFFFFFFFFFFFFF DUP3 GT ISZERO PUSH2 0x10D7 JUMPI PUSH2 0x10D6 PUSH2 0x1045 JUMP JUMPDEST JUMPDEST PUSH2 0x10E0 DUP3 PUSH2 0x1035 JUMP JUMPDEST SWAP1 POP PUSH1 0x20 DUP2 ADD SWAP1 POP SWAP2 SWAP1 POP JUMP JUMPDEST DUP3 DUP2 DUP4 CALLDATACOPY PUSH0 DUP4 DUP4 ADD MSTORE POP POP POP JUMP JUMPDEST PUSH0 PUSH2 0x110D PUSH2 0x1108 DUP5 PUSH2 0x10BD JUMP JUMPDEST PUSH2 0x10A3 JUMP JUMPDEST SWAP1 POP DUP3 DUP2 MSTORE PUSH1 0x20 DUP2 ADD DUP5 DUP5 DUP5 ADD GT ISZERO PUSH2 0x1129 JUMPI PUSH2 0x1128 PUSH2 0x1031 JUMP JUMPDEST JUMPDEST PUSH2 0x1134 DUP5 DUP3 DUP6 PUSH2 0x10ED JUMP JUMPDEST POP SWAP4 SWAP3 POP POP POP JUMP JUMPDEST PUSH0 DUP3 PUSH1 0x1F DUP4 ADD SLT PUSH2 0x1150 JUMPI PUSH2 0x114F PUSH2 0x102D JUMP JUMPDEST JUMPDEST DUP2 CALLDATALOAD PUSH2 0x1160 DUP5 DUP3 PUSH1 0x20 DUP7 ADD PUSH2 0x10FB JUMP JUMPDEST SWAP2 POP POP SWAP3 SWAP2 POP POP JUMP JUMPDEST PUSH0 DUP1 PUSH0 DUP1 PUSH1 0x80 DUP6 DUP8 SUB SLT ISZERO PUSH2 0x1181 JUMPI PUSH2 0x1180 PUSH2 0xF6D JUMP JUMPDEST JUMPDEST PUSH0 PUSH2 0x118E DUP8 DUP3 DUP9 ADD PUSH2 0x1019 JUMP JUMPDEST SWAP5 POP POP PUSH1 0x20 PUSH2 0x119F DUP8 DUP3 DUP9 ADD PUSH2 0x1019 JUMP JUMPDEST SWAP4 POP POP PUSH1 0x40 PUSH2 0x11B0 DUP8 DUP3 DUP9 ADD PUSH2 0xF94 JUMP JUMPDEST SWAP3 POP POP PUSH1 0x60 DUP6 ADD CALLDATALOAD PUSH8 0xFFFFFFFFFFFFFFFF DUP2 GT ISZERO PUSH2 0x11D1 JUMPI PUSH2 0x11D0 PUSH2 0xF71 JUMP JUMPDEST JUMPDEST PUSH2 0x11DD DUP8 DUP3 DUP9 ADD PUSH2 0x113C JUMP JUMPDEST SWAP2 POP POP SWAP3 SWAP6 SWAP2 SWAP5 POP SWAP3 POP JUMP JUMPDEST PUSH0 PUSH32 0xFFFFFFFF00000000000000000000000000000000000000000000000000000000 DUP3 AND SWAP1 POP SWAP2 SWAP1 POP JUMP JUMPDEST PUSH2 0x121D DUP2 PUSH2 0x11E9 JUMP JUMPDEST DUP3 MSTORE POP POP JUMP JUMPDEST PUSH0 PUSH1 0x20 DUP3 ADD SWAP1 POP PUSH2 0x1236 PUSH0 DUP4 ADD DUP5 PUSH2 0x1214 JUMP JUMPDEST SWAP3 SWAP2 POP POP JUMP JUMPDEST PUSH0 PUSH1 0x20 DUP3 DUP5 SUB SLT ISZERO PUSH2 0x1251 JUMPI PUSH2 0x1250 PUSH2 0xF6D JUMP JUMPDEST JUMPDEST PUSH0 PUSH2 0x125E DUP5 DUP3 DUP6 ADD PUSH2 0x1019 JUMP JUMPDEST SWAP2 POP POP SWAP3 SWAP2 POP POP JUMP JUMPDEST PUSH0 DUP2 MLOAD SWAP1 POP SWAP2 SWAP1 POP JUMP JUMPDEST PUSH0 DUP3 DUP3 MSTORE PUSH1 0x20 DUP3 ADD SWAP1 POP SWAP3 SWAP2 POP POP JUMP JUMPDEST PUSH0 JUMPDEST DUP4 DUP2 LT ISZERO PUSH2 0x129E JUMPI DUP1 DUP3 ADD MLOAD DUP2 DUP5 ADD MSTORE PUSH1 0x20 DUP2 ADD SWAP1 POP PUSH2 0x1283 JUMP JUMPDEST PUSH0 DUP5 DUP5 ADD MSTORE POP POP POP POP JUMP JUMPDEST PUSH0 PUSH2 0x12B3 DUP3 PUSH2 0x1267 JUMP JUMPDEST PUSH2 0x12BD DUP2 DUP6 PUSH2 0x1271 JUMP JUMPDEST SWAP4 POP PUSH2 0x12CD DUP2 DUP6 PUSH1 0x20 DUP7 ADD PUSH2 0x1281 JUMP JUMPDEST PUSH2 0x12D6 DUP2 PUSH2 0x1035 JUMP JUMPDEST DUP5 ADD SWAP2 POP POP SWAP3 SWAP2 POP POP JUMP JUMPDEST PUSH0 PUSH1 0x20 DUP3 ADD SWAP1 POP DUP2 DUP2 SUB PUSH0 DUP4 ADD MSTORE PUSH2 0x12F9 DUP2 DUP5 PUSH2 0x12A9 JUMP JUMPDEST SWAP1 POP SWAP3 SWAP2 POP POP JUMP JUMPDEST PUSH2 0x130A DUP2 PUSH2 0xF75 JUMP JUMPDEST DUP3 MSTORE POP POP JUMP JUMPDEST PUSH0 PUSH1 0x20 DUP3 ADD SWAP1 POP PUSH2 0x1323 PUSH0 DUP4 ADD DUP5 PUSH2 0x1301 JUMP JUMPDEST SWAP3 SWAP2 POP POP JUMP JUMPDEST PUSH0 DUP1 PUSH1 0x40 DUP4 DUP6 SUB SLT ISZERO PUSH2 0x133F JUMPI PUSH2 0x133E PUSH2 0xF6D JUMP JUMPDEST JUMPDEST PUSH0 PUSH2 0x134C DUP6 DUP3 DUP7 ADD PUSH2 0xF94 JUMP JUMPDEST SWAP3 POP POP PUSH1 0x20 PUSH2 0x135D DUP6 DUP3 DUP7 ADD PUSH2 0x1019 JUMP JUMPDEST SWAP2 POP POP SWAP3 POP SWAP3 SWAP1 POP JUMP JUMPDEST PUSH0 DUP1 PUSH0 DUP1 PUSH1 0x80 DUP6 DUP8 SUB SLT ISZERO PUSH2 0x137F JUMPI PUSH2 0x137E PUSH2 0xF6D JUMP JUMPDEST JUMPDEST PUSH0 PUSH2 0x138C DUP8 DUP3 DUP9 ADD PUSH2 0x1019 JUMP JUMPDEST SWAP5 POP POP PUSH1 0x20 PUSH2 0x139D DUP8 DUP3 DUP9 ADD PUSH2 0x1019 JUMP JUMPDEST SWAP4 POP POP PUSH1 0x40 PUSH2 0x13AE DUP8 DUP3 DUP9 ADD PUSH2 0xF94 JUMP JUMPDEST SWAP3 POP POP PUSH1 0x60 PUSH2 0x13BF DUP8 DUP3 DUP9 ADD PUSH2 0xF94 JUMP JUMPDEST SWAP2 POP POP SWAP3 SWAP6 SWAP2 SWAP5 POP SWAP3 POP JUMP JUMPDEST PUSH32 0x69643D0000000000000000000000000000000000000000000000000000000000 DUP2 MSTORE POP JUMP JUMPDEST PUSH0 DUP2 SWAP1 POP SWAP3 SWAP2 POP POP JUMP JUMPDEST PUSH0 PUSH2 0x1405 DUP3 PUSH2 0x1267 JUMP JUMPDEST PUSH2 0x140F DUP2 DUP6 PUSH2 0x13F1 JUMP JUMPDEST SWAP4 POP PUSH2 0x141F DUP2 DUP6 PUSH1 0x20 DUP7 ADD PUSH2 0x1281 JUMP JUMPDEST DUP1 DUP5 ADD SWAP2 POP POP SWAP3 SWAP2 POP POP JUMP JUMPDEST PUSH0 PUSH2 0x1435 DUP3 PUSH2 0x13CB JUMP JUMPDEST PUSH1 0x3 DUP3 ADD SWAP2 POP PUSH2 0x1445 DUP3 DUP5 PUSH2 0x13FB JUMP JUMPDEST SWAP2 POP DUP2 SWAP1 POP SWAP3 SWAP2 POP POP JUMP JUMPDEST PUSH2 0x1459 DUP2 PUSH2 0xFF2 JUMP JUMPDEST DUP3 MSTORE POP POP JUMP JUMPDEST PUSH0 PUSH1 0x60 DUP3 ADD SWAP1 POP PUSH2 0x1472 PUSH0 DUP4 ADD DUP7 PUSH2 0x1450 JUMP JUMPDEST PUSH2 0x147F PUSH1 0x20 DUP4 ADD DUP6 PUSH2 0x1301 JUMP JUMPDEST DUP2 DUP2 SUB PUSH1 0x40 DUP4 ADD MSTORE PUSH2 0x1491 DUP2 DUP5 PUSH2 0x12A9 JUMP JUMPDEST SWAP1 POP SWAP5 SWAP4 POP POP POP POP JUMP JUMPDEST PUSH0 PUSH1 0x60 DUP3 ADD SWAP1 POP PUSH2 0x14AE PUSH0 DUP4 ADD DUP7 PUSH2 0x1450 JUMP JUMPDEST PUSH2 0x14BB PUSH1 0x20 DUP4 ADD DUP6 PUSH2 0x1301 JUMP JUMPDEST PUSH2 0x14C8 PUSH1 0x40 DUP4 ADD DUP5 PUSH2 0x1450 JUMP JUMPDEST SWAP5 SWAP4 POP POP POP POP JUMP JUMPDEST PUSH0 PUSH1 0x40 DUP3 ADD SWAP1 POP PUSH2 0x14E3 PUSH0 DUP4 ADD DUP6 PUSH2 0x1450 JUMP JUMPDEST DUP2 DUP2 SUB PUSH1 0x20 DUP4 ADD MSTORE PUSH2 0x14F5 DUP2 DUP5 PUSH2 0x12A9 JUMP JUMPDEST SWAP1 POP SWAP4 SWAP3 POP POP POP JUMP JUMPDEST PUSH0 DUP2 MLOAD SWAP1 POP PUSH2 0x150C DUP2 PUSH2 0xF7E JUMP JUMPDEST SWAP3 SWAP2 POP POP JUMP JUMPDEST PUSH0 PUSH1 0x20 DUP3 DUP5 SUB SLT ISZERO PUSH2 0x1527 JUMPI PUSH2 0x1526 PUSH2 0xF6D JUMP JUMPDEST JUMPDEST PUSH0 PUSH2 0x1534 DUP5 DUP3 DUP6 ADD PUSH2 0x14FE JUMP JUMPDEST SWAP2 POP POP SWAP3 SWAP2 POP POP JUMP JUMPDEST PUSH32 0x67726F757049643D000000000000000000000000000000000000000000000000 DUP2 MSTORE POP JUMP JUMPDEST PUSH0 PUSH2 0x156D DUP3 PUSH2 0x153D JUMP JUMPDEST PUSH1 0x8 DUP3 ADD SWAP2 POP PUSH2 0x157D DUP3 DUP5 PUSH2 0x13FB JUMP JUMPDEST SWAP2 POP DUP2 SWAP1 POP SWAP3 SWAP2 POP POP JUMP JUMPDEST PUSH32 0x4E487B7100000000000000000000000000000000000000000000000000000000 PUSH0 MSTORE PUSH1 0x11 PUSH1 0x4 MSTORE PUSH1 0x24 PUSH0 REVERT JUMPDEST PUSH0 PUSH2 0x15BF DUP3 PUSH2 0xF75 JUMP JUMPDEST SWAP2 POP PUSH32 0xFFFFFFFFFFFFFFFFFFFFFFFFFFFFFFFFFFFFFFFFFFFFFFFFFFFFFFFFFFFFFFFF DUP3 SUB PUSH2 0x15F1 JUMPI PUSH2 0x15F0 PUSH2 0x1588 JUMP JUMPDEST JUMPDEST PUSH1 0x1 DUP3 ADD SWAP1 POP SWAP2 SWAP1 POP JUMP JUMPDEST PUSH32 0x2C00000000000000000000000000000000000000000000000000000000000000 DUP2 MSTORE POP JUMP JUMPDEST PUSH0 PUSH2 0x162D DUP3 DUP9 PUSH2 0x13FB JUMP JUMPDEST SWAP2 POP PUSH2 0x1638 DUP3 PUSH2 0x15FC JUMP JUMPDEST PUSH1 0x1 DUP3 ADD SWAP2 POP PUSH2 0x1648 DUP3 DUP8 PUSH2 0x13FB JUMP JUMPDEST SWAP2 POP PUSH2 0x1653 DUP3 PUSH2 0x15FC JUMP JUMPDEST PUSH1 0x1 DUP3 ADD SWAP2 POP PUSH2 0x1663 DUP3 DUP7 PUSH2 0x13FB JUMP JUMPDEST SWAP2 POP PUSH2 0x166E DUP3 PUSH2 0x15FC JUMP JUMPDEST PUSH1 0x1 DUP3 ADD SWAP2 POP PUSH2 0x167E DUP3 DUP6 PUSH2 0x13FB JUMP JUMPDEST SWAP2 POP PUSH2 0x1689 DUP3 PUSH2 0x15FC JUMP JUMPDEST PUSH1 0x1 DUP3 ADD SWAP2 POP PUSH2 0x1699 DUP3 DUP5 PUSH2 0x13FB JUMP JUMPDEST SWAP2 POP DUP2 SWAP1 POP SWAP7 SWAP6 POP POP POP POP POP POP JUMP JUMPDEST PUSH32 0x4E487B7100000000000000000000000000000000000000000000000000000000 PUSH0 MSTORE PUSH1 0x12 PUSH1 0x4 MSTORE PUSH1 0x24 PUSH0 REVERT JUMPDEST PUSH32 0x44454C4554452046524F4D200000000000000000000000000000000000000000 PUSH0 DUP3 ADD MSTORE POP JUMP JUMPDEST PUSH0 PUSH2 0x1709 PUSH1 0xC DUP4 PUSH2 0x13F1 JUMP JUMPDEST SWAP2 POP PUSH2 0x1714 DUP3 PUSH2 0x16D5 JUMP JUMPDEST PUSH1 0xC DUP3 ADD SWAP1 POP SWAP2 SWAP1 POP JUMP JUMPDEST PUSH32 0x2057484552452000000000000000000000000000000000000000000000000000 PUSH0 DUP3 ADD MSTORE POP JUMP JUMPDEST PUSH0 PUSH2 0x1753 PUSH1 0x7 DUP4 PUSH2 0x13F1 JUMP JUMPDEST SWAP2 POP PUSH2 0x175E DUP3 PUSH2 0x171F JUMP JUMPDEST PUSH1 0x7 DUP3 ADD SWAP1 POP SWAP2 SWAP1 POP JUMP JUMPDEST PUSH0 PUSH2 0x1773 DUP3 PUSH2 0x16FD JUMP JUMPDEST SWAP2 POP PUSH2 0x177F DUP3 DUP6 PUSH2 0x13FB JUMP JUMPDEST SWAP2 POP PUSH2 0x178A DUP3 PUSH2 0x1747 JUMP JUMPDEST SWAP2 POP PUSH2 0x1796 DUP3 DUP5 PUSH2 0x13FB JUMP JUMPDEST SWAP2 POP DUP2 SWAP1 POP SWAP4 SWAP3 POP POP POP JUMP JUMPDEST PUSH0 PUSH2 0x17AC DUP3 PUSH2 0xF75 JUMP JUMPDEST SWAP2 POP PUSH2 0x17B7 DUP4 PUSH2 0xF75 JUMP JUMPDEST SWAP3 POP DUP3 DUP3 MUL PUSH2 0x17C5 DUP2 PUSH2 0xF75 JUMP JUMPDEST SWAP2 POP DUP3 DUP3 DIV DUP5 EQ DUP4 ISZERO OR PUSH2 0x17DC JUMPI PUSH2 0x17DB PUSH2 0x1588 JUMP JUMPDEST JUMPDEST POP SWAP3 SWAP2 POP POP JUMP JUMPDEST PUSH0 PUSH2 0x17ED DUP3 PUSH2 0xF75 JUMP JUMPDEST SWAP2 POP PUSH2 0x17F8 DUP4 PUSH2 0xF75 JUMP JUMPDEST SWAP3 POP DUP3 DUP3 ADD SWAP1 POP DUP1 DUP3 GT ISZERO PUSH2 0x1810 JUMPI PUSH2 0x180F PUSH2 0x1588 JUMP JUMPDEST JUMPDEST SWAP3 SWAP2 POP POP JUMP JUMPDEST PUSH32 0x4E487B7100000000000000000000000000000000000000000000000000000000 PUSH0 MSTORE PUSH1 0x32 PUSH1 0x4 MSTORE PUSH1 0x24 PUSH0 REVERT JUMPDEST PUSH0 PUSH2 0x184D DUP3 PUSH2 0xF75 JUMP JUMPDEST SWAP2 POP PUSH0 DUP3 SUB PUSH2 0x185F JUMPI PUSH2 0x185E PUSH2 0x1588 JUMP JUMPDEST JUMPDEST PUSH1 0x1 DUP3 SUB SWAP1 POP SWAP2 SWAP1 POP JUMP JUMPDEST PUSH0 PUSH1 0x40 DUP3 ADD SWAP1 POP PUSH2 0x187D PUSH0 DUP4 ADD DUP6 PUSH2 0x1301 JUMP JUMPDEST PUSH2 0x188A PUSH1 0x20 DUP4 ADD DUP5 PUSH2 0x1301 JUMP JUMPDEST SWAP4 SWAP3 POP POP POP JUMP JUMPDEST PUSH32 0x5F00000000000000000000000000000000000000000000000000000000000000 PUSH0 DUP3 ADD MSTORE POP JUMP JUMPDEST PUSH0 PUSH2 0x18C5 PUSH1 0x1 DUP4 PUSH2 0x13F1 JUMP JUMPDEST SWAP2 POP PUSH2 0x18D0 DUP3 PUSH2 0x1891 JUMP JUMPDEST PUSH1 0x1 DUP3 ADD SWAP1 POP SWAP2 SWAP1 POP JUMP JUMPDEST PUSH0 PUSH2 0x18E6 DUP3 DUP7 PUSH2 0x13FB JUMP JUMPDEST SWAP2 POP PUSH2 0x18F1 DUP3 PUSH2 0x18B9 JUMP JUMPDEST SWAP2 POP PUSH2 0x18FD DUP3 DUP6 PUSH2 0x13FB JUMP JUMPDEST SWAP2 POP PUSH2 0x1908 DUP3 PUSH2 0x18B9 JUMP JUMPDEST SWAP2 POP PUSH2 0x1914 DUP3 DUP5 PUSH2 0x13FB JUMP JUMPDEST SWAP2 POP DUP2 SWAP1 POP SWAP5 SWAP4 POP POP POP POP JUMP JUMPDEST PUSH32 0x435245415445205441424C452000000000000000000000000000000000000000 PUSH0 DUP3 ADD MSTORE POP JUMP JUMPDEST PUSH0 PUSH2 0x1955 PUSH1 0xD DUP4 PUSH2 0x13F1 JUMP JUMPDEST SWAP2 POP PUSH2 0x1960 DUP3 PUSH2 0x1921 JUMP JUMPDEST PUSH1 0xD DUP3 ADD SWAP1 POP SWAP2 SWAP1 POP JUMP JUMPDEST PUSH32 0x2800000000000000000000000000000000000000000000000000000000000000 PUSH0 DUP3 ADD MSTORE POP JUMP JUMPDEST PUSH0 PUSH2 0x199F PUSH1 0x1 DUP4 PUSH2 0x13F1 JUMP JUMPDEST SWAP2 POP PUSH2 0x19AA DUP3 PUSH2 0x196B JUMP JUMPDEST PUSH1 0x1 DUP3 ADD SWAP1 POP SWAP2 SWAP1 POP JUMP JUMPDEST PUSH32 0x2900000000000000000000000000000000000000000000000000000000000000 PUSH0 DUP3 ADD MSTORE POP JUMP JUMPDEST PUSH0 PUSH2 0x19E9 PUSH1 0x1 DUP4 PUSH2 0x13F1 JUMP JUMPDEST SWAP2 POP PUSH2 0x19F4 DUP3 PUSH2 0x19B5 JUMP JUMPDEST PUSH1 0x1 DUP3 ADD SWAP1 POP SWAP2 SWAP1 POP JUMP JUMPDEST PUSH0 PUSH2 0x1A09 DUP3 PUSH2 0x1949 JUMP JUMPDEST SWAP2 POP PUSH2 0x1A15 DUP3 DUP7 PUSH2 0x13FB JUMP JUMPDEST SWAP2 POP PUSH2 0x1A20 DUP3 PUSH2 0x18B9 JUMP JUMPDEST SWAP2 POP PUSH2 0x1A2C DUP3 DUP6 PUSH2 0x13FB JUMP JUMPDEST SWAP2 POP PUSH2 0x1A37 DUP3 PUSH2 0x1993 JUMP JUMPDEST SWAP2 POP PUSH2 0x1A43 DUP3 DUP5 PUSH2 0x13FB JUMP JUMPDEST SWAP2 POP PUSH2 0x1A4E DUP3 PUSH2 0x19DD JUMP JUMPDEST SWAP2 POP DUP2 SWAP1 POP SWAP5 SWAP4 POP POP POP POP JUMP JUMPDEST PUSH32 0x2700000000000000000000000000000000000000000000000000000000000000 PUSH0 DUP3 ADD MSTORE POP JUMP JUMPDEST PUSH0 PUSH2 0x1A8F PUSH1 0x1 DUP4 PUSH2 0x13F1 JUMP JUMPDEST SWAP2 POP PUSH2 0x1A9A DUP3 PUSH2 0x1A5B JUMP JUMPDEST PUSH1 0x1 DUP3 ADD SWAP1 POP SWAP2 SWAP1 POP JUMP JUMPDEST PUSH0 PUSH2 0x1AAF DUP3 PUSH2 0x1A83 JUMP JUMPDEST SWAP2 POP PUSH2 0x1ABB DUP3 DUP5 PUSH2 0x13FB JUMP JUMPDEST SWAP2 POP PUSH2 0x1AC6 DUP3 PUSH2 0x1A83 JUMP JUMPDEST SWAP2 POP DUP2 SWAP1 POP SWAP3 SWAP2 POP POP JUMP JUMPDEST PUSH0 PUSH2 0x1ADB DUP3 PUSH2 0x1747 JUMP JUMPDEST SWAP2 POP PUSH2 0x1AE7 DUP3 DUP5 PUSH2 0x13FB JUMP JUMPDEST SWAP2 POP DUP2 SWAP1 POP SWAP3 SWAP2 POP POP JUMP JUMPDEST PUSH32 0x5550444154452000000000000000000000000000000000000000000000000000 PUSH0 DUP3 ADD MSTORE POP JUMP JUMPDEST PUSH0 PUSH2 0x1B26 PUSH1 0x7 DUP4 PUSH2 0x13F1 JUMP JUMPDEST SWAP2 POP PUSH2 0x1B31 DUP3 PUSH2 0x1AF2 JUMP JUMPDEST PUSH1 0x7 DUP3 ADD SWAP1 POP SWAP2 SWAP1 POP JUMP JUMPDEST PUSH32 0x2053455420000000000000000000000000000000000000000000000000000000 PUSH0 DUP3 ADD MSTORE POP JUMP JUMPDEST PUSH0 PUSH2 0x1B70 PUSH1 0x5 DUP4 PUSH2 0x13F1 JUMP JUMPDEST SWAP2 POP PUSH2 0x1B7B DUP3 PUSH2 0x1B3C JUMP JUMPDEST PUSH1 0x5 DUP3 ADD SWAP1 POP SWAP2 SWAP1 POP JUMP JUMPDEST PUSH0 PUSH2 0x1B90 DUP3 PUSH2 0x1B1A JUMP JUMPDEST SWAP2 POP PUSH2 0x1B9C DUP3 DUP7 PUSH2 0x13FB JUMP JUMPDEST SWAP2 POP PUSH2 0x1BA7 DUP3 PUSH2 0x1B64 JUMP JUMPDEST SWAP2 POP PUSH2 0x1BB3 DUP3 DUP6 PUSH2 0x13FB JUMP JUMPDEST SWAP2 POP PUSH2 0x1BBF DUP3 DUP5 PUSH2 0x13FB JUMP JUMPDEST SWAP2 POP DUP2 SWAP1 POP SWAP5 SWAP4 POP POP POP POP JUMP JUMPDEST PUSH32 0x494E5345525420494E544F200000000000000000000000000000000000000000 PUSH0 DUP3 ADD MSTORE POP JUMP JUMPDEST PUSH0 PUSH2 0x1C00 PUSH1 0xC DUP4 PUSH2 0x13F1 JUMP JUMPDEST SWAP2 POP PUSH2 0x1C0B DUP3 PUSH2 0x1BCC JUMP JUMPDEST PUSH1 0xC DUP3 ADD SWAP1 POP SWAP2 SWAP1 POP JUMP JUMPDEST PUSH32 0x2956414C55455328000000000000000000000000000000000000000000000000 PUSH0 DUP3 ADD MSTORE POP JUMP JUMPDEST PUSH0 PUSH2 0x1C4A PUSH1 0x8 DUP4 PUSH2 0x13F1 JUMP JUMPDEST SWAP2 POP PUSH2 0x1C55 DUP3 PUSH2 0x1C16 JUMP JUMPDEST PUSH1 0x8 DUP3 ADD SWAP1 POP SWAP2 SWAP1 POP JUMP JUMPDEST PUSH0 PUSH2 0x1C6A DUP3 PUSH2 0x1BF4 JUMP JUMPDEST SWAP2 POP PUSH2 0x1C76 DUP3 DUP7 PUSH2 0x13FB JUMP JUMPDEST SWAP2 POP PUSH2 0x1C81 DUP3 PUSH2 0x1993 JUMP JUMPDEST SWAP2 POP PUSH2 0x1C8D DUP3 DUP6 PUSH2 0x13FB JUMP JUMPDEST SWAP2 POP PUSH2 0x1C98 DUP3 PUSH2 0x1C3E JUMP JUMPDEST SWAP2 POP PUSH2 0x1CA4 DUP3 DUP5 PUSH2 0x13FB JUMP JUMPDEST SWAP2 POP PUSH2 0x1CAF DUP3 PUSH2 0x19DD JUMP JUMPDEST SWAP2 POP DUP2 SWAP1 POP SWAP5 SWAP4 POP POP POP POP JUMP INVALID PUSH10 0x642C2067726F75704964 0x2C KECCAK256 PUSH2 0x6464 PUSH19 0x6573732C20616D6F756E742C20726F756E6449 PUSH5 0x696420696E PUSH21 0x65676572207072696D617279206B65792C61646472 PUSH6 0x737320746578 PUSH21 0x2C67726F7570496420746578742C616D6F756E7420 PUSH10 0x6E74656765722C726F75 PUSH15 0x64496420696E7465676572A2646970 PUSH7 0x735822122085F5 0xEC DUP2 DUP14 DUP2 0xB2 PUSH28 0xB161FB3857515D3EB6CFF4997C6567A398CC89A8C74B00D64736F6C PUSH4 0x43000814 STOP CALLER "
		},
		"gasEstimates": {
			"creation": {
				"codeDepositCost": "1505200",
				"executionCost": "6578",
				"totalCost": "1511778"
			},
			"external": {
				"createTable()": "infinite",
				"deleteFromTable(uint256)": "infinite",
				"getAddressString(address)": "infinite",
				"getTableId()": "2454",
				"getTableName()": "infinite",
				"insertIntoTable(address,address,uint256,uint256)": "infinite",
				"onERC721Received(address,address,uint256,bytes)": "infinite",
				"setAccessControl(address)": "infinite",
				"updateTable(uint256,address)": "infinite"
			}
		},
		"methodIdentifiers": {
			"createTable()": "b2a4c897",
			"deleteFromTable(uint256)": "04bfc47f",
			"getAddressString(address)": "3e295859",
			"getTableId()": "88e4f1cb",
			"getTableName()": "5d5a33a2",
			"insertIntoTable(address,address,uint256,uint256)": "f8ae673b",
			"onERC721Received(address,address,uint256,bytes)": "150b7a02",
			"setAccessControl(address)": "19129e5a",
			"updateTable(uint256,address)": "e86492b1"
		}
	},
	"abi": [
		{
			"inputs": [
				{
					"internalType": "uint256",
					"name": "chainid",
					"type": "uint256"
				}
			],
			"name": "ChainNotSupported",
			"type": "error"
		},
		{
			"inputs": [
				{
					"internalType": "uint256",
					"name": "value",
					"type": "uint256"
				},
				{
					"internalType": "uint256",
					"name": "length",
					"type": "uint256"
				}
			],
			"name": "StringsInsufficientHexLength",
			"type": "error"
		},
		{
			"inputs": [],
			"name": "createTable",
			"outputs": [],
			"stateMutability": "payable",
			"type": "function"
		},
		{
			"inputs": [
				{
					"internalType": "uint256",
					"name": "id",
					"type": "uint256"
				}
			],
			"name": "deleteFromTable",
			"outputs": [],
			"stateMutability": "nonpayable",
			"type": "function"
		},
		{
			"inputs": [
				{
					"internalType": "address",
					"name": "m",
					"type": "address"
				}
			],
			"name": "getAddressString",
			"outputs": [
				{
					"internalType": "string",
					"name": "",
					"type": "string"
				}
			],
			"stateMutability": "pure",
			"type": "function"
		},
		{
			"inputs": [],
			"name": "getTableId",
			"outputs": [
				{
					"internalType": "uint256",
					"name": "",
					"type": "uint256"
				}
			],
			"stateMutability": "view",
			"type": "function"
		},
		{
			"inputs": [],
			"name": "getTableName",
			"outputs": [
				{
					"internalType": "string",
					"name": "",
					"type": "string"
				}
			],
			"stateMutability": "view",
			"type": "function"
		},
		{
			"inputs": [
				{
					"internalType": "address",
					"name": "groupId",
					"type": "address"
				},
				{
					"internalType": "address",
					"name": "memberAddress",
					"type": "address"
				},
				{
					"internalType": "uint256",
					"name": "amount",
					"type": "uint256"
				},
				{
					"internalType": "uint256",
					"name": "roundId",
					"type": "uint256"
				}
			],
			"name": "insertIntoTable",
			"outputs": [],
			"stateMutability": "nonpayable",
			"type": "function"
		},
		{
			"inputs": [
				{
					"internalType": "address",
					"name": "",
					"type": "address"
				},
				{
					"internalType": "address",
					"name": "",
					"type": "address"
				},
				{
					"internalType": "uint256",
					"name": "",
					"type": "uint256"
				},
				{
					"internalType": "bytes",
					"name": "",
					"type": "bytes"
				}
			],
			"name": "onERC721Received",
			"outputs": [
				{
					"internalType": "bytes4",
					"name": "",
					"type": "bytes4"
				}
			],
			"stateMutability": "nonpayable",
			"type": "function"
		},
		{
			"inputs": [
				{
					"internalType": "address",
					"name": "controller",
					"type": "address"
				}
			],
			"name": "setAccessControl",
			"outputs": [],
			"stateMutability": "nonpayable",
			"type": "function"
		},
		{
			"inputs": [
				{
					"internalType": "uint256",
					"name": "id",
					"type": "uint256"
				},
				{
					"internalType": "address",
					"name": "groupId",
					"type": "address"
				}
			],
			"name": "updateTable",
			"outputs": [],
			"stateMutability": "nonpayable",
			"type": "function"
		}
	]
}