{
	"data": {
		"bytecode": {
			"linkReferences": {},
			"object": "60806040525f600155348015610013575f80fd5b50611ccb806100215f395ff3fe608060405260043610610085575f3560e01c80633e295859116100585780633e2958591461013d5780635d5a33a21461017957806388e4f1cb146101a3578063b2a4c897146101cd578063e86492b1146101d757610085565b806304bfc47f14610089578063150b7a02146100b157806319129e5a146100ed5780632907b97914610115575b5f80fd5b348015610094575f80fd5b506100af60048036038101906100aa9190610faf565b6101ff565b005b3480156100bc575f80fd5b506100d760048036038101906100d29190611170565b6102e0565b6040516100e4919061122a565b60405180910390f35b3480156100f8575f80fd5b50610113600480360381019061010e9190611243565b6102f3565b005b348015610120575f80fd5b5061013b6004803603810190610136919061126e565b610368565b005b348015610148575f80fd5b50610163600480360381019061015e9190611243565b6104be565b6040516101709190611326565b60405180910390f35b348015610184575f80fd5b5061018d6104e8565b60405161019a9190611326565b60405180910390f35b3480156101ae575f80fd5b506101b761052f565b6040516101c49190611355565b60405180910390f35b6101d5610537565b005b3480156101e2575f80fd5b506101fd60048036038101906101f8919061136e565b610616565b005b5f6102098261072d565b604051602001610219919061140c565b60405160208183030381529060405290506102326107f7565b73ffffffffffffffffffffffffffffffffffffffff1663377af0da305f546102916040518060400160405280601781526020017f737573755f636f6e747269627574696f6e5f7461626c650000000000000000008152505f5487610a1c565b6040518463ffffffff1660e01b81526004016102af93929190611440565b5f604051808303815f87803b1580156102c6575f80fd5b505af11580156102d8573d5f803e3d5ffd5b505050505050565b5f63150b7a0260e01b9050949350505050565b6102fb6107f7565b73ffffffffffffffffffffffffffffffffffffffff16638bb0ab97305f54846040518463ffffffff1660e01b81526004016103389392919061147c565b5f604051808303815f87803b15801561034f575f80fd5b505af1158015610361573d5f803e3d5ffd5b5050505050565b5f61037282610a57565b90505f61037e84610a57565b90506103886107f7565b73ffffffffffffffffffffffffffffffffffffffff1663377af0da305f5461046d6040518060400160405280601781526020017f737573755f636f6e747269627574696f6e5f7461626c650000000000000000008152505f546040518060400160405280601481526020017f69642c2067726f757049642c206164647265737300000000000000000000000081525061043560015f81548092919061042c906114de565b9190505561072d565b61043e8a610a84565b6104478c610a84565b6040516020016104599392919061154b565b604051602081830303815290604052610aad565b6040518463ffffffff1660e01b815260040161048b93929190611440565b5f604051808303815f87803b1580156104a2575f80fd5b505af11580156104b4573d5f803e3d5ffd5b5050505050505050565b60606104e18273ffffffffffffffffffffffffffffffffffffffff166014610aeb565b9050919050565b606061052a6040518060400160405280601781526020017f737573755f636f6e747269627574696f6e5f7461626c650000000000000000008152505f54610d29565b905090565b5f8054905090565b61053f6107f7565b73ffffffffffffffffffffffffffffffffffffffff1663a15ab08d306105b2604051806060016040528060308152602001611c66603091396040518060400160405280601781526020017f737573755f636f6e747269627574696f6e5f7461626c65000000000000000000815250610d67565b6040518363ffffffff1660e01b81526004016105cf929190611599565b6020604051808303815f875af11580156105eb573d5f803e3d5ffd5b505050506040513d601f19601f8201168201806040525081019061060f91906115db565b5f81905550565b5f61062861062383610a57565b610a84565b604051602001610638919061162c565b60405160208183030381529060405290505f6106538461072d565b604051602001610663919061140c565b604051602081830303815290604052905061067c6107f7565b73ffffffffffffffffffffffffffffffffffffffff1663377af0da305f546106dc6040518060400160405280601781526020017f737573755f636f6e747269627574696f6e5f7461626c650000000000000000008152505f548888610d9d565b6040518463ffffffff1660e01b81526004016106fa93929190611440565b5f604051808303815f87803b158015610711575f80fd5b505af1158015610723573d5f803e3d5ffd5b5050505050505050565b60605f600161073b84610e1a565b0190505f8167ffffffffffffffff8111156107595761075861104c565b5b6040519080825280601f01601f19166020018201604052801561078b5781602001600182028036833780820191505090505b5090505f82602001820190505b6001156107ec578080600190039150507f3031323334353637383961626364656600000000000000000000000000000000600a86061a8153600a85816107e1576107e0611651565b5b0494505f8503610798575b819350505050919050565b5f6001460361081c5773012969f7e3439a9b04025b5a049eb9bad82a8c129050610a19565b600a46036108405773fad44bf5b843de943a09d4f3e84949a11d3aa3e69050610a19565b61a4b1460361086557739abd75e8640871a5a20d3b4ee6330a04c962affd9050610a19565b61a4ba460361088a57731a22854c5b1642760a827f20137a67930ae108d29050610a19565b608946036108ae57735c4e6a9e5c1e1bf445a062006faf19ea6c49afea9050610a19565b61013a46036108d3577359ef8bf2d6c102b4c42aef9189e1a9f0abfd652d9050610a19565b62aa36a746036108f95773c50c62498448acc8dbde43da77f8d5d2e2c7597d9050610a19565b62aa37dc460361091f577368a2f4423ad3bf5139db563cf3bc80aa09ed70799050610a19565b62066eee46036109455773223a74b8323914afdc3ff1e5005564dc17231d6e9050610a19565b62014a34460361096b5773a85aae9f0aec5f5638e5f13840797303ab29c9f99050610a19565b6201388246036109915773170fb206132b693e38adfc8727dcfa303546cec19050610a19565b6204cb2f46036109b75773030bcf3d50cad04c2e57391b12740982a93086219050610a19565b617a6946036109dc5773e7f1725e7734ce288f8367e1bb143e90bb3f05129050610a19565b466040517f264e42cf000000000000000000000000000000000000000000000000000000008152600401610a109190611355565b60405180910390fd5b90565b60605f610a298585610d29565b90508083604051602001610a3e929190611712565b6040516020818303038152906040529150509392505050565b6060610a7d8273ffffffffffffffffffffffffffffffffffffffff16601460ff16610aeb565b9050919050565b606081604051602001610a979190611795565b6040516020818303038152906040529050919050565b60605f610aba8686610d29565b9050808484604051602001610ad1939291906118e9565b604051602081830303815290604052915050949350505050565b60605f8390505f6002846002610b019190611945565b610b0b9190611986565b67ffffffffffffffff811115610b2457610b2361104c565b5b6040519080825280601f01601f191660200182016040528015610b565781602001600182028036833780820191505090505b5090507f3000000000000000000000000000000000000000000000000000000000000000815f81518110610b8d57610b8c6119b9565b5b60200101907effffffffffffffffffffffffffffffffffffffffffffffffffffffffffffff191690815f1a9053507f780000000000000000000000000000000000000000000000000000000000000081600181518110610bf057610bef6119b9565b5b60200101907effffffffffffffffffffffffffffffffffffffffffffffffffffffffffffff191690815f1a9053505f6001856002610c2e9190611945565b610c389190611986565b90505b6001811115610cd7577f3031323334353637383961626364656600000000000000000000000000000000600f841660108110610c7a57610c796119b9565b5b1a60f81b828281518110610c9157610c906119b9565b5b60200101907effffffffffffffffffffffffffffffffffffffffffffffffffffffffffffff191690815f1a905350600483901c925080610cd0906119e6565b9050610c3b565b505f8214610d1e5784846040517fe22e27eb000000000000000000000000000000000000000000000000000000008152600401610d15929190611a0d565b60405180910390fd5b809250505092915050565b606082610d354661072d565b610d3e8461072d565b604051602001610d5093929190611a7e565b604051602081830303815290604052905092915050565b606081610d734661072d565b84604051602001610d8693929190611b0e565b604051602081830303815290604052905092915050565b60605f610daa8686610d29565b90505f60405180602001604052805f81525090505f84511115610dea5783604051602001610dd89190611b6a565b60405160208183030381529060405290505b818582604051602001610dff93929190611c1f565b60405160208183030381529060405292505050949350505050565b5f805f90507a184f03e93ff9f4daa797ed6e38ed64bf6a1f0100000000000000008310610e76577a184f03e93ff9f4daa797ed6e38ed64bf6a1f0100000000000000008381610e6c57610e6b611651565b5b0492506040810190505b6d04ee2d6d415b85acef81000000008310610eb3576d04ee2d6d415b85acef81000000008381610ea957610ea8611651565b5b0492506020810190505b662386f26fc100008310610ee257662386f26fc100008381610ed857610ed7611651565b5b0492506010810190505b6305f5e1008310610f0b576305f5e1008381610f0157610f00611651565b5b0492506008810190505b6127108310610f30576127108381610f2657610f25611651565b5b0492506004810190505b60648310610f535760648381610f4957610f48611651565b5b0492506002810190505b600a8310610f62576001810190505b80915050919050565b5f604051905090565b5f80fd5b5f80fd5b5f819050919050565b610f8e81610f7c565b8114610f98575f80fd5b50565b5f81359050610fa981610f85565b92915050565b5f60208284031215610fc457610fc3610f74565b5b5f610fd184828501610f9b565b91505092915050565b5f73ffffffffffffffffffffffffffffffffffffffff82169050919050565b5f61100382610fda565b9050919050565b61101381610ff9565b811461101d575f80fd5b50565b5f8135905061102e8161100a565b92915050565b5f80fd5b5f80fd5b5f601f19601f8301169050919050565b7f4e487b71000000000000000000000000000000000000000000000000000000005f52604160045260245ffd5b6110828261103c565b810181811067ffffffffffffffff821117156110a1576110a061104c565b5b80604052505050565b5f6110b3610f6b565b90506110bf8282611079565b919050565b5f67ffffffffffffffff8211156110de576110dd61104c565b5b6110e78261103c565b9050602081019050919050565b828183375f83830152505050565b5f61111461110f846110c4565b6110aa565b9050828152602081018484840111156111305761112f611038565b5b61113b8482856110f4565b509392505050565b5f82601f83011261115757611156611034565b5b8135611167848260208601611102565b91505092915050565b5f805f806080858703121561118857611187610f74565b5b5f61119587828801611020565b94505060206111a687828801611020565b93505060406111b787828801610f9b565b925050606085013567ffffffffffffffff8111156111d8576111d7610f78565b5b6111e487828801611143565b91505092959194509250565b5f7fffffffff0000000000000000000000000000000000000000000000000000000082169050919050565b611224816111f0565b82525050565b5f60208201905061123d5f83018461121b565b92915050565b5f6020828403121561125857611257610f74565b5b5f61126584828501611020565b91505092915050565b5f806040838503121561128457611283610f74565b5b5f61129185828601611020565b92505060206112a285828601611020565b9150509250929050565b5f81519050919050565b5f82825260208201905092915050565b5f5b838110156112e35780820151818401526020810190506112c8565b5f8484015250505050565b5f6112f8826112ac565b61130281856112b6565b93506113128185602086016112c6565b61131b8161103c565b840191505092915050565b5f6020820190508181035f83015261133e81846112ee565b905092915050565b61134f81610f7c565b82525050565b5f6020820190506113685f830184611346565b92915050565b5f806040838503121561138457611383610f74565b5b5f61139185828601610f9b565b92505060206113a285828601611020565b9150509250929050565b7f69643d0000000000000000000000000000000000000000000000000000000000815250565b5f81905092915050565b5f6113e6826112ac565b6113f081856113d2565b93506114008185602086016112c6565b80840191505092915050565b5f611416826113ac565b60038201915061142682846113dc565b915081905092915050565b61143a81610ff9565b82525050565b5f6060820190506114535f830186611431565b6114606020830185611346565b818103604083015261147281846112ee565b9050949350505050565b5f60608201905061148f5f830186611431565b61149c6020830185611346565b6114a96040830184611431565b949350505050565b7f4e487b71000000000000000000000000000000000000000000000000000000005f52601160045260245ffd5b5f6114e882610f7c565b91507fffffffffffffffffffffffffffffffffffffffffffffffffffffffffffffffff820361151a576115196114b1565b5b600182019050919050565b7f2c00000000000000000000000000000000000000000000000000000000000000815250565b5f61155682866113dc565b915061156182611525565b60018201915061157182856113dc565b915061157c82611525565b60018201915061158c82846113dc565b9150819050949350505050565b5f6040820190506115ac5f830185611431565b81810360208301526115be81846112ee565b90509392505050565b5f815190506115d581610f85565b92915050565b5f602082840312156115f0576115ef610f74565b5b5f6115fd848285016115c7565b91505092915050565b7f67726f757049643d000000000000000000000000000000000000000000000000815250565b5f61163682611606565b60088201915061164682846113dc565b915081905092915050565b7f4e487b71000000000000000000000000000000000000000000000000000000005f52601260045260245ffd5b7f44454c4554452046524f4d2000000000000000000000000000000000000000005f82015250565b5f6116b2600c836113d2565b91506116bd8261167e565b600c82019050919050565b7f20574845524520000000000000000000000000000000000000000000000000005f82015250565b5f6116fc6007836113d2565b9150611707826116c8565b600782019050919050565b5f61171c826116a6565b915061172882856113dc565b9150611733826116f0565b915061173f82846113dc565b91508190509392505050565b7f27000000000000000000000000000000000000000000000000000000000000005f82015250565b5f61177f6001836113d2565b915061178a8261174b565b600182019050919050565b5f61179f82611773565b91506117ab82846113dc565b91506117b682611773565b915081905092915050565b7f494e5345525420494e544f2000000000000000000000000000000000000000005f82015250565b5f6117f5600c836113d2565b9150611800826117c1565b600c82019050919050565b7f28000000000000000000000000000000000000000000000000000000000000005f82015250565b5f61183f6001836113d2565b915061184a8261180b565b600182019050919050565b7f2956414c554553280000000000000000000000000000000000000000000000005f82015250565b5f6118896008836113d2565b915061189482611855565b600882019050919050565b7f29000000000000000000000000000000000000000000000000000000000000005f82015250565b5f6118d36001836113d2565b91506118de8261189f565b600182019050919050565b5f6118f3826117e9565b91506118ff82866113dc565b915061190a82611833565b915061191682856113dc565b91506119218261187d565b915061192d82846113dc565b9150611938826118c7565b9150819050949350505050565b5f61194f82610f7c565b915061195a83610f7c565b925082820261196881610f7c565b9150828204841483151761197f5761197e6114b1565b5b5092915050565b5f61199082610f7c565b915061199b83610f7c565b92508282019050808211156119b3576119b26114b1565b5b92915050565b7f4e487b71000000000000000000000000000000000000000000000000000000005f52603260045260245ffd5b5f6119f082610f7c565b91505f8203611a0257611a016114b1565b5b600182039050919050565b5f604082019050611a205f830185611346565b611a2d6020830184611346565b9392505050565b7f5f000000000000000000000000000000000000000000000000000000000000005f82015250565b5f611a686001836113d2565b9150611a7382611a34565b600182019050919050565b5f611a8982866113dc565b9150611a9482611a5c565b9150611aa082856113dc565b9150611aab82611a5c565b9150611ab782846113dc565b9150819050949350505050565b7f435245415445205441424c4520000000000000000000000000000000000000005f82015250565b5f611af8600d836113d2565b9150611b0382611ac4565b600d82019050919050565b5f611b1882611aec565b9150611b2482866113dc565b9150611b2f82611a5c565b9150611b3b82856113dc565b9150611b4682611833565b9150611b5282846113dc565b9150611b5d826118c7565b9150819050949350505050565b5f611b74826116f0565b9150611b8082846113dc565b915081905092915050565b7f55504441544520000000000000000000000000000000000000000000000000005f82015250565b5f611bbf6007836113d2565b9150611bca82611b8b565b600782019050919050565b7f20534554200000000000000000000000000000000000000000000000000000005f82015250565b5f611c096005836113d2565b9150611c1482611bd5565b600582019050919050565b5f611c2982611bb3565b9150611c3582866113dc565b9150611c4082611bfd565b9150611c4c82856113dc565b9150611c5882846113dc565b915081905094935050505056fe696420696e7465676572207072696d617279206b65792c6164647265737320746578742c67726f757049642074657874a264697066735822122013fa2655b5ddc9cf075008469460236d420d1e1c6c74b8b2b20b3d040793fad964736f6c63430008140033",
			"opcodes": "PUSH1 0x80 PUSH1 0x40 MSTORE PUSH0 PUSH1 0x1 SSTORE CALLVALUE DUP1 ISZERO PUSH2 0x13 JUMPI PUSH0 DUP1 REVERT JUMPDEST POP PUSH2 0x1CCB DUP1 PUSH2 0x21 PUSH0 CODECOPY PUSH0 RETURN INVALID PUSH1 0x80 PUSH1 0x40 MSTORE PUSH1 0x4 CALLDATASIZE LT PUSH2 0x85 JUMPI PUSH0 CALLDATALOAD PUSH1 0xE0 SHR DUP1 PUSH4 0x3E295859 GT PUSH2 0x58 JUMPI DUP1 PUSH4 0x3E295859 EQ PUSH2 0x13D JUMPI DUP1 PUSH4 0x5D5A33A2 EQ PUSH2 0x179 JUMPI DUP1 PUSH4 0x88E4F1CB EQ PUSH2 0x1A3 JUMPI DUP1 PUSH4 0xB2A4C897 EQ PUSH2 0x1CD JUMPI DUP1 PUSH4 0xE86492B1 EQ PUSH2 0x1D7 JUMPI PUSH2 0x85 JUMP JUMPDEST DUP1 PUSH4 0x4BFC47F EQ PUSH2 0x89 JUMPI DUP1 PUSH4 0x150B7A02 EQ PUSH2 0xB1 JUMPI DUP1 PUSH4 0x19129E5A EQ PUSH2 0xED JUMPI DUP1 PUSH4 0x2907B979 EQ PUSH2 0x115 JUMPI JUMPDEST PUSH0 DUP1 REVERT JUMPDEST CALLVALUE DUP1 ISZERO PUSH2 0x94 JUMPI PUSH0 DUP1 REVERT JUMPDEST POP PUSH2 0xAF PUSH1 0x4 DUP1 CALLDATASIZE SUB DUP2 ADD SWAP1 PUSH2 0xAA SWAP2 SWAP1 PUSH2 0xFAF JUMP JUMPDEST PUSH2 0x1FF JUMP JUMPDEST STOP JUMPDEST CALLVALUE DUP1 ISZERO PUSH2 0xBC JUMPI PUSH0 DUP1 REVERT JUMPDEST POP PUSH2 0xD7 PUSH1 0x4 DUP1 CALLDATASIZE SUB DUP2 ADD SWAP1 PUSH2 0xD2 SWAP2 SWAP1 PUSH2 0x1170 JUMP JUMPDEST PUSH2 0x2E0 JUMP JUMPDEST PUSH1 0x40 MLOAD PUSH2 0xE4 SWAP2 SWAP1 PUSH2 0x122A JUMP JUMPDEST PUSH1 0x40 MLOAD DUP1 SWAP2 SUB SWAP1 RETURN JUMPDEST CALLVALUE DUP1 ISZERO PUSH2 0xF8 JUMPI PUSH0 DUP1 REVERT JUMPDEST POP PUSH2 0x113 PUSH1 0x4 DUP1 CALLDATASIZE SUB DUP2 ADD SWAP1 PUSH2 0x10E SWAP2 SWAP1 PUSH2 0x1243 JUMP JUMPDEST PUSH2 0x2F3 JUMP JUMPDEST STOP JUMPDEST CALLVALUE DUP1 ISZERO PUSH2 0x120 JUMPI PUSH0 DUP1 REVERT JUMPDEST POP PUSH2 0x13B PUSH1 0x4 DUP1 CALLDATASIZE SUB DUP2 ADD SWAP1 PUSH2 0x136 SWAP2 SWAP1 PUSH2 0x126E JUMP JUMPDEST PUSH2 0x368 JUMP JUMPDEST STOP JUMPDEST CALLVALUE DUP1 ISZERO PUSH2 0x148 JUMPI PUSH0 DUP1 REVERT JUMPDEST POP PUSH2 0x163 PUSH1 0x4 DUP1 CALLDATASIZE SUB DUP2 ADD SWAP1 PUSH2 0x15E SWAP2 SWAP1 PUSH2 0x1243 JUMP JUMPDEST PUSH2 0x4BE JUMP JUMPDEST PUSH1 0x40 MLOAD PUSH2 0x170 SWAP2 SWAP1 PUSH2 0x1326 JUMP JUMPDEST PUSH1 0x40 MLOAD DUP1 SWAP2 SUB SWAP1 RETURN JUMPDEST CALLVALUE DUP1 ISZERO PUSH2 0x184 JUMPI PUSH0 DUP1 REVERT JUMPDEST POP PUSH2 0x18D PUSH2 0x4E8 JUMP JUMPDEST PUSH1 0x40 MLOAD PUSH2 0x19A SWAP2 SWAP1 PUSH2 0x1326 JUMP JUMPDEST PUSH1 0x40 MLOAD DUP1 SWAP2 SUB SWAP1 RETURN JUMPDEST CALLVALUE DUP1 ISZERO PUSH2 0x1AE JUMPI PUSH0 DUP1 REVERT JUMPDEST POP PUSH2 0x1B7 PUSH2 0x52F JUMP JUMPDEST PUSH1 0x40 MLOAD PUSH2 0x1C4 SWAP2 SWAP1 PUSH2 0x1355 JUMP JUMPDEST PUSH1 0x40 MLOAD DUP1 SWAP2 SUB SWAP1 RETURN JUMPDEST PUSH2 0x1D5 PUSH2 0x537 JUMP JUMPDEST STOP JUMPDEST CALLVALUE DUP1 ISZERO PUSH2 0x1E2 JUMPI PUSH0 DUP1 REVERT JUMPDEST POP PUSH2 0x1FD PUSH1 0x4 DUP1 CALLDATASIZE SUB DUP2 ADD SWAP1 PUSH2 0x1F8 SWAP2 SWAP1 PUSH2 0x136E JUMP JUMPDEST PUSH2 0x616 JUMP JUMPDEST STOP JUMPDEST PUSH0 PUSH2 0x209 DUP3 PUSH2 0x72D JUMP JUMPDEST PUSH1 0x40 MLOAD PUSH1 0x20 ADD PUSH2 0x219 SWAP2 SWAP1 PUSH2 0x140C JUMP JUMPDEST PUSH1 0x40 MLOAD PUSH1 0x20 DUP2 DUP4 SUB SUB DUP2 MSTORE SWAP1 PUSH1 0x40 MSTORE SWAP1 POP PUSH2 0x232 PUSH2 0x7F7 JUMP JUMPDEST PUSH20 0xFFFFFFFFFFFFFFFFFFFFFFFFFFFFFFFFFFFFFFFF AND PUSH4 0x377AF0DA ADDRESS PUSH0 SLOAD PUSH2 0x291 PUSH1 0x40 MLOAD DUP1 PUSH1 0x40 ADD PUSH1 0x40 MSTORE DUP1 PUSH1 0x17 DUP2 MSTORE PUSH1 0x20 ADD PUSH32 0x737573755F636F6E747269627574696F6E5F7461626C65000000000000000000 DUP2 MSTORE POP PUSH0 SLOAD DUP8 PUSH2 0xA1C JUMP JUMPDEST PUSH1 0x40 MLOAD DUP5 PUSH4 0xFFFFFFFF AND PUSH1 0xE0 SHL DUP2 MSTORE PUSH1 0x4 ADD PUSH2 0x2AF SWAP4 SWAP3 SWAP2 SWAP1 PUSH2 0x1440 JUMP JUMPDEST PUSH0 PUSH1 0x40 MLOAD DUP1 DUP4 SUB DUP2 PUSH0 DUP8 DUP1 EXTCODESIZE ISZERO DUP1 ISZERO PUSH2 0x2C6 JUMPI PUSH0 DUP1 REVERT JUMPDEST POP GAS CALL ISZERO DUP1 ISZERO PUSH2 0x2D8 JUMPI RETURNDATASIZE PUSH0 DUP1 RETURNDATACOPY RETURNDATASIZE PUSH0 REVERT JUMPDEST POP POP POP POP POP POP JUMP JUMPDEST PUSH0 PUSH4 0x150B7A02 PUSH1 0xE0 SHL SWAP1 POP SWAP5 SWAP4 POP POP POP POP JUMP JUMPDEST PUSH2 0x2FB PUSH2 0x7F7 JUMP JUMPDEST PUSH20 0xFFFFFFFFFFFFFFFFFFFFFFFFFFFFFFFFFFFFFFFF AND PUSH4 0x8BB0AB97 ADDRESS PUSH0 SLOAD DUP5 PUSH1 0x40 MLOAD DUP5 PUSH4 0xFFFFFFFF AND PUSH1 0xE0 SHL DUP2 MSTORE PUSH1 0x4 ADD PUSH2 0x338 SWAP4 SWAP3 SWAP2 SWAP1 PUSH2 0x147C JUMP JUMPDEST PUSH0 PUSH1 0x40 MLOAD DUP1 DUP4 SUB DUP2 PUSH0 DUP8 DUP1 EXTCODESIZE ISZERO DUP1 ISZERO PUSH2 0x34F JUMPI PUSH0 DUP1 REVERT JUMPDEST POP GAS CALL ISZERO DUP1 ISZERO PUSH2 0x361 JUMPI RETURNDATASIZE PUSH0 DUP1 RETURNDATACOPY RETURNDATASIZE PUSH0 REVERT JUMPDEST POP POP POP POP POP JUMP JUMPDEST PUSH0 PUSH2 0x372 DUP3 PUSH2 0xA57 JUMP JUMPDEST SWAP1 POP PUSH0 PUSH2 0x37E DUP5 PUSH2 0xA57 JUMP JUMPDEST SWAP1 POP PUSH2 0x388 PUSH2 0x7F7 JUMP JUMPDEST PUSH20 0xFFFFFFFFFFFFFFFFFFFFFFFFFFFFFFFFFFFFFFFF AND PUSH4 0x377AF0DA ADDRESS PUSH0 SLOAD PUSH2 0x46D PUSH1 0x40 MLOAD DUP1 PUSH1 0x40 ADD PUSH1 0x40 MSTORE DUP1 PUSH1 0x17 DUP2 MSTORE PUSH1 0x20 ADD PUSH32 0x737573755F636F6E747269627574696F6E5F7461626C65000000000000000000 DUP2 MSTORE POP PUSH0 SLOAD PUSH1 0x40 MLOAD DUP1 PUSH1 0x40 ADD PUSH1 0x40 MSTORE DUP1 PUSH1 0x14 DUP2 MSTORE PUSH1 0x20 ADD PUSH32 0x69642C2067726F757049642C2061646472657373000000000000000000000000 DUP2 MSTORE POP PUSH2 0x435 PUSH1 0x1 PUSH0 DUP2 SLOAD DUP1 SWAP3 SWAP2 SWAP1 PUSH2 0x42C SWAP1 PUSH2 0x14DE JUMP JUMPDEST SWAP2 SWAP1 POP SSTORE PUSH2 0x72D JUMP JUMPDEST PUSH2 0x43E DUP11 PUSH2 0xA84 JUMP JUMPDEST PUSH2 0x447 DUP13 PUSH2 0xA84 JUMP JUMPDEST PUSH1 0x40 MLOAD PUSH1 0x20 ADD PUSH2 0x459 SWAP4 SWAP3 SWAP2 SWAP1 PUSH2 0x154B JUMP JUMPDEST PUSH1 0x40 MLOAD PUSH1 0x20 DUP2 DUP4 SUB SUB DUP2 MSTORE SWAP1 PUSH1 0x40 MSTORE PUSH2 0xAAD JUMP JUMPDEST PUSH1 0x40 MLOAD DUP5 PUSH4 0xFFFFFFFF AND PUSH1 0xE0 SHL DUP2 MSTORE PUSH1 0x4 ADD PUSH2 0x48B SWAP4 SWAP3 SWAP2 SWAP1 PUSH2 0x1440 JUMP JUMPDEST PUSH0 PUSH1 0x40 MLOAD DUP1 DUP4 SUB DUP2 PUSH0 DUP8 DUP1 EXTCODESIZE ISZERO DUP1 ISZERO PUSH2 0x4A2 JUMPI PUSH0 DUP1 REVERT JUMPDEST POP GAS CALL ISZERO DUP1 ISZERO PUSH2 0x4B4 JUMPI RETURNDATASIZE PUSH0 DUP1 RETURNDATACOPY RETURNDATASIZE PUSH0 REVERT JUMPDEST POP POP POP POP POP POP POP POP JUMP JUMPDEST PUSH1 0x60 PUSH2 0x4E1 DUP3 PUSH20 0xFFFFFFFFFFFFFFFFFFFFFFFFFFFFFFFFFFFFFFFF AND PUSH1 0x14 PUSH2 0xAEB JUMP JUMPDEST SWAP1 POP SWAP2 SWAP1 POP JUMP JUMPDEST PUSH1 0x60 PUSH2 0x52A PUSH1 0x40 MLOAD DUP1 PUSH1 0x40 ADD PUSH1 0x40 MSTORE DUP1 PUSH1 0x17 DUP2 MSTORE PUSH1 0x20 ADD PUSH32 0x737573755F636F6E747269627574696F6E5F7461626C65000000000000000000 DUP2 MSTORE POP PUSH0 SLOAD PUSH2 0xD29 JUMP JUMPDEST SWAP1 POP SWAP1 JUMP JUMPDEST PUSH0 DUP1 SLOAD SWAP1 POP SWAP1 JUMP JUMPDEST PUSH2 0x53F PUSH2 0x7F7 JUMP JUMPDEST PUSH20 0xFFFFFFFFFFFFFFFFFFFFFFFFFFFFFFFFFFFFFFFF AND PUSH4 0xA15AB08D ADDRESS PUSH2 0x5B2 PUSH1 0x40 MLOAD DUP1 PUSH1 0x60 ADD PUSH1 0x40 MSTORE DUP1 PUSH1 0x30 DUP2 MSTORE PUSH1 0x20 ADD PUSH2 0x1C66 PUSH1 0x30 SWAP2 CODECOPY PUSH1 0x40 MLOAD DUP1 PUSH1 0x40 ADD PUSH1 0x40 MSTORE DUP1 PUSH1 0x17 DUP2 MSTORE PUSH1 0x20 ADD PUSH32 0x737573755F636F6E747269627574696F6E5F7461626C65000000000000000000 DUP2 MSTORE POP PUSH2 0xD67 JUMP JUMPDEST PUSH1 0x40 MLOAD DUP4 PUSH4 0xFFFFFFFF AND PUSH1 0xE0 SHL DUP2 MSTORE PUSH1 0x4 ADD PUSH2 0x5CF SWAP3 SWAP2 SWAP1 PUSH2 0x1599 JUMP JUMPDEST PUSH1 0x20 PUSH1 0x40 MLOAD DUP1 DUP4 SUB DUP2 PUSH0 DUP8 GAS CALL ISZERO DUP1 ISZERO PUSH2 0x5EB JUMPI RETURNDATASIZE PUSH0 DUP1 RETURNDATACOPY RETURNDATASIZE PUSH0 REVERT JUMPDEST POP POP POP POP PUSH1 0x40 MLOAD RETURNDATASIZE PUSH1 0x1F NOT PUSH1 0x1F DUP3 ADD AND DUP3 ADD DUP1 PUSH1 0x40 MSTORE POP DUP2 ADD SWAP1 PUSH2 0x60F SWAP2 SWAP1 PUSH2 0x15DB JUMP JUMPDEST PUSH0 DUP2 SWAP1 SSTORE POP JUMP JUMPDEST PUSH0 PUSH2 0x628 PUSH2 0x623 DUP4 PUSH2 0xA57 JUMP JUMPDEST PUSH2 0xA84 JUMP JUMPDEST PUSH1 0x40 MLOAD PUSH1 0x20 ADD PUSH2 0x638 SWAP2 SWAP1 PUSH2 0x162C JUMP JUMPDEST PUSH1 0x40 MLOAD PUSH1 0x20 DUP2 DUP4 SUB SUB DUP2 MSTORE SWAP1 PUSH1 0x40 MSTORE SWAP1 POP PUSH0 PUSH2 0x653 DUP5 PUSH2 0x72D JUMP JUMPDEST PUSH1 0x40 MLOAD PUSH1 0x20 ADD PUSH2 0x663 SWAP2 SWAP1 PUSH2 0x140C JUMP JUMPDEST PUSH1 0x40 MLOAD PUSH1 0x20 DUP2 DUP4 SUB SUB DUP2 MSTORE SWAP1 PUSH1 0x40 MSTORE SWAP1 POP PUSH2 0x67C PUSH2 0x7F7 JUMP JUMPDEST PUSH20 0xFFFFFFFFFFFFFFFFFFFFFFFFFFFFFFFFFFFFFFFF AND PUSH4 0x377AF0DA ADDRESS PUSH0 SLOAD PUSH2 0x6DC PUSH1 0x40 MLOAD DUP1 PUSH1 0x40 ADD PUSH1 0x40 MSTORE DUP1 PUSH1 0x17 DUP2 MSTORE PUSH1 0x20 ADD PUSH32 0x737573755F636F6E747269627574696F6E5F7461626C65000000000000000000 DUP2 MSTORE POP PUSH0 SLOAD DUP9 DUP9 PUSH2 0xD9D JUMP JUMPDEST PUSH1 0x40 MLOAD DUP5 PUSH4 0xFFFFFFFF AND PUSH1 0xE0 SHL DUP2 MSTORE PUSH1 0x4 ADD PUSH2 0x6FA SWAP4 SWAP3 SWAP2 SWAP1 PUSH2 0x1440 JUMP JUMPDEST PUSH0 PUSH1 0x40 MLOAD DUP1 DUP4 SUB DUP2 PUSH0 DUP8 DUP1 EXTCODESIZE ISZERO DUP1 ISZERO PUSH2 0x711 JUMPI PUSH0 DUP1 REVERT JUMPDEST POP GAS CALL ISZERO DUP1 ISZERO PUSH2 0x723 JUMPI RETURNDATASIZE PUSH0 DUP1 RETURNDATACOPY RETURNDATASIZE PUSH0 REVERT JUMPDEST POP POP POP POP POP POP POP POP JUMP JUMPDEST PUSH1 0x60 PUSH0 PUSH1 0x1 PUSH2 0x73B DUP5 PUSH2 0xE1A JUMP JUMPDEST ADD SWAP1 POP PUSH0 DUP2 PUSH8 0xFFFFFFFFFFFFFFFF DUP2 GT ISZERO PUSH2 0x759 JUMPI PUSH2 0x758 PUSH2 0x104C JUMP JUMPDEST JUMPDEST PUSH1 0x40 MLOAD SWAP1 DUP1 DUP3 MSTORE DUP1 PUSH1 0x1F ADD PUSH1 0x1F NOT AND PUSH1 0x20 ADD DUP3 ADD PUSH1 0x40 MSTORE DUP1 ISZERO PUSH2 0x78B JUMPI DUP2 PUSH1 0x20 ADD PUSH1 0x1 DUP3 MUL DUP1 CALLDATASIZE DUP4 CALLDATACOPY DUP1 DUP3 ADD SWAP2 POP POP SWAP1 POP JUMPDEST POP SWAP1 POP PUSH0 DUP3 PUSH1 0x20 ADD DUP3 ADD SWAP1 POP JUMPDEST PUSH1 0x1 ISZERO PUSH2 0x7EC JUMPI DUP1 DUP1 PUSH1 0x1 SWAP1 SUB SWAP2 POP POP PUSH32 0x3031323334353637383961626364656600000000000000000000000000000000 PUSH1 0xA DUP7 MOD BYTE DUP2 MSTORE8 PUSH1 0xA DUP6 DUP2 PUSH2 0x7E1 JUMPI PUSH2 0x7E0 PUSH2 0x1651 JUMP JUMPDEST JUMPDEST DIV SWAP5 POP PUSH0 DUP6 SUB PUSH2 0x798 JUMPI JUMPDEST DUP2 SWAP4 POP POP POP POP SWAP2 SWAP1 POP JUMP JUMPDEST PUSH0 PUSH1 0x1 CHAINID SUB PUSH2 0x81C JUMPI PUSH20 0x12969F7E3439A9B04025B5A049EB9BAD82A8C12 SWAP1 POP PUSH2 0xA19 JUMP JUMPDEST PUSH1 0xA CHAINID SUB PUSH2 0x840 JUMPI PUSH20 0xFAD44BF5B843DE943A09D4F3E84949A11D3AA3E6 SWAP1 POP PUSH2 0xA19 JUMP JUMPDEST PUSH2 0xA4B1 CHAINID SUB PUSH2 0x865 JUMPI PUSH20 0x9ABD75E8640871A5A20D3B4EE6330A04C962AFFD SWAP1 POP PUSH2 0xA19 JUMP JUMPDEST PUSH2 0xA4BA CHAINID SUB PUSH2 0x88A JUMPI PUSH20 0x1A22854C5B1642760A827F20137A67930AE108D2 SWAP1 POP PUSH2 0xA19 JUMP JUMPDEST PUSH1 0x89 CHAINID SUB PUSH2 0x8AE JUMPI PUSH20 0x5C4E6A9E5C1E1BF445A062006FAF19EA6C49AFEA SWAP1 POP PUSH2 0xA19 JUMP JUMPDEST PUSH2 0x13A CHAINID SUB PUSH2 0x8D3 JUMPI PUSH20 0x59EF8BF2D6C102B4C42AEF9189E1A9F0ABFD652D SWAP1 POP PUSH2 0xA19 JUMP JUMPDEST PUSH3 0xAA36A7 CHAINID SUB PUSH2 0x8F9 JUMPI PUSH20 0xC50C62498448ACC8DBDE43DA77F8D5D2E2C7597D SWAP1 POP PUSH2 0xA19 JUMP JUMPDEST PUSH3 0xAA37DC CHAINID SUB PUSH2 0x91F JUMPI PUSH20 0x68A2F4423AD3BF5139DB563CF3BC80AA09ED7079 SWAP1 POP PUSH2 0xA19 JUMP JUMPDEST PUSH3 0x66EEE CHAINID SUB PUSH2 0x945 JUMPI PUSH20 0x223A74B8323914AFDC3FF1E5005564DC17231D6E SWAP1 POP PUSH2 0xA19 JUMP JUMPDEST PUSH3 0x14A34 CHAINID SUB PUSH2 0x96B JUMPI PUSH20 0xA85AAE9F0AEC5F5638E5F13840797303AB29C9F9 SWAP1 POP PUSH2 0xA19 JUMP JUMPDEST PUSH3 0x13882 CHAINID SUB PUSH2 0x991 JUMPI PUSH20 0x170FB206132B693E38ADFC8727DCFA303546CEC1 SWAP1 POP PUSH2 0xA19 JUMP JUMPDEST PUSH3 0x4CB2F CHAINID SUB PUSH2 0x9B7 JUMPI PUSH20 0x30BCF3D50CAD04C2E57391B12740982A9308621 SWAP1 POP PUSH2 0xA19 JUMP JUMPDEST PUSH2 0x7A69 CHAINID SUB PUSH2 0x9DC JUMPI PUSH20 0xE7F1725E7734CE288F8367E1BB143E90BB3F0512 SWAP1 POP PUSH2 0xA19 JUMP JUMPDEST CHAINID PUSH1 0x40 MLOAD PUSH32 0x264E42CF00000000000000000000000000000000000000000000000000000000 DUP2 MSTORE PUSH1 0x4 ADD PUSH2 0xA10 SWAP2 SWAP1 PUSH2 0x1355 JUMP JUMPDEST PUSH1 0x40 MLOAD DUP1 SWAP2 SUB SWAP1 REVERT JUMPDEST SWAP1 JUMP JUMPDEST PUSH1 0x60 PUSH0 PUSH2 0xA29 DUP6 DUP6 PUSH2 0xD29 JUMP JUMPDEST SWAP1 POP DUP1 DUP4 PUSH1 0x40 MLOAD PUSH1 0x20 ADD PUSH2 0xA3E SWAP3 SWAP2 SWAP1 PUSH2 0x1712 JUMP JUMPDEST PUSH1 0x40 MLOAD PUSH1 0x20 DUP2 DUP4 SUB SUB DUP2 MSTORE SWAP1 PUSH1 0x40 MSTORE SWAP2 POP POP SWAP4 SWAP3 POP POP POP JUMP JUMPDEST PUSH1 0x60 PUSH2 0xA7D DUP3 PUSH20 0xFFFFFFFFFFFFFFFFFFFFFFFFFFFFFFFFFFFFFFFF AND PUSH1 0x14 PUSH1 0xFF AND PUSH2 0xAEB JUMP JUMPDEST SWAP1 POP SWAP2 SWAP1 POP JUMP JUMPDEST PUSH1 0x60 DUP2 PUSH1 0x40 MLOAD PUSH1 0x20 ADD PUSH2 0xA97 SWAP2 SWAP1 PUSH2 0x1795 JUMP JUMPDEST PUSH1 0x40 MLOAD PUSH1 0x20 DUP2 DUP4 SUB SUB DUP2 MSTORE SWAP1 PUSH1 0x40 MSTORE SWAP1 POP SWAP2 SWAP1 POP JUMP JUMPDEST PUSH1 0x60 PUSH0 PUSH2 0xABA DUP7 DUP7 PUSH2 0xD29 JUMP JUMPDEST SWAP1 POP DUP1 DUP5 DUP5 PUSH1 0x40 MLOAD PUSH1 0x20 ADD PUSH2 0xAD1 SWAP4 SWAP3 SWAP2 SWAP1 PUSH2 0x18E9 JUMP JUMPDEST PUSH1 0x40 MLOAD PUSH1 0x20 DUP2 DUP4 SUB SUB DUP2 MSTORE SWAP1 PUSH1 0x40 MSTORE SWAP2 POP POP SWAP5 SWAP4 POP POP POP POP JUMP JUMPDEST PUSH1 0x60 PUSH0 DUP4 SWAP1 POP PUSH0 PUSH1 0x2 DUP5 PUSH1 0x2 PUSH2 0xB01 SWAP2 SWAP1 PUSH2 0x1945 JUMP JUMPDEST PUSH2 0xB0B SWAP2 SWAP1 PUSH2 0x1986 JUMP JUMPDEST PUSH8 0xFFFFFFFFFFFFFFFF DUP2 GT ISZERO PUSH2 0xB24 JUMPI PUSH2 0xB23 PUSH2 0x104C JUMP JUMPDEST JUMPDEST PUSH1 0x40 MLOAD SWAP1 DUP1 DUP3 MSTORE DUP1 PUSH1 0x1F ADD PUSH1 0x1F NOT AND PUSH1 0x20 ADD DUP3 ADD PUSH1 0x40 MSTORE DUP1 ISZERO PUSH2 0xB56 JUMPI DUP2 PUSH1 0x20 ADD PUSH1 0x1 DUP3 MUL DUP1 CALLDATASIZE DUP4 CALLDATACOPY DUP1 DUP3 ADD SWAP2 POP POP SWAP1 POP JUMPDEST POP SWAP1 POP PUSH32 0x3000000000000000000000000000000000000000000000000000000000000000 DUP2 PUSH0 DUP2 MLOAD DUP2 LT PUSH2 0xB8D JUMPI PUSH2 0xB8C PUSH2 0x19B9 JUMP JUMPDEST JUMPDEST PUSH1 0x20 ADD ADD SWAP1 PUSH31 0xFFFFFFFFFFFFFFFFFFFFFFFFFFFFFFFFFFFFFFFFFFFFFFFFFFFFFFFFFFFFFF NOT AND SWAP1 DUP2 PUSH0 BYTE SWAP1 MSTORE8 POP PUSH32 0x7800000000000000000000000000000000000000000000000000000000000000 DUP2 PUSH1 0x1 DUP2 MLOAD DUP2 LT PUSH2 0xBF0 JUMPI PUSH2 0xBEF PUSH2 0x19B9 JUMP JUMPDEST JUMPDEST PUSH1 0x20 ADD ADD SWAP1 PUSH31 0xFFFFFFFFFFFFFFFFFFFFFFFFFFFFFFFFFFFFFFFFFFFFFFFFFFFFFFFFFFFFFF NOT AND SWAP1 DUP2 PUSH0 BYTE SWAP1 MSTORE8 POP PUSH0 PUSH1 0x1 DUP6 PUSH1 0x2 PUSH2 0xC2E SWAP2 SWAP1 PUSH2 0x1945 JUMP JUMPDEST PUSH2 0xC38 SWAP2 SWAP1 PUSH2 0x1986 JUMP JUMPDEST SWAP1 POP JUMPDEST PUSH1 0x1 DUP2 GT ISZERO PUSH2 0xCD7 JUMPI PUSH32 0x3031323334353637383961626364656600000000000000000000000000000000 PUSH1 0xF DUP5 AND PUSH1 0x10 DUP2 LT PUSH2 0xC7A JUMPI PUSH2 0xC79 PUSH2 0x19B9 JUMP JUMPDEST JUMPDEST BYTE PUSH1 0xF8 SHL DUP3 DUP3 DUP2 MLOAD DUP2 LT PUSH2 0xC91 JUMPI PUSH2 0xC90 PUSH2 0x19B9 JUMP JUMPDEST JUMPDEST PUSH1 0x20 ADD ADD SWAP1 PUSH31 0xFFFFFFFFFFFFFFFFFFFFFFFFFFFFFFFFFFFFFFFFFFFFFFFFFFFFFFFFFFFFFF NOT AND SWAP1 DUP2 PUSH0 BYTE SWAP1 MSTORE8 POP PUSH1 0x4 DUP4 SWAP1 SHR SWAP3 POP DUP1 PUSH2 0xCD0 SWAP1 PUSH2 0x19E6 JUMP JUMPDEST SWAP1 POP PUSH2 0xC3B JUMP JUMPDEST POP PUSH0 DUP3 EQ PUSH2 0xD1E JUMPI DUP5 DUP5 PUSH1 0x40 MLOAD PUSH32 0xE22E27EB00000000000000000000000000000000000000000000000000000000 DUP2 MSTORE PUSH1 0x4 ADD PUSH2 0xD15 SWAP3 SWAP2 SWAP1 PUSH2 0x1A0D JUMP JUMPDEST PUSH1 0x40 MLOAD DUP1 SWAP2 SUB SWAP1 REVERT JUMPDEST DUP1 SWAP3 POP POP POP SWAP3 SWAP2 POP POP JUMP JUMPDEST PUSH1 0x60 DUP3 PUSH2 0xD35 CHAINID PUSH2 0x72D JUMP JUMPDEST PUSH2 0xD3E DUP5 PUSH2 0x72D JUMP JUMPDEST PUSH1 0x40 MLOAD PUSH1 0x20 ADD PUSH2 0xD50 SWAP4 SWAP3 SWAP2 SWAP1 PUSH2 0x1A7E JUMP JUMPDEST PUSH1 0x40 MLOAD PUSH1 0x20 DUP2 DUP4 SUB SUB DUP2 MSTORE SWAP1 PUSH1 0x40 MSTORE SWAP1 POP SWAP3 SWAP2 POP POP JUMP JUMPDEST PUSH1 0x60 DUP2 PUSH2 0xD73 CHAINID PUSH2 0x72D JUMP JUMPDEST DUP5 PUSH1 0x40 MLOAD PUSH1 0x20 ADD PUSH2 0xD86 SWAP4 SWAP3 SWAP2 SWAP1 PUSH2 0x1B0E JUMP JUMPDEST PUSH1 0x40 MLOAD PUSH1 0x20 DUP2 DUP4 SUB SUB DUP2 MSTORE SWAP1 PUSH1 0x40 MSTORE SWAP1 POP SWAP3 SWAP2 POP POP JUMP JUMPDEST PUSH1 0x60 PUSH0 PUSH2 0xDAA DUP7 DUP7 PUSH2 0xD29 JUMP JUMPDEST SWAP1 POP PUSH0 PUSH1 0x40 MLOAD DUP1 PUSH1 0x20 ADD PUSH1 0x40 MSTORE DUP1 PUSH0 DUP2 MSTORE POP SWAP1 POP PUSH0 DUP5 MLOAD GT ISZERO PUSH2 0xDEA JUMPI DUP4 PUSH1 0x40 MLOAD PUSH1 0x20 ADD PUSH2 0xDD8 SWAP2 SWAP1 PUSH2 0x1B6A JUMP JUMPDEST PUSH1 0x40 MLOAD PUSH1 0x20 DUP2 DUP4 SUB SUB DUP2 MSTORE SWAP1 PUSH1 0x40 MSTORE SWAP1 POP JUMPDEST DUP2 DUP6 DUP3 PUSH1 0x40 MLOAD PUSH1 0x20 ADD PUSH2 0xDFF SWAP4 SWAP3 SWAP2 SWAP1 PUSH2 0x1C1F JUMP JUMPDEST PUSH1 0x40 MLOAD PUSH1 0x20 DUP2 DUP4 SUB SUB DUP2 MSTORE SWAP1 PUSH1 0x40 MSTORE SWAP3 POP POP POP SWAP5 SWAP4 POP POP POP POP JUMP JUMPDEST PUSH0 DUP1 PUSH0 SWAP1 POP PUSH27 0x184F03E93FF9F4DAA797ED6E38ED64BF6A1F010000000000000000 DUP4 LT PUSH2 0xE76 JUMPI PUSH27 0x184F03E93FF9F4DAA797ED6E38ED64BF6A1F010000000000000000 DUP4 DUP2 PUSH2 0xE6C JUMPI PUSH2 0xE6B PUSH2 0x1651 JUMP JUMPDEST JUMPDEST DIV SWAP3 POP PUSH1 0x40 DUP2 ADD SWAP1 POP JUMPDEST PUSH14 0x4EE2D6D415B85ACEF8100000000 DUP4 LT PUSH2 0xEB3 JUMPI PUSH14 0x4EE2D6D415B85ACEF8100000000 DUP4 DUP2 PUSH2 0xEA9 JUMPI PUSH2 0xEA8 PUSH2 0x1651 JUMP JUMPDEST JUMPDEST DIV SWAP3 POP PUSH1 0x20 DUP2 ADD SWAP1 POP JUMPDEST PUSH7 0x2386F26FC10000 DUP4 LT PUSH2 0xEE2 JUMPI PUSH7 0x2386F26FC10000 DUP4 DUP2 PUSH2 0xED8 JUMPI PUSH2 0xED7 PUSH2 0x1651 JUMP JUMPDEST JUMPDEST DIV SWAP3 POP PUSH1 0x10 DUP2 ADD SWAP1 POP JUMPDEST PUSH4 0x5F5E100 DUP4 LT PUSH2 0xF0B JUMPI PUSH4 0x5F5E100 DUP4 DUP2 PUSH2 0xF01 JUMPI PUSH2 0xF00 PUSH2 0x1651 JUMP JUMPDEST JUMPDEST DIV SWAP3 POP PUSH1 0x8 DUP2 ADD SWAP1 POP JUMPDEST PUSH2 0x2710 DUP4 LT PUSH2 0xF30 JUMPI PUSH2 0x2710 DUP4 DUP2 PUSH2 0xF26 JUMPI PUSH2 0xF25 PUSH2 0x1651 JUMP JUMPDEST JUMPDEST DIV SWAP3 POP PUSH1 0x4 DUP2 ADD SWAP1 POP JUMPDEST PUSH1 0x64 DUP4 LT PUSH2 0xF53 JUMPI PUSH1 0x64 DUP4 DUP2 PUSH2 0xF49 JUMPI PUSH2 0xF48 PUSH2 0x1651 JUMP JUMPDEST JUMPDEST DIV SWAP3 POP PUSH1 0x2 DUP2 ADD SWAP1 POP JUMPDEST PUSH1 0xA DUP4 LT PUSH2 0xF62 JUMPI PUSH1 0x1 DUP2 ADD SWAP1 POP JUMPDEST DUP1 SWAP2 POP POP SWAP2 SWAP1 POP JUMP JUMPDEST PUSH0 PUSH1 0x40 MLOAD SWAP1 POP SWAP1 JUMP JUMPDEST PUSH0 DUP1 REVERT JUMPDEST PUSH0 DUP1 REVERT JUMPDEST PUSH0 DUP2 SWAP1 POP SWAP2 SWAP1 POP JUMP JUMPDEST PUSH2 0xF8E DUP2 PUSH2 0xF7C JUMP JUMPDEST DUP2 EQ PUSH2 0xF98 JUMPI PUSH0 DUP1 REVERT JUMPDEST POP JUMP JUMPDEST PUSH0 DUP2 CALLDATALOAD SWAP1 POP PUSH2 0xFA9 DUP2 PUSH2 0xF85 JUMP JUMPDEST SWAP3 SWAP2 POP POP JUMP JUMPDEST PUSH0 PUSH1 0x20 DUP3 DUP5 SUB SLT ISZERO PUSH2 0xFC4 JUMPI PUSH2 0xFC3 PUSH2 0xF74 JUMP JUMPDEST JUMPDEST PUSH0 PUSH2 0xFD1 DUP5 DUP3 DUP6 ADD PUSH2 0xF9B JUMP JUMPDEST SWAP2 POP POP SWAP3 SWAP2 POP POP JUMP JUMPDEST PUSH0 PUSH20 0xFFFFFFFFFFFFFFFFFFFFFFFFFFFFFFFFFFFFFFFF DUP3 AND SWAP1 POP SWAP2 SWAP1 POP JUMP JUMPDEST PUSH0 PUSH2 0x1003 DUP3 PUSH2 0xFDA JUMP JUMPDEST SWAP1 POP SWAP2 SWAP1 POP JUMP JUMPDEST PUSH2 0x1013 DUP2 PUSH2 0xFF9 JUMP JUMPDEST DUP2 EQ PUSH2 0x101D JUMPI PUSH0 DUP1 REVERT JUMPDEST POP JUMP JUMPDEST PUSH0 DUP2 CALLDATALOAD SWAP1 POP PUSH2 0x102E DUP2 PUSH2 0x100A JUMP JUMPDEST SWAP3 SWAP2 POP POP JUMP JUMPDEST PUSH0 DUP1 REVERT JUMPDEST PUSH0 DUP1 REVERT JUMPDEST PUSH0 PUSH1 0x1F NOT PUSH1 0x1F DUP4 ADD AND SWAP1 POP SWAP2 SWAP1 POP JUMP JUMPDEST PUSH32 0x4E487B7100000000000000000000000000000000000000000000000000000000 PUSH0 MSTORE PUSH1 0x41 PUSH1 0x4 MSTORE PUSH1 0x24 PUSH0 REVERT JUMPDEST PUSH2 0x1082 DUP3 PUSH2 0x103C JUMP JUMPDEST DUP2 ADD DUP2 DUP2 LT PUSH8 0xFFFFFFFFFFFFFFFF DUP3 GT OR ISZERO PUSH2 0x10A1 JUMPI PUSH2 0x10A0 PUSH2 0x104C JUMP JUMPDEST JUMPDEST DUP1 PUSH1 0x40 MSTORE POP POP POP JUMP JUMPDEST PUSH0 PUSH2 0x10B3 PUSH2 0xF6B JUMP JUMPDEST SWAP1 POP PUSH2 0x10BF DUP3 DUP3 PUSH2 0x1079 JUMP JUMPDEST SWAP2 SWAP1 POP JUMP JUMPDEST PUSH0 PUSH8 0xFFFFFFFFFFFFFFFF DUP3 GT ISZERO PUSH2 0x10DE JUMPI PUSH2 0x10DD PUSH2 0x104C JUMP JUMPDEST JUMPDEST PUSH2 0x10E7 DUP3 PUSH2 0x103C JUMP JUMPDEST SWAP1 POP PUSH1 0x20 DUP2 ADD SWAP1 POP SWAP2 SWAP1 POP JUMP JUMPDEST DUP3 DUP2 DUP4 CALLDATACOPY PUSH0 DUP4 DUP4 ADD MSTORE POP POP POP JUMP JUMPDEST PUSH0 PUSH2 0x1114 PUSH2 0x110F DUP5 PUSH2 0x10C4 JUMP JUMPDEST PUSH2 0x10AA JUMP JUMPDEST SWAP1 POP DUP3 DUP2 MSTORE PUSH1 0x20 DUP2 ADD DUP5 DUP5 DUP5 ADD GT ISZERO PUSH2 0x1130 JUMPI PUSH2 0x112F PUSH2 0x1038 JUMP JUMPDEST JUMPDEST PUSH2 0x113B DUP5 DUP3 DUP6 PUSH2 0x10F4 JUMP JUMPDEST POP SWAP4 SWAP3 POP POP POP JUMP JUMPDEST PUSH0 DUP3 PUSH1 0x1F DUP4 ADD SLT PUSH2 0x1157 JUMPI PUSH2 0x1156 PUSH2 0x1034 JUMP JUMPDEST JUMPDEST DUP2 CALLDATALOAD PUSH2 0x1167 DUP5 DUP3 PUSH1 0x20 DUP7 ADD PUSH2 0x1102 JUMP JUMPDEST SWAP2 POP POP SWAP3 SWAP2 POP POP JUMP JUMPDEST PUSH0 DUP1 PUSH0 DUP1 PUSH1 0x80 DUP6 DUP8 SUB SLT ISZERO PUSH2 0x1188 JUMPI PUSH2 0x1187 PUSH2 0xF74 JUMP JUMPDEST JUMPDEST PUSH0 PUSH2 0x1195 DUP8 DUP3 DUP9 ADD PUSH2 0x1020 JUMP JUMPDEST SWAP5 POP POP PUSH1 0x20 PUSH2 0x11A6 DUP8 DUP3 DUP9 ADD PUSH2 0x1020 JUMP JUMPDEST SWAP4 POP POP PUSH1 0x40 PUSH2 0x11B7 DUP8 DUP3 DUP9 ADD PUSH2 0xF9B JUMP JUMPDEST SWAP3 POP POP PUSH1 0x60 DUP6 ADD CALLDATALOAD PUSH8 0xFFFFFFFFFFFFFFFF DUP2 GT ISZERO PUSH2 0x11D8 JUMPI PUSH2 0x11D7 PUSH2 0xF78 JUMP JUMPDEST JUMPDEST PUSH2 0x11E4 DUP8 DUP3 DUP9 ADD PUSH2 0x1143 JUMP JUMPDEST SWAP2 POP POP SWAP3 SWAP6 SWAP2 SWAP5 POP SWAP3 POP JUMP JUMPDEST PUSH0 PUSH32 0xFFFFFFFF00000000000000000000000000000000000000000000000000000000 DUP3 AND SWAP1 POP SWAP2 SWAP1 POP JUMP JUMPDEST PUSH2 0x1224 DUP2 PUSH2 0x11F0 JUMP JUMPDEST DUP3 MSTORE POP POP JUMP JUMPDEST PUSH0 PUSH1 0x20 DUP3 ADD SWAP1 POP PUSH2 0x123D PUSH0 DUP4 ADD DUP5 PUSH2 0x121B JUMP JUMPDEST SWAP3 SWAP2 POP POP JUMP JUMPDEST PUSH0 PUSH1 0x20 DUP3 DUP5 SUB SLT ISZERO PUSH2 0x1258 JUMPI PUSH2 0x1257 PUSH2 0xF74 JUMP JUMPDEST JUMPDEST PUSH0 PUSH2 0x1265 DUP5 DUP3 DUP6 ADD PUSH2 0x1020 JUMP JUMPDEST SWAP2 POP POP SWAP3 SWAP2 POP POP JUMP JUMPDEST PUSH0 DUP1 PUSH1 0x40 DUP4 DUP6 SUB SLT ISZERO PUSH2 0x1284 JUMPI PUSH2 0x1283 PUSH2 0xF74 JUMP JUMPDEST JUMPDEST PUSH0 PUSH2 0x1291 DUP6 DUP3 DUP7 ADD PUSH2 0x1020 JUMP JUMPDEST SWAP3 POP POP PUSH1 0x20 PUSH2 0x12A2 DUP6 DUP3 DUP7 ADD PUSH2 0x1020 JUMP JUMPDEST SWAP2 POP POP SWAP3 POP SWAP3 SWAP1 POP JUMP JUMPDEST PUSH0 DUP2 MLOAD SWAP1 POP SWAP2 SWAP1 POP JUMP JUMPDEST PUSH0 DUP3 DUP3 MSTORE PUSH1 0x20 DUP3 ADD SWAP1 POP SWAP3 SWAP2 POP POP JUMP JUMPDEST PUSH0 JUMPDEST DUP4 DUP2 LT ISZERO PUSH2 0x12E3 JUMPI DUP1 DUP3 ADD MLOAD DUP2 DUP5 ADD MSTORE PUSH1 0x20 DUP2 ADD SWAP1 POP PUSH2 0x12C8 JUMP JUMPDEST PUSH0 DUP5 DUP5 ADD MSTORE POP POP POP POP JUMP JUMPDEST PUSH0 PUSH2 0x12F8 DUP3 PUSH2 0x12AC JUMP JUMPDEST PUSH2 0x1302 DUP2 DUP6 PUSH2 0x12B6 JUMP JUMPDEST SWAP4 POP PUSH2 0x1312 DUP2 DUP6 PUSH1 0x20 DUP7 ADD PUSH2 0x12C6 JUMP JUMPDEST PUSH2 0x131B DUP2 PUSH2 0x103C JUMP JUMPDEST DUP5 ADD SWAP2 POP POP SWAP3 SWAP2 POP POP JUMP JUMPDEST PUSH0 PUSH1 0x20 DUP3 ADD SWAP1 POP DUP2 DUP2 SUB PUSH0 DUP4 ADD MSTORE PUSH2 0x133E DUP2 DUP5 PUSH2 0x12EE JUMP JUMPDEST SWAP1 POP SWAP3 SWAP2 POP POP JUMP JUMPDEST PUSH2 0x134F DUP2 PUSH2 0xF7C JUMP JUMPDEST DUP3 MSTORE POP POP JUMP JUMPDEST PUSH0 PUSH1 0x20 DUP3 ADD SWAP1 POP PUSH2 0x1368 PUSH0 DUP4 ADD DUP5 PUSH2 0x1346 JUMP JUMPDEST SWAP3 SWAP2 POP POP JUMP JUMPDEST PUSH0 DUP1 PUSH1 0x40 DUP4 DUP6 SUB SLT ISZERO PUSH2 0x1384 JUMPI PUSH2 0x1383 PUSH2 0xF74 JUMP JUMPDEST JUMPDEST PUSH0 PUSH2 0x1391 DUP6 DUP3 DUP7 ADD PUSH2 0xF9B JUMP JUMPDEST SWAP3 POP POP PUSH1 0x20 PUSH2 0x13A2 DUP6 DUP3 DUP7 ADD PUSH2 0x1020 JUMP JUMPDEST SWAP2 POP POP SWAP3 POP SWAP3 SWAP1 POP JUMP JUMPDEST PUSH32 0x69643D0000000000000000000000000000000000000000000000000000000000 DUP2 MSTORE POP JUMP JUMPDEST PUSH0 DUP2 SWAP1 POP SWAP3 SWAP2 POP POP JUMP JUMPDEST PUSH0 PUSH2 0x13E6 DUP3 PUSH2 0x12AC JUMP JUMPDEST PUSH2 0x13F0 DUP2 DUP6 PUSH2 0x13D2 JUMP JUMPDEST SWAP4 POP PUSH2 0x1400 DUP2 DUP6 PUSH1 0x20 DUP7 ADD PUSH2 0x12C6 JUMP JUMPDEST DUP1 DUP5 ADD SWAP2 POP POP SWAP3 SWAP2 POP POP JUMP JUMPDEST PUSH0 PUSH2 0x1416 DUP3 PUSH2 0x13AC JUMP JUMPDEST PUSH1 0x3 DUP3 ADD SWAP2 POP PUSH2 0x1426 DUP3 DUP5 PUSH2 0x13DC JUMP JUMPDEST SWAP2 POP DUP2 SWAP1 POP SWAP3 SWAP2 POP POP JUMP JUMPDEST PUSH2 0x143A DUP2 PUSH2 0xFF9 JUMP JUMPDEST DUP3 MSTORE POP POP JUMP JUMPDEST PUSH0 PUSH1 0x60 DUP3 ADD SWAP1 POP PUSH2 0x1453 PUSH0 DUP4 ADD DUP7 PUSH2 0x1431 JUMP JUMPDEST PUSH2 0x1460 PUSH1 0x20 DUP4 ADD DUP6 PUSH2 0x1346 JUMP JUMPDEST DUP2 DUP2 SUB PUSH1 0x40 DUP4 ADD MSTORE PUSH2 0x1472 DUP2 DUP5 PUSH2 0x12EE JUMP JUMPDEST SWAP1 POP SWAP5 SWAP4 POP POP POP POP JUMP JUMPDEST PUSH0 PUSH1 0x60 DUP3 ADD SWAP1 POP PUSH2 0x148F PUSH0 DUP4 ADD DUP7 PUSH2 0x1431 JUMP JUMPDEST PUSH2 0x149C PUSH1 0x20 DUP4 ADD DUP6 PUSH2 0x1346 JUMP JUMPDEST PUSH2 0x14A9 PUSH1 0x40 DUP4 ADD DUP5 PUSH2 0x1431 JUMP JUMPDEST SWAP5 SWAP4 POP POP POP POP JUMP JUMPDEST PUSH32 0x4E487B7100000000000000000000000000000000000000000000000000000000 PUSH0 MSTORE PUSH1 0x11 PUSH1 0x4 MSTORE PUSH1 0x24 PUSH0 REVERT JUMPDEST PUSH0 PUSH2 0x14E8 DUP3 PUSH2 0xF7C JUMP JUMPDEST SWAP2 POP PUSH32 0xFFFFFFFFFFFFFFFFFFFFFFFFFFFFFFFFFFFFFFFFFFFFFFFFFFFFFFFFFFFFFFFF DUP3 SUB PUSH2 0x151A JUMPI PUSH2 0x1519 PUSH2 0x14B1 JUMP JUMPDEST JUMPDEST PUSH1 0x1 DUP3 ADD SWAP1 POP SWAP2 SWAP1 POP JUMP JUMPDEST PUSH32 0x2C00000000000000000000000000000000000000000000000000000000000000 DUP2 MSTORE POP JUMP JUMPDEST PUSH0 PUSH2 0x1556 DUP3 DUP7 PUSH2 0x13DC JUMP JUMPDEST SWAP2 POP PUSH2 0x1561 DUP3 PUSH2 0x1525 JUMP JUMPDEST PUSH1 0x1 DUP3 ADD SWAP2 POP PUSH2 0x1571 DUP3 DUP6 PUSH2 0x13DC JUMP JUMPDEST SWAP2 POP PUSH2 0x157C DUP3 PUSH2 0x1525 JUMP JUMPDEST PUSH1 0x1 DUP3 ADD SWAP2 POP PUSH2 0x158C DUP3 DUP5 PUSH2 0x13DC JUMP JUMPDEST SWAP2 POP DUP2 SWAP1 POP SWAP5 SWAP4 POP POP POP POP JUMP JUMPDEST PUSH0 PUSH1 0x40 DUP3 ADD SWAP1 POP PUSH2 0x15AC PUSH0 DUP4 ADD DUP6 PUSH2 0x1431 JUMP JUMPDEST DUP2 DUP2 SUB PUSH1 0x20 DUP4 ADD MSTORE PUSH2 0x15BE DUP2 DUP5 PUSH2 0x12EE JUMP JUMPDEST SWAP1 POP SWAP4 SWAP3 POP POP POP JUMP JUMPDEST PUSH0 DUP2 MLOAD SWAP1 POP PUSH2 0x15D5 DUP2 PUSH2 0xF85 JUMP JUMPDEST SWAP3 SWAP2 POP POP JUMP JUMPDEST PUSH0 PUSH1 0x20 DUP3 DUP5 SUB SLT ISZERO PUSH2 0x15F0 JUMPI PUSH2 0x15EF PUSH2 0xF74 JUMP JUMPDEST JUMPDEST PUSH0 PUSH2 0x15FD DUP5 DUP3 DUP6 ADD PUSH2 0x15C7 JUMP JUMPDEST SWAP2 POP POP SWAP3 SWAP2 POP POP JUMP JUMPDEST PUSH32 0x67726F757049643D000000000000000000000000000000000000000000000000 DUP2 MSTORE POP JUMP JUMPDEST PUSH0 PUSH2 0x1636 DUP3 PUSH2 0x1606 JUMP JUMPDEST PUSH1 0x8 DUP3 ADD SWAP2 POP PUSH2 0x1646 DUP3 DUP5 PUSH2 0x13DC JUMP JUMPDEST SWAP2 POP DUP2 SWAP1 POP SWAP3 SWAP2 POP POP JUMP JUMPDEST PUSH32 0x4E487B7100000000000000000000000000000000000000000000000000000000 PUSH0 MSTORE PUSH1 0x12 PUSH1 0x4 MSTORE PUSH1 0x24 PUSH0 REVERT JUMPDEST PUSH32 0x44454C4554452046524F4D200000000000000000000000000000000000000000 PUSH0 DUP3 ADD MSTORE POP JUMP JUMPDEST PUSH0 PUSH2 0x16B2 PUSH1 0xC DUP4 PUSH2 0x13D2 JUMP JUMPDEST SWAP2 POP PUSH2 0x16BD DUP3 PUSH2 0x167E JUMP JUMPDEST PUSH1 0xC DUP3 ADD SWAP1 POP SWAP2 SWAP1 POP JUMP JUMPDEST PUSH32 0x2057484552452000000000000000000000000000000000000000000000000000 PUSH0 DUP3 ADD MSTORE POP JUMP JUMPDEST PUSH0 PUSH2 0x16FC PUSH1 0x7 DUP4 PUSH2 0x13D2 JUMP JUMPDEST SWAP2 POP PUSH2 0x1707 DUP3 PUSH2 0x16C8 JUMP JUMPDEST PUSH1 0x7 DUP3 ADD SWAP1 POP SWAP2 SWAP1 POP JUMP JUMPDEST PUSH0 PUSH2 0x171C DUP3 PUSH2 0x16A6 JUMP JUMPDEST SWAP2 POP PUSH2 0x1728 DUP3 DUP6 PUSH2 0x13DC JUMP JUMPDEST SWAP2 POP PUSH2 0x1733 DUP3 PUSH2 0x16F0 JUMP JUMPDEST SWAP2 POP PUSH2 0x173F DUP3 DUP5 PUSH2 0x13DC JUMP JUMPDEST SWAP2 POP DUP2 SWAP1 POP SWAP4 SWAP3 POP POP POP JUMP JUMPDEST PUSH32 0x2700000000000000000000000000000000000000000000000000000000000000 PUSH0 DUP3 ADD MSTORE POP JUMP JUMPDEST PUSH0 PUSH2 0x177F PUSH1 0x1 DUP4 PUSH2 0x13D2 JUMP JUMPDEST SWAP2 POP PUSH2 0x178A DUP3 PUSH2 0x174B JUMP JUMPDEST PUSH1 0x1 DUP3 ADD SWAP1 POP SWAP2 SWAP1 POP JUMP JUMPDEST PUSH0 PUSH2 0x179F DUP3 PUSH2 0x1773 JUMP JUMPDEST SWAP2 POP PUSH2 0x17AB DUP3 DUP5 PUSH2 0x13DC JUMP JUMPDEST SWAP2 POP PUSH2 0x17B6 DUP3 PUSH2 0x1773 JUMP JUMPDEST SWAP2 POP DUP2 SWAP1 POP SWAP3 SWAP2 POP POP JUMP JUMPDEST PUSH32 0x494E5345525420494E544F200000000000000000000000000000000000000000 PUSH0 DUP3 ADD MSTORE POP JUMP JUMPDEST PUSH0 PUSH2 0x17F5 PUSH1 0xC DUP4 PUSH2 0x13D2 JUMP JUMPDEST SWAP2 POP PUSH2 0x1800 DUP3 PUSH2 0x17C1 JUMP JUMPDEST PUSH1 0xC DUP3 ADD SWAP1 POP SWAP2 SWAP1 POP JUMP JUMPDEST PUSH32 0x2800000000000000000000000000000000000000000000000000000000000000 PUSH0 DUP3 ADD MSTORE POP JUMP JUMPDEST PUSH0 PUSH2 0x183F PUSH1 0x1 DUP4 PUSH2 0x13D2 JUMP JUMPDEST SWAP2 POP PUSH2 0x184A DUP3 PUSH2 0x180B JUMP JUMPDEST PUSH1 0x1 DUP3 ADD SWAP1 POP SWAP2 SWAP1 POP JUMP JUMPDEST PUSH32 0x2956414C55455328000000000000000000000000000000000000000000000000 PUSH0 DUP3 ADD MSTORE POP JUMP JUMPDEST PUSH0 PUSH2 0x1889 PUSH1 0x8 DUP4 PUSH2 0x13D2 JUMP JUMPDEST SWAP2 POP PUSH2 0x1894 DUP3 PUSH2 0x1855 JUMP JUMPDEST PUSH1 0x8 DUP3 ADD SWAP1 POP SWAP2 SWAP1 POP JUMP JUMPDEST PUSH32 0x2900000000000000000000000000000000000000000000000000000000000000 PUSH0 DUP3 ADD MSTORE POP JUMP JUMPDEST PUSH0 PUSH2 0x18D3 PUSH1 0x1 DUP4 PUSH2 0x13D2 JUMP JUMPDEST SWAP2 POP PUSH2 0x18DE DUP3 PUSH2 0x189F JUMP JUMPDEST PUSH1 0x1 DUP3 ADD SWAP1 POP SWAP2 SWAP1 POP JUMP JUMPDEST PUSH0 PUSH2 0x18F3 DUP3 PUSH2 0x17E9 JUMP JUMPDEST SWAP2 POP PUSH2 0x18FF DUP3 DUP7 PUSH2 0x13DC JUMP JUMPDEST SWAP2 POP PUSH2 0x190A DUP3 PUSH2 0x1833 JUMP JUMPDEST SWAP2 POP PUSH2 0x1916 DUP3 DUP6 PUSH2 0x13DC JUMP JUMPDEST SWAP2 POP PUSH2 0x1921 DUP3 PUSH2 0x187D JUMP JUMPDEST SWAP2 POP PUSH2 0x192D DUP3 DUP5 PUSH2 0x13DC JUMP JUMPDEST SWAP2 POP PUSH2 0x1938 DUP3 PUSH2 0x18C7 JUMP JUMPDEST SWAP2 POP DUP2 SWAP1 POP SWAP5 SWAP4 POP POP POP POP JUMP JUMPDEST PUSH0 PUSH2 0x194F DUP3 PUSH2 0xF7C JUMP JUMPDEST SWAP2 POP PUSH2 0x195A DUP4 PUSH2 0xF7C JUMP JUMPDEST SWAP3 POP DUP3 DUP3 MUL PUSH2 0x1968 DUP2 PUSH2 0xF7C JUMP JUMPDEST SWAP2 POP DUP3 DUP3 DIV DUP5 EQ DUP4 ISZERO OR PUSH2 0x197F JUMPI PUSH2 0x197E PUSH2 0x14B1 JUMP JUMPDEST JUMPDEST POP SWAP3 SWAP2 POP POP JUMP JUMPDEST PUSH0 PUSH2 0x1990 DUP3 PUSH2 0xF7C JUMP JUMPDEST SWAP2 POP PUSH2 0x199B DUP4 PUSH2 0xF7C JUMP JUMPDEST SWAP3 POP DUP3 DUP3 ADD SWAP1 POP DUP1 DUP3 GT ISZERO PUSH2 0x19B3 JUMPI PUSH2 0x19B2 PUSH2 0x14B1 JUMP JUMPDEST JUMPDEST SWAP3 SWAP2 POP POP JUMP JUMPDEST PUSH32 0x4E487B7100000000000000000000000000000000000000000000000000000000 PUSH0 MSTORE PUSH1 0x32 PUSH1 0x4 MSTORE PUSH1 0x24 PUSH0 REVERT JUMPDEST PUSH0 PUSH2 0x19F0 DUP3 PUSH2 0xF7C JUMP JUMPDEST SWAP2 POP PUSH0 DUP3 SUB PUSH2 0x1A02 JUMPI PUSH2 0x1A01 PUSH2 0x14B1 JUMP JUMPDEST JUMPDEST PUSH1 0x1 DUP3 SUB SWAP1 POP SWAP2 SWAP1 POP JUMP JUMPDEST PUSH0 PUSH1 0x40 DUP3 ADD SWAP1 POP PUSH2 0x1A20 PUSH0 DUP4 ADD DUP6 PUSH2 0x1346 JUMP JUMPDEST PUSH2 0x1A2D PUSH1 0x20 DUP4 ADD DUP5 PUSH2 0x1346 JUMP JUMPDEST SWAP4 SWAP3 POP POP POP JUMP JUMPDEST PUSH32 0x5F00000000000000000000000000000000000000000000000000000000000000 PUSH0 DUP3 ADD MSTORE POP JUMP JUMPDEST PUSH0 PUSH2 0x1A68 PUSH1 0x1 DUP4 PUSH2 0x13D2 JUMP JUMPDEST SWAP2 POP PUSH2 0x1A73 DUP3 PUSH2 0x1A34 JUMP JUMPDEST PUSH1 0x1 DUP3 ADD SWAP1 POP SWAP2 SWAP1 POP JUMP JUMPDEST PUSH0 PUSH2 0x1A89 DUP3 DUP7 PUSH2 0x13DC JUMP JUMPDEST SWAP2 POP PUSH2 0x1A94 DUP3 PUSH2 0x1A5C JUMP JUMPDEST SWAP2 POP PUSH2 0x1AA0 DUP3 DUP6 PUSH2 0x13DC JUMP JUMPDEST SWAP2 POP PUSH2 0x1AAB DUP3 PUSH2 0x1A5C JUMP JUMPDEST SWAP2 POP PUSH2 0x1AB7 DUP3 DUP5 PUSH2 0x13DC JUMP JUMPDEST SWAP2 POP DUP2 SWAP1 POP SWAP5 SWAP4 POP POP POP POP JUMP JUMPDEST PUSH32 0x435245415445205441424C452000000000000000000000000000000000000000 PUSH0 DUP3 ADD MSTORE POP JUMP JUMPDEST PUSH0 PUSH2 0x1AF8 PUSH1 0xD DUP4 PUSH2 0x13D2 JUMP JUMPDEST SWAP2 POP PUSH2 0x1B03 DUP3 PUSH2 0x1AC4 JUMP JUMPDEST PUSH1 0xD DUP3 ADD SWAP1 POP SWAP2 SWAP1 POP JUMP JUMPDEST PUSH0 PUSH2 0x1B18 DUP3 PUSH2 0x1AEC JUMP JUMPDEST SWAP2 POP PUSH2 0x1B24 DUP3 DUP7 PUSH2 0x13DC JUMP JUMPDEST SWAP2 POP PUSH2 0x1B2F DUP3 PUSH2 0x1A5C JUMP JUMPDEST SWAP2 POP PUSH2 0x1B3B DUP3 DUP6 PUSH2 0x13DC JUMP JUMPDEST SWAP2 POP PUSH2 0x1B46 DUP3 PUSH2 0x1833 JUMP JUMPDEST SWAP2 POP PUSH2 0x1B52 DUP3 DUP5 PUSH2 0x13DC JUMP JUMPDEST SWAP2 POP PUSH2 0x1B5D DUP3 PUSH2 0x18C7 JUMP JUMPDEST SWAP2 POP DUP2 SWAP1 POP SWAP5 SWAP4 POP POP POP POP JUMP JUMPDEST PUSH0 PUSH2 0x1B74 DUP3 PUSH2 0x16F0 JUMP JUMPDEST SWAP2 POP PUSH2 0x1B80 DUP3 DUP5 PUSH2 0x13DC JUMP JUMPDEST SWAP2 POP DUP2 SWAP1 POP SWAP3 SWAP2 POP POP JUMP JUMPDEST PUSH32 0x5550444154452000000000000000000000000000000000000000000000000000 PUSH0 DUP3 ADD MSTORE POP JUMP JUMPDEST PUSH0 PUSH2 0x1BBF PUSH1 0x7 DUP4 PUSH2 0x13D2 JUMP JUMPDEST SWAP2 POP PUSH2 0x1BCA DUP3 PUSH2 0x1B8B JUMP JUMPDEST PUSH1 0x7 DUP3 ADD SWAP1 POP SWAP2 SWAP1 POP JUMP JUMPDEST PUSH32 0x2053455420000000000000000000000000000000000000000000000000000000 PUSH0 DUP3 ADD MSTORE POP JUMP JUMPDEST PUSH0 PUSH2 0x1C09 PUSH1 0x5 DUP4 PUSH2 0x13D2 JUMP JUMPDEST SWAP2 POP PUSH2 0x1C14 DUP3 PUSH2 0x1BD5 JUMP JUMPDEST PUSH1 0x5 DUP3 ADD SWAP1 POP SWAP2 SWAP1 POP JUMP JUMPDEST PUSH0 PUSH2 0x1C29 DUP3 PUSH2 0x1BB3 JUMP JUMPDEST SWAP2 POP PUSH2 0x1C35 DUP3 DUP7 PUSH2 0x13DC JUMP JUMPDEST SWAP2 POP PUSH2 0x1C40 DUP3 PUSH2 0x1BFD JUMP JUMPDEST SWAP2 POP PUSH2 0x1C4C DUP3 DUP6 PUSH2 0x13DC JUMP JUMPDEST SWAP2 POP PUSH2 0x1C58 DUP3 DUP5 PUSH2 0x13DC JUMP JUMPDEST SWAP2 POP DUP2 SWAP1 POP SWAP5 SWAP4 POP POP POP POP JUMP INVALID PUSH10 0x6420696E746567657220 PUSH17 0x72696D617279206B65792C616464726573 PUSH20 0x20746578742C67726F757049642074657874A264 PUSH10 0x7066735822122013FA26 SSTORE 0xB5 0xDD 0xC9 0xCF SMOD POP ADDMOD CHAINID SWAP5 PUSH1 0x23 PUSH14 0x420D1E1C6C74B8B2B20B3D040793 STATICCALL 0xD9 PUSH5 0x736F6C6343 STOP ADDMOD EQ STOP CALLER "
		},
		"gasEstimates": {
			"creation": {
				"codeDepositCost": "1474200",
				"executionCost": "6544",
				"totalCost": "1480744"
			},
			"external": {
				"createTable()": "infinite",
				"deleteFromTable(uint256)": "infinite",
				"getAddressString(address)": "infinite",
				"getTableId()": "2476",
				"getTableName()": "infinite",
				"insertIntoTable(address,address)": "infinite",
				"onERC721Received(address,address,uint256,bytes)": "infinite",
				"setAccessControl(address)": "infinite",
				"updateTable(uint256,address)": "infinite"
			}
		},
		"methodIdentifiers": {
			"createTable()": "b2a4c897",
			"deleteFromTable(uint256)": "04bfc47f",
			"getAddressString(address)": "3e295859",
			"getTableId()": "88e4f1cb",
			"getTableName()": "5d5a33a2",
			"insertIntoTable(address,address)": "2907b979",
			"onERC721Received(address,address,uint256,bytes)": "150b7a02",
			"setAccessControl(address)": "19129e5a",
			"updateTable(uint256,address)": "e86492b1"
		}
	},
	"abi": [
		{
			"inputs": [
				{
					"internalType": "uint256",
					"name": "chainid",
					"type": "uint256"
				}
			],
			"name": "ChainNotSupported",
			"type": "error"
		},
		{
			"inputs": [
				{
					"internalType": "uint256",
					"name": "value",
					"type": "uint256"
				},
				{
					"internalType": "uint256",
					"name": "length",
					"type": "uint256"
				}
			],
			"name": "StringsInsufficientHexLength",
			"type": "error"
		},
		{
			"inputs": [],
			"name": "createTable",
			"outputs": [],
			"stateMutability": "payable",
			"type": "function"
		},
		{
			"inputs": [
				{
					"internalType": "uint256",
					"name": "id",
					"type": "uint256"
				}
			],
			"name": "deleteFromTable",
			"outputs": [],
			"stateMutability": "nonpayable",
			"type": "function"
		},
		{
			"inputs": [
				{
					"internalType": "address",
					"name": "m",
					"type": "address"
				}
			],
			"name": "getAddressString",
			"outputs": [
				{
					"internalType": "string",
					"name": "",
					"type": "string"
				}
			],
			"stateMutability": "pure",
			"type": "function"
		},
		{
			"inputs": [],
			"name": "getTableId",
			"outputs": [
				{
					"internalType": "uint256",
					"name": "",
					"type": "uint256"
				}
			],
			"stateMutability": "view",
			"type": "function"
		},
		{
			"inputs": [],
			"name": "getTableName",
			"outputs": [
				{
					"internalType": "string",
					"name": "",
					"type": "string"
				}
			],
			"stateMutability": "view",
			"type": "function"
		},
		{
			"inputs": [
				{
					"internalType": "address",
					"name": "groupId",
					"type": "address"
				},
				{
					"internalType": "address",
					"name": "memberAddress",
					"type": "address"
				}
			],
			"name": "insertIntoTable",
			"outputs": [],
			"stateMutability": "nonpayable",
			"type": "function"
		},
		{
			"inputs": [
				{
					"internalType": "address",
					"name": "",
					"type": "address"
				},
				{
					"internalType": "address",
					"name": "",
					"type": "address"
				},
				{
					"internalType": "uint256",
					"name": "",
					"type": "uint256"
				},
				{
					"internalType": "bytes",
					"name": "",
					"type": "bytes"
				}
			],
			"name": "onERC721Received",
			"outputs": [
				{
					"internalType": "bytes4",
					"name": "",
					"type": "bytes4"
				}
			],
			"stateMutability": "nonpayable",
			"type": "function"
		},
		{
			"inputs": [
				{
					"internalType": "address",
					"name": "controller",
					"type": "address"
				}
			],
			"name": "setAccessControl",
			"outputs": [],
			"stateMutability": "nonpayable",
			"type": "function"
		},
		{
			"inputs": [
				{
					"internalType": "uint256",
					"name": "id",
					"type": "uint256"
				},
				{
					"internalType": "address",
					"name": "groupId",
					"type": "address"
				}
			],
			"name": "updateTable",
			"outputs": [],
			"stateMutability": "nonpayable",
			"type": "function"
		}
	]
}